:020000040000FA
:06000000020B3402028C29
:03002B0002097F48
:030053000201B2F5
:03006B0002034845
:100083000202190101FF01010503010F10FEFF7AAE
:10009300157A157A157A1530142A147A15A32300C4
:1000A3000000006724000000000C0000000C0001A9
:1000B300FFFF0101010027050000009E05B80102B2
:1000C30002000800000502070401051E02051E02C6
:1000D3000A0A03B80B02803E010201FFFF010A0175
:1000E3001401E096511800020206FF010900EF57C0
:1000F3000C720D000818201E2024202A2000000066
:1001030000000000000000000000000000000000EC
:1001130000000018201E20242030200000000000D2
:1001230000000000000000000000000000000000CC
:100133000018201E202420362000000000000000AC
:100143000000000000000000000000000000001894
:10015300201E2024203C200000000000000000009E
:10016300000000000000000000000000001020203C
:1001730020202020202020202020202020200110AB
:10018300040100010005758001DC801104010001F8
:100193000005758001DC80120401000100057580F3
:1001A30001DC8013040100010005758001DC80C0BF
:1001B300E074F112052BA2AFE433FED2AFE5A7FF43
:1001C300E5A1F5085FF509741055096006121C8254
:1001D30075A1EF740855096008121C8875A1F78092
:1001E3002BEFA2E0C0D0E508A2E092F0120A6E1550
:1001F3008182F05017906198E0F8900669E0C39807
:10020300A2D265D0335002E8F075A1FEEEA2E092CF
:10021300AF7F0202058AC0E074F212052BA2AFE49D
:1002230033FED2AF9061A4E0F8759B00E59158547A
:100233000860087591F7121CCA802AE5915854107A
:1002430060087591EF121CD0801BE8A2E0C0D0E5D6
:1002530091A2E092F0120A6E158182F05007E0C27B
:10026300E0F0121E089061A3E0F8E5E95854046039
:100273000E121DDE75E9FB906193E0A2E640F2EEFB
:10028300A2E092AF7F0102058AC0E074F212052B4F
:10029300A2AFE433FED2AF9061A5E0F8E5BF5854B6
:1002A30004600675BFFB121E1A80D4C3E498F8E4F9
:1002B30099F91202EF8026C3E49AFAE49BFBE92042
:1002C300E7E91202EFE498F8E499F922C3E498F815
:1002D300E499F91202EFE498F8E499F9C3E49AFA7D
:1002E300E49BFB22EB20E7CFE920E7E0B90010BB5A
:1002F3000008E88AF084F8AAF022E4FBC8FA22EBAB
:1003030070227B10C833C8C933C9335007C39AC39B
:10031300DBF280069A50012ADBEAC833F4C8C933FA
:10032300F4C9FA2275F008E4C833C8C933C933C91C
:100333009AC99B5004C92AC93BD5F0ECFBC833F4D6
:10034300C8E4C9FA22C0E074F212052BA2AFE43369
:10035300FED2AF900C55E4F0E589A2E4500C740191
:10036300F053ABEF900C56E004F0E589A2E5500C96
:1003730053ABDF900C55E0D2E51203C8E589A2E642
:10038300500C53ABBF900C55E0D2E61203C8E5897D
:10039300A2E7500C53AB7F900C55E0D2E71203C891
:1003A300900C55E060107C147D007A107B00900C5B
:1003B30057E0F9121844758900C2C5EEA2E092AF66
:1003C3007F0102058AF0900C56E4F022080808EA3F
:1003D300C0E0EBC0E086F0E7A4FA180986F0E7A4D2
:1003E3002AFA180986F0E7A42AFA180986F0E7A47E
:1003F3002AFA1986F0E7A4FBE5F02AFA190886F031
:10040300E7A42BFBE5F03AFA190886F0E7A42BFBE7
:10041300E5F03AFA18180986F0E7A4C5F02BFBE4D7
:100423003AFA1908E7C5F0C6A426F6E5F03BFBE463
:100433003AFA1886F0E7A4F6E5F00826F6E43B0856
:10044300F6E43A08F6D0E0FBD0E0FA22E4CFC0E0CD
:10045300E4CEC0E0E4CDC0E0E4CCC0E075F020C35E
:10046300E633F608E633F608E633F608E633F6181D
:100473001818EC33FCED33FDEE33FEEF33FFC3EC22
:100483009709ED9709EE9709EF97191919400FFF8F
:10049300EC97FC09ED97FD09EE97FE191906D5F0C7
:1004A300BEECF709EDF709EEF709EFF7191919D0C3
:1004B300E0FCD0E0FDD0E0FED0E0FF222518C582AD
:1004C300C0E0E51934FFC583C0E0E518C395822475
:1004D300F810AF08858319858218800885831985EC
:1004E3008218D2AFCEF0A3E520F0A37808E608F097
:1004F300A3DEFAEFF0A3E58124FAF8E608F0A3E619
:1005030008F0A3E608F0A30808E608F0A3E608F05D
:10051300A315811581D0E0FED0E0F8158115811572
:1005230081E8C0E0EEC0E022C0D02518C582C0E05B
:10053300E51934FFC583C0E0E518C3958224F310A1
:10054300AF088583198582188008858319858218E9
:10055300D2AFC8F0A3E9F0A3EAF0A3EBF0A37908C4
:10056300E709F0A3D8FAECF0A3EDF0A3EEF0A3EFC4
:10057300F0A3D0E0F0A3D0E0F0A3D0E0F0A3E52017
:10058300F0A3E5F0F0A322851983851882E0C0E08B
:10059300A3E0F9A3E0FAA3E0FBA37808E0F608A33D
:1005A300DFFAE0FCA3E0FDA3E0FEA3E0FFA3E0C0CD
:1005B300E0A3E0C0E0A3E0F5D0A3E0F520A3E0A32F
:1005C300F5F010AF08858319858218800885831993
:1005D300858218D2AFD082D083D0E0F8D0E0321237
:1005E3000B96B90003020624E49003017876790A96
:1005F3008002F0A3D8FCD9FA900C76AA82AB839040
:100603000086782D79028015E493A3AC82AD838AAA
:10061300828B83F0A3AA82AB838C828D83D8E9D9A2
:10062300E775828E7583B874041208F775820A75AC
:10063300832274001208F7000075F0108E1A8F1BC6
:1006430085821F85831E851882851983E0CEA3E0EA
:10065300CF851F82851E83EBC9EAC8EDCBECCAC3E5
:10066300E833C8E933C9EA33CAEB33CBC3EA9EF5AF
:100673001DEB9FF51CB35004AB1CAA1DEC33CCED52
:1006830033CDD5F0DAAE1AAF1B22D083D082ECC0C3
:10069300E0EDC0E0E493A3FCE493A3FDED4C600D17
:1006A300120765EC24FFFCED34FFFD80EFE493A318
:1006B300FCE493A3FDED4C600D120802EC24FFFC57
:1006C300ED34FFFD80EFD0E0FDD0E0FCE493A3C068
:1006D300E0E493C0E022851983851882E0A3FEE05D
:1006E300A3F5207808E0A3F608DFFAE0A3FFE0A370
:1006F300C0E0E0A3C0E0E0A3C0E0E0A3C0E0E0A36B
:10070300C0E010AF08858218858319800885821898
:10071300858319D2AFD083D0820208FDD083D082E3
:10072300E9C0E0E493A3C386F0C5F095F0F908E4CB
:1007330093A386F0C5F095F0700BE493A3C399409F
:1007430005E9048002A3E475F002A42582F582E59D
:10075300F03583F583D0E0F9E493A3C0E0E493C0DC
:10076300E022C0E0C3E49396087401939618400F07
:10077300E49366700808740193661870007019A3F7
:10078300A3C3E49396087401939618A3A3400DD0D2
:10079300E0D0E0D0E00206C9A3A3A3A3A3A3D0E0C3
:1007A300227404800474028000CCC0E0EDC0E0E554
:1007B30018C39CCCAD1950011D10AF068C188D19B0
:1007C30080068C188D19D2AF120879D0E0FDD0E0E5
:1007D300FC2274028000CCC0E0EDC0E0E518C39CAD
:1007E300CCAD1950011D10AF068C188D1980068CE5
:1007F300188D19D2AF120857D0E0FDD0E0FC22C00B
:10080300E0C0F088F0E493667008087401936618FA
:100813007000A8F0A3A3700BD0F0D0E0D0E0D0E03C
:100823000206C9A3A3D0F0D0E022D083D082CCC0EB
:10083300E0E493A360061208D81470FAE493A3606B
:10084300061209C91470FAD0E0FCE493A3C0E0E4F3
:1008530093C0E022CAC0E0E493A3C582CCC582C59D
:1008630083CDC583F0A3C582CCC582C583CDC583A3
:10087300DAE5D0E0CA22CAC0E0E0A3C582CCC582D3
:10088300C583CDC583F0A3C582CCC582C583CDC541
:1008930083DAE6D0E0CA22C008C3E096F50808A3CD
:1008A300E096420808A3E096420808A3E0964508AC
:1008B3007001D3D00822700908080822601618189E
:1008C30018C6C333C608C633C608C633C608C633FC
:1008D300C6D5E0EA22C0E0E493A3D39C5010E4938E
:1008E300A3C39C400AD0E0D0E0D0E002084AA3A30F
:1008F300A3D0E022C09FF59FE473D09F22D083D082
:1009030082C09FE493C0E0740193C0E0740293F546
:100913009F222518F58210AF08F51840021519809B
:1009230008F51840021519D2AF8519832274048083
:100933000A74038006740280027401C0E0F4041296
:100943000915D0E0120B7122C0D0251810AF08F59D
:1009530018500205198008F51850020519D2AFD0B6
:10096300D022BB0102E722C082C08389828A83BB73
:100973000003E08002E493D083D08222C0E0C0D0A1
:10098300E8C0E0E5A8D2AFC2C7A2E792AFD0E0F8D3
:10099300D0D0D0E0326016080808C6C313C618C604
:1009A30013C618C613C618C613C6D5E0EA22C3E099
:1009B300C696F608A3E0C696F608A3E0C696F60820
:1009C300A3E0C696F622C0E0E493A36C7009D0E0DE
:1009D300D0E0D0E002084AA3A3D0E022251810AF4C
:1009E30008F518400215198008F51840021519D2A8
:1009F300AF22E76670100809E766700A0809E76620
:100A030070040809E76622C3E09608A3E09608A3EA
:100A1300E09608A3E096A2D265D03322E066701078
:100A230008A3E066700A08A3E066700408A3E06602
:100A330022C3E096F008A3E096F008A3E096F0083E
:100A4300A3E096F022E026F608A3E036F608A3E03A
:100A530036F608A3E036F622E627F60809E637F667
:100A63000809E637F60809E637F622C0E0E8C0E0F1
:100A7300E58124FCF8E6A2E7D0E0F8D0E022700498
:100A830022600D18C6C333C608C633C6D5E0F418B2
:100A930022E657F60809E657F60809E657F6080965
:100AA300E657F622E056F608A3E056F608A3E0560A
:100AB300F608A3E056F622E056F008A3E056F00845
:100AC300A3E056F008A3E056F022E647F60809E64D
:100AD30047F60809E647F60809E647F622E026F056
:100AE30008A3E036F008A3E036F008A3E036F022CE
:100AF300E4C396F608E496F608E496F608E496F658
:100B030022C6F4C608C6F4C608C6F4C608C6F4C6A8
:100B130022C3E7960809E7960809E7960809E796C6
:100B230022C3E09608A3E09608A3E09608A3E09604
:100B33002275D000758140751801751903000205EF
:100B4300E2E0F608A3E0F608A3E0F608A3E0F62245
:100B5300600C08C6C313C618C613C6D5E0F422E654
:100B6300F008A3E6F008A3E6F008A3E6F022CAC063
:100B7300E0E6F0A308DAFAD0E0FA22E0FAA3E0FB19
:100B8300A3E0FCA3E0FD22EAF0A3EBF0A3ECF0A3C7
:100B9300EDF022E5C754F84401F5C7790122251881
:100BA300F582E43519F58322C2AF75D69F020000A2
:100BB300221209005C5000120900BA500012090009
:100BC300E35000120900535100120900AC51001206
:100BD30009002552001209007554001209002F560E
:100BE30000120900DB56001209001D58001209000B
:100BF300BB5A00120900C15D00120900CE5D00124C
:100C030009005C5E001209000E5F00120900565FC6
:100C130000120900B65F00120900D25F001209003A
:100C23000660001209003B600012090024610012F3
:100C33000900D961001209002E64001209007B65C6
:100C4300001209001E6600120900AB6600120900BB
:100C5300E16600120900936700120900656800123B
:100C63000900206A00120900746A00120900A86AC8
:100C730000120900236B00120900FD6B001209002A
:100C8300BB6C00120900006D00120900186D001200
:100C93000900AF6D001209002070001209003572BF
:100CA3000012090053720012090071720012090048
:100CB3004B730012090069760012090000800212CA
:100CC30009003580021209005B8002120900958039
:100CD30002120900A78002120900F980021209001A
:100CE3005A8102120900E481021209008882021269
:100CF3000900D082021209000A8302120900278325
:100D0300021209004C83021209009E830212090099
:100D1300B78302120900DD8302120900FC83021269
:100D230009003784021209007B8402120900A2849D
:100D330002120900F38402120900A38502120900BA
:100D43005B8602120900238702120900E38702125D
:100D530009002788021209004C88021209008F88B3
:100D630002120900DC8802120900348A0212090007
:100D7300BA8A02120900D88A02120900028B0212EF
:100D830009001C8B021209002B8B02120900368BFF
:100D930002120900F68B021209004F8C021209009D
:100DA300118D02120900198D02120900918D021290
:100DB3000900E08D02120900268E02120900678ED7
:100DC30002120900F78F02120900AF900212090004
:100DD3001B91021209004692021209005792021255
:100DE3000900CD92021209005F9302120900B79322
:100DF300021209007794021209009E94021209005C
:100E0300BC9402120900CE94021209002195021229
:100E130009005E95021209006B9502120900EE9615
:100E2300021209004398021209005C980212090099
:100E3300989902120900339A021209006C9A02125D
:100E43000900B89A02120900D49B021209001D9EE0
:100E530002120900289E02120900339E02120900A1
:100E63003D9E02120900489E02120900629E021270
:100E730009006C9E02120900769E02120900819EEF
:100E830002120900A99E02120900049F021209001E
:100E9300289F021209004C9F02120900AA9F021206
:100EA3000900EE9F021209000AA00212090081A0A4
:100EB30002120900B9A00212090005A102120900D9
:100EC30062A1021209001CA20212090000A402126C
:100ED300090059A40212090089A502120900AFA54D
:100EE3000212090038A702120900B4AA021209006B
:100EF30086AC021209004FAE02120900FCAE0212C8
:100F0300090067B00212090006B10212090053B1C9
:100F130002120900BDB102120900CCB1021209008C
:100F230053B40212090005B60212090072B6021286
:100F3300090051B7021209006AB802120900E7B9A1
:100F43000212090006BA021209005BBA0212090072
:100F530060BB0212090088BB02120900E0BB021247
:100F63000900BFBC0212090003BD021209004EBDF5
:100F730002120900B9BD02120900FABE02120900E9
:100F83005EBF02120900ACC0021209000CC30212B8
:100F930009003DC302120900F5C4021209004AC543
:100FA300021209004EC602120900EBC60212090022
:100FB30044C702120900F7C70212090099C80212B6
:100FC300090039C902120900DEC902120900E280D0
:100FD300011209002181011209006883011209002D
:100FE300B28301120900CD84011209003D8501126B
:100FF3000900728501120900E68601120900698958
:1010030001120900928A01120900288B01120900BA
:10101300309401120900C59401120900AC97011222
:1010230009009F98011209000099011209001C9AF6
:1010330001120900019C01120900129E011209000C
:101043007C9E011209004E9F0112090005A00112A6
:1010530009000FA0011209003DA001120900FAA026
:1010630001120900D1A10112090098A2011209007D
:101073004AA30112090073A30112090095A30112E7
:101083000900EBA501120900C3A60112090007A775
:10109300011209006FA70112090027A80112090014
:1010A30059A8011209009DA801120900D3A8011231
:1010B30009001FA90112090074A90112090079A9E5
:1010C30001120900CCA901120900F1A901120900BA
:1010D30000AB0112090064AB01120900D4AB011289
:1010E300090060AC011209002DAF0112090011B013
:1010F3000112090094B101120900CAB301120900D7
:1011030078B40112090028B50112090069B7011268
:1011130009000CB80112090053B801120900FFB904
:101123000112090013BA011209001DBA01120900C4
:1011330045BA0112090051BA0112090070BA01122D
:10114300090055BC011209008CBC0112090096BCB0
:1011530001120900A0BC01120900FBBC0112090025
:1011630045BD011209004DBE01120900A4BE0112C2
:101173000900F3BF0112090037C001120900DFC0E3
:1011830001120900C2C1011209006DC20112090056
:10119300B9C301120900B7C4011209005DC50112E8
:1011A3000900EDC50112090004C6011209003BC67E
:1011B3000112090045C60112090050C601120900B7
:1011C3006EC601120900B2C6011209000FC701124F
:1011D300090034C7011209004EC701120900DAC71A
:1011E30001120900F7C80112090064C901120900BC
:1011F3004BCA0112090072CA01120900E6CA0112A0
:10120300090061CB0112090065CC011209005BCD15
:10121300011209000ACE011209001DCF01120900B3
:10122300B9CF0112090046D00112090024D10112DD
:1012330009005CD101120900B4D1011209007DD269
:10124300011209009ED20112090025D301120900DF
:1012530049D3011209006BD301120900B4D301125F
:101263000900CAD501120900B1D60112090062D7DB
:101273000112090098D901120900E8D901120900E5
:1012830028DA011209006ADA01120900C6DA01122A
:101293000900F4DA0112090018DB011209006BDB03
:1012A3000112090099DB01120900D2DB01120900C6
:1012B30027DC011209008DDC01120900E1DD0112B6
:1012C300090004E00112090071E0011209009AE02B
:1012D3000112090025E1011209008CE10112090044
:1012E300D7E101120900FBE1011209001FE201121B
:1012F30009007AE20112090095E2011209004EE3A6
:101303000112090088E3011209002E8B041209005F
:10131300668B04120900878B04120900C98B04121F
:1013230009002F8C04120900398C04120900498C1E
:10133300041209007E8C04120900C78F04120900ED
:10134300719104120900719304120900A2CA0212D6
:101353000900E8CA02120900C8CB02120900CACC6C
:1013630002120900CDCD0212090059CF0212090061
:10137300B7CF0212090074D00212090092D10212EF
:10138300090003D2021209003FD2021209008DD2D2
:101393000212090097D202120900DBD202120900DD
:1013A30037D302120900D2D3021209004FD402121A
:1013B30009001ED502120900B7D502120900D7D5BC
:1013C300021209000DD6021209003ED602120900CC
:1013D300FFD6021209000FD70212090063D70212C7
:1013E30009007ED70212090090D70212090099D78B
:1013F30002120900F3D7021209004FD802120900A2
:101403009BD802120900B6D802120900E7D80212CB
:10141300090004D90212090010D90212090084DA62
:10142300021209009DDA0212090004DB021209000C
:1014330017DB0212090025DB02120900D9DB0212B5
:101443000900BDDC02120900C3DD021209004DDEF2
:101453000212090057DE02120900C4DE021209005B
:10146300DBDE021209000DDF0212090046DF021261
:10147300090070DF02120900D1DF02120900F1DF57
:10148300021209000FE00212090055E002120900DE
:101493007BE102120900C8E102120900F7E102121E
:1014A30009006DE20212090095E202120900CEE280
:1014B30002120900DCE20212090034E302120900FD
:1014C30083E302120900C2E302120900F2E30212EB
:1014D30009001EE40212090029E40212090047E48C
:1014E3000212090009E50212090013E502120900BC
:1014F3004EE50212090064E502120900B9E5021281
:101503000900CDE502120900DBE602120900EEE64E
:101513000212090003E702120900A5E702120900FB
:1015230028E802120900E6E802120900F1E80212B3
:1015330009001DEA0212090039EA021209008BEAC6
:1015430002120900CAEA02120900DFEA02120900C4
:1015530041EB02120900D0EB021209001BEC02124C
:1015630009006CEE02120900EAEE021209005FEFB5
:101573000212090081F10212090099F10212090015
:101583009CF102120900A8F102120900BCF1021237
:101593000900C4F102120900F7F102120900A7F2CF
:1015A300021209001DF30212090090F3021209004E
:1015B30044F402120900F9F40212090018F50212A8
:1015C3000900B8F502120900C4F502120900EFF58B
:1015D30002120900F2F5021209005CF60212090078
:1015E30084F7021209005CF802120900E7F80212FC
:1015F300090000FA02120900BDFA02120900F6FA04
:101603000212090027FB02120900E5FB021209007E
:1016130015FC02120900F0FC0212090089FD0212F6
:10162300090014FE02120900C5FE0212090048FF58
:1016330002120900714A00120900BBFF02120900DD
:10164300EEF50312090053F60312090090F6031294
:101653000900DFF603120900C9F803120900B0FA02
:1016630003120900E9FD031209000FFE031209002A
:1016730027FE0312090090FE03120900CCFE031299
:101683000900F9FE031209002BFF031209000050A1
:10169300001209000080041209007E800412090070
:1016A300B080041209000881041209008282041226
:1016B30009009E8204120900D98204120900608382
:1016C30004120900B083041209007D840412090086
:1016D300818504120900D58504120900508604127D
:1016E3000900B18604120900F286041209009D87DD
:1016F30004120900BB8804120900F18804120900CE
:101703003C89041209008389041209000D8A04121A
:101713000900B28A04120900A89B04120900EE9B77
:1017230004120900589C04120900799C0412090050
:10173300199D04120900239D04120900709D0412CF
:101743000900959D04120900F59D041209008B9E62
:1017530004120900C39E041209001C9F041209000D
:10176300789F04120900A69F041209002EA00412F8
:10177300090073A004120900B2A004120900F7A023
:101783000412090009A1041209001BA10412090093
:101793003AA10412090043A104120900EFA10412A3
:1017A30009002FA204120900F8DD041209000ED16A
:1017B3000412090044D1041209008DD10412090056
:1017C300DAD204120900F6AA031209006FAC03125D
:1017D300090030AE031209006CAE03120900F3B125
:1017E3000312090039B2031209004EB403120900AF
:1017F30020B503120900CCB50312090077B7031211
:101803000900C1B903120900DDBC03120900EBBCD6
:1018130003120900C6BD03120900D9C1031209004E
:10182300D8E004120900D9FF03120900EFFF0312E5
:10183300090090C304120900A3C30412090041C4A0
:101843000412090083C404120900A8C40412090085
:10185300EDC40412090026C50412090057C5041279
:101863000900CAC604120900CBDE0412090001DF15
:10187300041209001DDF041209005FDF04120900CE
:101883006FDF041209006CC203120900AEC2031217
:1018930009001DC30312090014C40312090098C4EC
:1018A300031209005FC50312090074C5031209007E
:1018B300BEC5031209000DC6031209005FC6031259
:1018C300090072C603120900BEC603120900B9C893
:1018D300031209003BC90312090065C90312090079
:1018E300AEC90312090076CB03120900F1CB031230
:1018F30009007ECC0312090091CC03120900E0CC4D
:1019030003120900F6CC031209000DCD03120900DE
:101913003CCD031209005DCD0312090036CE03123C
:10192300090099CE03120900E5CE03120900E8CF9E
:101933000312090056D20312090070D203120900E0
:10194300F5D20312090065D30312090088D30312E9
:101953000900C2D30312090030D403120900E6D4EC
:10196300031209000BD50312090015D50312090050
:1019730025D503120900A8D503120900C3D5031204
:101983000900E5D50312090011D6031209004CD64C
:10199300031209005BD6031209009CD60312090047
:1019A30028E10412090040E10412090023940412FF
:1019B3000900729404120900249604120900D997AD
:1019C300041209002198041209001D990412090048
:1019D300749A04120900969A04120900F29A0412E6
:1019E3000900749B04120900C1D603120900ECD646
:1019F30003120900CFD70312090051D803120900BB
:101A0300BBD80312090007D90312090075D90312C1
:101A1300090000DA031209008EDA03120900C1DAA1
:101A230003120900B5DF031209005AE1031209008A
:101A330016E20312090053E2031209009FE40312A2
:101A4300090013E50312090012E603120900EBE68D
:101A53000312090065E7031209001FE803120900D6
:101A6300DEE8031209004AE903120900F1E903124F
:101A730009004EEA031209000BED03120900CBED36
:101A83000312090030EE03120900DAEF0312090012
:101A930097F003120900F6F1031209001DF3031274
:101AA3000900B8F303120900B3F403120900D2E3E7
:101AB300011209005AE401120900CDE401120900E0
:101AC30021E5011209005CE501120900E9E50112B3
:101AD300090005E70112090057E701120900B5E7FC
:101AE30001120900F8E7011209006DE8011209006B
:101AF300B7E80112090036EA0112090009EB0112E5
:101B030009005FEB0112090055EC0112090002ED17
:101B1300011209002DED011209004CED011209001B
:101B23005CED0112090062EE0112090026EF0112B9
:101B3300090007F1011209006DF10112090084F196
:101B430001120900DAF20112090057F30112090028
:101B5300C6F3011209004FF40112090093F40112B4
:101B630009005AF60112090032F7011209006EF852
:101B73000112090027F90112090058FA011209009C
:101B830087FA0112090061FB0112090030FC0112FE
:101B9300090089FC01120900A1FC01120900A1FD41
:101BA300011209002FFE01120900BFCE0412090021
:101BB3007ECF0412090037D0041209009DD004120D
:101BC300090012B9041209007BBA0412090069E280
:101BD3000412090071D7041209007FD70412090007
:101BE30083E2041209001BE0041209002BE0041233
:101BF300090037E00412090084E004120900FADC4A
:101C0300041209007BDD04120900DFDD0412090060
:101C1300F0FF02120900F3FF02120900D87F00123D
:101C23000900FCFF01120900DBAB0412090030AC10
:101C33000412090004AE0412090036AE04120900AE
:101C43005DAE0412090071AE041209008AAE0412DB
:101C53000900B9AF041209002BD9041209004FD9A6
:101C63000412090068D9041209009BD9041209005F
:101C7300CCD904120900FAD9041209005CDA04125F
:101C830009006BDA0412090075DA0412090082DA1A
:101C930004120900AAC904120900E7C904120900C1
:101CA300F6C90412090015CA041209007DCA0412F8
:101CB300090086CA04120900E5CA0412090009CB07
:101CC30004120900FCCB0412090009CC0412090018
:101CD3001ACC0412090000E2041209001DE20412E6
:101CE300090058A2041209009EA204120900FDA3D0
:101CF300041209000AA4041209001DA40412090015
:101D03003CA40412090052A40412090066A404129C
:101D13000900DBA40412090040A504120900F0A580
:101D230004120900C5A604120900D5A6041209006D
:101D3300E4A60412090080DF04120900A5DF0412DF
:101D43000900CEDF04120900F6DF0412090059D599
:101D53000412090080D504120900FCD504120900FD
:101D630048CC0412090061CC041209006DCC0412A2
:101D7300090081CC041209009FCC04120900A9CCEC
:101D830004120900B3CC04120900C6CC04120900E2
:101D93001ECD0412090055CD0412090083CD04128F
:101DA3000900D1CD041209001ECE0412090039CE58
:101DB3000412090043CE0412090075CE041209006F
:101DC30087E004120900877600120900B176001239
:101DD3000900CD7600120900E076001209001F7792
:101DE30000120900A07700120900D87B0012090035
:101DF300027D00120900357D00120900827D001268
:101E03000900AA7E00120900D27E00120900F57EA5
:101E130000120900397F001209009A7F001209009D
:101E2300AA7F00120900C7DB04120900E2DB0412D7
:101E330009000BDC0412090025DC041209004ADC4A
:101E43000412090069DC0412090081DC0412090090
:101E5300AFDC04120900C9DC0412090076E10412A4
:101E63000900F2BF04120900F9BF041209002EC1D0
:101E7300041209005DC104120900CBC10412090058
:101E83005EC20412090097C204120900E0C20412E0
:101E9300090010C30412090030C3041209008CDACC
:101EA30004120900A4DA04120900C1DB04120900B8
:101EB300C4DB04120900E0FE011209003FFF011216
:101EC300090095FF01120900D6FF011209000080E5
:101ED300031209001B8003120900908003120900FA
:101EE300198103120900A88103120900C481031296
:101EF30009006E84031209001D8703120900BB88C1
:101F030003120900068A03120900D38F0312090082
:101F1300CF90031209004591031209001192031295
:101F23000900B59203120900189403120900B8942A
:101F330003120900029503120900749503120900A4
:101F43001D9603120900EA96031209005097031223
:101F53000900559803120900129903120900AF9959
:101F630003120900069C031209009A9C031209003C
:101F7300169D03120900A29F031209009DA00312DC
:101F83000900CCA0031209008BA2031209005FA46D
:101F93000312090055A50312090043AA03120900FD
:101FA300D7C604120900FCC60412090088C704122C
:101FB30009004BC80412090010C9041209007EC9A4
:101FC3000412090053BC0412090014BD04120900D1
:101FD30083BD04120900A8BD0412090063BE0412E4
:101FE3000900BCE10412090041D30412090090D393
:101FF30004120900CDD3041209004BD404120900C2
:102003001AD50412090020D50412090095B0041250
:10201300090059B10412090041B30412090044B381
:102023000412090088B3041209008BB304120900D7
:1020330096B304120900A1B304120900ACB304124D
:102043000900BDB30412090071B404120900BAB443
:1020530004120900E0B4041209002BB504120900AC
:1020630047B50412090078B50412090088B50412B3
:10207300090095B504120900A2B50412090085B63A
:1020830004120900C3B604120900CDB604120900F4
:10209300ECB704120900F7B70412090009B80412D7
:1020A300090012B8041209001CB8041209001DA784
:1020B30004120900CDAB041209003CE2041209002A
:1020C300BC48001209003C480012090002480012F3
:1020D3000900424700120900B846001209008A4667
:1020E300001209003645001209009F44001209003E
:1020F3000244001209008D43001209005B430012E1
:102103000900984200120900C3400012090054401C
:1021130000120900264000120900234000120900A2
:10212300AA3E00120900AB3D00120900753C0012E3
:102133000900B93B001209002F3B00120900353A90
:1021430000120900254F00120900634D0012090017
:102153002F4D00120900FC4C00120900CF4C001255
:102163000900913900120900D838001209009B3880
:1021730000120900F54B00120900E13700120900B3
:10218300AB3700120900523700120900083700125A
:102193000900524B0012090089FF03120900A936F6
:1021A30000120900783600120900403300120900BA
:1021B300003300120900F4320012090054320012F5
:1021C30009009431001209000D2F001209009E2C02
:1021D300001209005C2C00120900302B00120900C8
:1021E300E52A00120900212A0012090064290012BD
:1021F3000900342900120900B94A00120900FA281B
:10220300001209007AFF0200000080FBE4738F00D4
:102213000100D20C87000100D00C24000200160636
:10222300250002001806260002001A0627000200F5
:10223300B00C28000100B20C29000100B30C84008B
:102243000400B40C86000100B80C2A000100B90C8C
:102253002B000100BA0C2C000100BE0C2D0008005D
:102263001E062E000100BF0C2F000100C00C300021
:102273000100C10C31000100C20C3200010026062E
:1022830033000100270634000100C30C36000100AF
:10229300280638000100C40C39000100BD0C83007E
:1022A3000200CE0C63000100320664000100BB0C87
:1022B30065000100BC0C6D000100CD0C6E00020036
:1022C3001C0643000100C50C44000200C60C450077
:1022D3000100C80C46000200C90C470008002A068A
:1022E30048000100CB0C4B000100CC0C04000100A2
:1022F300D10CA1000100D50C37000100D40C8800DB
:102303000100D30C3C00010029060000000000007E
:102313000001363601010001020100010301000141
:102323000401060605020000070100340801000F3E
:10233300090401010D0100FF0E080000170200004F
:10234300190100FF1A0100011B0100FE1C01000816
:102353001D0200001F0100012001000121020000F5
:102363002301000F240200002601000127010008B9
:10237300280200FF2A0100072B0102402C01000064
:102383002D0100012E0100012F0100FF30010B1C64
:10239300310800003A0100083B01000F2F01000043
:1023A300030071003001600011007000310220034E
:1023B30050048000100061000000140063007300EB
:1023C30072006200430000001300060000000000DA
:1023D30004001200000000000000000004000400DC
:1023E300370037003C0244000000000000000000FA
:1023F3006500000035008100000005000000830037
:102403000000030471040204600411047004020454
:1024130002040104020410046104000414046304AC
:1024230073047204620443040004130406040004E6
:102433000004040412040004000400040004510412
:1024430064000004000400044404000400040004C5
:1024530000046504000435048104640005040004D9
:102463008304000401037103010301030103010356
:10247300010322030203010310030003000300030B
:1024830000030003000300034203000324030603C5
:10249300000300030403120325032303250323037B
:1024A30004030403000300030003440300030003C5
:1024B30023030003650321003503810300030503A0
:1024C3000003000300030101710101010101110176
:1024D30001013101010101018001100161013B0092
:1024E30014006301730172016201430100011301CE
:1024F30006013D0135000401120100010001000144
:10250300000104010401330133013C0144013201A0
:102513003600000100016501000135008101000161
:10252300050182018301000103027102300160028F
:102533001102700201020202020280021002610211
:102543003A00410063027302720262024302000214
:102553001302380000020002040212020002000209
:102563000002000204020402370037003C02440266
:1025730000023900000200026502000235028102F6
:102583000002050282028302000200000300200110
:10259300E080000000002001E1800000040042010F
:1025A30064800000050042015380000006004201E0
:1025B3004280000007002001DE800000100042037B
:1025C300600D000011002003660C000012001003D0
:1025D300710D030000002103670C060000002001B9
:1025E300690C00000000000000000000030020014F
:1025F300E080000000002001E180000004004201AF
:10260300648000000500420153800000060042017F
:102613004280000007002001DE800000100042031A
:10262300600D000011002003660C0000120010036F
:10263300710D030000002103670C06000000200158
:102643006B0C0000000000000000000003002001EC
:10265300E080000000002001E1800000040042014E
:10266300648000000500420153800000060042011F
:102673004280000007002001DE80000010004203BA
:10268300600D000011002003660C0000120010030F
:10269300710D030000002103670C060000002001F8
:1026A3006A0C00000000000000000000030020018D
:1026B300E080000000002001E180000004004201EE
:1026C30064800000050042015380000006004201BF
:1026D3004280000007002001DE800000100042035A
:1026E300600D000011002003660C000012001003AF
:1026F300710D030000002103670C06000000200198
:102703006C0C000000000000000036000100060011
:1027130000000F00000000000000000000000000A7
:1027230003FFFF00000403FFFF0000FFFF0FF4019E
:102733000005C4040320000100020B000000000098
:1027430000000003010F461F821F4C1F9A1F521FD8
:10275300881F521F941F581F9A1F521F881F5E1FE6
:102763009A1F641F9A1F6A1F9A1F701F9A1F761F52
:102773009A1F7C1F9A1F0000000000000000000049
:10278300721A1300361A0100721A0200001A0300AB
:10279300061A04000C1A0500121A06001E1AFFFF7F
:1027A3000000011610064010083A100B5810109242
:1027B3000F021C10052E100722100CF80F0D0A1023
:1027C300FF000003EAF5E5D5D5C5B5A59595858543
:1027D3007575656555554545353525251515058AA1
:1027E30014BA1490149614B414A814A214C014C6E2
:1027F30014CC14D8149C1484147E1400160F0000F7
:102803000B150B020002220F320000067A623230EF
:102813003136303932393130323633370000000047
:10282300000000008967452301EFCDAB58696E674F
:1028330048756F5975616E536D6172747A158C1595
:102843009215541498154E145A14DA15F815FE15EA
:10285300E015EC15E6158E138813C413CA13BE13C3
:102863007613303016181920231A1C1E3000034922
:1028730048424D181725050200011916181616159A
:1028830023030000383C3E363B3B352B432C0C0ED8
:10289300020B040B0A0708000F30301718192130F8
:1028A3001B1D1F30CE159E15A415B015AA15AE1409
:1028B300D214F215DE14E414020402010101010929
:1028C300029A13A0139413D01300BE040AA613B8DC
:1028D30013000028000C000E0004007F00E803151D
:1028E3000008090004000AFF1E1E09100408100353
:1028F3000C05080F030C0174F71204BFE9FE12164E
:1029030094EE900C77F090030E74E0F0A37421F032
:1029130090031074DAF0A37421F090031274D4F0CE
:10292300A37421F090031474CEF0A37421F0024336
:10293300DB74F71204BFE9FE900302E4F0EE9003A8
:1029430001F0900CC912374B12472D7C2A7D067A71
:10295300057B03121EC8900CCBE090030DF00243DD
:10296300DB74F41204BF8A088B09EB5480605B901C
:102973000301125E2F604A8E828F83E064017032FE
:10298300124EBE1207A4EE241212720EF50A780A32
:1029930012093C122A14120938EE240B122A0D12C2
:1029A30007A8EE2417125E3F121652740912094B40
:1029B3008008E0640270031220C6EEFAEFFB1217E0
:1029C3003CAA08E5096480FB803AEAA2E05017902C
:1029D3000316124CF7600612374712220FE50864FC
:1029E30001FAAB09801E5402600C900C767401F05E
:1029F300EA6402FA800EEA54046005EA640480F390
:102A03007A007B00022AE0EE240CF582EF124EC816
:102A130022EE240FF50AEF3400F50B780A2274F442
:102A23001204BF8A088B098A828B83A3A3A3E024A1
:102A3300101243E7FA12502B7003022AD08E828FB2
:102A4300837402F0A3E4124FEEA3A3A3A3E8F0A3BD
:102A5300E9124B3CA3A3A3A3A3A3A3F0E508240378
:102A6300F8E509123F9424101242538E828F83A3F8
:102A7300A3A3A3F0EE2409FA122AD2124674F58313
:102A83008882E0A2E58E828F83A3A3A3A3A350042D
:102A930074018001E4F0E5082403F8888289831235
:102AA3005D88EA126846EB122A1012505312093459
:102AB3001263B4EB1247FA8E828F83A3A3124ED70D
:102AC30012094BEEFAEFFB900301125098800EEFC0
:102AD3003400FB8E828F83A3A32212094B7F04024F
:102AE30006D974F21204BF8A088B09ECFAEDFB7461
:102AF3000E120BA1E0FC1216C48A0C8B0DAE0CAFA8
:102B03000DEE4F6023AC08AD091216B2E96019ACA3
:102B130008AD09EEFAEFFB1216B8E97007EEFAEF0B
:102B2300FB1216AC7900800279B40237A674EE1258
:102B330004BF74F71209DF8A0A8B0BECFEEDFF75F5
:102B43000FB3750E00750C00750D00800CE50C2499
:102B530001F50CE50D3400F50D9028DCE493F874D1
:102B63000193F9C3E50C98E50D994003022C50AA93
:102B73000CAB0D1217128A088B09EA450960CE8A3D
:102B8300828B83A3A3A3A3A3E0250EF50EF510C3A5
:102B9300E50A9510E50B940050B37C157D00790090
:102BA300EEFAEFFB124CA5A3A3A3A3E50AC3950E6C
:102BB300F8E028C333F8E433F9E50828F582E5099A
:102BC30039F583A3A3A3A3A3A3125465A312452397
:102BD300EAFCEBFDEEFAEFFB123FB1A3E0640170F8
:102BE3000A124EBE740112388780438518828519F4
:102BF30083AC82AD83850882850983125D861216B4
:102C0300FAE9602D7408120BA1E0C0E0124EBED0A9
:102C1300E0F07408120BA1E0640385188285198320
:102C2300700CAC82AD83EE240B1238748003124710
:102C330021850882850983123E99A3A3124FB1C04F
:102C4300E0EE2414122A0DD0E0F0750F00A90F74E2
:102C53000912094B7F0A0206D974F71204BFE9FE71
:102C63008A828B83A3A3A3A3A3A3E0540860298A26
:102C7300828B83A3A3A3A3A3A3E0540260178A8236
:102C83008B83A3A3A3A3A3A3A3A3A3E064066005C9
:102C930074E96E70031221C20243DB74E81204BFAD
:102CA30074F71209DF7407120BA1124CBEE98518E1
:102CB30082851983F0ECFEEDFF7424120BA1780CCE
:102CC300120B447513008E828F83125D828E828F66
:102CD30083A3A3A3E0F91216D08A148B15EA451532
:102CE3007003022EA7EE2410125605A914120E9695
:102CF3008A168B17EA45177003022EA7EE2406F5F2
:102D030010EF3400F5117C00851082F583122EF943
:102D13008E828F83A3A3A3122EEE125A88F8A3E008
:102D2300F9851682851783A3A3A3A3123989122ECB
:102D3300EEA3A3A3A3125802851682851783A3A328
:102D4300A3A3A3A3F0EE126846EF1231681209346D
:102D5300EE1263B5EF1247FA851682851783A3A394
:102D6300A3A3A3A3A3A3A3124ED712094B751000C9
:102D7300022E27850A82850B83125D861217008532
:102D83000882850983A3EAF0A3EB124EEAA3A312F8
:102D93004BDF1250AFE0A2E6500F8508828509830E
:102DA300A3A3A3A3A3E0D2E1F0E513706385088294
:102DB300850983A3125FA390036CE0687003A3E00B
:102DC30069704D850882850983A3A3A312561278DF
:102DD3000C1209307427120BA1E0F50A780A1209C4
:102DE3003C7426120BA11207A89003791207A87945
:102DF300007410120BA1124B2C12214A74091209F0
:102E03004B850882850983A3A3A3A3A3E04405F00C
:102E130074012510FC8E828F83A3A3A3A3A3A31203
:102E23002EF90510E50A450B6052851008C3E50825
:102E33009514E495155045E51075F006A4F8A9F02E
:102E4300E51628F8E51739F9E8240CF508E9123DE9
:102E530058E4124EE064016003022D767513018578
:102E630008828509837401124EE5F8A3E0F9850809
:102E730082850983A3E8F0A3E9022D8DAA16AB1777
:102E8300120E9C78161209387425120BA1E0FC74FB
:102E930002120BA1E0F9EEFAEFFB1221C874021241
:102EA300094B80428E828F83A3A3A3E0C0E0740406
:102EB300120BA1D0E0123BA2E0C0E07405120BA1FB
:102EC300D0E0F0E514451570097406120BA174B92E
:102ED30080077406120BA17410F07401120BA1AADF
:102EE30082AB831221507409026A5FE085168285E2
:102EF3001783A3A3A32212544E8E828F83A3A3A36B
:102F0300E0F91216D68A0A8B0B2274E81204BF74F6
:102F1300F31209DF8A0A8B0B89178C167425120B9F
:102F2300A1127229AA0CFB120E8AE9F514AA0CABA2
:102F33000D120E90E9F515E514700302315A75135D
:102F430000800F8E828F83A3A3A3A3A3E0D2E3F019
:102F53000513E50C240BF582E50D1232EFE513C3DF
:102F6300984003023151E5147003023151E51375A2
:102F7300F006A4F8A9F0E50C28F8E50D39F9E824E2
:102F83000CFEE9126FFDA3A3A3A3E0A2E040C17569
:102F93000E008E828F83E07043125D87120D828A4A
:102FA300088B09A808A909E849603188828983A3A5
:102FB300A3A3A3E06401600D88828983A3A3A3A3D1
:102FC300E0640370178E828F83A3A3A3A3A3E0D22D
:102FD300E7F0750E01E5157003022F53750F0075A9
:102FE3000808750900E5166003750F20124C45E0CB
:102FF30060339003BCE064017017E50FD2E3F50F73
:103003007509108E828F8312470C12451274FF804C
:1030130024430F0C75080C8E828F83A31231741214
:1030230069F6A38010E5176009E50FD2E6F50F7581
:10303300080A12318BF07402120BA1E50F125AA782
:10304300C0E07404120BA1D0E0F07405120BA112BE
:1030530043F9120BA1E0600302312C7408120BA197
:10306300123D998E828F83A3A3A3A3F07408120B3E
:10307300A1123654F583E508F0A3E509124A57E097
:1030830060119003BCE0C0E07408120BA112364D2E
:10309300D0E0F0850C82850D83A3A3A3E0C0E07488
:1030A30008120BA112653AD0E0126576C0E07408ED
:1030B300120BA112365FD0E0F07408120BA112318B
:1030C30074A3A3126541125A91125D86E82428F570
:1030D30082E91255F8125A9DC0E0E8242EF582E9E0
:1030E300122A10D0E0F07408120BA1125D88850A31
:1030F30082850B8312315F2424F582EB12472A1257
:103103006844E50B1231681209341247F2EA242BA2
:10311300F582EB122A10124ED712094B85188285BD
:103123001983AA82AB831216348E828F83A3A3A33F
:10313300A3A3E0D2E0F0740C120BA1E06003022F12
:1031430046E50EA2E0500215151514022F5379001F
:10315300AA0CAB0D1221BC740D026A5FA3A3A3A337
:10316300125FA7EA22124EC8125A5D751200781038
:1031730022125FA7850A82850B83A3A3A3A3228EB2
:10318300828F83A3A3A3A3A3A3124711E8F0A3E908
:103193002274F21204BF74EB1209DFEAFEEBFF891B
:1031A300088E828F83A3A3A3A3A3A3A3A3E0F912EF
:1031B3000EB48A0A8B0BEA450B607FE50870047C2A
:1031C3000480027C088E828F83A3A3A3A3A3A3A35B
:1031D300A3E0F9120EBA122A0A124CF7605C888235
:1031E3008983125D847406120BA1123242125D8828
:1031F3007408120BA1123242A3A3E0C0E0741012B0
:103203000BA1D0E0125AB4125D88740E120BA112F6
:103213004CBE7411120BA1E41257EDF9780A12098E
:1032230038742059FC744059F97402120BA1AA8214
:10323300AB831221C8740212094B74150237A3EA37
:10324300F0A3EB12324A22124684A3A3A3A3A3A39F
:103253002274F71204BF74FA1209DFE9FE7F018FAB
:10326300087D0080047508000D1243E01232EFED73
:10327300C3985025ED75F006A4F8A9F0EA28F8EBF9
:1032830039F9E812683FE912544050D9540C60D51B
:10329300E0A2E250D37F0080CF8A828B83A3A3A3D3
:1032A300A3A3A3E0703EE508A2E0400574016E709D
:1032B300338A828B83A3A3A3A3A3A374011263F30F
:1032C300E0C0E07403120BA1D0E01263EBE0C0E0B6
:1032D3007404120BA1D0E0F07405120BA1EF124697
:1032E300DB12215074060243D8F582EF1257FDF822
:1032F30022C082C08379011221BC02386DC082C012
:1033030083EA4B60189003B8E064027010900C7667
:10331300E4F0EAFCEBFD7A021233358012900C766E
:103323007401F07A027B00900301E0F91218500255
:10333300386D7B00900301E0F91218442274F212F5
:1033430004BF74F31209DFEAFEEBFF8E828F83A3BF
:10335300A3A3A3A3A3A3A3A3A3E0F50A900C76E0DE
:10336300700579BA023648750801750900750C00B5
:10337300750D007C087D007900851882851983AA64
:1033830082AB831217247405120BA17401123670D9
:10339300540460127402120BA1E0D2E61236705488
:1033A300087003750803E05410600674404508F57F
:1033B30008E0540860227402120BA1E044C01236E4
:1033C300705420600A7403120BA1E0D2E0800874E9
:1033D30003120BA1E0D2E1F08E828F83A3A3A3A3F8
:1033E300A3A3A3A3E070181211248518828519835F
:1033F300124CBE7402120BA1E0D2E2F00234A764B5
:103403000F70157402120BA1E0D2E31250B0124CEC
:103413009F4508F5080234A78E828F83A3A3A3A335
:10342300A3A3A3A3E064028E828F83700512318C61
:1034330080C9A3A3A3A3A3A3A3A3E06403701385D9
:103443001882851983AC82AD83EEFAEFFB122180DB
:1034530080528E828F83A3A3A3A3A3A3A3A3E06419
:103463000170419003BCE0601C7402120BA1E0D216
:10347300E312509E85188285198312472D75091012
:10348300750AFF80187402120BA1E0440C126563E5
:1034930074FDF0A374FFF074044508F5088E828F61
:1034A3008312722912543A503A7402120BA1E05457
:1034B3000C701B8E828F83125D88121B44E970058A
:1034C30079BB0236487402120BA1E0D2E5F0125424
:1034D3003A50107402120BA1E0540C64047004E01F
:1034E300D2E5F0EE241112720EC0E07404120BA1A7
:1034F300D0E01243FB120BA1E060030236417408D3
:10350300120BA1123654123666EE241812720EC034
:10351300E0E8126830E9122A10D0E0F0EE24191224
:10352300720EC0E07408120BA1E02413123D61D0A7
:10353300E0124530640170119003BCE0C0E07408F0
:10354300120BA112364DD0E0F07408120BA11242F7
:103553002B2417FAEF12425AFCE8241CF582E912D5
:103563002A10ECF0A3E4125149E0C0E0E82422F56C
:1035730082E9122A10D0E0F07408120BA112365F10
:10358300E50AF07408120BA11242402424F582E9E3
:10359300125D4DA3E50D125DABFCA3E0FDE824260F
:1035A300F582E9122A10ECF0A3ED123A2D124C75B4
:1035B300E82428F582E9122A10125FABC0E0E82460
:1035C3002FF582E9122A10D0E0F0EE241B12720EBE
:1035D300C0E07408120BA1126533D0E0F0EE241A98
:1035E30012720EC0E07408120BA1E0242E123D618A
:1035F300D0E012655B12503B120934EE2411124CD9
:103603006E740B120BA1124ED112094BEE2415123C
:10361300720E5440601B900328124CF760138518F8
:1036230082851983AA82AB8390032912374712221A
:103633000F851882851983AA82AB83121634740C02
:10364300120BA1E0F9740D0237A3E02415123D8794
:1036530022124244240FF582E9340022E02423128B
:103663003D8722F583E508F0A3E509F022F0EE2477
:10367300151257FA2274F71204BF7E638A828B8372
:10368300E0600C7905120CA4E9F87456C398FE9017
:103693000364E0600CF9120CA4E9F8EEC39824F279
:1036A300FEEEF90243DB74F61204BF74FE1209DF67
:1036B300851882851983124CBEE9FEECFAEDFB7482
:1036C3000C120BA1E0FC9004AE124CF7603285188B
:1036D3008285198385820885830978081209387DD4
:1036E30001EEF99004AE12374412220F740212094C
:1036F3004B8B09EA450960047900800679B28002A0
:1037030079B60238CE74F71204BFE9FE7409120BBE
:10371300A1E0FF90030E124CF7601AEFF50878084A
:1037230012093CEEF990030E12374412220F740172
:1037330012094B800279B60243DBEEFAEFFB9003EA
:1037430020E0F8A3123FE522125FA790030322743F
:10375300F21204BF8A088B09ECFEEDFF750A019093
:10376300036CE065087004A3E065097005124B253E
:10377300802A12112A8A0C8B0DE508650C7004E56A
:1037830009650D7009EEFAEFFB121130800EEEFCA5
:10379300EFFDAA08AB09120D1CE9F50AA90A80037B
:1037A30012094B7F060206D974F51204BFEAFEEB39
:1037B300FF8C088D09750A01126C9312387D700B0A
:1037C30090036C12401312472D800EAC08AD09EE26
:1037D300FAEFFB120D22E9F50AA90A02611F74F63A
:1037E3001204BFEAFEEBFF7A0C7B001217BAEA4B16
:1037F300606BEE242012720E8A828B83F0EE2421FA
:10380300123863F0EE2422123863A3F0EE2423125D
:103813003863A3A3124F0A125A7AE8F0A3E91257A6
:10382300F2125A7BA3A3E8F0A3E91256188A828BFB
:1038330083A3A3A3A3A3A3A3A3F0EE242F12720E27
:10384300C0E01243E0122A10D0E0124CC48A828BEB
:1038530083A3A3A3A3A3A3A3A3A312472D0238D394
:103863001257FA8A828B83A322F0D083D082020874
:10387300FDFAEF3400FB121EC8221245172212383C
:1038830087A3E02212388B2212388F22124FE6A32D
:10389300A322124B4AA3E02274F61204BFECFEEDFE
:1038A300FF79B3900363E07020900395E0640170A7
:1038B30018EE12683FEF127011EE240F124727E83B
:1038C3004960047900800279A18005740212094BD2
:1038D3007F020206D974F41204BF74FE1209DFECEE
:1038E300FEEDFFEE241612720E64057011EE24062F
:1038F300FCEF3400FD122186E9700302398285183A
:1039030082851983AC82AD83126785123B14124CF6
:10391300F76068E875F009A4F8AAF075F009E9A45E
:103923002AF974ED28F874F339F9E8FAE9FBEE247F
:1039330012122A0DC082C0838A828B837808120BED
:1039430044D083D0827808120B24402B85188285BB
:10395300198312422B240F122A0D12398978081267
:103963000B449080AC7808120A488A828B837808CB
:10397300120B627900800A79A2800679A18002790C
:10398300C87402022ADDE8F0A3E9123BA62274F40C
:103993001204BF74FF1209DFEAFEEBFF900363E03A
:1039A3007075900395E06401706D75083A750900B0
:1039B30078081209387402120BA1858208858309DD
:1039C3007808120938123A1F12094BE9703EEE12B9
:1039D3006846EF12401D124AEDC0E0EE2411122A90
:1039E3000DD0E0123A2D743A125802900330120BA4
:1039F3007EEE2412122A0D120B8A9080AC780812E4
:103A03000B449003307808120AE0800BEE240FF584
:103A130082EF1243C9A3F07401022ADD7C017D0009
:103A23007A007B00121304740422F0EE240F124E6A
:103A3300C52274F01204BF74F61209DFECFEEDFF29
:103A43007402120BA1AC82AD83122186E9700302CA
:103A53003B0F851882851983AC82AD837402120BE8
:103A6300A1AA82AB83123B14124CF77003023B0FE3
:103A7300E875F009A4F8AAF075F009E9A42AF97425
:103A8300E928F874F339F988088909EE240E123B02
:103A93001E124AEDF8A3E0F9EE240F124FD7120BD2
:103AA3007EEE2412122A0D120B8A9080AC780C122F
:103AB3000B44850882850983780C120AE085088205
:103AC3008509837808120B449080A8780C120B4464
:103AD3007808790C12044FE50C450D450E450F701F
:103AE3002B85188285198312424075F009A4F8AA20
:103AF300F075F009E9A42AF974F128F58274F33911
:103B0300F5837401F07A007B10123B26740A023BA2
:103B1300B1121B4A85188285198322F582EF124E52
:103B2300C8E422900527E0F91217722274F01204F8
:103B3300BF8A088B09ECFEEDFFEE240FF582EF122E
:103B430043C9A3123BA2C082C0839080C0780C12E9
:103B53000B44D083D082780C120A1F6032123B963A
:103B6300700512216E802AE070051221688022649C
:103B7300027013122168E96018EEFCEFFDAA08AB8E
:103B830009121B6E800BE0640360DF79A180027968
:103B9300A3801EEE240EF582EF1257FD640122125C
:103BA3003BA622F0EE2412F582EF124ECC2212092C
:103BB3004B7F080206D974F61204BFEAFEEBFFEE50
:103BC300240AF508EF1269F1850882124C73EC247C
:103BD3000F1243C6124C8F12213E8508828509833A
:103BE300124CF4706B123D657003A3E069600A1216
:103BF3003D477003A3E06970578E828F83A3A3A30D
:103C0300A3A3A3A3A3A3A3124C758E828F83125DD8
:103C130088121B74E960188E828F83A3A3A3A3A3C6
:103C2300A3A3A3A3A3E0240F123D61E4F0A3F08EAA
:103C3300828F8312652B8E828F83A3A3A3A3A3A357
:103C4300A3A3A3A3700512400D8004123FEBE4F07D
:103C5300124CE6701A123F98125D88122162850891
:103C630082850983124CF47006122A0A74A1F002A9
:103C730038D374F61204BFEAFEEBFFEE240A123FB8
:103C8300A77A187B001217BA850882850983123D2B
:103C93009EF8A3E0F9E8497003023D3EEEFAEFFB1C
:103CA300122132124CE6607F123D8B6401700712C1
:103CB3003D72740E8034E064027007123D72740D1D
:103CC30080288E828F83A3A3A3A3A3A3124CF77090
:103CD300EA123D657003A3E06960E0123D4770039B
:103CE300A3E06960D6123D727405124C98540364C4
:103CF300017007123FCB7405800B900364E0C0E0B2
:103D0300123FCBD0E0F0EE240AF508EF123D581233
:103D13003FD9123E9EC0E0850882850983E02417BF
:103D2300123D61D0E080198508828509831243869C
:103D3300850882850983E4F0A38005122A0A74109A
:103D4300F00238D31211248A088B09A808A9099014
:103D5300061CE068221269F1850882F58322123D70
:103D630087228E828F83125FA790061CE068228EC3
:103D7300828F83A3A3A3A3A3A3A3A3A3A3E0241634
:103D8300123D8722123FF6228E828F83A3A3A3A321
:103D9300A3A3A3A3A3A3123FEFE022EAF0A3EB1292
:103DA3003DA622124FE6E02274F11204BF8A0A8B69
:103DB3000B8C088D097A18125EFE7003023E918EF9
:103DC300828F837401F0E508240DF8E50912678EEC
:103DD300C3E49AFA95E0FB12684B1255FCFB8E8202
:103DE3008F83A3A3A3A31257E98E828F83A3A3F088
:103DF300EEFAEFFB120C5085088285098312652DBC
:103E030070098E828F83A374058006900364123E2B
:103E130099F0EE2417F8EF3400F9880C890D8E829F
:103E23008F83123E9D850C82850D83F0EE2416F858
:103E3300EF3400F9E508240EFAE5093400FB888223
:103E43008983124A39E50824100A0AE5093400FB7C
:103E5300850C82850D83E0FC88828983E0F88A8261
:103E63008B83E0C398C39C125140F0EEFCEFFDAA94
:103E73000AAB0B122138E9F508700AEEFAEFFB12D0
:103E83000C5CE9F508EEFAEFFB1217C08003750826
:103E930010A908026CB6124B4322A3E0F9120CA43A
:103EA300E92279010208FD74F41204BFEAFEEBFF74
:103EB3008E828F83A3A3A3A3A3A3A3A3125D8C12B8
:103EC300652D706B123D8B70668E828F83A3A3A3C7
:103ED300A3A3A3A3A3E0242B123D61124005704FBB
:103EE3008E828F83A3A3A3A3A3A3A3A3E0242BF86E
:103EF30088828983123FD9E0F8740168600A7406E6
:103F030068600574056870138E828F83A3A3A3A3CF
:103F1300A3A3A3A3A3A312400D80138E828F83A315
:103F2300A3A3A3A3A3A3A3A3A3123FEB7403F0121E
:103F33003F98123744E4F0EE2408F8EF123F94243C
:103F43002D124253C0E0123FBFD0E01257ED242A96
:103F5300124253C0E0123FBFA3D0E01257ED240B2F
:103F6300123D611240131240AC1245238A0A8B0B97
:103F7300AC0AAD0B850882850983E02406125454EC
:103F8300123FB1125D88120C5C122A0AE9F0022A70
:103F9300E012466722EE240A123F9F22123FA788AF
:103FA30082F58322F8EF3400F98808890922123F49
:103FB300B522121EC8850882850983228508828559
:103FC30009831240B0A3A3228E828F83A3A3A3A34A
:103FD300A3A3A3A3A3A3123FDD22E0F8123FE4A30C
:103FE30022A3E0F583888222123FEF22E0240E12FF
:103FF3003FF622123FFA22F8A3E03400F9888289BF
:104003008322E0F81248B7640522123FEF740222BC
:10401300125FA785088285098322124EC874012284
:10402300023EA5C082C08390031E742CF0A37421AA
:10403300F09003207420F0A37421F0900322741AEB
:10404300F0A37421F09003247426F0A374210238A2
:104053006C74F41204BFEAFEEBFF1240B9F50812C8
:1040630011248A0A8B0BA80AA90B8E828F83124014
:10407300ACE0687003A3E069602CE508A2E5502674
:104083008E828F83A3E0FB90031E12374412220F0C
:104093008E828F83E0F8A3125212A3124CF770069C
:1040A3001240B9C2E5F0022AE01240B022E0FAA3BE
:1040B300E0F5838A82228E828F83123FDDA3E02282
:1040C30074F51204BF1242191242402420F582E90A
:1040D300127211FE74035EF50A124A23122A101299
:1040E300422B88828983F0A3A882A983E50A600909
:1040F3007402650A600302418A740C5EFF601574E2
:10410300086F601074046F701D7402650A7005EE09
:10411300A2E4402D8A828B83A3A3A3A3A3A3A3A377
:10412300E0242312427B740C6F7010124214242477
:10413300124263242412422612427E7402650A70DC
:1041430005EEA2E4404112421424261242632426BF
:10415300124230A312428D12423012428D12422675
:1041630012427EEF600F74086F600A740C6F600573
:1041730074046F70128A828B83A3A3A3A3A3A3A344
:10418300A3E0242212427B8A828B83A3A3A3A3A34B
:10419300A3A3A31242497005EEA2E150178A828BB2
:1041A30083A3A3A3A3A3A3A3A3E0242E124A2A12A7
:1041B3004274800E900302124274900302E00412D0
:1041C3004684A3A882A983EEA2E750421242142494
:1041D3002112423012427E8C828D83124249602E1C
:1041E3008A828B83A3A3A3A3A3A3A3A3E024301254
:1041F300427BEEA2E150178A828B83A3A3A3A3A3DE
:10420300A3A3A3E0243112425388828983F002617D
:104213001F124219E022EA2408FCEB3400FD8C82D1
:104223008D8322124A2EA322125FA7EE221242345A
:1042330022F508A3E03400850882F5832212424464
:10424300221250A9E822E02421124A2EE05403222C
:10425300FAA3E012425A223400FB8A828B83E022C3
:10426300124234124274A3A882A9838C828D83E004
:1042730022E088828983F022124A2E12428222E0AF
:1042830088828983F0A308A983221242828C828DBB
:1042930083E0242822C082C0838A828B831240BD9C
:1042A300F8740358F98A828B83A3A37401F0E9603D
:1042B300057402697061740C58FC601474086C60B6
:1042C3000F74046C70137402697005E8A2E4401D56
:1042D3008A828B83A3A37402F0740C6C700A8A82A3
:1042E3008B83A3A3E02402F07402697005E8A2E4BF
:1042F30040258A828B83A3A3E02404F0EC600F742F
:10430300086C600A740C6C600574046C70098A8212
:104313008B83A3A3E004F0E8A2E750318A828B8366
:10432300A3A3E004125FAFF9A3E0F5838982A3A3FB
:10433300A3E0540360178A828B83A3A3E004F0E80D
:10434300A2E150098A828B83A3A3E004F08A828BC3
:1043530083A3A3E00402386CC082C0838A828B8368
:10436300A3A3A3A3A3A3A3A3A3A3124CF760098AA4
:10437300828B83A3A312437E02386DA3A3A3A3A3BB
:10438300A3A3A312544E1217C02274F71204BFEA58
:10439300FEEBFF125F9F88828983A3A3A3A3A3A33A
:1043A300A3A3E4F0A312324AA3A3A3A3F0A3F0E8C8
:1043B300125D2FE91243C9122102EEFAEFFB12211B
:1043C3000E8015F582ED124EC8E4F022740C120B28
:1043D300A1E0F9740D12094B7F010206D9EA240BFF
:1043E300F582EB221266A7240922124EC812722DFF
:1043F300750E00780C2274011246DF124499227460
:10440300F51204BF74F31209DFEAFEEBFF7C087DAB
:10441300007900851882851983AA82AB8312172439
:10442300123182124A66C0E07404120BA1D0E0F08C
:104433007402120BA17401124530C0E07405120B13
:10444300A1D0E0124A6C640170097402120BA1E05E
:10445300D2E5F012448F120BA1E0702D8E828F8370
:104463001250511209348E828F83A3A3A3A3124740
:10447300FD740B120BA1124ED112094B85188285C4
:104483001983AA82AB8312163402611385188285BD
:104493001983AA82AB831220C0740C2274F712040E
:1044A300BF74FE1209DFECFEEDFF7508C8851882A4
:1044B300851983AC82AD83122180E964017049853B
:1044C300188285198312521F124512A3A3E4F09098
:1044D3000632E0601B8E828F83A3A3124005701007
:1044E3008E828F83A3A3A3A3A3A3A3A37401800D8D
:1044F3008E828F83A3A3A3A3A3A3A3A3E4F0EEFAC3
:10450300EFFB1220F0E9F508A90874020243D81260
:104513004B17A322121EC2E9640122124FDEE022CE
:10452300A3A3A3A3E8F0A3E9F012111E22125625B8
:10453300A3E02274F61204BF74F41209DFEAFEEB5F
:10454300FF12318212465DFAA3E0F5838A82A3E06B
:10455300FA7402120BA1EA1257ED2402124AF47400
:1045630004120BA112472DEA600A7402120BA1E098
:104573006404701C1246511254547406120BA11297
:104583004657124AF47408120BA1E8F0A3E98056C7
:10459300E06401600AE064066005E06405702312CC
:1045A3004651124253C0E07403120BA1D0E01257DC
:1045B300ED24131254547406120BA11257E9241B51
:1045C30080C07406120BA1E4F0A312465D241212FC
:1045D30054547408120BA11246571266A3C0E07418
:1045E3000A120BA1D0E0F07406120BA1124CF76073
:1045F300287406120BA1125D88120D10E964017074
:104603001812111E8A088B09AC08AD097406120B27
:10461300A1125D8812387D700F851882851983AACF
:1046230082AB831221448021851882851983AA8253
:10463300AB83121B50E96401700FEEFCEFFD7406AF
:10464300120BA1125D881220EA740C0238D01246B4
:104653006224122212467B241A22F012466222EEB0
:104663002402F8EF12466CE0223400F98882898331
:104673002212467BF8A3E022EAF0A3EB124684E081
:1046830022F08882898322C082C08374FC1209DFEE
:1046930012470312472D8A828B83A3A3E0124AF2A7
:1046A3007402120BA11246D712168E7404800012E4
:1046B300094B02386DC082C08374FD1209DF1246B4
:1046C300EBC0E07402120BA1D0E01246DB120BB474
:1046D300740380DBE8F0A3E91246DF22F085188239
:1046E300851983AA82AB83228A828B83A3A3A3A384
:1046F300A3A3124AE48A828B83A3A3123FDDE022A1
:104703008A828B83A3A3A3A3A3A3124711221247D5
:104713001522E0F8A3E0F985188285198322125F38
:10472300A7EE240BF582EF124EC8124AE722AA82A3
:10473300AB83121718740322124AE79003302274D2
:10474300F41204BF74FB1209DFEAFEEBFF8E828FC3
:1047530083A3A31242402409F508E91269F1740303
:10476300120BA1AC82AD8388828983A3AA82AB8317
:10477300122180E96401706A851882851983743275
:10478300124A6624F7C0E07401120BA1D0E0F07462
:1047930002120BA1E41246DB120DE28A0A8B0BAE66
:1047A3000AAF0BEE4F603B7403120BA11247EAA34F
:1047B300A312451EC0E0EE2420122A0DD0E0F075AE
:1047C3000A007808120934EE126FF8EF1247FAEE76
:1047D300240B122A0D124ED712094BEEFAEFFB12DD
:1047E3000DDC7405022ADD125FA78E828F8322E51A
:1047F3000A2410F582E50B124EC8E0FC7D0022C0AE
:1048030082C08312482E600E24FE600F24FE6010C7
:1048130024FB601180121220E4800D1220DE800838
:104823001220D880031220D202386D8A828B83A390
:10483300A3E0F81248B724FB22C082C0838A828B8C
:1048430083A3A3A3A3A3A3A3A3E070528A828B830E
:10485300A3A3E0F81248B3640160431248AD6402B5
:10486300603C1248AD640360351248AD6404602EA9
:104873008A828B83A3A312400760231248AD640A84
:10488300601C1248AD640B60151248AD640C600ED9
:104893001248AD640D60077904121EB080099003BD
:1048A3002612374412220F02386D8A828B83A3A308
:1048B3001248B722123FE4E02274F61204BF74FADE
:1048C3001209DFEAFEEBFF7403120BA1EEF0A3EF74
:1048D300F07403120BA1AA82AB831220F612720B9F
:1048E3006003024A1E8518828519837432F07405A9
:1048F300120BA1C082C0838E828F83A3A3A3A3E0E4
:10490300D083D082F8E028C0E07401120BA1D0E07C
:10491300124A6CC0E07402120BA1D0E0124A51F8A3
:10492300A3E0F9E8496026E82417F582E9122A1082
:10493300C082C083E82416F582E9127211D083D0B5
:1049430082F8E028F87401120BA1E028F0851882A0
:10495300851983AA82AB83120DE28A088B09A80802
:10496300A909E8497003024A118E828F83125D8878
:1049730088828983A3A3EAF0A3EB124A57A3A3E097
:10498300C0E0E82420F582E9122A10D0E01265760F
:10499300C0E0E82421F582E9122A10D0E0124A6629
:1049A300C0E0E8242AF582E9122A10D0E0F0740569
:1049B300120BA1E0FA124A231272112A125454E87C
:1049C300242B124CB87405120BA1E0C0E0E8242D8F
:1049D300F582E9122A10D0E0124A51FAA3E0FBEA69
:1049E3004B6019E8242BFAE9122AD3A3A3A3A3A3A8
:1049F300A3A3A3E02416124A2A124A398E828F8374
:104A0300A3A3A3A3A3A3A3A3E8F0A3E9800CEEFAB3
:104A1300EFFB1220FC122A0A7410F074060238D03D
:104A2300E8240BF582E922124A2E22FCA3E034008B
:104A3300FD8C828D8322E0FC8A828B83E02CFCA395
:104A4300E03400FD8A828B83ECF0A3EDF022125157
:104A53004DA3E022F0E8126830E9124EC874011247
:104A630050B022125144A3E022124B01E02274F70A
:104A73001204BFEAFEEBFF12720B701E124AA7125A
:104A83004CF7600612373D12220F12720B700B1295
:104A93005D7C120DDC122A0AE9F0EEFAEFFB12201C
:104AA300FC0243DB1221088E828F83A3A3A3A3A35B
:104AB300A3A3A3A3A32274F61204BFEAFEEBFF8C05
:104AC300088D09121B44E9700479018011AC08AD0B
:104AD30009EEFAEFFB90032412374412220F023837
:104AE300D3124715E8F0A3E9F022126567E0222408
:104AF30001F8A3E03400F922124B01A3E022124B88
:104B03000522124B09221250B4A3A3A3A3A322127A
:104B13004B17E022E8F0A3E9124B1F221250B4A373
:104B2300A322126C97121EC822124C79EEFAEFFBE5
:104B330022E0242B123FFAE022123887124B432241
:104B4300E08E828F83A322124F1EA3A3A3A32274FA
:104B5300F61204BF74F31209DF124C41124C9F1278
:104B63000BA1740CF07405120BA174011256206092
:104B7300097402120BA1742180077402120BA17431
:104B8300011243FB120BA1E070327408120BA11245
:104B93004BE97406124A66124C5DEE2402F8EF12DA
:104BA300466C124BD4126404124BD4A3124AFBC0BA
:104BB300E0124BCB122A10D0E012656F740C120B6B
:104BC300A1E0F9740D0238D0E508240BF582E5095C
:104BD30022124BDFA3A3A3A3A3A3A322E0850882EE
:104BE300850983A3A322124C87880889098882F543
:104BF300832274F71204BF74F31209DF124C4112BB
:104C03004C9F120BA17409F07402120BA17421F0D2
:104C13007405120BA11243F9120BA1E0701D740865
:104C2300120BA1124C7F7407124C98124C5D85181D
:104C330082851983AA82AB831216340243CFEAFE1C
:104C4300EBFF7C087D007900851882851983AA8291
:104C5300AB831217248E828F8322FCA3E0FD88820C
:104C63008983A3AA82AB83121EC822F582EF340084
:104C7300F583124C7922E0FCA3E0FD22124C8788D5
:104C830082898322124B34F8A3E0F9221250AF1227
:104C9300544E2274011250B0A3A3E022124AE474CA
:104CA3000422121724850882850983A322E0F508CC
:104CB300A3E0F50922F582E9124EC8EAF0A3EBF06E
:104CC30022124CC822124B1F1250A922C082C08349
:104CD300124CDF74CCF0A3742002386C12211490B0
:104CE3000326228E828F83A3A3A3A3A3A3A3A3A399
:104CF300A3125807124244492274F71204BFE9FE73
:104D0300124D29122A10124CF7601888828983A346
:104D1300E05403700EEEFB124A23122A10124D5A6E
:104D2300124D540243DBEA125D2FEB22C082C08393
:104D3300EAF8EBF988828983A3A3A3A3A3E0FB8802
:104D4300828983A3A3A3A3124D5AA3124D540238FD
:104D53006DE0F912164C22E0FA88828983A3A3221C
:104D630074E81204BF8A088B098C168D1789147492
:104D73001A120BA1E0F50AA3E0F50B741C120BA1A8
:104D8300E0F513741D120BA1780C120B441263B4DB
:104D9300EB127211242DFA7B001217368A108B1135
:104DA300AE10AF11EE4F7003024EA58E828F837447
:104DB30001F0850810850911751200781012093465
:104DC3007C157D00EE2418124EAF12094B85161088
:104DD30085171178101209347C097D00EE24021224
:104DE3004EAF12094B7418120BA1124721850A8288
:104DF300850B83E0C0E0EE240F122A0DD0E0124EA3
:104E0300E5C0E0EE2411122A0DD0E0124EE0C0E01E
:104E1300EE2410122A0DD0E0123BA2E513124F0A22
:104E2300E4F0A3F0124EBE780C120B62EE241712BC
:104E33002A0DE514123895F8A3E0F9EE240D122A91
:104E43000D124F04126A131272116025EE242612FA
:104E53005432242DF8124EFC12684D1243ED120900
:104E630034126A111247FA8A828B83124ED71209BF
:104E73004BEE241912720E5403601D90031C124C46
:104E8300F7600CEEFAEFFB12374712220F8013EE96
:104E9300FAEFFB12173C800AEEFAEFFB90030112C4
:104EA3005098026A627C087D00EE2404FAEF124EE9
:104EB300B5223400FB121718740322EE2413124E8A
:104EC300C522F582EF124ECC223400F58322E02472
:104ED3002B123D8712544E121718740322124EF3ED
:104EE300E022124EEAE022124EEE22124EF3A322E9
:104EF300F0850A82850B83A322EF3400F98A828B23
:104F030083124AE7E50822F0EE2426124EC522F565
:104F13000CA3E0F50D750E00780C2212388FA3A3B5
:104F2300A32274F11204BF8A088B097A2012502B32
:104F3300606F8E828F8374061250478E828F83A395
:104F4300A3A3A31238818E828F83124FB1124F1203
:104F53001209347C107D00EE2406124EAF12094B69
:104F6300850882850983A3A3A3124FA72416FAEF0A
:104F73003400FB120D0A850882850983A3A3A3A32A
:104F8300A3A3A3A3A3A3E0C0E0EE241E122A0DD083
:104F9300E0124FC1C0E0EE241F122A0DD0E0124FE1
:104FA300C9026CB6A3A3A3A3A3124C79EE22A3A3B5
:104FB300A3A3A3124FBA2212388BA3A3E022F012A9
:104FC3004BCB1257FD22F0EEFAEFFB900527E0F9E9
:104FD30012174222124EC5124FDE22E8F0A3E91245
:104FE3004FE622F085088285098322124FF22212AE
:104FF3003DA6F8A3E0F98E828F83A3A32274F41253
:1050030004BF8A088B097A0C12502B60188E828F8A
:1050130083740812504712503B120934124EA812DF
:10502300094B125091022AE07B001217368A0A8B31
:105033000BAE0AAF0BEE4F22F508A3E0F509750A94
:1050430000780822124FF2124FDEA3A3E022A3A39B
:10505300124CB0750A0078082274F61204BFEAFEF7
:10506300EBFF7A057B00121736EA4B601E8A828BB0
:1050730083740A12509E8A828B83A3A3124B128AD3
:10508300828B83A3A3A3A3F01250950238D3EEFA25
:10509300EFFB900527E0F9121742221250A22212C9
:1050A30050B41250A922E0F8A3E0F922A31250B49D
:1050B30022F08E828F8322C082C083E9900C78F025
:1050C30090031874D2F0A3740BF090031A74E4F0F5
:1050D300A3740BF090031C74F6F0A3740B02386CEA
:1050E30074F71204BFEAFEEBFF8908EE4F70031258
:1050F3001BD490032A124CF7700890032A802212C3
:105103005FA388828983A3A3A3A3A3A3A3A3A312B7
:10511300513A88828983A3A3A3A3A3A3A3A3A370C0
:10512300DEEEF0A3EF125149E4F0A3125140A3A322
:10513300A3E508F00243DB12544EEA4B221251441A
:1051430022124B1FA32212514D22125629A3A3222E
:1051530074F71204BF90032A800D8E828F83A3A35A
:10516300A3A3A3A3A3A3A31266DBEE4F60348E8293
:105173008F83A3A3A3A3A3A3A3E06970DD8E828F70
:1051830083A3A3A3A3E06A7003A3E06B70CC8E8216
:105193008F83A3A3A3A3A3A3E06C70BEEEFAEFFBDC
:1051A30080047A007B000243DB74F71204BF900390
:1051B3002A1266DB90032A123163687002EB69706E
:1051C30017125212125FA390032A12472D90032A3B
:1051D3001266DB80301266CEEE4F60298E828F839B
:1051E300A3A3A3A3A312315F687002EB6970E68ADD
:1051F300828B83A3A3A3A3A3A3A3A3A312521FA33B
:10520300A3A312472D1217C0EEFAEFFB0243DB12E2
:105213003FE5A3A3A3A3A3A3A3A3A322125469A318
:10522300A32274F01204BF74FA1209DF8A088B09EF
:105233008A828B83A3A3A3A3A3A3A3A3E0600D6488
:105243000160098A828B83125446600579020254F5
:105253002D850882850983A3A3A3A3A3A3A3A3E006
:10526300640370157404120BA1AC82AD83AA08AB5E
:1052730009122180E9701380D3850882850983127E
:105283005FA37404120BA112472D12683512721119
:1052930024321254541217BA8A0A8B0BAE0AAF0B7C
:1052A300EE4F700302542B7C327D007900121724D9
:1052B3007402120BA1AA82AB83850882850983A39A
:1052C300A3A3A3A3A3A3A3A3E0F912219874021297
:1052D3000BA1E0C0E0EE242D122A0DD0E0F0EE2465
:1052E3002CF50AEF3400F50B7403120BA1E0850AC9
:1052F30082850B83F07901EEFAEFFB120BC0850870
:105303000C85090D750E00780C1209347C1C7D0088
:10531300EE240B124EAF12094BEE243012543224FA
:10532300320808124EFC2411F8E509127206FCE952
:10533300FD8C828D8312422B242E122A0D124F04D0
:105343001257CB126A1A1209348C828D83124C7550
:105353008A828B83124ED712094B7404120BA1124B
:10536300546512472D90030212545BF0900302E040
:105373000412580E242A125D3C750D00850A82859D
:105383000B83E0780C120A818A828B83E50CF0EEA2
:105393002429122A0DE50C126563E4F0E5082415AF
:1053A300F582E50912544074015007120BA17401F0
:1053B3008004120BA1E4F0EE2427123FA785188284
:1053C300851983AA82AB83121676E924FE850882A7
:1053D300850983F0F508750900EE242E124C6EEC56
:1053E300F8EDF9AA08AB091202EFE88E828F83A3C6
:1053F300A3A3A3A3A3A3A3F0ECF8EDF9AA08AB0915
:105403001202EF8B09EA4509600F8E828F83A3A3F3
:10541300A3A3A3A3A3A3E004F0EE242012720E44DB
:1054230008125DB37900800279107406023BB11251
:105433007204FAE9FBEE22EE2415F582EF1257FD12
:10544300A2E02212544E1211C0E922E0FAA3E0FBBB
:1054530022FAA3E03400FB22124B43A3A3A3A3A38A
:10546300A322125469221250A98E828F83A3A3A36D
:10547300A32274F41204BFEAFEEBFF125D34124C54
:10548300BE900CC5E0F8EE242B12720EC3984003B5
:105493000255EA125D547015EE242B12720E04129B
:1054A3005618C0E0EE2429122A0DD0E0F0EE24288D
:1054B30012720EFC7900800109EE242C1232ECE901
:1054C300C3985026750801750900E97808120A8106
:1054D300125D54550860E1E92CFC7508017509005B
:1054E300E97808120A81E04508F0EE2427125605F0
:1054F300EE242E122A0DEC8A088AF0A4F8ABF0E40D
:105503002BF9E098F8A3E099F9C3E89508E994002A
:10551300EE403924271232EC125D546037EE242D0D
:10552300122A0D125612A3E4F0EC7054EE2420124A
:10553300720E4420124530C0E0EE2426122A0DD00C
:10554300E0F0EE2430125605A3E080592429122AF4
:105553000D74FFF090035CE0FA900CC8E0F508EAE4
:105563008508F0A4ABF075F064A4FAADF075F064AF
:10557300EBA42DFB8E828F83A3A3EAF0A3EB80A879
:10558300EE242012720E54DF124F0AECF08C08EE58
:10559300242712720E8508F0A4FAABF0EE2430F53E
:1055A30082EF1255FCFBEE241EF582EF1255F81222
:1055B3005620C0E0EE2425122A0DD0E0F0EE241C84
:1055C300122A0DE812580290032C124CF7600BECD0
:1055D300F912374712220FE97018EE240BFAEF3451
:1055E30000FB1221AA800B7BE9EE2422F582EF1245
:1055F30057D5022AE012654E221257FD2AFAA3E07C
:105603003B2212560922F582EF124ECCE0FA221207
:105613004B43A3F022F0EE242A1257FA2212562506
:10562300E02212562922124B09A3A32274F4120476
:10563300BF90032A1266DB1218628A0A8B0B7CFF67
:105643007DFF8020E0C398FAA3E099FBC3EA9CEBBB
:105653009D500E8E828F83A3A3E0C398FCA3E09991
:10566300FD1266CEEE4F6059125F9FE50AC398F8AC
:10567300E50B99F98E828F83125D86C3E89AE99BC5
:105683008E828F83A3A340BCA3A3A3A3E064027071
:105693001DEE240B125D57600CEE2410122A0D121E
:1056A3005D8812173CEEFAEFFB120BCC8007EEFA83
:1056B300EFFB120BD87A017B00900C78123B298008
:1056C3001474FF6C700374FF6D600A7A017B0090A1
:1056D3000C7812333A022AE074F01204BF8A088B62
:1056E30009ECFAEDFB890A7C01126835125D468AE2
:1056F3000C8B0DAE0CAF0DEE4F70030257C8E50ACD
:1057030060030257C8E5081257CBE0F8EE242812CD
:10571300720E6860030257C8EE242C125605E82A5D
:10572300F8E43400F98E828F83A3A3A3A3A3A3A3D6
:10573300A3E0FAE89AE99400C365D0334014125AFF
:1057430065125D5A700C7B0012682EE5091257D55D
:105753008073125A65125D5A7031EE242C12720E48
:10576300F9EE2429122A0D7508FF750900E9780856
:10577300120A81E508F0EE242A122A0DE5081257D1
:10578300F229F0EE242B123B1E8022E5082414F8A4
:10579300E5093400F9E0C0E0EE242A122A0DD0E036
:1057A3001257EDC0E0EE2429122A0DD0E012580E54
:1057B300242D122A0D123E99A31258027A01FB904E
:1057C3000C78123B29023BB42413F582E509124EEF
:1057D300C82212560CEE2414124EC5124D54EEFA82
:1057E300EFFB120BCC22EAF0A3EB124684E022F08B
:1057F300EE24281257FA22F582EF124ECCE022F063
:10580300A3E4F022E0240F123FF622F01218628E76
:10581300828F83EAF0A3EBF0EE2274E81204BF74E4
:10582300FD1209DFE9851882851983F08A0A8B0B3B
:105833008C168D17741B120BA1125A5D741D120B5B
:10584300A1780C120B448A828B83A3A3E0F912166E
:105853006A8A128B13EA451370077A007B00025A97
:10586300587A127B001217BA8A088B09AE08AF095F
:10587300EE4F7003025A547C127D007900121724F4
:105883007401120BA1AA82AB83850A82850B83A3C1
:10589300A3E0F9122198EE240FF508EF1269F174D1
:1058A30002120BA1E0850882850983F07902EEFAE2
:1058B300EFFB120BC0851682851783125465E8F03F
:1058C300A3E9125A9D8E828F83A3A3A3A3A3A3A3A9
:1058D300F07514FF751500850882850983E0781437
:1058E300120A81122A0AE514F0851282851383A312
:1058F300E0F81248B3C0E0EE240B122A0DD0E012F8
:105903005AA7F508EE240D122A0DE508F0125D5F83
:10591300E08508F0A42424FAE5F03400FB121736DE
:105923008A088B09EE1263B5EF124CBBEA45097086
:1059330003025A498A828B83741A1258028A828B11
:1059430083A3A3F0A3125A91125A7A12472DAC16CD
:10595300AD17EA2406FAEB3400FB121688850A8297
:10596300850B83A3A3A3E0C0E0E508240FF582E53C
:1059730009122A10D0E0F0900379125FA3E50824FE
:1059830010125A6E125AB4A3125FA3E5082412121E
:105993005A6E124EE5C0E0125A65122A10D0E0F09A
:1059A300E50A125D2FE50B127211C0E0E50824151C
:1059B300F582E509122A10D0E0125A88C0E0E50802
:1059C3002416F582E509122A10D0E012761DE0C0F4
:1059D300E0E5082417F582E509122A10D0E01276D3
:1059E3001DA3E0C0E0E5082418F582E509122A109A
:1059F300D0E0124AEDC0E0E5082419F582E509126A
:105A03002A10D0E0F0E508241AF582E509122A10DD
:105A1300780C120B62E5082424F8E5093400F9E553
:105A2300082422F582E50912472AE50A126830E5BF
:105A33000B127211C0E0E508241FF582E509122A52
:105A430010D0E0F0800BEEFAEFFB120BCC7E007F60
:105A530000EEFAEFFB7403026A5FE0F510A3E0F5D2
:105A63001122E5082414F582E50922F582E50912DD
:105A73004EC8E8F0A3E922E0F8A3E0F98A828B8319
:105A8300A3A3A3A322F0851082851183E022125AD7
:105A93009522124EEEA3A3A3A322F012683DE50BB9
:105AA3001257FD22F0E50A2410F582E50B1257FD8B
:105AB30022125A95A3A3A32274E81204BF8A0A8B65
:105AC3000B8C108D1189147418120BA1E0F516A319
:105AD300E0F517741A120BA1780C120B4475090028
:105AE300EA2413F582EB127211F50890032C124C81
:105AF300F76011A90890032C12374412220FE960B2
:105B030003025D2C7C02851082851183125D88124D
:105B1300683DE50B125D468A128B13AE12AF13EE8E
:105B23004F704B850A82850B83A3E0A2E0400302FA
:105B33005D2C780C1209307816120938A914AC10B0
