:020000040000FA
:06000000020B3402028C29
:03002B0002097F48
:030053000201B2F5
:03006B0002034845
:100083000202190101FF01010503010F10FEFF7AAE
:10009300157A157A157A1530142A147A15912300D6
:1000A3000000005524000000000C0000000C0001BB
:1000B300FFFF0101010027050000009E05B80102B2
:1000C30002000000040502070401051E02051E02CA
:1000D3000A0A03B80B02803E010201FFFF010A0175
:1000E3001401E096511800020206FF010900EF50C7
:1000F3000F6B10000806200C2012201820000000AF
:1001030000000000000000000000000000000000EC
:1001130000000006200C2012201E2000000000001A
:1001230000000000000000000000000000000000CC
:100133000006200C201220242000000000000000F4
:1001430000000000000000000000000000000006A6
:10015300200C2012202A20000000000000000000D4
:10016300000000000000000000000000001020203C
:1001730020202020202020202020202020200110AB
:10018300040100010005758001DC801104010001F8
:100193000005758001DC80120401000100057580F3
:1001A30001DC8013040100010005758001DC80C0BF
:1001B300E074F112052BA2AFE433FED2AFE5A7FF43
:1001C300E5A1F5085FF509741055096006121C7066
:1001D30075A1EF740855096008121C7675A1F780A4
:1001E3002BEFA2E0C0D0E508A2E092F0120A6E1550
:1001F3008182F05017906198E0F8900669E0C39807
:10020300A2D265D0335002E8F075A1FEEEA2E092CF
:10021300AF7F0202058AC0E074F212052BA2AFE49D
:1002230033FED2AF9061A4E0F8759B00E59158547A
:100233000860087591F7121CB8802AE5915854108C
:1002430060087591EF121CBE801BE8A2E0C0D0E5E8
:1002530091A2E092F0120A6E158182F05007E0C27B
:10026300E0F0121DF69061A3E0F8E5E9585404604C
:100273000E121DCC75E9FB906193E0A2E640F2EE0D
:10028300A2E092AF7F0102058AC0E074F212052B4F
:10029300A2AFE433FED2AF9061A5E0F8E5BF5854B6
:1002A30004600675BFFB121E0880D4C3E498F8E40B
:1002B30099F91202EF8026C3E49AFAE49BFBE92042
:1002C300E7E91202EFE498F8E499F922C3E498F815
:1002D300E499F91202EFE498F8E499F9C3E49AFA7D
:1002E300E49BFB22EB20E7CFE920E7E0B90010BB5A
:1002F3000008E88AF084F8AAF022E4FBC8FA22EBAB
:1003030070227B10C833C8C933C9335007C39AC39B
:10031300DBF280069A50012ADBEAC833F4C8C933FA
:10032300F4C9FA2275F008E4C833C8C933C933C91C
:100333009AC99B5004C92AC93BD5F0ECFBC833F4D6
:10034300C8E4C9FA22C0E074F212052BA2AFE43369
:10035300FED2AF900F4EE4F0E589A2E4500C740195
:10036300F053ABEF900F4FE004F0E589A2E5500C9A
:1003730053ABDF900F4EE0D2E51203C8E589A2E646
:10038300500C53ABBF900F4EE0D2E61203C8E58981
:10039300A2E7500C53AB7F900F4EE0D2E71203C895
:1003A300900F4EE060107C147D007A107B00900F5C
:1003B30050E0F9121844758900C2C5EEA2E092AF6D
:1003C3007F0102058AF0900F4FE4F022080808EA43
:1003D300C0E0EBC0E086F0E7A4FA180986F0E7A4D2
:1003E3002AFA180986F0E7A42AFA180986F0E7A47E
:1003F3002AFA1986F0E7A4FBE5F02AFA190886F031
:10040300E7A42BFBE5F03AFA190886F0E7A42BFBE7
:10041300E5F03AFA18180986F0E7A4C5F02BFBE4D7
:100423003AFA1908E7C5F0C6A426F6E5F03BFBE463
:100433003AFA1886F0E7A4F6E5F00826F6E43B0856
:10044300F6E43A08F6D0E0FBD0E0FA22E4CFC0E0CD
:10045300E4CEC0E0E4CDC0E0E4CCC0E075F020C35E
:10046300E633F608E633F608E633F608E633F6181D
:100473001818EC33FCED33FDEE33FEEF33FFC3EC22
:100483009709ED9709EE9709EF97191919400FFF8F
:10049300EC97FC09ED97FD09EE97FE191906D5F0C7
:1004A300BEECF709EDF709EEF709EFF7191919D0C3
:1004B300E0FCD0E0FDD0E0FED0E0FF222518C582AD
:1004C300C0E0E51934FFC583C0E0E518C395822475
:1004D300F810AF08858319858218800885831985EC
:1004E3008218D2AFCEF0A3E520F0A37808E608F097
:1004F300A3DEFAEFF0A3E58124FAF8E608F0A3E619
:1005030008F0A3E608F0A30808E608F0A3E608F05D
:10051300A315811581D0E0FED0E0F8158115811572
:1005230081E8C0E0EEC0E022C0D02518C582C0E05B
:10053300E51934FFC583C0E0E518C3958224F310A1
:10054300AF088583198582188008858319858218E9
:10055300D2AFC8F0A3E9F0A3EAF0A3EBF0A37908C4
:10056300E709F0A3D8FAECF0A3EDF0A3EEF0A3EFC4
:10057300F0A3D0E0F0A3D0E0F0A3D0E0F0A3E52017
:10058300F0A3E5F0F0A322851983851882E0C0E08B
:10059300A3E0F9A3E0FAA3E0FBA37808E0F608A33D
:1005A300DFFAE0FCA3E0FDA3E0FEA3E0FFA3E0C0CD
:1005B300E0A3E0C0E0A3E0F5D0A3E0F520A3E0A32F
:1005C300F5F010AF08858319858218800885831993
:1005D300858218D2AFD082D083D0E0F8D0E0321237
:1005E3000B96B90003020624E4900301786F790D9A
:1005F3008002F0A3D8FCD9FA900F6FAA82AB839044
:100603000086782D79028015E493A3AC82AD838AAA
:10061300828B83F0A3AA82AB838C828D83D8E9D9A2
:10062300E77582437583B974041208F77582F87508
:10063300832174001208F7000075F0108E1A8F1BC7
:1006430085821F85831E851882851983E0CEA3E0EA
:10065300CF851F82851E83EBC9EAC8EDCBECCAC3E5
:10066300E833C8E933C9EA33CAEB33CBC3EA9EF5AF
:100673001DEB9FF51CB35004AB1CAA1DEC33CCED52
:1006830033CDD5F0DAAE1AAF1B22D083D082ECC0C3
:10069300E0EDC0E0E493A3FCE493A3FDED4C600D17
:1006A300120765EC24FFFCED34FFFD80EFE493A318
:1006B300FCE493A3FDED4C600D120802EC24FFFC57
:1006C300ED34FFFD80EFD0E0FDD0E0FCE493A3C068
:1006D300E0E493C0E022851983851882E0A3FEE05D
:1006E300A3F5207808E0A3F608DFFAE0A3FFE0A370
:1006F300C0E0E0A3C0E0E0A3C0E0E0A3C0E0E0A36B
:10070300C0E010AF08858218858319800885821898
:10071300858319D2AFD083D0820208FDD083D082E3
:10072300E9C0E0E493A3C386F0C5F095F0F908E4CB
:1007330093A386F0C5F095F0700BE493A3C399409F
:1007430005E9048002A3E475F002A42582F582E59D
:10075300F03583F583D0E0F9E493A3C0E0E493C0DC
:10076300E022C0E0C3E49396087401939618400F07
:10077300E49366700808740193661870007019A3F7
:10078300A3C3E49396087401939618A3A3400DD0D2
:10079300E0D0E0D0E00206C9A3A3A3A3A3A3D0E0C3
:1007A300227404800474028000CCC0E0EDC0E0E554
:1007B30018C39CCCAD1950011D10AF068C188D19B0
:1007C30080068C188D19D2AF120879D0E0FDD0E0E5
:1007D300FC2274028000CCC0E0EDC0E0E518C39CAD
:1007E300CCAD1950011D10AF068C188D1980068CE5
:1007F300188D19D2AF120857D0E0FDD0E0FC22C00B
:10080300E0C0F088F0E493667008087401936618FA
:100813007000A8F0A3A3700BD0F0D0E0D0E0D0E03C
:100823000206C9A3A3D0F0D0E022D083D082CCC0EB
:10083300E0E493A360061208D81470FAE493A3606B
:10084300061209C91470FAD0E0FCE493A3C0E0E4F3
:1008530093C0E022CAC0E0E493A3C582CCC582C59D
:1008630083CDC583F0A3C582CCC582C583CDC583A3
:10087300DAE5D0E0CA22CAC0E0E0A3C582CCC582D3
:10088300C583CDC583F0A3C582CCC582C583CDC541
:1008930083DAE6D0E0CA22C008C3E096F50808A3CD
:1008A300E096420808A3E096420808A3E0964508AC
:1008B3007001D3D00822700908080822601618189E
:1008C30018C6C333C608C633C608C633C608C633FC
:1008D300C6D5E0EA22C0E0E493A3D39C5010E4938E
:1008E300A3C39C400AD0E0D0E0D0E002084AA3A30F
:1008F300A3D0E022C09FF59FE473D09F22D083D082
:1009030082C09FE493C0E0740193C0E0740293F546
:100913009F222518F58210AF08F51840021519809B
:1009230008F51840021519D2AF8519832274048083
:100933000A74038006740280027401C0E0F4041296
:100943000915D0E0120B7122C0D0251810AF08F59D
:1009530018500205198008F51850020519D2AFD0B6
:10096300D022BB0102E722C082C08389828A83BB73
:100973000003E08002E493D083D08222C0E0C0D0A1
:10098300E8C0E0E5A8D2AFC2C7A2E792AFD0E0F8D3
:10099300D0D0D0E0326016080808C6C313C618C604
:1009A30013C618C613C618C613C6D5E0EA22C3E099
:1009B300C696F608A3E0C696F608A3E0C696F60820
:1009C300A3E0C696F622C0E0E493A36C7009D0E0DE
:1009D300D0E0D0E002084AA3A3D0E022251810AF4C
:1009E30008F518400215198008F51840021519D2A8
:1009F300AF22E76670100809E766700A0809E76620
:100A030070040809E76622C3E09608A3E09608A3EA
:100A1300E09608A3E096A2D265D03322E066701078
:100A230008A3E066700A08A3E066700408A3E06602
:100A330022C3E096F008A3E096F008A3E096F0083E
:100A4300A3E096F022E026F608A3E036F608A3E03A
:100A530036F608A3E036F622E627F60809E637F667
:100A63000809E637F60809E637F622C0E0E8C0E0F1
:100A7300E58124FCF8E6A2E7D0E0F8D0E022700498
:100A830022600D18C6C333C608C633C6D5E0F418B2
:100A930022E657F60809E657F60809E657F6080965
:100AA300E657F622E056F608A3E056F608A3E0560A
:100AB300F608A3E056F622E056F008A3E056F00845
:100AC300A3E056F008A3E056F022E647F60809E64D
:100AD30047F60809E647F60809E647F622E026F056
:100AE30008A3E036F008A3E036F008A3E036F022CE
:100AF300E4C396F608E496F608E496F608E496F658
:100B030022C6F4C608C6F4C608C6F4C608C6F4C6A8
:100B130022C3E7960809E7960809E7960809E796C6
:100B230022C3E09608A3E09608A3E09608A3E09604
:100B33002275D000758140751801751903000205EF
:100B4300E2E0F608A3E0F608A3E0F608A3E0F62245
:100B5300600C08C6C313C618C613C6D5E0F422E654
:100B6300F008A3E6F008A3E6F008A3E6F022CAC063
:100B7300E0E6F0A308DAFAD0E0FA22E0FAA3E0FB19
:100B8300A3E0FCA3E0FD22EAF0A3EBF0A3ECF0A3C7
:100B9300EDF022E5C754F84401F5C7790122251881
:100BA300F582E43519F58322C2AF75D69F020000A2
:100BB300221209004A5000120900A850001209002D
:100BC300D150001209004151001209009A5100123C
:100BD30009001352001209006354001209001D5644
:100BE30000120900C956001209000B58001209002F
:100BF300A95A00120900AF5D00120900BC5D001282
:100C030009004A5E00120900FC5E00120900445FFD
:100C130000120900A45F00120900C05F001209005E
:100C2300F45F00120900296000120900126100122A
:100C33000900C761001209001C64001209006965FC
:100C4300001209000C6600120900996600120900DF
:100C5300CF66001209008167001209005368001271
:100C630009000E6A00120900626A00120900966AFE
:100C730000120900116B00120900EB6B001209004E
:100C8300A96C00120900EE6C00120900066D001237
:100C930009009D6D001209000E70001209002372F5
:100CA300001209004172001209005F72001209006C
:100CB30039730012090057760012090000800212EE
:100CC30009003580021209005B8002120900958039
:100CD30002120900A78002120900F980021209001A
:100CE3005A8102120900E481021209008882021269
:100CF3000900D082021209000A8302120900278325
:100D0300021209004C83021209009E830212090099
:100D1300B78302120900DD8302120900FC83021269
:100D230009003784021209007B8402120900A2849D
:100D330002120900F38402120900A38502120900BA
:100D43005B8602120900238702120900E38702125D
:100D530009002788021209004C88021209008F88B3
:100D630002120900DC8802120900348A0212090007
:100D7300BA8A02120900D88A02120900028B0212EF
:100D830009001C8B021209002B8B02120900368BFF
:100D930002120900F68B021209004F8C021209009D
:100DA300118D02120900198D02120900918D021290
:100DB3000900E08D02120900268E02120900678ED7
:100DC30002120900F78F02120900AF900212090004
:100DD3001B91021209004692021209005792021255
:100DE3000900CD92021209005F9302120900B79322
:100DF300021209007794021209009E94021209005C
:100E0300BC9402120900CE94021209002195021229
:100E130009005E95021209006B9502120900EE9615
:100E2300021209004398021209005C980212090099
:100E3300989902120900339A021209006C9A02125D
:100E43000900B89A02120900D49B021209001D9EE0
:100E530002120900289E02120900339E02120900A1
:100E63003D9E02120900489E02120900629E021270
:100E730009006C9E02120900769E02120900819EEF
:100E830002120900A99E02120900049F021209001E
:100E9300289F021209004C9F02120900AA9F021206
:100EA3000900EE9F021209000AA00212090081A0A4
:100EB30002120900B9A00212090005A102120900D9
:100EC30062A1021209001CA20212090000A402126C
:100ED300090059A40212090089A502120900AFA54D
:100EE3000212090038A702120900B4AA021209006B
:100EF30086AC021209004FAE02120900FCAE0212C8
:100F0300090067B00212090006B10212090053B1C9
:100F130002120900BDB102120900CCB1021209008C
:100F230053B40212090005B60212090072B6021286
:100F3300090051B7021209006AB802120900E7B9A1
:100F43000212090006BA021209005BBA0212090072
:100F530060BB0212090088BB02120900E0BB021247
:100F63000900BFBC0212090003BD021209004EBDF5
:100F730002120900B9BD02120900FABE02120900E9
:100F83005EBF02120900ACC0021209000CC30212B8
:100F930009003DC302120900F5C4021209004AC543
:100FA300021209004EC602120900EBC60212090022
:100FB30044C702120900F7C70212090099C80212B6
:100FC300090039C902120900DEC902120900E280D0
:100FD300011209002181011209006883011209002D
:100FE300B28301120900CD84011209003D8501126B
:100FF3000900728501120900E68601120900698958
:1010030001120900928A01120900288B01120900BA
:10101300309401120900C59401120900AC97011222
:1010230009009F98011209000099011209001C9AF6
:1010330001120900019C01120900129E011209000C
:101043007C9E011209004E9F0112090005A00112A6
:1010530009000FA0011209003DA001120900FAA026
:1010630001120900D1A10112090098A2011209007D
:101073004AA30112090073A30112090095A30112E7
:101083000900EBA501120900C3A60112090007A775
:10109300011209006FA70112090027A80112090014
:1010A30059A8011209009DA801120900D3A8011231
:1010B30009001FA90112090074A90112090079A9E5
:1010C30001120900CCA901120900F1A901120900BA
:1010D30000AB0112090064AB01120900D4AB011289
:1010E300090060AC011209002DAF0112090011B013
:1010F3000112090094B101120900CAB301120900D7
:1011030078B40112090028B50112090069B7011268
:1011130009000CB80112090053B801120900FFB904
:101123000112090013BA011209001DBA01120900C4
:1011330045BA0112090051BA0112090070BA01122D
:10114300090055BC011209008CBC0112090096BCB0
:1011530001120900A0BC01120900FBBC0112090025
:1011630045BD011209004DBE01120900A4BE0112C2
:101173000900F3BF0112090037C001120900DFC0E3
:1011830001120900C2C1011209006DC20112090056
:10119300B9C301120900B7C4011209005DC50112E8
:1011A3000900EDC50112090004C6011209003BC67E
:1011B3000112090045C60112090050C601120900B7
:1011C3006EC601120900B2C6011209000FC701124F
:1011D300090034C7011209004EC701120900DAC71A
:1011E30001120900F7C80112090064C901120900BC
:1011F3004BCA0112090072CA01120900E6CA0112A0
:10120300090061CB0112090065CC011209005BCD15
:10121300011209000ACE011209001DCF01120900B3
:10122300B9CF0112090046D00112090024D10112DD
:1012330009005CD101120900B4D1011209007DD269
:10124300011209009ED20112090025D301120900DF
:1012530049D3011209006BD301120900B4D301125F
:101263000900CAD501120900B1D60112090062D7DB
:101273000112090098D901120900E8D901120900E5
:1012830028DA011209006ADA01120900C6DA01122A
:101293000900F4DA0112090018DB011209006BDB03
:1012A3000112090099DB01120900D2DB01120900C6
:1012B30027DC011209008DDC01120900E1DD0112B6
:1012C300090004E00112090071E0011209009AE02B
:1012D3000112090025E1011209008CE10112090044
:1012E300D7E101120900FBE1011209001FE201121B
:1012F30009007AE20112090095E2011209004EE3A6
:101303000112090088E3011209002E8B041209005F
:10131300668B04120900878B04120900C98B04121F
:1013230009002F8C04120900398C04120900498C1E
:10133300041209007E8C04120900C78F04120900ED
:10134300719104120900719304120900A2CA0212D6
:101353000900E8CA02120900C8CB02120900CACC6C
:1013630002120900CDCD0212090059CF0212090061
:10137300B7CF0212090074D00212090092D10212EF
:10138300090003D2021209003FD2021209008DD2D2
:101393000212090097D202120900DBD202120900DD
:1013A30037D302120900D2D3021209004FD402121A
:1013B30009001ED502120900B7D502120900D7D5BC
:1013C300021209000DD6021209003ED602120900CC
:1013D300FFD6021209000FD70212090063D70212C7
:1013E30009007ED70212090090D70212090099D78B
:1013F30002120900F3D7021209004FD802120900A2
:101403009BD802120900B6D802120900E7D80212CB
:10141300090004D90212090010D90212090084DA62
:10142300021209009DDA0212090004DB021209000C
:1014330017DB0212090025DB02120900D9DB0212B5
:101443000900BDDC02120900C3DD021209004DDEF2
:101453000212090057DE02120900C4DE021209005B
:10146300DBDE021209000DDF0212090046DF021261
:10147300090070DF02120900D1DF02120900F1DF57
:10148300021209000FE00212090055E002120900DE
:101493007BE102120900C8E102120900F7E102121E
:1014A30009006DE20212090095E202120900CEE280
:1014B30002120900DCE20212090034E302120900FD
:1014C30083E302120900C2E302120900F2E30212EB
:1014D30009001EE40212090029E40212090047E48C
:1014E3000212090009E50212090013E502120900BC
:1014F3004EE50212090064E502120900B9E5021281
:101503000900CDE502120900DBE602120900EEE64E
:101513000212090003E702120900A5E702120900FB
:1015230028E802120900E6E802120900F1E80212B3
:1015330009001DEA0212090039EA021209008BEAC6
:1015430002120900CAEA02120900DFEA02120900C4
:1015530041EB02120900D0EB021209001BEC02124C
:1015630009006CEE02120900EAEE021209005FEFB5
:101573000212090081F10212090099F10212090015
:101583009CF102120900A8F102120900BCF1021237
:101593000900C4F102120900F7F102120900A7F2CF
:1015A300021209001DF30212090090F3021209004E
:1015B30044F402120900F9F40212090018F50212A8
:1015C3000900B8F502120900C4F502120900EFF58B
:1015D30002120900F2F5021209005CF60212090078
:1015E30084F7021209005CF802120900E7F80212FC
:1015F300090000FA02120900BDFA02120900F6FA04
:101603000212090027FB02120900E5FB021209007E
:1016130015FC02120900F0FC0212090089FD0212F6
:10162300090014FE021209005F4A0012090048FF74
:10163300021209007AFF02120900BBFF021209001D
:101643002CF50312090091F503120900CEF50312DC
:1016530009001DF60312090007F803120900EEF949
:101663000312090027FD031209004DFD03120900AF
:1016730065FD03120900CEFD031209000AFE0312E1
:101683000900EE4F0012090069FE03120900C7FEAC
:10169300031209000080041209007E80041209006D
:1016A300B080041209000881041209008282041226
:1016B30009009E8204120900D98204120900608382
:1016C30004120900B083041209007D840412090086
:1016D300818504120900D58504120900508604127D
:1016E3000900B18604120900F286041209009D87DD
:1016F30004120900BB8804120900F18804120900CE
:101703003C89041209008389041209000D8A04121A
:101713000900B28A04120900A89B04120900EE9B77
:1017230004120900589C04120900799C0412090050
:10173300199D04120900239D04120900709D0412CF
:101743000900959D04120900F59D041209008B9E62
:1017530004120900C39E041209001C9F041209000D
:10176300789F04120900A69F041209002EA00412F8
:10177300090073A004120900B2A004120900F7A023
:101783000412090009A1041209001BA10412090093
:101793003AA10412090043A104120900EFA10412A3
:1017A30009002FA20412090017FF03120900DBD15D
:1017B3000412090011D2041209005AD204120900BA
:1017C300A7D304120900F6AA031209006FAC03128F
:1017D300090030AE031209006CAE03120900F3B125
:1017E3000312090039B2031209004EB403120900AF
:1017F30020B503120900CCB50312090077B7031211
:101803000900C1B903120900DDBC03120900EBBCD6
:1018130003120900C6BD03120900D9C1031209004E
:1018230034E104120900E7E204120900FDE20412A4
:10183300090045C40412090058C404120900F6C47F
:101843000412090038C5041209005DC50412090019
:10185300A2C504120900DBC5041209000CC6041258
:1018630009007FC70412090027DF041209005DDFA6
:101873000412090079DF04120900BBDF0412090016
:10188300CBDF041209006CC203120900AEC20312BB
:1018930009001DC30312090014C40312090098C4EC
:1018A3000312090020C50312090035C503120900FC
:1018B3007FC503120900CEC50312090020C6031217
:1018C300090033C6031209007FC6031209007AC850
:1018D30003120900FCC80312090026C903120900F8
:1018E3006FC90312090037CB03120900A7CB0312F8
:1018F300090034CC031209004FCC031209006FCC4A
:101903000312090090CC0312090069CD03120900E8
:10191300CCCD0312090018CE031209001BCF03120A
:10192300090089D103120900A3D10312090028D2A7
:101933000312090098D203120900BBD20312090053
:10194300F5D20312090063D30312090024D403124E
:10195300090049D40312090053D40312090063D4C4
:1019630003120900E6D40312090001D5031209008A
:1019730023D5031209004FD5031209008AD5031298
:10198300090099D503120900DAD50312090084E18D
:10199300041209009CE104120900239404120900B3
:1019A300729404120900249604120900D9970412B0
:1019B30009002198041209001D9904120900749A60
:1019C30004120900969A04120900F29A04120900FB
:1019D300749B04120900FFD5031209002AD60312CF
:1019E30009000DD7031209008FD703120900F9D795
:1019F3000312090045D803120900B3D803120900E2
:101A03003ED903120900CCD903120900FFD90312EE
:101A13000900F3DE0312090098E00312090054E100
:101A23000312090091E103120900DDE30312090027
:101A330051E40312090050E50312090029E60312D9
:101A43000900A3E6031209005DE7031209001CE87D
:101A53000312090088E8031209002FE903120900A1
:101A63008CE90312090049EC0312090009ED031282
:101A730009006EED0312090018EF03120900D5EFF8
:101A83000312090034F1031209005BF20312090087
:101A9300F6F203120900F1F303120900D2E3011273
:101AA30009005AE401120900CDE40112090021E5FD
:101AB300011209005CE501120900E9E501120900C0
:101AC30005E70112090057E701120900B5E7011202
:101AD3000900F8E7011209006DE801120900B7E8EF
:101AE3000112090036EA0112090009EB011209008B
:101AF3005FEB0112090055EC0112090002ED01121E
:101B030009002DED011209004CED011209005CEDF5
:101B13000112090062EE0112090026EF0112090009
:101B230007F1011209006DF10112090084F101129C
:101B33000900DAF20112090057F301120900C6F392
:101B4300011209004FF40112090093F40112090074
:101B53005AF60112090032F7011209006EF8011258
:101B6300090027F90112090058FA0112090087FA3E
:101B73000112090061FB0112090030FC0112090086
:101B830089FC01120900A1FC01120900A1FD011247
:101B930009002FFE011209008CCF041209004BD05B
:101BA3000412090004D1041209006AD104120900C5
:101BB300C7B90412090030BB04120900E67F001202
:101BC300090043D80412090051D804120900EAFF9E
:101BD3000312090077E00412090087E004120900E8
:101BE30093E004120900E0E00412090029DE041264
:101BF3000900AADE041209000EDF04120900F0FF37
:101C030002120900F3FF02120900C5E204120900DF
:101C1300FCFF01120900B5B0041209000AB1041255
:101C23000900DEB20412090010B30412090037B32D
:101C3300041209004BB30412090064B3041209002F
:101C430093B40412090095DB04120900B9DB0412F2
:101C53000900D2DB0412090005DC0412090036DC9A
:101C63000412090064DC04120900C6DC0412090032
:101C7300D5DC04120900DFDC04120900ECDC0412D9
:101C8300090077CA04120900B4CA04120900C3CABE
:101C930004120900E2CA041209004ACB0412090023
:101CA30053CB04120900B2CB04120900D6CB0412A1
:101CB3000900C9CC04120900D6CC04120900E7CCF0
:101CC300041209005CE20412090079E2041209001B
:101CD30032A70412090078A704120900D7A8041236
:101CE3000900E4A804120900F7A80412090016A9C0
:101CF300041209002CA90412090040A904120900C6
:101D0300B5A9041209001AAA04120900CAAA0412E6
:101D130009009FAB04120900AFAB04120900BEAB6C
:101D230004120900DCDF0412090001E004120900B7
:101D33002AE00412090052E0041209002BD604120F
:101D4300090052D604120900CED60412090015CD9B
:101D5300041209002ECD041209003ACD0412090021
:101D63004ECD041209006CCD0412090076CD041285
:101D7300090080CD0412090093CD04120900EBCDB4
:101D83000412090022CE0412090050CE04120900E5
:101D93009ECE04120900EBCE0412090006CF0412F2
:101DA300090010CF0412090042CF04120900E3E036
:101DB300041209007576001209009F7600120900CB
:101DC300BB7600120900CE76001209000D770012CF
:101DD30009008E7700120900C67B00120900F07C0F
:101DE30000120900237D00120900707D0012090012
:101DF300B87E00120900E07E00120900037F001282
:101E03000900477F00120900A87F00120900B87F6C
:101E130000120900F6DC0412090011DD04120900A6
:101E23003ADD0412090054DD0412090079DD0412BD
:101E3300090098DD04120900B0DD04120900DEDD9B
:101E430004120900F8DD04120900D2E104120900AA
:101E5300A7C004120900AEC004120900E3C10412B2
:101E6300090012C20412090080C20412090013C33C
:101E7300041209004CC30412090095C3041209009B
:101E8300C5C304120900E5C304120900FDD90412F5
:101E9300090015DA0412090032DB0412090035DBEC
:101EA30004120900E0FE011209003FFF01120900BC
:101EB30095FF01120900D6FF0112090000800312E9
:101EC30009001B8003120900908003120900198185
:101ED30003120900A88103120900C4810312090037
:101EE3006E84031209001D8703120900BB880312C5
:101EF3000900068A03120900D38F03120900CF9049
:101F030003120900459103120900119203120900FB
:101F1300B59203120900189403120900B89403122E
:101F230009000295031209007495031209001D9616
:101F330003120900EA9603120900509703120900DD
:101F4300559803120900129903120900AF9903125D
:101F53000900069C031209009A9C03120900169DAE
:101F630003120900A29F031209009DA00312090096
:101F7300CCA0031209008BA2031209005FA4031271
:101F8300090055A50312090043AA031209008CC7CF
:101F930004120900B1C7041209003AC80412090067
:101FA300FCC804120900CEC9041209004BCA04126A
:101FB300090008BD04120900C9BD0412090038BE96
:101FC300041209005DBE0412090018BF04120900BF
:101FD30018E2041209000ED4041209005DD404129D
:101FE30009009AD4041209001DD504120900ECD586
:101FF30004120900F2D50412090058A204120900C0
:102003001CA30412090023A50412090026A5041227
:10201300090062A50412090065A50412090070A550
:10202300041209007BA50412090086A50412090005
:1020330097A5041209004BA6041209006FB50412F8
:10204300090095B504120900E0B504120900FCB5B6
:10205300041209002DB6041209003DB6041209004A
:102063004AB60412090057B6041209003AB704121B
:10207300090078B70412090082B704120900A1B855
:1020830004120900ACB804120900BEB80412090016
:10209300C7B804120900D1B804120900F7AB04123F
:1020A3000900A7B00412090098E204120900AA4823
:1020B300001209002A4800120900F0470012090023
:1020C300304700120900A6460012090078460012A4
:1020D30009002445001209008D4400120900F04351
:1020E300001209007B430012090049430012090052
:1020F300864200120900B14000120900424000125A
:102103000900144000120900114000120900983E12
:1021130000120900993D00120900633C00120900F6
:10212300A73B001209001D3B00120900233A0012CD
:102133000900134F00120900514D001209001D4DF3
:1021430000120900EA4C00120900BD4C00120900FC
:102153007F3900120900C6380012090089380012BD
:102163000900E34B00120900CF3700120900993729
:1021730000120900403700120900F6360012090068
:10218300404B0012090037FE031209009736001274
:1021930009006636001209002E3300120900EE32E0
:1021A30000120900E2320012090042320012090053
:1021B300823100120900FB2E001209008C2C001240
:1021C30009004A2C001209001E2B00120900D32A11
:1021D300001209000F2A00120900522900120900F7
:1021E300222900120900A74A00120900E828001258
:1021F3000900C5FE0200000080FBE4738F000100AC
:10220300CB0F87000100C90F24000200160625002A
:1022130002001806260002001A0627000200A90F72
:1022230028000100AB0F29000100AC0F840004005B
:10223300AD0F86000100B10F2A000100B20F2B0081
:102243000100B30F2C000100B70F2D0008001E067C
:102253002E000100B80F2F000100B90F300001005C
:10226300BA0F31000100BB0F320001002606330014
:102273000100270634000100BC0F360001002806C8
:1022830038000100BD0F39000100B60F83000200C2
:10229300C70F63000100320664000100B40F65003C
:1022A3000100B50F6D000100C60F6E0002001C0691
:1022B30043000100BE0F44000200BF0F45000100B0
:1022C300C10F46000200C20F470008002A0648005B
:1022D3000100C40F4B000100C50F04000100CA0F29
:1022E300A1000100CE0F37000100CD0F88000100CF
:1022F300CC0F3C0001002906000000000000000193
:10230300363601010001020100010301000104014D
:10231300060605020000070100340801000F090446
:1023230001010D0100FF0E08000017020000190152
:1023330000FF1A0100011B0100FE1C0100081D0221
:1023430000001F0100012001000121020000230100
:10235300000F2402000026010001270100082802C3
:1023630000FF2A0100072B0102402C0100002D0170
:1023730000012E0100012F0100FF30010B1C310869
:1023830000003A0100083B01000F2F010000030089
:10239300710030016000110070003102200350040D
:1023A30080001000610000001400630073007200DD
:1023B3006200430000001300060000000000040058
:1023C30012000000000000000000040004003700B9
:1023D30037003C02440000000000000000006500DC
:1023E30000003500810000000500000083000000AC
:1023F300030471040204600411047004020402045F
:10240300010402041004610400041404630473044B
:102413007204620443040004130406040004000469
:1024230004041204000400040004000451046400C2
:102433000004000400044404000400040004000435
:102443006504000435048104640005040004830466
:1024530000040103710301030103010301030103E9
:10246300220302030103100300030003000300031C
:1024730000030003000342030003240306030003D5
:102483000003040312032503230325032303040387
:1024930004030003000300034403000300032303B6
:1024A30000036503210035038103000305030003D3
:1024B3000003000301017101010101011101010187
:1024C3003101010101018001100161013B00140090
:1024D30063017301720162014301000113010601EB
:1024E3003D0135000401120100010001000100015A
:1024F30004010401330133013C014401320136007C
:1025030000010001650100013500810100010501A1
:102513008201830100010302710230016002110292
:1025230070020102020202028002100261023A00FA
:102533004100630273027202620243020002130249
:10254300380000020002040212020002000200022C
:10255300000204020402370037003C024402000276
:102563003900000200026502000235028102000206
:102573000502820283020002000003002001E080C2
:10258300000000002001E18000000400420164809B
:102593000000050042015380000006004201428012
:1025A300000007002001DE800000100042035910E4
:1025B3000000110020035F0F0000120010036A10D7
:1025C300030000002103600F060000002001620FDA
:1025D3000000000000000000000003002001E08074
:1025E300000000002001E18000000400420164803B
:1025F30000000500420153800000060042014280B2
:10260300000007002001DE80000010004203591083
:102613000000110020035F0F0000120010036A1076
:10262300030000002103600F060000002001640F77
:102633000000000000000000000003002001E08013
:10264300000000002001E1800000040042016480DA
:102653000000050042015380000006004201428051
:10266300000007002001DE80000010004203591023
:102673000000110020035F0F0000120010036A1016
:10268300030000002103600F060000002001630F18
:102693000000000000000000000003002001E080B3
:1026A300000000002001E18000000400420164807A
:1026B30000000500420153800000060042014280F1
:1026C300000007002001DE800000100042035910C3
:1026D3000000110020035F0F0000120010036A10B6
:1026E300030000002103600F060000002001650FB6
:1026F300000000000000000036000100060000009A
:102703000F0000000000000000000000000003FFB5
:10271300FF00000403FFFF0000FFFF0FF4010005AB
:10272300C4040320000100020B00000000000000AD
:102733000003010F341F701F3A1F881F401F761FAD
:10274300401F821F461F881F401F761F4C1F881F74
:10275300521F881F581F881F5E1F881F641F881FF2
:102763006A1F881F00000000000000000000601ABC
:102773001300241A0100601A0200EE190300F41971
:102783000400FA190500001A06000C1AFFFF0000E6
:10279300011610064010083A100B581010920F0241
:1027A3001C10052E100722100CF80F0D0A10FF0045
:1027B3000003EAF5E5D5D5C5B5A595958585757568
:1027C300656555554545353525251515058A14BACD
:1027D3001490149614B414A814A214C014C614CCE0
:1027E30014D8149C1484147E1400160F00000B15C7
:1027F3000B020002220F320000067A6232303136B9
:1028030030393239313032363337000000000000BE
:1028130000008967452301EFCDAB58696E674875A2
:102823006F5975616E536D6172747A158C159215BB
:10283300541498154E145A14DA15F815FE15E015AC
:10284300EC15E6158E138813C413CA13BE1376133F
:10285300303016181920231A1C1E30000349484231
:102863004D1817250502000119161816161523030E
:102873000000383C3E363B3B352B432C0C0E020B01
:10288300040B0A0708000F303017181921301B1DDD
:102893001F30CE159E15A415B015AA15AE14D2146B
:1028A300F215DE14E4140204020101010109029A83
:1028B30013A0139413D01300BE040AA613B8130075
:1028C3000028000C000E0004007F00E80315000838
:1028D300090004000AFF1E1E0930040810030C053A
:1028E300080F030C0174F71204BFE9FE121694EEED
:1028F300900F70F090030E74CEF0A37421F0900348
:102903001074C8F0A37421F090031274C2F0A3747E
:1029130021F090031474BCF0A37421F00243C97432
:10292300F71204BFE9FE900302E4F0EE900301F016
:10293300900FC212373912471B7C2A7D067A057B1A
:1029430003121EB6900FC4E090030DF00243C97446
:10295300F41204BF8A088B09EB5480605B90030177
:10296300125E1D604A8E828F83E064017032124EC4
:10297300AC1207A4EE24121271FCF50A780A1209AC
:102983003C122A02120938EE240B1229FB1207A863
:10299300EE2417125E2D121652740912094B800889
:1029A300E0640270031220B4EEFAEFFB12173CAAA4
:1029B30008E5096480FB803AEAA2E0501790031609
:1029C300124CE560061237351221FDE5086401FA61
:1029D300AB09801E5402600C900F6F7401F0EA641F
:1029E30002FA800EEA54046005EA640480F37A0074
:1029F3007B00022ACEEE240CF582EF124EB622EEB5
:102A0300240FF50AEF3400F50B780A2274F412044C
:102A1300BF8A088B098A828B83A3A3A3E0241012A5
:102A230043D5FA1250197003022ABE8E828F837423
:102A330002F0A3E4124FDCA3A3A3A3E8F0A3E912DB
:102A43004B2AA3A3A3A3A3A3A3F0E5082403F8E5B8
:102A530009123F8224101242418E828F83A3A3A3C3
:102A6300A3F0EE2409FA122AC0124662F583888283
:102A7300E0A2E58E828F83A3A3A3A3A350047401D2
:102A83008001E4F0E5082403F888828983125D76E7
:102A9300EA126834EB1229FE125041120934126310
:102AA300A2EB1247E88E828F83A3A3124EC51209AD
:102AB3004BEEFAEFFB900301125086800EEF3400C9
:102AC300FB8E828F83A3A32212094B7F040206D9B4
:102AD30074F21204BF8A088B09ECFAEDFB740E1230
:102AE3000BA1E0FC1216C48A0C8B0DAE0CAF0DEEDD
:102AF3004F6023AC08AD091216B2E96019AC08ADFA
:102B030009EEFAEFFB1216B8E97007EEFAEFFB12C3
:102B130016AC7900800279B402379474EE1204BFC4
:102B230074F71209DF8A0A8B0BECFEEDFF750FB306
:102B3300750E00750C00750D00800CE50C2401F575
:102B43000CE50D3400F50D9028CAE493F874019355
:102B5300F9C3E50C98E50D994003022C3EAA0CAB92
:102B63000D1217128A088B09EA450960CE8A828BF7
:102B730083A3A3A3A3A3E0250EF50EF510C3E50AD3
:102B83009510E50B940050B37C157D007900EEFAA7
:102B9300EFFB124C93A3A3A3A3E50AC3950EF8E09E
:102BA30028C333F8E433F9E50828F582E50939F554
:102BB30083A3A3A3A3A3A3125453A3124511EAFC13
:102BC300EBFDEEFAEFFB123F9FA3E06401700A12E4
:102BD3004EAC74011238758043851882851983AC15
:102BE30082AD83850882850983125D741216FAE922
:102BF300602D7408120BA1E0C0E0124EACD0E0F0DF
:102C03007408120BA1E06403851882851983700C84
:102C1300AC82AD83EE240B123862800312470F851A
:102C23000882850983123E87A3A3124F9FC0E0EE5B
:102C330024141229FBD0E0F0750F00A90F740912B8
:102C4300094B7F0A0206D974F71204BFE9FE8A8290
:102C53008B83A3A3A3A3A3A3E0540860298A828B35
:102C630083A3A3A3A3A3A3E0540260178A828B8345
:102C7300A3A3A3A3A3A3A3A3A3E06406600574E98A
:102C83006E70031221B00243C974E81204BF74F7D3
:102C93001209DF7407120BA1124CACE98518828567
:102CA3001983F0ECFEEDFF7424120BA1780C120BC8
:102CB300447513008E828F83125D708E828F83A37F
:102CC300A3A3E0F91216D08A148B15EA45157003F5
:102CD300022E95EE24101255F3A914120E968A169D
:102CE3008B17EA45177003022E95EE2406F510EFB5
:102CF3003400F5117C00851082F583122EE78E8255
:102D03008F83A3A3A3122EDC125A76F8A3E0F985CE
:102D13001682851783A3A3A3A3123977122EDCA3EC
:102D2300A3A3A31257F0851682851783A3A3A3A396
:102D3300A3A3F0EE126834EF123156120934EE12E7
:102D430063A3EF1247E8851682851783A3A3A3A382
:102D5300A3A3A3A3A3124EC512094B751000022E01
:102D630015850A82850B83125D741217008508820C
:102D7300850983A3EAF0A3EB124ED8A3A3124BCD8C
:102D830012509DE0A2E6500F850882850983A3A314
:102D9300A3A3A3E0D2E1F0E513706385088285095C
:102DA30083A3125F9190036CE0687003A3E06970E2
:102DB3004D850882850983A3A3A3125600780C12BC
:102DC30009307427120BA1E0F50A780A12093C7442
:102DD30026120BA11207A89003791207A879007491
:102DE30010120BA1124B1A122138740912094B85C8
:102DF3000882850983A3A3A3A3A3E04405F0740178
:102E03002510FC8E828F83A3A3A3A3A3A3122EE773
:102E13000510E50A450B6052851008C3E5089514B3
:102E2300E495155045E51075F006A4F8A9F0E516EC
:102E330028F8E51739F9E8240CF508E9123D46E4CA
:102E4300124ECE64016003022D647513018508825E
:102E53008509837401124ED3F8A3E0F985088285AE
:102E63000983A3E8F0A3E9022D7BAA16AB17120E80
:102E73009C78161209387425120BA1E0FC74021217
:102E83000BA1E0F9EEFAEFFB1221B6740212094B23
:102E930080428E828F83A3A3A3E0C0E07404120B4D
:102EA300A1D0E0123B90E0C0E07405120BA1D0E08A
:102EB300F0E514451570097406120BA174B9800767
:102EC3007406120BA17410F07401120BA1AA82AB49
:102ED3008312213E7409026A4DE0851682851783A9
:102EE300A3A3A32212543C8E828F83A3A3A3E0F94E
:102EF3001216D68A0A8B0B2274E81204BF74F312DB
:102F030009DF8A0A8B0B89178C167425120BA11201
:102F13007217AA0CFB120E8AE9F514AA0CAB0D1258
:102F23000E90E9F515E5147003023148751300801E
:102F33000F8E828F83A3A3A3A3A3E0D2E3F0051391
:102F4300E50C240BF582E50D1232DDE513C3984041
:102F53000302313FE514700302313FE51375F006B8
:102F6300A4F8A9F0E50C28F8E50D39F9E8240CFEDE
:102F7300E9126FEBA3A3A3A3E0A2E040C1750E0087
:102F83008E828F83E07043125D75120D828A088BE7
:102F930009A808A909E849603188828983A3A3A302
:102FA300A3E06401600D88828983A3A3A3A3E064E3
:102FB3000370178E828F83A3A3A3A3A3E0D2E7F0AA
:102FC300750E01E5157003022F41750F0075080892
:102FD300750900E5166003750F20124C33E060336A
:102FE3009003BCE064017017E50FD2E3F50F750998
:102FF300108E828F831246FA12450074FF80244399
:103003000F0C75080C8E828F83A31231621269E450
:10301300A38010E5176009E50FD2E6F50F75080ADE
:10302300123179F07402120BA1E50F125A95C0E028
:103033007404120BA1D0E0F07405120BA11243E744
:10304300120BA1E0600302311A7408120BA1123DA6
:10305300878E828F83A3A3A3A3F07408120BA112FC
:103063003642F583E508F0A3E509124A45E060110D
:103073009003BCE0C0E07408120BA112363BD0E011
:10308300F0850C82850D83A3A3A3E0C0E07408122E
:103093000BA1126528D0E0126564C0E07408120B1E
:1030A300A112364DD0E0F07408120BA1123162A3C5
:1030B300A312652F125A7F125D74E82428F582E962
:1030C3001255E6125A8BC0E0E8242EF582E9122944
:1030D300FED0E0F07408120BA1125D76850A82859A
:1030E3000B8312314D2424F582EB124718126832F8
:1030F300E50B1231561209341247E0EA242BF5820C
:10310300EB1229FE124EC512094B851882851983CD
:10311300AA82AB831216288E828F83A3A3A3A3A3B1
:10312300E0D2E0F0740C120BA1E06003022F34E54F
:103133000EA2E0500215151514022F417900AA0CB6
:10314300AB0D1221AA740D026A4DA3A3A3A3125FB0
:1031530095EA22124EB6125A4B75120078102212BB
:103163005F95850A82850B83A3A3A3A3228E828FF7
:1031730083A3A3A3A3A3A31246FFE8F0A3E92274A6
:10318300F21204BF74EB1209DFEAFEEBFF89088E2B
:10319300828F83A3A3A3A3A3A3A3A3E0F9120EB4D3
:1031A3008A0A8B0BEA450B607FE50870047C048078
:1031B300027C088E828F83A3A3A3A3A3A3A3A3E06C
:1031C300F9120EBA1229F8124CE5605C88828983E1
:1031D300125D727406120BA1123230125D767408FE
:1031E300120BA1123230A3A3E0C0E07410120BA1A2
:1031F300D0E0125AA2125D76740E120BA1124CACDF
:103203007411120BA1E41257DBF9780A120938740E
:103213002059FC744059F97402120BA1AA82AB83A2
:103223001221B6740212094B7415023791EAF0A306
:10323300EB12323822124672A3A3A3A3A3A32274D0
:10324300F71204BF74FA1209DFE9FE7F018F087DCC
:103253000080047508000D1243CE1232DDEDC398D1
:103263005025ED75F006A4F8A9F0EA28F8EB39F932
:10327300E812682DE912542E50D9540C60D5E0A2FF
:10328300E250D37F0080CF8A828B83A3A3A3A3A31F
:10329300A3E0703EE508A2E0400574016E70338A36
:1032A300828B83A3A3A3A3A3A374011263E1E0C04E
:1032B300E07403120BA1D0E01263D9E0C0E0740400
:1032C300120BA1D0E0F07405120BA1EF1246C91244
:1032D300213E74060243C6F582EF1257EBF822C073
:1032E30082C08379011221AA02385BC082C083EABB
:1032F3004B60189003B8E064027010900F6FE4F015
:10330300EAFCEBFD7A021233238012900F6F7401F3
:10331300F07A027B00900301E0F912185002385B47
:103323007B00900301E0F91218442274F21204BFE7
:1033330074F31209DFEAFEEBFF8E828F83A3A3A34C
:10334300A3A3A3A3A3A3A3E0F50A900F6FE07005C3
:1033530079BA023636750801750900750C00750DCA
:10336300007C087D007900851882851983AA82ABC9
:10337300831217247405120BA1740112365E5404D0
:1033830060127402120BA1E0D2E612365E5408708A
:1033930003750803E05410600674404508F508E01F
:1033A300540860227402120BA1E044C012365E542A
:1033B30020600A7403120BA1E0D2E08008740312A8
:1033C3000BA1E0D2E1F08E828F83A3A3A3A3A3A3D7
:1033D300A3A3E07018121124851882851983124C57
:1033E300AC7402120BA1E0D2E2F0023495640F70C8
:1033F300157402120BA1E0D2E312509E124C8D45BC
:1034030008F5080234958E828F83A3A3A3A3A3A3F5
:10341300A3A3E064028E828F83700512317A80C980
:10342300A3A3A3A3A3A3A3A3E06403701385188298
:10343300851983AC82AD83EEFAEFFB12216E8052C5
:103443008E828F83A3A3A3A3A3A3A3A3E06401708A
:10345300419003BCE0601C7402120BA1E0D2E312A2
:10346300508C85188285198312471B750910750ABC
:10347300FF80187402120BA1E0440C12655174FD15
:10348300F0A374FFF074044508F5088E828F83124D
:103493007217125428503A7402120BA1E0540C70A4
:1034A3001B8E828F83125D76121B32E9700579BB06
:1034B3000236367402120BA1E0D2E5F01254285002
:1034C300107402120BA1E0540C64047004E0D2E502
:1034D300F0EE24111271FCC0E07404120BA1D0E0D1
:1034E3001243E9120BA1E0600302362F7408120B9A
:1034F300A1123642123654EE24181271FCC0E0E8D1
:1035030012681EE91229FED0E0F0EE24191271FCB4
:10351300C0E07408120BA1E02413123D4FD0E01257
:10352300451E640170119003BCE0C0E07408120BE7
:10353300A112363BD0E0F07408120BA112421924F9
:1035430017FAEF124248FCE8241CF582E91229FE1F
:10355300ECF0A3E4125137E0C0E0E82422F582E95D
:103563001229FED0E0F07408120BA112364DE50AC1
:10357300F07408120BA112422E2424F582E9125D85
:103583003BA3E50D125D99FCA3E0FDE82426F5823B
:10359300E91229FEECF0A3ED123A1B124C63E82466
:1035A30028F582E91229FE125F99C0E0E8242FF57D
:1035B30082E91229FED0E0F0EE241B1271FCC0E078
:1035C3007408120BA1126521D0E0F0EE241A1271D7
:1035D300FCC0E07408120BA1E0242E123D4FD0E092
:1035E300126549125029120934EE2411124C5C74ED
:1035F3000B120BA1124EBF12094BEE24151271FCD4
:103603005440601B900328124CE560138518828593
:103613001983AA82AB839003291237351221FD85C2
:103623001882851983AA82AB83121628740C120B95
:10363300A1E0F9740D023791E02415123D752212B1
:103643004232240FF582E9340022E02423123D752F
:1036530022F583E508F0A3E509F022F0EE24151224
:1036630057E82274F71204BF7E638A828B83E0607B
:103673000C7905120CA4E9F87456C398FE90036400
:10368300E0600CF9120CA4E9F8EEC39824F2FEEE04
:10369300F90243C974F61204BF74FE1209DF8518D8
:1036A30082851983124CACE9FEECFAEDFB740C1223
:1036B3000BA1E0FC9004AE124CE5603285188285C4
:1036C300198385820885830978081209387D01EEFC
:1036D300F99004AE1237321221FD740212094B8B9A
:1036E30009EA450960047900800679B2800279B657
:1036F3000238BC74F71204BFE9FE7409120BA1E08F
:10370300FF90030E124CE5601AEFF50878081209D2
:103713003CEEF990030E1237321221FD74011209A7
:103723004B800279B60243C9EEFAEFFB900320E027
:10373300F8A3123FD322125F959003032274F2126F
:1037430004BF8A088B09ECFEEDFF750A0190036C38
:10375300E065087004A3E065097005124B13802A25
:1037630012112A8A0C8B0DE508650C7004E50965B6
:103773000D7009EEFAEFFB121130800EEEFCEFFD37
:10378300AA08AB09120D1CE9F50AA90A800312095C
:103793004B7F060206D974F51204BFEAFEEBFF8CD9
:1037A300088D09750A01126C8112386B700B900336
:1037B3006C12400112471B800EAC08AD09EEFAEF04
:1037C300FB120D22E9F50AA90A02610D74F612042F
:1037D300BFEAFEEBFF7A0C7B001217BAEA4B606B71
:1037E300EE24201271FC8A828B83F0EE242112389E
:1037F30051F0EE2422123851A3F0EE242312385153
:10380300A3A3124EF8125A68E8F0A3E91257E01284
:103813005A69A3A3E8F0A3E91256068A828B83A30D
:10382300A3A3A3A3A3A3A3F0EE242F1271FCC0E0D0
:103833001243CE1229FED0E0124CB28A828B83A3AC
:10384300A3A3A3A3A3A3A3A312471B0238C1125785
:10385300E88A828B83A322F0D083D0820208FDFA08
:10386300EF3400FB121EB62212450522123875A34F
:10387300E0221238792212387D22124FD4A3A322D8
:10388300124B38A3E02274F61204BFECFEEDFF796D
:10389300B3900363E07020900395E064017018EE29
:1038A30012682DEF126FFFEE240F124715E84960DF
:1038B300047900800279A18005740212094B7F020A
:1038C3000206D974F41204BF74FE1209DFECFEED94
:1038D300FFEE24161271FC64057011EE2406FCEF52
:1038E3003400FD122174E970030239708518828552
:1038F3001983AC82AD83126773123B02124CE560ED
:1039030068E875F009A4F8AAF075F009E9A42AF9A2
:1039130074ED28F874F339F9E8FAE9FBEE2412128E
:1039230029FBC082C0838A828B837808120B44D020
:1039330083D0827808120B24402B85188285198343
:10394300124219240F1229FB1239777808120B44FB
:103953009080AC7808120A488A828B837808120B0D
:10396300627900800A79A2800679A1800279C874FD
:1039730002022ACBE8F0A3E9123B942274F4120466
:10398300BF74FF1209DFEAFEEBFF900363E070757B
:10399300900395E06401706D75083A750900780825
:1039A3001209387402120BA18582088583097808ED
:1039B300120938123A0D12094BE9703EEE126834BF
:1039C300EF12400B124ADBC0E0EE24111229FBD0A8
:1039D300E0123A1B743A1257F0900330120B7EEE4A
:1039E30024121229FB120B8A9080AC7808120B4424
:1039F3009003307808120AE0800BEE240FF582EF73
:103A03001243B7A3F07401022ACB7C017D007A0034
:103A13007B00121304740422F0EE240F124EB3221F
:103A230074F01204BF74F61209DFECFEEDFF7402AA
:103A3300120BA1AC82AD83122174E97003023AFD2B
:103A4300851882851983AC82AD837402120BA1AAF7
:103A530082AB83123B02124CE57003023AFDE87518
:103A6300F009A4F8AAF075F009E9A42AF974E92881
:103A7300F874F339F988088909EE240E123B0C1205
:103A83004ADBF8A3E0F9EE240F124FC5120B7EEECA
:103A930024121229FB120B8A9080AC780C120B446F
:103AA300850882850983780C120AE08508828509D6
:103AB300837808120B449080A8780C120B44780882
:103AC300790C12044FE50C450D450E450F702B85FF
:103AD300188285198312422E75F009A4F8AAF0758D
:103AE300F009E9A42AF974F128F58274F339F5830E
:103AF3007401F07A007B10123B14740A023B9F128C
:103B03001B3885188285198322F582EF124EB6E49D
:103B130022900527E0F91217722274F01204BF8A6B
:103B2300088B09ECFEEDFFEE240FF582EF1243B78D
:103B3300A3123B90C082C0839080C0780C120B44C8
:103B4300D083D082780C120A1F6032123B84700536
:103B530012215C802AE070051221568022640270D3
:103B630013122156E96018EEFCEFFDAA08AB091207
:103B73001B5C800BE0640360DF79A1800279A38082
:103B83001EEE240EF582EF1257EB640122123B94D2
:103B930022F0EE2412F582EF124EBA2212094B7F65
:103BA300080206D974F61204BFEAFEEBFFEE240AFC
:103BB300F508EF1269DF850882124C61EC240F12BD
:103BC30043B4124C7D12212C850882850983124C43
:103BD300E2706B123D537003A3E069600A123D3536
:103BE3007003A3E06970578E828F83A3A3A3A3A35B
:103BF300A3A3A3A3A3124C638E828F83125D7612B9
:103C03001B62E960188E828F83A3A3A3A3A3A3A33C
:103C1300A3A3A3E0240F123D4FE4F0A3F08E828F01
:103C2300831265198E828F83A3A3A3A3A3A3A3A344
:103C3300A3A37005123FFB8004123FD9E4F0124C9A
:103C4300D4701A123F86125D761221508508828540
:103C53000983124CE270061229F874A1F00238C1EC
:103C630074F61204BFEAFEEBFFEE240A123F957AC4
:103C7300187B001217BA850882850983123D8CF8D8
:103C8300A3E0F9E8497003023D2CEEFAEFFB1221A1
:103C930020124CD4607F123D7964017007123D609D
:103CA300740E8034E064027007123D60740D802846
:103CB3008E828F83A3A3A3A3A3A3124CE570EA125E
:103CC3003D537003A3E06960E0123D357003A3E048
:103CD3006960D6123D607405124C8654036401700A
:103CE30007123FB97405800B900364E0C0E0123FF4
:103CF300B9D0E0F0EE240AF508EF123D46123FC7B3
:103D0300123E8CC0E0850882850983E02417123DAA
:103D13004FD0E08019850882850983124374850892
:103D230082850983E4F0A380051229F87410F00258
:103D330038C11211248A088B09A808A90990061C06
:103D4300E068221269DF850882F58322123D75221D
:103D53008E828F83125F9590061CE068228E828F7D
:103D630083A3A3A3A3A3A3A3A3A3A3E02416123D06
:103D73007522123FE4228E828F83A3A3A3A3A3A35E
:103D8300A3A3A3A3123FDDE022EAF0A3EB123D9429
:103D930022124FD4E02274F11204BF8A0A8B0B8CD7
:103DA300088D097A18125EEC7003023E7F8E828FB3
:103DB300837401F0E508240DF8E50912677CC3E478
:103DC3009AFA95E0FB1268391255EAFB8E828F83CB
:103DD300A3A3A3A31257D78E828F83A3A3F0EEFAD4
:103DE300EFFB120C5085088285098312651B70094D
:103DF3008E828F83A374058006900364123E87F03E
:103E0300EE2417F8EF3400F9880C890D8E828F8326
:103E1300123E8B850C82850D83F0EE2416F8EF3469
:103E230000F9E508240EFAE5093400FB888289834A
:103E3300124A27E50824100A0AE5093400FB850C19
:103E430082850D83E0FC88828983E0F88A828B83F4
:103E5300E0C398C39C12512EF0EEFCEFFDAA0AAB0F
:103E63000B122126E9F508700AEEFAEFFB120C5C3F
:103E7300E9F508EEFAEFFB1217C08003750810A9E5
:103E830008026CA4124B3122A3E0F9120CA4E9221C
:103E930079010208FD74F41204BFEAFEEBFF8E827F
:103EA3008F83A3A3A3A3A3A3A3A3125D7A12651B6A
:103EB300706B123D7970668E828F83A3A3A3A3A335
:103EC300A3A3A3E0242B123D4F123FF3704F8E8226
:103ED3008F83A3A3A3A3A3A3A3A3E0242BF8888284
:103EE3008983123FC7E0F8740168600A740668604A
:103EF3000574056870138E828F83A3A3A3A3A3A362
:103F0300A3A3A3A3123FFB80138E828F83A3A3A338
:103F1300A3A3A3A3A3A3A3123FD97403F0123F86C1
:103F2300123732E4F0EE2408F8EF123F82242D1208
:103F33004241C0E0123FADD0E01257DB242A1242C7
:103F430041C0E0123FADA3D0E01257DB240B123D7A
:103F53004F12400112409A1245118A0A8B0BAC0A88
:103F6300AD0B850882850983E02406125442123F73
:103F73009F125D76120C5C1229F8E9F0022ACE1228
:103F8300465522EE240A123F8D22123F958882F570
:103F93008322F8EF3400F98808890922123FA3220B
:103FA300121EB685088285098322850882850983C6
:103FB30012409EA3A3228E828F83A3A3A3A3A3A3B2
:103FC300A3A3A3A3123FCB22E0F8123FD2A322A3C1
:103FD300E0F583888222123FDD22E0240E123FE4C3
:103FE30022123FE822F8A3E03400F9888289832271
:103FF300E0F81248A5640522123FDD740222125F25
:104003009585088285098322124EB6740122023EE9
:1040130093C082C08390031E741AF0A37421F0909E
:104023000320740EF0A37421F09003227408F0A30C
:104033007421F09003247414F0A3742102385A7489
:10404300F41204BFEAFEEBFF1240A7F50812112495
:104053008A0A8B0BA80AA90B8E828F8312409AE0DF
:10406300687003A3E069602CE508A2E550268E8200
:104073008F83A3E0FB90031E1237321221FD8E8241
:104083008F83E0F8A3125200A3124CE5700612408E
:10409300A7C2E5F0022ACE12409E22E0FAA3E0F581
:1040A300838A82228E828F83123FCBA3E02274F510
:1040B3001204BF12420712422E2420F582E9127124
:1040C300FFFE74035EF50A124A111229FE12421909
:1040D30088828983F0A3A882A983E50A6009740210
:1040E300650A6003024178740C5EFF601574086F03
:1040F300601074046F701D7402650A7005EEA2E40B
:10410300402D8A828B83A3A3A3A3A3A3A3A3E02409
:1041130023124269740C6F7010124202242412425B
:1041230051242412421412426C7402650A7005EE83
:10413300A2E4404112420224261242512426124292
:104143001EA312427B12421E12427B1242141242DF
:104153006CEF600F74086F600A740C6F6005740471
:104163006F70128A828B83A3A3A3A3A3A3A3A3E049
:1041730024221242698A828B83A3A3A3A3A3A3A3AA
:10418300A31242377005EEA2E150178A828B83A3F4
:10419300A3A3A3A3A3A3A3E0242E124A181242624B
:1041A300800E900302124262900302E004124672F0
:1041B300A3A882A983EEA2E750421242022421124D
:1041C300421E12426C8C828D83124237602E8A8289
:1041D3008B83A3A3A3A3A3A3A3A3E02430124269C5
:1041E300EEA2E150178A828B83A3A3A3A3A3A3A365
:1041F300A3E0243112424188828983F002610D12C7
:104203004207E022EA2408FCEB3400FD8C828D8314
:1042130022124A1CA322125F95EE2212422222F599
:1042230008A3E03400850882F58322124232221269
:104233005097E822E02421124A1CE0540322FAA3F7
:10424300E0124248223400FB8A828B83E02212422E
:1042530022124262A3A882A9838C828D83E022E08A
:1042630088828983F022124A1C12427022E08882DB
:104273008983F0A308A983221242708C828D83E084
:10428300242822C082C0838A828B831240ABF874B5
:104293000358F98A828B83A3A37401F0E960057440
:1042A30002697061740C58FC601474086C600F74BC
:1042B300046C70137402697005E8A2E4401D8A82DD
:1042C3008B83A3A37402F0740C6C700A8A828B83B1
:1042D300A3A3E02402F07402697005E8A2E4402578
:1042E3008A828B83A3A3E02404F0EC600F74086C30
:1042F300600A740C6C600574046C70098A828B8389
:10430300A3A3E004F0E8A2E750318A828B83A3A33E
:10431300E004125F9DF9A3E0F5838982A3A3A3E0E0
:10432300540360178A828B83A3A3E004F0E8A2E11D
:1043330050098A828B83A3A3E004F08A828B83A330
:10434300A3E00402385AC082C0838A828B83A3A36A
:10435300A3A3A3A3A3A3A3A3124CE560098A828BFF
:1043630083A3A312436C02385BA3A3A3A3A3A3A3B6
:10437300A312543C1217C02274F71204BFEAFEEBD7
:10438300FF125F8D88828983A3A3A3A3A3A3A3A3FF
:10439300E4F0A3123238A3A3A3A3F0A3F0E8125DC1
:1043A3001DE91243B71220F0EEFAEFFB1220FC8056
:1043B30015F582ED124EB6E4F022740C120BA1E057
:1043C300F9740D12094B7F010206D9EA240BF58219
:1043D300EB22126695240922124EB612721B750E39
:1043E30000780C2274011246CD1244872274F51210
:1043F30004BF74F31209DFEAFEEBFF7C087D00794A
:1044030000851882851983AA82AB8312172412317F
:1044130070124A54C0E07404120BA1D0E0F074028D
:10442300120BA1740112451EC0E07405120BA1D03A
:10443300E0124A5A640170097402120BA1E0D2E53A
:10444300F012447D120BA1E0702D8E828F831250E7
:104453003F1209348E828F83A3A3A3A31247EB7465
:104463000B120BA1124EBF12094B851882851983BB
:10447300AA82AB83121628026101851882851983EB
:10448300AA82AB831220AE740C2274F71204BF7499
:10449300FE1209DFECFEEDFF7508C8851882851949
:1044A30083AC82AD8312216EE96401704985188261
:1044B30085198312520D124500A3A3E4F09006322E
:1044C300E0601B8E828F83A3A3123FF370108E8252
:1044D3008F83A3A3A3A3A3A3A3A37401800D8E829D
:1044E3008F83A3A3A3A3A3A3A3A3E4F0EEFAEFFBF9
:1044F3001220DEE9F508A90874020243C6124B052F
:10450300A322121EB0E9640122124FCCE022A3A31E
:10451300A3A3E8F0A3E9F012111E22125613A3E09D
:104523002274F61204BF74F41209DFEAFEEBFF12E1
:10453300317012464BFAA3E0F5838A82A3E0FA7442
:1045430002120BA1EA1257DB2402124AE27404128C
:104553000BA112471BEA600A7402120BA1E0640468
:10456300701C12463F1254427406120BA1124645A8
:10457300124AE27408120BA1E8F0A3E98056E06442
:1045830001600AE064066005E06405702312463F9B
:10459300124241C0E07403120BA1D0E01257DB2496
:1045A300131254427406120BA11257D7241B80C056
:1045B3007406120BA1E4F0A312464B2412125442C8
:1045C3007408120BA1124645126691C0E0740A12D8
:1045D3000BA1D0E0F07406120BA1124CE560287415
:1045E30006120BA1125D76120D10E9640170181208
:1045F300111E8A088B09AC08AD097406120BA112AF
:104603005D7612386B700F851882851983AA82AB89
:10461300831221328021851882851983AA82AB8374
:10462300121B3EE96401700FEEFCEFFD7406120BE2
:10463300A1125D761220D8740C0238BE12465024A3
:104643001222124669241A22F012465022EE240244
:10465300F8EF12465AE0223400F988828983221245
:104663004669F8A3E022EAF0A3EB124672E022F0D7
:104673008882898322C082C08374FC1209DF1246B8
:10468300F112471B8A828B83A3A3E0124AE07402D0
:10469300120BA11246C51216827404800012094B34
:1046A30002385BC082C08374FD1209DF1246D9C091
:1046B300E07402120BA1D0E01246C9120BB47403CA
:1046C30080DBE8F0A3E91246CD22F0851882851934
:1046D30083AA82AB83228A828B83A3A3A3A3A3A3EC
:1046E300124AD28A828B83A3A3123FCBE0228A820F
:1046F3008B83A3A3A3A3A3A31246FF2212470322E0
:10470300E0F8A3E0F985188285198322125F95EEFC
:10471300240BF582EF124EB6124AD522AA82AB833E
:10472300121718740322124AD59003302274F4121C
:1047330004BF74FB1209DFEAFEEBFF8E828F83A3B3
:10474300A312422E2409F508E91269DF7403120B40
:10475300A1AC82AD8388828983A3AA82AB83122111
:104763006EE96401706A8518828519837432124A6E
:104773005424F7C0E07401120BA1D0E0F0740212CC
:104783000BA1E41246C9120DE28A0A8B0BAE0AAFE3
:104793000BEE4F603B7403120BA11247D8A3A31275
:1047A300450CC0E0EE24201229FBD0E0F0750A008E
:1047B3007808120934EE126FE6EF1247E8EE240B85
:1047C3001229FB124EC512094BEEFAEFFB120DDC58
:1047D3007405022ACB125F958E828F8322E50A2409
:1047E30010F582E50B124EB6E0FC7D0022C082C0BC
:1047F3008312481C600E24FE600F24FE601024FB0D
:10480300601180121220D2800D1220CC8008122059
:10481300C680031220C002385B8A828B83A3A3E085
:10482300F81248A524FB22C082C0838A828B83A30B
:10483300A3A3A3A3A3A3A3E070528A828B83A3A3FE
:10484300E0F81248A16401604312489B6402603C93
:1048530012489B6403603512489B6404602E8A826D
:104863008B83A3A3123FF5602312489B640A601C49
:1048730012489B640B601512489B640C600E12482F
:104883009B640D60077904121E9E80099003261213
:1048930037321221FD02385B8A828B83A3A312482D
:1048A300A522123FD2E02274F61204BF74FA120951
:1048B300DFEAFEEBFF7403120BA1EEF0A3EFF0743B
:1048C30003120BA1AA82AB831220E41271F96003D5
:1048D300024A0C8518828519837432F07405120B11
:1048E300A1C082C0838E828F83A3A3A3A3E0D083BE
:1048F300D082F8E028C0E07401120BA1D0E0124A84
:104903005AC0E07402120BA1D0E0124A3FF8A3E0B0
:10491300F9E8496026E82417F582E91229FEC082E6
:10492300C083E82416F582E91271FFD083D082F8A0
:10493300E028F87401120BA1E028F085188285198C
:1049430083AA82AB83120DE28A088B09A808A909FE
:10495300E84970030249FF8E828F83125D76888255
:104963008983A3A3EAF0A3EB124A45A3A3E0C0E023
:10497300E82420F582E91229FED0E0126564C0E044
:10498300E82421F582E91229FED0E0124A54C0E05E
:10499300E8242AF582E91229FED0E0F07405120B0F
:1049A300A1E0FA124A111271FF2A125442E8242B91
:1049B300124CA67405120BA1E0C0E0E8242DF58289
:1049C300E91229FED0E0124A3FFAA3E0FBEA4B606A
:1049D30019E8242BFAE9122AC1A3A3A3A3A3A3A32F
:1049E300A3E02416124A18124A278E828F83A3A3A8
:1049F300A3A3A3A3A3A3E8F0A3E9800CEEFAEFFB20
:104A03001220EA1229F87410F074060238BEE82462
:104A13000BF582E922124A1C22FCA3E03400FD8C30
:104A2300828D8322E0FC8A828B83E02CFCA3E0341A
:104A330000FD8A828B83ECF0A3EDF02212513BA39D
:104A4300E022F0E812681EE9124EB6740112509E7D
:104A530022125132A3E022124AEFE02274F7120429
:104A6300BFEAFEEBFF1271F9701E124A95124CE574
:104A7300600612372B1221FD1271F9700B125D6A59
:104A8300120DDC1229F8E9F0EEFAEFFB1220EA022C
:104A930043C91220F68E828F83A3A3A3A3A3A3A348
:104AA300A3A3A32274F61204BFEAFEEBFF8C088DC6
:104AB30009121B32E9700479018011AC08AD09EECB
:104AC300FAEFFB9003241237321221FD0238C11290
:104AD3004703E8F0A3E9F022126555E0222401F828
:104AE300A3E03400F922124AEFA3E022124AF32290
:104AF300124AF7221250A2A3A3A3A3A322124B0587
:104B0300E022E8F0A3E9124B0D221250A2A3A32244
:104B1300126C85121EB622124C67EEFAEFFB22E0EE
:104B2300242B123FE8E022123875124B3122E08E1B
:104B3300828F83A322124F0CA3A3A3A32274F61282
:104B430004BF74F31209DF124C2F124C8D120BA108
:104B5300740CF07405120BA1740112560E600974E3
:104B630002120BA1742180077402120BA1740112AB
:104B730043E9120BA1E070327408120BA1124BD758
:104B83007406124A54124C4BEE2402F8EF12465AA2
:104B9300124BC21263F2124BC2A3124AE9C0E012D3
:104BA3004BB91229FED0E012655D740C120BA1E023
:104BB300F9740D0238BEE508240BF582E5092212CB
:104BC3004BCDA3A3A3A3A3A3A322E08508828509B6
:104BD30083A3A322124C75880889098882F583224E
:104BE30074F71204BF74F31209DF124C2F124C8DA9
:104BF300120BA17409F07402120BA17421F0740555
:104C0300120BA11243E7120BA1E0701D7408120BE3
:104C1300A1124C6D7407124C86124C4B8518828579
:104C23001983AA82AB831216280243BDEAFEEBFF67
:104C33007C087D007900851882851983AA82AB835D
:104C43001217248E828F8322FCA3E0FD888289833E
:104C5300A3AA82AB83121EB622F582EF3400F5833A
:104C6300124C6722E0FCA3E0FD22124C7588828976
:104C73008322124B22F8A3E0F92212509D12543CD6
:104C830022740112509EA3A3E022124AD27404227A
:104C9300121724850882850983A322E0F508A3E07F
:104CA300F50922F582E9124EB6EAF0A3EBF02212DF
:104CB3004CB622124B0D12509722C082C083124C65
:104CC300CD74BAF0A3742002385A1221029003263D
:104CD300228E828F83A3A3A3A3A3A3A3A3A3A3121D
:104CE30057F5124232492274F71204BFE9FE124DFE
:104CF300171229FE124CE5601888828983A3E054B9
:104D030003700EEEFB124A111229FE124D48124D8A
:104D1300420243C9EA125D1DEB22C082C083EAF856
:104D2300EBF988828983A3A3A3A3A3E0FB888289E9
:104D330083A3A3A3A3124D48A3124D4202385BE001
:104D4300F912164C22E0FA88828983A3A32274E81D
:104D53001204BF8A088B098C168D178914741A12D2
:104D63000BA1E0F50AA3E0F50B741C120BA1E0F50F
:104D730013741D120BA1780C120B441263A2EB12D5
:104D830071FF242DFA7B001217368A108B11AE1097
:104D9300AF11EE4F7003024E938E828F837401F036
:104DA30085081085091175120078101209347C15D5
:104DB3007D00EE2418124E9D12094B85161085179F
:104DC3001178101209347C097D00EE2402124E9DE5
:104DD30012094B7418120BA112470F850A82850B17
:104DE30083E0C0E0EE240F1229FBD0E0124ED3C0C3
:104DF300E0EE24111229FBD0E0124ECEC0E0EE24E7
:104E0300101229FBD0E0123B90E513124EF8E4F0A8
:104E1300A3F0124EAC780C120B62EE24171229FB8E
:104E2300E514123883F8A3E0F9EE240D1229FB12DE
:104E33004EF2126A011271FF6025EE2426125420ED
:104E4300242DF8124EEA12683B1243DB1209341286
:104E530069FF1247E88A828B83124EC512094BEE13
:104E630024191271FC5403601D90031C124CE5605D
:104E73000CEEFAEFFB1237351221FD8013EEFAEF39
:104E8300FB12173C800AEEFAEFFB900301125086E7
:104E9300026A507C087D00EE2404FAEF124EA3222E
:104EA3003400FB121718740322EE2413124EB3229C
:104EB300F582EF124EBA223400F58322E0242B123E
:104EC3003D7512543C121718740322124EE1E0226E
:104ED300124ED8E022124EDC22124EE1A322F085BC
:104EE3000A82850B83A322EF3400F98A828B831213
:104EF3004AD5E50822F0EE2426124EB322F50CA380
:104F0300E0F50D750E00780C2212387DA3A3A322C1
:104F130074F11204BF8A088B097A20125019606F4A
:104F23008E828F8374061250358E828F83A3A3A340
:104F3300A312386F8E828F83124F9F124F00120974
:104F4300347C107D00EE2406124E9D12094B850819
:104F530082850983A3A3A3124F952416FAEF340085
:104F6300FB120D0A850882850983A3A3A3A3A3A328
:104F7300A3A3A3A3E0C0E0EE241E1229FBD0E012FA
:104F83004FAFC0E0EE241F1229FBD0E0124FB7024F
:104F93006CA4A3A3A3A3A3124C67EE22A3A3A3A36E
:104FA300A3124FA822123879A3A3E022F0124BB91F
:104FB3001257EB22F0EEFAEFFB900527E0F91217F8
:104FC3004222124EB3124FCC22E8F0A3E9124FD47F
:104FD30022F085088285098322124FE022123D9434
:104FE300F8A3E0F98E828F83A3A32274F41204BF83
:104FF3008A088B097A0C12501960188E828F837479
:1050030008125035125029120934124E9612094BC8
:1050130012507F022ACE7B001217368A0A8B0BAE00
:105023000AAF0BEE4F22F508A3E0F509750A0078E5
:105033000822124FE0124FCCA3A3E022A3A3124CE9
:105043009E750A0078082274F61204BFEAFEEBFF8D
:105053007A057B00121736EA4B601E8A828B8374B3
:105063000A12508C8A828B83A3A3124B008A828BF1
:1050730083A3A3A3A3F01250830238C1EEFAEFFB7C
:10508300900527E0F912174222125090221250A2E3
:1050930012509722E0F8A3E0F922A31250A222F0C3
:1050A3008E828F8322C082C083E9900F71F09003B8
:1050B3001874D2F0A3740BF090031A74E4F0A37481
:1050C3000BF090031C74F6F0A3740B02385A74F7B8
:1050D3001204BFEAFEEBFF8908EE4F7003121BC2F6
:1050E30090032A124CE5700890032A8022125F91E4
:1050F30088828983A3A3A3A3A3A3A3A3A312512851
:1051030088828983A3A3A3A3A3A3A3A3A370DEEE8F
:10511300F0A3EF125137E4F0A312512EA3A3A3E59A
:1051230008F00243C912543CEA4B221251322212B4
:105133004B0DA32212513B22125617A3A32274F73D
:105143001204BF90032A800D8E828F83A3A3A3A38F
:10515300A3A3A3A3A31266C9EE4F60348E828F83E9
:10516300A3A3A3A3A3A3A3E06970DD8E828F83A36C
:10517300A3A3A3E06A7003A3E06B70CC8E828F833A
:10518300A3A3A3A3A3A3E06C70BEEEFAEFFB80047A
:105193007A007B000243C974F71204BF90032A12FA
:1051A30066C990032A123151687002EB69701712B5
:1051B3005200125F9190032A12471B90032A126632
:1051C300C980301266BCEE4F60298E828F83A3A301
:1051D300A3A3A312314D687002EB6970E68A828B38
:1051E30083A3A3A3A3A3A3A3A3A312520DA3A3A324
:1051F30012471B1217C0EEFAEFFB0243C9123FD34B
:10520300A3A3A3A3A3A3A3A3A322125457A3A32299
:1052130074F01204BF74FA1209DF8A088B098A82B8
:105223008B83A3A3A3A3A3A3A3A3E0600D64016043
:10523300098A828B831254346005790202541B85D8
:105243000882850983A3A3A3A3A3A3A3A3E0640361
:1052530070157404120BA1AC82AD83AA08AB0912BA
:10526300216EE9701380D3850882850983125F91CB
:105273007404120BA112471B1268231271FF24320C
:105283001254421217BA8A0A8B0BAE0AAF0BEE4FB7
:1052930070030254197C327D0079001217247402C2
:1052A300120BA1AA82AB83850882850983A3A3A3DA
:1052B300A3A3A3A3A3A3E0F912168E7402120BA156
:1052C300E0C0E0EE242D1229FBD0E0F0EE242CF513
:1052D3000AEF3400F50B7403120BA1E0850A8285F3
:1052E3000B83F07901EEFAEFFB120BC085080C85F6
:1052F300090D750E00780C1209347C1C7D00EE2418
:105303000B124E9D12094BEE243012542024320806
:1053130008124EEA2411F8E5091271F4FCE9FD8C38
:10532300828D83124219242E1229FB124EF2125738
:10533300B9126A081209348C828D83124C638A82F3
:105343008B83124EC512094B7404120BA1125453D2
:1053530012471B900302125449F0900302E0041217
:1053630057FC242A125D2A750D00850A82850B835A
:10537300E0780C120A818A828B83E50CF0EE2429F3
:105383001229FBE50C126551E4F0E5082415F582BA
:10539300E50912542E74015007120BA17401800405
:1053A300120BA1E4F0EE2427123F9585188285198C
:1053B30083AA82AB83121676E924FE8508828509C7
:1053C30083F0F508750900EE242E124C5CECF8ED21
:1053D300F9AA08AB091202EFE88E828F83A3A3A375
:1053E300A3A3A3A3A3F0ECF8EDF9AA08AB09120257
:1053F300EF8B09EA4509600F8E828F83A3A3A3A3D2
:10540300A3A3A3A3E004F0EE24201271FC4408122A
:105413005DA17900800279107406023B9F1271F23C
:10542300FAE9FBEE22EE2415F582EF1257EBA2E028
:105433002212543C1211C0E922E0FAA3E0FB22FA43
:10544300A3E03400FB22124B31A3A3A3A3A3A32203
:10545300125457221250978E828F83A3A3A3A322A1
:1054630074F41204BFEAFEEBFF125D22124CAC90FF
:105473000FBEE0F8EE242B1271FCC39840030255D3
:10548300D8125D427015EE242B1271FC04125606DD
:10549300C0E0EE24291229FBD0E0F0EE242812719B
:1054A300FCFC7900800109EE242C1232DAE9C3985E
:1054B3005026750801750900E97808120A81125D02
:1054C30042550860E1E92CFC750801750900E9788B
:1054D30008120A81E04508F0EE24271255F3EE2462
:1054E3002E1229FBEC8A088AF0A4F8ABF0E42BF91E
:1054F300E098F8A3E099F9C3E89508E99400EE4031
:105503003924271232DA125D426037EE242D122934
:10551300FB125600A3E4F0EC7054EE24201271FC4D
:10552300442012451EC0E0EE24261229FBD0E0F0F1
:10553300EE24301255F3A3E0805924291229FB7479
:10554300FFF090035CE0FA900FC1E0F508EA8508EC
:10555300F0A4ABF075F064A4FAADF075F064EBA4BD
:105563002DFB8E828F83A3A3EAF0A3EB80A8EE2406
:10557300201271FC54DF124EF8ECF08C08EE242755
:105583001271FC8508F0A4FAABF0EE2430F582EF3B
:105593001255EAFBEE241EF582EF1255E612560E63
:1055A300C0E0EE24251229FBD0E0F0EE241C1229E2
:1055B300FBE81257F090032C124CE5600BECF91248
:1055C30037351221FDE97018EE240BFAEF3400FB96
:1055D300122198800B7BE9EE2422F582EF1257C348
:1055E300022ACE12653C221257EB2AFAA3E03B2291
:1055F3001255F722F582EF124EBAE0FA22124B311E
:10560300A3F022F0EE242A1257E822125613E022C6
:1056130012561722124AF7A3A32274F41204BF905E
:10562300032A1266C91218628A0A8B0B7CFF7DFF5C
:105633008020E0C398FAA3E099FBC3EA9CEB9D505A
:105643000E8E828F83A3A3E0C398FCA3E099FD127F
:1056530066BCEE4F6059125F8DE50AC398F8E50BFF
:1056630099F98E828F83125D74C3E89AE99B8E82C7
:105673008F83A3A340BCA3A3A3A3E06402701DEE86
:10568300240B125D45600CEE24101229FB125D768B
:1056930012173CEEFAEFFB120BCC8007EEFAEFFB8E
:1056A300120BD87A017B00900F71123B1780147490
:1056B300FF6C700374FF6D600A7A017B00900F71B9
:1056C300123328022ACE74F01204BF8A088B09EC25
:1056D300FAEDFB890A7C01126823125D348A0C8B74
:1056E3000DAE0CAF0DEE4F70030257B6E50A600323
:1056F3000257B6E5081257B9E0F8EE24281271FCF8
:105703006860030257B6EE242C1255F3E82AF8E436
:105713003400F98E828F83A3A3A3A3A3A3A3A3E03F
:10572300FAE89AE99400C365D0334014125A53122D
:105733005D48700C7B0012681CE5091257C3807327
:10574300125A53125D487031EE242C1271FCF9EE9B
:1057530024291229FB7508FF750900E97808120A44
:1057630081E508F0EE242A1229FBE5081257E02907
:10577300F0EE242B123B0C8022E5082414F8E509F3
:105783003400F9E0C0E0EE242A1229FBD0E01257DE
:10579300DBC0E0EE24291229FBD0E01257FC242DB4
:1057A3001229FB123E87A31257F07A01FB900F7167
:1057B300123B17023BA22413F582E509124EB622CF
:1057C3001255FAEE2414124EB3124D42EEFAEFFBC9
:1057D300120BCC22EAF0A3EB124672E022F0EE2485
:1057E300281257E822F582EF124EBAE022F0A3E422
:1057F300F022E0240F123FE422F01218628E828F0F
:1058030083EAF0A3EBF0EE2274E81204BF74FD12F6
:1058130009DFE9851882851983F08A0A8B0B8C16B8
:105823008D17741B120BA1125A4B741D120BA17806
:105833000C120B448A828B83A3A3E0F912166A8AA3
:10584300128B13EA451370077A007B00025A467ADB
:10585300127B001217BA8A088B09AE08AF09EE4F04
:105863007003025A427C127D0079001217247401DE
:10587300120BA1AA82AB83850A82850B83A3A3E0C3
:10588300F912168EEE240FF508EF1269DF74021277
:105893000BA1E0850882850983F07902EEFAEFFB1C
:1058A300120BC0851682851783125453E8F0A3E9BF
:1058B300125A8B8E828F83A3A3A3A3A3A3A3F075F2
:1058C30014FF751500850882850983E07814120A90
:1058D300811229F8E514F0851282851383A3E0F879
:1058E3001248A1C0E0EE240B1229FBD0E0125A9516
:1058F300F508EE240D1229FBE508F0125D4DE08555
:1059030008F0A42424FAE5F03400FB1217368A08C1
:105913008B09EE1263A3EF124CA9EA450970030247
:105923005A378A828B83741A1257F08A828B83A325
:10593300A3F0A3125A7F125A6812471BAC16AD1775
:10594300EA2406FAEB3400FB121688850A82850BDB
:1059530083A3A3A3E0C0E0E508240FF582E50912C1
:1059630029FED0E0F0900379125F91E5082410122C
:105973005A5C125AA2A3125F91E5082412125A5CD0
:10598300124ED3C0E0125A531229FED0E0F0E50ABA
:10599300125D1DE50B1271FFC0E0E5082415F582C9
:1059A300E5091229FED0E0125A76C0E0E508241674
:1059B300F582E5091229FED0E012760BE0C0E0E59E
:1059C300082417F582E5091229FED0E012760BA30D
:1059D300E0C0E0E5082418F582E5091229FED0E0CD
:1059E300124ADBC0E0E5082419F582E5091229FE15
:1059F300D0E0F0E508241AF582E5091229FE780CB7
:105A0300120B62E5082424F8E5093400F9E50824BB
:105A130022F582E509124718E50A12681EE50B1202
:105A230071FFC0E0E508241FF582E5091229FED0C5
:105A3300E0F0800BEEFAEFFB120BCC7E007F00EE62
:105A4300FAEFFB7403026A4DE0F510A3E0F51122AF
:105A5300E5082414F582E50922F582E509124EB61C
:105A6300E8F0A3E922E0F8A3E0F98A828B83A3A3F9
:105A7300A3A322F0851082851183E022125A832288
:105A8300124EDCA3A3A3A322F012682BE50B12573B
:105A9300EB22F0E50A2410F582E50B1257EB2212F4
:105AA3005A83A3A3A32274E81204BF8A0A8B0B8C24
:105AB300108D1189147418120BA1E0F516A3E0F5EB
:105AC30017741A120BA1780C120B44750900EA24FF
:105AD30013F582EB1271FFF50890032C124CE5606D
:105AE30011A90890032C1237321221FDE960030239
:105AF3005D1A7C02851082851183125D7612682BF4
:105B0300E50B125D348A128B13AE12AF13EE4F7096
:105B13004B850A82850B83A3E0A2E04003025D1A52
:105B2300780C1209307816120938A914AC10AD118B
:105B3300AA0AAB0B120BEA740612094B8A0C8B0DE3
