:020000040000FA
:06000000020A5302023067
:03002B0002089E2A
:0300530002015651
:03006B0002053952
:100083000201BD0101FF0503010F9D109D109D108D
:100093009D10590F530F9D106A1E00000000CC1EC7
:1000A300000000000C0000000C0001FFFF01010133
:1000B30000E1040000005505B8010202000000023F
:1000C30005020701051E02051E020A0A03B80B02F8
:1000D300803E010201FFFF020A011401E09651185C
:1000E3000002020612FFEF7A0A440B0008451A4B7E
:1000F3001A511A571A000000000000000000000007
:100103000000000000000000000000451A4B1A51D7
:100113001A5D1A000000000000000000000000004B
:1001230000000000000000000010202020202020FC
:100133002020202020202020202001100401000165
:100143000005758001C2801104010001000575805E
:1001530001C280C0E074F11203D8A2AFE433FED22F
:10016300AFE5A7FFE5A1F5085FF509741055096030
:10017300061216A975A1EF7408550960081216AF87
:1001830075A1F7802BEFA2E0C0D0E508A2E092F0C2
:100193001209D9158182F05017906198E0F8900503
:1001A300FDE0C398A2D265D0335002E8F075A1FEFA
:1001B300EEA2E092AF7F02020437C0E074F21203B2
:1001C300D8A2AFE433FED2AF9061A4E0F8759B00F0
:1001D300E59158540860087591F71216F1802AE5E5
:1001E3009158541060087591EF1216F7801BE8A21E
:1001F300E0C0D0E591A2E092F01209D9158182F016
:100203005007E0C2E0F012183B9061A3E0F8E5E983
:10021300585404600E12181175E9FB906193E0A223
:10022300E640F2EEA2E092AF7F01020437C0E07431
:10023300F21203D8A2AFE433FED2AF9061A5E0F887
:10024300E5BF585404600675BFFB12184D80D4C334
:10025300E498F8E499F91202938026C3E49AFAE445
:100263009BFBE920E7E9120293E498F8E499F92269
:10027300C3E498F8E499F9120293E498F8E499F93D
:10028300C3E49AFAE49BFB22EB20E7CFE920E7E003
:10029300B90010BB0008E88AF084F8AAF022E4FB56
:1002A300C8FA22EB70227B10C833C8C933C9335054
:1002B30007C39AC3DBF280069A50012ADBEAC833EC
:1002C300F4C8C933F4C9FA2275F008E4C833C8C9BD
:1002D30033C933C99AC99B5004C92AC93BD5F0EC29
:1002E300FBC833F4C8E4C9FA22080808EAC0E0EB03
:1002F300C0E086F0E7A4FA180986F0E7A42AFA1802
:100303000986F0E7A42AFA180986F0E7A42AFA195D
:1003130086F0E7A4FBE5F02AFA190886F0E7A42B98
:10032300FBE5F03AFA190886F0E7A42BFBE5F03A6F
:10033300FA18180986F0E7A4C5F02BFBE43AFA197A
:1003430008E7C5F0C6A426F6E5F03BFBE43AFA1845
:1003530086F0E7A4F6E5F00826F6E43B08F6E43A6F
:1003630008F6D0E0FBD0E0FA222518C582C0E0E50C
:100373001934FFC583C0E0E518C3958224F810AF94
:10038300088583198582188008858319858218D288
:10039300AFCEF0A3E520F0A37808E608F0A3DEFAD9
:1003A300EFF0A3E58124FAF8E608F0A3E608F0A34A
:1003B300E608F0A30808E608F0A3E608F0A3158111
:1003C3001581D0E0FED0E0F8158115811581E8C0D4
:1003D300E0EEC0E022C0D02518C582C0E0E51934A4
:1003E300FFC583C0E0E518C3958224F310AF0885E9
:1003F30083198582188008858319858218D2AFC82E
:10040300F0A3E9F0A3EAF0A3EBF0A37908E709F07E
:10041300A3D8FAECF0A3EDF0A3EEF0A3EFF0A3D092
:10042300E0F0A3D0E0F0A3D0E0F0A3E520F0A3E553
:10043300F0F0A322851983851882E0C0E0A3E0F9D8
:10044300A3E0FAA3E0FBA37808E0F608A3DFFAE051
:10045300FCA3E0FDA3E0FEA3E0FFA3E0C0E0A3E074
:10046300C0E0A3E0F5D0A3E0F520A3E0A3F5F010EE
:10047300AF088583198582188008858319858218BA
:10048300D2AFD082D083D0E0F8D0E032120AB5B92F
:1004930000030204D1E4900301788C79088002F010
:1004A300A3D8FCD9FA900A8CAA82AB8390008678F1
:1004B300D179018015E493A3AC82AD838A828B83C7
:1004C300F0A3AA82AB838C828D83D8E9D9E77582A6
:1004D3002E75838E740312081675820D75831C7432
:1004E300001208160A75F0108E1A8F1B85821F855D
:1004F300831E851882851983E0CEA3E0CF851F82F2
:10050300851E83EBC9EAC8EDCBECCAC3E833C8E95F
:1005130033C9EA33CAEB33CBC3EA9EF51DEB9FF530
:100523001CB35004AB1CAA1DEC33CCED33CDD5F07A
:10053300DAAE1AAF1B22C0E074F21203D8A2AFE402
:1005430033FED2AF900A78E4F0E589A2E050065377
:10055300ABFE7401F0E589A2E1500753ABFDE0D295
:10056300E1F0E06013900A79E4F07C14FD7A10FB6B
:10057300900A7AE0F912135BC2C5758900EEA2E016
:1005830092AF7F01020437D083D082ECC0E0EDC08C
:10059300E0E493A3FCE493A3FDED4C600D1206622B
:1005A300EC24FFFCED34FFFD80EFE493A3FCE49324
:1005B300A3FDED4C600D1206FFEC24FFFCED34FFB0
:1005C300FD80EFD0E0FDD0E0FCE493A3C0E0E49332
:1005D300C0E022D083D082E9C0E0E493A3C386F0D5
:1005E300C5F095F0F908E493A386F0C5F095F07093
:1005F3000BE493A3C3994005E9048002A3E475F0D7
:1006030002A42582F582E5F03583F583D0E0F9E491
:1006130093A3C0E0E493C0E022851983851882E0A8
:10062300A3FEE0A3F5207808E0A3F608DFFAE0A331
:10063300FFE0A3C0E0E0A3C0E0E0A3C0E0E0A3C00C
:10064300E0E0A3C0E010AF08858218858319800815
:10065300858218858319D2AFD083D08202081CC04B
:10066300E0C3E49396087401939618400FE49366ED
:10067300700808740193661870007019A3A3C3E48B
:100683009396087401939618A3A3400DD0E0D0E08D
:10069300D0E00205C6A3A3A3A3A3A3D0E0227404BE
:1006A300800474028000CCC0E0EDC0E0E518C39C78
:1006B300CCAD1950011D10AF068C188D1980068C16
:1006C300188D19D2AF120798D0E0FDD0E0FC227448
:1006D300028000CCC0E0EDC0E0E518C39CCCAD19AE
:1006E30050011D10AF068C188D1980068C188D19BA
:1006F300D2AF120776D0E0FDD0E0FC22C0E0C0F01C
:1007030088F0E4936670080874019366187000A873
:10071300F0A3A3700BD0F0D0E0D0E0D0E00205C688
:10072300A3A3D0F0D0E022D083D082CCC0E0E49366
:10073300A360061207B91470FAE493A360061208C3
:10074300E81470FAD0E0FCE493A3C0E0E493C0E0C3
:1007530022A2E792D65002F40430F70663F0FF05B5
:10076300F0B3400384800384F40430D60563F0FFC0
:1007730005F022CAC0E0E493A3C582CCC582C58339
:10078300CDC583F0A3C582CCC582C583CDC583DA2D
:10079300E5D0E0CA22CAC0E0E0A3C582CCC582C5C9
:1007A30083CDC583F0A3C582CCC582C583CDC58364
:1007B300DAE6D0E0CA22C0E0E493A3D39C5010E46D
:1007C30093A3C39C400AD0E0D0E0D0E0020747A344
:1007D300A3A3D0E02270090808082260161818188D
:1007E300C6C333C608C633C608C633C608C633C62F
:1007F300D5E0EA22C008C3E096F50808A3E09642D4
:100803000808A3E096420808A3E09645087001D3C0
:10081300D00822C09FF59FE473D09F22D083D0825B
:10082300C09FE493C0E0740193C0E0740293F59F0A
:10083300222518F58210AF08F51840021519800813
:10084300F51840021519D2AF851983227404800A62
:1008530074038006740280027401C0E0F404120879
:1008630034D0E0120A9022C0D0251810AF08F51832
:10087300500205198008F51850020519D2AFD0D0DF
:1008830022BB0102E722C082C08389828A83BB0024
:1008930003E08002E493D083D08222C0E0C0D0E89A
:1008A300C0E0E5A8D2AFC2C7A2E792AFD0E0F8D0CC
:1008B300D0D0E0326016080808C6C313C618C613A2
:1008C300C618C613C618C613C6D5E0EA22C3E0C6C7
:1008D30096F608A3E0C696F608A3E0C696F608A324
:1008E300E0C696F622C0E0E493A36C7009D0E0D092
:1008F300E0D0E0020747A3A3D0E022251810AF08F9
:10090300F518400215198008F51840021519D2AFE1
:1009130022E76670100809E766700A0809E766703F
:10092300040809E76622E066701008A3E066700A0F
:1009330008A3E066700408A3E06622C3E09608A358
:10094300E09608A3E09608A3E096A2D265D03322EE
:10095300C3E096F008A3E096F008A3E096F008A39E
:10096300E096F022E657F60809E657F60809E65737
:10097300F60809E657F622E056F608A3E056F6080D
:10098300A3E056F608A3E056F622E026F608A3E015
:1009930036F608A3E036F608A3E036F622E026F0A2
:1009A30008A3E036F008A3E036F008A3E036F0220F
:1009B300E647F60809E647F60809E647F60809E6B2
:1009C30047F622700422600D18C6C333C608C63327
:1009D300C6D5E0F41822C0E0E8C0E0E58124FCF8C5
:1009E300E6A2E7D0E0F8D0E022E627F60809E637EA
:1009F300F60809E637F60809E637F622E056F00866
:100A0300A3E056F008A3E056F008A3E056F022E472
:100A1300C396F608E496F608E496F608E496F622FA
:100A2300C6F4C608C6F4C608C6F4C608C6F4C62289
:100A3300C3E09608A3E09608A3E09608A3E09622F5
:100A4300C3E7960809E7960809E7960809E7962297
:100A530075D0007581407518017519030002048F64
:100A6300E0F608A3E0F608A3E0F608A3E0F62260A8
:100A73000C08C6C313C618C613C6D5E0F422E6F0A5
:100A830008A3E6F008A3E6F008A3E6F022CAC0E054
:100A9300E6F0A308DAFAD0E0FA22E0FAA3E0FBA337
:100AA300E0FCA3E0FD22EAF0A3EBF0A3ECF0A3ED5E
:100AB300F022E5C754F84401F5C77901222518F55A
:100AC30082E43519F58322C2AF75D69F0200002256
:100AD30012081F2BAB0112081F7FAB0112081F9BCB
:100AE300AB0112081FCFAB0112081F04AC0112089F
:100AF3001FFBAC0112081FB0AD0112081FFFAF01AD
:100B030012081F52B10112081FF5B10112081FE6A6
:100B1300B20112081F87B30112081FA5B3011208FF
:100B23001F295D0012081F5E5D0012081F845D000F
:100B330012081FBE5D0012081FD05D0012081F229D
:100B43005E0012081F835E0012081F0D5F0012086B
:100B53001FB15F0012081FF95F0012081F33600006
:100B630012081F50600012081F75600012081FC78B
:100B7300600012081FE0600012081F0661001208DF
:100B83001F41610012081F85610012081FAC61003C
:100B930012081FFD610012081FAD620012081F65D5
:100BA300630012081F2D640012081F0A6500120853
:100BB3001F90650012081F9F650012081FAA650099
:100BC30012081FB3660012081FC4660012081F3AFA
:100BD300670012081FCC670012081F246800120860
:100BE3001FEA680012081F1B690012081F606900D2
:100BF30012081F6D690012081F016B0012081F669F
:100C03006C0012081FA26C0012081FBE6D001208B0
:100C13001F28700012081F33700012081F3D700058
:100C230012081F48700012081F52700012081F5C40
:100C3300700012081F67700012081F7270001208FC
:100C43001FA3700012081FC7700012081FEB70006B
:100C530012081F50710012081F94710012081FB070
:100C6300710012081F27720012081F5F720012081A
:100C73001FAB720012081F08730012081FEA7400EA
:100C830012081F70750012081F49760012081F59B9
:100C9300790012081FAE790012081FDB79001208D1
:100CA3001F277B0012081F777B0012081FCC7B00D5
:100CB30012081FCD7C0012081F657D0012081FE774
:100CC3007D0012081F877E0012081F6E2100120884
:100CD3001FA7210012081F81230012081FC0230031
:100CE30012081F0A240012081FAF240012081F0E47
:100CF300250012081F42250012081FAF2500120805
:100D03001FCC260012081FD4270012081F6A2800D0
:100D130012081FB12B0012081F5A2C0012081F368D
:100D23002D0012081F972D0012081FB42E00120861
:100D33001FDE300012081F95310012081F9F31007B
:100D430012081FCD310012081FA4320012081F6BB6
:100D5300330012081F06340012081F6B34001208F8
:100D63001F94340012081FB6340012081FE5360022
:100D730012081FBC370012081F00380012081F6D2D
:100D8300380012081F28390012081F5A39001208A8
:100D93001F9E390012081FD4390012081F293A0078
:100DA30012081F7E3A0012081F123B0012081F741C
:100DB3003B0012081FDC3B0012081F853D00120890
:100DC3001F6D3E0012081FAF3F0012081FDD4100D8
:100DD30012081F9D420012081FD2440012081F75FB
:100DE300450012081FB3450012081F5F4700120891
:100DF3001F73470012081F7D470012081FA74700F3
:100E030012081FB3470012081FD2470012081F8998
:100E1300480012081FC8480012081FD248001208D1
:100E23001FDC480012081F27490012081F8A4900C7
:100E330012081F914A0012081FF14A0012081FA14D
:100E43004B0012081FA04C0012081F994D001208F6
:100E53001F364E0012081FD84E0012081FEF4E0017
:100E630012081F264F0012081F444F0012081F8844
:100E73004F0012081FAD4F0012081F9350001208B5
:100E83001FFF500012081F79510012081F885200DB
:100E930012081FC7530012081FA5540012081F078A
:100EA300550012081FC1550012081FE4550012080F
:100EB3001FB8560012081F03570012081F4557009A
:100EC30012081F9C570012081FE1570012081F0F3A
:100ED300580012081F48580012081F6D58001208C6
:100EE3001FF5580012081F185B0012081F775B00DC
:100EF30012081F0B5C0012081F775C0012081FC248
:100F03005C0012081FEF5C0012081F28B8031208C8
:100F13001F67B80312081F14810212081F6E810293
:100F230012081FCA810212081F16820212081F31FB
:100F3300820212081F62820212081F7F82021208B5
:100F43001F8B820212081FFF830212081F188402DC
:100F530012081F7F840212081F92840212081FA026
:100F6300840212081F54850212081F3886021208D1
:100F73001F3E870212081FC4870212081FCE870272
:100F830012081F3B880212081F52880212081F848E
:100F9300880212081FBD880212081FE78802120880
:100FA3001F48890212081F68890212081F868902D6
:100FB30012081FCC890212081FF28A0212081F3F6F
:100FC3008B0212081F6E8B0212081FE48B02120899
:100FD3001F0C8C0212081F458C0212081F538C022F
:100FE30012081FAB8C0212081FFA8C0212081F3959
:100FF3008D0212081F698D0212081F958D021208B7
:101003001FA08D0212081FBE8D0212081F808E02C0
:1010130012081F8A8E0212081FC58E0212081FDBD8
:101023008E0212081FE48E0212081F398F02120863
:101033001F4D8F0212081F5B900212081F6E900251
:1010430012081F83900212081F25910212081FA87D
:10105300910212081F66920212081F71920212086F
:101063001F97930212081FB3930212081F059402DD
:1010730012081F44940212081F59940212081F9B5E
:10108300940212081FE8960212081F6697021208BC
:101093001FD9970212081FFB990212081F139A0205
:1010A30012081F169A0212081F229A0212081F36EC
:1010B3009A0212081F3E9A0212081F719A0212081E
:1010C3001F219B0212081F979B0212081F0A9C02F2
:1010D30012081FBE9C0212081F739D0212081F9262
:1010E3009D0212081F329E0212081F3E9E02120822
:1010F3001F699E0212081F6C9E0212081FD69E02D1
:1011030012081FFE9F0212081FD6A00212081F61B9
:10111300A10212081F7AA20212081F37A3021208A3
:101123001F70A30212081FA1A30212081F41A402E9
:1011330012081F71A40212081F4CA50212081FE512
:10114300A50212081F70A60212081F21A702120887
:101153001FA3A70212081FD5A70212081F16A80271
:1011630012081FDDF40112081F42F50112081F7F48
:10117300F50112081FCEF50112081FB8F701120876
:101183001F9FF90112081FD8FC0112081FFEFC0162
:1011930012081F16FD0112081F7FFD0112081FBB55
:1011A300FD0112081FE8FD0112081F1AFE011208B3
:1011B3001F78FE0112081FA6D40212081F24D502AD
:1011C30012081F56D50212081FAED50212081F2897
:1011D300D70212081F44D70212081F7FD702120832
:1011E3001F06D80212081F56D80212081F23D9025D
:1011F30012081F27DA0212081F7BDA0212081FF6F1
:10120300DA0212081F57DB0212081F98DB021208CA
:101213001F43DC0212081F61DD0212081F97DD0263
:1012230012081FE2DD0212081F29DE0212081FB393
:10123300DE0212081F58DF0212081FC5F00212084F
:101243001F0BF10212081F75F10212081F96F1021B
:1012530012081F36F20212081F40F20212081F8DF5
:10126300F20212081FB2F20212081F12F30212084E
:101273001FA8F30212081FE0F30212081F39F40239
:1012830012081F95F40212081F1DF50212081F62AF
:10129300F50212081FA1F50212081FE6F502120853
:1012A3001FF8F50212081F0AF60212081F29F60298
:1012B30012081F32F60212081FDEF60212081F1E62
:1012C300F70212081F1B9E0112081F26A50312080E
:1012D3001F5CA50312081FA5A50312081FF2A6038E
:1012E30012081F67DD0112081FE0DE0112081FA1AB
:1012F300E00112081FDDE00112081F64E401120877
:101303001FAAE40112081FBFE60112081F91E7019B
:1013130012081F3DE80112081FE8E90112081FE344
:10132300AA0112081F4EEF0112081F5CEF011208F9
:101333001F37F00112081F4AF40112081FD8B70320
:1013430012081FE87F0012081F24990312081F3791
:10135300990312081FD5990312081F179A0312083D
:101363001F3C9A0312081F819A0312081FBA9A039B
:1013730012081FEB9A0312081F5E9C0312081F3A00
:101383007F0012081F707F0012081F8C7F00120855
:101393001FCE7F0012081FDE7F0012081F32B90222
:1013A30012081F84B90212081F5DBA0212081F3AFD
:1013B300BB0212081F4FBB0212081FACBB0212086C
:1013C3001FBFBB0212081F00BC0212081FC4BD02CC
:1013D30012081F46BE0212081F70BE0212081FE544
:1013E300BF0212081F34C00212081F4AC0021208AB
:1013F3001F57C00212081F90C00212081FB3C00279
:1014030012081F4EC10212081FB1C10212081FFDAC
:10141300C10212081FF7C20212081F7DC50212087B
:101423001F13C60212081F5EC60212081FD3C6028C
:1014330012081FF0C60212081FF3C60212081F0388
:10144300C70212081F6CC70212081F87C7021208BF
:101453001FA9C70212081FD5C70212081FFCC70223
:1014630012081F1BC80212081F56C80212081F6564
:10147300C80212081FEDB60312081FF9B6031208BB
:101483001F35B70312081F40E90212081F8FE90234
:1014930012081F41EB0212081FF6EC0212081F3E4E
:1014A300ED0212081F3AEE0212081F91EF02120812
:1014B3001FB3EF0212081F0FF00212081F91F00270
:1014C30012081F4BA80212081F76A80212081F3821
:1014D300A90212081FBAA90212081F24AA0212089D
:1014E3001F70AA0212081FE3AA0212081F6EAB02A2
:1014F30012081FFDAB0212081F30AC0212081F2492
:10150300B10212081FCCB20212081FC7B30212089D
:101513001FC8B50212081F37B60212081F28B702E8
:1015230012081F05B80212081F78B80212081F8A92
:10153300C80212081F49C90212081FB9C9021208BA
:101543001F60CA0212081FBDCA0212081FE4CB02A1
:1015530012081FA4CC0212081F09CD0212081FB7DC
:10156300CE0212081F74CF0212081FA0D002120865
:101573001FBED10212081F57D20212081F47D302FF
:1015830012081F63F70212081FB7F70212081FF2AF
:10159300F70212081F5BF80212081F9BF8021208D9
:1015A3001FE5F80212081F8AFA0212081FFCFA024A
:1015B30012081F1FFB0212081F40FB0212081F84A0
:1015C300FB0212081F95FC0212081FA1AD031208AB
:1015D3001FD2AD0312081F8BAE0312081FF1AE0317
:1015E30012081FA68E0312081F0F900312081F86EE
:1015F300B90312081F06B40312081F14B403120818
:101603001FEEFF0212081F6CB70312081F7CB703FB
:1016130012081F88B70312081FD5B70312081F0843
:10162300B30312081F89B30312081FEDB303120893
:101633001FCDB90312081FD0B90312081FBAB9038B
:1016430012081FCAB90312081F64B90312081FBF87
:10165300840312081F14850312081FE88603120867
:101663001F1A870312081F41870312081F55870398
:1016730012081F6E870312081F9D880312081F623A
:10168300AF0312081F86AF0312081F9FAF03120890
:101693001FD2AF0312081F03B00312081F31B00398
:1016A30012081F93B00312081FA2B00312081FAC45
:1016B300B00312081FB9B00312081F50FD0212082D
:1016C3001F8DFD0212081F9CFD0212081FBBFD02A5
:1016D30012081F23FE0212081F2CFE0212081F8B82
:1016E300FE0212081FAFFE0212081FA2FF02120819
:1016F3001FAFFF0212081FC0FF0212081FFBB8032F
:1017030012081F18B90312081F00800312081F468E
:10171300800312081F9F810312081FAC8103120864
:101723001FBF810312081FDE810312081FF4810308
:1017330012081F08820312081F7D820312081FE28A
:10174300820312081F92830312081F67840312087F
:101753001F77840312081F86840312081FD3B5035F
:1017630012081FF8B50312081F21B60312081F49F8
:10177300B60312081F90AB0312081FB7AB0312087E
:101783001F33AC0312081F92A20312081FABA2035C
:1017930012081FB7A20312081FCBA20312081FE9E6
:1017A300A20312081FF3A20312081FFDA2031208CB
:1017B3001F10A30312081F6FA30312081FA6A3037E
:1017C30012081FD4A30312081F22A40312081F6FB9
:1017D300A40312081F8AA40312081F94A403120867
:1017E3001FDCA40312081F6EB60312081F8AB60378
:1017F30012081FA0B90312081FD4DF0212081FFE2C
:10180300DF0212081F1AE00212081F2DE00212085D
:101813001F6CE00212081FEDE00212081F2AE50206
:1018230012081F54E60212081F87E60212081FD48B
:10183300E60212081F12E80212081F3AE802120811
:101843001F5DE80212081FA1E80212081F02E90245
:1018530012081F12E90212081FC8FE0112081FE333
:10186300FE0112081F0CFF0112081F26FF011208B8
:101873001F4BFF0112081F6AFF0112081F82FF019D
:1018830012081FB0FF0112081FCAFF0112081F71BF
:10189300B80312081F86950312081F8D95031208BB
:1018A3001FC2960312081FF1960312081F5F9703C6
:1018B30012081FF2970312081F2B980312081F74B4
:1018C300980312081FA4980312081FC49803120850
:1018D3001FC3B00312081FD5B00312081FEDB103D5
:1018E30012081FF0B10312081FF3B10312081F52AD
:1018F300B20312081FA8B20312081FE9B2031208A9
:101903001FD6B30112081FF1B30112081F66B401F9
:1019130012081FEFB40112081F7EB50112081F9AA7
:10192300B50112081F46B80112081FFBBA011208BD
:101933001F95BC0112081FE0BD0112081FDEC20182
:1019430012081FDAC30112081F50C40112081F1C1A
:10195300C50112081F7FC60112081F1FC701120805
:101963001F69C70112081FD7C70112081F87C801C3
:1019730012081F55C90112081FBBC90112081FC055
:10198300CA0112081F7DCB0112081F18CC011208CF
:101993001F6FCE0112081F03CF0112081F7FCF0153
:1019A30012081F14D20112081F0FD30112081F3E81
:1019B300D30112081FFDD40112081FD8D601120843
:1019C3001FCED70112081FB9DC0112081F75A90326
:1019D30012081F9AA90312081F26AA0312081F85BB
:1019E300AA0312081F6EAB0312081FE79103120824
:1019F3001FA8920312081F17930312081F3C930397
:101A030012081FF7930312081FB7B80312081F59D0
:101A1300A70312081FAEA70312081FDBA7031208B0
:101A23001F59A80312081FD4A80312081F01A903F2
:101A330012081F1EA90312081F839F0312081FF811
:101A43009F0312081FD4A10312081FD7A103120872
:101A53001F1BA20312081F1EA20312081F2AA203A0
:101A630012081F36A20312081F6B9C0312081F8E55
:101A73009C0312081FD99C0312081FF59C0312082C
:101A83001F269D0312081F369D0312081F199E036C
:101A930012081F239E0312081F309E0312081F4FB4
:101AA3009F0312081F639F0312081F6C9F031208F2
:101AB3001F79890312081F298E0312081F37B903E0
:101AC30012081FA29D0112081F499D0112081FDD64
:101AD3009C0112081FB49C0112081FA79A01120847
:101AE3001F739A0112081F409A0112081F249A01BA
:101AF30012081F4A990112081F02990112081F3781
:101B0300970112081FB7960112081FB49601120815
:101B13001FBB950112081F89950112081FC6940166
:101B230012081FF1920112081F82920112081F541A
:101B3300920112081F51920112081F3E92011208CE
:101B43001FD6910112081F21AA0112081F94A9018F
:101B530012081F87A90112081F95A60112081FE783
:101B6300A30112081FC5910112081FA690011208B4
:101B73001F70900112081FBBA20112081F339001AE
:101B830012081FD48F0112081FA38F0112081F5EB2
:101B93008C0112081F0FA20112081F32EC01120858
:101BA3001F4F8B0112081FDE8A0112081FA38A012F
:101BB30012081F6E8A0112081F628A0112081FC2CF
:101BC300890112081F09890112081FDC8601120806
:101BD3001F68840112081F26840112081FF1820165
:101BE30012081FA6820112081FD5810112081F2C9B
:101BF300810112081F02810112081F60A00112084F
:101C03001FC8800112081FF9B40300000080FBE421
:101C1300738F000100E20A87000100E00A2400023A
:101C230000A90525000200AB0526000200AD05272B
:101C3300000200C10A28000100C30A29000100C4F0
:101C43000A84000400C50A86000100C90A2A0001AB
:101C530000CA0A2B000100CB0A2C000100CE0A2D7A
:101C6300000800B2052E000100CF0A2F000100D0AA
:101C73000A30000100D10A31000100D20A3200010A
:101C830000BA0533000100BB0534000100D30A3656
:101C9300000100BC0538000100D40A39000100CD61
:101CA3000A83000200DE0A63000100C60564000126
:101CB30000AF0565000100CC0A6D000100DD0A6E6E
:101CC300000200B00543000100D50A44000200D61B
:101CD3000A45000100D80A46000200D90A47000855
:101CE30000BE0548000100DB0A4B000100DC0A04CA
:101CF300000100E10AA1000100E50A37000100E448
:101D03000A88000100E30A3C000100BD0500000051
:101D13000000000001363601010001020100010349
:101D23000100010401060605020000070100340852
:101D330001000F090401010D0100FF0E0800001747
:101D4300020000190100FF1A0100011B0100FE1C23
:101D53000100081D0200001F0100012001000121F4
:101D63000200002301000F240200002601000127C6
:101D7300010008280200FF2A0100072B0102402C62
:101D83000100002D0100012E0100012F0100FF3091
:101D9300010B1C310800003A0100083B01000F2F22
:101DA3000100000101710101010101110101013172
:101DB30001010101018001100161013B0014006375
:101DC3000173017201620143010001130106013D28
:101DD30001350004011201000100010001000104AA
:101DE300010401330133013C014401320136000097
:101DF3000100016501000135008101000105018237
:101E030001830100010302710230016002110270BB
:101E1300020102020202028002100261023A004140
:101E23000063027302720262024302000213023869
:101E3300000002000204021202000200020002007B
:101E43000204020402370037003C02440200023954
:101E53000000020002650200023502810200020551
:101E6300028202830200020300710030016000114C
:101E73000070003102200350048000100061000054
:101E8300001400630073007200620043000000133B
:101E93000006000000000004001200000000000023
:101EA30000000004000400370037003C0244000037
:101EB3000000000000000065000000350081000004
:101EC300000500000083000000010371030103010A
:101ED30003010301030103220302030103100300AF
:101EE3000300030003000300030003000342030095
:101EF300032403060300030003040312032503233F
:101F03000325032303040304030003000300034422
:101F1300030003000323030003650321003503814A
:101F23000300030503000300030003000003002074
:101F330001C680000000002001C7800000040042A9
:101F43000164800000050042015380000006004246
:101F5300014280000007002001C4800000100042FD
:101F630003320B0000110020037E0A000012001050
:101F730003430B0300000021037F0A060000002037
:101F830001810A000000000000000000000300209F
:101F930001C680000000002001C780000004004249
:101FA30001648000000500420153800000060042E6
:101FB300014280000007002001C48000001000429D
:101FC30003320B0000110020037E0A0000120010F0
:101FD30003430B0300000021037F0A0600000020D7
:101FE30001820A0000000000000000360001000624
:101FF3000000000F000000000000000000000000CF
:102003000003FFFF00000403FFFF0000FFFF0FF4C6
:10201300010005C4040320000100140B00000000AC
:102023000000000003010F7319AF197919C7197F55
:1020330019B5197F19C1198519C7197F19B5198BD5
:1020430019C7199119C7199719C7199D19C719A341
:1020530019C719A919C719000000000000000000E2
:1020630000471513000B15010047150200DB14038D
:1020730000E1140400E7140500ED140600F914FF51
:10208300FF0000B30FE30FB90FBF0FDD0FD10FCB6D
:102093000FE90FEF0FF50F0110C50FAD0FA70F0AD3
:1020A300550D02190D052B0D071F0D0CFB0C0D0D06
:1020B3000DFF000000160F00000B150B020002229B
:1020C3000F320000069D10AF10B5107D0FBB1077C7
:1020D3000F830F140AE5D5C5B5A5A5958585756547
:1020E300FD101B11211103110F1109110001191604
:1020F3001816161523030000034948424D181725E7
:102103000502303016181920231A1C1E300C0E023B
:102113000B040B0A0708000F303017181921301B66
:102123001D1F3000383C3E363B3B352B432CF11012
:10213300C110C710D310CD10D70FFB0F1511071007
:102143000D1002040201010101090200BE040AE8A4
:1021530003FA06150028000E000400D62003090C1C
:10216300FF1E1E04040F100C05080874F712036CFD
:10217300E99003B0F0900365E4F01218D19003C422
:10218300E4F0A3F09003B1F0A3F0120EB11218D74C
:10219300900334E4F0A3F090216893FA7902121AC1
:1021A3009F0250FA74F212036CEAFEEBFF54806054
:1021B300699003B0E0F912126B8A088B09EA4509AA
:1021C300604F7C0080010CEC75F003A4F8A9F07457
:1021D300A228F582742039F583E493F4602CE49308
:1021E300F88508828B83E06870DCAA08EC75F0033D
:1021F300A4F874A328F582742039F583E493C0E02E
:10220300740193F583D082121C12AA08AB0912122F
:102213005FEEFAEF6480FB022374EF5420601D121B
:102223000DAF8A088B09EA4509600A120D0DAA0849
:10223300AB0912125FEEFAEF642080DAEEA2E050EF
:102243001A90036AE0640F700B7900120CD7E960EF
:1022530003122377EE6401FAEF80BB54207003026C
:102263002342750C0012391B8B09EA450970107C57
:10227300027D007A207B009003B0E0F91213617CA9
:102283000079047A007B00120D8B8A088B09801871
:10229300850882850983A3A3A3A3A3A3A3A3A374EC
:1022A30001F0850A08850B09E5084509606D7C0086
:1022B3007904AA08AB09120D8B8A0A8B0B750C01E2
:1022C300E5082404F8E5091236BF24FFF0A3E0343F
:1022D300FF125CE670CC850882850983A3A3A3A3C0
:1022E300A3A3A3A3A3A3E0640170A5850882850922
:1022F30083A3A3A3A3A3A3E05404709485088285B6
:102303000983A3A3A3A3A3A3A3A3A37406F07AB7E8
:102313008508828509831224A38087120D5B7C00C4
:1023230079017A007B00120D8B8B09EA450970094C
:10233300E50C70057A2012487EEE642002225AEFE3
:102343005402600B120EABEEFAEF6402022219EF95
:1023530054046019124C30124B50790190036312EC
:102363004EB4120C1DEEFAEF64040222197A007BBC
:10237300000225AA9005A9122C41120CEF22C0825B
:10238300C08374EA1208FE851882851983AA82AB7A
:1023930083794B121A757408120AC07402F0740917
:1023A300120AC0AA82AB837950121A757413120AE7
:1023B300C0E4125083121A937416023E3C74F7124F
:1023C300036C74E11208FEEAFEEBFFEE4F60338507
:1023D3001882851983AC82AD83120DD37406120A59
:1023E300C0E0601E7417120AC0E0FD7401120AC037
:1023F300E0FCEEFAEFFB7900120B15E9600479A417
:10240300800279000250F574F612036CEAFEEBFFCA
:102413008E828F83A3A3A3A3A3A3E05440601B12C4
:10242300565012257160067AFF7BFF801A8E828FC9
:1024330083123AC8FAA3E0FB8003120DF774FE6A15
:10244300700374FF6B60411256501248C2120E693A
:10245300E98E828F83600612249CE4800512249CFB
:102463007401F07CDD7D0C8E828F83124EB4121AC0
:1024730099E9F5087015EE4F60097901EEFAEFFB63
:10248300120D67A9080249857508CDAA088E828FA7
:10249300831224A3E960DF80EAE0240D123F972230
:1024A300E0240C123F97E0F9120CE92274F61203B0
:1024B3006CE9FEEAFF7A0F7B00121259EA4B6019AE
:1024C3008A828B83740CF0EEA3A3F0EF8A828B8352
:1024D300A3F0124B397900802FEEF9120D918A087F
:1024E3008B09A808A909E849601C88828983A3A3EA
:1024F300A3A3A3A3A3A3A374061258E9E0F9120CA0
:10250300A1EEF9120D6D7910024985C082C0839046
:10251300036AE0640F7014EA4B6010900365E06493
:10252300086005E064047003122531023E66EAFC8C
:10253300EBFD7A017B009003B0E0F912135B22C03C
:1025430082C0837900EA241DF582EB123AC524FD8B
:10255300600B14600824FD600424FD700109023E31
:10256300668E828F83A3A3A3A3A3A3A3A3A31225EE
:102573007522123B0DFB120E69E9228E828F83A313
:10258300A3A3A3A3A3A3A3A31225756402228E82EC
:102593008F83A3A3A3A3A3A3A3A3A3123E5D90032B
:1025A30056E0682212086A7F0602061C74F41203BE
:1025B3006C74FD1208FE8A088B098A828B83A3A39D
:1025C300E0F9120D918A0A8B0BAE0AAF0BEE4F7036
:1025D300030226B6850882850983A3E064F160308F
:1025E300850882850983A3E064CD602485088285FC
:1025F3000983A3E0641A6018850882850983A3E030
:1026030064E9600C850882850983A3E064E17008AE
:102613007900120D67E9706C850882850983A3E050
:10262300C0E07402120AC0D0E0123E41EEF0A3EF04
:10263300123097851882851983AA82AB837005129D
:102643000C058003120E517402120AC0E064E97093
:10265300338E828F831226C2750A01780A12085BB1
:10266300750AE9780A12085BE508240CF582E50986
:10267300122B89123074FCA3E0FD8A828B83123003
:102683008E12086A8E828F83A3A3A3A3A3A3A3A3FB
:10269300A3E0640270108E828F83A3A3A3A3A3A3DA
:1026A300A3A3A37406F0850882850983A3A3E0F995
:1026B300120D6D120D5B9005AD12237A022C46E0CC
:1026C300F8A3E0F9E8FAE9FB2274F412036CEAFEDA
:1026D300EBFF7508008E828F83A3A3A3A3A3E060FF
:1026E300427508088E828F83A3A3A3A3A3A3A3A3E6
:1026F300123D708B0BEA450B601075082C8E828F90
:1027030083A3A3A3A3A3E0D2E0F08E828F83A3A32A
:10271300A3A3A3E05403640160030227B543081194
:102723000227B5EE2418122C536033EE241A122C10
:1027330053700F1225917003A3E069707575082219
:102743008070EE241BF582EF1227BA241AF582EF6C
:1027530012309FEE2419125684120C8F80541225C6
:102763007E70037508011225917003A3E06970065A
:10277300E508D2E1F508E50860158E828F83A3A3EF
:10278300E07006E508D2E58004E508D2E6F5081214
:10279300256464017006E508D2E0F5088E828F8314
:1027A300A3A3E0600D1227C864016006E508C2E038
:1027B300F508A908022C4B123AB31227C122E0FCF8
:1027C300A3E0FDEE22123AAD123AE5F9120E57E9F3
:1027D30022C082C08379018A828B83A3A3E0C3943E
:1027E300024001198A828B83A3A3A3A3E0C39402AB
:1027F300400279008A828B83A3A3A3A3A3A3A3A3E9
:10280300A3E064F87003A3E0F460458A828B83A39A
:10281300A3A3A3A3A3A3A3A3E064F97003A3E0F476
:10282300602E8A828B83A3A3A3A3A3A3A3A3A3E062
:1028330064FA7003A3E0F460178A828B83A3A3A3D3
:10284300A3A3A3A3A3A3E064FB7003A3E0F4700218
:1028530079008A828B83A3A3A3E0F8900353E068F3
:1028630060027900023E6674F012036C74DE120893
:10287300FEEAFEEBFF8E828F83A3A3A3A3E0600E89
:102883009005AB12497C60069005AB12237A740362
:10289300120AC0AC82AD838E828F83A3A3A3124B93
:1028A300871253C0E9600F7403120AC0AA82AB8374
:1028B300120D07E9700879011218E3022B7EEE244A
:1028C3001B123AB87410120AC0124B507409120A40
:1028D300C0E06021741A120AC0E0FD7404120AC039
:1028E300E0FC8E828F83124EB27901120B15E960E0
:1028F30004790280C37403120AC0AA82AB83120D47
:1029030001E9F50A7409120AC0E0702A90034DE048
:1029130060247422550A6422601C7442550A64427E
:1029230070CF7420120AC0122B9C600A7420120A02
:10293300C0122B9570BBE9A2E650417403120AC082
:10294300AA82AB83120CF5E970030228B974201232
:102953000AC0123AC86403700F7420120AC0A3128B
:10296300496EA3E0640D60147403120AC0AA82AB1B
:1029730083120E7BE964017003022B7EEE242C127A
:102983002B86122EAA7003A3E069701C75080078C9
:102993000812085B780812085BEE242E1256841284
:1029A3002BA212308E12086A7409120AC0E0700357
:1029B300022A5B122BA2124EB4120ED58A088B097F
:1029C300EA45097003022AF87404120AC0E0F88E7B
:1029D300828F83A3A3E028F8A3E03400F9E8240D51
:1029E300122B8D8A828B83A3A3A3E068601CE88AE1
:1029F300828B83A3A3A3F09080B6120A9D850882DD
:102A0300850983A3A3A3A3120AA97904E9120AC01F
:102A130012539D2AF8A3E034008882F583A3AA8287
:102A2300AB8312124D8A0C8B0D8C0E8D0F85088291
:102A3300850983A3A3A3A3780C1207F74003022BF2
:102A43007E9080A2780C12098D850882850983A364
:102A5300A3A3A3780C120A81900365E064046008C1
:102A6300E064096003022B7EE50AA2E54003022B22
:102A730036EE242E122C53851882851983F0EE240A
:102A83002F122C53C0E07401120AC0D0E0F0EE24E0
:102A930030122C53C0E07402120AC0D0E0F0741458
:102AA300120AC0E064017027740E120AC0123ABE03
:102AB300EE2412122C53687003A3E0697011740C96
:102AC300120AC012258B70077414120AC0E4F0EEC8
:102AD3002424122B861206A17404120AC0AC82AD00
:102AE300837407120AC0AA82AB83120C0B740412FC
:102AF300086A022B7E9003AAE064016003022A5B4A
:102B03007420120AC0122B9C7009E50AA2E6500336
:102B1300022A5B7410120AC0E0F47003A3E0F460AD
:102B23005AEEFCEFFD7403120AC0AA82AB83120DA6
:102B3300138048A2E650447420120AC0124EC37098
:102B43001A741A120AC0E0640270307403120AC0C5
:102B5300AA82AB837900120E4580207420120AC02A
:102B6300122B957016741A120AC0E06404700C7468
:102B730003120AC0AA82AB83120E3F742202526F61
:102B8300EE240BF582EF123AB322F582E9124B6978
:102B9300F822125662E0640722123AE5640622EE36
:102BA300242A123AB01227C12412123AB02274F422
:102BB30012036CEAFEEBFF8C088D099005BAE06006
:102BC3000F1225917003A3E0697005120C7D804FED
:102BD3007900124EA7120CAD8A828B83E58245835E
:102BE3006035A3A3A3A3A3A3E05418602AE5082494
:102BF3001BF582E509122B891206A5123359122BF4
:102C0300891206A5EE2418125684122C24120CBF26
:102C1300740412086A80087900122C24120C838031
:102C2300278E828F83A3A3A3A3A3A3A3A3A3122764
:102C3300C1240BF582EF122C3D223400F583123BA5
:102C43000DFB22740312086A7F0402061CEE24178C
:102C5300F582EF124B692274F712036C74F71208B2
:102C6300FEEAFEEBFF900365E06403600DE06401A0
:102C73006008E064096003022D248E828F83A3E041
:102C8300707E7C007D007A027B001218DDEE240248
:102C9300FAEF1236C6123ABE900356124B507953CE
:102CA300121A7B7900122D29E0640960031230BCEB
:102CB3008518828519837401124A8290036574040E
:102CC300F07401120AC0AA82AB83794A121A75748E
:102CD30001120AC0AC82AD837A5B7B031218FB90AE
:102CE30003561253B67A031230C6900350E0A2E3A0
:102CF3005004D2F08002C2F0124A6F122377801E72
:102D03008E828F83A3AE82AF83FC7D007A037B1018
:102D13001218DD8E828F83E0F9122D29E4F0120D53
:102D23003D74090250F7900363122C41120C1D905D
:102D3300036522C082C08390033412497C701F90C4
:102D43000365E014600924FC600A14600C800F9092
:102D5300033C8032900338802D90033A8028E84961
:102D6300600890033512306E700C8A828B83A3E067
:102D7300F9120C11801B9003351233F57005120EF6
:102D83009F800E9003E112497C600612496E121C6B
:102D930012023E6674F412036C74FB1208FE8A0876
:102DA3008B097A0F7B001212598A0A8B0BAE0AAF7A
:102DB3000BEE4F7003022E9E8E828F831250817909
:102DC30050121A75850882850983A3E06003022ED9
:102DD30086900363E0F47003A3E0F460349003632C
:102DE300E064FE7003A3E0F46027851882851983ED
:102DF300122EAA7003A3E0696017850882850983F0
:102E0300A374EA1230A47A637B037950121A7B808D
:102E130072851882851983125643124B507A567B5A
:102E2300037953121A75900356124B81124B507A41
:102E3300597B03794B121A757A587B0379E1121A7D
:102E43007590036AE0C3940F5021900358E0C0E0EB
:102E53007402120AC0D0E0F07404120AC07401F0C4
:102E630004120AC0AA82AB83121A8D750A00780A6B
:102E730012085B780A12085B900AECE0F9123085BD
:102E830012086A850882850983122EA3A3F0900392
:102E9300657403F0EEFAEFFB124B397405022C480C
:102EA300A3E08E828F8322125647E06822123F9E50
:102EB3002274F512036C74D81208FE8A088B098AEF
:102EC300828B83A3A3A3123AEA7415120AC0AC82BD
:102ED300AD838A828B83A3A3A3A3A3A3A3A312304B
:102EE30074FAA3E0FB120D497415120AC0E0706B6B
:102EF300850882850983A3A3A3A3A3A3A3A3E0C3F4
:102F0300940B40578E828F83A3A3A3A3A3A3A3A34E
:102F1300E064027046EE240B122C53F4703D9003D0
:102F230065E06402603AE064066035900334124958
:102F33007C600512306E604F900365E064086005A5
:102F4300E0640470167417120AC0E0F9741C120AC4
:102F5300C0AC82AD83124EA7120D4F7428025B6F73
:102F630090033412497C701F750800780812085BBF
:102F7300780812085BEE2410122B8612569C123727
:102F8300AE12308E12086A8E828F83124E2312364F
:102F9300D8123ABE7402120AC0124B50EE240D121C
:102FA3002C53C0E07404120AC0D0E0123097F50825
:102FB300A3E0F509740F7808120A727405120AC0A7
:102FC300E508F07419120AC0E0C0E07406120AC0E2
:102FD300D0E0F0741B120AC0E0C0E07407120AC00C
:102FE300D0E0F07416120AC0E0C0E07409120AC0FF
:102FF300D0E0F07417120AC0E0C0E07408120AC0EF
:10300300D0E0F0EE2410122C53C0E0740A120AC070
:10301300D0E0F0741A120AC0E0C0E0740B120AC0C8
:10302300D0E0F07427120AC0E0C0E0740C120AC0AA
:10303300D0E0F0741C120AC0A982AA8389088A0905
:10304300750A0078081208537C087D007410120A70
:10305300C0AA82AB8312449912086A851882851923
:1030630083AA82AB83120C17022F5E1233FB640117
:1030730022E0F98A828B83A3A3A3A3A3A3A3A3A37D
:10308300E0229003631253BA900359122C41120E9B
:1030930009740222F0EE240B124B6622124B69FADA
:1030A30022F07A567B0379531230AF22121A7B7ABD
:1030B300597B03794B121A7B22900363122C411222
:1030C3000ECF227B001218DD9003591253BA7A04F3
:1030D3007B001218DD22F01256A72274F212036C41
:1030E30074F81208FEEAFEEBFF8C0A8D0B890C853F
:1030F3001882851983AC82AD8375838075828F7442
:1031030008120798F50DEEFCEFFD851882851983EB
:10311300AA82AB83124D847003750D019003B180B5
:103123003BEEFCEFFDE508240BFAE5093400124DF4
:1031330083601E850882850983A3A3E0650C701153
:10314300850882850983E0650A7004A3E0650B6046
:1031530038E5082414F582E509122B891236D0E5E7
:103163000845096024E50DA2E040B685088285097B
:1031730083E0650A7004A3E0650B70D5850882853A
:103183000983A3A3E0650C70C8AA08AB09740802FD
:1031930025A7C082C0839003B1023E6374F7120374
:1031A3006C9003B1123B0D8012EA2414F582EB12EA
:1031B3002B89123AEA1212DDEEFAEFFBEA4B70E9C1
:1031C3009003B1E4F0A3F00250FA74F112036C8A95
:1031D300088B09ECFEEDFF890A8A828B8312526306
:1031E3008A828B83122EA312328B8A828B83A3A3B0
:1031F300E0C454F0FA88828983E04A12329B122E8B
:10320300A3123295E0333354FCF88E828F83E04867
:10321300123295A3E033333354F8F88E828F83E070
:103223004812328B8508828B83A3A3A3A3A3A3E0B5
:10323300A2E0E4331313FA88828983E04AF0E508B5
:103243002407F50CEB12449F1208537C0812449395
:1032530012086A125394E508240FF50CE5093400AB
:10326300F50D780C1208537C0312449312086AE597
:103273000AC3940F400D123359122B89122EA4A3A3
:10328300A3A3F07F0702061CF0EEF8EFF9A30EAF3D
:10329300832212329BA3A322F08508828B83A3A3EC
:1032A3002274F112036CEAFEEBFF890A8C088D0984
:1032B3008E828F83E08C828D83123D7AAE82AF83C0
:1032C300E01245591244CAC4124559123362E054FC
:1032D300038C828D831244C8A2E2E4338C828D83F3
:1032E3001244C7131313541F1245591244C6A2E7BD
:1032F300E4338C828D83A3A3A3A31233628E0C8F3A
:103303000D750E00780C1208537C087D00E5082427
:103313000712532912086A1253948E0C8F0D780CDE
:103323001208537C037D00E508240F125329120869
:103333006AE50AC3940F40148E828F83A3A3A3E08C
:10334300C0E0123359122B89D0E080061233591290
:1033530058DDF0023286E5082412F582E50922A33E
:10336300A3123D7E0EAF832274F412036C74F91220
:1033730008FEEAFEEBFF890890033412497C600ED5
:103383001233F57009EEFAEFFB120E99805F90038A
:1033930063E06E7003A3E06F705374016508600906
:1033A3007A777B03124D8470447A007B0212391FB3
:1033B3008B0BEA450B7036900366120A9D851882C3
:1033C300851983120AA990036CE0C0E07404120A01
:1033D300C0D0E0F07405120AC07401F07406120A3A
:1033E300C0125081120BDBE9609B120BE1740702E0
:1033F3002C481233FB640222125663A3A3A3A3A394
:10340300A3E02274F512036C8A088B098A828B83EA
:10341300A3AE82AF83E0F9120C358E828F83E06412
:10342300EB600C850882850983A3E064E17009855C
:103433000882850983A3E4F0122377750A01780AC9
:1034430012085B850882850983A3E0F508780812D2
:10345300085B790012308512086A120D5B025B72F9
:10346300EAF0A3EBF0023E6674F612036C9003C31A
:10347300E0701B7C0079017A007B00120D8BEA4B14
:10348300600C8A828B8312497C6003120CE302492D
:1034930085C082C083123907401079FF120D85E978
:1034A300F890216AE493C39850047901800279006B
:1034B300023E6674F012036C8A088B09890B750C43
:1034C300008A828B83A3A3A3A3A3A3A3A3E0F912DC
:1034D3000D918A0E8B0FAE0EAF0F750A01EE4F6082
:1034E30003023594850882850983A3A3A3A3A3A319
:1034F3001253B6850882850983A3A3A3A3A3A3A319
:10350300124293124EB4120D798A0C8B0DAE0CAF8E
:103513000DEE4F70030236B78E828F83A3A3A3A34E
:10352300E4F0A3F0E508240B1236C3E0C0E0122B4D
:1035330083D0E0F0120E6FEE240CF582EF1248BE3A
:10354300E508240EF582E509123ABBEE240EF58256
:10355300EF124B4D750C01EE2406F8EF1236BF54F3
:103563007FF0A3E054FC1256F9E0540460030236E2
:103573001A900AC3124284740778081209C68E820D
:103583008F83A3A3A3A3A3A3E04508F0A3E0450966
:10359300F08E828F83A3A3A3A31236CE7407780879
:1035A300120A72E5085407F508E50B607A8E828FDC
:1035B30083A3A3A3A3A3A3A3A3A374021244CB240F
:1035C3000D123F93E0A2E2500B900351124B81A3E3
:1035D300A3124B50E508700302368CEE2406F8EF75
:1035E3003400F9E8FAE9FB8A828B83E0547FFCA379
:1035F300E054FCFDE50824FFF508E434FFF5097405
:103603000778081209C6EC4508F8ED4509F98A82DE
:103613008B83124B5080728E828F83A3A3A3A3A3A9
:10362300A3E04480023593E5087005750A008059CC
:103633008E828F83A3A3A3A3A3A3E05420601212BB
:103643001253EA547F245F8E828F83A3A3A3A380A4
:10365300238E828F83A3A3A3A3A3A3E05410600AA2
:10366300121253EA540F240A80DD8E828F83A3A3A0
:10367300A3A37401F0A3E41236D874041239168B91
:1036830009EA450970031248B1E50CA2E050288EFF
:10369300828F83A3A3A3A31250E7F9EEFAEFFB12E1
:1036A3000D7FE960121249726003123AA3EEFAEF3A
:1036B300FB1212DD750A00A90A025272124C44224F
:1036C300FAE5093400FB8A828B8322A3A3E0F50881
:1036D300A3E0F509221236DC22125345A3A3A3A3C8
:1036E300A32274F412036C74F71208FE7E00120D09
:1036F30091EA4B70030237A78A828B83A3A3A3A308
:10370300A3A3A3A3A3E0640660030237A78A828B63
:1037130083A3A3A3A3A3A3A3E0FF8A828B83123F64
:10372300A6E0C0E07408120AC0D0E0123ADE124DDF
:103733008A124B50120DA3EF5408606685188285D8
:1037430019831253B67A007B00120D738B0BEA4573
:103753000B704F900363123BCE121AA57C007D00C1
:103763007A007B0080288E828F83123AC8F470031C
:10377300A3E0F4602D9003631237AE124EB4121619
:1037830055E9641A601C7C007D00EEFAEFFB120D14
:10379300738A0A8B0BAE0AAF0BEE4F70C979001216
:1037A3001AAB7E01EEF97409022C481237B222E0FB
:1037B300FCA3E0FD8E828F8322C082C083EA4B701C
:1037C300059003C480068A828B83A3A31239CE603B
:1037D300258A828B83A3A3A3A3A3A3A3E054086096
:1037E300E5EC4D60158A828B83123AC86C7003A393
:1037F300E06D70D280047A007B00023E6674F212A0
:10380300036CEAFEEBFF890A8C088D097A107B00B2
:103813001212D7EA4B603F8A828B83A3A3A3A3A38D
:10382300A3A3A3A3E4123ACCA3E50A125669A312F5
:1038330038638A828B83A3A3A3A3E4F0A3123AD8A9
:10384300A3F01254FDEA240CF582EB123D6A123800
:103853005CA3A3F0A3F00225AAA3F08A828B8322A0
:10386300A3A3E508F0A3E509F02274F412036CEABC
:10387300FEEBFF89088C0A8D0BEE4F6055740165D2
:103883000870147901120D85E9F890216CE493C353
:1038930098500F7911806A74046508702F123907E4
:1038A30040F18E828F83A3A3A3A3A3A3A3A3A3E522
:1038B30008123D7AA3125BFC8E828F83A3A3E4F0EC
:1038C300A3F09003C412497C6021800D7402650843
:1038D30060D079C1802BE0F8A3124B7AA3A31239ED
:1038E300CE88828983A3A370ED80039003C4EEF096
:1038F300A3EF1239168B0BEA450B70031248B1790B
:1039030000022C4B7904120D85E9F890216BE493A6
:10391300C39822F012391B227A207B009003B0E077
:10392300F912136D22C082C083E9F879009003C4B1
:10393300801D8A828B83A3A3A3A3A3A3A3A3A3E032
:1039430068600574FF687001098A828B83A3A312E0
:1039530039CE70DE023E6674F712036CEA4B7005D3
:103963009003C480068A828B83A3A31239CE60247A
:103973008A828B83A3A3A3A3A3A3A3A3A3E06970B6
:10398300E4EC60148A828B83E0240D1253A7A2E235
:1039930040D380047A007B000250FAC082C0839037
:1039A30003C480068A828B83A3A31239CE60128A52
:1039B300828B83A3A3A3A3A3A3A3A3E06970E5803E
:1039C300047A007B00023E663BF583122C41EA4BEE
:1039D3002274F212036C8A0A8B0B8C0C8D0D750802
:1039E30000750900EA450B602E9003C480068E82A1
:1039F3008F83A3A3123A21601EAC0CAD0DEEFAEF38
:103A0300FB850A82850B83121C12E9640170DFEEC9
:103A1300F8EFF988088909AA08AB090225AAE0FE8C
:103A2300A3E0FFEE4F2274F712036C9003C4123A23
:103A3300BE7C007D00800DE8FCE9FD88828983A3BC
:103A4300A3123ABEE8496030EA687002EB6970E796
:103A53009003C4124EB4E86A7002E96B88828983CA
:103A6300A3A37008123ABE9003C48009123ABE8C15
:103A7300828D83A3A3124B500250FA74F712036C86
:103A8300EAFEEBFFEE4F6015120D9D123AF012495C
:103A9300726003123AA3EEFAEFFB1212DD0250FA40
:103AA300EE240C123AB0123B0522EE241DF582EFF0
:103AB3003400F58322F582EF123AB3123E5D22F50C
:103AC30082EF123AB3123AE522123AD02212567119
:103AD300A3A3A3A322123AD0A3A32212385D123ABE
:103AE300E52212565CE022E0FEA3E0FF228E828FE5
:103AF30083E0241C123F97123B058E828F83123B77
:103B03000522123B0DFB1212DD22E0FAA3E022C0D4
:103B130082C083EAFCEBFDEC4D700479058044EC34
:103B230024FBF582ED34FF12497A7007123B69E0FA
:103B3300F4600512125F80E39003B0E0C0E0123B33
:103B430069D0E0F09004E7E493F97AC67B0312129C
:103B530089E96401700B7A007B201248B5790080F3
:103B6300027904023E66EC24FFF582ED34FFF5830F
:103B73002274F412036CA2AFE433F508C2AF9003CE
:103B8300C6123A216038EE24FBF582EF34FF124966
:103B93007A7A007B209003B060051248B88005E074
:103BA300F9121295E4F50AF50B780A120857EEFCA0
:103BB300EFFD7AC67B03121283740212086AE508CA
:103BC300A2E092AFEEFAEFFB022C4B1253BA851828
:103BD30082851983AA82AB832274F212036C74FC6C
:103BE3001208FEEAFEEBFF750AFE750BFF120D616C
:103BF300E960057911023D5FEE2415122C536037FD
:103C0300900ADCE0C43354E0F8E0333354FC48C09A
:103C1300E0EE2415122B86D0E0123D7A123D708B14
:103C230009EA45096011750AFFEE240F122C53446B
:103C330004124B5ED2E0F08E828F8312256F6006F2
:103C4300EE2412123D67EE2413122C5370109021B0
:103C530065E493C0E0EE2413122B86D0E0F08E824D
:103C63008F83E0A2E750045403801CEE2414122C2B
:103C7300537015900342E0C0E0EE2414122B86D05B
:103C8300E0F0900342E004F0EE2411122C5364019F
:103C930070169005AFE0600D90034DE0700A8E82C0
:103CA3008F83E07003123D648E828F83E064017022
:103CB30013EE240B123AC264027009EE240F122C85
:103CC300534440F0851882851983AC82AD83EEFAA4
:103CD300EFFB120DC78A088B0974FE650A70037423
:103CE300FFF470098E828F83A3A3125335EA45092B
:103CF30060668E828F83E0C0E07401120AC0D0E058
:103D0300F07402120AC01255017401120AC08582AE
:103D13000C85830D780C120857EE240F122B861294
:103D230006A5EE240E122C53F50C780C12085B90AA
:103D330003561206A57407120AC0E0F9AC0AAD0BCC
:103D4300120DC1740712086AE9FE74106E700BAA93
:103D530008AB091212DD80027E10EEF9740402250D
:103D6300A7EE2411F582EF123AB3E4F022A3122C4A
:103D73004179FF12131F22123D7E22F08E828F8320
:103D8300A322C082C08374DE1208FE8A828B83A3BF
:103D9300A3A3A3123ABE740E120AC0E8F0A3E91259
:103DA3003E54740C120AC0123E4D240DF582EB12E0
:103DB3002C56C0E0741A120AC0D0E0F0125282EB03
:103DC300123ABB7420120AC0123E4D2415F582EB41
:103DD300122C56C0E07408120AC0D0E0F0EA241C8A
:103DE300F582EB123ABB7412120AC0123E4D241133
:103DF300F582EB122C56C0E07409120AC0D0E0120F
:103E03003E4174FFF07401120AC074FFF074021291
:103E13000AC074FFF09080B61206A17404120AC09F
:103E2300AC82AD837407120AC0AA82AB83120C0B57
:103E3300740412086A7900742212086A8025123EFB
:103E43004522F085188285198322E8F0A3E9F0EA78
:103E53002212385DA3123E5C22A3E0F8A3E0F9220C
:103E6300124EB4D083D08202081C74EC12036C741B
:103E7300EE1208FE8A128B13ECFEEDFF89097426FD
:103E8300120AC01253357428120AC0E0F5107429BF
:103E9300120AC0123F88742B120AC0E0F50EA3E089
:103EA300F50F7508107A1E7B001212D77402120ADE
:103EB300C01248C27402120AC012497C7003023F46
:103EC30081851882851983AA82AB83795012479D15
:103ED300124EB47402120AC0123FA6A31248C2744F
:103EE30010120AC0125BFE7402120AC0E0240B1205
:103EF3003F937402F0120AC0123FA67402F0120A32
:103F0300C01256541255017402120AC0124EC9E56A
:103F130009F07402120AC0E0240C123F93E510F07A
:103F23007402120AC0123F90E512F0A3E513F07475
:103F330008120AC0E50CF0A3E50DF0740A120AC0DA
:103F4300E510F0850E82850F83C082C083740D1245
:103F53000AC0AC82AD83D083D0827403120798F970
:103F63007402120AC0AA82AB83120D67E96401705E
:103F73000575080080087402120AC0123AA9A9083C
:103F8300741202534CE0F50CA3E0F50D22E0241C5F
:103F9300123F9722F8A3E0123F9E223400F9888251
:103FA300898322124EBCA3A3A3A3A32274EE1203FC
:103FB3006CEAFEEBFF8C088D098E828F83A3740855
:103FC300124B99E060088E828F83A37410F0122C39
:103FD3005060098E828F83A3E02408F0EE2415122B
:103FE3002C5360088E828F83A3E004F08E828F832C
:103FF300A3A3A3A3A3A3E060198E828F83A3A3A388
:10400300A3A3A3A3E0C3332402F88E828F83A3E088
:1040130028F0EE2411122C536005750B0E800375E6
:104023000B008E828F83A3C082C083EE240D122CDB
:1040330053D083D082F8E028250B8C828D83F0EE59
:104043002411122C5360051244A928F08508828597
:104053000983E0C39475400975080075090002419E
:1040630091E0FA7B001255AF7003024191EEFAEF33
:10407300FB120DCDEA8508828509831248C3EE241D
:1040830002F8EF122EB012428B1241CDF0EE24044F
:104093000808EF122EB01246D3A31241CDA3A3F00A
:1040A300EE24131241B3F0EE24141241B3A3F075BE
:1040B3000A08EE2416122C536010EE24181253B380
:1040C300E5082408125692750A10122C506016EE59
:1040D300241A1253B3850A0CE508250C1256927460
:1040E30008250AF50A8E828F83A3A3A3A3A3A3E0C3
:1040F3006059EE2407F510EF3400F511851082F5B1
:1041030083E0C0E012419A122B89D0E01241BDE056
:10411300C0E012419A122B89D0E01241BDA3124193
:10412300A6120853851082851183E0C333FCE43360
:10413300FD850A0CE508250C12532912086A85101F
:1041430082851183E0C333250AF50AEE2415122C68
:1041530053600BC0E012419A122B89D0E0F0122B6E
:10416300831241A6120853EE240D122C53FC7D003A
:10417300850B0A8E828F83A3E0F8E50828F8E5090A
:104183003400F9E8250AFAE912532C12086AAA083E
:10419300AB097F0A02061C850A0CE508250CF5828B
:1041A300E50922E0F50CA3E0F50D750E00780C226D
:1041B300123AB01241D7A3A3A322F0050A8E828F2D
:1041C30083A3A3A3A3A3A3A3A322A3A31256FDA3E1
:1041D3001241D7221246D7A3A32274F612036C8A84
:1041E300828B83E0FC90035312428474027808129A
:1041F30009C6EC4508FCAD09EA241212427E740696
:1042030078081209C6EC4508FCED4509FDEA2415BA
:10421300F582EB122C566004780180027800E4C822
:10422300F9ED49FDEA2411F582EB122C56F50888C5
:1042330009740978081209C6ED4509FDEA24161226
:10424300427E740B78081209C6ED4509FDEA24176E
:1042530012427E740C78081209C6ED4509FD8A8264
:104263008B83A3A3A3A3A3A3124284740A78081283
:1042730009C6ECFAED4509FB024985F582EB123AD2
:10428300B3E0F50875090022E085088285098322D9
:10429300A3E0F98508828509832274EE12036C8AF0
:1042A3000A8B0BECFEEDFF750F01E9C39408500573
:1042B30079000244908E828F83E9F01246FCE96014
:1042C30003750F001246E08E828F8312472AEE1287
:1042D3005283EF12471FC0E0EE2411122B86D0E069
:1042E300124717C0E0EE2412122B86D0E0123D7A5B
:1042F300740812533DA3A3A3E060151246C8EE242D
:1043030013F582EF124B4D8E828F83A3E02408F0C6
:104313008E828F83A3A3A3A3A3A3A3A3E060218E71
:10432300828F83A385820885830912470BEE2415A8
:10433300F582EF124B4D850882850983E02408F04E
:104343008E828F83A3A3A3A3A3E0601A8E828F839D
:10435300A38582088583091246EF8E828F83A3A3E8
:10436300A3A3A31244BBEE2419123D67EE241B1230
:104373003D67A3124B91E07003024424EE2419F825
:10438300EF3400F98E828F83A3858208858309E049
:10439300FAE50A2AF582E50B122C568882898312E4
:1043A30044BBFAE50A2AF582E50B122C56C0E0EE6F
:1043B300241A122B86D0E01244BB88828983E060E2
:1043C30059F8902162E493C398500575110C800845
:1043D300EE2419122C53F5118E828F83A3E0F8E596
:1043E3000A28F50CE50B12449F120853E511C33359
:1043F300FCE433FD7A597B0912449912086AEE24CE
:104403001B122B867459F0A37409F0E511C333F81A
:10441300850882850983E0288006EE24181258DA7D
:10442300F08E828F83A3E0F88E828F83E0C398504F
:10443300030242B3A3E0FA8A08E50A2508F8E50B6C
:104443003400F9EE241DF582EF124C591244CBC30C
:104453009AC0E0EE2417122B86D0E0124B56602B45
:10446300EE2417F8EF3400F9880889098882F58368
:10447300E024F2124C3A240EFAA3E03400FB8882C3
:1044830089831248C21244A9C398F0A90F02419527
:104493007D00EEFAEFFB12123B7403223400F50D9C
:1044A300750E00780C2290034EE0F9120B1BE9F80D
:1044B300850882850983E022F0850882850983E0E7
:1044C30004F022A3A3A3A3A3F08E828F83E022741C
:1044D300F412036C8A088B09EA124560F0EA13139D
:1044E300543F124559A3A3A3F0EAC4131312456022
:1044F300A3A3F0EB12455212456A7409780A120A13
:1045030072124550124569740A780A120A72E50A52
:104513005401C0E0EC2418F582ED122B89D0E0128F
:10452300456F740B780A120A72124550A31245693B
:10453300740C780A120A72124550A3A3A3A3A3A36F
:10454300A3A3F0740D7808120A720227B5E50A5482
:10455300018C828D8322540F8C828D832254038C91
:10456300828D83A3A322A3A3A3A3A3A3F08A0A8B6D
:104573000B22C082C08379008A828B83A3A3A3A367
:10458300A3A3E090034D600FE070228A828B83A384
:10459300A3E07019098016E060138A828B83124EA0
:1045A300AB900356E06A7003A3E06B70E7023E66CC
:1045B30074F012036C8A0A8B0B890C8C088D091218
:1045C30046FC1246E085088285098312472AE508DE
:1045D300125283E50912471FC0E0E5082411F58252
:1045E300E509122B89D0E0124717C0E012335912A4
:1045F3002B89D0E0124C617408124C7A6011124678
:10460300C8E5082413124C55124C61E02408F085C8
:104613000882850983A3A3A3A3A3A3A3A3E060178D
:10462300850882850983A3124707E5082415124CE0
:10463300551244CB2408F0850882850983A3A3A3DC
:10464300A3A3E06019850882850983A3AE82AF83A3
:104653001246EF8508828509831244C604F0AA082E
:10466300AB09120DDFE9F50D7056850882850983C4
:10467300A3A3A3A3A3A31246D37014E0FA8A0EE55F
:104683000A250EF8E50B124B42E50CC39A80211262
:104693004707E8240EF8E9124B4290034EE0F91263
:1046A3000B1B8E828F83E0F8E50CC39824F2C39929
:1046B300C0E0E5082417F582E509122B89D0E0F064
:1046C300A90D025272E50A2408F8E50B3400F92219
:1046D3001246D722E0850882850983A322850A82B0
:1046E300850B83A3A3124740E0F9EA22E0F8E50A29
:1046F30028F582E50B124B69228A828B831252774B
:10470300120DD922AE82AF83E0F8E50A28F8E50B53
:104713003400F922124753A3A3A3E022123AB3E8C9
:1047230012474CA3A3E022A3A3A3A3A3A3A3A3A3DE
:1047330012474C124740A3A3E0F9EAF822E0FA85B6
:104743000A82850B83A3A3A322F0A3E91247532272
:10475300F0850A82850B83A3A3A3A322C082C0830F
:104763007AD47B0379E2121A757AD47B03023E660C
:10477300C082C083900356023E63C082C08374FE2E
:104783001208FE851882851983AA82AB83794B129E
:10479300479D124EB47402023E3C121A758518826C
:1047A30085198322C082C083794A121A75023E6634
:1047B30074F612036C9003DCE0FE04F0EEF9120DC4
:1047C300918B09EA450970EDEE60EAF902498574B7
:1047D300F012036CEAFEEBFF8C088D09890A741052
:1047E300120AC0E0F50B7411120AC0E0F50C120EA8
:1047F300D5EA4B7013E50C7042A90AAC08AD09EE7B
:10480300FAEFFB120EED806EE50A6021EA2402F551
:1048130082EB122C56850A082508F8E4340013E8C5
:1048230013F070098A828B83A3A37401F0E50C60F3
:1048330045E50B70068A828B83E4F07401650C7086
:1048430035E50B9003E37004E4F0802AE004F09074
:104853000AC4E0F89003E3E0C398401AE4F090033D
:1048630059E06E7003A3E06F700CEEFAEFFB790171
:10487300120C2F12487C0252727A017B009003B013
:10488300E0F912136722C082C08374016A7001EBDE
:1048930070077A011248B380129005A91248C2EA40
:1048A3004B6005122531800312487C023E667A2054
:1048B3007B009003B0E0F912128F223400F583EAF3
:1048C300F0A3EBF022C082C0839005AB023463C037
:1048D30082C0839005AD02346374F612036C7508CD
:1048E3004275090378081208577C6E7D007A217B94
:1048F3000012132B740212086AE9F508120B57E928
:10490300420890047012497C600912496E121C120D
:10491300E94208120ADFE9FE1215B9E9F8E5084E83
:1049230048F9805E74F612036C1218D77508427545
:104933000903780812085775086E7509007808127C
:1049430008577C007D007A217B0012133174041216
:10495300086A120B5D90047212497C600612496E5C
:10496300121C12120AE51215BF801712566322EEAB
:10497300240CF582EF3400F583123E5DE8492212E0
:10498300086A7F0202061C74F612036C74FF120895
:10499300FE7E0075084275090378081208577C6E7D
:1049A3007D007A217B0012132B740212086AE960DE
:1049B30003024A54780812085775086E8E0978085E
:1049C3001208577C007D007A217B00121337740490
:1049D30012086AE9707B900356E064FE7003A3E05B
:1049E300F4606E0E900365E064086005E064047093
:1049F3005C851882851983EE124A827A6D7B03796E
:104A030043121A7B7A6A7B037947121A7B7A5B7BA0
:104A130003794A1230AF7A637B037950121A7B7A97
:104A2300567B037953121A7B7A6B7B037954121AE0
:104A33007B7A587B0379E1121A7B900350E0A2E35F
:104A43005004D2F08002C2F0124A6F80041218D7C9
:104A53001E120B6390047412497C600612496E1295
:104A63001C12120AF1EEF97401024982A2F0E43336
:104A7300851882851983124A8B7952121A7B221266
:104A83004A8B7942121A7B22F0AA82AB832274F6F4
:104A930012036CE9FEA2E0502675084275090378FB
:104AA3000812085775086E75090078081208577CB4
:104AB300007D007A217B00121331740412086AEE20
:104AC300A2E35003120B69EEA2E2500E9004761299
:104AD300497C600612496E121C12024985AA82ABF8
:104AE30083120D437AB37B037945121A7B2274F741
:104AF30012036C74ED1208FEE9FE9003AF124ED060
:104B0300124B1D7412120AC0EE124B2A85188285AD
:104B13001983124AE074130250F7900A92E0F97A6B
:104B2300B37B03120D4922F0900A92E0F97CB37D26
:104B33000322AA08AB099003B0E0F91212652234EC
:104B430000F9E508241DF582E509123AB3E8F0A35C
:104B5300E9F022125341A3A3E022A3F0EE2415129D
:104B63004B6622F582EF3400F583E022124B732269
:104B73003400F583E0F8A3E0F98882898322E0F822
:104B8300124B8722A3E0F98E828F83A3A322F0EE38
:104B93002418123AB022F0EE2416123AB02274F41A
:104BA30012036CEAFEEBFF7A007B04124880124C7E
:104BB30030124B509003657409F0120DEB8A088B89
:104BC30009AC08AD09EE2413122B86124EB4124D14
:104BD30084640170487A0F124C2360418A828B836C
:104BE3007402124C3AFAA3E0FB8A828B83A3E0FCA3
:104BF3008A828B83A3A3E0FBEC850882850983A3C8
:104C0300A31248C388828983124EB812428B124B77
:104C13005DFAA3E0FB794A121A7B124B35022C4B47
:104C23007B001212598A088B09EA45092290033640
:104C3300123E5D9005AD22F0EE241DF8EF124C44B8
:104C430022123F9EE022124C4D223400F583740160
:104C5300F022F582E509123AB3E8F0A3E922124CF7
:104C63006522124C6922F0850882850983A32212EA
:104C73004C69A3A3A3A322124C72A3A3E022125054
:104C83008B120E5D22EE2417F582EF124C4D120D9E
:104C9300EBEE241A123AB0EAF0A3EBF02274F4120A
:104CA300036C74F31208FE8908EAFEEBFF7C0D7DAA
:104CB300007900851882851983AA82AB8312124773
:104CC300EE241D122B86125654A3E0F8741F58606D
:104CD3000A79011218E37900024D7BE8A2E5500836
:104CE300740C120AC07401F0E8A2E75008740B12A6
:104CF3000AC07401F0E8A2E6740A5008120AC074EC
:104D030001F08008120AC0E064017005EE241380EC
:104D130003EE24151253B37402120AC0AA82AB83A2
:104D23001218FB122B83124D89124B50740A120A6C
:104D3300C0E064017033122564703B120DF78A0AD8
:104D43008B0BA80AA90BEE240B122C53687003A338
:104D5300E0697022120DEBEAFCEBFD7402120AC04B
:104D6300AA82AB83124D84600D851882851983AAAC
:104D730082AB83120C29A908740D022C48EEFAEFBA
:104D8300FB1218F5E922E0124D8E22F8A3E0F98513
:104D930018828519832274F612036C74F31208FEC9
:104DA3008A088B09ECFEEDFF7C0D7D0079008518E8
:104DB30082851983AA82AB83125807A3A3A3A3A353
:104DC300A3A3A3A3124E23124E2CF8A2E5500874FA
:104DD3000B120AC07401F0E8A2E75008740A120A21
:104DE300C07401F0E8A2E6EE5004241380022415F7
:104DF3001253B37402120AC0124E15A3A3E0C0E00B
:104E0300740C120AC0D0E0125083120C23740D02EA
:104E13004982AA82AB831218FB8508828509832203
:104E2300E0124D8EE8F0A3E922F0123AAD12565883
:104E3300A3E02274F712036C74E11208FEEAFEEB9E
:104E4300FF8E828F83124EB8A3A3A3E0A2E050513A
:104E53008E828F831226C48A828B83A3A3A3A3A3E8
:104E6300A3E054FE124ED08A828B83124EC9E0F91E
:104E73008A828B83E0241CFAA3E01236C6124EB456
:104E8300120DE5E9701B741D120AC0124EC3701196
:104E9300851882851983AC82AD83EEFAEFFB120E7F
:104EA3004B0250F58E828F83A3A3A3A3A3A3A3A333
:104EB300A3122C4122124EBC2212565CA3A3A3229E
:104EC300123AE5640422E0241B123F9722123E4566
:104ED300AC82AD8322E9F87900740468600A740A2D
:104EE30068600574036870010902081C74F61203F4
:104EF3006C8A828B837420F0A3A37401F0120BCF0E
:104F03008A088B09AE08AF09EE4F60108E828F833B
:104F13007401F09003A3E07003124C88EEFAEFFBE8
:104F2300024985C082C0839003C87401F0E9A2E3FB
:104F330050037403F0E9A2E15004E0D2E2F0023E30
:104F43006674F612036C79007C008A088B09780872
:104F53001205D6F8FF07774F754F754F754F754F8D
:104F63006E4F724F774F6B4F0C80097C0480050C9A
:104F730080F67C089003C8E05C6003098003EC6062
:104F8300010902498574F612036C8A828B83E070EF
:104F930012A312497C600C8A828B83124EB3121BBC
:104FA3006B80047A007B0002498574F512036C74EC
:104FB300F31208FE8A088B09ECFEEDFF750A12EA6C
:104FC30045097005790002507C900356E06508702E
:104FD30004A3E065097014120DEBEAFCEBFD124D1E
:104FE300807005750A018003750A0085188285198A
:104FF30083E4F004120AC0E508F0A3E50912508324
:10500300120B93E960277403120AC0AA82AB8312BE
:105013000B75E964017016750A017403120AC0ACBA
:1050230082AD83124D806021750A00801C74126565
:105033000A70169003A2E06402700EEEFCEFFDAA64
:1050430008AB09120BABE970DFEEFCEFFDAA08AB6E
:1050530009120EDBE9F8740A687005750A018017F6
:1050630074A0687012EEFCEFFDAA08AB09120EE7FC
:10507300AA08AB09120EF9A90A740D025B6F740238
:105083001250872212508B22123E45AA82AB8322F2
:1050930074F712036CEAFEEBFF8E828F83A3A3A344
:1050A300A3A3A3A3A3E06015EE2415122B86122C51
:1050B30031120E75E964017004790180258E828FA7
:1050C30083A3A3A3A3A3A3A3E06015EE2413122B2E
:1050D300861250E7FAA3E0FB120E75E9640160D96A
:1050E300790080131237B2A3A3A3A3A3A3A3A3A3FB
:1050F300E022741F12086A7F0102061C74F0120377
:105103006C74FD1208FE8A088B09ECFEEDFF890B17
:105113007413120AC0E0F50C750A017401120AC077
:10512300740412568C6048E50C601DEA2417F5825E
:10513300EB1258DD12567A8A828B83E0D2E7F0EACB
:105143002414F582EB123D6A125282EB124B6F74F8
:1051530003125C00EE88828983A3A3F0EF8882891F
:1051630083A3A312385C123863120BC9E9F50AA9A9
:105173000A740302526F74EC12036C74F51208FE86
:105183008A0A8B0B890C8C0E8D0F741F120AC0E0D8
:10519300F50D7420120AC0E0F510A3E0F5117E01AD
:1051A300EE120AC0740AF0E97007E50DC333240A4E
:1051B300F012535470030252561253697409F0A348
:1051C300E50CC43354E0450D12537BE50C702D7C84
:1051D300008023ECC333F8E433F9E51028F8E51134
:1051E30039F98882898312526388828983122EA3B4
:1051F300F0A30EAF830CECC3950D40D7E50824173D
:10520300F582E509124C49120DEBE508241AF582E3
:10521300E5091248BE7403120AC0AC82AD83AA0A20
:10522300AB0B120B7BE96019E5082416F582E5093F
:1052330012525D120AC0A882A983E5082418124BF2
:1052430049850882850983125BFCAA08AB09120B06
:10525300C9E9FEEEF9740B02534C124C4D74032250
:10526300E08E828F83F0A3AE82AF832212086A7F1F
:105273000802061C123B0DF9EA2400E439FB22EA7A
:10528300240BF5822274EE12036C8A0C8B0D890EAB
:105293008C088D097412120AC0E0F50F7413120AF8
:1052A300C012533590051812497C6077E50FC3335C
:1052B300F8E433F9E8240EFAE93400FB1212598AB0
:1052C300108B11AE10AF11EE4F60588E828F837426
:1052D300D4F0A3A3E50CF0A3E50D12533DE50EF0C6
:1052E300AC08AD09EE2405FAEF125695EE240D1223
:1052F3002B86E50FF0850A08850B09750A007808E7
:10530300120853E50FC333FCE433FDEE240EFAEF2A
:1053130012532C12086AEEFAEFFB9005181256543A
:10532300121C12024195FAE5093400FB12123B7478
:105333000322E0F50AA3E0F50B2212534122125394
:105343004522123D7EA3A3A32212086A7F0C020604
:105353001C851882851983AA82AB83120E5D8A0885
:105363008B09EA450922EA240BF582EB124B69FE0D
:10537300A3E0FF8E828F8322F0A3AE82AF83AC0EB5
:10538300AD0FEEFAEFFB12538D221218FB1253945A
:1053930022EE2408FEEF3400FF22E0FA8E828F8390
:1053A300A3A3E022FEA3E03400FF8E828F83E022DA
:1053B300123AB01253BA22E0FCA3E0FD22122C41B0
:1053C300120DD32274F712036CE9FE7C007D007882
:1053D300007900800D125485E02CFCA3E03DFD1202
:1053E3005A9F125B08502CE8FAE9FBEA75F012A405
:1053F300FAAFF075F012EBA42F125AA8F460E01282
:10540300548C1239CB60D8EE60CB125485E4F0A3F0
:10541300F080CC78007900800D125465E02CFCA359
:10542300E03DFD125A9F125AFB5030E8FAE9FBEABD
:1054330075F017A4FAAFF075F017EBA42F125AD733
:105443007003A3E0F460DC12546C1239CB60D4EE29
:1054530060C7125465E4F0A3F080C8ECFAEDFB02D8
:1054630050FA12546C3BF58322E8FAE9FBEA75F033
:1054730017A4FA75F017EBA42FFB74FA2AF58274BC
:10548300072212548C3BF58322E8FAE9FBEA75F014
:1054930012A4FA75F012EBA42FFB747B2AF5827425
:1054A300062274F612036CEAFEEBFF9003C9801325
:1054B30088828983E06E7003A3E06F603A888289F3
:1054C30083A3A312497C70E87A047B001212D78A63
:1054D300088B09A808A909E849601C8882898312F6
:1054E30055019003C9124EB488828983A3A312483D
:1054F300C29003C9124B500249858A828B83EEF016
:10550300A3EFF02274F412036C7E009003C98007AA
:105513000E88828983A3A312497C70F4EEC333FA05
:10552300E433FB1255AF607E7F009003C98024886B
:105533008289831253B6EFC333FAE433FBE5082AB7
:10554300F582E5093BF583ECF0A3EDF00F88828942
:1055530083A3A312497C70D79003AB12259E7003DB
:10556300A3E06978087019120857EEF50A780A1251
:10557300085B7C777D0379009003AB1255BA801AE0
:10558300120857EEF50A780A12085B7C777D0379D7
:10559300009003AB124EB4120E87740312086AAA6A
:1055A30008AB091212DD120BE1022C4B1212D78A3F
:1055B300088B09EA450922122C41120E8D22C08262
:1055C300C08380128A828B83A3A3123ABE9003C93D
:1055D300124B501212DD9003C91239CE70E6023E0F
:1055E3006674F612036C900363123AEA9003DD12B9
:1055F3005643124B507ADD7B037950121A7B90038A
:10560300DD1227BDFAEFFB120EF39003DD123AEA27
:1056130090051A12497C60257A067B00121259EA1A
:105623004B601A8A828B8374D5F0A3A3E412566964
:105633000412567A90051A125654121C1202498506
:1056430012564722E0F8A3E0F9900363228E828F7B
:10565300831256582212565C22E0F812566222A395
:10566300E0F58388822212566D2212567122F08A47
:10567300828B83A3A3A32212566DA3EEF0A3EFF0B4
:1056830022F582EF124B69F922124C81EA4B22FA7E
:10569300E5093400FB1218FB22124B88A3A3A3A332
:1056A300A3A3A322902160E4932401F8E43400F936
:1056B3007A027B002274F712036C7E008004125C72
:1056C300B30E1257D740F77E00EE1256E474FEF085
:1056D300A3041256F9E4F00EEEC3940340EB025018
:1056E300FA75F003A4F8A9F074CB28F8740339F918
:1056F30088828983A3221256FD22F088828983221D
:1057030074F712036C7F0080010F902166E493F815
:10571300EFC3985026EF1258C36A7003A3E06B706F
:10572300E8125C606C7003A3E06D600A74FF6C7038
:105733000374FF6D70D31257C080047A007B00029C
:1057430050FA74F612036C7CFF7DFF7AFE7BFF1226
:105753000EB7EA4B70407508008036E50875F01700
:10576300A4F8A9F074F428F58274071258D5600CD4
:1057730074F328F58274071258D5701374E528FE64
:10578300740739FF8E828F831258E2EEFAEFFB051E
:105793000812583D40C502498574F412036C8A0807
:1057A3008B09ECFEEDFF800B120EC9EEFCEFFDAA98
:1057B30008AB09120EB7EA4B70EE022C4B74E528C6
:1057C300FA740739FB22EE75F017A4F8A9F0125802
:1057D300CE64FE22902166E493F8EEC3982274F718
:1057E30012036CEAFEEBFFEE4F601012580174FED9
:1057F300F0A304125C0614F0A304F00250FA7C1721
:105803007D0079001212478E828F832274F7120370
:105813006CEAFEEBFF7508008018E50875F017A425
:10582300F8A9F0125C6B7003A3E06F6003125CBB1A
:10583300050812583D40E30250FA902166E493F8BC
:10584300E508C3982274F612036C120EB78A088B0C
:1058530009A808A909E849600AE8240DFAE934000F
:10586300FB80047A007B0002498574F412036C8A7E
:105873000A8B0BECFEEDFF750800750900802EE521
:105883000975F017A4F8A9F0125CA6601EE50912C9
:1058930058C3650A7004A3E0650B700375080AEE2C
:1058A300FCEFFD125B6260034308A00509902166CB
:1058B300E493F8E509C3985004E50860C20227B5EC
:1058C30075F017A4F8A9F01258CE2274E528F582D2
:1058D300740739F583E022F582EF123AB3E422121A
:1058E3002C41120CC5221256FDA3A3A3A3A3A3A369
:1058F300A32274F212036C8A088B09ECFEEDFF7489
:105903000E120AC0125335750C007C007D01801005
:10591300121253E50CF5F0EA84ACF0750C007D002F
:10592300780079008003125A9F125AFB40030259F0
:10593300C1E8FAE9FBEA75F017A4FA85F00D75F0F2
:1059430017EBA4250D125AD77003A3E0F460D71206
:105953005AB565087004A3E0650960CA125AB56EAA
:105963007003A3E06F60BF125AB5650A7004A3E029
:10597300650B60B2E8FAE9FBEA75F017A4FA75F073
:1059830017EBA4250DFB74F32AF5827407125A96BC
:10599300509474016D050C608DE50CC39C4087E841
:1059A30075F017A4F8AAF075F017E9A42AF974E5BD
:1059B30028F582740739F583124EB4025A9378009E
:1059C30079008003125A9F125B084003025A7AE857
:1059D300FAE9FBEA75F012A4FA85F00D125AE764AE
:1059E300FE7003A3E0F460DC125ADD65087004A3C3
:1059F300E0650960CF125ADD6E7003A3E06F60C4E7
:105A0300125ADD650A7004A3E0650B60B7E8FAE992
:105A1300FBEA75F012A4FA75F012EBA4250DFB74E2
:105A2300742AF5827406125A965099E8FAE9FBEA49
:105A330075F012A4FA75F012EBA4250D125AA8649E
:105A4300016081E0640270030259C774016D050CA3
:105A530070030259C7E50CC39C50030259C7E8758C
:105A6300F012A4F8AAF075F012E9A42AF9746B28CD
:105A7300F58274060259B8E50C6011EC700E7401DE
:105A8300650C60030259137C0102591E7AFE7BFFE9
:105A93000225AA3BF583E014C3940622E8240108F7
:105AA300E93400F922FB746F2AF58274063BF5830F
:105AB300E022E8FAE9FBEA75F017A4FA75F017EBB0
:105AC300A4250D125ACA22FB74E52AF58274073BFA
:105AD300F583E022125ACA64FE22E8FAE9FBEA756A
:105AE300F012A4FA75F012EBA4250DFB746B2AF5E2
:105AF3008274063BF583E022902166E493FAC3E8BF
:105B03009AE9940022902156E493FA740193FBC31B
:105B1300E89AE99B2274F512036C8A088B09ECFE60
:105B2300EDFF750A008002050A902166E493F8E50B
:105B33000AC3985028EEFCEFFDE50A75F017A4F8A8
