:020000040000FA
:06000000020B3E02028C1F
:03002B000209A225
:030053000201B2F5
:03006B0002043854
:100083000202190101FF01010503010F10FEFF7EAA
:10009300157E157E157E1534142E147E15BF230090
:1000A3000000008324000000000C0000000C00018D
:1000B300FFFF0101010027050000009E05B80102B2
:1000C30002000800000502070401051E02051E02C6
:1000D3000A0A03B80B02803E010201FFFF010A0175
:1000E3001401E096511800020206FF010900EF58BF
:1000F3000C730D00082E2034203A2040200000000D
:1001030000000000000000000000000000000000EC
:100113000000002E2034203A20462000000000007A
:1001230000000000000000000000000000000000CC
:10013300002E2034203A204C200000000000000054
:100143000000000000000000000000000000002E7E
:100153002034203A2052200000000000000000005C
:10016300000000000000000000000000001020203C
:1001730020202020202020202020202020200110AB
:10018300040100010005758001DC801104010001F8
:100193000005758001DC80120401000100057580F3
:1001A30001DC8013040100010005758001DC80C0BF
:1001B300E074F1120512A2AFE433FED2AFE5A7FF5C
:1001C300E5A1F5085FF509741055096006121C9244
:1001D30075A1EF740855096008121C9875A1F78082
:1001E3002BEFA2E0C0D0E508A2E092F0120AD715E7
:1001F3008182F05017906198E0F890066AE0C39806
:10020300A2D265D0335002E8F075A1FEEEA2E092CF
:10021300AF7F020205C9C0E074F2120512A2AFE477
:1002230033FED2AF9061A4E0F8759B00E59158547A
:100233000860087591F7121CDA802AE5915854106A
:1002430060087591EF121CE0801BE8A2E0C0D0E5C6
:1002530091A2E092F0120AD7158182F05007E0C212
:10026300E0F0121E189061A3E0F8E5E95854046029
:100273000E121DEE75E9FB906193E0A2E640F2EEEB
:10028300A2E092AF7F010205C9C0E074F212051229
:10029300A2AFE433FED2AF9061A5E0F8E5BF5854B6
:1002A30004600675BFFB121E2A80D4C3E498F8E4E9
:1002B30099F91202EF8026C3E49AFAE49BFBE92042
:1002C300E7E91202EFE498F8E499F922C3E498F815
:1002D300E499F91202EFE498F8E499F9C3E49AFA7D
:1002E300E49BFB22EB20E7CFE920E7E0B90010BB5A
:1002F3000008E88AF084F8AAF022E4FBC8FA22EBAB
:1003030070227B10C833C8C933C9335007C39AC39B
:10031300DBF280069A50012ADBEAC833F4C8C933FA
:10032300F4C9FA2275F008E4C833C8C933C933C91C
:100333009AC99B5004C92AC93BD5F0ECFBC833F4D6
:10034300C8E4C9FA22080808EAC0E0EBC0E086F076
:10035300E7A4FA180986F0E7A42AFA180986F0E751
:10036300A42AFA180986F0E7A42AFA1986F0E7A462
:10037300FBE5F02AFA190886F0E7A42BFBE5F03A2F
:10038300FA190886F0E7A42BFBE5F03AFA181809E6
:1003930086F0E7A4C5F02BFBE43AFA1908E7C5F0A9
:1003A300C6A426F6E5F03BFBE43AFA1886F0E7A488
:1003B300F6E5F00826F6E43B08F6E43A08F6D0E062
:1003C300FBD0E0FA22E4CFC0E0E4CEC0E0E4CDC04D
:1003D300E0E4CCC0E075F020C3E633F608E633F67C
:1003E30008E633F608E633F6181818EC33FCED3359
:1003F300FDEE33FEEF33FFC3EC9709ED9709EE975C
:1004030009EF97191919400FFFEC97FC09ED97FDB8
:1004130009EE97FE191906D5F0BEECF709EDF709B9
:10042300EEF709EFF7191919D0E0FCD0E0FDD0E0A1
:10043300FED0E0FF22C0E074F2120512A2AFE43353
:10044300FED2AF900C56E4F0E589A2E450067401A5
:10045300F053ABEFE589A2E5500753ABDFE0D2E5FC
:10046300F0E589A2E6500753ABBFE0D2E6F0E58999
:10047300A2E7500753AB7FE0D2E7F0E06016900CA1
:1004830057E004F07C147D007A107B00900C58E058
:10049300F9121848758900C2C5EEA2E092AF7F0138
:1004A3000205C92518C582C0E0E51934FFC583C01C
:1004B300E0E518C3958224F810AF08858319858277
:1004C300188008858319858218D2AFCEF0A3E52062
:1004D300F0A37808E608F0A3DEFAEFF0A3E58124A1
:1004E300FAF8E608F0A3E608F0A3E608F0A3080884
:1004F300E608F0A3E608F0A315811581D0E0FED04D
:10050300E0F8158115811581E8C0E0EEC0E022C056
:10051300D02518C582C0E0E51934FFC583C0E0E5E6
:1005230018C3958224F310AF088583198582188038
:1005330008858319858218D2AFC8F0A3E9F0A3EA2E
:10054300F0A3EBF0A37908E709F0A3D8FAECF0A342
:10055300EDF0A3EEF0A3EFF0A3D0E0F0A3D0E0F032
:10056300A3D0E0F0A3E520F0A3E5F0F0A322120B63
:10057300A0B900030205B3E49003017877790A80F8
:1005830002F0A3D8FCD9FA900C77AA82AB8390002F
:1005930086782D79028015E493A3AC82AD838A8299
:1005A3008B83F0A3AA82AB838C828D83D8E9D9E7AE
:1005B3007582DE7583B8740412090175822675830A
:1005C300227400120901851983851882E0C0E0A313
:1005D300E0F9A3E0FAA3E0FBA37808E0F608A3DFC1
:1005E300FAE0FCA3E0FDA3E0FEA3E0FFA3E0C0E08C
:1005F300A3E0C0E0A3E0F5D0A3E0F520A3E0A3F5DA
:10060300F010AF08858319858218800885831985C2
:100613008218D2AFD082D083D0E0F8D0E03200008D
:100623000875F0108E1A8F1B85821F85831E85180F
:1006330082851983E0CEA3E0CF851F82851E83EBDD
:10064300C9EAC8EDCBECCAC3E833C8E933C9EA3316
:10065300CAEB33CBC3EA9EF51DEB9FF51CB35004E5
:10066300AB1CAA1DEC33CCED33CDD5F0DAAE1AAF0B
:100673001B22D083D082ECC0E0EDC0E0E493A3FC66
:10068300E493A3FDED4C600D12074DEC24FFFCED4C
:1006930034FFFD80EFE493A3FCE493A3FDED4C60F2
:1006A3000D1207EAEC24FFFCED34FFFD80EFD0E0F0
:1006B300FDD0E0FCE493A3C0E0E493C0E0228519FD
:1006C30083851882E0A3FEE0A3F5207808E0A3F673
:1006D30008DFFAE0A3FFE0A3C0E0E0A3C0E0E0A3EB
:1006E300C0E0E0A3C0E0E0A3C0E010AF088582183B
:1006F3008583198008858218858319D2AFD083D06A
:1007030082020907D083D082E9C0E0E493A3C386C1
:10071300F0C5F095F0F908E493A386F0C5F095F0E1
:10072300700BE493A3C3994005E9048002A3E47525
:10073300F002A42582F582E5F03583F583D0E0F954
:10074300E493A3C0E0E493C0E022C0E0C3E4939643
:10075300087401939618400FE493667008087401B7
:1007630093661870007019A3A3C3E49396087401E9
:10077300939618A3A3400DD0E0D0E0D0E00206B1D9
:10078300A3A3A3A3A3A3D0E02274048004740280D0
:1007930000CCC0E0EDC0E0E518C39CCCAD1950011E
:1007A3001D10AF068C188D1980068C188D19D2AFC9
:1007B300120883D0E0FDD0E0FC2274028000CCC09C
:1007C300E0EDC0E0E518C39CCCAD1950011D10AF9E
:1007D300068C188D1980068C188D19D2AF12083F1C
:1007E300D0E0FDD0E0FC22C0E0C0F088F0E49366E6
:1007F30070080874019366187000A8F0A3A3700B27
:10080300D0F0D0E0D0E0D0E00206B1A3A3D0F0D086
:10081300E022D083D082CCC0E0E493A36006120828
:10082300C31470FAE493A360061209D31470FAD0C8
:10083300E0FCE493A3C0E0E493C0E022CAC0E0E498
:1008430093A3C582CCC582C583CDC583F0A3C582DE
:10085300CCC582C583CDC583DAE5D0E0CA22A2E741
:1008630092D65002F40430F70663F0FF05F0B3406C
:100873000384800384F40430D60563F0FF05F0227B
:10088300CAC0E0E0A3C582CCC582C583CDC583F0D1
:10089300A3C582CCC582C583CDC583DAE6D0E0CAC1
:1008A300227009080808226016181818C6C333C630
:1008B30008C633C608C633C608C633C6D5E0EA221F
:1008C300C0E0E493A3D39C5010E493A3C39C400AD9
:1008D300D0E0D0E0D0E0020832A3A3A3D0E022C04E
:1008E30008C3E096F50808A3E096420808A3E0963B
:1008F300420808A3E09645087001D3D00822C09FA0
:10090300F59FE473D09F22D083D082C09FE493C02D
:10091300E0740193C0E0740293F59F227404800A8B
:1009230074038006740280027401C0E0F4041209A7
:100933003AD0E0120B7B222518F58210AF08F51888
:10094300400215198008F51840021519D2AF851910
:100953008322C0D0251810AF08F51850020519805E
:1009630008F51850020519D2AFD0D022BB0102E717
:1009730022C082C08389828A83BB0003E08002E4B1
:1009830093D083D082226016080808C6C313C61802
:10099300C613C618C613C618C613C6D5E0EA22C0C6
:1009A300E0C0D0E8C0E0E5A8D2AFC2C7A2E792AFEB
:1009B300D0E0F8D0D0D0E032C3E0C696F608A3E08A
:1009C300C696F608A3E0C696F608A3E0C696F622F6
:1009D300C0E0E493A36C7009D0E0D0E0D0E002085B
:1009E30032A3A3D0E022251810AF08F51840021552
:1009F300198008F51840021519D2AF22E766701066
:100A03000809E766700A0809E76670040809E766DB
:100A130022C3E09608A3E09608A3E09608A3E09615
:100A2300A2D265D03322E066701008A3E066700A94
:100A330008A3E066700408A3E06622C3E096F0080A
:100A4300A3E096F008A3E096F008A3E096F022E076
:100A530026F008A3E036F008A3E036F008A3E0365A
:100A6300F022E026F608A3E036F608A3E036F608FF
:100A7300A3E036F622E627F60809E637F60809E684
:100A830037F60809E637F622E657F60809E657F679
:100A93000809E657F60809E657F622E056F608A3D2
:100AA300E056F608A3E056F608A3E056F622E05611
:100AB300F008A3E056F008A3E056F008A3E056F0D0
:100AC30022700422600D18C6C333C608C633C6D5C8
:100AD300E0F41822C0E0E8C0E0E58124FCF8E6A2D7
:100AE300E7D0E0F8D0E022E647F60809E647F60843
:100AF30009E647F60809E647F622E4C396F608E452
:100B030096F608E496F608E496F622C6F4C608C6F6
:100B1300F4C608C6F4C608C6F4C622C3E09608A302
:100B2300E09608A3E09608A3E09622C3E796080997
:100B3300E7960809E7960809E7962275D0007581BC
:100B43004075180175190300020571E0F608A3E06A
:100B5300F608A3E0F608A3E0F622600C08C6C31368
:100B6300C618C613C6D5E0F422E6F008A3E6F008DB
:100B7300A3E6F008A3E6F022CAC0E0E6F0A308DA91
:100B8300FAD0E0FA22E0FAA3E0FBA3E0FCA3E0FD45
:100B930022EAF0A3EBF0A3ECF0A3EDF022E5C754B7
:100BA300F84401F5C77901222518F582E43519F5D2
:100BB3008322C2AF75D69F0200002212090AD550C4
:100BC3000012090AFE500012090A6E510012090AA6
:100BD300C7510012090A40520012090A9054001228
:100BE300090A4A560012090AF6560012090A385829
:100BF3000012090AD65A0012090ADC5D0012090A1A
:100C0300E95D0012090A775E0012090A295F0012E2
:100C1300090A715F0012090AD15F0012090AED5F28
:100C23000012090A21600012090A56600012090A1B
:100C33003F610012090AF4610012090A49640012B3
:100C4300090A96650012090A39660012090AC6667E
:100C53000012090AFC660012090AAE670012090AAB
:100C630080680012090A3B6A0012090A8F6A00129F
:100C7300090AC36A0012090A3E6B0012090A186CBA
:100C83000012090AD66C0012090A1B6D0012090A28
:100C9300336D0012090ACA6D0012090A3B70001273
:100CA300090A50720012090A6E720012090A8C7244
:100CB3000012090A66730012090A84760012090AEF
:100CC30000800212090A35800212090A5B800212AF
:100CD300090A95800212090AA7800212090AF980FB
:100CE3000212090A5A810212090AE4810212090A4C
:100CF30088820212090AD0820212090A0A830212A6
:100D0300090A27830212090A4C830212090A9E83E5
:100D13000212090AB7830212090ADD830212090AC1
:100D2300FC830212090A37840212090A7B84021225
:100D3300090AA2840212090AF3840212090AA3858A
:100D43000212090A5B860212090A23870212090AA0
:100D5300E3870212090A27880212090A4C88021241
:100D6300090A8F880212090ADC880212090A348AE6
:100D73000212090ABA8A0212090AD88A0212090A55
:100D8300028B0212090A1C8B0212090A2B8B021214
:100D9300090A368B0212090AF68B0212090A4F8CD2
:100DA3000212090A118D0212090A198D0212090A87
:100DB300918D0212090AE08D0212090A268E02128F
:100DC300090A678E0212090AF78F0212090AAF9005
:100DD3000212090A1B910212090A46920212090A17
:100DE30057920212090ACD920212090A5F93021264
:100DF300090AB7930212090A77940212090A9E9408
:100E03000212090ABC940212090ACE940212090AB8
:100E130021950212090A5E950212090A6B950212C4
:100E2300090AEE960212090A43980212090A5C980B
:100E33000212090A98990212090A339A0212090A3C
:100E43006C9A0212090AB89A0212090AD49B021276
:100E5300090A1D9E0212090A289E0212090A339EDC
:100E63000212090A3D9E0212090A489E0212090A49
:100E7300629E0212090A6C9E0212090A769E0212EF
:100E8300090A819E0212090AA99E0212090A049FF5
:100E93000212090A289F0212090A4C9F0212090A28
:100EA300AA9F0212090AEE9F0212090A0AA002125D
:100EB300090A81A00212090AB9A00212090A05A1AE
:100EC3000212090A62A10212090A1CA20212090AE9
:100ED30000A40212090A59A40212090A89A50212DE
:100EE300090AAFA50212090A38A70212090AB4AA0D
:100EF3000212090A86AC0212090A4FAE0212090A4B
:100F0300FCAE0212090A67B00212090A06B1021204
:100F1300090A53B10212090ABDB10212090ACCB17E
:100F23000212090A53B40212090A05B60212090A87
:100F330072B60212090A51B70212090A6AB80212FA
:100F4300090AE7B90212090A06BA0212090A5BBAC8
:100F53000212090A60BB0212090A88BB0212090ABB
:100F6300E0BB0212090ABFBC0212090A03BD021246
:100F7300090A4EBD0212090AB9BD0212090AFABED4
:100F83000212090A5EBF0212090AACC00212090A60
:100F93000CC30212090A3DC30212090AF5C4021264
:100FA300090A4AC50212090A4EC60212090AEBC609
:100FB3000212090A44C70212090AF7C70212090AF0
:100FC30099C80212090A39C90212090ADEC90212B2
:100FD300090AE2800112090A21810112090A6883C0
:100FE3000112090AB2830112090ACD840112090A06
:100FF3003D850112090A72850112090AE68601126A
:10100300090A69890112090A928A0112090A288BBD
:101013000112090A30940112090AC5940112090A3E
:10102300AC970112090A9F980112090A009901124B
:10103300090A1C9A0112090A019C0112090A129E4B
:101043000112090A7C9E0112090A4E9F0112090A24
:1010530005A00112090A0FA00112090A3DA00112FD
:10106300090AFAA00112090AD1A10112090A98A2D8
:101073000112090A4AA30112090A73A30112090AF8
:1010830095A30112090AEBA50112090AC3A60112CD
:10109300090A07A70112090A6FA70112090A27A85B
:1010A3000112090A59A80112090A9DA80112090A85
:1010B300D3A80112090A1FA90112090A74A901126E
:1010C300090A79A90112090ACCA90112090AF1A98D
:1010D3000112090A00AB0112090A64AB0112090AE1
:1010E300D4AB0112090A60AC0112090A2DAF011237
:1010F300090A11B00112090A94B10112090ACAB30B
:101103000112090A78B40112090A28B50112090A61
:1011130069B70112090A0CB80112090A53B801127E
:10112300090AFFB90112090A13BA0112090A1DBA01
:101133000112090A45BA0112090A51BA0112090A30
:1011430070BA0112090A55BC0112090A8CBC0112BA
:10115300090A96BC0112090AA0BC0112090AFBBCC8
:101163000112090A45BD0112090A4DBE0112090AFD
:10117300A4BE0112090AF3BF0112090A37C0011202
:10118300090ADFC00112090AC2C10112090A6DC2AC
:101193000112090AB9C30112090AB7C40112090AE3
:1011A3005DC50112090AEDC50112090A04C601123F
:1011B300090A3BC60112090A45C60112090A50C6AB
:1011C3000112090A6EC60112090AB2C60112090AFE
:1011D3000FC70112090A34C70112090A4EC70112C7
:1011E300090ADAC70112090AF7C80112090A64C910
:1011F3000112090A4BCA0112090A72CA0112090A29
:10120300E6CA0112090A61CB0112090A65CC01126F
:10121300090A5BCD0112090A0ACE0112090A1DCF80
:101223000112090AB9CF0112090A46D00112090AAB
:1012330024D10112090A5CD10112090AB4D10112A5
:10124300090A7DD20112090A9ED20112090A25D385
:101253000112090A49D30112090A6BD30112090ABF
:10126300B4D30112090ACAD50112090AB1D601126F
:10127300090A62D70112090A98D90112090AE8D9A1
:101283000112090A28DA0112090A6ADA0112090AA3
:10129300C6DA0112090AF4DA0112090A18DB01128B
:1012A300090A6BDB0112090A99DB0112090AD2DB75
:1012B3000112090A27DC0112090A8DDC0112090A4D
:1012C300E1DD0112090A04E00112090A71E00112C9
:1012D300090A9AE00112090A25E10112090A8CE1BF
:1012E3000112090AD7E10112090AFBE10112090AF5
:1012F3001FE20112090A7AE20112090A95E20112B8
:10130300090A4EE30112090A88E30112090A2E8B26
:101313000412090A668B0412090A878B0412090A4C
:10132300C98B0412090A2F8C0412090A398C04127E
:10133300090A498C0412090A7E8C0412090AC78F10
:101343000412090A71910412090A71930412090A19
:10135300A2CA0212090AE8CA0212090AC8CB021277
:10136300090ACACC0212090ACDCD0212090A59CFC1
:101373000212090AB7CF0212090A74D00212090A2B
:1013830092D10212090A03D20212090A3FD20212AF
:10139300090A8DD20212090A97D20212090ADBD274
:1013A3000212090A37D30212090AD2D30212090A16
:1013B3004FD40212090A1ED50212090AB7D5021226
:1013C300090AD7D50212090A0DD60212090A3ED616
:1013D3000212090AFFD60212090A0FD70212090ADA
:1013E30063D70212090A7ED70212090A90D70212A2
:1013F300090A99D70212090AF3D70212090A4FD828
:101403000212090A9BD80212090AB6D80212090A63
:10141300E7D80212090A04D90212090A10D90212E2
:10142300090A84DA0212090A9DDA0212090A04DBA4
:101433000212090A17DB0212090A25DB0212090A42
:10144300D9DB0212090ABDDC0212090AC3DD02124A
:10145300090A4DDE0212090A57DE0212090AC4DE26
:101463000212090ADBDE0212090A0DDF0212090A5F
:1014730046DF0212090A70DF0212090AD1DF0212E3
:10148300090AF1DF0212090A0FE00212090A55E004
:101493000212090A7BE10212090AC8E10212090ACF
:1014A300F7E10212090A6DE20212090A95E2021239
:1014B300090ACEE20212090ADCE20212090A34E343
:1014C3000212090A83E30212090AC2E30212090A99
:1014D300F2E30212090A1EE40212090A29E40212C3
:1014E300090A47E40212090A09E50212090A13E587
:1014F3000212090A4EE50212090A64E50212090AF8
:10150300B9E50212090ACDE50212090ADBE6021265
:10151300090AEEE60212090A03E70212090AA5E71D
:101523000212090A28E80212090AE6E80212090A65
:10153300F1E80212090A1DEA0212090A39EA021243
:10154300090A8BEA0212090ACAEA0212090ADFEA45
:101553000212090A41EB0212090AD0EB0212090A2C
:101563001BEC0212090A6CEE0212090AEAEE0212DD
:10157300090A5FEF0212090A81F10212090A99F1BD
:101583000212090A9CF10212090AA8F10212090ABD
:10159300BCF10212090AC4F10212090AF7F102129C
:1015A300090AA7F20212090A1DF30212090A90F3AB
:1015B3000212090A44F40212090AF9F40212090A8E
:1015C30018F50212090AB8F50212090AC4F5021243
:1015D300090AEFF50212090AF2F50212090A5CF68A
:1015E3000212090A84F70212090A5CF80212090AB4
:1015F300E7F80212090A00FA0212090ABDFA0212F6
:10160300090AF6FA0212090A27FB0212090AE5FB84
:101613000212090A15FC0212090AF0FC0212090A55
:1016230089FD0212090A14FE0212090AC5FE0212FA
:10163300090A48FF0212090A7AFF0212090ABBFFCC
:101643000212090AD44A0012090A74F60312090A9B
:10165300B1F60312090A00F70312090AEAF80312A2
:10166300090AD1FA0312090A0AFE0312090A30FE13
:101673000312090A48FE0312090AB1FE0312090AFA
:10168300EDFE0312090A1AFF0312090A4CFF0312A3
:10169300090AAAFF0312090A00800412090A7750F3
:1016A3000012090AB0800412090A08810412090A07
:1016B30082820412090A9E820412090AD982041240
:1016C300090A60830412090AB0830412090A7D849B
:1016D3000412090A81850412090AD5850412090A2C
:1016E30050860412090AB1860412090AF28604120A
:1016F300090A9D870412090ABB880412090AF188A2
:101703000412090A3C890412090A83890412090A8A
:101713000D8A0412090AB28A0412090AA89B041248
:10172300090AEE9B0412090A589C0412090A799CBF
:101733000412090A199D0412090A239D0412090AB5
:10174300709D0412090A959D0412090AF59D04125D
:10175300090A8B9E0412090AC39E0412090A1C9FDC
:101763000412090A789F0412090AA69F0412090A9F
:101773002EA00412090A73A00412090AB2A00412CB
:10178300090AF7A00412090A09A10412090A1BA1F4
:101793000412090A3AA10412090A43A10412090A0C
:1017A300EFA10412090A2FA20412090A66DE041229
:1017B300090A94D30412090ACAD30412090A13D4D6
:1017C3000412090A60D50412090AF6AA0312090AC7
:1017D3006FAC0312090A30AE0312090A6CAE03128E
:1017E300090AF3B10312090A39B20312090A4EB402
:1017F3000312090A20B50312090ACCB50312090A18
:1018030077B70312090AC1B90312090ADDBC03122F
:10181300090AEBBC0312090AC6BD0312090AD9C19E
:101823000312090A46E10412090AF9E20412090A39
:101833000FE30412090AE0C30412090AF3C30412F2
:10184300090A91C40412090AD3C40412090AF8C488
:101853000412090A3DC50412090A76C50412090ACD
:10186300A7C50412090A1AC70412090A39DF0412A8
:10187300090A6FDF0412090A8BDF0412090ACDDF9C
:101883000412090ADDDF0412090A6CC20312090AF1
:10189300BEC20312090A2DC30312090A24C4031288
:1018A300090AA8C40312090A6FC50312090A84C5E9
:1018B3000312090ACEC50312090A1DC60312090A37
:1018C3006FC60312090A82C60312090ACEC603129F
:1018D300090AC9C80312090A4BC90312090A75C9BF
:1018E3000312090ABEC90312090A86CB0312090AA5
:1018F30001CC0312090A8ECC0312090AA1CC0312EC
:10190300090AF0CC0312090A06CD0312090A1DCDF8
:101913000312090A4CCD0312090A6DCD0312090AF9
:1019230046CE0312090AA9CE0312090AF5CE031201
:10193300090AF8CF0312090A66D20312090A92D2DE
:101943000312090A16D30312090A86D30312090ADA
:10195300A9D30312090AE3D30312090A51D40312C8
:10196300090A07D50312090A2CD50312090A36D529
:101973000312090A46D50312090AC9D50312090A33
:10198300E4D50312090A06D60312090A32D6031252
:10199300090A6DD60312090A7CD60312090ABDD6B9
:1019A3000312090A96E10412090AAEE10412090AB4
:1019B30023940412090A72940412090A2496041245
:1019C300090AD9970412090A21980412090A1D99D0
:1019D3000412090A749A0412090A969A0412090A4B
:1019E300F29A0412090A749B0412090AE2D603123A
:1019F300090A0DD70312090AF0D70312090A72D88C
:101A03000312090ADCD80312090A28D90312090AA6
:101A130096D90312090A21DA0312090AAFDA03126B
:101A2300090AE2DA0312090AD6DF0312090A7BE183
:101A33000312090A37E20312090A74E20312090ABC
:101A4300C0E40312090A34E50312090A33E6031258
:101A5300090A0CE70312090A86E70312090A40E898
:101A63000312090AFFE80312090A6BE90312090AC0
:101A730012EA0312090A6FEA0312090A2CED031290
:101A8300090AECED0312090A51EE0312090AFBEFEE
:101A93000312090AB8F00312090A17F20312090A1A
:101AA3003EF30312090AD9F30312090AD4F4031209
:101AB300090AD2E30112090A5AE40112090ACDE420
:101AC3000112090A21E50112090A5CE50112090A5A
:101AD300E9E50112090A05E70112090A57E70112AC
:101AE300090AB5E70112090AF8E70112090A6DE8C4
:101AF3000112090AB7E80112090A36EA0112090AB2
:101B030009EB0112090A5FEB0112090A55EC0112F4
:101B1300090A02ED0112090A2DED0112090A4CED21
:101B23000112090A5CED0112090A62EE0112090AA7
:101B330026EF0112090A07F10112090A6DF10112D8
:101B4300090A84F10112090ADAF20112090A57F3A8
:101B53000112090AC6F30112090A4FF40112090A14
:101B630093F40112090A5AF60112090A32F7011213
:101B7300090A6EF80112090A27F90112090A58FA2B
:101B83000112090A87FA0112090A61FB0112090A03
:101B930030FC0112090A89FC0112090AA1FC011295
:101BA300090AA1FD0112090A2FFE0112090A05CF34
:101BB3000412090AC4CF0412090A7DD00412090AC7
:101BC300E3D00412090A62B90412090ACBBA041257
:101BD300090A19E30412090ADFD70412090AEDD727
:101BE3000412090A46E30412090A89E00412090AE5
:101BF30099E00412090AA5E00412090AF2E00412AA
:101C0300090A68DD0412090AE9DD0412090A4DDE36
:101C13000412090AF5FF0112090AF8FF0112090A61
:101C230033E30412090A43E30412090AD7E2041254
:101C3300090AFA7F0012090ADBAB0412090A30AC65
:101C43000412090A04AE0412090A36AE0412090A80
:101C53005DAE0412090A71AE0412090A8AAE0412B7
:101C6300090AB9AF0412090A99D90412090ABDD99C
:101C73000412090AD6D90412090A09DA0412090A54
:101C83003ADA0412090A68DA0412090ACADA0412EF
:101C9300090AD9DA0412090AE3DA0412090AF0DAA2
:101CA3000412090AF0C90412090A2DCA0412090A06
:101CB3003CCA0412090A5BCA0412090AC3CA041201
:101CC300090ACCCA0412090A2BCB0412090A4FCB06
:101CD3000412090A42CC0412090A4FCC0412090A5D
:101CE30060CC0412090A6EE20412090A8BE20412A0
:101CF300090A58A20412090A9EA20412090AFDA3A2
:101D03000412090A0AA40412090A1DA40412090AE6
:101D13003CA40412090A52A40412090A66A4041278
:101D2300090ADBA40412090A40A50412090AF0A552
:101D33000412090AC5A60412090AD5A60412090A3F
:101D4300E4A60412090AEEDF0412090A13E00412DE
:101D5300090A3CE00412090A64E00412090AC7D51F
:101D63000412090AEED50412090A6AD60412090AF2
:101D73008ECC0412090AA7CC0412090AB3CC0412AC
:101D8300090AC7CC0412090AE5CC0412090AEFCCEC
:101D93000412090AF9CC0412090A0CCD0412090A27
:101DA30064CD0412090A9BCD0412090AC9CD041299
:101DB300090A17CE0412090A64CE0412090A7FCE57
:101DC3000412090A89CE0412090ABBCE0412090AB5
:101DD300F5E00412090AA2760012090ACC76001271
:101DE300090AE8760012090AFB760012090A3A7713
:101DF3000012090ABB770012090AF37B0012090AD1
:101E03001D7D0012090A507D0012090A9D7D0012F2
:101E1300090AC57E0012090AED7E0012090A107F25
:101E23000012090A547F0012090AB57F0012090A39
:101E3300C57F0012090A35DC0412090A50DC0412BA
:101E4300090A79DC0412090A93DC0412090AB8DCD2
:101E53000412090AD7DC0412090AEFDC0412090A86
:101E63001DDD0412090A37DD0412090AE4E1041234
:101E7300090A42C00412090A49C00412090A7EC1B0
:101E83000412090AADC10412090A1BC20412090A89
:101E9300AEC20412090AE7C20412090A30C30412CB
:101EA300090A60C30412090A80C30412090AFADA90
:101EB3000412090A12DB0412090A2FDC0412090AAC
:101EC30032DC0412090AE0FE0112090A3FFF011283
:101ED300090A95FF0112090AD6FF0112090A0080B7
:101EE3000312090A1B800312090A90800312090ACC
:101EF30019810312090AA8810312090AC481031272
:101F0300090A6E840312090A1D870312090ABB8892
:101F13000312090A068A0312090AD38F0312090A54
:101F2300CF900312090A45910312090A1192031271
:101F3300090AB5920312090A18940312090AB894FC
:101F43000312090A02950312090A74950312090A76
:101F53001D960312090AEA960312090A50970312FF
:101F6300090A55980312090A12990312090AAF992B
:101F73000312090A069C0312090A9A9C0312090A0E
:101F8300169D0312090AA29F0312090A9DA00312B8
:101F9300090ACCA00312090A8BA20312090A5FA43F
:101FA3000312090A55A50312090A43AA0312090ACF
:101FB30027C70412090A4CC70412090AEFC70412FF
:101FC300090AA2C80412090A67C90412090AC4C982
:101FD3000412090AA3BC0412090A64BD0412090A03
:101FE300D3BD0412090AF8BD0412090AB3BE0412D0
:101FF300090A2AE20412090A54D10412090AA6D1D1
:102003000412090AEBD10412090A69D20412090A5B
:1020130038D30412090A3ED30412090A5BD304120B
:10202300090A95B00412090A59B10412090A91B3B5
:102033000412090A94B30412090AD8B30412090A50
:10204300DBB30412090AE6B30412090AF1B304125A
:10205300090AFCB30412090A0DB40412090AC1B433
:102063000412090A0AB50412090A30B50412090A4E
:102073007BB50412090A97B50412090AC8B50412FC
:10208300090AD8B50412090AE5B50412090AF2B51A
:102093000412090AD5B60412090A13B70412090A6D
:1020A3001DB70412090A3CB80412090A47B80412FE
:1020B300090A59B80412090A62B80412090A6CB869
:1020C3000412090A1DA70412090ACDAB0412090A56
:1020D300AAE20412090A8C4A0012090AD74800121C
:1020E300090A57480012090A1D480012090A5D47E8
:1020F3000012090AD3460012090AA5460012090A6A
:1021030051450012090ABA440012090A1D4400127B
:10211300090AA8430012090A76430012090AB342C6
:102123000012090ADE400012090A6F400012090A70
:1021330041400012090A3E400012090AC53E00123E
:10214300090AC63D0012090A903C0012090AD43B51
:102153000012090A4A3B0012090A503A0012090AFE
:102163001B500012090A404F0012090A7E4D00124B
:10217300090A4A4D0012090A174D0012090AAC391F
:102183000012090AF3380012090AB6380012090AC4
:10219300EA4C0012090AFC370012090AC63700127A
:1021A300090A6D370012090A23370012090A104C75
:1021B3000012090A7E800412090AC4360012090AB1
:1021C30093360012090A5B330012090A1B3300120B
:1021D300090A0F330012090A6F320012090AAF31DC
:1021E3000012090A282F0012090AB92C0012090A41
:1021F300772C0012090A4B2B0012090A002B00123C
:10220300090A3C2A0012090A7F290012090A4F29E8
:102213000012090A6D4B0012090A15290012090A56
:102223000FF60300000080FBE4738F000100D30C62
:1022330087000100D10C24000200160625000200CD
:102243001806260002001A0627000200B10C280017
:102253000100B30C29000100B40C84000400B50C88
:1022630086000100B90C2A000100BA0C2B00010002
:10227300BB0C2C000100BF0C2D0008001E062E0015
:102283000100C00C2F000100C10C30000100C20C82
:1022930031000100C30C32000100260633000100A7
:1022A300270634000100C40C36000100280638005C
:1022B3000100C50C39000100BE0C83000200CF0CE5
:1022C30063000100320664000100BC0C65000100DC
:1022D300BD0C6D000100CE0C6E0002001C06430015
:1022E3000100C60C44000200C70C45000100C90CE4
:1022F30046000200CA0C470008002A0648000100F5
:10230300CC0C4B000100CD0C04000100D20CA10049
:102313000100D60C37000100D50C88000100D40C55
:102323003C000100290600000000000000013636D1
:10233300010100010201000103010001040106067D
:1023430005020000070100340801000F0904010120
:102353000D0100FF0E08000017020000190100FF25
:102363001A0100011B0100FE1C0100081D020000F0
:102373001F01000120010001210200002301000FC1
:10238300240200002601000127010008280200FFA3
:102393002A0100072B0102402C0100002D0100013E
:1023A3002E0100012F0100FF30010B1C310800003A
:1023B3003A0100083B01000F2F01000003007100E8
:1023C30030016000110070003102200350048000CE
:1023D30010006100000014006300730072006200CB
:1023E3004300000013000600000000000400120078
:1023F3000000000000000000040004003700370064
:102403003C024400000000000000000065000000E2
:102413003500810000000500000083000000030474
:102423007104020460041104700402040204010430
:1024330002041004610400041404630473047204AA
:1024430062044304000413040604000400040404A7
:102453001204000400040004000451046400000496
:1024630000040004440400040004000400046504A0
:10247300000435048104640005040004830400049B
:102483000103710301030103010301030103220398
:10249300020301031003000300030003000300030E
:1024A30000030003420300032403060300030003A5
:1024B3000403120325032303250323030403040353
:1024C300000300030003440300030003230300038A
:1024D30065032100350381030003050300030003A3
:1024E3000003010171010101010111010101310128
:1024F300010101018001100161013B00140063012E
:1025030073017201620143010001130106013D01E0
:102513003500040112010001000100010001040162
:102523000401330133013C0144013201360000014F
:1025330000016501000135008101000105018201EF
:102543008301000103027102300160021102700273
:102553000102020202028002100261023A004100FB
:102563006302730272026202430200021302380022
:102573000002000204021202000200020002000232
:1025830004020402370037003C024402000239000F
:102593000002000265020002350281020002050208
:1025A300820283020002000003002001E080000099
:1025B30000002001E180000004004201648000006B
:1025C30005004201538000000600420142800000E2
:1025D30007002001DE80000010004203610D0000AF
:1025E30011002003670C000012001003720D03009A
:1025F30000002103680C0600000020016A0C0000A3
:10260300000000000000000003002001E080000043
:1026130000002001E180000004004201648000000A
:102623000500420153800000060042014280000081
:1026330007002001DE80000010004203610D00004E
:1026430011002003670C000012001003720D030039
:1026530000002103680C0600000020016C0C000040
:10266300000000000000000003002001E0800000E3
:1026730000002001E18000000400420164800000AA
:102683000500420153800000060042014280000021
:1026930007002001DE80000010004203610D0000EE
:1026A30011002003670C000012001003720D0300D9
:1026B30000002103680C0600000020016B0C0000E1
:1026C300000000000000000003002001E080000083
:1026D30000002001E180000004004201648000004A
:1026E30005004201538000000600420142800000C1
:1026F30007002001DE80000010004203610D00008E
:1027030011002003670C000012001003720D030078
:1027130000002103680C0600000020016D0C00007E
:1027230000000000000036000100060000000F005A
:1027330000000000000000000000000003FFFF0095
:10274300000403FFFF0000FFFF0FF4010005C404B2
:102753000320000100020B00000000000000000342
:10276300010F561F921F5C1FAA1F621F981F621F33
:10277300A41F681FAA1F621F981F6E1FAA1F741F22
:10278300AA1F7A1FAA1F801FAA1F861FAA1F8C1F9A
:10279300AA1F00000000000000000000761A1300CA
:1027A3003A1A0100761A0200041A03000A1A0400F6
:1027B300101A0500161A0600221AFFFF0000011A5C
:1027C30010064410083E100B5C1010960F022010E8
:1027D3000532100726100CFC0F0D0E10FF0000032E
:1027E300EAF5E5D5D5C5B5A5959585857575656571
:1027F30055554545353525251515058E14BE1494B7
:10280300149A14B814AC14A614C414CA14D014DC47
:1028130014A0148814821400160F00000B150B0269
:102823000002220F320000067A623230313630392C
:1028330032393130323633370000000000000000F7
:102843008967452301EFCDAB58696E6748756F59AA
:1028530075616E536D6172747E15901596155814DB
:102863009C1552145E14DE15FC150216E415F015C2
:10287300EA1592138C13C813CE13C2137A13303094
:1028830016181920231A1C1E3000034948424D18FC
:102893001725050200011916181616152303000043
:1028A300383C3E363B3B352B432C0C0E020B040BC2
:1028B3000A0708000F303017181921301B1D1F306D
:1028C300D215A215A815B415AE15B214D614F61563
:1028D300E214E8140204020101010109029E13A497
:1028E300139813D41300BE040AAA13BC13000028C0
:1028F300000C000E0004007F00E80315000900042B
:10290300000AFF1E1E0910040810030C05080F031C
:102913000C0174F71204A6E9FE121698EE900C78D7
:10292300F090030E74FCF0A37421F090031074F67E
:10293300F0A37421F090031274F0F0A37421F090CB
:10294300031474EAF0A37421F00243F674F712043B
:10295300A6E9FE900302E4F0EE900301F0900CCAA6
:102963001237661247487C2A7D067A057B03121EBE
:10297300D8900CCCE090030DF00243F674F41204EB
:10298300A68A088B09EB5480605B900301125E4AB0
:10299300604A8E828F83E064017032124ED912072F
:1029A3008CEE2412127229F50A780A12092B122AC4
:1029B3002F120927EE240B122A28120790EE241750
:1029C300125E5A12165674091209558008E0640201
:1029D30070031220E2EEFAEFFB121740AA08E50992
:1029E3006480FB803AEAA2E05017900316124D125E
:1029F300600612376212222BE5086401FAAB0980E4
:102A03001E5402600C900C777401F0EA6402FA80A1
:102A13000EEA54046005EA640480F37A007B000242
:102A23002AFBEE240CF582EF124EE322EE240FF57F
:102A33000AEF3400F50B780A2274F41204A68A080C
:102A43008B098A828B83A3A3A3E02410124402FA86
:102A53001250467003022AEB8E828F837402F0A316
:102A6300E4125009A3A3A3A3E8F0A3E9124B57A3CD
:102A7300A3A3A3A3A3A3F0E5082403F8E509123F46
:102A8300AF241012426E8E828F83A3A3A3A3F0EE12
:102A93002409FA122AED12468FF5838882E0A2E513
:102AA3008E828F83A3A3A3A3A3500474018001E4A4
:102AB300F0E5082403F888828983125DA3EA12688B
:102AC30061EB122A2B12506E1209231263CFEB1201
:102AD30048158E828F83A3A3124EF2120955EEFA84
:102AE300EFFB9003011250B3800EEF3400FB8E8294
:102AF3008F83A3A3221209557F040206C174F21225
:102B030004A68A088B09ECFAEDFB740E120BABE0FA
:102B1300FC1216C88A0C8B0DAE0CAF0DEE4F602362
:102B2300AC08AD091216B6E96019AC08AD09EEFAA6
:102B3300EFFB1216BCE97007EEFAEFFB1216B07941
:102B430000800279B40237C174EE1204A674F7123E
:102B530009E98A0A8B0BECFEEDFF750FB3750E00C6
:102B6300750C00750D00800CE50C2401F50CE50DCA
:102B73003400F50D9028F8E493F8740193F9C3E554
:102B83000C98E50D994003022C6BAA0CAB0D1217A0
:102B9300168A088B09EA450960CE8A828B83A3A330
:102BA300A3A3A3E0250EF50EF510C3E50A9510E5E2
:102BB3000B940050B37C157D007900EEFAEFFB1205
:102BC3004CC0A3A3A3A3E50AC3950EF8E028C3331F
:102BD300F8E433F9E50828F582E50939F583A3A379
:102BE300A3A3A3A3125480A312453EEAFCEBFDEE7C
:102BF300FAEFFB123FCCA3E06401700A124ED974C2
:102C0300011238A28043851882851983AC82AD8373
:102C1300850882850983125DA11216FEE9602D7471
:102C230008120BABE0C0E0124ED9D0E0F0740812EA
:102C33000BABE06403851882851983700CAC82ADFD
:102C430083EE240B12388F800312473C850882855C
:102C53000983123EB4A3A3124FCCC0E0EE24141296
:102C63002A28D0E0F0750F00A90F74091209557FC7
:102C73000A0206C174F71204A6E9FE8A828B83A3B3
:102C8300A3A3A3A3A3E0540860298A828B83A3A3ED
:102C9300A3A3A3A3E0540260178A828B83A3A3A3F5
:102CA300A3A3A3A3A3A3E06406600574E96E700362
:102CB3001221DE0243F674E81204A674F71209E93E
:102CC3007407120BAB124CD9E9851882851983F06E
:102CD300ECFEEDFF7424120BAB780C120B4E751344
:102CE300008E828F83125D9D8E828F83A3A3A3E0C8
:102CF300F91216D48A148B15EA45157003022EC2F5
:102D0300EE2410125620A914120E9A8A168B17EA73
:102D130045177003022EC2EE2406F510EF3400F5BA
:102D2300117C00851082F583122F148E828F83A36A
:102D3300A3A3122F09125AA3F8A3E0F985168285DB
:102D43001783A3A3A3A31239A4122F09A3A3A3A395
:102D530012581D851682851783A3A3A3A3A3A3F0EB
:102D6300EE126861EF123183120923EE1263D0EF82
:102D7300124815851682851783A3A3A3A3A3A3A330
:102D8300A3A3124EF2120955751000022E42850AB2
:102D930082850B83125DA11217048508828509833E
:102DA300A3EAF0A3EB124F05A3A3124BFA1250CAE6
:102DB300E0A2E6500F850882850983A3A3A3A3A3FA
:102DC300E0D2E1F0E5137063850882850983A312DD
:102DD3005FBE90036CE0687003A3E069704D8508E3
:102DE30082850983A3A3A312562D780C12091F749D
:102DF30027120BABE0F50A780A12092B7426120B83
:102E0300AB12079090037912079079007410120B9C
:102E1300AB124B4712216C74091209558508828540
:102E23000983A3A3A3A3A3E04405F074012510FC25
:102E33008E828F83A3A3A3A3A3A3122F140510E54C
:102E43000A450B6052851008C3E5089514E49515EF
:102E53005045E51075F006A4F8A9F0E51628F8E545
:102E63001739F9E8240CF508E9123D73E4124EFB17
:102E730064016003022D917513018508828509831E
:102E83007401124F00F8A3E0F9850882850983A332
:102E9300E8F0A3E9022DA8AA16AB17120EA0781624
:102EA3001209277425120BABE0FC7402120BABE082
:102EB300F9EEFAEFFB1221E4740212095580428EF7
:102EC300828F83A3A3A3E0C0E07404120BABD0E012
:102ED300123BBDE0C0E07405120BABD0E0F0E5148B
:102EE300451570097406120BAB74B980077406128A
:102EF3000BAB7410F07401120BABAA82AB831221DB
:102F0300727409026A7AE0851682851783A3A3A3E4
:102F1300221254698E828F83A3A3A3E0F91216DAD7
:102F23008A0A8B0B2274E81204A674F31209E98A45
:102F33000A8B0B89178C167425120BAB127244AAD9
:102F43000CFB120E8EE9F514AA0CAB0D120E94E9CC
:102F5300F515E5147003023175751300800F8E8229
:102F63008F83A3A3A3A3A3E0D2E3F00513E50C246B
:102F73000BF582E50D12330AE513C39840030231C2
:102F83006CE514700302316CE51375F006A4F8A91F
:102F9300F0E50C28F8E50D39F9E8240CFEE9127088
:102FA30018A3A3A3A3E0A2E040C1750E008E828FF5
:102FB30083E07043125DA2120D868A088B09A8086C
:102FC300A909E849603188828983A3A3A3A3E064A4
:102FD30001600D88828983A3A3A3A3E06403701710
:102FE3008E828F83A3A3A3A3A3E0D2E7F0750E0180
:102FF300E5157003022F6E750F007508087509003B
:10300300E5166003750F20124C60E060339003BC3B
:10301300E064017017E50FD2E3F50F7509108E8296
:103023008F8312472712452D74FF8024430F0C759D
:10303300080C8E828F83A312318F126A11A3801022
:10304300E5176009E50FD2E6F50F75080A1231A6F8
:10305300F07402120BABE50F125AC2C0E0740412F3
:103063000BABD0E0F07405120BAB124414120BAB94
:10307300E060030231477408120BAB123DB48E8239
:103083008F83A3A3A3A3F07408120BAB12366FF5BF
:1030930083E508F0A3E509124A72E060119003BCCE
:1030A300E0C0E07408120BAB123668D0E0F0850C78
:1030B30082850D83A3A3A3E0C0E07408120BAB12B7
:1030C3006555D0E0126591C0E07408120BAB12365F
:1030D3007AD0E0F07408120BAB12318FA3A3126500
:1030E3005C125AAC125DA1E82428F582E91256134A
:1030F300125AB8C0E0E8242EF582E9122A2BD0E058
:10310300F07408120BAB125DA3850A82850B831240
:10311300317A2424F582EB12474512685FE50B12DE
:10312300318312092312480DEA242BF582EB122A6C
:103133002B124EF2120955851882851983AA82AB88
:10314300831220D68E828F83A3A3A3A3A3E0D2E00E
:10315300F0740C120BABE06003022F61E50EA2E0EA
:10316300500215151514022F6E7900AA0CAB0D121F
:1031730021D8740D026A7AA3A3A3A3125FC2EA2221
:10318300124EE3125A78751200781022125FC2852C
:103193000A82850B83A3A3A3A3228E828F83A3A377
:1031A300A3A3A3A312472CE8F0A3E92274F2120409
:1031B300A674EB1209E9EAFEEBFF89088E828F837E
:1031C300A3A3A3A3A3A3A3A3E0F9120EB88A0A8B14
:1031D3000BEA450B607FE50870047C0480027C08E1
:1031E3008E828F83A3A3A3A3A3A3A3A3E0F9120EA9
:1031F300BE122A25124D12605C88828983125D9F5C
:103203007406120BAB12325D125DA37408120BAB82
:1032130012325DA3A3E0C0E07410120BABD0E01236
:103223005ACF125DA3740E120BAB124CD974111248
:103233000BABE4125808F9780A120927742059FCD9
:10324300744059F97402120BABAA82AB831221E4C6
:10325300740212095574150237BEEAF0A3EB123259
:10326300652212469FA3A3A3A3A3A32274F7120468
:10327300A674FA1209E9E9FE7F018F087D00800434
:103283007508000D1243FB12330AEDC3985025ED68
:1032930075F006A4F8A9F0EA28F8EB39F9E8126802
:1032A3005AE912545B50D9540C60D5E0A2E250D3D2
:1032B3007F0080CF8A828B83A3A3A3A3A3A3E07001
:1032C3003EE508A2E0400574016E70338A828B8369
:1032D300A3A3A3A3A3A3740112640EE0C0E0740329
:1032E300120BABD0E0126406E0C0E07404120BAB27
:1032F300D0E0F07405120BABEF1246F61221727494
:10330300060243F3F582EF125818F822C082C083F5
:1033130079011221D8023888C082C083EA4B601831
:103323009003B8E064027010900C77E4F0EAFCEBD1
:10333300FD7A021233508012900C777401F07A02F6
:103343007B00900301E0F91218540238887B009047
:103353000301E0F91218482274F21204A674F3125E
:1033630009E9EAFEEBFF8E828F83A3A3A3A3A3A3A2
:10337300A3A3A3A3E0F50A900C77E0700579BA0242
:103383003663750801750900750C00750D007C081E
:103393007D007900851882851983AA82AB83121771
:1033A300287405120BAB740112368B54046012742B
:1033B30002120BABE0D2E612368B54087003750889
:1033C30003E05410600674404508F508E0540860B3
:1033D300227402120BABE044C012368B5420600AF5
:1033E3007403120BABE0D2E080087403120BABE062
:1033F300D2E1F08E828F83A3A3A3A3A3A3A3A3E00D
:103403007018121128851882851983124CD97402F9
:10341300120BABE0D2E2F00234C2640F70157402F7
:10342300120BABE0D2E31250CB124CBA4508F508AD
:103433000234C28E828F83A3A3A3A3A3A3A3A3E077
:1034430064028E828F8370051231A780C9A3A3A360
:10345300A3A3A3A3A3E06403701385188285198330
:10346300AC82AD83EEFAEFFB12219C80528E828FE9
:1034730083A3A3A3A3A3A3A3A3E064017041900325
:10348300BCE0601C7402120BABE0D2E31250B985AE
:103493001882851983124748750910750AFF801829
:1034A3007402120BABE0440C12657E74FDF0A3743E
:1034B300FFF074044508F5088E828F83127244125C
:1034C3005455503A7402120BABE0540C701B8E82AD
:1034D3008F83125DA3121B48E9700579BB02366323
:1034E3007402120BABE0D2E5F01254555010740283
:1034F300120BABE0540C64047004E0D2E5F0EE244C
:1035030011127229C0E07404120BABD0E0124416FE
:10351300120BABE0600302365C7408120BAB12367D
:103523006F123681EE2418127229C0E0E812684B3C
:10353300E9122A2BD0E0F0EE2419127229C0E074AC
:1035430008120BABE02413123D7CD0E012454B6410
:103553000170119003BCE0C0E07408120BAB12368B
:1035630068D0E0F07408120BAB1242462417FAEF4E
:10357300124275FCE8241CF582E9122A2BECF0A315
:10358300E4125164E0C0E0E82422F582E9122A2B18
:10359300D0E0F07408120BAB12367AE50AF0740827
:1035A300120BAB12425B2424F582E9125D68A3E59A
:1035B3000D125DC6FCA3E0FDE82426F582E9122A7C
:1035C3002BECF0A3ED123A48124C90E82428F58234
:1035D300E9122A2B125FC6C0E0E8242FF582E91214
:1035E3002A2BD0E0F0EE241B127229C0E0740812DB
:1035F3000BAB12654ED0E0F0EE241A127229C0E034
:103603007408120BABE0242E123D7CD0E0126576D9
:10361300125056120923EE2411124C89740B120B0B
:10362300AB124EEC120955EE241512722954406068
:103633001B900328124D126013851882851983AAE3
:1036430082AB8390032912376212222B851882855D
:103653001983AA82AB831220D6740C120BABE0F948
:10366300740D0237BEE02415123DA22212425F24DC
:103673000FF582E9340022E02423123DA222F583D0
:10368300E508F0A3E509F022F0EE241512581522FF
:1036930074F71204A67E638A828B83E0600C79053B
:1036A300120CA8E9F87456C398FE900364E0600C0A
:1036B300F9120CA8E9F8EEC39824F2FEEEF90243DE
:1036C300F674F61204A674FE1209E98518828519A8
:1036D30083124CD9E9FEECFAEDFB740C120BABE050
:1036E300FC9004AE124D12603285188285198385D1
:1036F300820885830978081209277D01EEF9900471
:10370300AE12375F12222B74021209558B09EA4558
:103713000960047900800679B2800279B60238E93B
:1037230074F71204A6E9FE7409120BABE0FF9003D1
:103733000E124D12601AEFF508780812092BEEF9F4
:1037430090030E12375F12222B7401120955800267
:1037530079B60243F6EEFAEFFB900320E0F8A312EA
:10376300400022125FC29003032274F21204A68A5D
:10377300088B09ECFEEDFF750A0190036CE0650808
:103783007004A3E065097005124B40802A12112EC4
:103793008A0C8B0DE508650C7004E509650D70094D
:1037A300EEFAEFFB121134800EEEFCEFFDAA08AB2C
:1037B30009120D20E9F50AA90A80031209557F06AB
:1037C3000206C174F51204A6EAFEEBFF8C088D090C
:1037D300750A01126CAE123898700B90036C12408C
:1037E3002E124748800EAC08AD09EEFAEFFB120D1E
:1037F30026E9F50AA90A02613A74F61204A6EAFE5A
:10380300EBFF7A0C7B001217BEEA4B606BEE2420B1
:103813001272298A828B83F0EE242112387EF0EE15
:10382300242212387EA3F0EE242312387EA3A3129F
:103833004F25125A95E8F0A3E912580D125A96A390
:10384300A3E8F0A3E91256338A828B83A3A3A3A32D
:10385300A3A3A3A3F0EE242F127229C0E01243FB0B
:10386300122A2BD0E0124CDF8A828B83A3A3A3A35B
:10387300A3A3A3A3A31247480238EE1258158A82C2
:103883008B83A322F0D083D082020907FAEF34009E
:10389300FB121ED822124532221238A2A3E02212B2
:1038A30038A6221238AA22125001A3A322124B6572
:1038B300A3E02274F61204A6ECFEEDFF79B39003A5
:1038C30063E07020900395E064017018EE12685A6B
:1038D300EF12702CEE240F124742E849600479007E
:1038E300800279A1800574021209557F020206C184
:1038F30074F41204A674FE1209E9ECFEEDFFEE2443
:103903001612722964057011EE2406FCEF3400FDD3
:103913001221A2E9700302399D851882851983ACAF
:1039230082AD831267A0123B2F124D126068E875B7
:10393300F009A4F8AAF075F009E9A42AF974ED28AE
:10394300F874F339F9E8FAE9FBEE2412122A28C0D5
:1039530082C0838A828B837808120B4ED083D082F5
:103963007808120B1E402B85188285198312424654
:10397300240F122A281239A47808120B4E9080AC17
:103983007808120A658A828B837808120B6C790097
:10399300800A79A2800679A1800279C87402022A7A
:1039A300F8E8F0A3E9123BC12274F41204A674FFF1
:1039B3001209E9EAFEEBFF900363E070759003954B
:1039C300E06401706D75083A7509007808120927DB
:1039D3007402120BAB8582088583097808120927C4
:1039E300123A3A120955E9703EEE126861EF12403D
:1039F30038124B08C0E0EE2411122A28D0E0123A04
:103A030048743A12581D900330120B88EE24121298
:103A13002A28120B949080AC7808120B4E90033036
:103A23007808120A52800BEE240FF582EF1243E45A
:103A3300A3F07401022AF87C017D007A007B001256
:103A43001308740422F0EE240F124EE02274F012D5
:103A530004A674F61209E9ECFEEDFF7402120BAB37
:103A6300AC82AD831221A2E97003023B2A8518823E
:103A7300851983AC82AD837402120BABAA82AB832C
:103A8300123B2F124D127003023B2AE875F009A472
:103A9300F8AAF075F009E9A42AF974E928F874F38F
:103AA30039F988088909EE240E123B39124B08F8BC
:103AB300A3E0F9EE240F124FF2120B88EE24121238
:103AC3002A28120B949080AC780C120B4E85088236
:103AD300850983780C120A52850882850983780840
:103AE300120B4E9080A8780C120B4E7808790C12AA
:103AF30003C8E50C450D450E450F702B85188285CF
:103B0300198312425B75F009A4F8AAF075F009E96C
:103B1300A42AF974F128F58274F339F5837401F05A
:103B23007A007B10123B41740A023BCC121B4E8578
:103B3300188285198322F582EF124EE3E422900561
:103B430027E0F91217762274F01204A68A088B096B
:103B5300ECFEEDFFEE240FF582EF1243E4A3123BDC
:103B6300BDC082C0839080C0780C120B4ED083D02E
:103B730082780C120A296032123BB1700512218A35
:103B8300802AE070051221848022640270131221BE
:103B930084E96018EEFCEFFDAA08AB09121B7280E2
:103BA3000BE0640360DF79A1800279A3801EEE2419
:103BB3000EF582EF125818640122123BC122F0EE77
:103BC3002412F582EF124EE7221209557F080206EE
:103BD300C174F61204A6EAFEEBFFEE240AF508EF21
:103BE300126A0C850882124C8EEC240F1243E112E8
:103BF3004CAA12215A850882850983124D0F706BD6
:103C0300123D807003A3E069600A123D627003A352
:103C1300E06970578E828F83A3A3A3A3A3A3A3A357
:103C2300A3A3124C908E828F83125DA3121B78E99B
:103C330060188E828F83A3A3A3A3A3A3A3A3A3A389
:103C4300E0240F123D7CE4F0A3F08E828F83126593
:103C5300468E828F83A3A3A3A3A3A3A3A3A3A3702B
:103C6300051240288004124006E4F0124D01701A38
:103C7300123FB3125DA312217E8508828509831248
:103C83004D0F7006122A2574A1F00238EE74F61255
:103C930004A6EAFEEBFFEE240A123FC27A187B0069
:103CA3001217BE850882850983123DB9F8A3E0F98E
:103CB300E8497003023D59EEFAEFFB12214E124D13
:103CC30001607F123DA664017007123D8D740E8062
:103CD30034E064027007123D8D740D80288E828F4C
:103CE30083A3A3A3A3A3A3124D1270EA123D807072
:103CF30003A3E06960E0123D627003A3E06960D64C
:103D0300123D8D7405124CB3540364017007123FC6
:103D1300E67405800B900364E0C0E0123FE6D0E058
:103D2300F0EE240AF508EF123D73123FF4123EB988
:103D3300C0E0850882850983E02417123D7CD0E02A
:103D430080198508828509831243A1850882850924
:103D530083E4F0A38005122A257410F00238EE12D2
:103D630011288A088B09A808A90990061CE0682273
:103D7300126A0C850882F58322123DA2228E828F5D
:103D830083125FC290061CE068228E828F83A3A3F6
:103D9300A3A3A3A3A3A3A3A3E02416123DA22212C9
:103DA3004011228E828F83A3A3A3A3A3A3A3A3A3C0
:103DB300A312400AE022EAF0A3EB123DC122125003
:103DC30001E02274F11204A68A0A8B0B8C088D0978
:103DD3007A18125F197003023EAC8E828F837401CE
:103DE300F0E508240DF8E5091267A9C3E49AFA95EA
:103DF300E0FB126866125617FB8E828F83A3A3A380
:103E0300A31258048E828F83A3A3F0EEFAEFFB1262
:103E13000C5485088285098312654870098E828F48
:103E230083A374058006900364123EB4F0EE241756
:103E3300F8EF3400F9880C890D8E828F83123EB817
:103E4300850C82850D83F0EE2416F8EF3400F9E536
:103E530008240EFAE5093400FB88828983124A5448
:103E6300E50824100A0AE5093400FB850C82850D58
:103E730083E0FC88828983E0F88A828B83E0C3989D
:103E8300C39C12515BF0EEFCEFFDAA0AAB0B1221AF
:103E930054E9F508700AEEFAEFFB120C60E9F50835
:103EA300EEFAEFFB1217C48003750810A908026C21
:103EB300D1124B5E22A3E0F9120CA8E92279010288
:103EC300090774F41204A6EAFEEBFF8E828F83A324
:103ED300A3A3A3A3A3A3A3125DA7126548706B12A8
:103EE3003DA670668E828F83A3A3A3A3A3A3A3A3DC
:103EF300E0242B123D7C124020704F8E828F83A3CF
:103F0300A3A3A3A3A3A3A3E0242BF88882898312EA
:103F13003FF4E0F8740168600A740668600574058C
:103F23006870138E828F83A3A3A3A3A3A3A3A3A3C6
:103F3300A312402880138E828F83A3A3A3A3A3A3DA
:103F4300A3A3A3A31240067403F0123FB312375F77
:103F5300E4F0EE2408F8EF123FAF242D12426EC0B6
:103F6300E0123FDAD0E0125808242A12426EC0E071
:103F7300123FDAA3D0E0125808240B123D7C124002
:103F83002E1240C712453E8A0A8B0BAC0AAD0B8535
:103F93000882850983E0240612546F123FCC125D18
:103FA300A3120C60122A25E9F0022AFB1246822290
:103FB300EE240A123FBA22123FC28882F58322F806
:103FC300EF3400F98808890922123FD022121ED843
:103FD300850882850983228508828509831240CB5F
:103FE300A3A3228E828F83A3A3A3A3A3A3A3A3A389
:103FF300A3123FF822E0F8123FFFA322A3E0F583C8
:1040030088822212400A22E0240E1240112212401A
:104013001522F8A3E03400F98882898322E0F8129C
:1040230048D264052212400A740222125FC2850834
:104033008285098322124EE3740122023EC0C082AC
:10404300C08390031E7448F0A37421F0900320747E
:104053003CF0A37421F09003227436F0A37421F092
:104063009003247442F0A3742102388774F4120479
:10407300A6EAFEEBFF1240D4F5081211288A0A8B38
:104083000BA80AA90B8E828F831240C7E0687003C6
:10409300A3E069602CE508A2E550268E828F83A3F6
:1040A300E0FB90031E12375F12222B8E828F83E078
:1040B300F8A312522DA3124D1270061240D4C2E57A
:1040C300F0022AFB1240CB22E0FAA3E0F5838A82B6
:1040D300228E828F83123FF8A3E02274F51204A686
:1040E30012423412425B2420F582E912722CFE74D0
:1040F300035EF50A124A3E122A2B1242468882892F
:1041030083F0A3A882A983E50A60097402650A60A3
:10411300030241A5740C5EFF601574086F60107490
:10412300046F701D7402650A7005EEA2E4402D8AC7
:10413300828B83A3A3A3A3A3A3A3A3E02423124259
:1041430096740C6F701012422F242412427E242482
:104153001242411242997402650A7005EEA2E440CC
:104163004112422F242612427E242612424BA312CE
:1041730042A812424B1242A8124241124299EF60E6
:104183000F74086F600A740C6F600574046F70120B
:104193008A828B83A3A3A3A3A3A3A3A3E0242212B2
:1041A30042968A828B83A3A3A3A3A3A3A3A31242AE
:1041B300647005EEA2E150178A828B83A3A3A3A3A5
:1041C300A3A3A3A3E0242E124A4512428F800E908C
:1041D300030212428F900302E00412469FA3A882B7
:1041E300A983EEA2E7504212422F242112424B121E
:1041F30042998C828D83124264602E8A828B83A3C0
:10420300A3A3A3A3A3A3A3E02430124296EEA2E1A7
:1042130050178A828B83A3A3A3A3A3A3A3A3E024FE
:104223003112426E88828983F002613A124234E08D
:1042330022EA2408FCEB3400FD8C828D8322124A8F
:1042430049A322125FC2EE2212424F22F508A3E0D5
:104253003400850882F5832212425F221250C4E89B
:1042630022E02421124A49E0540322FAA3E0124235
:1042730075223400FB8A828B83E02212424F124262
:104283008FA3A882A9838C828D83E022E088828910
:1042930083F022124A4912429D22E088828983F0E8
:1042A300A308A9832212429D8C828D83E0242822B5
:1042B300C082C0838A828B831240D8F8740358F972
:1042C3008A828B83A3A37401F0E960057402697089
:1042D30061740C58FC601474086C600F74046C7087
:1042E300137402697005E8A2E4401D8A828B83A3DC
:1042F300A37402F0740C6C700A8A828B83A3A3E00C
:104303002402F07402697005E8A2E440258A828BD6
:1043130083A3A3E02404F0EC600F74086C600A74B8
:104323000C6C600574046C70098A828B83A3A3E010
:1043330004F0E8A2E750318A828B83A3A3E004123E
:104343005FCAF9A3E0F5838982A3A3A3E0540360C2
:10435300178A828B83A3A3E004F0E8A2E150098AC1
:10436300828B83A3A3E004F08A828B83A3A3E0045C
:10437300023887C082C0838A828B83A3A3A3A3A3AB
:10438300A3A3A3A3A3124D1260098A828B83A3A3C1
:10439300124399023888A3A3A3A3A3A3A3A31254EC
:1043A300691217C42274F71204A6EAFEEBFF125F28
:1043B300BA88828983A3A3A3A3A3A3A3A3E4F0A39B
:1043C300123265A3A3A3A3F0A3F0E8125D4AE91296
:1043D30043E412211EEEFAEFFB12212A8015F58227
:1043E300ED124EE3E4F022740C120BABE0F9740D02
:1043F3001209557F010206C1EA240BF582EB221252
:1044030066C2240922124EE3127248750E00780C1C
:104413002274011246FA1244B42274F51204A674EB
:10442300F31209E9EAFEEBFF7C087D0079008518A9
:1044330082851983AA82AB8312172812319D124AEF
:1044430081C0E07404120BABD0E0F07402120BAB2A
:10445300740112454BC0E07405120BABD0E0124A55
:1044630087640170097402120BABE0D2E5F01244C9
:10447300AA120BABE0702D8E828F8312506C12093F
:10448300238E828F83A3A3A3A3124818740B120B4A
:10449300AB124EEC120955851882851983AA82AB9B
:1044A300831220D602612E851882851983AA82ABD6
:1044B300831220DC740C2274F71204A674FE120912
:1044C300E9ECFEEDFF7508C8851882851983AC8277
:1044D300AD8312219CE96401704985188285198393
:1044E30012523A12452DA3A3E4F0900632E0601B6A
:1044F3008E828F83A3A312402070108E828F83A39A
:10450300A3A3A3A3A3A3A37401800D8E828F83A36C
:10451300A3A3A3A3A3A3A3E4F0EEFAEFFB12210C3E
:10452300E9F508A90874020243F3124B32A32212DD
:104533001ED2E9640122124FF9E022A3A3A3A3E848
:10454300F0A3E9F012112222125640A3E02274F6DE
:104553001204A674F41209E9EAFEEBFF12319D126C
:104563004678FAA3E0F5838A82A3E0FA7402120B79
:10457300ABEA1258082402124B0F7404120BAB124D
:104583004748EA600A7402120BABE06404701C1221
:10459300466C12546F7406120BAB124672124B0F19
:1045A3007408120BABE8F0A3E98056E06401600ADB
:1045B300E064066005E06405702312466C12426EE7
:1045C300C0E07403120BABD0E0125808241312544A
:1045D3006F7406120BAB125804241B80C0740612AE
:1045E3000BABE4F0A3124678241212546F74081232
:1045F3000BAB1246721266BEC0E0740A120BABD04C
:10460300E0F07406120BAB124D1260287406120B05
:10461300AB125DA3120D14E9640170181211228A02
:10462300088B09AC08AD097406120BAB125DA3121B
:104633003898700F851882851983AA82AB8312215B
:10464300668021851882851983AA82AB83121B5445
:10465300E96401700FEEFCEFFD7406120BAB125D03
:10466300A3122106740C0238EB12467D2412221287
:104673004696241A22F012467D22EE2402F8EF1207
:104683004687E0223400F98882898322124696F80D
:10469300A3E022EAF0A3EB12469FE022F08882898E
:1046A3008322C082C08374FC1209E912471E124799
:1046B300488A828B83A3A3E0124B0D7402120BABC7
:1046C3001246F212216074048000120955023888E0
:1046D300C082C08374FD1209E9124706C0E0740268
:1046E300120BABD0E01246F612169E740380DBE881
:1046F300F0A3E91246FA22F0851882851983AA826B
:10470300AB83228A828B83A3A3A3A3A3A3124AFF0F
:104713008A828B83A3A3123FF8E0228A828B83A32E
:10472300A3A3A3A3A312472C2212473022E0F8A38A
:10473300E0F985188285198322125FC2EE240BF5F6
:1047430082EF124EE3124B0222AA82AB8312171C92
:10475300740322124B029003302274F41204A674E1
:10476300FB1209E9EAFEEBFF8E828F83A3A31242B9
:104773005B2409F508E9126A0C7403120BABAC82D3
:10478300AD8388828983A3AA82AB8312219CE964C7
:1047930001706A8518828519837432124A8124F75D
:1047A300C0E07401120BABD0E0F07402120BABE467
:1047B3001246F6120DE68A0A8B0BAE0AAF0BEE4FCA
:1047C300603B7403120BAB124805A3A3124539C017
:1047D300E0EE2420122A28D0E0F0750A00780812AF
:1047E3000923EE127013EF124815EE240B122A2838
:1047F300124EF2120955EEFAEFFB120DE0740502A8
:104803002AF8125FC28E828F8322E50A2410F58272
:10481300E50B124EE3E0FC7D0022C082C083124808
:1048230049600E24FE600F24FE601024FB6011809B
:1048330012122100800D1220FA80081220F4800346
:104843001220EE0238888A828B83A3A3E0F81248F1
:10485300D224FB22C082C0838A828B83A3A3A3A317
:10486300A3A3A3A3E070528A828B83A3A3E0F812CD
:1048730048CE640160431248C86402603C1248C8D1
:10488300640360351248C86404602E8A828B83A354
:10489300A312402260231248C8640A601C1248C84D
:1048A300640B60151248C8640C600E1248C8640D8E
:1048B30060077904121EC0800990032612375F1225
:1048C300222B0238888A828B83A3A31248D2221216
:1048D3003FFFE02274F61204A674FA1209E9EAFE15
:1048E300EBFF7403120BABEEF0A3EFF07403120BA8
:1048F300ABAA82AB831221121272266003024A39D9
:104903008518828519837432F07405120BABC0824B
:10491300C0838E828F83A3A3A3A3E0D083D082F826
:10492300E028C0E07401120BABD0E0124A87C0E06C
:104933007402120BABD0E0124A6CF8A3E0F9E84919
:104943006026E82417F582E9122A2BC082C083E887
:104953002416F582E912722CD083D082F8E028F86D
:104963007401120BABE028F0851882851983AA82A3
:10497300AB83120DE68A088B09A808A909E84970D8
:1049830003024A2C8E828F83125DA388828983A3BC
:10499300A3EAF0A3EB124A72A3A3E0C0E0E8242049
:1049A300F582E9122A2BD0E0126591C0E0E82421B8
:1049B300F582E9122A2BD0E0124A81C0E0E8242ACA
:1049C300F582E9122A2BD0E0F07405120BABE0FA62
:1049D300124A3E12722C2A12546FE8242B124CD323
:1049E3007405120BABE0C0E0E8242DF582E9122A2E
:1049F3002BD0E0124A6CFAA3E0FBEA4B6019E824DF
:104A03002BFAE9122AEEA3A3A3A3A3A3A3A3E0244F
:104A130016124A45124A548E828F83A3A3A3A3A3DB
:104A2300A3A3A3E8F0A3E9800CEEFAEFFB1221188D
:104A3300122A257410F074060238EBE8240BF58271
:104A4300E922124A4922FCA3E03400FD8C828D83C3
:104A530022E0FC8A828B83E02CFCA3E03400FD8AF5
:104A6300828B83ECF0A3EDF022125168A3E022F0D5
:104A7300E812684BE9124EE374011250CB22125133
:104A83005FA3E022124B1CE02274F71204A6EAFE95
:104A9300EBFF127226701E124AC2124D12600612EA
:104AA300375812222B127226700B125D97120DE0EB
:104AB300122A25E9F0EEFAEFFB1221180243F6124F
:104AC30021248E828F83A3A3A3A3A3A3A3A3A3A31E
:104AD3002274F61204A6EAFEEBFF8C088D09121B62
:104AE30048E9700479018011AC08AD09EEFAEFFBD7
:104AF30090032412375F12222B0238EE124730E85C
:104B0300F0A3E9F022126582E0222401F8A3E03445
:104B130000F922124B1CA3E022124B2022124B2439
:104B2300221250CFA3A3A3A3A322124B32E022E865
:104B3300F0A3E9124B3A221250CFA3A322126CB274
:104B4300121ED822124C94EEFAEFFB22E0242B1211
:104B53004015E0221238A2124B5E22E08E828F8330
:104B6300A322124F39A3A3A3A32274F61204A6749B
:104B7300F31209E9124C5C124CBA120BAB740CF031
:104B83007405120BAB740112563B60097402120BCD
:104B9300AB742180077402120BAB7401124416121A
:104BA3000BABE070327408120BAB124C0474061298
:104BB3004A81124C78EE2402F8EF124687124BEF2B
:104BC30012641F124BEFA3124B16C0E0124BE612F6
:104BD3002A2BD0E012658A740C120BABE0F9740D2A
:104BE3000238EBE508240BF582E50922124BFAA300
:104BF300A3A3A3A3A3A322E0850882850983A3A378
:104C030022124CA2880889098882F5832274F7123C
:104C130004A674F31209E9124C5C124CBA120BABE2
:104C23007409F07402120BAB7421F07405120BAB10
:104C3300124414120BABE0701D7408120BAB124C30
:104C43009A7407124CB3124C78851882851983AA7B
:104C530082AB831220D60243EAEAFEEBFF7C087D97
:104C6300007900851882851983AA82AB83121728DD
:104C73008E828F8322FCA3E0FD88828983A3AA828C
:104C8300AB83121ED822F582EF3400F583124C94C5
:104C930022E0FCA3E0FD22124CA288828983221227
:104CA3004B4FF8A3E0F9221250CA1254692274013F
:104CB3001250CBA3A3E022124AFF74042212172836
:104CC300850882850983A322E0F508A3E0F509227C
:104CD300F582E9124EE3EAF0A3EBF022124CE32251
:104CE300124B3A1250C422C082C083124CFA74E8A9
:104CF300F0A37420023887122130900326228E827B
:104D03008F83A3A3A3A3A3A3A3A3A3A31258221292
:104D1300425F492274F71204A6E9FE124D44122A97
:104D23002B124D12601888828983A3E05403700EFE
:104D3300EEFB124A3E122A2B124D75124D6F02439F
:104D4300F6EA125D4AEB22C082C083EAF8EBF988E7
:104D5300828983A3A3A3A3A3E0FB88828983A3A35C
:104D6300A3A3124D75A3124D6F023888E0F91216F2
:104D73005022E0FA88828983A3A32274E81204A64E
:104D83008A088B098C168D178914741A120BABE0E1
:104D9300F50AA3E0F50B741C120BABE0F513741DBD
:104DA300120BAB780C120B4E1263CFEB12722C2446
:104DB3002DFA7B0012173A8A108B11AE10AF11EE49
:104DC3004F7003024EC08E828F837401F0850810EA
:104DD30085091175120078101209237C157D00EEE8
:104DE3002418124ECA12095585161085171178100A
:104DF3001209237C097D00EE2402124ECA120955C2
:104E03007418120BAB12473C850A82850B83E0C0F2
:104E1300E0EE240F122A28D0E0124F00C0E0EE2467
:104E230011122A28D0E0124EFBC0E0EE2410122A01
:104E330028D0E0123BBDE513124F25E4F0A3F01296
:104E43004ED9780C120B6CEE2417122A28E5141293
:104E530038B0F8A3E0F9EE240D122A28124F1F12DE
:104E63006A2E12722C6025EE242612544D242DF83E
:104E7300124F17126868124408120923126A2C127F
:104E830048158A828B83124EF2120955EE241912A9
:104E930072295403601D90031C124D12600CEEFA2C
:104EA300EFFB12376212222B8013EEFAEFFB12177D
:104EB30040800AEEFAEFFB9003011250B3026A7DC1
:104EC3007C087D00EE2404FAEF124ED0223400FB5E
:104ED30012171C740322EE2413124EE022F582EF04
:104EE300124EE7223400F58322E0242B123DA21256
:104EF300546912171C740322124F0EE022124F053D
:104F0300E022124F0922124F0EA322F0850A828556
:104F13000B83A322EF3400F98A828B83124B02E5C1
:104F23000822F0EE2426124EE022F50CA3E0F50D44
:104F3300750E00780C221238AAA3A3A32274F112CF
:104F430004A68A088B097A20125046606F8E828FDE
:104F53008374061250628E828F83A3A3A3A3123895
:104F63009C8E828F83124FCC124F2D1209237C10FB
:104F73007D00EE2406124ECA120955850882850962
:104F830083A3A3A3124FC22416FAEF3400FB120D1E
:104F93000E850882850983A3A3A3A3A3A3A3A3A325
:104FA300A3E0C0E0EE241E122A28D0E0124FDCC09A
:104FB300E0EE241F122A28D0E0124FE4026CD1A3A2
:104FC300A3A3A3A3124C94EE22A3A3A3A3A3124FC0
:104FD300D5221238A6A3A3E022F0124BE6125818EA
:104FE30022F0EEFAEFFB900527E0F91217462212A2
:104FF3004EE0124FF922E8F0A3E912500122F085A6
:1050030008828509832212500D22123DC1F8A3E0C4
:10501300F98E828F83A3A32274F41204A68A088BC9
:10502300097A0C12504660188E828F8374081250CE
:1050330062125056120923124EC31209551250AC74
:10504300022AFB7B0012173A8A0A8B0BAE0AAF0BBC
:10505300EE4F22F508A3E0F509750A00780822123D
:10506300500D124FF9A3A3E022A3A3124CCB750A50
:105073000078082274F61204A6EAFEEBFF7A057B99
:105083000012173AEA4B601E8A828B83740A12500D
:10509300B98A828B83A3A3124B2D8A828B83A3A30A
:1050A300A3A3F01250B00238EEEEFAEFFB900527FF
:1050B300E0F9121746221250BD221250CF1250C4EB
:1050C30022E0F8A3E0F922A31250CF22F08E828FC0
:1050D3008322C082C083E9900C79F090031874D6C0
:1050E300F0A3740BF090031A74E8F0A3740BF09020
:1050F300031C74FAF0A3740B02388774F71204A626
:10510300EAFEEBFF8908EE4F7003121BD890032AC7
:10511300124D12700890032A8022125FBE88828982
:1051230083A3A3A3A3A3A3A3A3A3125155888289F3
:1051330083A3A3A3A3A3A3A3A3A370DEEEF0A3EF70
:10514300125164E4F0A312515BA3A3A3E508F00298
:1051530043F6125469EA4B2212515F22124B3AA3CF
:105163002212516822125644A3A32274F71204A6F2
:1051730090032A800D8E828F83A3A3A3A3A3A3A34B
:10518300A3A31266F6EE4F60348E828F83A3A3A38C
:10519300A3A3A3A3E06970DD8E828F83A3A3A3A33C
:1051A300E06A7003A3E06B70CC8E828F83A3A3A30A
:1051B300A3A3A3E06C70BEEEFAEFFB80047A007B3E
:1051C300000243F674F71204A690032A1266F690BF
:1051D300032A12317E687002EB69701712522D1286
:1051E3005FBE90032A12474890032A1266F6803066
:1051F3001266E9EE4F60298E828F83A3A3A3A3A334
:1052030012317A687002EB6970E68A828B83A3A3FA
:10521300A3A3A3A3A3A3A312523AA3A3A3124748EE
:105223001217C4EEFAEFFB0243F6124000A3A3A346
:10523300A3A3A3A3A3A322125484A3A32274F012AF
:1052430004A674FA1209E98A088B098A828B83A35C
:10525300A3A3A3A3A3A3A3E0600D640160098A82AF
:105263008B83125461600579020254488508828554
:105273000983A3A3A3A3A3A3A3A3E0640370157447
:1052830004120BABAC82AD83AA08AB0912219CE9D3
:10529300701380D3850882850983125FBE7404125C
:1052A3000BAB12474812685012722C243212546FFF
:1052B3001217BE8A0A8B0BAE0AAF0BEE4F700302B6
:1052C30054467C327D0079001217287402120BAB0E
:1052D300AA82AB83850882850983A3A3A3A3A3A37F
:1052E300A3A3A3E0F91216927402120BABE0C0E081
:1052F300EE242D122A28D0E0F0EE242CF50AEF3408
:1053030000F50B7403120BABE0850A82850B83F067
:105313007901EEFAEFFB120BC485080C85090D75B4
:105323000E00780C1209237C1C7D00EE240B124E18
:10533300CA120955EE243012544D24320808124F74
:10534300172411F8E509127221FCE9FD8C828D8383
:10535300124246242E122A28124F1F1257E6126AAF
:10536300351209238C828D83124C908A828B83128F
:105373004EF21209557404120BAB125480124748B3
:10538300900302125476F0900302E0041258292489
:105393002A125D57750D00850A82850B83E0780C10
:1053A300120AC48A828B83E50CF0EE2429122A2880
:1053B300E50C12657EE4F0E5082415F582E5091293
:1053C300545B74015007120BAB74018004120BABD6
:1053D300E4F0EE2427123FC2851882851983AA823E
:1053E300AB8312167AE924FE850882850983F0F5DA
:1053F30008750900EE242E124C89ECF8EDF9AA0881
:10540300AB091202EFE88E828F83A3A3A3A3A3A306
:10541300A3A3F0ECF8EDF9AA08AB091202EF8B098C
:10542300EA4509600F8E828F83A3A3A3A3A3A3A33B
:10543300A3E004F0EE24201272294408125DCE7911
:1054430000800279107406023BCC12721FFAE9FB4A
:10545300EE22EE2415F582EF125818A2E022125420
:10546300691211C4E922E0FAA3E0FB22FAA3E034B3
:1054730000FB22124B5EA3A3A3A3A3A32212548473
:10548300221250C48E828F83A3A3A3A32274F41287
:1054930004A6EAFEEBFF125D4F124CD9900CC6E056
:1054A300F8EE242B127229C3984003025605125DAD
:1054B3006F7015EE242B12722904125633C0E0EEDE
:1054C3002429122A28D0E0F0EE2428127229FC792C
:1054D30000800109EE242C123307E9C39850267586
:1054E3000801750900E97808120AC4125D6F5508AE
:1054F30060E1E92CFC750801750900E97808120AD6
:10550300C4E04508F0EE2427125620EE242E122A7A
:1055130028EC8A088AF0A4F8ABF0E42BF9E098F8B9
:10552300A3E099F9C3E89508E99400EE40392427EC
:10553300123307125D6F6037EE242D122A2812569C
:105543002DA3E4F0EC7054EE2420127229442012AF
:10555300454BC0E0EE2426122A28D0E0F0EE24309A
:10556300125620A3E080592429122A2874FFF090B0
:10557300035CE0FA900CC9E0F508EA8508F0A4ABF7
:10558300F075F064A4FAADF075F064EBA42DFB8E16
:10559300828F83A3A3EAF0A3EB80A8EE24201272E8
:1055A3002954DF124F25ECF08C08EE2427127229C0
:1055B3008508F0A4FAABF0EE2430F582EF1256170B
:1055C300FBEE241EF582EF12561312563BC0E0EE9B
:1055D3002425122A28D0E0F0EE241C122A28E812EF
:1055E300581D90032C124D12600BECF91237621206
:1055F300222BE97018EE240BFAEF3400FB1221C6BC
:10560300800B7BE9EE2422F582EF1257F0022AFB8E
:10561300126569221258182AFAA3E03B2212562473
:1056230022F582EF124EE7E0FA22124B5EA3F0223C
:10563300F0EE242A12581522125640E02212564444
:1056430022124B24A3A32274F41204A690032A1259
:1056530066F61218668A0A8B0B7CFF7DFF8020E0BA
:10566300C398FAA3E099FBC3EA9CEB9D500E8E828C
:105673008F83A3A3E0C398FCA3E099FD1266E9EE30
:105683004F6059125FBAE50AC398F8E50B99F98E92
:10569300828F83125DA1C3E89AE99B8E828F83A3D5
:1056A300A340BCA3A3A3A3E06402701DEE240B12CA
:1056B3005D72600CEE2410122A28125DA3121740AB
:1056C300EEFAEFFB120BD08007EEFAEFFB120BDCC6
:1056D3007A017B00900C79123B44801474FF6C7048
:1056E3000374FF6D600A7A017B00900C79123355C5
:1056F300022AFB74F01204A68A088B09ECFAEDFB6C
:10570300890A7C01126850125D618A0C8B0DAE0C04
:10571300AF0DEE4F70030257E3E50A60030257E350
:10572300E5081257E6E0F8EE2428127229686003B0
:105733000257E3EE242C125620E82AF8E43400F949
:105743008E828F83A3A3A3A3A3A3A3A3E0FAE89AC0
:10575300E99400C365D0334014125A80125D75700A
:105763000C7B00126849E5091257F08073125A80C6
:10577300125D757031EE242C127229F9EE24291270
:105783002A287508FF750900E97808120AC4E50894
:10579300F0EE242A122A28E50812580D29F0EE24E7
:1057A3002B123B398022E5082414F8E5093400F96B
:1057B300E0C0E0EE242A122A28D0E0125808C0E004
:1057C300EE2429122A28D0E0125829242D122A283F
:1057D300123EB4A312581D7A01FB900C79123B447C
:1057E300023BCF2413F582E509124EE3221256271A
:1057F300EE2414124EE0124D6FEEFAEFFB120BD0B3
:1058030022EAF0A3EB12469FE022F0EE242812587E
:105813001522F582EF124EE7E022F0A3E4F022E036
:10582300240F12401122F01218668E828F83EAF041
:10583300A3EBF0EE2274E81204A674FD1209E9E961
:10584300851882851983F08A0A8B0B8C168D177441
:105853001B120BAB125A78741D120BAB780C120B84
:105863004E8A828B83A3A3E0F912166E8A128B13DE
:10587300EA451370077A007B00025A737A127B00A1
:105883001217BE8A088B09AE08AF09EE4F700302E8
:105893005A6F7C127D0079001217287401120BAB2A
:1058A300AA82AB83850A82850B83A3A3E0F9121630
:1058B30092EE240FF508EF126A0C7402120BABE0A0
:1058C300850882850983F07902EEFAEFFB120BC497
:1058D300851682851783125480E8F0A3E9125AB81B
:1058E3008E828F83A3A3A3A3A3A3A3F07514FF7531
:1058F3001500850882850983E07814120AC4122AE8
:1059030025E514F0851282851383A3E0F81248CEAF
:10591300C0E0EE240B122A28D0E0125AC2F508EE9A
:10592300240D122A28E508F0125D7AE08508F0A418
:105933002424FAE5F03400FB12173A8A088B09EEA7
:105943001263D0EF124CD6EA45097003025A648AF7
:10595300828B83741A12581D8A828B83A3A3F0A3AC
:10596300125AAC125A95124748AC16AD17EA2406E0
:10597300FAEB3400FB12168C850A82850B83A3A3F2
:10598300A3E0C0E0E508240FF582E509122A2BD035
:10599300E0F0900379125FBEE5082410125A8912D1
:1059A3005ACFA3125FBEE5082412125A89124F0080
:1059B300C0E0125A80122A2BD0E0F0E50A125D4AA9
:1059C300E50B12722CC0E0E5082415F582E50912F7
:1059D3002A2BD0E0125AA3C0E0E5082416F582E58D
:1059E30009122A2BD0E0127638E0C0E0E50824172C
:1059F300F582E509122A2BD0E0127638A3E0C0E045
:105A0300E5082418F582E509122A2BD0E0124B0889
:105A1300C0E0E5082419F582E509122A2BD0E0F04D
:105A2300E508241AF582E509122A2B780C120B6C6F
:105A3300E5082424F8E5093400F9E5082422F58271
:105A4300E509124745E50A12684BE50B12722CC0B3
:105A5300E0E508241FF582E509122A2BD0E0F08047
:105A63000BEEFAEFFB120BD07E007F00EEFAEFFB9A
:105A73007403026A7AE0F510A3E0F51122E5082425
:105A830014F582E50922F582E509124EE3E8F0A355
:105A9300E922E0F8A3E0F98A828B83A3A3A3A322DC
:105AA300F0851082851183E022125AB022124F0929
:105AB300A3A3A3A322F0126858E50B12581822F0EF
:105AC300E50A2410F582E50B12581822125AB0A3E6
:105AD300A3A32274E81204A68A0A8B0B8C108D11DF
:105AE30089147418120BABE0F516A3E0F517741ABA
:105AF300120BAB780C120B4E750900EA2413F582D6
:105B0300EB12722CF50890032C124D126011A908A8
:105B130090032C12375F12222BE96003025D477C4E
:105B230002851082851183125DA3126858E50B125A
:105B33005D618A128B13AE12AF13EE4F704B850A61
