:020000040000FA
:06000000020ABE02020E1E
:03002B00020922A5
:0300530002013473
:03006B000203BAD3
:1000830002019B0101FF01010503010F10FEFFFEA9
:1000930014FE14FE14FE14B413AE13FE147D2300D9
:1000A3000000004124000000000C0000000C0001CF
:1000B300FFFF0101010027050000009E05B80102B2
:1000C30002000800000502070401051E02051E02C6
:1000D3000A0A03B80B02803E010201FFFF010A0175
:1000E3001401E096511800020206FF010900EF58BF
:1000F3000C140D00089C1FA21FA81FAE1F000000B8
:1001030000000000000000000000000000000000EC
:10011300000000102020202020202020202020204C
:10012300202020200110040104000005758001DC5B
:1001330080C0E074F1120494A2AFE433FED2AFE5C1
:10014300A7FFE5A1F5085FF50974105509600612CC
:100153001C0C75A1EF740855096008121C1275A1D7
:10016300F7802BEFA2E0C0D0E508A2E092F0120ADC
:1001730057158182F05017906198E0F890066AE075
:10018300C398A2D265D0335002E8F075A1FEEEA267
:10019300E092AF7F0202054BC0E074F2120494A216
:1001A300AFE433FED2AF9061A4E0F8759B00E59114
:1001B30058540860087591F7121C54802AE5915829
:1001C300541060087591EF121C5A801BE8A2E0C01E
:1001D300D0E591A2E092F0120A57158182F0500700
:1001E300E0C2E0F0121D929061A3E0F8E5E95854F3
:1001F30004600E121D6875E9FB906193E0A2E6406E
:10020300F2EEA2E092AF7F0102054BC0E074F2125E
:100213000494A2AFE433FED2AF9061A5E0F8E5BF4A
:10022300585404600675BFFB121DA480D4C3E49820
:10023300F8E499F91202718026C3E49AFAE49BFB6D
:10024300E920E7E9120271E498F8E499F922C3E49A
:1002530098F8E499F9120271E498F8E499F9C3E47F
:100263009AFAE49BFB22EB20E7CFE920E7E0B90011
:1002730010BB0008E88AF084F8AAF022E4FBC8FA6D
:1002830022EB70227B10C833C8C933C9335007C36C
:100293009AC3DBF280069A50012ADBEAC833F4C81A
:1002A300C933F4C9FA2275F008E4C833C8C933C99D
:1002B30033C99AC99B5004C92AC93BD5F0ECFBC882
:1002C30033F4C8E4C9FA22080808EAC0E0EBC0E046
:1002D30086F0E7A4FA180986F0E7A42AFA18098633
:1002E300F0E7A42AFA180986F0E7A42AFA1986F097
:1002F300E7A4FBE5F02AFA190886F0E7A42BFBE54F
:10030300F03AFA190886F0E7A42BFBE5F03AFA185D
:10031300180986F0E7A4C5F02BFBE43AFA1908E7BD
:10032300C5F0C6A426F6E5F03BFBE43AFA1886F0DE
:10033300E7A4F6E5F00826F6E43B08F6E43A08F607
:10034300D0E0FBD0E0FA22E4CFC0E0E4CEC0E0E4AA
:10035300CDC0E0E4CCC0E075F020C3E633F608E698
:1003630033F608E633F608E633F6181818EC33FCD0
:10037300ED33FDEE33FEEF33FFC3EC9709ED970941
:10038300EE9709EF97191919400FFFEC97FC09ED48
:1003930097FD09EE97FE191906D5F0BEECF709EDA6
:1003A300F709EEF709EFF7191919D0E0FCD0E0FDD2
:1003B300D0E0FED0E0FF22C0E074F2120494A2AFBA
:1003C300E433FED2AF900C56E4F0E589A2E4500684
:1003D3007410F053ABEFE589A2E5500753ABDFE0B0
:1003E300D2E5F0E589A2E6500753ABBFE0D2E6F0D1
:1003F300E589A2E7500753AB7FE0D2E7F0E0601650
:10040300900C57E004F07C147D007A107B00900C74
:1004130058E0F91217C8758900C2C5EEA2E092AF81
:100423007F0102054B2518C582C0E0E51934FFC5DD
:1004330083C0E0E518C3958224F810AF08858319BB
:100443008582188008858319858218D2AFCEF0A3E0
:10045300E520F0A37808E608F0A3DEFAEFF0A3E5C1
:100463008124FAF8E608F0A3E608F0A3E608F0A36F
:100473000808E608F0A3E608F0A315811581D0E08B
:10048300FED0E0F8158115811581E8C0E0EEC0E0EB
:1004930022C0D02518C582C0E0E51934FFC583C04A
:1004A300E0E518C3958224F310AF0885831985828C
:1004B300188008858319858218D2AFC8F0A3E9F0A4
:1004C300A3EAF0A3EBF0A37908E709F0A3D8FAECC9
:1004D300F0A3EDF0A3EEF0A3EFF0A3D0E0F0A3D0F0
:1004E300E0F0A3D0E0F0A3E520F0A3E5F0F0A32231
:1004F300120B20B90003020535E4900301787279E9
:100503000A8002F0A3D8FCD9FA900C72AA82AB83BA
:1005130090008678AF79018015E493A3AC82AD8314
:100523008A828B83F0A3AA82AB838C828D83D8E9E2
:10053300D9E77582697583B4740412088175828260
:100543007583217400120881851983851882E0C0A0
:10055300E0A3E0F9A3E0FAA3E0FBA37808E0F60840
:10056300A3DFFAE0FCA3E0FDA3E0FEA3E0FFA3E02A
:10057300C0E0A3E0C0E0A3E0F5D0A3E0F520A3E052
:10058300A3F5F010AF088583198582188008858349
:1005930019858218D2AFD082D083D0E0F8D0E03270
:1005A3000C75F0108E1A8F1B85821F85831E85188C
:1005B30082851983E0CEA3E0CF851F82851E83EB5E
:1005C300C9EAC8EDCBECCAC3E833C8E933C9EA3397
:1005D300CAEB33CBC3EA9EF51DEB9FF51CB3500466
:1005E300AB1CAA1DEC33CCED33CDD5F0DAAE1AAF8C
:1005F3001B22D083D082ECC0E0EDC0E0E493A3FCE7
:10060300E493A3FDED4C600D1206CDEC24FFFCED4D
:1006130034FFFD80EFE493A3FCE493A3FDED4C6072
:100623000D12076AEC24FFFCED34FFFD80EFD0E0F0
:10063300FDD0E0FCE493A3C0E0E493C0E02285197D
:1006430083851882E0A3FEE0A3F5207808E0A3F6F3
:1006530008DFFAE0A3FFE0A3C0E0E0A3C0E0E0A36B
:10066300C0E0E0A3C0E0E0A3C0E010AF08858218BB
:100673008583198008858218858319D2AFD083D0EA
:1006830082020887D083D082E9C0E0E493A3C386C3
:10069300F0C5F095F0F908E493A386F0C5F095F062
:1006A300700BE493A3C3994005E9048002A3E475A6
:1006B300F002A42582F582E5F03583F583D0E0F9D5
:1006C300E493A3C0E0E493C0E022C0E0C3E49396C4
:1006D300087401939618400FE49366700808740138
:1006E30093661870007019A3A3C3E493960874016A
:1006F300939618A3A3400DD0E0D0E0D0E0020631DA
:10070300A3A3A3A3A3A3D0E0227404800474028050
:1007130000CCC0E0EDC0E0E518C39CCCAD1950019E
:100723001D10AF068C188D1980068C188D19D2AF49
:10073300120803D0E0FDD0E0FC2274028000CCC09C
:10074300E0EDC0E0E518C39CCCAD1950011D10AF1E
:10075300068C188D1980068C188D19D2AF1207BF1D
:10076300D0E0FDD0E0FC22C0E0C0F088F0E4936666
:1007730070080874019366187000A8F0A3A3700BA7
:10078300D0F0D0E0D0E0D0E0020631A3A3D0F0D087
:10079300E022D083D082CCC0E0E493A360061208A9
:1007A300431470FAE493A360061209531470FAD049
:1007B300E0FCE493A3C0E0E493C0E022CAC0E0E419
:1007C30093A3C582CCC582C583CDC583F0A3C5825F
:1007D300CCC582C583CDC583DAE5D0E0CA22A2E7C2
:1007E30092D65002F40430F70663F0FF05F0B340ED
:1007F3000384800384F40430D60563F0FF05F022FC
:10080300CAC0E0E0A3C582CCC582C583CDC583F051
:10081300A3C582CCC582C583CDC583DAE6D0E0CA41
:10082300227009080808226016181818C6C333C6B0
:1008330008C633C608C633C608C633C6D5E0EA229F
:10084300C0E0E493A3D39C5010E493A3C39C400A59
:10085300D0E0D0E0D0E00207B2A3A3A3D0E022C04F
:1008630008C3E096F50808A3E096420808A3E096BB
:10087300420808A3E09645087001D3D00822C09F20
:10088300F59FE473D09F22D083D082C09FE493C0AE
:10089300E0740193C0E0740293F59F227404800A0C
:1008A30074038006740280027401C0E0F404120829
:1008B300BAD0E0120AFB222518F58210AF08F5180A
:1008C300400215198008F51840021519D2AF851991
:1008D3008322C0D0251810AF08F5185002051980DF
:1008E30008F51850020519D2AFD0D022BB0102E798
:1008F30022C082C08389828A83BB0003E08002E432
:1009030093D083D082226016080808C6C313C61882
:10091300C613C618C613C618C613C6D5E0EA22C046
:10092300E0C0D0E8C0E0E5A8D2AFC2C7A2E792AF6B
:10093300D0E0F8D0D0D0E032C3E0C696F608A3E00A
:10094300C696F608A3E0C696F608A3E0C696F62276
:10095300C0E0E493A36C7009D0E0D0E0D0E00207DC
:10096300B2A3A3D0E022251810AF08F51840021552
:10097300198008F51840021519D2AF22E7667010E6
:100983000809E766700A0809E76670040809E7665C
:1009930022C3E09608A3E09608A3E09608A3E09696
:1009A300A2D265D03322E066701008A3E066700A15
:1009B30008A3E066700408A3E06622C3E096F0088B
:1009C300A3E096F008A3E096F008A3E096F022E0F7
:1009D30026F008A3E036F008A3E036F008A3E036DB
:1009E300F022E026F608A3E036F608A3E036F60880
:1009F300A3E036F622E627F60809E637F60809E605
:100A030037F60809E637F622E657F60809E657F6F9
:100A13000809E657F60809E657F622E056F608A352
:100A2300E056F608A3E056F608A3E056F622E05691
:100A3300F008A3E056F008A3E056F008A3E056F050
:100A430022700422600D18C6C333C608C633C6D548
:100A5300E0F41822C0E0E8C0E0E58124FCF8E6A257
:100A6300E7D0E0F8D0E022E647F60809E647F608C3
:100A730009E647F60809E647F622E4C396F608E4D2
:100A830096F608E496F608E496F622C6F4C608C677
:100A9300F4C608C6F4C608C6F4C622C3E09608A383
:100AA300E09608A3E09608A3E09622C3E796080918
:100AB300E7960809E7960809E7962275D00075813D
:100AC30040751801751903000204F3E0F608A3E06A
:100AD300F608A3E0F608A3E0F622600C08C6C313E9
:100AE300C618C613C6D5E0F422E6F008A3E6F0085C
:100AF300A3E6F008A3E6F022CAC0E0E6F0A308DA12
:100B0300FAD0E0FA22E0FAA3E0FBA3E0FCA3E0FDC5
:100B130022EAF0A3EBF0A3ECF0A3EDF022E5C75437
:100B2300F84401F5C77901222518F582E43519F552
:100B33008322C2AF75D69F0200002212088A134F88
:100B43000012088A3C4F0012088AAC4F0012088A30
:100B530005500012088A7E500012088ACE520012F5
:100B6300088A88540012088A34550012088A765677
:100B73000012088A14590012088A1A5C0012088AA3
:100B8300275C0012088AB55C0012088A675D0012B0
:100B9300088AAF5D0012088A0F5E0012088A2B5E76
:100BA3000012088A5F5E0012088A945E0012088AA7
:100BB3007D5F0012088A32600012088A8762001281
:100BC300088AD4630012088A77640012088A0465CD
:100BD3000012088A3A650012088AEC650012088A36
:100BE300BE660012088A79680012088ACD6800126E
:100BF300088A01690012088A7C690012088A566A09
:100C03000012088A146B0012088A596B0012088AB2
:100C1300716B0012088A086C0012088A796E001240
:100C2300088A8E700012088AAC700012088ACA7093
:100C33000012088AA4710012088AC2740012088A7A
:100C430000800212088A35800212088A5B80021231
:100C5300088A95800212088AA7800212088AF980FE
:100C63000212088A5A810212088AE4810212088A4F
:100C730088820212088AD0820212088A0A83021228
:100C8300088A27830212088A4C830212088A9E83E9
:100C93000212088AB7830212088ADD830212088AC5
:100CA300FC830212088A37840212088A7B840212A8
:100CB300088AA2840212088AF3840212088AA3858E
:100CC3000212088A5B860212088A23870212088AA4
:100CD300E3870212088A27880212088A4C880212C4
:100CE300088A8F880212088ADC880212088A348AEA
:100CF3000212088ABA8A0212088AD88A0212088A59
:100D0300028B0212088A1C8B0212088A2B8B021296
:100D1300088A368B0212088AF68B0212088A4F8CD5
:100D23000212088A118D0212088A198D0212088A8A
:100D3300918D0212088AE08D0212088A268E021211
:100D4300088A678E0212088AF78F0212088AAF9008
:100D53000212088A1B910212088A46920212088A1A
:100D630057920212088ACD920212088A5F930212E6
:100D7300088AB7930212088A77940212088A9E940B
:100D83000212088ABC940212088ACE940212088ABC
:100D930021950212088A5E950212088A6B95021247
:100DA300088AEE960212088A43980212088A5C980F
:100DB3000212088A98990212088A339A0212088A40
:100DC3006C9A0212088AB89A0212088AD49B0212F9
:100DD300088A1D9E0212088A289E0212088A339EE0
:100DE3000212088A3D9E0212088A489E0212088A4D
:100DF300629E0212088A6C9E0212088A769E021272
:100E0300088A819E0212088AA99E0212088A049FF8
:100E13000212088A289F0212088A4C9F0212088A2B
:100E2300AA9F0212088AEE9F0212088A0AA00212DF
:100E3300088A81A00212088AB9A00212088A05A1B1
:100E43000212088A62A10212088A1CA20212088AEC
:100E530000A40212088A59A40212088A89A5021260
:100E6300088AAFA50212088A38A70212088AB4AA10
:100E73000212088A86AC0212088A4FAE0212088A4E
:100E8300FCAE0212088A67B00212088A06B1021287
:100E9300088A53B10212088ABDB10212088ACCB182
:100EA3000212088A53B40212088A05B60212088A8B
:100EB30072B60212088A51B70212088A6AB802127D
:100EC300088AE7B90212088A06BA0212088A5BBACC
:100ED3000212088A60BB0212088A88BB0212088ABF
:100EE300E0BB0212088ABFBC0212088A03BD0212C9
:100EF300088A4EBD0212088AB9BD0212088AFABED8
:100F03000212088A5EBF0212088AACC00212088A63
:100F13000CC30212088A3DC30212088AF5C40212E6
:100F2300088A4AC50212088A4EC60212088AEBC60C
:100F33000212088A44C70212088AF7C70212088AF3
:100F430099C80212088A39C90212088ADEC9021234
:100F5300088AE2800112088A21810112088A6883C3
:100F63000112088AB2830112088ACD840112088A09
:100F73003D850112088A72850112088AE6860112EC
:100F8300088A69890112088A928A0112088A288BC1
:100F93000112088A30940112088AC5940112088A42
:100FA300AC970112088A9F980112088A00990112CE
:100FB300088A1C9A0112088A019C0112088A129E4F
:100FC3000112088A7C9E0112088A4E9F0112088A28
:100FD30005A00112088A0FA00112088A3DA0011280
:100FE300088AFAA00112088AD1A10112088A98A2DC
:100FF3000112088A4AA30112088A73A30112088AFC
:1010030095A30112088AEBA50112088AC3A601124F
:10101300088A07A70112088A6FA70112088A27A85E
:101023000112088A59A80112088A9DA80112088A88
:10103300D3A80112088A1FA90112088A74A90112F0
:10104300088A79A90112088ACCA90112088AF1A990
:101053000112088A00AB0112088A64AB0112088AE4
:10106300D4AB0112088A60AC0112088A2DAF0112B9
:10107300088A11B00112088A94B10112088ACAB30E
:101083000112088A78B40112088A28B50112088A65
:1010930069B70112088A0CB80112088A53B8011201
:1010A300088AFFB90112088A13BA0112088A1DBA05
:1010B3000112088A45BA0112088A51BA0112088A34
:1010C30070BA0112088A55BC0112088A8CBC01123D
:1010D300088A96BC0112088AA0BC0112088AFBBCCC
:1010E3000112088A45BD0112088A4DBE0112088A01
:1010F300A4BE0112088AF3BF0112088A37C0011285
:10110300088ADFC00112088AC2C10112088A6DC2AF
:101113000112088AB9C30112088AB7C40112088AE6
:101123005DC50112088AEDC50112088A04C60112C1
:10113300088A3BC60112088A45C60112088A50C6AE
:101143000112088A6EC60112088AB2C60112088A01
:101153000FC70112088A34C70112088A4EC7011249
:10116300088ADAC70112088AF7C80112088A64C913
:101173000112088A4BCA0112088A72CA0112088A2C
:10118300E6CA0112088A61CB0112088A65CC0112F2
:10119300088A5BCD0112088A0ACE0112088A1DCF84
:1011A3000112088AB9CF0112088A46D00112088AAF
:1011B30024D10112088A5CD10112088AB4D1011228
:1011C300088A7DD20112088A9ED20112088A25D389
:1011D3000112088A49D30112088A6BD30112088AC3
:1011E300B4D30112088ACAD50112088AB1D60112F2
:1011F300088A62D70112088A98D90112088AE8D9A5
:101203000112088A28DA0112088A6ADA0112088AA6
:10121300C6DA0112088AF4DA0112088A18DB01120D
:10122300088A6BDB0112088A99DB0112088AD2DB78
:101233000112088A27DC0112088A8DDC0112088A50
:10124300E1DD0112088A04E00112088A71E001124B
:10125300088A9AE00112088A25E10112088A8CE1C2
:101263000112088AD7E10112088AFBE10112088AF8
:101273001FE20112088A7AE20112088A95E201123A
:10128300088A4EE30112088A88E30112088A2E8B2A
:101293000412088A668B0412088A878B0412088A50
:1012A300C98B0412088A2F8C0412088A398C041201
:1012B300088A498C0412088A7E8C0412088AC78F14
:1012C3000412088A71910412088A71930412088A1D
:1012D300A2CA0212088AE8CA0212088AC8CB0212FA
:1012E300088ACACC0212088ACDCD0212088A59CFC5
:1012F3000212088AB7CF0212088A74D00212088A2F
:1013030092D10212088A03D20212088A3FD2021231
:10131300088A8DD20212088A97D20212088ADBD277
:101323000212088A37D30212088AD2D30212088A19
:101333004FD40212088A1ED50212088AB7D50212A8
:10134300088AD7D50212088A0DD60212088A3ED619
:101353000212088AFFD60212088A0FD70212088ADD
:1013630063D70212088A7ED70212088A90D7021224
:10137300088A99D70212088AF3D70212088A4FD82B
:101383000212088A9BD80212088AB6D80212088A67
:10139300E7D80212088A04D90212088A10D9021265
:1013A300088A84DA0212088A9DDA0212088A04DBA8
:1013B3000212088A17DB0212088A25DB0212088A46
:1013C300D9DB0212088ABDDC0212088AC3DD0212CD
:1013D300088A4DDE0212088A57DE0212088AC4DE2A
:1013E3000212088ADBDE0212088A0DDF0212088A63
:1013F30046DF0212088A70DF0212088AD1DF021266
:10140300088AF1DF0212088A0FE00212088A55E007
:101413000212088A7BE10212088AC8E10212088AD2
:10142300F7E10212088A6DE20212088A95E20212BB
:10143300088ACEE20212088ADCE20212088A34E346
:101443000212088A83E30212088AC2E30212088A9C
:10145300F2E30212088A1EE40212088A29E4021245
:10146300088A47E40212088A09E50212088A13E58A
:101473000212088A4EE50212088A64E50212088AFB
:10148300B9E50212088ACDE50212088ADBE60212E8
:10149300088AEEE60212088A03E70212088AA5E721
:1014A3000212088A28E80212088AE6E80212088A69
:1014B300F1E80212088A1DEA0212088A39EA0212C6
:1014C300088A8BEA0212088ACAEA0212088ADFEA49
:1014D3000212088A41EB0212088AD0EB0212088A30
:1014E3001BEC0212088A6CEE0212088AEAEE021260
:1014F300088A5FEF0212088A81F10212088A99F1C1
:101503000212088A9CF10212088AA8F10212088AC0
:10151300BCF10212088AC4F10212088AF7F102121E
:10152300088AA7F20212088A1DF30212088A90F3AE
:101533000212088A44F40212088AF9F40212088A91
:1015430018F50212088AB8F50212088AC4F50212C5
:10155300088AEFF50212088AF2F50212088A5CF68D
:101563000212088A84F70212088A5CF80212088AB7
:10157300E7F80212088A00FA0212088ABDFA021278
:10158300088AF6FA0212088A27FB0212088AE5FB88
:101593000212088A15FC0212088AF0FC0212088A59
:1015A30089FD0212088A14FE0212088AC5FE02127D
:1015B300088A12490012088A7AFF0212088ABBFFBE
:1015C3000212088AE0740012088A45750012088A1C
:1015D30082750012088AD1750012088ABB7700123F
:1015E300088AA2790012088ADB7C0012088A017D2E
:1015F3000012088A197D0012088A827D0012088A67
:10160300BE7D0012088AEB7D0012088AB54E0012D7
:10161300088A7B7E0012088A00800412088A7E8072
:101623000412088AB0800412088A08810412088A06
:1016330082820412088A9E820412088AD9820412C2
:10164300088A60830412088AB0830412088A7D849E
:101653000412088A81850412088AD5850412088A2F
:1016630050860412088AB1860412088AF28604128C
:10167300088A9D870412088ABB880412088AF188A5
:101683000412088A3C890412088A83890412088A8E
:101693000D8A0412088AB28A0412088AA89B0412CB
:1016A300088AEE9B0412088A589C0412088A799CC3
:1016B3000412088A199D0412088A239D0412088AB9
:1016C300709D0412088A959D0412088AF59D0412E0
:1016D300088A8B9E0412088AC39E0412088A1C9FE0
:1016E3000412088A789F0412088AA69F0412088AA3
:1016F3002EA00412088A73A00412088AB2A004124E
:10170300088AF7A00412088A09A10412088A1BA1F7
:101713000412088A3AA10412088A43A10412088A0F
:10172300EFA10412088A2FA20412088A6EDB0412A6
:10173300088AF7CF0412088A2DD00412088A76D0BB
:101743000412088AC3D10412088AF6AA0312088A6B
:101753006FAC0312088A30AE0312088A6CAE031210
:10176300088AF3B10312088A39B20312088A4EB405
:101773000312088A20B50312088ACCB50312088A1B
:1017830077B70312088AC1B90312088ADDBC0312B2
:10179300088AEBBC0312088AC6BD0312088AD9C1A2
:1017A3000312088AE2DD0412088A68DF0412088A39
:1017B3007EDF0412088A6BBF0412088A7EBF0412FC
:1017C300088A1CC00412088A5EC00412088A83C0F7
:1017D3000412088AC8C00412088A01C10412088AC4
:1017E30032C10412088AA5C20412088A41DC041219
:1017F300088A77DC0412088A93DC0412088AD5DC91
:101803000412088AE5DC0412088A6CC20312088AEF
:10181300BEC20312088A2DC30312088A24C403120A
:10182300088AA8C40312088A6FC50312088A84C5EC
:101833000312088ACEC50312088A1DC60312088A3A
:101843006FC60312088A82C60312088ACEC6031221
:10185300088AC9C80312088A4BC90312088A75C9C2
:101863000312088ABEC90312088A86CB0312088AA8
:1018730001CC0312088A8ECC0312088AA1CC03126E
:10188300088AF0CC0312088A06CD0312088A1DCDFC
:101893000312088A4CCD0312088A6DCD0312088AFD
:1018A30046CE0312088AA9CE0312088AF5CE031284
:1018B300088AF8CF0312088A66D20312088A92D2E2
:1018C3000312088A16D30312088A86D30312088ADE
:1018D300A9D30312088AE3D30312088A51D403124B
:1018E300088A07D50312088A2CD50312088A36D52D
:1018F3000312088A46D50312088AC9D50312088A37
:10190300E4D50312088A06D60312088A32D60312D4
:10191300088A6DD60312088A7CD60312088ABDD6BC
:101923000312088A32DE0412088A4ADE0412088A85
:1019330023940412088A72940412088A24960412C7
:10194300088AD9970412088A21980412088A1D99D3
:101953000412088A749A0412088A969A0412088A4E
:10196300F29A0412088A749B0412088AE2D60312BC
:10197300088A0DD70312088AF0D70312088A72D88F
:101983000312088ADCD80312088A28D90312088AAA
:1019930096D90312088A21DA0312088AAFDA0312EE
:1019A300088AE2DA0312088AD6DF0312088A7BE187
:1019B3000312088A37E20312088A74E20312088AC0
:1019C300C0E40312088A34E50312088A33E60312DB
:1019D300088A0CE70312088A86E70312088A40E89C
:1019E3000312088AFFE80312088A6BE90312088AC4
:1019F30012EA0312088A6FEA0312088A2CED031213
:101A0300088AECED0312088A51EE0312088AFBEFF1
:101A13000312088AB8F00312088A17F20312088A1D
:101A23003EF30312088AD9F30312088AD4F403128B
:101A3300088AD2E30112088A5AE40112088ACDE423
:101A43000112088A21E50112088A5CE50112088A5D
:101A5300E9E50112088A05E70112088A57E701122E
:101A6300088AB5E70112088AF8E70112088A6DE8C7
:101A73000112088AB7E80112088A36EA0112088AB5
:101A830009EB0112088A5FEB0112088A55EC011277
:101A9300088A02ED0112088A2DED0112088A4CED25
:101AA3000112088A5CED0112088A62EE0112088AAB
:101AB30026EF0112088A07F10112088A6DF101125B
:101AC300088A84F10112088ADAF20112088A57F3AC
:101AD3000112088AC6F30112088A4FF40112088A18
:101AE30093F40112088A5AF60112088A32F7011296
:101AF300088A6EF80112088A27F90112088A58FA2F
:101B03000112088A87FA0112088A61FB0112088A06
:101B130030FC0112088A89FC0112088AA1FC011217
:101B2300088AA1FD0112088A2FFE0112088AA8CD96
:101B33000412088A67CE0412088A20CF0412088A86
:101B430086CF0412088AEDB40412088A56B604122A
:101B5300088A88DF0412088A1AD60412088A28D64B
:101B63000412088AB5DF0412088A60FF0312088A88
:101B730070FF0312088A7CFF0312088AC9FF03124D
:101B8300088A70DA0412088AF1DA0412088A55DB2B
:101B93000412088AF5FF0112088AF8FF0112088A65
:101BA300A2DF0412088AB2DF0412088A46DF041295
:101BB300088ADBAB0412088A30AC0412088A04AE2C
:101BC3000412088A36AE0412088A5DAE0412088A2B
:101BD30071AE0412088A8AAE0412088AB9AF0412DD
:101BE300088AD4D70412088AF8D70412088A11D8AD
:101BF3000412088A44D80412088A75D80412088A81
:101C0300A3D80412088A05D90412088A14D9041225
:101C1300088A1ED90412088A2BD90412088A00C61E
:101C23000412088A3DC60412088A4CC60412088AA4
:101C33006BC60412088AD3C60412088ADCC60412CF
:101C4300088A3BC70412088A5FC70412088A52C86D
:101C53000412088A5FC80412088A70C80412088A2A
:101C63000ADF0412088A27DF0412088A58A2041222
:101C7300088A9EA20412088AFDA30412088A0AA4F1
:101C83000412088A1DA40412088A3CA40412088AB8
:101C930052A40412088A66A40412088ADBA404125C
:101CA300088A40A50412088AF0A50412088AC5A66A
:101CB3000412088AD5A60412088AE4A60412088A24
:101CC300F6DC0412088A1BDD0412088A44DD0412C0
:101CD300088A6CDD0412088A2AD20412088A51D2B7
:101CE3000412088ACDD20412088A31CB0412088A5E
:101CF3004ACB0412088A56CB0412088A6ACB041210
:101D0300088A88CB0412088A92CB0412088A9CCBD7
:101D13000412088AAFCB0412088A07CC0412088A7B
:101D23003ECC0412088A6CCC0412088ABACC041282
:101D3300088A07CD0412088A22CD0412088A2CCD02
:101D43000412088A5ECD0412088A91DD0412088AFF
:101D53000FF60312088A39F60312088A55F603129E
:101D6300088A68F60312088AA7F60312088A28F776
:101D73000312088A60FB0312088A8AFC0312088A8A
:101D8300BDFC0312088A0AFD0312088A32FE0312FD
:101D9300088A5AFE0312088A7DFE0312088AC1FECE
:101DA3000312088A22FF0312088A32FF0312088AE9
:101DB300CB7E0012088AE67E0012088A0F7F00128B
:101DC300088A297F0012088A4E7F0012088A6D7FD5
:101DD3000012088A857F0012088AB37F0012088ADE
:101DE300CD7F0012088A80DE0412088ACDBB04125C
:101DF300088AD4BB0412088A09BD0412088A38BDB4
:101E03000412088AA6BD0412088A39BE0412088A7D
:101E130072BE0412088ABBBE0412088AEBBE041207
:101E2300088A0BBF0412088A35D90412088A4DD9CF
:101E33000412088A6ADA0412088A6DDA0412088A1C
:101E4300E0FE0112088A3FFF0112088A95FF011282
:101E5300088AD6FF0112088A00800312088A1B80B1
:101E63000312088A90800312088A19810312088AD0
:101E7300A8810312088AC4810312088A6E8403129C
:101E8300088A1D870312088ABB880312088A068AF8
:101E93000312088AD38F0312088ACF900312088A89
:101EA30045910312088A11920312088AB59203120C
:101EB300088A18940312088AB8940312088A0295B0
:101EC3000312088A74950312088A1D960312088A5E
:101ED300EA960312088A50970312088A5598031248
:101EE300088A12990312088AAF990312088A069C7A
:101EF3000312088A9A9C0312088A169D0312088A01
:101F0300A29F0312088A9DA00312088ACCA0031281
:101F1300088A8BA20312088A5FA40312088A55A5B4
:101F23000312088A43AA0312088A9EC80412088A65
:101F3300C3C80412088A52C90412088A23CA0412A5
:101F4300088A0FCB0412088A2EB80412088AEFB845
:101F53000412088A5EB90412088A83B90412088A33
:101F63003EBA0412088AC6DE0412088A42D4041256
:101F7300088A87D40412088ACCD40412088A4AD562
:101F83000412088ADBD50412088AE1D50412088AF0
:101F9300B2C20412088A27C30412088AE8C40412CE
:101FA300088AEBC40412088A2FC50412088A32C5B2
:101FB3000412088A41C50412088AADC50412088AAE
:101FC30095B00412088ABBB00412088A06B1041241
:101FD300088A22B10412088A53B10412088A63B131
:101FE3000412088A70B10412088A7DB10412088AA7
:101FF30060B20412088A9EB20412088AA8B20412BC
:10200300088AC7B30412088AD2B30412088AE4B355
:102013000412088AEDB30412088AF7B30412088A7B
:102023001DA70412088ACDAB0412088ACCFF031241
:10203300088ACA480012088A15470012088A95467A
:102043000012088A5B460012088A9B450012088A20
:1020530011450012088AE3440012088A8F430012D4
:10206300088AF8420012088A5B420012088AE64195
:102073000012088AB4410012088AF1400012088A4B
:102083001C3F0012088AAD3E0012088A7F3E0012F0
:10209300088A7C3E0012088A033D0012088A043C29
:1020A3000012088ACE3A0012088A123A0012088AED
:1020B30088390012088A8E380012088A594E001295
:1020C300088A7E4D0012088ABC4B0012088A884B8E
:1020D3000012088A554B0012088AEA370012088A50
:1020E30031370012088AF4360012088A284B00128E
:1020F300088A3A360012088A04360012088AAB3579
:102103000012088A61350012088A4E4A0012088AB2
:102113001D7E0012088A02350012088AD13400128B
:10212300088A99310012088A59310012088A4D3100
:102133000012088AAD300012088AED2F0012088AB7
:10214300662D0012088AF72A0012088AB52A00129F
:10215300088A89290012088A3E290012088A7A28E7
:102163000012088ABD270012088A8D270012088AE8
:10217300AB490012088A53270012088A48FF02005D
:10218300000080FBE4738F000100CE0C8700010088
:10219300CC0C2400020016062500020018062600B7
:1021A30002001A0627000200AC0C28000100AE0C46
:1021B30029000100AF0C84000400B00C860001006C
:1021C300B40C2A000100B50C2B000100B60C2C0046
:1021D3000100BA0C2D0008001E062E000100BB0CE6
:1021E3002F000100BC0C30000100BD0C31000100C8
:1021F300BE0C32000100260633000100270634001E
:102203000100BF0C36000100280638000100C00C95
:1022130039000100B90C83000200CA0C63000100FD
:10222300320664000100B70C65000100B80C6D00B4
:102233000100C90C6E0002001C0643000100C10C22
:1022430044000200C20C45000100C40C4600020019
:10225300C50C470008002A0648000100C70C4B00C4
:102263000100C80C04000100CD0CA1000100D10C39
:1022730037000100D00C88000100CF0C3C000100A6
:1022830029060000000000000001363601010001AC
:10229300020100010301000104010606050200001A
:1022A300070100340801000F090401010D0100FFBB
:1022B3000E08000017020000190100FF1A010001B7
:1022C3001B0100FE1C0100081D0200001F0100018C
:1022D30020010001210200002301000F240200005D
:1022E3002601000127010008280200FF2A01000738
:1022F3002B0102402C0100002D0100012E010001E1
:102303002F0100FF30010B1C310800003A010008C7
:102313003B01000F2F0100000101710101010101C7
:10232300110101013101010101018001100161016C
:102333003B00140063017301720162014301000158
:10234300130106013D0135000401120100010001E2
:102353000001000104010401330133013C01440184
:1023630032013600000100016501000135008101E1
:1023730000010501820183010001030071003001A6
:10238300600011007000310220035004800010002F
:1023930061000000140063007300720062004300D8
:1023A30000001300060000000000040012000000FB
:1023B30000000000000004000400370037003C0266
:1023C300440000000000000000006500000035002C
:1023D3008100000005000000830000000302710279
:1023E3003001600211027002010202020202800245
:1023F300100261023A004100630273027202620238
:102403004302000213023800000200020402120217
:102413000002000200020002040204023700370037
:102423003C0244020002390000020002650200027D
:1024330035028102000205028202830200020103C7
:1024430071030103010301030103010322030203D7
:102453000103100300030003000300030003000350
:1024630000034203000324030603000300030403E1
:102473001203250323032503230304030403000397
:102483000003000344030003000323030003650365
:102493002100350381030003050300030003000348
:1024A30003047104020460041104700402040204AE
:1024B300010402041004610400041404630473049B
:1024C30072046204430400041304060400040004B9
:1024D3000404120400040004000400045104640012
:1024E3000004000400044404000400040004000485
:1024F30065040004350481046400050400048304B6
:102503000004000003002001E0800000000020011F
:10251300E1800000040042016480000005004201E4
:1025230053800000060042014280000007002001A2
:10253300DE80000010004203020D000011002003A2
:10254300650C000012001003130D030000002103AB
:10255300660C060000002001680C0000000000006B
:10256300000036000100060000000F00000000001C
:10257300000000000000000003FFFF00000403FF51
:10258300FF0000FFFF0FF4010005C4040320000156
:1025930000020B000000000000000003010FD01E2A
:1025A3000C1FD61E241FDC1E121FDC1E1E1FE21E64
:1025B300241FDC1E121FE81E241FEE1E241FF41E00
:1025C300241FFA1E241F001F241F061F241F0000A0
:1025D3000000000000000000F6191300BA19010002
:1025E300F6190200841903008A19040090190500E2
:1025F30096190600A219FFFF0000019A0F06C40FE7
:1026030008BE0F0BDC0F10160F02A00F05B20F0749
:10261300A60F0C7C0F0D8E0FFF000003EAF5E5D526
:10262300D5C5B5A595958585757565655555454597
:10263300353525251515050E143E1414141A1438B2
:10264300142C14261444144A1450145C1420140833
:1026530014021400160F00000B150B020002220FC8
:1026630032000006000000000000000089674523D7
:1026730001EFCDAB7A623230313630393239313015
:102683003236333758696E6748756F5975616E53C3
:102693006D617274FE1410151615D8131C15D21320
:1026A300DE135E157C158215641570156A151213F9
:1026B3000C1348134E134213FA120C0E020B040BA5
:1026C3000A0708000F000119161816161523030030
:1026D300303017181921301B1D1F303030161819D0
:1026E30020231A1C1E3000383C3E363B3B352B431F
:1026F3002C00034948424D1817250502321456147D
:1027030076156214681452152215281534152E15E2
:102713000204020101010109021E132413181354B8
:10272300132A133C1300BE040A15000E0004000014
:1027330000000028000C007F00E8030A03080900DA
:10274300040010FF1E1E08090403100105080F0CE6
:1027530074F7120428E9FE121618EE900C73F09029
:10276300030E7458F0A37421F09003107452F0A375
:102773007421F0900312744CF0A37421F0900314AD
:102783007446F0A37421F002423474F7120428E96A
:10279300FE900302E4F0EE900301F0900CC51235B5
:1027A300A41245867C2A7D067A057B03121E52906D
:1027B3000CC7E090030DF002423474F41204288A2B
:1027C300088B09EB5480605B900301125C88604ABC
:1027D3008E828F83E064017032124D1712070CEE64
:1027E3002412127067F50A780A1208AB12286D12C8
:1027F30008A7EE240B122866120710EE2417125CAA
:10280300981215D674091208D58008E06402700383
:1028130012203EEEFAEFFB1216C0AA08E509648007
:10282300FB803AEAA2E05017900316124B50600661
:102833001235A0122187E5086401FAAB09801E5402
:1028430002600C900C727401F0EA6402FA800EEAE2
:1028530054046005EA640480F37A007B000229399A
:10286300EE240CF582EF124D2122EE240FF50AEF30
:102873003400F50B780A2274F41204288A088B09B1
:102883008A828B83A3A3A3E02410124240FA124E40
:102893008470030229298E828F837402F0A3E412C9
:1028A3004E47A3A3A3A3E8F0A3E9124995A3A3A3C7
:1028B300A3A3A3A3F0E5082403F8E509123DED243F
:1028C300101240AC8E828F83A3A3A3A3F0EE24093E
:1028D300FA12292B1244CDF5838882E0A2E58E8279
:1028E3008F83A3A3A3A3A3500474018001E4F0E5A1
:1028F300082403F888828983125BE1EA12669FEB5E
:10290300122869124EAC1208A312620DEB12465341
:102913008E828F83A3A3124D301208D5EEFAEFFBFC
:10292300900301124EF1800EEF3400FB8E828F83F1
:10293300A3A3221208D57F0402064174F2120428CD
:102943008A088B09ECFAEDFB740E120B2BE0FC12D8
:1029530016488A0C8B0DAE0CAF0DEE4F6023AC08FE
:10296300AD09121636E96019AC08AD09EEFAEFFBB2
:1029730012163CE97007EEFAEFFB1216307900806D
:102983000279B40235FF74EE12042874F712096950
:102993008A0A8B0BECFEEDFF750FB3750E00750CF9
:1029A30000750D00800CE50C2401F50CE50D3400D9
:1029B300F50D902730E493F8740193F9C3E50C986F
:1029C300E50D994003022AA9AA0CAB0D1216968AAB
:1029D300088B09EA450960CE8A828B83A3A3A3A34C
:1029E300A3E0250EF50EF510C3E50A9510E50B944B
:1029F3000050B37C157D007900EEFAEFFB124AFE1E
:102A0300A3A3A3A3E50AC3950EF8E028C333F8E410
:102A130033F9E50828F582E50939F583A3A3A3A3D0
:102A2300A3A31252BEA312437CEAFCEBFDEEFAEF22
:102A3300FB123E0AA3E06401700A124D17740112DF
:102A430036E08043851882851983AC82AD8385087F
:102A530082850983125BDF12167EE9602D740812EA
:102A63000B2BE0C0E0124D17D0E0F07408120B2BD3
:102A7300E06403851882851983700CAC82AD83EE04
:102A8300240B1236CD800312457A8508828509838B
:102A9300123CF2A3A3124E0AC0E0EE2414122866DD
:102AA300D0E0F0750F00A90F74091208D57F0A0250
:102AB300064174F7120428E9FE8A828B83A3A3A339
:102AC300A3A3A3E0540860298A828B83A3A3A3A3AF
:102AD300A3A3E0540260178A828B83A3A3A3A3A3B7
:102AE300A3A3A3A3E06406600574E96E7003122137
:102AF3003A02423474E812042874F712096974071D
:102B0300120B2B124B17E9851882851983F0ECFE03
:102B1300EDFF7424120B2B780C120ACE7513008E62
:102B2300828F83125BDB8E828F83A3A3A3E0F912D0
:102B330016548A148B15EA45157003022D00EE24F2
:102B43001012545EA914120E1A8A168B17EA45172F
:102B53007003022D00EE2406F510EF3400F5117C0E
:102B630000851082F583122D528E828F83A3A3A337
:102B7300122D471258E1F8A3E0F9851682851783D1
:102B8300A3A3A3A31237E2122D47A3A3A3A3125611
:102B93005B851682851783A3A3A3A3A3A3F0EE12D9
:102BA300669FEF122FC11208A3EE12620EEF1246B8
:102BB30053851682851783A3A3A3A3A3A3A3A3A3C8
:102BC300124D301208D5751000022C80850A8285BB
:102BD3000B83125BDF121684850882850983A3EABF
:102BE300F0A3EB124D43A3A3124A38124F08E0A2FD
:102BF300E6500F850882850983A3A3A3A3A3E0D28C
:102C0300E1F0E5137063850882850983A3125DFCF7
:102C130090036CE0687003A3E069704D85088285BA
:102C23000983A3A3A312546B780C12089F74271271
:102C33000B2BE0F50A780A1208AB7426120B2B1241
:102C4300071090037912071079007410120B2B12DE
:102C530049851220C874091208D58508828509831D
:102C6300A3A3A3A3A3E04405F074012510FC8E8263
:102C73008F83A3A3A3A3A3A3122D520510E50A4593
:102C83000B6052851008C3E5089514E4951550456B
:102C9300E51075F006A4F8A9F0E51628F8E517394C
:102CA300F9E8240CF508E9123BB1E4124D3964014B
:102CB3006003022BCF751301850882850983740194
:102CC300124D3EF8A3E0F9850882850983A3E8F055
:102CD300A3E9022BE6AA16AB17120E2078161208E8
:102CE300A77425120B2BE0FC7402120B2BE0F9EEF8
:102CF300FAEFFB12214074021208D580428E828FB4
:102D030083A3A3A3E0C0E07404120B2BD0E0123919
:102D1300FBE0C0E07405120B2BD0E0F0E514451581
:102D230070097406120B2B74B980077406120B2BEF
:102D33007410F07401120B2BAA82AB831220CE7491
:102D4300090268B8E0851682851783A3A3A322121C
:102D530052A78E828F83A3A3A3E0F912165A8A0A7D
:102D63008B0B2274E812042874F31209698A0A8B04
:102D73000B89178C167425120B2B127082AA0CFB6D
:102D8300120E0EE9F514AA0CAB0D120E14E9F5158B
:102D9300E5147003022FB3751300800F8E828F83A7
:102DA300A3A3A3A3A3E0D2E3F00513E50C240BF53F
:102DB30082E50D123148E513C3984003022FAAE5BB
:102DC300147003022FAAE51375F006A4F8A9F0E521
:102DD3000C28F8E50D39F9E8240CFEE9126E56A328
:102DE300A3A3A3E0A2E040C1750E008E828F83E00F
:102DF3007043125BE0120D068A088B09A808A90923
:102E0300E849603188828983A3A3A3A3E0640160B6
:102E13000D88828983A3A3A3A3E0640370178E8222
:102E23008F83A3A3A3A3A3E0D2E7F0750E01E51557
:102E33007003022DAC750F00750808750900E516BF
:102E43006003750F20124A9EE060339003BCE06478
:102E5300017017E50FD2E3F50F7509108E828F838A
:102E630012456512436B74FF8024430F0C75080CE5
:102E73008E828F83A3122FCD12684FA38010E51784
:102E83006009E50FD2E6F50F75080A122FE4F07416
:102E930002120B2BE50F125900C0E07404120B2B26
:102EA300D0E0F07405120B2B124252120B2BE06090
:102EB30003022F857408120B2B123BF28E828F8331
:102EC300A3A3A3A3F07408120B2B1234ADF583E56F
:102ED30008F0A3E5091248B0E060119003BCE0C01C
:102EE300E07408120B2B1234A6D0E0F0850C828517
:102EF3000D83A3A3A3E0C0E07408120B2B1263930A
:102F0300D0E01263CFC0E07408120B2B1234B8D098
:102F1300E0F07408120B2B122FCDA3A312639A12A5
:102F230058EA125BDFE82428F582E912545112585B
:102F3300F6C0E0E8242EF582E9122869D0E0F074A7
:102F430008120B2B125BE1850A82850B83122FB8C3
:102F53002424F582EB12458312669DE50B122FC1E3
:102F63001208A312464BEA242BF582EB12286912AE
:102F73004D301208D5851882851983AA82AB831236
:102F830020328E828F83A3A3A3A3A3E0D2E0F074A5
:102F93000C120B2BE06003022D9FE50EA2E0500202
:102FA30015151514022DAC7900AA0CAB0D122134A2
:102FB300740D0268B8A3A3A3A3125E00EA22124D04
:102FC300211258B6751200781022125E00850A820B
:102FD300850B83A3A3A3A3228E828F83A3A3A3A37F
:102FE300A3A312456AE8F0A3E92274F21204287439
:102FF300EB120969EAFEEBFF89088E828F83A3A394
:10300300A3A3A3A3A3A3E0F9120E388A0A8B0BEAA6
:10301300450B607FE50870047C0480027C088E8287
:103023008F83A3A3A3A3A3A3A3A3E0F9120E3E122A
:103033002863124B50605C88828983125BDD7406BF
:10304300120B2B12309B125BE17408120B2B123004
:103053009BA3A3E0C0E07410120B2BD0E012590D18
:10306300125BE1740E120B2B124B177411120B2B04
:10307300E4125646F9780A1208A7742059FC7440E2
:1030830059F97402120B2BAA82AB831221407402EA
:103093001208D574150235FCEAF0A3EB1230A32213
:1030A3001244DDA3A3A3A3A3A32274F712042874D9
:1030B300FA120969E9FE7F018F087D008004750813
:1030C300000D124239123148EDC3985025ED75F0C9
:1030D30006A4F8A9F0EA28F8EB39F9E8126698E9AA
:1030E30012529950D9540C60D5E0A2E250D37F001C
:1030F30080CF8A828B83A3A3A3A3A3A3E0703EE51F
:1031030008A2E0400574016E70338A828B83A3A307
:10311300A3A3A3A3740112624CE0C0E07403120BD7
:103123002BD0E0126244E0C0E07404120B2BD0E019
:10313300F07405120B2BEF1245341220CE740602E5
:103143004231F582EF125656F822C082C0837901CC
:103153001221340236C6C082C083EA4B6018900342
:10316300B8E064027010900C72E4F0EAFCEBFD7AB4
:103173000212318E8012900C727401F07A027B007D
:10318300900301E0F91217D40236C67B00900301C5
:10319300E0F91217C82274F212042874F3120969B1
:1031A300EAFEEBFF8E828F83A3A3A3A3A3A3A3A310
:1031B300A3A3E0F50A900C72E0700579BA0234A17A
:1031C300750801750900750C00750D007C087D00FC
:1031D3007900851882851983AA82AB831216A87495
:1031E30005120B2B74011234C954046012740212B9
:1031F3000B2BE0D2E61234C954087003750803E0C0
:103203005410600674404508F508E05408602274C1
:1032130002120B2BE044C01234C95420600A740319
:10322300120B2BE0D2E080087403120B2BE0D2E1E7
:10323300F08E828F83A3A3A3A3A3A3A3A3E07018F9
:103243001210A8851882851983124B177402120B6A
:103253002BE0D2E2F0023300640F70157402120BFC
:103263002BE0D2E3124F09124AF84508F50802335E
:10327300008E828F83A3A3A3A3A3A3A3A3E06402CB
:103283008E828F837005122FE580C9A3A3A3A3A306
:10329300A3A3A3E064037013851882851983AC820A
:1032A300AD83EEFAEFFB1220F880528E828F83A358
:1032B300A3A3A3A3A3A3A3E0640170419003BCE071
:1032C300601C7402120B2BE0D2E3124EF7851882B6
:1032D300851983124586750910750AFF80187402D3
:1032E300120B2BE0440C1263BC74FDF0A374FFF0CB
:1032F30074044508F5088E828F83127082125293EC
:10330300503A7402120B2BE0540C701B8E828F8385
:10331300125BE1121AC8E9700579BB0234A1740289
:10332300120B2BE0D2E5F012529350107402120BE1
:103333002BE0540C64047004E0D2E5F0EE24111287
:103343007067C0E07404120B2BD0E0124254120BCE
:103353002BE0600302349A7408120B2B1234AD1263
:1033630034BFEE2418127067C0E0E8126689E912D0
:103373002869D0E0F0EE2419127067C0E0740812D7
:103383000B2BE02413123BBAD0E012438964017083
:10339300119003BCE0C0E07408120B2B1234A6D0CA
:1033A300E0F07408120B2B1240842417FAEF12403A
:1033B300B3FCE8241CF582E9122869ECF0A3E412BB
:1033C3004FA2E0C0E0E82422F582E9122869D0E0A8
:1033D300F07408120B2B1234B8E50AF07408120BC0
:1033E3002B1240992424F582E9125BA6A3E50D1262
:1033F3005C04FCA3E0FDE82426F582E9122869ECCD
:10340300F0A3ED123886124ACEE82428F582E91299
:103413002869125E04C0E0E8242FF582E9122869C6
:10342300D0E0F0EE241B127067C0E07408120B2B7F
:1034330012638CD0E0F0EE241A127067C0E07408B7
:10344300120B2BE0242E123BBAD0E01263B4124EBF
:10345300941208A3EE2411124AC7740B120B2B12F9
:103463004D2A1208D5EE24151270675440601B9044
:103473000328124B506013851882851983AA82ABE7
:10348300839003291235A012218785188285198319
:10349300AA82AB83122032740C120B2BE0F9740D49
:1034A3000235FCE02415123BE02212409D240FF567
:1034B30082E9340022E02423123BE022F583E5086D
:1034C300F0A3E509F022F0EE24151256532274F707
:1034D3001204287E638A828B83E0600C7905120CC8
:1034E30028E9F87456C398FE900364E0600CF9125F
:1034F3000C28E9F8EEC39824F2FEEEF90242347484
:10350300F612042874FE120969851882851983123C
:103513004B17E9FEECFAEDFB740C120B2BE0FC905D
:1035230004AE124B50603285188285198385820858
:1035330085830978081208A77D01EEF99004AE127D
:10354300359D12218774021208D58B09EA4509605B
:10355300047900800679B2800279B602372774F7BE
:10356300120428E9FE7409120B2BE0FF90030E12DC
:103573004B50601AEFF50878081208ABEEF9900388
:103583000E12359D12218774011208D5800279B677
:10359300024234EEFAEFFB900320E0F8A3123E3E22
:1035A30022125E009003032274F21204288A088B0D
:1035B30009ECFEEDFF750A0190036CE065087004E9
:1035C300A3E06509700512497E802A1210AE8A0CA9
:1035D3008B0DE508650C7004E509650D7009EEFABD
:1035E300EFFB1210B4800EEEFCEFFDAA08AB09123C
:1035F3000CA0E9F50AA90A80031208D57F06020682
:103603004174F5120428EAFEEBFF8C088D09750A54
:1036130001126AEC1236D6700B90036C123E6C12D8
:103623004586800EAC08AD09EEFAEFFB120CA6E955
:10363300F50AA90A025F7874F6120428EAFEEBFF82
:103643007A0C7B0012173EEA4B606BEE242012705B
:10365300678A828B83F0EE24211236BCF0EE24229B
:103663001236BCA3F0EE24231236BCA3A3124D637F
:103673001258D3E8F0A3E912564B1258D4A3A3E887
:10368300F0A3E91254718A828B83A3A3A3A3A3A3F8
:10369300A3A3F0EE242F127067C0E0124239122860
:1036A30069D0E0124B1D8A828B83A3A3A3A3A3A398
:1036B300A3A3A312458602372C1256538A828B8307
:1036C300A322F0D083D082020887FAEF3400FB12E2
:1036D3001E5222124370221236E0A3E0221236E475
:1036E300221236E822124E3FA3A3221249A3A3E0DB
:1036F3002274F6120428ECFEEDFF79B3900363E025
:103703007020900395E064017018EE126698EF1232
:103713006E6AEE240F124580E84960047900800246
:1037230079A1800574021208D57F0202064174F460
:1037330012042874FE120969ECFEEDFFEE24161242
:10374300706764057011EE2406FCEF3400FD12204F
:10375300FEE970030237DB851882851983AC82ADDD
:10376300831265DE12396D124B506068E875F009FB
:10377300A4F8AAF075F009E9A42AF974ED28F874FD
:10378300F339F9E8FAE9FBEE2412122866C082C085
:10379300838A828B837808120ACED083D0827808FA
:1037A300120A9E402B851882851983124084240FA8
:1037B3001228661237E27808120ACE9080AC780895
:1037C3001209E58A828B837808120AEC7900800A51
:1037D30079A2800679A1800279C87402022936E8A9
:1037E300F0A3E91239FF2274F412042874FF1209BA
:1037F30069EAFEEBFF900363E07075900395E06464
:1038030001706D75083A75090078081208A77402EB
:10381300120B2B85820885830978081208A71238B2
:10382300781208D5E9703EEE12669FEF123E7612CB
:103833004946C0E0EE2411122866D0E0123886749F
:103843003A12565B900330120B08EE2412122866CC
:10385300120B149080AC7808120ACE9003307808CB
:103863001209D2800BEE240FF582EF124222A3F04D
:1038730074010229367C017D007A007B00121288D4
:10388300740422F0EE240F124D1E2274F012042849
:1038930074F6120969ECFEEDFF7402120B2BAC8275
:1038A300AD831220FEE970030239688518828519F9
:1038B30083AC82AD837402120B2BAA82AB831239C1
:1038C3006D124B507003023968E875F009A4F8AA29
:1038D300F075F009E9A42AF974E928F874F339F9C1
:1038E30088088909EE240E123977124946F8A3E0B5
:1038F300F9EE240F124E30120B08EE241212286632
:10390300120B149080AC780C120ACE8508828509BC
:1039130083780C1209D28508828509837808120AF4
:10392300CE9080A8780C120ACE7808790C12034A3C
:10393300E50C450D450E450F702B851882851983BF
:1039430012409975F009A4F8AAF075F009E9A42AC0
:10395300F974F128F58274F339F5837401F07A0070
:103963007B1012397F740A023A0A121ACE85188222
:1039730085198322F582EF124D21E422900527E079
:10398300F91216F62274F01204288A088B09ECFE49
:10399300EDFFEE240FF582EF124222A31239FBC092
:1039A30082C0839080C0780C120ACED083D08278F4
:1039B3000C1209A960321239EF70051220E6802A31
:1039C300E070051220E08022640270131220E0E907
:1039D3006018EEFCEFFDAA08AB09121AF2800BE0A7
:1039E300640360DF79A1800279A3801EEE240EF5C3
:1039F30082EF1256566401221239FF22F0EE24128E
:103A0300F582EF124D25221208D57F080206417474
:103A1300F6120428EAFEEBFFEE240AF508EF12681B
:103A23004A850882124ACCEC240F12421F124AE83C
:103A33001220B6850882850983124B4D706B123BA9
:103A4300BE7003A3E069600A123BA07003A3E069A0
:103A530070578E828F83A3A3A3A3A3A3A3A3A3A31C
:103A6300124ACE8E828F83125BE1121AF8E9601834
:103A73008E828F83A3A3A3A3A3A3A3A3A3A3E024BF
:103A83000F123BBAE4F0A3F08E828F831263848E0D
:103A9300828F83A3A3A3A3A3A3A3A3A3A3700512AA
:103AA3003E668004123E44E4F0124B3F701A123D0E
:103AB300F1125BE11220DA850882850983124B4DEE
:103AC300700612286374A1F002372C74F6120428CE
:103AD300EAFEEBFFEE240A123E007A187B0012176F
:103AE3003E850882850983123BF7F8A3E0F9E8498C
:103AF3007003023B97EEFAEFFB1220AA124B3F60D2
:103B03007F123BE464017007123BCB740E8034E0F8
:103B130064027007123BCB740D80288E828F83A3BF
:103B2300A3A3A3A3A3124B5070EA123BBE7003A33B
:103B3300E06960E0123BA07003A3E06960D6123B2A
:103B4300CB7405124AF1540364017007123E2474C6
:103B530005800B900364E0C0E0123E24D0E0F0EE59
:103B6300240AF508EF123BB1123E32123CF7C0E0D3
:103B7300850882850983E02417123BBAD0E08019B7
:103B83008508828509831241DF850882850983E4DC
:103B9300F0A380051228637410F002372C1210A8CA
:103BA3008A088B09A808A90990061CE068221268F4
:103BB3004A850882F58322123BE0228E828F83128C
:103BC3005E0090061CE068228E828F83A3A3A3A3CA
:103BD300A3A3A3A3A3A3E02416123BE022123E4F08
:103BE300228E828F83A3A3A3A3A3A3A3A3A3A3121E
:103BF3003E48E022EAF0A3EB123BFF22124E3FE0E5
:103C03002274F11204288A0A8B0B8C088D097A1806
:103C1300125D577003023CEA8E828F837401F0E5D4
:103C230008240DF8E5091265E7C3E49AFA95E0FB69
:103C33001266A4125455FB8E828F83A3A3A3A312EF
:103C430056428E828F83A3A3F0EEFAEFFB120BD4BE
:103C530085088285098312638670098E828F83A308
:103C630074058006900364123CF2F0EE2417F8EF1B
:103C73003400F9880C890D8E828F83123CF6850CF3
:103C830082850D83F0EE2416F8EF3400F9E508245D
:103C93000EFAE5093400FB88828983124892E5080D
:103CA30024100A0AE5093400FB850C82850D83E0A4
:103CB300FC88828983E0F88A828B83E0C398C39C63
:103CC300124F99F0EEFCEFFDAA0AAB0B1220B0E9FC
:103CD300F508700AEEFAEFFB120BE0E9F508EEFACD
:103CE300EFFB1217448003750810A908026B0F122B
:103CF300499C22A3E0F9120C28E9227901020887E2
:103D030074F4120428EAFEEBFF8E828F83A3A3A32D
:103D1300A3A3A3A3A3125BE5126386706B123BE418
:103D230070668E828F83A3A3A3A3A3A3A3A3E0247C
:103D33002B123BBA123E5E704F8E828F83A3A3A3D6
:103D4300A3A3A3A3A3E0242BF888828983123E3282
:103D5300E0F8740168600A740668600574056870A9
:103D6300138E828F83A3A3A3A3A3A3A3A3A3A312AB
:103D73003E6680138E828F83A3A3A3A3A3A3A3A3CF
:103D8300A3A3123E447403F0123DF112359DE4F0F7
:103D9300EE2408F8EF123DED242D1240ACC0E012E2
:103DA3003E18D0E0125646242A1240ACC0E0123E20
:103DB30018A3D0E0125646240B123BBA123E6C12E3
:103DC3003F0512437C8A0A8B0BAC0AAD0B85088234
:103DD300850983E024061252AD123E0A125BE112FA
:103DE3000BE0122863E9F00229391244C022EE24C1
:103DF3000A123DF822123E008882F58322F8EF343E
:103E030000F98808890922123E0E22121E528508E3
:103E13008285098322850882850983123F09A3A32A
:103E2300228E828F83A3A3A3A3A3A3A3A3A3A312DB
:103E33003E3622E0F8123E3DA322A3E0F5838882BA
:103E430022123E4822E0240E123E4F22123E5322FB
:103E5300F8A3E03400F98882898322E0F81247103E
:103E6300640522123E48740222125E008508828590
:103E7300098322124D21740122023CFEC082C083B9
:103E830090031E74A4F0A37420F09003207498F0A0
:103E9300A37420F09003227492F0A37420F0900393
:103EA30024749EF0A374200236C574F4120428EA25
:103EB300FEEBFF123F12F5081210A88A0A8B0BA81B
:103EC3000AA90B8E828F83123F05E0687003A3E07B
:103ED30069602CE508A2E550268E828F83A3E0FB60
:103EE30090031E12359D1221878E828F83E0F8A3E3
:103EF30012506BA3124B507006123F12C2E5F00230
:103F03002939123F0922E0FAA3E0F5838A82228E3F
:103F1300828F83123E36A3E02274F51204281240E6
:103F2300721240992420F582E912706AFE74035ECE
:103F3300F50A12487C12286912408488828983F02A
:103F4300A3A882A983E50A60097402650A600302D3
:103F53003FE3740C5EFF601574086F601074046FA8
:103F6300701D7402650A7005EEA2E4402D8A828BEF
:103F730083A3A3A3A3A3A3A3A3E024231240D474E2
:103F83000C6F701012406D24241240BC2424124084
:103F93007F1240D77402650A7005EEA2E440411215
:103FA300406D24261240BC2426124089A31240E609
:103FB3001240891240E612407F1240D7EF600F741F
:103FC300086F600A740C6F600574046F70128A8244
:103FD3008B83A3A3A3A3A3A3A3A3E024221240D46C
:103FE3008A828B83A3A3A3A3A3A3A3A31240A27038
:103FF30005EEA2E150178A828B83A3A3A3A3A3A3F5
:10400300A3A3E0242E1248831240CD800E90030216
:104013001240CD900302E0041244DDA3A882A983D9
:10402300EEA2E7504212406D24211240891240D77C
:104033008C828D831240A2602E8A828B83A3A3A3DA
:10404300A3A3A3A3A3E024301240D4EEA2E150170C
:104053008A828B83A3A3A3A3A3A3A3A3E0243112E4
:1040630040AC88828983F0025F78124072E022EAD2
:104073002408FCEB3400FD8C828D8322124887A335
:1040830022125E00EE2212408D22F508A3E03400D6
:10409300850882F5832212409D22124F02E822E016
:1040A3002421124887E0540322FAA3E01240B322EA
:1040B3003400FB8A828B83E02212408D1240CDA311
:1040C300A882A9838C828D83E022E088828983F091
:1040D300221248871240DB22E088828983F0A308FA
:1040E300A983221240DB8C828D83E0242822C082A4
:1040F300C0838A828B83123F16F8740358F98A822D
:104103008B83A3A37401F0E9600574026970617481
:104113000C58FC601474086C600F74046C70137496
:1041230002697005E8A2E4401D8A828B83A3A3740D
:1041330002F0740C6C700A8A828B83A3A3E02402BE
:10414300F07402697005E8A2E440258A828B83A398
:10415300A3E02404F0EC600F74086C600A740C6C28
:10416300600574046C70098A828B83A3A3E004F056
:10417300E8A2E750318A828B83A3A3E004125E088E
:10418300F9A3E0F5838982A3A3A3E0540360178A0C
:10419300828B83A3A3E004F0E8A2E150098A828B17
:1041A30083A3A3E004F08A828B83A3A3E0040236F3
:1041B300C5C082C0838A828B83A3A3A3A3A3A3A323
:1041C300A3A3A3124B5060098A828B83A3A312413A
:1041D300D70236C6A3A3A3A3A3A3A3A31252A712D2
:1041E30017442274F7120428EAFEEBFF125DF888E5
:1041F300828983A3A3A3A3A3A3A3A3E4F0A312305D
:10420300A3A3A3A3A3F0A3F0E8125B88E9124222BD
:1042130012207AEEFAEFFB1220868015F582ED125A
:104223004D21E4F022740C120B2BE0F9740D1208EB
:10423300D57F01020641EA240BF582EB22126500C9
:10424300240922124D21127086750E00780C2274F7
:10425300011245381242F22274F512042874F31243
:104263000969EAFEEBFF7C087D00790085188285E9
:104273001983AA82AB831216A8122FDB1248BFC080
:10428300E07404120B2BD0E0F07402120B2B7401B8
:10429300124389C0E07405120B2BD0E01248C564A9
:1042A3000170097402120B2BE0D2E5F01242E812FE
:1042B3000B2BE0702D8E828F83124EAA1208A38ED1
:1042C300828F83A3A3A3A3124656740B120B2B1244
:1042D3004D2A1208D5851882851983AA82AB8312C9
:1042E3002032025F6C851882851983AA82AB831200
:1042F3002038740C2274F712042874FE120969EC36
:10430300FEEDFF7508C8851882851983AC82AD83DD
:104313001220F8E9640170498518828519831250C7
:104323007812436BA3A3E4F0900632E0601B8E8205
:104333008F83A3A3123E5E70108E828F83A3A3A3E9
:10434300A3A3A3A3A37401800D8E828F83A3A3A32E
:10435300A3A3A3A3A3E4F0EEFAEFFB122068E9F50D
:1043630008A9087402024231124970A322121E4C9A
:10437300E9640122124E37E022A3A3A3A3E8F0A32A
:10438300E9F01210A22212547EA3E02274F6120462
:104393002874F4120969EAFEEBFF122FDB1244B60C
:1043A300FAA3E0F5838A82A3E0FA7402120B2BEAE4
:1043B300125646240212494D7404120B2B124586E1
:1043C300EA600A7402120B2BE06404701C1244AA04
:1043D3001252AD7406120B2B1244B012494D7408DD
:1043E300120B2BE8F0A3E98056E06401600AE06455
:1043F300066005E0640570231244AA1240ACC0E0D5
:104403007403120B2BD0E012564624131252AD74D0
:1044130006120B2B125642241B80C07406120B2B60
:10442300E4F0A31244B624121252AD7408120B2BFB
:104433001244B01264FCC0E0740A120B2BD0E0F0FB
:104443007406120B2B124B5060287406120B2B129E
:104453005BE1120C94E9640170181210A28A088BB4
:1044630009AC08AD097406120B2B125BE11236D6A8
:10447300700F851882851983AA82AB831220C280AC
:1044830021851882851983AA82AB83121AD4E96421
:1044930001700FEEFCEFFD7406120B2B125BE112A1
:1044A3002062740C0237291244BB2412221244D412
:1044B300241A22F01244BB22EE2402F8EF1244C560
:1044C300E0223400F988828983221244D4F8A3E0DD
:1044D30022EAF0A3EB1244DDE022F08882898322F2
:1044E300C082C08374FC12096912455C1245868A36
:1044F300828B83A3A3E012494B7402120B2B124548
:10450300301220BC740480001208D50236C6C08263
:10451300C08374FD120969124544C0E07402120B92
:104523002BD0E012453412160C740380DBE8F0A3A1
:10453300E912453822F0851882851983AA82AB8354
:10454300228A828B83A3A3A3A3A3A312493D8A82B6
:104553008B83A3A3123E36E0228A828B83A3A3A379
:10456300A3A3A312456A2212456E22E0F8A3E0F941
:1045730085188285198322125E00EE240BF582EFE3
:10458300124D2112494022AA82AB8312169C740356
:10459300221249409003302274F412042874FB124F
:1045A3000969EAFEEBFF8E828F83A3A3124099244D
:1045B30009F508E912684A7403120B2BAC82AD8328
:1045C30088828983A3AA82AB831220F8E9640170ED
:1045D3006A85188285198374321248BF24F7C0E0B4
:1045E3007401120B2BD0E0F07402120B2BE4124572
:1045F30034120D668A0A8B0BAE0AAF0BEE4F603B8B
:104603007403120B2B124643A3A3124377C0E0EEAD
:104613002420122866D0E0F0750A0078081208A357
:10462300EE126E51EF124653EE240B122866124D12
:10463300301208D5EEFAEFFB120D6074050229362D
:10464300125E008E828F8322E50A2410F582E50B29
:10465300124D21E0FC7D0022C082C0831246876098
:104663000E24FE600F24FE601024FB6011801212E2
:10467300205C800D122056800812205080031220E7
:104683004A0236C68A828B83A3A3E0F8124710241A
:10469300FB22C082C0838A828B83A3A3A3A3A3A389
:1046A300A3A3E070528A828B83A3A3E0F812470C82
:1046B300640160431247066402603C1247066403C8
:1046C30060351247066404602E8A828B83A3A3128B
:1046D3003E606023124706640A601C124706640B9F
:1046E3006015124706640C600E124706640D6007DE
:1046F3007904121E3A800990032612359D122187F0
:104703000236C68A828B83A3A312471022123E3D30
:10471300E02274F612042874FA120969EAFEEBFF28
:104723007403120B2BEEF0A3EFF07403120B2BAAFE
:1047330082AB8312206E127064600302487785187F
:10474300828519837432F07405120B2BC082C083E7
:104753008E828F83A3A3A3A3E0D083D082F8E02823
:10476300C0E07401120B2BD0E01248C5C0E0740204
:10477300120B2BD0E01248AAF8A3E0F9E84960260F
:10478300E82417F582E9122869C082C083E8241659
:10479300F582E912706AD083D082F8E028F87401B8
:1047A300120B2BE028F0851882851983AA82AB832C
:1047B300120D668A088B09A808A909E84970030243
:1047C300486A8E828F83125BE188828983A3A3EA7E
:1047D300F0A3EB1248B0A3A3E0C0E0E82420F582E5
:1047E300E9122869D0E01263CFC0E0E82421F58202
:1047F300E9122869D0E01248BFC0E0E8242AF58214
:10480300E9122869D0E0F07405120B2BE0FA124884
:104813007C12706A2A1252ADE8242B124B117405D4
:10482300120B2BE0C0E0E8242DF582E9122869D0B1
:10483300E01248AAFAA3E0FBEA4B6019E8242BFA3A
:10484300E912292CA3A3A3A3A3A3A3A3E0241612D1
:1048530048831248928E828F83A3A3A3A3A3A3A307
:10486300A3E8F0A3E9800CEEFAEFFB122074122800
:10487300637410F07406023729E8240BF582E922E9
:1048830012488722FCA3E03400FD8C828D8322E052
:10489300FC8A828B83E02CFCA3E03400FD8A828BAC
:1048A30083ECF0A3EDF022124FA6A3E022F0E8126E
:1048B3006689E9124D217401124F0922124F9DA3FB
:1048C300E02212495AE02274F7120428EAFEEBFFB1
:1048D300127064701E124900124B50600612359616
:1048E300122187127064700B125BD5120D601228AF
:1048F30063E9F0EEFAEFFB122074024234122080D7
:104903008E828F83A3A3A3A3A3A3A3A3A3A322748E
:10491300F6120428EAFEEBFF8C088D09121AC8E987
:10492300700479018011AC08AD09EEFAEFFB900336
:104933002412359D12218702372C12456EE8F0A30D
:10494300E9F0221263C0E0222401F8A3E03400F965
:104953002212495AA3E02212495E2212496222120C
:104963004F0DA3A3A3A3A322124970E022E8F0A34F
:10497300E912497822124F0DA3A322126AF0121EE4
:104983005222124AD2EEFAEFFB22E0242B123E53BC
:10499300E0221236E012499C22E08E828F83A3220A
:1049A300124D77A3A3A3A32274F612042874F3125F
:1049B3000969124A9A124AF8120B2B740CF0740507
:1049C300120B2B740112547960097402120B2B74AD
:1049D3002180077402120B2B7401124254120B2B09
:1049E300E070327408120B2B124A4274061248BF4D
:1049F300124AB6EE2402F8EF1244C5124A2D12628F
:104A03005D124A2DA3124954C0E0124A24122869A8
:104A1300D0E01263C8740C120B2BE0F9740D02374B
:104A230029E508240BF582E50922124A38A3A3A33A
:104A3300A3A3A3A322E0850882850983A3A322124B
:104A43004AE0880889098882F5832274F7120428CA
:104A530074F3120969124A9A124AF8120B2B740959
:104A6300F07402120B2B7421F07405120B2B1242FB
:104A730052120B2BE0701D7408120B2B124AD874C0
:104A830007124AF1124AB6851882851983AA82ABA6
:104A930083122032024228EAFEEBFF7C087D007974
:104AA30000851882851983AA82AB831216A88E8289
:104AB3008F8322FCA3E0FD88828983A3AA82AB8330
:104AC300121E5222F582EF3400F583124AD222E0FD
:104AD300FCA3E0FD22124AE0888289832212498DD9
:104AE300F8A3E0F922124F081252A7227401124FC1
:104AF30009A3A3E02212493D7404221216A88508D3
:104B030082850983A322E0F508A3E0F50922F58253
:104B1300E9124D21EAF0A3EBF022124B21221249B4
:104B230078124F0222C082C083124B387444F0A320
:104B330074200236C512208C900326228E828F8326
:104B4300A3A3A3A3A3A3A3A3A3A312566012409D4D
:104B5300492274F7120428E9FE124B8212286912C3
:104B63004B50601888828983A3E05403700EEEFBD8
:104B730012487C122869124BB3124BAD024234EA3D
:104B8300125B88EB22C082C083EAF8EBF988828942
:104B930083A3A3A3A3A3E0FB88828983A3A3A3A3E3
:104BA300124BB3A3124BAD0236C6E0F91215D02255
:104BB300E0FA88828983A3A32274E81204288A086E
:104BC3008B098C168D178914741A120B2BE0F50AB6
:104BD300A3E0F50B741C120B2BE0F513741D120BE1
:104BE3002B780C120ACE12620DEB12706A242DFA86
:104BF3007B001216BA8A108B11AE10AF11EE4F70F4
:104C030003024CFE8E828F837401F08508108509A0
:104C13001175120078101208A37C157D00EE24187C
:104C2300124D081208D58516108517117810120831
:104C3300A37C097D00EE2402124D081208D57418D6
:104C4300120B2B12457A850A82850B83E0C0E0EEB6
:104C5300240F122866D0E0124D3EC0E0EE2411125C
:104C63002866D0E0124D39C0E0EE2410122866D039
:104C7300E01239FBE513124D63E4F0A3F0124D1774
:104C8300780C120AECEE2417122866E5141236EE9D
:104C9300F8A3E0F9EE240D122866124D5D12686C3C
:104CA30012706A6025EE242612528B242DF8124DC1
:104CB300551266A61242461208A312686A12465398
:104CC3008A828B83124D301208D5EE241912706735
:104CD3005403601D90031C124B50600CEEFAEFFB63
:104CE3001235A01221878013EEFAEFFB1216C08053
:104CF3000AEEFAEFFB900301124EF10268BB7C0847
:104D03007D00EE2404FAEF124D0E223400FB12163E
:104D13009C740322EE2413124D1E22F582EF124DD2
:104D230025223400F58322E0242B123BE01252A704
:104D330012169C740322124D4CE022124D43E022C2
:104D4300124D4722124D4CA322F0850A82850B8314
:104D5300A322EF3400F98A828B83124940E50822AB
:104D6300F0EE2426124D1E22F50CA3E0F50D750E70
:104D730000780C221236E8A3A3A32274F1120428AC
:104D83008A088B097A20124E84606F8E828F837417
:104D930006124EA08E828F83A3A3A3A31236DA8EAC
:104DA300828F83124E0A124D6B1208A37C107D0072
:104DB300EE2406124D081208D5850882850983A3BF
:104DC300A3A3124E002416FAEF3400FB120C8E85B7
:104DD3000882850983A3A3A3A3A3A3A3A3A3A3E0F7
:104DE300C0E0EE241E122866D0E0124E1AC0E0EE98
:104DF300241F122866D0E0124E22026B0FA3A3A336
:104E0300A3A3124AD2EE22A3A3A3A3A3124E132257
:104E13001236E4A3A3E022F0124A2412565622F0DB
:104E2300EEFAEFFB900527E0F91216C622124D1E8B
:104E3300124E3722E8F0A3E9124E3F22F085088292
:104E430085098322124E4B22123BFFF8A3E0F98E11
:104E5300828F83A3A32274F41204288A088B097A0D
:104E63000C124E8460188E828F837408124EA01227
:104E73004E941208A3124D011208D5124EEA0229CC
:104E8300397B001216BA8A0A8B0BAE0AAF0BEE4FB0
:104E930022F508A3E0F509750A00780822124E4BA3
:104EA300124E37A3A3E022A3A3124B09750A00787D
:104EB300082274F6120428EAFEEBFF7A057B00123F
:104EC30016BAEA4B601E8A828B83740A124EF78AE3
:104ED300828B83A3A312496B8A828B83A3A3A3A38D
:104EE300F0124EEE02372CEEFAEFFB900527E0F9B5
:104EF3001216C622124EFB22124F0D124F0222E04F
:104F0300F8A3E0F922A3124F0D22F08E828F8322A1
:104F1300C082C083E9900C74F09003187456F0A318
:104F2300740BF090031A7468F0A3740BF090031CD5
:104F3300747AF0A3740B0236C574F7120428EAFEE0
:104F4300EBFF8908EE4F7003121B5890032A124B94
:104F530050700890032A8022125DFC88828983A303
:104F6300A3A3A3A3A3A3A3A3124F9388828983A379
:104F7300A3A3A3A3A3A3A3A370DEEEF0A3EF124FF7
:104F8300A2E4F0A3124F99A3A3A3E508F0024234CD
:104F93001252A7EA4B22124F9D22124978A32212E2
:104FA3004FA622125482A3A32274F712042890035B
:104FB3002A800D8E828F83A3A3A3A3A3A3A3A3A35A
:104FC300126534EE4F60348E828F83A3A3A3A3A311
:104FD300A3A3E06970DD8E828F83A3A3A3A3E06AFA
:104FE3007003A3E06B70CC8E828F83A3A3A3A3A3D0
:104FF300A3E06C70BEEEFAEFFB80047A007B000244
:10500300423474F712042890032A12653490032A59
:10501300122FBC687002EB69701712506B125DFCA3
:1050230090032A12458690032A1265348030126554
:1050330027EE4F60298E828F83A3A3A3A3A3122FEE
:10504300B8687002EB6970E68A828B83A3A3A3A37B
:10505300A3A3A3A3A3125078A3A3A3124586121755
:1050630044EEFAEFFB024234123E3EA3A3A3A3A3F2
:10507300A3A3A3A3221252C2A3A32274F01204284F
:1050830074FA1209698A088B098A828B83A3A3A302
:10509300A3A3A3A3A3E0600D640160098A828B83A9
:1050A30012529F6005790202528685088285098320
:1050B300A3A3A3A3A3A3A3A3E0640370157404127F
:1050C3000B2BAC82AD83AA08AB091220F8E970134D
:1050D30080D3850882850983125DFC7404120B2B2F
:1050E30012458612668E12706A24321252AD12175E
:1050F3003E8A0A8B0BAE0AAF0BEE4F70030252844B
:105103007C327D0079001216A87402120B2BAA823E
:10511300AB83850882850983A3A3A3A3A3A3A3A326
:10512300A3E0F91216127402120B2BE0C0E0EE2476
:105133002D122866D0E0F0EE242CF50AEF3400F5AA
:105143000B7403120B2BE0850A82850B83F0790124
:10515300EEFAEFFB120B4485080C85090D750E0062
:10516300780C1208A37C1C7D00EE240B124D081250
:1051730008D5EE243012528B24320808124D5524E0
:1051830011F8E50912705FFCE9FD8C828D831240F2
:1051930084242E122866124D5D125624126873124F
:1051A30008A38C828D83124ACE8A828B83124D3060
:1051B3001208D57404120B2B1252BE1245869003AB
:1051C300021252B4F0900302E004125667242A122A
:1051D3005B95750D00850A82850B83E0780C120AB6
:1051E300448A828B83E50CF0EE2429122866E50CB1
:1051F3001263BCE4F0E5082415F582E5091252991F
:1052030074015007120B2B74018004120B2BE4F072
:10521300EE2427123E00851882851983AA82AB8368
:105223001215FAE924FE850882850983F0F50875CD
:105233000900EE242E124AC7ECF8EDF9AA08AB09CF
:10524300120271E88E828F83A3A3A3A3A3A3A3A3B4
:10525300F0ECF8EDF9AA08AB091202718B09EA45E3
:1052630009600F8E828F83A3A3A3A3A3A3A3A3E0A9
:1052730004F0EE24201270674408125C0C7900805D
:105283000279107406023A0A12705DFAE9FBEE2203
:10529300EE2415F582EF125656A2E0221252A712FF
:1052A3001144E922E0FAA3E0FB22FAA3E03400FB75
:1052B3002212499CA3A3A3A3A3A3221252C2221284
:1052C3004F028E828F83A3A3A3A32274F412042814
:1052D300EAFEEBFF125B8D124B17900CC1E0F8EE68
:1052E300242B127067C3984003025443125BAD70C2
:1052F30015EE242B12706704125471C0E0EE2429BA
:10530300122866D0E0F0EE2428127067FC79008042
:105313000109EE242C123145E9C398502675080182
:10532300750900E97808120A44125BAD550860E17B
:10533300E92CFC750801750900E97808120A44E0B4
:105343004508F0EE242712545EEE242E122866EC54
:105353008A088AF0A4F8ABF0E42BF9E098F8A3E00C
:1053630099F9C3E89508E99400EE403924271231EE
:1053730045125BAD6037EE242D12286612546BA3E1
:10538300E4F0EC7054EE2420127067442012438939
:10539300C0E0EE2426122866D0E0F0EE243012544A
:1053A3005EA3E08059242912286674FFF090035C01
:1053B300E0FA900CC4E0F508EA8508F0A4ABF075B8
:1053C300F064A4FAADF075F064EBA42DFB8E828F2C
:1053D30083A3A3EAF0A3EB80A8EE24201270675402
:1053E300DF124D63ECF08C08EE24271270678508FA
:1053F300F0A4FAABF0EE2430F582EF125455FBEE35
:10540300241EF582EF125451125479C0E0EE242584
:10541300122866D0E0F0EE241C122866E812565BD0
:1054230090032C124B50600BECF91235A01221871C
:10543300E97018EE240BFAEF3400FB122122800BE3
:105443007BE9EE2422F582EF12562E0229391263EC
:10545300A7221256562AFAA3E03B2212546222F5DF
:1054630082EF124D25E0FA2212499CA3F022F0EEBE
:10547300242A1256532212547EE0221254822212FC
:105483004962A3A32274F412042890032A126534F8
:105493001217E68A0A8B0B7CFF7DFF8020E0C398FE
:1054A300FAA3E099FBC3EA9CEB9D500E8E828F8397
:1054B300A3A3E0C398FCA3E099FD126527EE4F6018
:1054C30059125DF8E50AC398F8E50B99F98E828FB6
:1054D30083125BDFC3E89AE99B8E828F83A3A34089
:1054E300BCA3A3A3A3E06402701DEE240B125BB064
:1054F300600CEE2410122866125BE11216C0EEFA5D
:10550300EFFB120B508007EEFAEFFB120B5C7A01F4
:105513007B00900C74123982801474FF6C700374D6
:10552300FF6D600A7A017B00900C7412319302299B
:105533003974F01204288A088B09ECFAEDFB890A06
:105543007C0112668E125B9F8A0C8B0DAE0CAF0D25
:10555300EE4F7003025621E50A6003025621E50867
:10556300125624E0F8EE242812706768600302568E
:1055730021EE242C12545EE82AF8E43400F98E82DA
:105583008F83A3A3A3A3A3A3A3A3E0FAE89AE99415
:1055930000C365D03340141258BE125BB3700C7B4A
:1055A30000126687E50912562E80731258BE125BED
:1055B300B37031EE242C127067F9EE242912286699
:1055C3007508FF750900E97808120A44E508F0EE4A
:1055D300242A122866E50812564B29F0EE242B12D2
:1055E30039778022E5082414F8E5093400F9E0C08E
:1055F300E0EE242A122866D0E0125646C0E0EE24DC
:1056030029122866D0E0125667242D122866123C10
:10561300F2A312565B7A01FB900C74123982023AA0
:105623000D2413F582E509124D2122125465EE244F
:1056330014124D1E124BADEEFAEFFB120B5022EA81
:10564300F0A3EB1244DDE022F0EE2428125653229D
:10565300F582EF124D25E022F0A3E4F022E0240FBF
:10566300123E4F22F01217E68E828F83EAF0A3EBED
:10567300F0EE2274E812042874FD120969E9851812
:1056830082851983F08A0A8B0B8C168D17741B1273
:105693000B2B1258B6741D120B2B780C120ACE8AE0
:1056A300828B83A3A3E0F91215EE8A128B13EA45CA
:1056B3001370077A007B000258B17A127B0012172D
:1056C3003E8A088B09AE08AF09EE4F70030258AD4E
:1056D3007C127D0079001216A87401120B2BAA828A
:1056E300AB83850A82850B83A3A3E0F9121612EE1E
:1056F300240FF508EF12684A7402120B2BE0850899
:1057030082850983F07902EEFAEFFB120B448516CA
:10571300828517831252BEE8F0A3E91258F68E82EF
:105723008F83A3A3A3A3A3A3A3F07514FF751500ED
:10573300850882850983E07814120A44122863E5F8
:1057430014F0851282851383A3E0F812470CC0E09E
:10575300EE240B122866D0E0125900F508EE240D52
:10576300122866E508F0125BB8E08508F0A424244B
:10577300FAE5F03400FB1216BA8A088B09EE1262BE
:105783000EEF124B14EA450970030258A28A828B6A
:1057930083741A12565B8A828B83A3A3F0A31258D5
:1057A300EA1258D3124586AC16AD17EA2406FAEB73
:1057B3003400FB122110850A82850B83A3A3A3E087
:1057C300C0E0E508240FF582E509122869D0E0F06E
:1057D300900379125DFCE50824101258C712590D85
:1057E300A3125DFCE50824121258C7124D3EC0E017
:1057F3001258BE122869D0E0F0E50A125B88E50B67
:1058030012706AC0E0E5082415F582E509122869DB
:10581300D0E01258E1C0E0E5082416F582E509124C
:105823002869D0E0127476E0C0E0E5082417F58219
:10583300E509122869D0E0127476A3E0C0E0E50818
:105843002418F582E509122869D0E0124946C0E020
:10585300E5082419F582E509122869D0E0F0E50886
:10586300241AF582E509122869780C120AECE50876
:105873002424F8E5093400F9E5082422F582E50932
:10588300124583E50A126689E50B12706AC0E0E5EA
:1058930008241FF582E509122869D0E0F0800BEE99
:1058A300FAEFFB120B507E007F00EEFAEFFB74035E
:1058B3000268B8E0F510A3E0F51122E5082414F519
:1058C30082E50922F582E509124D21E8F0A3E922D8
:1058D300E0F8A3E0F98A828B83A3A3A3A322F08534
:1058E3001082851183E0221258EE22124D47A3A3A2
:1058F300A3A322F0126696E50B12565622F0E50A90
:105903002410F582E50B125656221258EEA3A3A3D8
:105913002274E81204288A0A8B0B8C108D118914C7
:105923007418120B2BE0F516A3E0F517741A120B7B
:105933002B780C120ACE750900EA2413F582EB12B8
:10594300706AF50890032C124B506011A90890035C
:105953002C12359D122187E96003025B857C028549
:105963001082851183125BE1126696E50B125B9F31
:105973008A128B13AE12AF13EE4F704B850A8285DA
:105983000B83A3E0A2E04003025B85780C12089F1F
:1059930078161208A7A914AC10AD11AA0AAB0B1202
:1059A3000B6E74061208D58A0C8B0DAE0CAF0DEE80
:1059B3004F7003025B858E828F83A3A3A3A3A3A34C
:1059C300A3A3E508125C0C85080C8E828F83A3A326
:1059D300A3A3A3A3A3A3E024FFF8E434FFF9E8659A
:1059E3000C7001E97003750901EE240B125BB070B2
:1059F30003025B38850A82850B83A3E0A2E0500390
:105A0300750800125BECE50C98E499C365D033404C
:105A13001EE0F8EE240E12706728F0750CFF750D6A
:105A230000E8780C120A44EE125B88EF125BA612B0
:105A3300669DE50B1242461208A312464B85080CDD
:105A4300EE240D127067850CF0A4F8A9F0EE241073
:105A530012706724221240AC28FAA3E039FB1245E6
:105A63008E1208D5750C01125BC4780C120A44120D
:105A73007064450CF0E509A2E05069EE240C125B5A
:105A830095125BC404780C120A448A828B83E04526
:105A93000C125C0485080C850CF0A4F8E50A12626C
:105AA3000EE50B12706AFCE82CFCE5F03400FDEE09
:105AB3002410122866125BE5125E04F47026EE24AD
:105AC3000BF50CEF3400F50DEE2410122866125B73
:105AD300E1850C82850D83124EF1850C82850D8341
:105AE30074FF8050125B8D124B1790035CE0FA90A9
:105AF3000CC4E0F50CEA850CF0A4FAABF0F8EBF972
:105B0300900CC1E0F50CE8850CF0A4F8ACF0850C22
:105B1300F0E9A42CF9EA28F8EB39F9E875F064A464
:105B2300F8AAF075F064E9A42AF98E828F83A3A3FF
:105B3300E8F0A3E9F0125BEC12651EE8650C700156
