:020000040000FA
:06000000020B3E02028C1F
:03002B000209A225
:030053000201B2F5
:03006B0002043854
:100083000202190101FF01010503010F10FEFF7EAA
:10009300157E157E157E1534142E147E15B9230096
:1000A3000000007D24000000000C0000000C000193
:1000B300FFFF0101010027050000009E05B80102B2
:1000C30002000800000502070401051E02051E02C6
:1000D3000A0A03B80B02803E010201FFFF010A0175
:1000E3001401E096511800020206FF010900EF58BF
:1000F3000C710D000828202E2034203A2000000027
:1001030000000000000000000000000000000000EC
:1001130000000028202E2034204020000000000092
:1001230000000000000000000000000000000000CC
:100133000028202E2034204620000000000000006C
:100143000000000000000000000000000000002884
:10015300202E2034204C200000000000000000006E
:10016300000000000000000000000000001020203C
:1001730020202020202020202020202020200110AB
:10018300040100010005758001DC801104010001F8
:100193000005758001DC80120401000100057580F3
:1001A30001DC8013040100010005758001DC80C0BF
:1001B300E074F1120512A2AFE433FED2AFE5A7FF5C
:1001C300E5A1F5085FF509741055096006121C8C4A
:1001D30075A1EF740855096008121C9275A1F78088
:1001E3002BEFA2E0C0D0E508A2E092F0120AD715E7
:1001F3008182F05017906198E0F890066AE0C39806
:10020300A2D265D0335002E8F075A1FEEEA2E092CF
:10021300AF7F020205C9C0E074F2120512A2AFE477
:1002230033FED2AF9061A4E0F8759B00E59158547A
:100233000860087591F7121CD4802AE59158541070
:1002430060087591EF121CDA801BE8A2E0C0D0E5CC
:1002530091A2E092F0120AD7158182F05007E0C212
:10026300E0F0121E129061A3E0F8E5E9585404602F
:100273000E121DE875E9FB906193E0A2E640F2EEF1
:10028300A2E092AF7F010205C9C0E074F212051229
:10029300A2AFE433FED2AF9061A5E0F8E5BF5854B6
:1002A30004600675BFFB121E2480D4C3E498F8E4EF
:1002B30099F91202EF8026C3E49AFAE49BFBE92042
:1002C300E7E91202EFE498F8E499F922C3E498F815
:1002D300E499F91202EFE498F8E499F9C3E49AFA7D
:1002E300E49BFB22EB20E7CFE920E7E0B90010BB5A
:1002F3000008E88AF084F8AAF022E4FBC8FA22EBAB
:1003030070227B10C833C8C933C9335007C39AC39B
:10031300DBF280069A50012ADBEAC833F4C8C933FA
:10032300F4C9FA2275F008E4C833C8C933C933C91C
:100333009AC99B5004C92AC93BD5F0ECFBC833F4D6
:10034300C8E4C9FA22080808EAC0E0EBC0E086F076
:10035300E7A4FA180986F0E7A42AFA180986F0E751
:10036300A42AFA180986F0E7A42AFA1986F0E7A462
:10037300FBE5F02AFA190886F0E7A42BFBE5F03A2F
:10038300FA190886F0E7A42BFBE5F03AFA181809E6
:1003930086F0E7A4C5F02BFBE43AFA1908E7C5F0A9
:1003A300C6A426F6E5F03BFBE43AFA1886F0E7A488
:1003B300F6E5F00826F6E43B08F6E43A08F6D0E062
:1003C300FBD0E0FA22E4CFC0E0E4CEC0E0E4CDC04D
:1003D300E0E4CCC0E075F020C3E633F608E633F67C
:1003E30008E633F608E633F6181818EC33FCED3359
:1003F300FDEE33FEEF33FFC3EC9709ED9709EE975C
:1004030009EF97191919400FFFEC97FC09ED97FDB8
:1004130009EE97FE191906D5F0BEECF709EDF709B9
:10042300EEF709EFF7191919D0E0FCD0E0FDD0E0A1
:10043300FED0E0FF22C0E074F2120512A2AFE43353
:10044300FED2AF900C56E4F0E589A2E450067401A5
:10045300F053ABEFE589A2E5500753ABDFE0D2E5FC
:10046300F0E589A2E6500753ABBFE0D2E6F0E58999
:10047300A2E7500753AB7FE0D2E7F0E06016900CA1
:1004830057E004F07C147D007A107B00900C58E058
:10049300F9121848758900C2C5EEA2E092AF7F0138
:1004A3000205C92518C582C0E0E51934FFC583C01C
:1004B300E0E518C3958224F810AF08858319858277
:1004C300188008858319858218D2AFCEF0A3E52062
:1004D300F0A37808E608F0A3DEFAEFF0A3E58124A1
:1004E300FAF8E608F0A3E608F0A3E608F0A3080884
:1004F300E608F0A3E608F0A315811581D0E0FED04D
:10050300E0F8158115811581E8C0E0EEC0E022C056
:10051300D02518C582C0E0E51934FFC583C0E0E5E6
:1005230018C3958224F310AF088583198582188038
:1005330008858319858218D2AFC8F0A3E9F0A3EA2E
:10054300F0A3EBF0A37908E709F0A3D8FAECF0A342
:10055300EDF0A3EEF0A3EFF0A3D0E0F0A3D0E0F032
:10056300A3D0E0F0A3E520F0A3E5F0F0A322120B63
:10057300A0B900030205B3E49003017875790A80FA
:1005830002F0A3D8FCD9FA900C75AA82AB83900031
:1005930086782D79028015E493A3AC82AD838A8299
:1005A3008B83F0A3AA82AB838C828D83D8E9D9E7AE
:1005B3007582777583B87404120901758220758377
:1005C300227400120901851983851882E0C0E0A313
:1005D300E0F9A3E0FAA3E0FBA37808E0F608A3DFC1
:1005E300FAE0FCA3E0FDA3E0FEA3E0FFA3E0C0E08C
:1005F300A3E0C0E0A3E0F5D0A3E0F520A3E0A3F5DA
:10060300F010AF08858319858218800885831985C2
:100613008218D2AFD082D083D0E0F8D0E03200008D
:100623000875F0108E1A8F1B85821F85831E85180F
:1006330082851983E0CEA3E0CF851F82851E83EBDD
:10064300C9EAC8EDCBECCAC3E833C8E933C9EA3316
:10065300CAEB33CBC3EA9EF51DEB9FF51CB35004E5
:10066300AB1CAA1DEC33CCED33CDD5F0DAAE1AAF0B
:100673001B22D083D082ECC0E0EDC0E0E493A3FC66
:10068300E493A3FDED4C600D12074DEC24FFFCED4C
:1006930034FFFD80EFE493A3FCE493A3FDED4C60F2
:1006A3000D1207EAEC24FFFCED34FFFD80EFD0E0F0
:1006B300FDD0E0FCE493A3C0E0E493C0E0228519FD
:1006C30083851882E0A3FEE0A3F5207808E0A3F673
:1006D30008DFFAE0A3FFE0A3C0E0E0A3C0E0E0A3EB
:1006E300C0E0E0A3C0E0E0A3C0E010AF088582183B
:1006F3008583198008858218858319D2AFD083D06A
:1007030082020907D083D082E9C0E0E493A3C386C1
:10071300F0C5F095F0F908E493A386F0C5F095F0E1
:10072300700BE493A3C3994005E9048002A3E47525
:10073300F002A42582F582E5F03583F583D0E0F954
:10074300E493A3C0E0E493C0E022C0E0C3E4939643
:10075300087401939618400FE493667008087401B7
:1007630093661870007019A3A3C3E49396087401E9
:10077300939618A3A3400DD0E0D0E0D0E00206B1D9
:10078300A3A3A3A3A3A3D0E02274048004740280D0
:1007930000CCC0E0EDC0E0E518C39CCCAD1950011E
:1007A3001D10AF068C188D1980068C188D19D2AFC9
:1007B300120883D0E0FDD0E0FC2274028000CCC09C
:1007C300E0EDC0E0E518C39CCCAD1950011D10AF9E
:1007D300068C188D1980068C188D19D2AF12083F1C
:1007E300D0E0FDD0E0FC22C0E0C0F088F0E49366E6
:1007F30070080874019366187000A8F0A3A3700B27
:10080300D0F0D0E0D0E0D0E00206B1A3A3D0F0D086
:10081300E022D083D082CCC0E0E493A36006120828
:10082300C31470FAE493A360061209D31470FAD0C8
:10083300E0FCE493A3C0E0E493C0E022CAC0E0E498
:1008430093A3C582CCC582C583CDC583F0A3C582DE
:10085300CCC582C583CDC583DAE5D0E0CA22A2E741
:1008630092D65002F40430F70663F0FF05F0B3406C
:100873000384800384F40430D60563F0FF05F0227B
:10088300CAC0E0E0A3C582CCC582C583CDC583F0D1
:10089300A3C582CCC582C583CDC583DAE6D0E0CAC1
:1008A300227009080808226016181818C6C333C630
:1008B30008C633C608C633C608C633C6D5E0EA221F
:1008C300C0E0E493A3D39C5010E493A3C39C400AD9
:1008D300D0E0D0E0D0E0020832A3A3A3D0E022C04E
:1008E30008C3E096F50808A3E096420808A3E0963B
:1008F300420808A3E09645087001D3D00822C09FA0
:10090300F59FE473D09F22D083D082C09FE493C02D
:10091300E0740193C0E0740293F59F227404800A8B
:1009230074038006740280027401C0E0F4041209A7
:100933003AD0E0120B7B222518F58210AF08F51888
:10094300400215198008F51840021519D2AF851910
:100953008322C0D0251810AF08F51850020519805E
:1009630008F51850020519D2AFD0D022BB0102E717
:1009730022C082C08389828A83BB0003E08002E4B1
:1009830093D083D082226016080808C6C313C61802
:10099300C613C618C613C618C613C6D5E0EA22C0C6
:1009A300E0C0D0E8C0E0E5A8D2AFC2C7A2E792AFEB
:1009B300D0E0F8D0D0D0E032C3E0C696F608A3E08A
:1009C300C696F608A3E0C696F608A3E0C696F622F6
:1009D300C0E0E493A36C7009D0E0D0E0D0E002085B
:1009E30032A3A3D0E022251810AF08F51840021552
:1009F300198008F51840021519D2AF22E766701066
:100A03000809E766700A0809E76670040809E766DB
:100A130022C3E09608A3E09608A3E09608A3E09615
:100A2300A2D265D03322E066701008A3E066700A94
:100A330008A3E066700408A3E06622C3E096F0080A
:100A4300A3E096F008A3E096F008A3E096F022E076
:100A530026F008A3E036F008A3E036F008A3E0365A
:100A6300F022E026F608A3E036F608A3E036F608FF
:100A7300A3E036F622E627F60809E637F60809E684
:100A830037F60809E637F622E657F60809E657F679
:100A93000809E657F60809E657F622E056F608A3D2
:100AA300E056F608A3E056F608A3E056F622E05611
:100AB300F008A3E056F008A3E056F008A3E056F0D0
:100AC30022700422600D18C6C333C608C633C6D5C8
:100AD300E0F41822C0E0E8C0E0E58124FCF8E6A2D7
:100AE300E7D0E0F8D0E022E647F60809E647F60843
:100AF30009E647F60809E647F622E4C396F608E452
:100B030096F608E496F608E496F622C6F4C608C6F6
:100B1300F4C608C6F4C608C6F4C622C3E09608A302
:100B2300E09608A3E09608A3E09622C3E796080997
:100B3300E7960809E7960809E7962275D0007581BC
:100B43004075180175190300020571E0F608A3E06A
:100B5300F608A3E0F608A3E0F622600C08C6C31368
:100B6300C618C613C6D5E0F422E6F008A3E6F008DB
:100B7300A3E6F008A3E6F022CAC0E0E6F0A308DA91
:100B8300FAD0E0FA22E0FAA3E0FBA3E0FCA3E0FD45
:100B930022EAF0A3EBF0A3ECF0A3EDF022E5C754B7
:100BA300F84401F5C77901222518F582E43519F5D2
:100BB3008322C2AF75D69F0200002212090ACF50CA
:100BC3000012090AF8500012090A68510012090AB2
:100BD300C1510012090A3A520012090A8A5400123A
:100BE300090A44560012090AF0560012090A32583B
:100BF3000012090AD05A0012090AD65D0012090A26
:100C0300E35D0012090A715E0012090A235F0012F4
:100C1300090A6B5F0012090ACB5F0012090AE75F3A
:100C23000012090A1B600012090A50600012090A27
:100C330039610012090AEE610012090A43640012C5
:100C4300090A90650012090A33660012090AC06690
:100C53000012090AF6660012090AA8670012090AB7
:100C63007A680012090A356A0012090A896A0012B1
:100C7300090ABD6A0012090A386B0012090A126CCC
:100C83000012090AD06C0012090A156D0012090A34
:100C93002D6D0012090AC46D0012090A3570001285
:100CA300090A4A720012090A68720012090A867256
:100CB3000012090A60730012090A7E760012090AFB
:100CC30000800212090A35800212090A5B800212AF
:100CD300090A95800212090AA7800212090AF980FB
:100CE3000212090A5A810212090AE4810212090A4C
:100CF30088820212090AD0820212090A0A830212A6
:100D0300090A27830212090A4C830212090A9E83E5
:100D13000212090AB7830212090ADD830212090AC1
:100D2300FC830212090A37840212090A7B84021225
:100D3300090AA2840212090AF3840212090AA3858A
:100D43000212090A5B860212090A23870212090AA0
:100D5300E3870212090A27880212090A4C88021241
:100D6300090A8F880212090ADC880212090A348AE6
:100D73000212090ABA8A0212090AD88A0212090A55
:100D8300028B0212090A1C8B0212090A2B8B021214
:100D9300090A368B0212090AF68B0212090A4F8CD2
:100DA3000212090A118D0212090A198D0212090A87
:100DB300918D0212090AE08D0212090A268E02128F
:100DC300090A678E0212090AF78F0212090AAF9005
:100DD3000212090A1B910212090A46920212090A17
:100DE30057920212090ACD920212090A5F93021264
:100DF300090AB7930212090A77940212090A9E9408
:100E03000212090ABC940212090ACE940212090AB8
:100E130021950212090A5E950212090A6B950212C4
:100E2300090AEE960212090A43980212090A5C980B
:100E33000212090A98990212090A339A0212090A3C
:100E43006C9A0212090AB89A0212090AD49B021276
:100E5300090A1D9E0212090A289E0212090A339EDC
:100E63000212090A3D9E0212090A489E0212090A49
:100E7300629E0212090A6C9E0212090A769E0212EF
:100E8300090A819E0212090AA99E0212090A049FF5
:100E93000212090A289F0212090A4C9F0212090A28
:100EA300AA9F0212090AEE9F0212090A0AA002125D
:100EB300090A81A00212090AB9A00212090A05A1AE
:100EC3000212090A62A10212090A1CA20212090AE9
:100ED30000A40212090A59A40212090A89A50212DE
:100EE300090AAFA50212090A38A70212090AB4AA0D
:100EF3000212090A86AC0212090A4FAE0212090A4B
:100F0300FCAE0212090A67B00212090A06B1021204
:100F1300090A53B10212090ABDB10212090ACCB17E
:100F23000212090A53B40212090A05B60212090A87
:100F330072B60212090A51B70212090A6AB80212FA
:100F4300090AE7B90212090A06BA0212090A5BBAC8
:100F53000212090A60BB0212090A88BB0212090ABB
:100F6300E0BB0212090ABFBC0212090A03BD021246
:100F7300090A4EBD0212090AB9BD0212090AFABED4
:100F83000212090A5EBF0212090AACC00212090A60
:100F93000CC30212090A3DC30212090AF5C4021264
:100FA300090A4AC50212090A4EC60212090AEBC609
:100FB3000212090A44C70212090AF7C70212090AF0
:100FC30099C80212090A39C90212090ADEC90212B2
:100FD300090AE2800112090A21810112090A6883C0
:100FE3000112090AB2830112090ACD840112090A06
:100FF3003D850112090A72850112090AE68601126A
:10100300090A69890112090A928A0112090A288BBD
:101013000112090A30940112090AC5940112090A3E
:10102300AC970112090A9F980112090A009901124B
:10103300090A1C9A0112090A019C0112090A129E4B
:101043000112090A7C9E0112090A4E9F0112090A24
:1010530005A00112090A0FA00112090A3DA00112FD
:10106300090AFAA00112090AD1A10112090A98A2D8
:101073000112090A4AA30112090A73A30112090AF8
:1010830095A30112090AEBA50112090AC3A60112CD
:10109300090A07A70112090A6FA70112090A27A85B
:1010A3000112090A59A80112090A9DA80112090A85
:1010B300D3A80112090A1FA90112090A74A901126E
:1010C300090A79A90112090ACCA90112090AF1A98D
:1010D3000112090A00AB0112090A64AB0112090AE1
:1010E300D4AB0112090A60AC0112090A2DAF011237
:1010F300090A11B00112090A94B10112090ACAB30B
:101103000112090A78B40112090A28B50112090A61
:1011130069B70112090A0CB80112090A53B801127E
:10112300090AFFB90112090A13BA0112090A1DBA01
:101133000112090A45BA0112090A51BA0112090A30
:1011430070BA0112090A55BC0112090A8CBC0112BA
:10115300090A96BC0112090AA0BC0112090AFBBCC8
:101163000112090A45BD0112090A4DBE0112090AFD
:10117300A4BE0112090AF3BF0112090A37C0011202
:10118300090ADFC00112090AC2C10112090A6DC2AC
:101193000112090AB9C30112090AB7C40112090AE3
:1011A3005DC50112090AEDC50112090A04C601123F
:1011B300090A3BC60112090A45C60112090A50C6AB
:1011C3000112090A6EC60112090AB2C60112090AFE
:1011D3000FC70112090A34C70112090A4EC70112C7
:1011E300090ADAC70112090AF7C80112090A64C910
:1011F3000112090A4BCA0112090A72CA0112090A29
:10120300E6CA0112090A61CB0112090A65CC01126F
:10121300090A5BCD0112090A0ACE0112090A1DCF80
:101223000112090AB9CF0112090A46D00112090AAB
:1012330024D10112090A5CD10112090AB4D10112A5
:10124300090A7DD20112090A9ED20112090A25D385
:101253000112090A49D30112090A6BD30112090ABF
:10126300B4D30112090ACAD50112090AB1D601126F
:10127300090A62D70112090A98D90112090AE8D9A1
:101283000112090A28DA0112090A6ADA0112090AA3
:10129300C6DA0112090AF4DA0112090A18DB01128B
:1012A300090A6BDB0112090A99DB0112090AD2DB75
:1012B3000112090A27DC0112090A8DDC0112090A4D
:1012C300E1DD0112090A04E00112090A71E00112C9
:1012D300090A9AE00112090A25E10112090A8CE1BF
:1012E3000112090AD7E10112090AFBE10112090AF5
:1012F3001FE20112090A7AE20112090A95E20112B8
:10130300090A4EE30112090A88E30112090A2E8B26
:101313000412090A668B0412090A878B0412090A4C
:10132300C98B0412090A2F8C0412090A398C04127E
:10133300090A498C0412090A7E8C0412090AC78F10
:101343000412090A71910412090A71930412090A19
:10135300A2CA0212090AE8CA0212090AC8CB021277
:10136300090ACACC0212090ACDCD0212090A59CFC1
:101373000212090AB7CF0212090A74D00212090A2B
:1013830092D10212090A03D20212090A3FD20212AF
:10139300090A8DD20212090A97D20212090ADBD274
:1013A3000212090A37D30212090AD2D30212090A16
:1013B3004FD40212090A1ED50212090AB7D5021226
:1013C300090AD7D50212090A0DD60212090A3ED616
:1013D3000212090AFFD60212090A0FD70212090ADA
:1013E30063D70212090A7ED70212090A90D70212A2
:1013F300090A99D70212090AF3D70212090A4FD828
:101403000212090A9BD80212090AB6D80212090A63
:10141300E7D80212090A04D90212090A10D90212E2
:10142300090A84DA0212090A9DDA0212090A04DBA4
:101433000212090A17DB0212090A25DB0212090A42
:10144300D9DB0212090ABDDC0212090AC3DD02124A
:10145300090A4DDE0212090A57DE0212090AC4DE26
:101463000212090ADBDE0212090A0DDF0212090A5F
:1014730046DF0212090A70DF0212090AD1DF0212E3
:10148300090AF1DF0212090A0FE00212090A55E004
:101493000212090A7BE10212090AC8E10212090ACF
:1014A300F7E10212090A6DE20212090A95E2021239
:1014B300090ACEE20212090ADCE20212090A34E343
:1014C3000212090A83E30212090AC2E30212090A99
:1014D300F2E30212090A1EE40212090A29E40212C3
:1014E300090A47E40212090A09E50212090A13E587
:1014F3000212090A4EE50212090A64E50212090AF8
:10150300B9E50212090ACDE50212090ADBE6021265
:10151300090AEEE60212090A03E70212090AA5E71D
:101523000212090A28E80212090AE6E80212090A65
:10153300F1E80212090A1DEA0212090A39EA021243
:10154300090A8BEA0212090ACAEA0212090ADFEA45
:101553000212090A41EB0212090AD0EB0212090A2C
:101563001BEC0212090A6CEE0212090AEAEE0212DD
:10157300090A5FEF0212090A81F10212090A99F1BD
:101583000212090A9CF10212090AA8F10212090ABD
:10159300BCF10212090AC4F10212090AF7F102129C
:1015A300090AA7F20212090A1DF30212090A90F3AB
:1015B3000212090A44F40212090AF9F40212090A8E
:1015C30018F50212090AB8F50212090AC4F5021243
:1015D300090AEFF50212090AF2F50212090A5CF68A
:1015E3000212090A84F70212090A5CF80212090AB4
:1015F300E7F80212090A00FA0212090ABDFA0212F6
:10160300090AF6FA0212090A27FB0212090AE5FB84
:101613000212090A15FC0212090AF0FC0212090A55
:1016230089FD0212090A14FE0212090AC5FE0212FA
:10163300090A48FF0212090A7AFF0212090ACE4A6E
:101643000012090A0FF60312090A74F60312090AB3
:10165300B1F60312090A00F70312090AEAF80312A2
:10166300090AD1FA0312090A0AFE0312090A30FE13
:101673000312090A48FE0312090AB1FE0312090AFA
:10168300EDFE0312090A1AFF0312090A4CFF0312A3
:10169300090AAAFF0312090A00800412090A7150F9
:1016A3000012090AB0800412090A08810412090A07
:1016B30082820412090A9E820412090AD982041240
:1016C300090A60830412090AB0830412090A7D849B
:1016D3000412090A81850412090AD5850412090A2C
:1016E30050860412090AB1860412090AF28604120A
:1016F300090A9D870412090ABB880412090AF188A2
:101703000412090A3C890412090A83890412090A8A
:101713000D8A0412090AB28A0412090AA89B041248
:10172300090AEE9B0412090A589C0412090A799CBF
:101733000412090A199D0412090A239D0412090AB5
:10174300709D0412090A959D0412090AF59D04125D
:10175300090A8B9E0412090AC39E0412090A1C9FDC
:101763000412090A789F0412090AA69F0412090A9F
:101773002EA00412090A73A00412090AB2A00412CB
:10178300090AF7A00412090A09A10412090A1BA1F4
:101793000412090A3AA10412090A43A10412090A0C
:1017A300EFA10412090A2FA20412090AF1DD04129F
:1017B300090A1FD30412090A55D30412090A9ED336
:1017C3000412090AEBD40412090AF6AA0312090A3D
:1017D3006FAC0312090A30AE0312090A6CAE03128E
:1017E300090AF3B10312090A39B20312090A4EB402
:1017F3000312090A20B50312090ACCB50312090A18
:1018030077B70312090AC1B90312090ADDBC03122F
:10181300090AEBBC0312090AC6BD0312090AD9C19E
:101823000312090AD1E00412090A84E20412090A24
:101833009AE20412090A79C30412090A8CC3041236
:10184300090A2AC40412090A6CC40412090A91C4BD
:101853000412090AD6C40412090A0FC50412090A9C
:1018630040C50412090AB3C60412090AC4DE0412ED
:10187300090AFADE0412090A16DF0412090A58DFFC
:101883000412090A68DF0412090A6CC20312090A66
:10189300BEC20312090A2DC30312090A24C4031288
:1018A300090AA8C40312090A6FC50312090A84C5E9
:1018B3000312090ACEC50312090A1DC60312090A37
:1018C3006FC60312090A82C60312090ACEC603129F
:1018D300090AC9C80312090A4BC90312090A75C9BF
:1018E3000312090ABEC90312090A86CB0312090AA5
:1018F30001CC0312090A8ECC0312090AA1CC0312EC
:10190300090AF0CC0312090A06CD0312090A1DCDF8
:101913000312090A4CCD0312090A6DCD0312090AF9
:1019230046CE0312090AA9CE0312090AF5CE031201
:10193300090AF8CF0312090A66D20312090A92D2DE
:101943000312090A16D30312090A86D30312090ADA
:10195300A9D30312090AE3D30312090A51D40312C8
:10196300090A07D50312090A2CD50312090A36D529
:101973000312090A46D50312090AC9D50312090A33
:10198300E4D50312090A06D60312090A32D6031252
:10199300090A6DD60312090A7CD60312090ABDD6B9
:1019A3000312090A21E10412090A39E10412090A9E
:1019B30023940412090A72940412090A2496041245
:1019C300090AD9970412090A21980412090A1D99D0
:1019D3000412090A749A0412090A969A0412090A4B
:1019E300F29A0412090A749B0412090AE2D603123A
:1019F300090A0DD70312090AF0D70312090A72D88C
:101A03000312090ADCD80312090A28D90312090AA6
:101A130096D90312090A21DA0312090AAFDA03126B
:101A2300090AE2DA0312090AD6DF0312090A7BE183
:101A33000312090A37E20312090A74E20312090ABC
:101A4300C0E40312090A34E50312090A33E6031258
:101A5300090A0CE70312090A86E70312090A40E898
:101A63000312090AFFE80312090A6BE90312090AC0
:101A730012EA0312090A6FEA0312090A2CED031290
:101A8300090AECED0312090A51EE0312090AFBEFEE
:101A93000312090AB8F00312090A17F20312090A1A
:101AA3003EF30312090AD9F30312090AD4F4031209
:101AB300090AD2E30112090A5AE40112090ACDE420
:101AC3000112090A21E50112090A5CE50112090A5A
:101AD300E9E50112090A05E70112090A57E70112AC
:101AE300090AB5E70112090AF8E70112090A6DE8C4
:101AF3000112090AB7E80112090A36EA0112090AB2
:101B030009EB0112090A5FEB0112090A55EC0112F4
:101B1300090A02ED0112090A2DED0112090A4CED21
:101B23000112090A5CED0112090A62EE0112090AA7
:101B330026EF0112090A07F10112090A6DF10112D8
:101B4300090A84F10112090ADAF20112090A57F3A8
:101B53000112090AC6F30112090A4FF40112090A14
:101B630093F40112090A5AF60112090A32F7011213
:101B7300090A6EF80112090A27F90112090A58FA2B
:101B83000112090A87FA0112090A61FB0112090A03
:101B930030FC0112090A89FC0112090AA1FC011295
:101BA300090AA1FD0112090A2FFE0112090A92CEA8
:101BB3000412090A51CF0412090A0AD00412090AAD
:101BC30070D00412090AFBB80412090A64BA041299
:101BD300090AA4E20412090A6AD70412090A78D787
:101BE3000412090ABEE20412090A14E00412090AE3
:101BF30024E00412090A30E00412090A7DE0041209
:101C0300090AF3DC0412090A74DD0412090AD8DD97
:101C13000412090AF5FF0112090AF8FF0112090A61
:101C2300ED7F0012090AFD7F0012090A62E2041225
:101C3300090ADBAB0412090A30AC0412090A04AE28
:101C43000412090A36AE0412090A5DAE0412090A27
:101C530071AE0412090A8AAE0412090AB9AF04125A
:101C6300090A24D90412090A48D90412090A61D9B4
:101C73000412090A94D90412090AC5D90412090ADB
:101C8300F3D90412090A55DA0412090A64DA0412B0
:101C9300090A6EDA0412090A7BDA0412090A7DC9F9
:101CA3000412090ABAC90412090AC9C90412090AA1
:101CB300E8C90412090A50CA0412090A59CA0412CB
:101CC300090AB8CA0412090ADCCA0412090ACFCBEA
:101CD3000412090ADCCB0412090AEDCB0412090A27
:101CE300F9E10412090A16E20412090A58A20412BD
:101CF300090A9EA20412090AFDA30412090A0AA4EE
:101D03000412090A1DA40412090A3CA40412090AB4
:101D130052A40412090A66A40412090ADBA40412D9
:101D2300090A40A50412090AF0A50412090AC5A666
:101D33000412090AD5A60412090AE4A60412090A20
:101D430079DF0412090A9EDF0412090AC7DF0412AD
:101D5300090AEFDF0412090A52D50412090A79D5D8
:101D63000412090AF5D50412090A1BCC0412090A44
:101D730034CC0412090A40CC0412090A54CC0412CC
:101D8300090A72CC0412090A7CCC0412090A86CC13
:101D93000412090A99CC0412090AF1CC0412090AA3
:101DA30028CD0412090A56CD0412090AA4CD04123F
:101DB300090AF1CD0412090A0CCE0412090A16CE3F
:101DC3000412090A48CE0412090A80E00412090A1F
:101DD3009C760012090AC6760012090AE2760012FE
:101DE300090AF5760012090A34770012090AB57751
:101DF3000012090AED7B0012090A177D0012090A75
:101E03004A7D0012090A977D0012090ABF7E00125B
:101E1300090AE77E0012090A0A7F0012090A4E7FA7
:101E23000012090AAF7F0012090ABF7F0012090AD4
:101E3300C0DB0412090ADBDB0412090A04DC041206
:101E4300090A1EDC0412090A43DC0412090A62DCD3
:101E53000412090A7ADC0412090AA8DC0412090A2A
:101E6300C2DC0412090A6FE10412090ADBBF04127F
:101E7300090AE2BF0412090A17C10412090A46C17A
:101E83000412090AB4C10412090A47C20412090A56
:101E930080C20412090AC9C20412090AF9C204124F
:101EA300090A19C30412090A85DA0412090A9DDA18
:101EB3000412090ABADB0412090ABDDB0412090A77
:101EC300E0FE0112090A3FFF0112090A95FF011200
:101ED300090AD6FF0112090A00800312090A1B80AE
:101EE3000312090A90800312090A19810312090ACD
:101EF300A8810312090AC4810312090A6E8403121A
:101F0300090A1D870312090ABB880312090A068AF4
:101F13000312090AD38F0312090ACF900312090A85
:101F230045910312090A11920312090AB592031289
:101F3300090A18940312090AB8940312090A0295AC
:101F43000312090A74950312090A1D960312090A5A
:101F5300EA960312090A50970312090A55980312C5
:101F6300090A12990312090AAF990312090A069C76
:101F73000312090A9A9C0312090A169D0312090AFD
:101F8300A29F0312090A9DA00312090ACCA00312FF
:101F9300090A8BA20312090A5FA40312090A55A5B1
:101FA3000312090A43AA0312090AC0C60412090A42
:101FB300E5C60412090A71C70412090A2AC80412E1
:101FC300090AEFC80412090A51C90412090A3CBCE0
:101FD3000412090AFDBC0412090A6CBD0412090AA1
:101FE30091BD0412090A4CBE0412090AB5E1041298
:101FF300090AE1D00412090A31D10412090A76D17F
:102003000412090AF4D10412090AC3D20412090AF8
:10201300C9D20412090AE6D20412090A95B00412BD
:10202300090A59B10412090A2AB30412090A2DB381
:102033000412090A71B30412090A74B30412090AD7
:102043007FB30412090A8AB30412090A95B304126E
:10205300090AA6B30412090A5AB40412090AA3B45A
:102063000412090AC9B40412090A14B50412090AAC
:1020730030B50412090A61B50412090A71B50412D4
:10208300090A7EB50412090A8BB50412090A6EB651
:102093000412090AACB60412090AB6B60412090AF4
:1020A300D5B70412090AE0B70412090AF2B70412F9
:1020B300090AFBB70412090A05B80412090A1DA785
:1020C3000412090ACDAB0412090A35E20412090A03
:1020D300864A0012090AD1480012090A514800121F
:1020E300090A17480012090A57470012090ACD4680
:1020F3000012090A9F460012090A4B450012090AF9
:10210300B4440012090A17440012090AA243001238
:10211300090A70430012090AAD420012090AD840A5
:102123000012090A69400012090A3B400012090A19
:1021330038400012090ABF3E0012090AC03D0012CE
:10214300090A8A3C0012090ACE3B0012090A443BE1
:102153000012090A4A3A0012090A15500012090A24
:102163003A4F0012090A784D0012090A444D001231
:10217300090A114D0012090AA6390012090AED389D
:102183000012090AB0380012090AE44C0012090AC5
:10219300F6370012090AC0370012090A673700121E
:1021A300090A1D370012090A0A4C0012090A7E8027
:1021B3000412090ABE360012090A8D360012090AF2
:1021C30055330012090A15330012090A09330012A4
:1021D300090A69320012090AA9310012090A222FD9
:1021E3000012090AB32C0012090A712C0012090A01
:1021F300452B0012090AFA2A0012090A362A00128C
:10220300090A79290012090A49290012090A674BA8
:102213000012090A0F290012090ABBFF020000007D
:1022230080FBE4738F000100D10C87000100CF0C09
:1022330024000200160625000200180626000200EC
:102243001A0627000200AF0C28000100B10C290078
:102253000100B20C84000400B30C86000100B70C2B
:102263002A000100B80C2B000100B90C2C0001005E
:10227300BD0C2D0008001E062E000100BE0C2F0011
:102283000100BF0C30000100C00C31000100C10C83
:102293003200010026063300010027063400010046
:1022A300C20C36000100280638000100C30C3900B7
:1022B3000100BC0C83000200CD0C63000100320658
:1022C30064000100BA0C65000100BB0C6D00010045
:1022D300CC0C6E0002001C0643000100C40C440039
:1022E3000200C50C45000100C70C46000200C80CE3
:1022F300470008002A0648000100CA0C4B000100F1
:10230300CB0C04000100D00CA1000100D40C370059
:102313000100D30C88000100D20C3C000100290607
:102323000000000000000001363601010001020137
:102333000001030100010401060605020000070174
:1023430000340801000F090401010D0100FF0E080C
:10235300000017020000190100FF1A0100011B0110
:1023630000FE1C0100081D0200001F0100012001E6
:102373000001210200002301000F240200002601B6
:10238300000127010008280200FF2A0100072B0192
:1023930002402C0100002D0100012E0100012F013C
:1023A30000FF30010B1C310800003A0100083B011B
:1023B300000F2F01000003007100300160001100C5
:1023C30070003102200350048000100061000000FF
:1023D30014006300730072006200430000001300E6
:1023E30006000000000004001200000000000000CE
:1023F300000004000400370037003C0244000000E2
:1024030000000000000065000000350081000000AE
:10241300050000008300000003047104020460044B
:102423001104700402040204010402041004610490
:102433000004140463047304720462044304000478
:10244300130406040004000404041204000400043A
:102453000004000451046400000400040004440464
:10246300000400040004000465040004350481042E
:1024730064000504000483040004010371030103E1
:1024830001030103010301032203020301031003F8
:1024930000030003000300030003000300034203DF
:1024A30000032403060300030003040312032503AC
:1024B300230325032303040304030003000300038E
:1024C30044030003000323030003650321003503D2
:1024D30081030003050300030003000301017101ED
:1024E300010101011101010131010101010180011A
:1024F300100161013B001400630173017201620169
:1025030043010001130106013D01350004011201DD
:102513000001000100010001040104013301330142
:102523003C01440132013600000100016501000154
:1025330035008101000105018201830100010302CD
:1025430071023001600211027002010202020202F2
:102553008002100261023A004100630273027202B8
:102563006202430200021302380000020002040266
:1025730012020002000200020002040204023700F9
:1025830037003C02440200023900000200026502E7
:102593000002350281020002050282028302000268
:1025A300000003002001E080000000002001E18022
:1025B30000000400420164800000050042015380D2
:1025C3000000060042014280000007002001DE8077
:1025D3000000100042035F0D000011002003650C92
:1025E300000012001003700D030000002103660CAD
:1025F300060000002001680C00000000000000003D
:10260300000003002001E080000000002001E180C1
:102613000000040042016480000005004201538071
:102623000000060042014280000007002001DE8016
:102633000000100042035F0D000011002003650C31
:10264300000012001003700D030000002103660C4C
:102653000600000020016A0C0000000000000000DA
:10266300000003002001E080000000002001E18061
:102673000000040042016480000005004201538011
:102683000000060042014280000007002001DE80B6
:102693000000100042035F0D000011002003650CD1
:1026A300000012001003700D030000002103660CEC
:1026B300060000002001690C00000000000000007B
:1026C300000003002001E080000000002001E18001
:1026D30000000400420164800000050042015380B1
:1026E3000000060042014280000007002001DE8056
:1026F3000000100042035F0D000011002003650C71
:10270300000012001003700D030000002103660C8B
:102713000600000020016B0C000000000000000018
:1027230036000100060000000F000000000000005A
:1027330000000000000003FFFF00000403FFFF0090
:1027430000FFFF0FF4010005C40403200001000291
:102753000B000000000000000003010F501F8C1F3E
:10276300561FA41F5C1F921F5C1F9E1F621FA41F86
:102773005C1F921F681FA41F6E1FA41F741FA41F3A
:102783007A1FA41F801FA41F861FA41F0000000020
:10279300000000000000761A13003A1A0100761AAE
:1027A3000200041A03000A1A0400101A0500161A7C
:1027B3000600221AFFFF0000011A10064410083E0B
:1027C300100B5C1010960F02201005321007261014
:1027D3000CFC0F0D0E10FF000003EAF5E5D5D5C57F
:1027E300B5A5959585857575656555554545353506
:1027F30025251515058E14BE1494149A14B814AC1B
:1028030014A614C414CA14D014DC14A0148814829B
:102813001400160F00000B150B020002220F3200EA
:1028230000067A623230313630393239313032365D
:10283300333700000000000000008967452301EFE3
:10284300CDAB58696E6748756F5975616E536D618D
:1028530072747E159015961558149C1552145E14B7
:10286300DE15FC150216E415F015EA1592138C1308
:10287300C813CE13C2137A13303016181920231A33
:102883001C1E3000034948424D181725050200015C
:1028930019161816161523030000383C3E363B3B29
:1028A300352B432C0C0E020B040B0A0708000F30C8
:1028B3003017181921301B1D1F30D215A215A8156A
:1028C300B415AE15B214D614F615E214E8140204C6
:1028D300020101010109029E13A4139813D41300EA
:1028E300BE040AAA13BC13000028000C000E000447
:1028F300007F00E8031500090004000AFF1E1E09FB
:1029030010040810030C05080F030C0174F71204DC
:10291300A6E9FE121698EE900C76F090030E74F66C
:10292300F0A37421F090031074F0F0A37421F090DD
:10293300031274EAF0A37421F090031474E4F0A377
:102943007421F00243F074F71204A6E9FE90030227
:10295300E4F0EE900301F0900CC812376012474286
:102963007C2A7D067A057B03121ED2900CCAE09066
:10297300030DF00243F074F41204A68A088B09EBEA
:102983005480605B900301125E44604A8E828F83A1
:10299300E064017032124ED312078CEE24121272CD
:1029A30023F50A780A12092B122A29120927EE2481
:1029B3000B122A22120790EE2417125E5412165697
:1029C30074091209558008E0640270031220DCEEDA
:1029D300FAEFFB121740AA08E5096480FB803AEA84
:1029E300A2E05017900316124D0C600612375C12CA
:1029F3002225E5086401FAAB09801E5402600C909D
:102A03000C757401F0EA6402FA800EEA540460055E
:102A1300EA640480F37A007B00022AF5EE240CF5C5
:102A230082EF124EDD22EE240FF50AEF3400F50B90
:102A3300780A2274F41204A68A088B098A828B838B
:102A4300A3A3A3E024101243FCFA12504070030224
:102A53002AE58E828F837402F0A3E4125003A3A3AA
:102A6300A3A3E8F0A3E9124B51A3A3A3A3A3A3A396
:102A7300F0E5082403F8E509123FA924101242687F
:102A83008E828F83A3A3A3A3F0EE2409FA122AE76D
:102A9300124689F5838882E0A2E58E828F83A3A301
:102AA300A3A3A3500474018001E4F0E5082403F810
:102AB30088828983125D9DEA12685BEB122A2512D4
:102AC30050681209231263C9EB12480F8E828F8359
:102AD300A3A3124EEC120955EEFAEFFB9003011279
:102AE30050AD800EEF3400FB8E828F83A3A322129E
:102AF30009557F040206C174F21204A68A088B09E1
:102B0300ECFAEDFB740E120BABE0FC1216C88A0C48
:102B13008B0DAE0CAF0DEE4F6023AC08AD09121652
:102B2300B6E96019AC08AD09EEFAEFFB1216BCE981
:102B33007007EEFAEFFB1216B07900800279B40247
:102B430037BB74EE1204A674F71209E98A0A8B0BD9
:102B5300ECFEEDFF750FB3750E00750C00750D00DF
:102B6300800CE50C2401F50CE50D3400F50D9028DF
:102B7300F2E493F8740193F9C3E50C98E50D9940D9
:102B830003022C65AA0CAB0D1217168A088B09EAEF
:102B9300450960CE8A828B83A3A3A3A3A3E0250E5A
:102BA300F50EF510C3E50A9510E50B940050B37CC0
:102BB300157D007900EEFAEFFB124CBAA3A3A3A391
:102BC300E50AC3950EF8E028C333F8E433F9E508C2
:102BD30028F582E50939F583A3A3A3A3A3A312547C
:102BE3007AA3124538EAFCEBFDEEFAEFFB123FC67F
:102BF300A3E06401700A124ED3740112389C80431F
:102C0300851882851983AC82AD8385088285098303
:102C1300125D9B1216FEE9602D7408120BABE0C027
:102C2300E0124ED3D0E0F07408120BABE0640385DE
:102C33001882851983700CAC82AD83EE240B123895
:102C4300898003124736850882850983123EAEA325
:102C5300A3124FC6C0E0EE2414122A22D0E0F0756E
:102C63000F00A90F74091209557F0A0206C174F7F0
:102C73001204A6E9FE8A828B83A3A3A3A3A3A3E0E2
:102C8300540860298A828B83A3A3A3A3A3A3E0543C
:102C93000260178A828B83A3A3A3A3A3A3A3A3A3E3
:102CA300E06406600574E96E70031221D80243F0F4
:102CB30074E81204A674F71209E97407120BAB1235
:102CC3004CD3E9851882851983F0ECFEEDFF74245B
:102CD300120BAB780C120B4E7513008E828F83127E
:102CE3005D978E828F83A3A3A3E0F91216D48A146F
:102CF3008B15EA45157003022EBCEE241012561AEA
:102D0300A914120E9A8A168B17EA45177003022E1E
:102D1300BCEE2406F510EF3400F5117C008510821B
:102D2300F583122F0E8E828F83A3A3A3122F031278
:102D33005A9DF8A3E0F9851682851783A3A3A3A35D
:102D430012399E122F03A3A3A3A312581785168229
:102D5300851783A3A3A3A3A3A3F0EE12685BEF12CB
:102D6300317D120923EE1263CAEF12480F851682D2
:102D7300851783A3A3A3A3A3A3A3A3A3124EEC1218
:102D83000955751000022E3C850A82850B83125D5E
:102D93009B121704850882850983A3EAF0A3EB122B
:102DA3004EFFA3A3124BF41250C4E0A2E6500F85CA
:102DB3000882850983A3A3A3A3A3E0D2E1F0E513CB
:102DC3007063850882850983A3125FB890036CE062
:102DD300687003A3E069704D850882850983A3A306
:102DE300A3125627780C12091F7427120BABE0F5B8
:102DF3000A780A12092B7426120BAB120790900360
:102E03007912079079007410120BAB124B41122107
:102E1300667409120955850882850983A3A3A3A3B0
:102E2300A3E04405F074012510FC8E828F83A3A3D5
:102E3300A3A3A3A3122F0E0510E50A450B60528529
:102E43001008C3E5089514E495155045E51075F091
:102E530006A4F8A9F0E51628F8E51739F9E8240CD3
:102E6300F508E9123D6DE4124EF564016003022D8D
:102E73008B7513018508828509837401124EFAF854
:102E8300A3E0F9850882850983A3E8F0A3E9022D6D
:102E9300A2AA16AB17120EA07816120927742512D0
:102EA3000BABE0FC7402120BABE0F9EEFAEFFB1292
:102EB30021DE740212095580428E828F83A3A3A35D
:102EC300E0C0E07404120BABD0E0123BB7E0C0E00B
:102ED3007405120BABD0E0F0E514451570097406C8
:102EE300120BAB74B980077406120BAB7410F07439
:102EF30001120BABAA82AB8312216C7409026A74B0
:102F0300E0851682851783A3A3A3221254638E82BE
:102F13008F83A3A3A3E0F91216DA8A0A8B0B227418
:102F2300E81204A674F31209E98A0A8B0B89178C39
:102F3300167425120BAB12723EAA0CFB120E8EE90D
:102F4300F514AA0CAB0D120E94E9F515E5147003F4
:102F530002316F751300800F8E828F83A3A3A3A307
:102F6300A3E0D2E3F00513E50C240BF582E50D1283
:102F73003304E513C3984003023166E5147003027A
:102F83003166E51375F006A4F8A9F0E50C28F8E519
:102F93000D39F9E8240CFEE9127012A3A3A3A3E0F0
:102FA300A2E040C1750E008E828F83E07043125DF4
:102FB3009C120D868A088B09A808A909E849603183
:102FC30088828983A3A3A3A3E06401600D88828917
:102FD30083A3A3A3A3E0640370178E828F83A3A3A9
:102FE300A3A3A3E0D2E7F0750E01E5157003022F4A
:102FF30068750F00750808750900E5166003750FFD
:1030030020124C5AE060339003BCE064017017E572
:103013000FD2E3F50F7509108E828F8312472112A9
:10302300452774FF8024430F0C75080C8E828F8311
:10303300A3123189126A0BA38010E5176009E50F0B
:10304300D2E6F50F75080A1231A0F07402120BAB29
:10305300E50F125ABCC0E07404120BABD0E0F0745D
:1030630005120BAB12440E120BABE06003023141AD
:103073007408120BAB123DAE8E828F83A3A3A3A35E
:10308300F07408120BAB123669F583E508F0A3E57B
:1030930009124A6CE060119003BCE0C0E0740812AE
:1030A3000BAB123662D0E0F0850C82850D83A3A3AF
:1030B300A3E0C0E07408120BAB12654FD0E01265B9
:1030C3008BC0E07408120BAB123674D0E0F07408B6
:1030D300120BAB123189A3A3126556125AA6125DC5
:1030E3009BE82428F582E912560D125AB2C0E0E893
:1030F300242EF582E9122A25D0E0F07408120BABD6
:10310300125D9D850A82850B831231742424F58216
:10311300EB12473F126859E50B12317D1209231256
:103123004807EA242BF582EB122A25124EEC1209EA
:1031330055851882851983AA82AB831220D08E828B
:103143008F83A3A3A3A3A3E0D2E0F0740C120BAB71
:10315300E06003022F5BE50EA2E050021515151483
:10316300022F687900AA0CAB0D1221D2740D026AEA
:1031730074A3A3A3A3125FBCEA22124EDD125A72F8
:10318300751200781022125FBC850A82850B83A317
:10319300A3A3A3228E828F83A3A3A3A3A3A31247D4
:1031A30026E8F0A3E92274F21204A674EB1209E9EB
:1031B300EAFEEBFF89088E828F83A3A3A3A3A3A3B5
:1031C300A3A3E0F9120EB88A0A8B0BEA450B607FC2
:1031D300E50870047C0480027C088E828F83A3A39D
:1031E300A3A3A3A3A3A3E0F9120EBE122A1F124D99
:1031F3000C605C88828983125D997406120BAB1292
:103203003257125D9D7408120BAB123257A3A3E021
:10321300C0E07410120BABD0E0125AC9125D9D745A
:103223000E120BAB124CD37411120BABE4125802F7
:10323300F9780A120927742059FC744059F9740269
:10324300120BABAA82AB831221DE740212095574EE
:10325300150237B8EAF0A3EB12325F22124699A3A4
:10326300A3A3A3A3A32274F71204A674FA1209E971
:10327300E9FE7F018F087D0080047508000D12436D
:10328300F5123304EDC3985025ED75F006A4F8A9A3
:10329300F0EA28F8EB39F9E8126854E9125455506A
:1032A300D9540C60D5E0A2E250D37F0080CF8A824C
:1032B3008B83A3A3A3A3A3A3E0703EE508A2E040EE
:1032C3000574016E70338A828B83A3A3A3A3A3A384
:1032D3007401126408E0C0E07403120BABD0E01277
:1032E3006400E0C0E07404120BABD0E0F07405128C
:1032F3000BABEF1246F012216C74060243EDF5821C
:10330300EF125812F822C082C08379011221D2022F
:103313003882C082C083EA4B60189003B8E064022D
:103323007010900C75E4F0EAFCEBFD7A0212334A5C
:103333008012900C757401F07A027B00900301E017
:10334300F91218540238827B00900301E0F9121835
:10335300482274F21204A674F31209E9EAFEEBFFA1
:103363008E828F83A3A3A3A3A3A3A3A3A3A3E0F505
:103373000A900C75E0700579BA02365D750801751F
:103383000900750C00750D007C087D007900851817
:1033930082851983AA82AB831217287405120BAB9B
:1033A3007401123685540460127402120BABE0D21E
:1033B300E612368554087003750803E0541060065E
:1033C30074404508F508E0540860227402120BAB00
:1033D300E044C01236855420600A7403120BABE03C
:1033E300D2E080087403120BABE0D2E1F08E828F3F
:1033F30083A3A3A3A3A3A3A3A3E0701812112885F7
:103403001882851983124CD37402120BABE0D2E2FB
:10341300F00234BC640F70157402120BABE0D2E3FC
:103423001250C5124CB44508F5080234BC8E828F85
:1034330083A3A3A3A3A3A3A3A3E064028E828F8386
:1034430070051231A180C9A3A3A3A3A3A3A3A3E0DF
:1034530064037013851882851983AC82AD83EEFAF9
:10346300EFFB12219680528E828F83A3A3A3A3A383
:10347300A3A3A3E0640170419003BCE0601C740249
:10348300120BABE0D2E31250B38518828519831275
:103493004742750910750AFF80187402120BABE0DE
:1034A300440C12657874FDF0A374FFF074044508AE
:1034B300F5088E828F8312723E12544F503A740273
:1034C300120BABE0540C701B8E828F83125D9D1226
:1034D3001B48E9700579BB02365D7402120BABE041
:1034E300D2E5F012544F50107402120BABE0540C9F
:1034F30064047004E0D2E5F0EE2411127223C0E0FC
:103503007404120BABD0E0124410120BABE0600357
:103513000236567408120BAB12366912367BEE2450
:1035230018127223C0E0E8126845E9122A25D0E098
:10353300F0EE2419127223C0E07408120BABE024DE
:1035430013123D76D0E0124545640170119003BC1F
:10355300E0C0E07408120BAB123662D0E0F07408DE
:10356300120BAB1242402417FAEF12426FFCE8240D
:103573001CF582E9122A25ECF0A3E412515EE0C0A7
:10358300E0E82422F582E9122A25D0E0F07408123B
:103593000BAB123674E50AF07408120BAB124255EA
:1035A3002424F582E9125D62A3E50D125DC0FCA33C
:1035B300E0FDE82426F582E9122A25ECF0A3ED12BA
:1035C3003A42124C8AE82428F582E9122A25125F2E
:1035D300C0C0E0E8242FF582E9122A25D0E0F0EEFE
:1035E300241B127223C0E07408120BAB126548D07F
:1035F300E0F0EE241A127223C0E07408120BABE061
:10360300242E123D76D0E012657012505012092319
:10361300EE2411124C83740B120BAB124EE61209FB
:1036230055EE24151272235440601B900328124D4B
:103633000C6013851882851983AA82AB83900329B2
:1036430012375C122225851882851983AA82AB83DF
:103653001220D0740C120BABE0F9740D0237B8E0F2
:103663002415123D9C22124259240FF582E934009D
:1036730022E02423123D9C22F583E508F0A3E5090B
:10368300F022F0EE241512580F2274F71204A67ECE
:10369300638A828B83E0600C7905120CA8E9F874C5
:1036A30056C398FE900364E0600CF9120CA8E9F885
:1036B300EEC39824F2FEEEF90243F074F61204A668
:1036C30074FE1209E9851882851983124CD3E9FE29
:1036D300ECFAEDFB740C120BABE0FC9004AE124D54
:1036E3000C60328518828519838582088583097861
:1036F300081209277D01EEF99004AE123759122200
:103703002574021209558B09EA4509600479008082
:103713000679B2800279B60238E374F71204A6E997
:10372300FE7409120BABE0FF90030E124D0C601AEE
:10373300EFF508780812092BEEF990030E123759AA
:103743001222257401120955800279B60243F0EE64
:10375300FAEFFB900320E0F8A3123FFA22125FBCBA
:103763009003032274F21204A68A088B09ECFEED7F
:10377300FF750A0190036CE065087004A3E0650916
:103783007005124B3A802A12112E8A0C8B0DE50814
:10379300650C7004E509650D7009EEFAEFFB121173
:1037A30034800EEEFCEFFDAA08AB09120D20E9F5FB
:1037B3000AA90A80031209557F060206C174F5128D
:1037C30004A6EAFEEBFF8C088D09750A01126CA8AA
:1037D300123892700B90036C124028124742800EED
:1037E300AC08AD09EEFAEFFB120D26E9F50AA90ABA
:1037F30002613474F61204A6EAFEEBFF7A0C7B0036
:103803001217BEEA4B606BEE24201272238A828B5E
:1038130083F0EE2421123878F0EE2422123878A3B4
:10382300F0EE2423123878A3A3124F1F125A8FE805
:10383300F0A3E9125807125A90A3A3E8F0A3E912E0
:10384300562D8A828B83A3A3A3A3A3A3A3A3F0EEE2
:10385300242F127223C0E01243F5122A25D0E0125E
:103863004CD98A828B83A3A3A3A3A3A3A3A3A31249
:1038730047420238E812580F8A828B83A322F0D082
:1038830083D082020907FAEF3400FB121ED2221200
:10389300452C2212389CA3E0221238A0221238A40D
:1038A30022124FFBA3A322124B5FA3E02274F61252
:1038B30004A6ECFEEDFF79B3900363E07020900360
:1038C30095E064017018EE126854EF127026EE242E
:1038D3000F12473CE84960047900800279A1800512
:1038E30074021209557F020206C174F41204A6740D
:1038F300FE1209E9ECFEEDFFEE24161272236405B5
:103903007011EE2406FCEF3400FD12219CE97003D4
:10391300023997851882851983AC82AD8312679A21
:10392300123B29124D0C6068E875F009A4F8AAF05F
:1039330075F009E9A42AF974ED28F874F339F9E864
:10394300FAE9FBEE2412122A22C082C0838A828BF8
:10395300837808120B4ED083D0827808120B1E4056
:103963002B851882851983124240240F122A2212B2
:10397300399E7808120B4E9080AC7808120A658A3B
:10398300828B837808120B6C7900800A79A28006F7
:1039930079A1800279C87402022AF2E8F0A3E9123D
:1039A3003BBB2274F41204A674FF1209E9EAFEEB8E
:1039B300FF900363E07075900395E06401706D758B
:1039C300083A75090078081209277402120BAB85AF
:1039D30082088583097808120927123A3412095597
:1039E300E9703EEE12685BEF124032124B02C0E008
:1039F300EE2411122A22D0E0123A42743A125817D6
:103A0300900330120B88EE2412122A22120B949088
:103A130080AC7808120B4E9003307808120A52805B
:103A23000BEE240FF582EF1243DEA3F07401022A9A
:103A3300F27C017D007A007B00121308740422F0EB
:103A4300EE240F124EDA2274F01204A674F6120951
:103A5300E9ECFEEDFF7402120BABAC82AD831221D5
:103A63009CE97003023B24851882851983AC82ADDF
:103A7300837402120BABAA82AB83123B29124D0C47
:103A83007003023B24E875F009A4F8AAF075F00965
:103A9300E9A42AF974E928F874F339F9880889093B
:103AA300EE240E123B33124B02F8A3E0F9EE240F7F
:103AB300124FEC120B88EE2412122A22120B94904E
:103AC30080AC780C120B4E850882850983780C1222
:103AD3000A528508828509837808120B4E9080A8C4
:103AE300780C120B4E7808790C1203C8E50C450DBF
:103AF300450E450F702B8518828519831242557523
:103B0300F009A4F8AAF075F009E9A42AF974F128D8
:103B1300F58274F339F5837401F07A007B10123B5C
:103B23003B740A023BC6121B4E85188285198322F9
:103B3300F582EF124EDDE422900527E0F9121776A5
:103B43002274F01204A68A088B09ECFEEDFFEE2422
:103B53000FF582EF1243DEA3123BB7C082C08390FE
:103B630080C0780C120B4ED083D082780C120A29B5
:103B73006032123BAB7005122184802AE07005127B
:103B8300217E80226402701312217EE96018EEFC0C
:103B9300EFFDAA08AB09121B72800BE0640360DF20
:103BA30079A1800279A3801EEE240EF582EF1258CC
:103BB30012640122123BBB22F0EE2412F582EF12B3
:103BC3004EE1221209557F080206C174F61204A6BB
:103BD300EAFEEBFFEE240AF508EF126A0685088277
:103BE300124C88EC240F1243DB124CA4122154858F
:103BF3000882850983124D09706B123D7A7003A305
:103C0300E069600A123D5C7003A3E06970578E821D
:103C13008F83A3A3A3A3A3A3A3A3A3A3124C8A8EBB
:103C2300828F83125D9D121B78E960188E828F83C9
:103C3300A3A3A3A3A3A3A3A3A3A3E0240F123D764B
:103C4300E4F0A3F08E828F831265408E828F83A36C
:103C5300A3A3A3A3A3A3A3A3A37005124022800439
:103C6300124000E4F0124CFB701A123FAD125D9D3E
:103C7300122178850882850983124D097006122A5C
:103C83001F74A1F00238E874F61204A6EAFEEBFFF3
:103C9300EE240A123FBC7A187B001217BE850882F5
:103CA300850983123DB3F8A3E0F9E8497003023DA7
:103CB30053EEFAEFFB122148124CFB607F123DA03A
:103CC30064017007123D87740E8034E0640270074C
:103CD300123D87740D80288E828F83A3A3A3A3A391
:103CE300A3124D0C70EA123D7A7003A3E06960E001
:103CF300123D5C7003A3E06960D6123D8774051220
:103D03004CAD540364017007123FE07405800B90BF
:103D13000364E0C0E0123FE0D0E0F0EE240AF508CF
:103D2300EF123D6D123FEE123EB3C0E0850882856F
:103D33000983E02417123D76D0E080198508828537
:103D4300098312439B850882850983E4F0A38005D8
:103D5300122A1F7410F00238E81211288A088B09FE
:103D6300A808A90990061CE06822126A0685088241
:103D7300F58322123D9C228E828F83125FBC9006B4
:103D83001CE068228E828F83A3A3A3A3A3A3A3A370
:103D9300A3A3E02416123D9C2212400B228E828F95
:103DA30083A3A3A3A3A3A3A3A3A3A3124004E022D7
:103DB300EAF0A3EB123DBB22124FFBE02274F11297
:103DC30004A68A0A8B0B8C088D097A18125F13706C
:103DD30003023EA68E828F837401F0E508240DF85A
:103DE300E5091267A3C3E49AFA95E0FB126860122F
:103DF3005611FB8E828F83A3A3A3A31257FE8E8239
:103E03008F83A3A3F0EEFAEFFB120C54850882858F
:103E1300098312654270098E828F83A3740580061D
:103E2300900364123EAEF0EE2417F8EF3400F988E5
:103E33000C890D8E828F83123EB2850C82850D8391
:103E4300F0EE2416F8EF3400F9E508240EFAE5093C
:103E53003400FB88828983124A4EE50824100A0A3B
:103E6300E5093400FB850C82850D83E0FC8882899B
:103E730083E0F88A828B83E0C398C39C125155F088
:103E8300EEFCEFFDAA0AAB0B12214EE9F508700A0E
:103E9300EEFAEFFB120C60E9F508EEFAEFFB1217EE
:103EA300C48003750810A908026CCB124B5822A3D7
:103EB300E0F9120CA8E922790102090774F412044B
:103EC300A6EAFEEBFF8E828F83A3A3A3A3A3A3A3E0
:103ED300A3125DA1126542706B123DA070668E82C3
:103EE3008F83A3A3A3A3A3A3A3A3E0242B123D76B1
:103EF30012401A704F8E828F83A3A3A3A3A3A3A3FD
:103F0300A3E0242BF888828983123FEEE0F8740142
:103F130068600A740668600574056870138E828F82
:103F230083A3A3A3A3A3A3A3A3A3A31240228013A6
:103F33008E828F83A3A3A3A3A3A3A3A3A3A31240AC
:103F4300007403F0123FAD123759E4F0EE2408F881
:103F5300EF123FA9242D124268C0E0123FD4D0E0F3
:103F6300125802242A124268C0E0123FD4A3D0E0C0
:103F7300125802240B123D761240281240C11245FA
:103F8300388A0A8B0BAC0AAD0B850882850983E05E
:103F93002406125469123FC6125D9D120C60122A48
:103FA3001FE9F0022AF512467C22EE240A123FB4DE
:103FB30022123FBC8882F58322F8EF3400F9880887
:103FC300890922123FCA22121ED2850882850983DB
:103FD300228508828509831240C5A3A3228E828F7E
:103FE30083A3A3A3A3A3A3A3A3A3A3123FF222E0A8
:103FF300F8123FF9A322A3E0F5838882221240043A
:1040030022E0240E12400B2212400F22F8A3E034C8
:1040130000F98882898322E0F81248CC64052212D1
:104023004004740222125FBC850882850983221230
:104033004EDD740122023EBAC082C08390031E7417
:1040430042F0A37421F09003207436F0A37421F09E
:104053009003227430F0A37421F0900324743CF095
:10406300A3742102388174F41204A6EAFEEBFF1252
:1040730040CEF5081211288A0A8B0BA80AA90B8EC9
:10408300828F831240C1E0687003A3E069602CE56E
:1040930008A2E550268E828F83A3E0FB90031E12B5
:1040A30037591222258E828F83E0F8A3125227A359
:1040B300124D0C70061240CEC2E5F0022AF51240F2
:1040C300C522E0FAA3E0F5838A82228E828F8312CF
:1040D3003FF2A3E02274F51204A612422E124255B7
:1040E3002420F582E9127226FE74035EF50A124A51
:1040F30038122A2512424088828983F0A3A882A914
:1041030083E50A60097402650A600302419F740C27
:104113005EFF601574086F601074046F701D740285
:10412300650A7005EEA2E4402D8A828B83A3A3A3C4
:10413300A3A3A3A3A3E02423124290740C6F7010D3
:104143001242292424124278242412423B1242931D
:104153007402650A7005EEA2E44041124229242646
:104163001242782426124245A31242A21242451259
:1041730042A212423B124293EF600F74086F600A2F
:10418300740C6F600574046F70128A828B83A3A30F
:10419300A3A3A3A3A3A3E024221242908A828B8326
:1041A300A3A3A3A3A3A3A3A312425E7005EEA2E15C
:1041B30050178A828B83A3A3A3A3A3A3A3A3E0245F
:1041C3002E124A3F124289800E90030212428990B6
:1041D3000302E004124699A3A882A983EEA2E75042
:1041E3004212422924211242451242938C828D832A
:1041F30012425E602E8A828B83A3A3A3A3A3A3A3ED
:10420300A3E02430124290EEA2E150178A828B83FE
:10421300A3A3A3A3A3A3A3A3E02431124268888288
:104223008983F002613412422EE022EA2408FCEB77
:104233003400FD8C828D8322124A43A322125FBC79
:10424300EE2212424922F508A3E03400850882F5E4
:104253008322124259221250BEE822E02421124A3C
:1042630043E0540322FAA3E012426F223400FB8A94
:10427300828B83E022124249124289A3A882A98336
:104283008C828D83E022E088828983F022124A4364
:1042930012429722E088828983F0A308A98322121D
:1042A30042978C828D83E0242822C082C0838A8235
:1042B3008B831240D2F8740358F98A828B83A3A3A9
:1042C3007401F0E960057402697061740C58FC6054
:1042D3001474086C600F74046C70137402697005B5
:1042E300E8A2E4401D8A828B83A3A37402F0740CBA
:1042F3006C700A8A828B83A3A3E02402F0740269A0
:104303007005E8A2E440258A828B83A3A3E02404FA
:10431300F0EC600F74086C600A740C6C6005740434
:104323006C70098A828B83A3A3E004F0E8A2E750B0
:10433300318A828B83A3A3E004125FC4F9A3E0F55F
:10434300838982A3A3A3E0540360178A828B83A388
:10435300A3E004F0E8A2E150098A828B83A3A3E0DF
:1043630004F08A828B83A3A3E004023881C082C055
:10437300838A828B83A3A3A3A3A3A3A3A3A3A3122D
:104383004D0C60098A828B83A3A312439302388264
:10439300A3A3A3A3A3A3A3A31254631217C42274B6
:1043A300F71204A6EAFEEBFF125FB488828983A3A7
:1043B300A3A3A3A3A3A3A3E4F0A312325FA3A3A382
:1043C300A3F0A3F0E8125D44E91243DE122118EED4
:1043D300FAEFFB1221248015F582ED124EDDE4F095
:1043E30022740C120BABE0F9740D1209557F010214
:1043F30006C1EA240BF582EB221266BC24092212C1
:104403004EDD127242750E00780C2274011246F4CE
:104413001244AE2274F51204A674F31209E9EAFEFB
:10442300EBFF7C087D007900851882851983AA82B9
:10443300AB83121728123197124A7BC0E07404121F
:104443000BABD0E0F07402120BAB7401124545C004
:10445300E07405120BABD0E0124A81640170097459
:1044630002120BABE0D2E5F01244A4120BABE070E6
:104473002D8E828F831250661209238E828F83A31F
:10448300A3A3A3124812740B120BAB124EE612092C
:1044930055851882851983AA82AB831220D00261C5
:1044A30028851882851983AA82AB831220D6740CBF
:1044B3002274F71204A674FE1209E9ECFEEDFF75EF
:1044C30008C8851882851983AC82AD83122196E9C9
:1044D3006401704985188285198312523412452765
:1044E300A3A3E4F0900632E0601B8E828F83A3A324
:1044F30012401A70108E828F83A3A3A3A3A3A3A336
:10450300A37401800D8E828F83A3A3A3A3A3A3A36C
:10451300A3E4F0EEFAEFFB122106E9F508A908740B
:10452300020243ED124B2CA322121ECCE96401229A
:10453300124FF3E022A3A3A3A3E8F0A3E9F012111F
:10454300222212563AA3E02274F61204A674F4123D
:1045530009E9EAFEEBFF123197124672FAA3E0F57E
:10456300838A82A3E0FA7402120BABEA1258022484
:1045730002124B097404120BAB124742EA600A742D
:1045830002120BABE06404701C1246661254697489
:1045930006120BAB12466C124B097408120BABE8F4
:1045A300F0A3E98056E06401600AE064066005E078
:1045B30064057023124666124268C0E07403120B4E
:1045C300ABD0E012580224131254697406120BABD9
:1045D3001257FE241B80C07406120BABE4F0A31227
:1045E300467224121254697408120BAB12466C12F1
:1045F30066B8C0E0740A120BABD0E0F07406120B7D
:10460300AB124D0C60287406120BAB125D9D120D9C
:1046130014E9640170181211228A088B09AC08ADE1
:10462300097406120BAB125D9D123892700F851838
:1046330082851983AA82AB83122160802185188227
:10464300851983AA82AB83121B54E96401700FEEB0
:10465300FCEFFD7406120BAB125D9D122100740C6E
:104663000238E5124677241222124690241A22F0C9
:1046730012467722EE2402F8EF124681E02234003C
:10468300F98882898322124690F8A3E022EAF0A3F4
:10469300EB124699E022F08882898322C082C0838C
:1046A30074FC1209E91247181247428A828B83A3CA
:1046B300A3E0124B077402120BAB1246EC12215A01
:1046C30074048000120955023882C082C08374FDCD
:1046D3001209E9124700C0E07402120BABD0E012DA
:1046E30046F012169E740380DBE8F0A3E91246F449
:1046F30022F0851882851983AA82AB83228A828B52
:1047030083A3A3A3A3A3A3124AF98A828B83A3A39C
:10471300123FF2E0228A828B83A3A3A3A3A3A31253
:1047230047262212472A22E0F8A3E0F9851882855A
:10473300198322125FBCEE240BF582EF124EDD12B9
:104743004AFC22AA82AB8312171C740322124AFC6E
:104753009003302274F41204A674FB1209E9EAFEF2
:10476300EBFF8E828F83A3A31242552409F508E938
:10477300126A067403120BABAC82AD838882898301
:10478300A3AA82AB83122196E96401706A85188219
:104793008519837432124A7B24F7C0E07401120B2B
:1047A300ABD0E0F07402120BABE41246F0120DE64C
:1047B3008A0A8B0BAE0AAF0BEE4F603B7403120BEE
:1047C300AB1247FFA3A3124533C0E0EE2420122A05
:1047D30022D0E0F0750A007808120923EE12700D5A
:1047E300EF12480FEE240B122A22124EEC12095537
:1047F300EEFAEFFB120DE07405022AF2125FBC8E93
:10480300828F8322E50A2410F582E50B124EDDE048
:10481300FC7D0022C082C083124843600E24FE60E8
:104823000F24FE601024FB601180121220FA800D09
:104833001220F480081220EE80031220E80238824E
:104843008A828B83A3A3E0F81248CC24FB22C08284
:10485300C0838A828B83A3A3A3A3A3A3A3A3E07090
:10486300528A828B83A3A3E0F81248C86401604391
:104873001248C26402603C1248C2640360351248A5
:10488300C26404602E8A828B83A3A312401C60231C
:104893001248C2640A601C1248C2640B60151248B5
:1048A300C2640C600E1248C2640D60077904121EC4
:1048B300BA80099003261237591222250238828AB8
:1048C300828B83A3A31248CC22123FF9E02274F611
:1048D3001204A674FA1209E9EAFEEBFF7403120B41
:1048E300ABEEF0A3EFF07403120BABAA82AB83120F
:1048F300210C1272206003024A33851882851983C2
:104903007432F07405120BABC082C0838E828F8326
:10491300A3A3A3A3E0D083D082F8E028C0E074016E
:10492300120BABD0E0124A81C0E07402120BABD081
:10493300E0124A66F8A3E0F9E8496026E82417F58F
:1049430082E9122A25C082C083E82416F582E9127F
:104953007226D083D082F8E028F87401120BABE002
:1049630028F0851882851983AA82AB83120DE68A03
:10497300088B09A808A909E8497003024A268E8210
:104983008F83125D9D88828983A3A3EAF0A3EB1230
:104993004A6CA3A3E0C0E0E82420F582E9122A25AB
:1049A300D0E012658BC0E0E82421F582E9122A25C4
:1049B300D0E0124A7BC0E0E8242AF582E9122A25D6
:1049C300D0E0F07405120BABE0FA124A38127226EB
:1049D3002A125469E8242B124CCD7405120BABE058
:1049E300C0E0E8242DF582E9122A25D0E0124A66B8
:1049F300FAA3E0FBEA4B6019E8242BFAE9122AE850
:104A0300A3A3A3A3A3A3A3A3E02416124A3F124A7A
:104A13004E8E828F83A3A3A3A3A3A3A3A3E8F0A390
:104A2300E9800CEEFAEFFB122112122A1F7410F028
:104A330074060238E5E8240BF582E922124A432280
:104A4300FCA3E03400FD8C828D8322E0FC8A828B00
:104A530083E02CFCA3E03400FD8A828B83ECF0A37B
:104A6300EDF022125162A3E022F0E8126845E91248
:104A73004EDD74011250C522125159A3E022124B8C
:104A830016E02274F71204A6EAFEEBFF12722070FE
:104A93001E124ABC124D0C60061237521222251206
:104AA3007220700B125D91120DE0122A1FE9F0EED5
:104AB300FAEFFB1221120243F012211E8E828F8322
:104AC300A3A3A3A3A3A3A3A3A3A32274F61204A63D
:104AD300EAFEEBFF8C088D09121B48E9700479018B
:104AE3008011AC08AD09EEFAEFFB9003241237599D
:104AF3001222250238E812472AE8F0A3E9F022122D
:104B0300657CE0222401F8A3E03400F922124B165D
:104B1300A3E022124B1A22124B1E221250C9A3A346
:104B2300A3A3A322124B2CE022E8F0A3E9124B34F7
:104B3300221250C9A3A322126CAC121ED222124C11
:104B43008EEEFAEFFB22E0242B12400FE022123804
:104B53009C124B5822E08E828F83A322124F33A3E1
:104B6300A3A3A32274F61204A674F31209E9124C48
:104B730056124CB4120BAB740CF07405120BAB74DD
:104B83000112563560097402120BAB74218007744D
:104B930002120BAB7401124410120BABE0703274AF
:104BA30008120BAB124BFE7406124A7B124C72EEC8
:104BB3002402F8EF124681124BE9126419124BE9F1
:104BC300A3124B10C0E0124BE0122A25D0E012656D
:104BD30084740C120BABE0F9740D0238E5E508247C
:104BE3000BF582E50922124BF4A3A3A3A3A3A3A36A
:104BF30022E0850882850983A3A322124C9C88089E
:104C030089098882F5832274F71204A674F31209C2
:104C1300E9124C56124CB4120BAB7409F074021225
:104C23000BAB7421F07405120BAB12440E120BABD9
:104C3300E0701D7408120BAB124C947407124CAD48
:104C4300124C72851882851983AA82AB831220D0F5
:104C53000243E4EAFEEBFF7C087D007900851882BD
:104C6300851983AA82AB831217288E828F8322FC35
:104C7300A3E0FD88828983A3AA82AB83121ED2227A
:104C8300F582EF3400F583124C8E22E0FCA3E0FDA5
:104C930022124C9C8882898322124B49F8A3E0F9A3
:104CA300221250C41254632274011250C5A3A3E00C
:104CB30022124AF97404221217288508828509836F
:104CC300A322E0F508A3E0F50922F582E9124EDDFF
:104CD300EAF0A3EBF022124CDD22124B341250BE49
:104CE30022C082C083124CF474E2F0A37420023811
:104CF3008112212A900326228E828F83A3A3A3A34A
:104D0300A3A3A3A3A3A312581C124259492274F7C5
:104D13001204A6E9FE124D3E122A25124D0C60180C
:104D230088828983A3E05403700EEEFB124A381283
:104D33002A25124D6F124D690243F0EA125D44EBCE
:104D430022C082C083EAF8EBF988828983A3A3A3F4
:104D5300A3A3E0FB88828983A3A3A3A3124D6FA31C
:104D6300124D69023882E0F912165022E0FA888265
:104D73008983A3A32274E81204A68A088B098C16DC
:104D83008D178914741A120BABE0F50AA3E0F50B27
:104D9300741C120BABE0F513741D120BAB780C12E1
:104DA3000B4E1263C9EB127226242DFA7B001217E5
:104DB3003A8A108B11AE10AF11EE4F7003024EBA48
:104DC3008E828F837401F085081085091175120096
:104DD30078101209237C157D00EE2418124EC4129C
:104DE300095585161085171178101209237C097D42
:104DF30000EE2402124EC41209557418120BAB12A2
:104E03004736850A82850B83E0C0E0EE240F122A21
:104E130022D0E0124EFAC0E0EE2411122A22D0E092
:104E2300124EF5C0E0EE2410122A22D0E0123BB756
:104E3300E513124F1FE4F0A3F0124ED3780C120BBC
:104E43006CEE2417122A22E5141238AAF8A3E0F90B
:104E5300EE240D122A22124F19126A2812722660AA
:104E630025EE2426125447242DF8124F111268629E
:104E7300124402120923126A2612480F8A828B8374
:104E8300124EEC120955EE24191272235403601DBD
:104E930090031C124D0C600CEEFAEFFB12375C1200
:104EA30022258013EEFAEFFB121740800AEEFAEF89
:104EB300FB9003011250AD026A777C087D00EE245B
:104EC30004FAEF124ECA223400FB12171C74032299
:104ED300EE2413124EDA22F582EF124EE122340051
:104EE300F58322E0242B123D9C12546312171C7489
:104EF3000322124F08E022124EFFE022124F032238
:104F0300124F08A322F0850A82850B83A322EF3474
:104F130000F98A828B83124AFCE50822F0EE2426EC
:104F2300124EDA22F50CA3E0F50D750E00780C2273
:104F33001238A4A3A3A32274F11204A68A088B092E
:104F43007A20125040606F8E828F83740612505CF9
:104F53008E828F83A3A3A3A31238968E828F83128C
:104F63004FC6124F271209237C107D00EE24061230
:104F73004EC4120955850882850983A3A3A3124F42
:104F8300BC2416FAEF3400FB120D0E850882850946
:104F930083A3A3A3A3A3A3A3A3A3A3E0C0E0EE249B
:104FA3001E122A22D0E0124FD6C0E0EE241F122A8E
:104FB30022D0E0124FDE026CCBA3A3A3A3A3124C17
:104FC3008EEE22A3A3A3A3A3124FCF221238A0A332
:104FD300A3E022F0124BE012581222F0EEFAEFFB9C
:104FE300900527E0F912174622124EDA124FF322E8
:104FF300E8F0A3E9124FFB22F0850882850983229A
:1050030012500722123DBBF8A3E0F98E828F83A3CF
:10501300A32274F41204A68A088B097A0C12504056
:1050230060188E828F83740812505C1250501209DC
:1050330023124EBD1209551250A6022AF57B001207
:10504300173A8A0A8B0BAE0AAF0BEE4F22F508A371
:10505300E0F509750A00780822125007124FF3A3EE
:10506300A3E022A3A3124CC5750A0078082274F6A4
:105073001204A6EAFEEBFF7A057B0012173AEA4B0D
:10508300601E8A828B83740A1250B38A828B83A335
:10509300A3124B278A828B83A3A3A3A3F01250AA44
:1050A3000238E8EEFAEFFB900527E0F912174622E3
:1050B3001250B7221250C91250BE22E0F8A3E0F9F1
:1050C30022A31250C922F08E828F8322C082C08312
:1050D300E9900C77F090031874D6F0A3740BF0905A
:1050E300031A74E8F0A3740BF090031C74FAF0A392
:1050F300740B02388174F71204A6EAFEEBFF8908E9
:10510300EE4F7003121BD890032A124D0C700890B7
:10511300032A8022125FB888828983A3A3A3A3A34F
:10512300A3A3A3A312514F88828983A3A3A3A3A3F9
:10513300A3A3A3A370DEEEF0A3EF12515EE4F0A3EA
:10514300125155A3A3A3E508F00243F0125463EAF6
:105153004B2212515922124B34A3221251622212B2
:10516300563EA3A32274F71204A690032A800D8E41
:10517300828F83A3A3A3A3A3A3A3A3A31266F0EE87
:105183004F60348E828F83A3A3A3A3A3A3A3E06959
:1051930070DD8E828F83A3A3A3A3E06A7003A3E0D1
:1051A3006B70CC8E828F83A3A3A3A3A3A3E06C70A5
:1051B300BEEEFAEFFB80047A007B000243F074F743
:1051C3001204A690032A1266F090032A123178681B
:1051D3007002EB697017125227125FB890032A12FC
:1051E300474290032A1266F080301266E3EE4F6066
:1051F300298E828F83A3A3A3A3A3123174687002A1
:10520300EB6970E68A828B83A3A3A3A3A3A3A3A3BF
:10521300A3125234A3A3A31247421217C4EEFAEF08
:10522300FB0243F0123FFAA3A3A3A3A3A3A3A3A345
:105233002212547EA3A32274F01204A674FA120954
:10524300E98A088B098A828B83A3A3A3A3A3A3A3BD
:10525300A3E0600D640160098A828B8312545B6052
:10526300057902025442850882850983A3A3A3A377
:10527300A3A3A3A3E0640370157404120BABAC8265
:10528300AD83AA08AB09122196E9701380D3850870
:1052930082850983125FB87404120BAB1247421262
:1052A300684A12722624321254691217BE8A0A8B74
:1052B3000BAE0AAF0BEE4F70030254407C327D00FD
:1052C30079001217287402120BABAA82AB838508EC
:1052D30082850983A3A3A3A3A3A3A3A3A3E0F91292
:1052E30016927402120BABE0C0E0EE242D122A22B8
:1052F300D0E0F0EE242CF50AEF3400F50B74031222
:105303000BABE0850A82850B83F07901EEFAEFFBA4
:10531300120BC485080C85090D750E00780C120953
:10532300237C1C7D00EE240B124EC4120955EE247F
:105333003012544724320808124F112411F8E5099A
:1053430012721BFCE9FD8C828D83124240242E12C3
:105353002A22124F191257E0126A2F1209238C8244
:105363008D83124C8A8A828B83124EEC12095574F8
:1053730004120BAB12547A12474290030212547078
:10538300F0900302E004125823242A125D51750D94
:1053930000850A82850B83E0780C120AC48A828B0B
:1053A30083E50CF0EE2429122A22E50C126578E439
:1053B300F0E5082415F582E50912545574015007E8
:1053C300120BAB74018004120BABE4F0EE24271232
:1053D3003FBC851882851983AA82AB8312167AE9AA
:1053E30024FE850882850983F0F508750900EE24FB
:1053F3002E124C83ECF8EDF9AA08AB091202EFE880
:105403008E828F83A3A3A3A3A3A3A3A3F0ECF8ED9E
:10541300F9AA08AB091202EF8B09EA4509600F8E5E
:10542300828F83A3A3A3A3A3A3A3A3E004F0EE24E7
:10543300201272234408125DC87900800279107427
:1054430006023BC6127219FAE9FBEE22EE2415F5A9
:1054530082EF125812A2E0221254631211C4E922FD
:10546300E0FAA3E0FB22FAA3E03400FB22124B583C
:10547300A3A3A3A3A3A32212547E221250BE8E82FF
:105483008F83A3A3A3A32274F41204A6EAFEEBFF63
:10549300125D49124CD3900CC4E0F8EE242B127227
:1054A30023C39840030255FF125D697015EE242B48
:1054B3001272230412562DC0E0EE2429122A22D0A0
:1054C300E0F0EE2428127223FC7900800109EE2417
:1054D3002C123301E9C3985026750801750900E9B8
:1054E3007808120AC4125D69550860E1E92CFC755D
:1054F3000801750900E97808120AC4E04508F0EECE
:10550300242712561AEE242E122A22EC8A088AF035
:10551300A4F8ABF0E42BF9E098F8A3E099F9C3E819
:105523009508E99400EE40392427123301125D698E
:105533006037EE242D122A22125627A3E4F0EC70D2
:1055430054EE24201272234420124545C0E0EE2479
:1055530026122A22D0E0F0EE243012561AA3E0805D
:10556300592429122A2274FFF090035CE0FA900C6C
:10557300C7E0F508EA8508F0A4ABF075F064A4FA77
:10558300ADF075F064EBA42DFB8E828F83A3A3EAA9
:10559300F0A3EB80A8EE242012722354DF124F1FD6
:1055A300ECF08C08EE24271272238508F0A4FAABE2
:1055B300F0EE2430F582EF125611FBEE241EF58235
:1055C300EF12560D125635C0E0EE2425122A22D0D2
:1055D300E0F0EE241C122A22E812581790032C1232
:1055E3004D0C600BECF912375C122225E97018EEB2
:1055F300240BFAEF3400FB1221C0800B7BE9EE246D
:1056030022F582EF1257EA022AF512656322125835
:10561300122AFAA3E03B2212561E22F582EF124E03
:10562300E1E0FA22124B58A3F022F0EE242A12589A
:105633000F2212563AE02212563E22124B1EA3A309
:105643002274F41204A690032A1266F01218668AD2
:105653000A8B0B7CFF7DFF8020E0C398FAA3E099BF
:10566300FBC3EA9CEB9D500E8E828F83A3A3E0C302
:1056730098FCA3E099FD1266E3EE4F6059125FB404
:10568300E50AC398F8E50B99F98E828F83125D9B27
:10569300C3E89AE99B8E828F83A3A340BCA3A3A3F1
:1056A300A3E06402701DEE240B125D6C600CEE240B
:1056B30010122A22125D9D121740EEFAEFFB120B15
:1056C300D08007EEFAEFFB120BDC7A017B00900C23
:1056D30077123B3E801474FF6C700374FF6D600A95
:1056E3007A017B00900C7712334F022AF574F01283
:1056F30004A68A088B09ECFAEDFB890A7C0112687F
:105703004A125D5B8A0C8B0DAE0CAF0DEE4F70032E
:105713000257DDE50A60030257DDE5081257E0E0B2
:10572300F8EE24281272236860030257DDEE242C5E
:1057330012561AE82AF8E43400F98E828F83A3A361
:10574300A3A3A3A3A3A3E0FAE89AE99400C365D0B3
:10575300334014125A7A125D6F700C7B0012684347
:10576300E5091257EA8073125A7A125D6F7031EEAF
:10577300242C127223F9EE2429122A227508FF75AC
:105783000900E97808120AC4E508F0EE242A122A6F
:1057930022E50812580729F0EE242B123B3380220E
:1057A300E5082414F8E5093400F9E0C0E0EE242A02
:1057B300122A22D0E0125802C0E0EE2429122A2233
:1057C300D0E0125823242D122A22123EAEA31258DF
:1057D300177A01FB900C77123B3E023BC92413F569
:1057E30082E509124EDD22125621EE2414124EDAFE
:1057F300124D69EEFAEFFB120BD022EAF0A3EB1283
:105803004699E022F0EE242812580F22F582EF1277
:105813004EE1E022F0A3E4F022E0240F12400B2239
:10582300F01218668E828F83EAF0A3EBF0EE2274F7
:10583300E81204A674FD1209E9E985188285198323
:10584300F08A0A8B0B8C168D17741B120BAB125A32
:1058530072741D120BAB780C120B4E8A828B83A3CE
:10586300A3E0F912166E8A128B13EA451370077AB6
:10587300007B00025A6D7A127B001217BE8A088BD6
:1058830009AE08AF09EE4F7003025A697C127D001E
:1058930079001217287401120BABAA82AB83850A15
:1058A30082850B83A3A3E0F9121692EE240FF50869
:1058B300EF126A067402120BABE085088285098336
:1058C300F07902EEFAEFFB120BC48516828517837B
:1058D30012547AE8F0A3E9125AB28E828F83A3A3FB
:1058E300A3A3A3A3A3F07514FF75150085088285F0
:1058F3000983E07814120AC4122A1FE514F08512F2
:1059030082851383A3E0F81248C8C0E0EE240B128B
:105913002A22D0E0125ABCF508EE240D122A22E501
:1059230008F0125D74E08508F0A42424FAE5F0344D
:1059330000FB12173A8A088B09EE1263CAEF124C66
:10594300D0EA45097003025A5E8A828B83741A1265
:1059530058178A828B83A3A3F0A3125AA6125A8FD5
:10596300124742AC16AD17EA2406FAEB3400FB12D9
:10597300168C850A82850B83A3A3A3E0C0E0E50808
:10598300240FF582E509122A25D0E0F0900379125D
:105993005FB8E5082410125A83125AC9A3125FB8DC
:1059A300E5082412125A83124EFAC0E0125A7A12F0
:1059B3002A25D0E0F0E50A125D44E50B127226C0F9
:1059C300E0E5082415F582E509122A25D0E0125AEC
:1059D3009DC0E0E5082416F582E509122A25D0E0EA
:1059E300127632E0C0E0E5082417F582E509122AB1
:1059F30025D0E0127632A3E0C0E0E5082418F58252
:105A0300E509122A25D0E0124B02C0E0E50824196B
:105A1300F582E509122A25D0E0F0E508241AF5827B
:105A2300E509122A25780C120B6CE5082424F8E505
:105A3300093400F9E5082422F582E50912473FE518
:105A43000A126845E50B127226C0E0E508241FF52B
:105A530082E509122A25D0E0F0800BEEFAEFFB1263
:105A63000BD07E007F00EEFAEFFB7403026A74E052
:105A7300F510A3E0F51122E5082414F582E50922C7
:105A8300F582E509124EDDE8F0A3E922E0F8A3E090
:105A9300F98A828B83A3A3A3A322F08510828511A5
:105AA30083E022125AAA22124F03A3A3A3A322F034
:105AB300126852E50B12581222F0E50A2410F582FF
:105AC300E50B12581222125AAAA3A3A32274E812B6
:105AD30004A68A0A8B0B8C108D1189147418120B6F
:105AE300ABE0F516A3E0F517741A120BAB780C12A2
:105AF3000B4E750900EA2413F582EB127226F508A2
:105B030090032C124D0C6011A90890032C123759E5
:105B1300122225E96003025D417C02851082851112
:105B230083125D9D126852E50B125D5B8A128B1323
:105B3300AE12AF13EE4F704B850A82850B83A3E041
