:020000040000FA
:06000000020A9602020E46
:03002B000208FACE
:0300530002013473
:03006B0002066129
:1000830002019B0101FF01010503010F10FEFFD6D1
:1000930014D614D614D6148C138613D6145B2300EB
:1000A3000000001F24000000000C0000000C0001F1
:1000B300FFFF0101010027050000009E05B80102B2
:1000C30002000800000502070401051E02051E02C6
:1000D3000A0A03B80B02803E010201FFFF010A0175
:1000E3001401E096511800020206FF010900EF49CE
:1000F3000C160D0006501F561F5C1F621F000000E8
:1001030000000000000000000000000000000000EC
:10011300000000102020202020202020202020204C
:10012300202020200110040104040005758001DC57
:1001330080C0E074F1120426A2AFE433FED2AFE52F
:10014300A7FFE5A1F5085FF50974105509600612CC
:100153001BE475A1EF740855096008121BEA75A129
:10016300F7802BEFA2E0C0D0E508A2E092F0120ADC
:1001730042158182F05017906198E0F890066AE08A
:10018300C398A2D265D0335002E8F075A1FEEEA267
:10019300E092AF7F02020485C0E074F2120426A24B
:1001A300AFE433FED2AF9061A4E0F8759B00E59114
:1001B30058540860087591F7121C2C802AE5915851
:1001C300541060087591EF121C32801BE8A2E0C046
:1001D300D0E591A2E092F0120A42158182F0500715
:1001E300E0C2E0F0121D6A9061A3E0F8E5E958541B
:1001F30004600E121D4075E9FB906193E0A2E64096
:10020300F2EEA2E092AF7F01020485C0E074F21225
:100213000426A2AFE433FED2AF9061A5E0F8E5BFB8
:10022300585404600675BFFB121D7C80D4C3E49848
:10023300F8E499F91202718026C3E49AFAE49BFB6D
:10024300E920E7E9120271E498F8E499F922C3E49A
:1002530098F8E499F9120271E498F8E499F9C3E47F
:100263009AFAE49BFB22EB20E7CFE920E7E0B90011
:1002730010BB0008E88AF084F8AAF022E4FBC8FA6D
:1002830022EB70227B10C833C8C933C9335007C36C
:100293009AC3DBF280069A50012ADBEAC833F4C81A
:1002A300C933F4C9FA2275F008E4C833C8C933C99D
:1002B30033C99AC99B5004C92AC93BD5F0ECFBC882
:1002C30033F4C8E4C9FA22080808EAC0E0EBC0E046
:1002D30086F0E7A4FA180986F0E7A42AFA18098633
:1002E300F0E7A42AFA180986F0E7A42AFA1986F097
:1002F300E7A4FBE5F02AFA190886F0E7A42BFBE54F
:10030300F03AFA190886F0E7A42BFBE5F03AFA185D
:10031300180986F0E7A4C5F02BFBE43AFA1908E7BD
:10032300C5F0C6A426F6E5F03BFBE43AFA1886F0DE
:10033300E7A4F6E5F00826F6E43B08F6E43A08F607
:10034300D0E0FBD0E0FA22E4CFC0E0E4CEC0E0E4AA
:10035300CDC0E0E4CCC0E075F020C3E633F608E698
:1003630033F608E633F608E633F6181818EC33FCD0
:10037300ED33FDEE33FEEF33FFC3EC9709ED970941
:10038300EE9709EF97191919400FFFEC97FC09ED48
:1003930097FD09EE97FE191906D5F0BEECF709EDA6
:1003A300F709EEF709EFF7191919D0E0FCD0E0FDD2
:1003B300D0E0FED0E0FF222518C582C0E0E5193465
:1003C300FFC583C0E0E518C3958224F810AF088504
:1003D30083198582188008858319858218D2AFCE48
:1003E300F0A3E520F0A37808E608F0A3DEFAEFF027
:1003F300A3E58124FAF8E608F0A3E608F0A3E608EB
:10040300F0A30808E608F0A3E608F0A31581158118
:10041300D0E0FED0E0F8158115811581E8C0E0EE4B
:10042300C0E022C0D02518C582C0E0E51934FFC55D
:1004330083C0E0E518C3958224F310AF08858319C0
:100443008582188008858319858218D2AFC8F0A3E6
:10045300E9F0A3EAF0A3EBF0A37908E709F0A3D846
:10046300FAECF0A3EDF0A3EEF0A3EFF0A3D0E0F0ED
:10047300A3D0E0F0A3D0E0F0A3E520F0A3E5F0F0F3
:10048300A322851983851882E0C0E0A3E0F9A3E0E5
:10049300FAA3E0FBA37808E0F608A3DFFAE0FCA3E5
:1004A300E0FDA3E0FEA3E0FFA3E0C0E0A3E0C0E023
:1004B300A3E0F5D0A3E0F520A3E0A3F5F010AF0887
:1004C3008583198582188008858319858218D2AFA0
:1004D300D082D083D0E0F8D0E032120AF8B900031A
:1004E30002051FE49003017874790A8002F0A3D80F
:1004F300FCD9FA900C74AA82AB8390008678AF790A
:10050300018015E493A3AC82AD838A828B83F0A32D
:10051300AA82AB838C828D83D8E9D9E775828C75E7
:1005230083B27404120859758260758321740012B2
:10053300085915000C75F0108E1A8F1B85821F85C4
:10054300831E851882851983E0CEA3E0CF851F82A1
:10055300851E83EBC9EAC8EDCBECCAC3E833C8E90F
:1005630033C9EA33CAEB33CBC3EA9EF51DEB9FF5E0
:100573001CB35004AB1CAA1DEC33CCED33CDD5F02A
:10058300DAAE1AAF1B22D083D082ECC0E0EDC0E01C
:10059300E493A3FCE493A3FDED4C600D1206A5ECDC
:1005A30024FFFCED34FFFD80EFE493A3FCE493A36D
:1005B300FDED4C600D120742EC24FFFCED34FFFD12
:1005C30080EFD0E0FDD0E0FCE493A3C0E0E493C06F
:1005D300E022D083D082E9C0E0E493A3C386F0C5D0
:1005E300F095F0F908E493A386F0C5F095F0700B4D
:1005F300E493A3C3994005E9048002A3E475F002E0
:10060300A42582F582E5F03583F583D0E0F9E49300
:10061300A3C0E0E493C0E022851983851882E0A398
:10062300FEE0A3F5207808E0A3F608DFFAE0A3FFD5
:10063300E0A3C0E0E0A3C0E0E0A3C0E0E0A3C0E02B
:10064300E0A3C0E010AF0885821885831980088570
:100653008218858319D2AFD083D08202085FC0E0AD
:1006630074F2120426A2AFE433FED2AF900C69E415
:10067300F0E589A2E7501C53AB7F7401F0900C6A3C
:10068300E004F07C147D007A107B00900C49E0F9C3
:100693001217A0C2C5758900EEA2E092AF7F0102D6
:1006A3000485C0E0C3E49396087401939618400F41
:1006B300E49366700808740193661870007019A3B8
:1006C300A3C3E49396087401939618A3A3400DD093
:1006D300E0D0E0D0E00205C5A3A3A3A3A3A3D0E089
:1006E300227404800474028000CCC0E0EDC0E0E515
:1006F30018C39CCCAD1950011D10AF068C188D1971
:1007030080068C188D19D2AF1207DBD0E0FDD0E044
:10071300FC2274028000CCC0E0EDC0E0E518C39C6D
:10072300CCAD1950011D10AF068C188D1980068CA5
:10073300188D19D2AF120797D0E0FDD0E0FC22C08C
:10074300E0C0F088F0E493667008087401936618BB
:100753007000A8F0A3A3700BD0F0D0E0D0E0D0E0FD
:100763000205C5A3A3D0F0D0E022D083D082CCC0B1
:10077300E0E493A360061207FC1470FAE493A36009
:10078300061209411470FAD0E0FCE493A3C0E0E43C
:1007930093C0E022CAC0E0E493A3C582CCC582C55E
:1007A30083CDC583F0A3C582CCC582C583CDC58364
:1007B300DAE5D0E0CA22A2E792D65002F40430F779
:1007C3000663F0FF05F0B3400384800384F4043030
:1007D300D60563F0FF05F022CAC0E0E0A3C582CCD2
:1007E300C582C583CDC583F0A3C582CCC582C5832D
:1007F300CDC583DAE6D0E0CA22C0E0E493A3D39C5C
:100803005010E493A3C39C400AD0E0D0E0D0E002B0
:10081300078AA3A3A3D0E022C008C3E096F5080883
:10082300A3E096420808A3E096420808A3E0964591
:10083300087001D3D008227009080808226016182E
:100843001818C6C333C608C633C608C633C608C697
:1008530033C6D5E0EA22C09FF59FE473D09F22D030
:1008630083D082C09FE493C0E0740193C0E074021C
:1008730093F59F227404800A740380067402800235
:100883007401C0E0F404120892D0E0120AD32225C6
:1008930018F58210AF08F518400215198008F518ED
:1008A30040021519D2AF85198322C0D0251810AF85
:1008B30008F518500205198008F51850020519D2D9
:1008C300AFD0D022BB0102E722C082C08389828AD3
:1008D30083BB0003E08002E493D083D082226016BE
:1008E300080808C6C313C618C613C618C613C61805
:1008F300C613C6D5E0EA22C0E0C0D0E8C0E0E5A850
:10090300D2AFC2C7A2E792AFD0E0F8D0D0D0E032E6
:10091300C3E0C696F608A3E0C696F608A3E0C6961B
:10092300F608A3E0C696F622251810AF08F518407E
:100933000215198008F51840021519D2AF22C0E03C
:10094300E493A36C7009D0E0D0E0D0E002078AA35F
:10095300A3D0E022E76670100809E766700A080969
:10096300E76670040809E76622C3E09608A3E096E9
:1009730008A3E09608A3E096A2D265D03322E066EE
:10098300701008A3E066700A08A3E066700408A369
:10099300E06622C3E096F008A3E096F008A3E09691
:1009A300F008A3E096F022E026F608A3E036F60866
:1009B300A3E036F608A3E036F622E026F008A3E02B
:1009C30036F008A3E036F008A3E036F022E657F647
:1009D3000809E657F60809E657F60809E657F62226
:1009E300E056F608A3E056F608A3E056F608A3E09F
:1009F30056F622E056F008A3E056F008A3E056F0BE
:100A030008A3E056F022E647F60809E647F6080988
:100A1300E647F60809E647F622700422600D18C679
:100A2300C333C608C633C6D5E0F41822E627F60852
:100A330009E637F60809E637F60809E637F622C06D
:100A4300E0E8C0E0E58124FCF8E6A2E7D0E0F8D0D6
:100A5300E022E4C396F608E496F608E496F608E482
:100A630096F622C6F4C608C6F4C608C6F4C608C677
:100A7300F4C622C3E09608A3E09608A3E09608A371
:100A8300E09622C3E7960809E7960809E79608095E
:100A9300E7962275D000758140751801751903001A
:100AA3000204DDE0F608A3E0F608A3E0F608A3E0FD
:100AB300F622600C08C6C313C618C613C6D5E0F4E5
:100AC30022E6F008A3E6F008A3E6F008A3E6F02286
:100AD300CAC0E0E6F0A308DAFAD0E0FA22E0FAA30B
:100AE300E0FBA3E0FCA3E0FD22EAF0A3EBF0A3EC20
:100AF300F0A3EDF022E5C754F84401F5C7790122CC
:100B03002518F582E43519F58322C2AF75D69F0205
:100B1300000022120862EF4E00120862184F001202
:100B23000862884F00120862E14F001208625A50AF
:100B330000120862AA52001208626454001208628A
:100B4300105500120862525600120862F058001243
:100B53000862F65B00120862035C00120862915C93
:100B630000120862435D001208628B5D0012086286
:100B7300EB5D00120862075E001208623B5E001222
:100B83000862705E00120862595F001208620E600C
:100B930000120862636200120862B0630012086206
:100BA300536400120862E0640012086216650012C2
:100BB3000862C865001208629A66001208625568E6
:100BC30000120862A96800120862DD680012086258
:100BD300586900120862326A00120862F06A001251
:100BE3000862356B001208624D6B00120862E46BF9
:100BF30000120862556E001208626A7000120862E1
:100C0300887000120862A6700012086280710012D8
:100C130008629E7400120862008002120862358026
:100C2300021208625B800212086295800212086257
:100C3300A78002120862F980021208625A81021226
:100C43000862E48102120862888202120862D0827A
:100C5300021208620A8302120862278302120862E0
:100C63004C83021208629E8302120862B783021247
:100C73000862DD8302120862FC8302120862378471
:100C8300021208627B8402120862A28402120862C2
:100C9300F38402120862A385021208625B860212C1
:100CA3000862238702120862E38702120862278818
:100CB300021208624C88021208628F8802120862CC
:100CC300DC8802120862348A02120862BA8A0212AB
:100CD3000862D88A02120862028B021208621C8B15
:100CE300021208622B8B02120862368B0212086210
:100CF300F68B021208624F8C02120862118D0212E7
:100D03000862198D02120862918D02120862E08D49
:100D130002120862268E02120862678E02120862AD
:100D2300F78F02120862AF90021208621B9102123F
:100D33000862469202120862579202120862CD922A
:100D4300021208625F9302120862B79302120862EA
:100D53007794021208629E9402120862BC940212F3
:100D63000862CE94021208622195021208625E950F
:100D7300021208626B9502120862EE960212086272
:100D83004398021208625C98021208629899021250
:100D93000862339A021208626C9A02120862B89AC5
:100DA30002120862D49B021208621D9E021208629C
:100DB300289E02120862339E021208623D9E0212AE
:100DC3000862489E02120862629E021208626C9ECA
:100DD30002120862769E02120862819E0212086263
:100DE300A99E02120862049F02120862289F02123F
:100DF30008624C9F02120862AA9F02120862EE9FC9
:100E0300021208620AA00212086281A0021208629A
:100E1300B9A00212086205A10212086262A10212BD
:100E230008621CA20212086200A40212086259A4FA
:100E33000212086289A502120862AFA502120862B3
:100E430038A702120862B4AA0212086286AC021220
:100E530008624FAE02120862FCAE0212086267B06B
:100E63000212086206B10212086253B1021208624A
:100E7300BDB102120862CCB10212086253B402126D
:100E8300086205B60212086272B60212086251B70E
:100E9300021208626AB802120862E7B90212086213
:100EA30006BA021208625BBA0212086260BB02123F
:100EB300086288BB02120862E0BB02120862BFBC70
:100EC3000212086203BD021208624EBD02120862DA
:100ED300B9BD02120862FABE021208625EBF0212B4
:100EE3000862ACC0021208620CC3021208623DC35E
:100EF30002120862F5C4021208624AC502120862AD
:100F03004EC602120862EBC60212086244C70212FE
:100F13000862F7C70212086299C80212086239C947
:100F230002120862DEC902120862E280011208623C
:100F3300218101120862688301120862B2830112DF
:100F43000862CD84011208623D8501120862728530
:100F530001120862E68601120862698901120862B9
:100F6300928A01120862288B0112086230940112DE
:100F73000862C59401120862AC97011208629F9837
:100F8300011208620099011208621C9A0112086298
:100F9300019C01120862129E011208627C9E0112DA
:100FA30008624E9F0112086205A0011208620FA099
:100FB300011208623DA001120862FAA00112086240
:100FC300D1A10112086298A2011208624AA3011278
:100FD300086273A30112086295A301120862EBA5CC
:100FE30001120862C3A60112086207A70112086270
:100FF3006FA70112086227A80112086259A80112FB
:1010030008629DA801120862D3A8011208621FA9F1
:101013000112086274A90112086279A90112086217
:10102300CCA901120862F1A90112086200AB0112F6
:10103300086264AB01120862D4AB0112086260ACAF
:10104300011208622DAF0112086211B00112086289
:1010530094B101120862CAB30112086278B4011292
:10106300086228B50112086269B7011208620CB858
:101073000112086253B801120862FFB90112086233
:1010830013BA011208621DBA0112086245BA0112AD
:10109300086251BA0112086270BA0112086255BCA3
:1010A300011208628CBC0112086296BC011208622C
:1010B300A0BC01120862FBBC0112086245BD01120B
:1010C30008624DBE01120862A4BE01120862F3BF9A
:1010D3000112086237C001120862DFC00112086200
:1010E300C2C1011208626DC201120862B9C30112C2
:1010F3000862B7C4011208625DC501120862EDC53A
:101103000112086204C6011208623BC6011208629A
:1011130045C60112086250C6011208626EC601126A
:101123000862B2C6011208620FC70112086234C70F
:10113300011208624EC701120862DAC7011208627F
:10114300F7C80112086264C9011208624BCA01128E
:10115300086272CA01120862E6CA0112086261CB10
:101163000112086265CC011208625BCD01120862AC
:101173000ACE011208621DCF01120862B9CF011213
:10118300086246D00112086224D1011208625CD1C0
:1011930001120862B4D1011208627DD20112086201
:1011A3009ED20112086225D30112086249D30112AB
:1011B30008626BD301120862B4D301120862CAD564
:1011C30001120862B1D60112086262D701120862E5
:1011D30098D901120862E8D90112086228DA0112CB
:1011E30008626ADA01120862C6DA01120862F4DAE6
:1011F3000112086218DB011208626BDB011208623C
:1012030099DB01120862D2DB0112086227DC0112AA
:1012130008628DDC01120862E1DD0112086204E05C
:101223000112086271E0011208629AE00112086279
:1012330025E1011208628CE101120862D7E1011273
:101243000862FBE1011208621FE2011208627AE2FE
:101253000112086295E2011208624EE3011208626C
:1012630088E3011208625189041208628989041211
:101273000862AA8904120862EC8904120862528A7D
:10128300041208625C8A041208626C8A04120862FF
:10129300A18A04120862EA8D04120862948F041270
:1012A3000862949104120862A2CA02120862E8CA90
:1012B30002120862C8CB02120862CACC0212086288
:1012C300CDCD0212086259CF02120862B7CF0212C3
:1012D300086274D00212086292D10212086203D229
:1012E300021208623FD2021208628DD20212086211
:1012F30097D202120862DBD20212086237D30212BB
:101303000862D2D3021208624FD4021208621ED5B9
:1013130002120862B7D502120862D7D50212086218
:101323000DD6021208623ED602120862FFD60212DE
:1013330008620FD70212086263D7021208627ED7CF
:101343000212086290D70212086299D70212086249
:10135300F3D7021208624FD8021208629BD8021216
:101363000862B6D802120862E7D80212086204D9EA
:101373000212086210D90212086284DA02120862A9
:101383009DDA0212086204DB0212086217DB021202
:10139300086225DB02120862D9DB02120862BDDC97
:1013A30002120862C3DD021208624DDE02120862F5
:1013B30057DE02120862C4DE02120862DBDE02128A
:1013C30008620DDF0212086246DF0212086270DF54
:1013D30002120862D1DF02120862F1DF0212086210
:1013E3000FE00212086255E0021208627BE102126A
:1013F3000862C8E102120862F7E1021208626DE2B4
:101403000212086295E202120862CEE20212086238
:10141300DCE20212086234E30212086283E302127E
:101423000862C2E302120862F2E3021208621EE4D7
:101433000212086229E40212086247E402120862F7
:1014430009E50212086213E5021208624EE5021270
:10145300086264E502120862B9E502120862CDE58A
:1014630002120862DBE602120862EEE6021208626A
:1014730003E702120862A5E70212086228E80212D3
:101483000862E6E802120862F1E8021208621DEA45
:101493000212086239EA021208628BEA0212086237
:1014A300CAEA02120862DFEA0212086241EB021280
:1014B3000862D0EB021208621BEC021208626CEEA7
:1014C30002120862EAEE021208625FEF0212086279
:1014D30081F10212086299F1021208629CF1021270
:1014E3000862A8F102120862BCF102120862C4F198
:1014F30002120862F7F102120862A7F202120862EE
:101503001DF30212086290F30212086244F40212FD
:101513000862F9F40212086218F502120862B8F5BB
:1015230002120862C4F502120862EFF502120862A1
:10153300F2F5021208625CF60212086284F70212E4
:1015430008625CF802120862E7F80212086200FA05
:1015530002120862BDFA02120862F6FA0212086267
:1015630027FB02120862E5FB0212086215FC021255
:101573000862F0FC0212086289FD0212086214FE7E
:1015830002120862C5FE02120862EE4800120862E7
:101593007AFF02120862BBFF021208620FF60312FF
:1015A300086274F603120862B1F60312086200F7C8
:1015B30003120862EAF803120862D1FA03120862FE
:1015C3000AFE0312086230FE0312086248FE031289
:1015D3000862B1FE03120862EDFE031208621AFFED
:1015E300031208624CFF03120862914E0012086254
:1015F300BC74001208623A75001208626C7500121E
:101603000862C475001208623E77001208625A77B6
:10161300001208629577001208621C7800120862B3
:101623006C78001208623979001208623D7A001260
:101633000862917A001208620C7B001208626D7BCB
:1016430000120862AE7B00120862597C0012086225
:10165300777D00120862AD7D00120862F87D0012EA
:1016630008623F7E00120862C97E001208626E7F24
:1016730000120862CB9904120862119A04120862DC
:101683007B9A041208629C9A041208623C9B04121F
:101693000862469B04120862939B04120862B89B7B
:1016A30004120862189C04120862AE9C04120862B9
:1016B300E69C041208623F9D041208629B9D04127B
:1016C3000862C99D04120862519E04120862969E24
:1016D30004120862D59E041208621A9F041208625B
:1016E3002C9F041208623E9F041208625D9F04123D
:1016F3000862669F0412086212A00412086252A0D4
:1017030004120862B7DA0412086223CE04120862D4
:1017130059CE04120862A2CE04120862EFCF04125B
:101723000862F6AA031208626FAC0312086230AEB5
:10173300031208626CAE03120862F3B1031208626B
:1017430039B2031208624EB40312086220B50312C1
:101753000862CCB50312086277B703120862C1B9F5
:1017630003120862DDBC03120862EBBC03120862B9
:10177300C6BD03120862D9C10312086297DD0412C1
:1017830008624ADF0412086260DF04120862E2C0E2
:1017930004120862F5C00412086293C104120862BD
:1017A300D5C104120862FAC1041208623FC20412CE
:1017B300086278C204120862A9C2041208621CC437
:1017C300041208628ADB04120862C0DB0412086296
:1017D300DCDB041208621EDC041208622EDC041235
:1017E30008626CC203120862BEC2031208622DC3F0
:1017F3000312086224C403120862A8C40312086215
:101803006FC50312086284C503120862CEC50312B2
:1018130008621DC6031208626FC60312086282C6FD
:1018230003120862CEC603120862C9C80312086213
:101833004BC90312086275C903120862BEC90312B9
:10184300086286CB0312086201CC031208628ECCB5
:1018530003120862A1CC03120862F0CC03120862DF
:1018630006CD031208621DCD031208624CCD03128C
:1018730008626DCD0312086246CE03120862A9CE38
:1018830003120862F5CE03120862F8CF031208624E
:1018930066D20312086292D20312086216D30312AD
:1018A300086286D303120862A9D303120862E3D342
:1018B3000312086251D40312086207D503120862A7
:1018C3002CD50312086236D50312086246D50312DB
:1018D3000862C9D503120862E4D50312086206D66A
:1018E3000312086232D6031208626DD6031208622D
:1018F3007CD603120862BDD603120862E7DD041228
:101903000862FFDD0412086246920412086295928F
:1019130004120862479404120862FC9504120862D8
:1019230044960412086240970412086297980412BE
:101933000862B9980412086215990412086297990B
:1019430004120862E2D6031208620DD7031208627A
:10195300F0D70312086272D803120862DCD80312AC
:10196300086228D90312086296D90312086221DAA1
:1019730003120862AFDA03120862E2DA03120862A2
:10198300D6DF031208627BE10312086237E2031217
:10199300086274E203120862C0E40312086234E5C9
:1019A3000312086233E6031208620CE703120862AB
:1019B30086E70312086240E803120862FFE8031295
:1019C30008626BE90312086212EA031208626FEA03
:1019D300031208622CED03120862ECED0312086295
:1019E30051EE03120862FBEF03120862B8F0031210
:1019F300086217F2031208623EF303120862D9F376
:101A030003120862D4F403120862D2E301120862DB
:101A13005AE401120862CDE40112086221E50112C1
:101A230008625CE501120862E9E50112086205E754
:101A33000112086257E701120862B5E70112086252
:101A4300F8E7011208626DE801120862B7E80112B3
:101A5300086236EA0112086209EB011208625FEBC1
:101A63000112086255EC0112086202ED01120862CC
:101A73002DED011208624CED011208625CED0112BA
:101A8300086262EE0112086226EF0112086207F192
:101A9300011208626DF10112086284F101120862F9
:101AA300DAF20112086257F301120862C6F3011257
:101AB30008624FF40112086293F4011208625AF6A5
:101AC3000112086232F7011208626EF8011208620D
:101AD30027F90112086258FA0112086287FA011203
:101AE300086261FB0112086230FC0112086289FC82
:101AF30001120862A1FC01120862A1FD0112086231
:101B03002FFE01120862D4CB0412086293CC041294
:101B130008624CCD04120862B2CD0412086210B3FD
:101B23000412086279B4041208626ADF04120862BC
:101B330030D4041208623ED40412086284DF041213
:101B43000862DADC04120862EADC04120862F6DCDA
:101B53000412086243DD04120862B9D90412086250
:101B63003ADA041208629EDA04120862F5FF0112DF
:101B73000862F8FF01120862EA7F00120862FA7F26
:101B83000012086228DF04120862FEA90412086228
:101B930053AA0412086227AC0412086259AC041257
:101BA300086280AC0412086294AC04120862ADAC03
:101BB30004120862DCAD04120862EAD5041208625A
:101BC3000ED60412086227D6041208625AD60412EB
:101BD30008628BD604120862B9D6041208621BD7B6
:101BE300041208622AD70412086234D70412086266
:101BF30041D70412086233C40412086270C4041289
:101C030008627FC4041208629EC40412086206C5F7
:101C1300041208620FC5041208626EC5041208623A
:101C230092C50412086285C60412086292C60412A1
:101C33000862A3C604120862BFDE04120862DCDE77
:101C4300041208627BA004120862C1A00412086295
:101C530020A2041208622DA20412086240A20412F8
:101C630008625FA20412086275A20412086289A2C4
:101C730004120862FEA20412086263A3041208623B
:101C830013A404120862E8A404120862F8A404125C
:101C9300086207A5041208623FDC0412086264DCD0
:101CA300041208628DDC04120862B5DC04120862B7
:101CB30056D0041208627DD004120862F9D00412CF
:101CC30008625DC90412086276C90412086282C9F7
:101CD3000412086296C904120862B4C904120862A5
:101CE300BEC904120862C8C904120862DBC904121F
:101CF300086233CA041208626ACA0412086298CAE4
:101D030004120862E6CA0412086233CB04120862A2
:101D13004ECB0412086258CB041208628ACB041219
:101D2300086246DD041208620080041208622A80F9
:101D33000412086246800412086259800412086281
:101D430098800412086219810412086251850412F2
:101D530008627B8604120862AE8604120862FB8660
:101D6300041208622388041208624B880412086272
:101D73006E8804120862B28804120862138904127E
:101D8300086223890412086286D804120862A1D863
:101D930004120862CAD804120862E4D80412086262
:101DA30009D90412086228D90412086240D904121E
:101DB30008626ED90412086288D90412086235DEFB
:101DC30004120862F0B904120862F7B90412086237
:101DD3002CBB041208625BBB04120862C9BB041269
:101DE30008625CBC0412086295BC04120862DEBC83
:101DF300041208620EBD041208622EBD04120862AA
:101E03004BD70412086263D70412086280D8041205
:101E1300086283D804120862E0FE011208623FFFE1
:101E23000112086295FF01120862D6FF01120862CF
:101E33000080031208621B80031208629080031261
:101E43000862198103120862A88103120862C4811F
:101E5300031208626E84031208621D87031208626C
:101E6300BB8803120862068A03120862D38F031227
:101E73000862CF900312086245910312086211921F
:101E830003120862B59203120862189403120862DF
:101E9300B894031208620295031208627495031240
:101EA30008621D9603120862EA96031208625097AD
:101EB300031208625598031208621299031208620A
:101EC300AF9903120862069C031208629A9C0312DC
:101ED3000862169D03120862A29F031208629DA066
:101EE30003120862CCA0031208628BA203120862D9
:101EF3005FA40312086255A50312086243AA0312E2
:101F03000862D1C604120862F6C60412086285C7C5
:101F1300041208625BC8041208623BC90412086217
:101F230051B60412086212B70412086281B7041290
:101F33000862A6B70412086261B8041208627BDE65
:101F4300041208628EBD0412086203BE0412086202
:101F5300D9BF04120862DCBF041208620FC0041266
:101F6300086212C0041208621DC00412086299C0FC
:101F7300041208626ED204120862B9D20412086213
:101F8300E1D2041208625FD304120862E4D304129C
:101F93000862E7D30412086204D404120862B8AEDC
:101FA30004120862DEAE0412086229AF041208624A
:101FB30045AF0412086276AF0412086286AF0412BA
:101FC300086293AF04120862A0AF0412086283B0E0
:101FD30004120862C1B004120862CBB00412086292
:101FE300EAB104120862F5B10412086207B20412DE
:101FF300086210B2041208621AB20412086240A501
:1020030004120862F0A904120862FBDE04120862DB
:10201300A64800120862F1460012086271460012D7
:102023000862374600120862774500120862ED44E1
:1020330000120862BF44001208626B430012086278
:10204300D44200120862374200120862C2410012F1
:102053000862904100120862CD4000120862F83E07
:1020630000120862893E001208625B3E0012086299
:10207300583E00120862DF3C00120862E03B001287
:102083000862AA3A00120862EE3900120862643943
:10209300001208626A3800120862354E00120862A4
:1020A3005A4D00120862984B00120862644B0012EA
:1020B3000862314B00120862C637001208620D37FE
:1020C30000120862D03600120862044B0012086244
:1020D300163600120862E0350012086287350012D6
:1020E30008623D35001208622A4A00120862AAFFFC
:1020F30003120862DE3400120862AD340012086273
:10210300753100120862353100120862293100125C
:102113000862893000120862C92F00120862422D3A
:1021230000120862D32A00120862912A0012086280
:102133006529001208621A29001208625628001243
:10214300086299270012086269270012086287490A
:10215300001208622F270012086248FF02000000E5
:1021630080FBE4738F000100D00C87000100CE0CCC
:1021730024000200160625000200180626000200AD
:102183001A0627000200AE0C28000100B00C29003B
:102193000100B10C84000400B20C86000100B60CEF
:1021A3002A000100B70C2B000100B80C2C00010021
:1021B300BC0C2D0008001E062E000100BD0C2F00D4
:1021C3000100BE0C30000100BF0C31000100C00C47
:1021D3003200010026063300010027063400010007
:1021E300C10C36000100280638000100C20C39007A
:1021F3000100BB0C83000200CC0C6300010032061B
:1022030064000100B90C65000100BA0C6D00010007
:10221300CB0C6E0002001C0643000100C30C4400FB
:102223000200C40C45000100C60C46000200C70CA6
:10223300470008002A0648000100C90C4B000100B2
:10224300CA0C04000100CF0CA1000100D30C37001D
:102253000100D20C88000100D10C3C0001002906CA
:1022630000000000000000013636010100010201F8
:102273000001030100010401060605020000070135
:1022830000340801000F090401010D0100FF0E08CD
:10229300000017020000190100FF1A0100011B01D1
:1022A30000FE1C0100081D0200001F0100012001A7
:1022B3000001210200002301000F24020000260177
:1022C300000127010008280200FF2A0100072B0153
:1022D30002402C0100002D0100012E0100012F01FD
:1022E30000FF30010B1C310800003A0100083B01DC
:1022F300000F2F0100000101710101010101110112
:1023030001013101010101018001100161013B0063
:10231300140063017301720162014301000113019F
:1023230006013D0135000401120100010001000115
:10233300000104010401330133013C014401320172
:102343003600000100016501000135008101000133
:102353000501820183010001030071003001600067
:10236300110070003102200350048000100061004E
:102373000000140063007300720062004300000059
:10238300130006000000000004001200000000001B
:102393000000000004000400370037003C02440042
:1023A300000000000000000065000000350081000F
:1023B30000000500000083000000030271023001E9
:1023C3006002110270020102020202028002100284
:1023D30061023A0041006302730272026202430225
:1023E300000213023800000200020402120200027B
:1023F30000020002000204020402370037003C021C
:1024030044020002390000020002650200023502A4
:1024130081020002050282028302000201037103AA
:102423000103010301030103010322030203010367
:102433001003000300030003000300030003000371
:1024430042030003240306030003000304031203EF
:1024530025032303250323030403040300030003C9
:102463000003440300030003230300036503210067
:102473003503810300030503000300030003030482
:1024830071040204600411047004020402040104D0
:10249300020410046104000414046304730472044A
:1024A3006204430400041304060400040004040447
:1024B3001204000400040004000451046400000436
:1024C3000004000444040004000400040004650440
:1024D300000435048104640005040004830400043B
:1024E300000003002001E080000000002001E180E3
:1024F3000000040042016480000005004201538093
:102503000000060042014280000007002001DE8037
:10251300000010004203040D000011002003580CBA
:10252300000012001003150D030000002103590CD5
:102533000600000020015B0C00000000000000000A
:1025430036000100060000000F000000000000003C
:1025530000000000000003FFFF00000403FFFF0072
:1025630000FFFF0FF4010005C40403200001000273
:102573000B000000000000000003010FA81EE41E72
:10258300AE1EFC1EB41EEA1EB41EF61EBA1EFC1EB0
:10259300B41EEA1EC01EFC1EC61EFC1ECC1EFC1E64
:1025A300D21EFC1ED81EFC1EDE1EFC1E00000000F8
:1025B300000000000000CE19130092190100CE198B
:1025C30002005C19030062190400681905006E1902
:1025D30006007A19FFFF000001720F069C0F089690
:1025E3000F0BB40F10EE0E02780F058A0F077E0F44
:1025F3000C540F0D660FFF000003EAF5E5D5D5C5B2
:10260300B5A59595858575756565555545453535E7
:102613002525151505E6131614EC13F213101404EF
:1026230014FE131C14221428143414F813E013DAC0
:102633001300160F00000B150B020002220F3200CD
:10264300000600000000000000008967452301EF39
:10265300CDAB7A62323031363039323931303236BD
:1026630033377969206875692079756E20736D61D8
:102673007274D614E814EE14B013F414AA13B61338
:10268300361554155A153C1548154215EA12E4122D
:10269300201326131A13D2120C0E020B040B0A0773
:1026A30008000F0001191618161615230300303001
:1026B30017181921301B1D1F30303016181920230D
:1026C3001A1C1E3000383C3E363B3B352B432C0056
:1026D300034948424D18172505020A142E144E15B6
:1026E3003A1440142A15FA1400150C1506150204A1
:1026F30002010101010902F612FC12F0122C13026D
:1027030013141300BE040A0E000400000000002886
:10271300000C007F00E8030A03080900040010FF0F
:102723001E1E08090403100105080F0C74F7120399
:10273300BAE9FE1215F0EE900C75F090030E7436A4
:10274300F0A37421F09003107430F0A37421F0907F
:102753000312742AF0A37421F09003147424F0A3D9
:102763007421F002421074F71203BAE9FE900302D7
:10277300E4F0EE900301F0900CC71235801245622D
:102783007C2A7D067A057B03121E2A900CC9E090F1
:10279300030DF002421074F41203BA8A088B09EB9A
:1027A3005480605B900301125C64604A8E828F8365
:1027B300E064017032124CF31206E4EE241212703C
:1027C30043F50A780A12088312284912087FEE2477
:1027D3000B1228421206E8EE2417125C741215AE8F
:1027E30074091208AD8008E06402700312201CEE25
:1027F300FAEFFB121698AA08E5096480FB803AEA0F
:10280300A2E05017900316124B2C600612357C126F
:102813002165E5086401FAAB09801E5402600C903F
:102823000C747401F0EA6402FA800EEA5404600541
:10283300EA640480F37A007B00022915EE240CF588
:1028430082EF124CFD22EE240FF50AEF3400F50B54
:10285300780A2274F41203BA8A088B098A828B835A
:10286300A3A3A3E0241012421CFA124E60700302C9
:1028730029058E828F837402F0A3E4124E23A3A34F
:10288300A3A3E8F0A3E9124971A3A3A3A3A3A3A35A
:10289300F0E5082403F8E509123DC9241012408825
:1028A3008E828F83A3A3A3A3F0EE2409FA12290730
:1028B3001244A9F5838882E0A2E58E828F83A3A3C5
:1028C300A3A3A3500474018001E4F0E5082403F8F2
:1028D30088828983125BBDEA12667BEB122845125C
:1028E3004E8812087B1261E9EB12462F8E828F838A
:1028F300A3A3124D0C1208ADEEFAEFFB90030112E5
:102903004ECD800EEF3400FB8E828F83A3A3221261
:1029130008AD7F0402061B74F21203BA8A088B09FE
:10292300ECFAEDFB740E120B03E0FC1216208A0C7A
:102933008B0DAE0CAF0DEE4F6023AC08AD09121634
:102943000EE96019AC08AD09EEFAEFFB121614E9B3
:102953007007EEFAEFFB1216087900800279B402D1
:1029630035DB74EE1203BA74F712092B8A0A8B0B48
:10297300ECFEEDFF750FB3750E00750C00750D00C1
:10298300800CE50C2401F50CE50D3400F50D9027C2
:102993000CE493F8740193F9C3E50C98E50D9940A1
:1029A30003022A85AA0CAB0D12166E8A088B09EA5C
:1029B300450960CE8A828B83A3A3A3A3A3E0250E3C
:1029C300F50EF510C3E50A9510E50B940050B37CA2
:1029D300157D007900EEFAEFFB124ADAA3A3A3A355
:1029E300E50AC3950EF8E028C333F8E433F9E508A4
:1029F30028F582E50939F583A3A3A3A3A3A3125260
:102A03009AA3124358EAFCEBFDEEFAEFFB123DE604
:102A1300A3E06401700A124CF374011236BC8043C4
:102A2300851882851983AC82AD83850882850983E5
:102A3300125BBB121656E9602D7408120B03E0C03B
:102A4300E0124CF3D0E0F07408120B03E06403854A
:102A53001882851983700CAC82AD83EE240B123679
:102A6300A98003124556850882850983123CCEA3AB
:102A7300A3124DE6C0E0EE2414122842D0E0F07514
:102A83000F00A90F74091208AD7F0A02061B74F721
:102A93001203BAE9FE8A828B83A3A3A3A3A3A3E0B1
:102AA300540860298A828B83A3A3A3A3A3A3E0541E
:102AB3000260178A828B83A3A3A3A3A3A3A3A3A3C5
:102AC300E06406600574E96E700312211802421077
:102AD30074E81203BA74F712092B7407120B03126A
:102AE3004AF3E9851882851983F0ECFEEDFF74241F
:102AF300120B03780C120AA67513008E828F8312B1
:102B03005BB78E828F83A3A3A3E0F912162C8A14DA
:102B13008B15EA45157003022CDCEE241012543A8F
:102B2300A914120DF28A168B17EA45177003022CAB
:102B3300DCEE2406F510EF3400F5117C00851082DD
:102B4300F583122D2E8E828F83A3A3A3122D23121E
:102B530058BDF8A3E0F9851682851783A3A3A3A321
:102B63001237BE122D23A3A3A3A3125637851682B1
:102B7300851783A3A3A3A3A3A3F0EE12667BEF128F
:102B83002F9D12087BEE1261EAEF12462F85168203
:102B9300851783A3A3A3A3A3A3A3A3A3124D0C12DB
:102BA30008AD751000022C5C850A82850B83125BCD
:102BB300BB12165C850882850983A3EAF0A3EB1296
:102BC3004D1FA3A3124A14124EE4E0A2E6500F8550
:102BD3000882850983A3A3A3A3A3E0D2E1F0E513AD
:102BE3007063850882850983A3125DD890036CE026
:102BF300687003A3E069704D850882850983A3A3E8
:102C0300A3125447780C1208777427120B03E0F5CC
:102C13000A780A1208837426120B031206E890033B
:102C2300791206E879007410120B0312496112201D
:102C3300A674091208AD850882850983A3A3A3A3FB
:102C4300A3E04405F074012510FC8E828F83A3A3B7
:102C5300A3A3A3A3122D2E0510E50A450B605285ED
:102C63001008C3E5089514E495155045E51075F073
:102C730006A4F8A9F0E51628F8E51739F9E8240CB5
:102C8300F508E9123B8DE4124D1564016003022B34
:102C9300AB7513018508828509837401124D1AF8F7
:102CA300A3E0F9850882850983A3E8F0A3E9022B51
:102CB300C2AA16AB17120DF8781612087F742512E4
:102CC3000B03E0FC7402120B03E0F9EEFAEFFB12C4
:102CD300211E74021208AD80428E828F83A3A3A3A8
:102CE300E0C0E07404120B03D0E01239D7E0C0E077
:102CF3007405120B03D0E0F0E51445157009740652
:102D0300120B0374B980077406120B037410F0746A
:102D130001120B03AA82AB831220AC7409026894DC
:102D2300E0851682851783A3A3A3221252838E8282
:102D33008F83A3A3A3E0F91216328A0A8B0B2274A2
:102D4300E81203BA74F312092B8A0A8B0B89178CC6
:102D5300167425120B0312705EAA0CFB120DE6E922
:102D6300F514AA0CAB0D120DECE9F515E51470037F
:102D7300022F8F751300800F8E828F83A3A3A3A3CB
:102D8300A3E0D2E3F00513E50C240BF582E50D1265
:102D93003124E513C3984003022F86E51470030220
:102DA3002F86E51375F006A4F8A9F0E50C28F8E5DD
:102DB3000D39F9E8240CFEE9126E32A3A3A3A3E0B4
:102DC300A2E040C1750E008E828F83E07043125BD8
:102DD300BC120CDE8A088B09A808A909E8496031EE
:102DE30088828983A3A3A3A3E06401600D888289F9
:102DF30083A3A3A3A3E0640370178E828F83A3A38B
:102E0300A3A3A3E0D2E7F0750E01E5157003022D2D
:102E130088750F00750808750900E5166003750FBE
:102E230020124A7AE060339003BCE064017017E536
:102E33000FD2E3F50F7509108E828F83124541126D
:102E4300434774FF8024430F0C75080C8E828F83D5
:102E5300A3122FA912682BA38010E5176009E50FB1
:102E6300D2E6F50F75080A122FC0F07402120B0395
:102E7300E50F1258DCC0E07404120B03D0E0F074C9
:102E830005120B0312422E120B03E06003022F61A3
:102E93007408120B03123BCE8E828F83A3A3A3A3CA
:102EA300F07408120B03123489F583E508F0A3E5E7
:102EB3000912488CE060119003BCE0C0E074081272
:102EC3000B03123482D0E0F0850C82850D83A3A31B
:102ED300A3E0C0E07408120B0312636FD0E0126327
:102EE300ABC0E07408120B03123494D0E0F0740802
:102EF300120B03122FA9A3A31263761258C6125BF7
:102F0300BBE82428F582E912542D1258D2C0E0E818
:102F1300242EF582E9122845D0E0F07408120B0341
:102F2300125BBD850A82850B83122F942424F582BC
:102F3300EB12455F126679E50B122F9D12087B1287
:102F43004627EA242BF582EB122845124D0C120872
:102F5300AD851882851983AA82AB831220108E82D5
:102F63008F83A3A3A3A3A3E0D2E0F0740C120B03FB
:102F7300E06003022D7BE50EA2E050021515151447
:102F8300022D887900AA0CAB0D122112740D026870
:102F930094A3A3A3A3125DDCEA22124CFD12589260
:102FA300751200781022125DDC850A82850B83A3DB
:102FB300A3A3A3228E828F83A3A3A3A3A3A31245B8
:102FC30046E8F0A3E92274F21203BA74EB12092B58
:102FD300EAFEEBFF89088E828F83A3A3A3A3A3A397
:102FE300A3A3E0F9120E108A0A8B0BEA450B607F4C
:102FF300E50870047C0480027C088E828F83A3A37F
:10300300A3A3A3A3A3A3E0F9120E1612283F124B06
:103013002C605C88828983125BB97406120B0312DD
:103023003077125BBD7408120B03123077A3A3E051
:10303300C0E07410120B03D0E01258E9125BBD74A8
:103043000E120B03124AF37411120B03E4125622ED
:10305300F9780A12087F742059FC744059F97402F4
:10306300120B03AA82AB8312211E74021208AD74E1
:10307300150235D8EAF0A3EB12307F221244B9A32C
:10308300A3A3A3A3A32274F71203BA74FA12092BFE
:10309300E9FE7F018F087D0080047508000D124250
:1030A30015123124EDC3985025ED75F006A4F8A947
:1030B300F0EA28F8EB39F9E8126674E91252755010
:1030C300D9540C60D5E0A2E250D37F0080CF8A822E
:1030D3008B83A3A3A3A3A3A3E0703EE508A2E040D0
:1030E3000574016E70338A828B83A3A3A3A3A3A366
:1030F3007401126228E0C0E07403120B03D0E012E3
:103103006220E0C0E07404120B03D0E0F0740512F7
:103113000B03EF1245101220AC740602420DF58228
:10312300EF125632F822C082C083790112211202B3
:1031330036A2C082C083EA4B60189003B8E06402F1
:103143007010900C74E4F0EAFCEBFD7A0212316A21
:103153008012900C747401F07A027B00900301E0FA
:10316300F91217AC0236A27B00900301E0F91217A3
:10317300A02274F21203BA74F312092BEAFEEBFFD6
:103183008E828F83A3A3A3A3A3A3A3A3A3A3E0F5E7
:103193000A900C74E0700579BA02347D75080175E4
:1031A3000900750C00750D007C087D0079008518F9
:1031B30082851983AA82AB831216807405120B03CE
:1031C30074011234A5540460127402120B03E0D28A
:1031D300E61234A554087003750803E05410600622
:1031E30074404508F508E0540860227402120B038A
:1031F300E044C01234A55420600A7403120B03E0A8
:10320300D2E080087403120B03E0D2E1F08E828FC8
:1032130083A3A3A3A3A3A3A3A3E070181210808581
:103223001882851983124AF37402120B03E0D2E267
:10323300F00232DC640F70157402120B03E0D2E368
:10324300124EE5124AD44508F5080232DC8E828F0D
:1032530083A3A3A3A3A3A3A3A3E064028E828F8368
:103263007005122FC180C9A3A3A3A3A3A3A3A3E0A3
:1032730064037013851882851983AC82AD83EEFADB
:10328300EFFB1220D680528E828F83A3A3A3A3A326
:10329300A3A3A3E0640170419003BCE0601C74022B
:1032A300120B03E0D2E3124ED385188285198312E1
:1032B3004562750910750AFF80187402120B03E04A
:1032C300440C12639874FDF0A374FFF07404450872
:1032D300F5088E828F8312705E12526F503A740219
:1032E300120B03E0540C701B8E828F83125BBD1292
:1032F3001AA0E9700579BB02347D7402120B03E056
:10330300D2E5F012526F50107402120B03E0540C0A
:1033130064047004E0D2E5F0EE2411127043C0E0BF
:103323007404120B03D0E0124230120B03E060036B
:103333000234767408120B0312348912349BEE2480
:1033430018127043C0E0E8126665E9122845D0E020
:10335300F0EE2419127043C0E07408120B03E0244A
:1033630013123B96D0E0124365640170119003BCC5
:10337300E0C0E07408120B03123482D0E0F074084A
:10338300120B031240602417FAEF12408FFCE8245B
:103393001CF582E9122845ECF0A3E4124F7EE0C04D
:1033A300E0E82422F582E9122845D0E0F0740812FF
:1033B3000B03123494E50AF07408120B03124075E0
:1033C3002424F582E9125B82A3E50D125BE0FCA3E2
:1033D300E0FDE82426F582E9122845ECF0A3ED127E
:1033E3003862124AAAE82428F582E9122845125DB8
:1033F300E0C0E0E8242FF582E9122845D0E0F0EEA2
:10340300241B127043C0E07408120B03126368D0CC
:10341300E0F0EE241A127043C0E07408120B03E0CC
:10342300242E123B96D0E0126390124E7012087B4A
:10343300EE2411124AA3740B120B03124D06120849
:10344300ADEE24151270435440601B900328124BB9
:103453002C6013851882851983AA82AB8390032974
:1034630012357C122165851882851983AA82AB8364
:10347300122010740C120B03E0F9740D0235D8E01E
:103483002415123BBC22124079240FF582E9340043
:1034930022E02423123BBC22F583E508F0A3E509CF
:1034A300F022F0EE241512562F2274F71203BA7E7F
:1034B300638A828B83E0600C7905120C00E9F8744F
:1034C30056C398FE900364E0600CF9120C00E9F80F
:1034D300EEC39824F2FEEEF902421074F61203BA18
:1034E30074FE12092B851882851983124AF3E9FEAB
:1034F300ECFAEDFB740C120B03E0FC9004AE124BE0
:103503002C60328518828519838582088583097822
:103513000812087F7D01EEF99004AE12357912216D
:103523006574021208AD8B09EA45096004790080CD
:103533000679B2800279B602370374F71203BAE947
:10354300FE7409120B03E0FF90030E124B2C601A5A
:10355300EFF5087808120883EEF990030E12357917
:1035630012216574011208AD800279B6024210EE91
:10357300FAEFFB900320E0F8A3123E1A22125DDC5F
:103583009003032274F21203BA8A088B09ECFEED4E
:10359300FF750A0190036CE065087004A3E06509F8
:1035A300700512495A802A1210868A0C8B0DE50881
:1035B300650C7004E509650D7009EEFAEFFB121056
:1035C3008C800EEEFCEFFDAA08AB09120C78E9F52E
:1035D3000AA90A80031208AD7F0602061B74F512BE
:1035E30003BAEAFEEBFF8C088D09750A01126AC85B
:1035F3001236B2700B90036C123E48124562800E75
:10360300AC08AD09EEFAEFFB120C7EE9F50AA90A44
:10361300025F5474F61203BAEAFEEBFF7A0C7B00E6
:10362300121716EA4B606BEE24201270438A828BCA
:1036330083F0EE2421123698F0EE2422123698A35A
:10364300F0EE2423123698A3A3124D3F1258AFE88D
:10365300F0A3E91256271258B0A3A3E8F0A3E91286
:10366300544D8A828B83A3A3A3A3A3A3A3A3F0EEA6
:10367300242F127043C0E0124215122845D0E012E5
:103683004AF98A828B83A3A3A3A3A3A3A3A3A3120D
:10369300456202370812562F8A828B83A322F0D009
:1036A30083D08202085FFAEF3400FB121E2A221233
:1036B300434C221236BCA3E0221236C0221236C477
:1036C30022124E1BA3A32212497FA3E02274F612F7
:1036D30003BAECFEEDFF79B3900363E0702090032F
:1036E30095E064017018EE126674EF126E46EE24D4
:1036F3000F12455CE84960047900800279A18005D6
:1037030074021208AD7F0202061B74F41203BA742A
:10371300FE12092BECFEEDFFEE2416127043640536
:103723007011EE2406FCEF3400FD1220DCE9700377
:103733000237B7851882851983AC82AD831265BAC7
:10374300123949124B2C6068E875F009A4F8AAF005
:1037530075F009E9A42AF974ED28F874F339F9E846
:10376300FAE9FBEE2412122842C082C0838A828BBC
:10377300837808120AA6D083D0827808120A76408A
:103783002B851882851983124060240F1228421258
:1037930037BE7808120AA69080AC78081209AA8A64
:1037A300828B837808120AC47900800A79A2800682
:1037B30079A1800279C87402022912E8F0A3E91200
:1037C30039DB2274F41203BA74FF12092BEAFEEBFD
:1037D300FF900363E07075900395E06401706D756D
:1037E300083A750900780812087F7402120B0385E2
:1037F3008208858309780812087F1238541208ADAD
:10380300E9703EEE12667BEF123E52124922C0E08F
:10381300EE2411122842D0E0123862743A1256375D
:10382300900330120AE0EE2412122842120AEC909E
:1038330080AC7808120AA690033078081209BD807C
:103843000BEE240FF582EF1241FEA3F0740102295F
:10385300127C017D007A007B00121260740422F056
:10386300EE240F124CFA2274F01203BA74F6120902
:103873002BECFEEDFF7402120B03AC82AD8312201E
:10388300DCE97003023944851882851983AC82AD63
:10389300837402120B03AA82AB83123949124B2C95
:1038A3007003023944E875F009A4F8AAF075F00929
:1038B300E9A42AF974E928F874F339F9880889091D
:1038C300EE240E123953124922F8A3E0F9EE240F25
:1038D300124E0C120AE0EE2412122842120AEC9045
:1038E30080AC780C120AA6850882850983780C12AD
:1038F30009BD8508828509837808120AA69080A8E5
:10390300780C120AA67808790C12034AE50C450DC7
:10391300450E450F702B85188285198312407575E6
:10392300F009A4F8AAF075F009E9A42AF974F128BA
:10393300F58274F339F5837401F07A007B10123940
:103943005B740A0239E6121AA68518828519832246
:10395300F582EF124CFDE422900527E0F91216CE12
:103963002274F01203BA8A088B09ECFEEDFFEE24F1
:103973000FF582EF1241FEA31239D7C082C08390A4
:1039830080C0780C120AA6D083D082780C120981E9
:1039930060321239CB70051220C4802AE070051200
:1039A30020BE8022640270131220BEE96018EEFC70
:1039B300EFFDAA08AB09121ACA800BE0640360DFAB
:1039C30079A1800279A3801EEE240EF582EF1256B0
:1039D300326401221239DB22F0EE2412F582EF1257
:1039E3004D01221208AD7F0802061B74F61203BABA
:1039F300EAFEEBFFEE240AF508EF1268268508823B
:103A0300124AA8EC240F1241FB124AC412209485D7
:103A13000882850983124B29706B123B9A7003A3AA
:103A2300E069600A123B7C7003A3E06970578E82E1
:103A33008F83A3A3A3A3A3A3A3A3A3A3124AAA8E7F
:103A4300828F83125BBD121AD0E960188E828F8336
:103A5300A3A3A3A3A3A3A3A3A3A3E0240F123B960F
:103A6300E4F0A3F08E828F831263608E828F83A330
:103A7300A3A3A3A3A3A3A3A3A37005123E428004FD
:103A8300123E20E4F0124B1B701A123DCD125BBDA7
:103A93001220B8850882850983124B2970061228E3
:103AA3003F74A1F002370874F61203BAEAFEEBFF83
:103AB300EE240A123DDC7A187B0012171685088261
:103AC300850983123BD3F8A3E0F9E8497003023B6D
:103AD30073EEFAEFFB122088124B1B607F123BC080
:103AE30064017007123BA7740E8034E06402700710
:103AF300123BA7740D80288E828F83A3A3A3A3A355
:103B0300A3124B2C70EA123B9A7003A3E06960E0A6
:103B1300123B7C7003A3E06960D6123BA7740512C5
:103B23004ACD540364017007123E007405800B9064
:103B33000364E0C0E0123E00D0E0F0EE240AF50892
:103B4300EF123B8D123E0E123CD3C0E085088285F6
:103B53000983E02417123B96D0E0801985088285FB
:103B630009831241BB850882850983E4F0A380059C
:103B730012283F7410F00237081210808A088B094C
:103B8300A808A90990061CE0682212682685088205
:103B9300F58322123BBC228E828F83125DDC90065A
:103BA3001CE068228E828F83A3A3A3A3A3A3A3A352
:103BB300A3A3E02416123BBC22123E2B228E828F3B
:103BC30083A3A3A3A3A3A3A3A3A3A3123E24E0229B
:103BD300EAF0A3EB123BDB22124E1BE02274F1123C
:103BE30003BA8A0A8B0B8C088D097A18125D33701D
:103BF30003023CC68E828F837401F0E508240DF81E
:103C0300E5091265C3C3E49AFA95E0FB12668012D4
:103C13005431FB8E828F83A3A3A3A312561E8E82DD
:103C23008F83A3A3F0EEFAEFFB120BAC850882851A
:103C3300098312636270098E828F83A374058006E1
:103C4300900364123CCEF0EE2417F8EF3400F988A9
:103C53000C890D8E828F83123CD2850C82850D8355
:103C6300F0EE2416F8EF3400F9E508240EFAE5091E
:103C73003400FB8882898312486EE50824100A0AFF
:103C8300E5093400FB850C82850D83E0FC8882897D
:103C930083E0F88A828B83E0C398C39C124F75F04C
:103CA300EEFCEFFDAA0AAB0B12208EE9F508700AB1
:103CB300EEFAEFFB120BB8E9F508EEFAEFFB121779
:103CC3001C8003750810A908026AEB12497822A325
:103CD300E0F9120C00E922790102085F74F412037F
:103CE300BAEAFEEBFF8E828F83A3A3A3A3A3A3A3AE
:103CF300A3125BC1126362706B123BC070668E824B
:103D03008F83A3A3A3A3A3A3A3A3E0242B123B9674
:103D1300123E3A704F8E828F83A3A3A3A3A3A3A3C0
:103D2300A3E0242BF888828983123E0EE0F8740105
:103D330068600A740668600574056870138E828F64
:103D430083A3A3A3A3A3A3A3A3A3A3123E4280136A
:103D53008E828F83A3A3A3A3A3A3A3A3A3A3123E90
:103D6300207403F0123DCD123579E4F0EE2408F807
:103D7300EF123DC9242D124088C0E0123DF4D0E07B
:103D8300125622242A124088C0E0123DF4A3D0E048
:103D9300125622240B123B96123E48123EE1124366
:103DA300588A0A8B0BAC0AAD0B850882850983E020
:103DB3002406125289123DE6125BBD120BB812287B
:103DC3003FE9F002291512449C22EE240A123DD445
:103DD30022123DDC8882F58322F8EF3400F988084B
:103DE300890922123DEA22121E2A85088285098347
:103DF30022850882850983123EE5A3A3228E828F42
:103E030083A3A3A3A3A3A3A3A3A3A3123E1222E06A
:103E1300F8123E19A322A3E0F583888222123E24DE
:103E230022E0240E123E2B22123E2F22F8A3E0346E
:103E330000F98882898322E0F81246EC6405221295
:103E43003E24740222125DDC8508828509832212D6
:103E53004CFD740122023CDAC082C08390031E74BD
:103E630082F0A37420F09003207476F0A37420F002
:103E73009003227470F0A37420F0900324747CF0F8
:103E8300A374200236A174F41203BAEAFEEBFF1204
:103E93003EEEF5081210808A0A8B0BA80AA90B8E36
:103EA300828F83123EE1E0687003A3E069602CE532
:103EB30008A2E550268E828F83A3E0FB90031E1297
:103EC30035791221658E828F83E0F8A3125047A3C0
:103ED300124B2C7006123EEEC2E5F0022915123E7B
:103EE300E522E0FAA3E0F5838A82228E828F831291
:103EF3003E12A3E02274F51203BA12404E1240752B
:103F03002420F582E9127046FE74035EF50A124816
:103F13005812284512406088828983F0A3A882A999
:103F230083E50A60097402650A6003023FBF740CEB
:103F33005EFF601574086F601074046F701D740267
:103F4300650A7005EEA2E4402D8A828B83A3A3A3A6
:103F5300A3A3A3A3A3E024231240B0740C6F701097
:103F63001240492424124098242412405B1240B387
:103F73007402650A7005EEA2E4404112404924260A
:103F83001240982426124065A31240C212406512C3
:103F930040C212405B1240B3EF600F74086F600AB7
:103FA300740C6F600574046F70128A828B83A3A3F1
:103FB300A3A3A3A3A3A3E024221240B08A828B83EA
:103FC300A3A3A3A3A3A3A3A312407E7005EEA2E120
:103FD30050178A828B83A3A3A3A3A3A3A3A3E02441
:103FE3002E12485F1240A9800E9003021240A9903E
:103FF3000302E0041244B9A3A882A983EEA2E75006
:104003004212404924211240651240B38C828D83B1
:1040130012407E602E8A828B83A3A3A3A3A3A3A3B0
:10402300A3E024301240B0EEA2E150178A828B83C2
:10403300A3A3A3A3A3A3A3A3E0243112408888824C
:104043008983F0025F5412404EE022EA2408FCEB1D
:104053003400FD8C828D8322124863A322125DDC1F
:10406300EE2212406922F508A3E03400850882F5A8
:10407300832212407922124EDEE822E024211248E4
:1040830063E0540322FAA3E012408F223400FB8A38
:10409300828B83E0221240691240A9A3A882A983DC
:1040A3008C828D83E022E088828983F02212486328
:1040B3001240B722E088828983F0A308A9832212E1
:1040C30040B78C828D83E0242822C082C0838A82F9
:1040D3008B83123EF2F8740358F98A828B83A3A36D
:1040E3007401F0E960057402697061740C58FC6036
:1040F3001474086C600F74046C7013740269700597
:10410300E8A2E4401D8A828B83A3A37402F0740C9B
:104113006C700A8A828B83A3A3E02402F074026981
:104123007005E8A2E440258A828B83A3A3E02404DC
:10413300F0EC600F74086C600A740C6C6005740416
:104143006C70098A828B83A3A3E004F0E8A2E75092
:10415300318A828B83A3A3E004125DE4F9A3E0F523
:10416300838982A3A3A3E0540360178A828B83A36A
:10417300A3E004F0E8A2E150098A828B83A3A3E0C1
:1041830004F08A828B83A3A3E0040236A1C082C019
:10419300838A828B83A3A3A3A3A3A3A3A3A3A3120F
:1041A3004B2C60098A828B83A3A31241B30236A2EC
:1041B300A3A3A3A3A3A3A3A312528312171C227422
:1041C300F71203BAEAFEEBFF125DD488828983A358
:1041D300A3A3A3A3A3A3A3E4F0A312307FA3A3A346
:1041E300A3F0A3F0E8125B64E91241FE122058EE3B
:1041F300FAEFFB1220648015F582ED124CFDE4F01A
:1042030022740C120B03E0F9740D1208AD7F010246
:10421300061BEA240BF582EB221264DC240922122A
:104223004CFD127062750E00780C22740112451455
:104233001242CE2274F51203BA74F312092BEAFE6A
:10424300EBFF7C087D007900851882851983AA829B
:10425300AB83121680122FB712489BC0E07404126E
:104263000B03D0E0F07402120B037401124365C018
:10427300E07405120B03D0E01248A16401700974C5
:1042830002120B03E0D2E5F01242C4120B03E070FA
:104293002D8E828F83124E8612087B8E828F83A38C
:1042A300A3A3A3124632740B120B03124D0612087A
:1042B300AD851882851983AA82AB83122010025F11
:1042C30048851882851983AA82AB83122016740C41
:1042D3002274F71203BA74FE12092BECFEEDFF757C
:1042E30008C8851882851983AC82AD831220D6E96C
:1042F300640170498518828519831250541243470B
:10430300A3A3E4F0900632E0601B8E828F83A3A305
:10431300123E3A70108E828F83A3A3A3A3A3A3A3F9
:10432300A37401800D8E828F83A3A3A3A3A3A3A34E
:10433300A3E4F0EEFAEFFB122046E9F508A90874AE
:104343000202420D12494CA322121E24E9640122E7
:10435300124E13E022A3A3A3A3E8F0A3E9F01210E3
:104363007A2212545AA3E02274F61203BA74F41296
:10437300092BEAFEEBFF122FB7124492FAA3E0F5E2
:10438300838A82A3E0FA7402120B03EA12562224F0
:10439300021249297404120B03124562EA600A747B
:1043A30002120B03E06404701C12448612528974D7
:1043B30006120B0312448C1249297408120B03E8EA
:1043C300F0A3E98056E06401600AE064066005E05A
:1043D30064057023124486124088C0E07403120BF4
:1043E30003D0E012562224131252897406120B03CF
:1043F30012561E241B80C07406120B03E4F0A31292
:10440300449224121252897408120B0312448C1220
:1044130064D8C0E0740A120B03D0E0F07406120BE8
:1044230003124B2C60287406120B03125BBD120C93
:104433006CE96401701812107A8A088B09AC08AD14
:10444300097406120B03125BBD1236B2700F851886
:1044530082851983AA82AB831220A08021851882CA
:10446300851983AA82AB83121AACE96401700FEE3B
:10447300FCEFFD7406120B03125BBD122040740C9B
:104483000237051244972412221244B0241A22F050
:1044930012449722EE2402F8EF1244A1E0223400E2
:1044A300F988828983221244B0F8A3E022EAF0A3B8
:1044B300EB1244B9E022F08882898322C082C08350
:1044C30074FC12092B1245381245628A828B83A32E
:1044D300A3E01249277402120B0312450C12209A0F
:1044E300740480001208AD0236A2C082C08374FD3A
:1044F30012092B124520C0E07402120B03D0E01204
:1045030045101215EA740380DBE8F0A3E9124514A1
:1045130022F0851882851983AA82AB83228A828B33
:1045230083A3A3A3A3A3A31249198A828B83A3A35F
:10453300123E12E0228A828B83A3A3A3A3A3A31216
:1045430045462212454A22E0F8A3E0F98518828500
:10455300198322125DDCEE240BF582EF124CFD125F
:10456300491C22AA82AB8312167474032212491CBB
:104573009003302274F41203BA74FB12092BEAFE7F
:10458300EBFF8E828F83A3A31240752409F508E9FC
:104593001268267403120B03AC82AD83888289836D
:1045A300A3AA82AB831220D6E96401706A851882BC
:1045B300851983743212489B24F7C0E07401120BEF
:1045C30003D0E0F07402120B03E4124510120D3E07
:1045D3008A0A8B0BAE0AAF0BEE4F603B7403120BD0
:1045E3000312461FA3A3124353C0E0EE2420122854
:1045F30042D0E0F0750A00780812087BEE126E2DA7
:10460300EF12462FEE240B122842124D0C1208AD66
:10461300EEFAEFFB120D387405022912125DDC8EDF
:10462300828F8322E50A2410F582E50B124CFDE00C
:10463300FC7D0022C082C083124663600E24FE60AC
:104643000F24FE601024FB6011801212203A800DAB
:10465300122034800812202E80031220280236A252
:104663008A828B83A3A3E0F81246EC24FB22C08248
:10467300C0838A828B83A3A3A3A3A3A3A3A3E07072
:10468300528A828B83A3A3E0F81246E86401604355
:104693001246E26402603C1246E26403603512464D
:1046A300E26404602E8A828B83A3A3123E3C6023C0
:1046B3001246E2640A601C1246E2640B601512465D
:1046C300E2640C600E1246E2640D60077904121E68
:1046D3001280099003261235791221650236A28AC7
:1046E300828B83A3A31246EC22123E19E02274F6B6
:1046F3001203BA74FA12092BEAFEEBFF7403120BCE
:1047030003EEF0A3EFF07403120B03AA82AB831240
:10471300204C127040600302485385188285198328
:104723007432F07405120B03C082C0838E828F83B0
:10473300A3A3A3A3E0D083D082F8E028C0E0740150
:10474300120B03D0E01248A1C0E07402120B03D095
:10475300E0124886F8A3E0F9E8496026E82417F553
:1047630082E9122845C082C083E82416F582E91243
:104773007046D083D082F8E028F87401120B03E06E
:1047830028F0851882851983AA82AB83120D3E8A8D
:10479300088B09A808A909E84970030248468E82D4
:1047A3008F83125BBD88828983A3A3EAF0A3EB12F4
:1047B300488CA3A3E0C0E0E82420F582E912284551
:1047C300D0E01263ABC0E0E82421F582E91228456A
:1047D300D0E012489BC0E0E8242AF582E91228457C
:1047E300D0E0F07405120B03E0FA12485812704639
:1047F3002A125289E8242B124AED7405120B03E0A6
:10480300C0E0E8242DF582E9122845D0E01248865D
:10481300FAA3E0FBEA4B6019E8242BFAE912290812
:10482300A3A3A3A3A3A3A3A3E0241612485F124840
:104833006E8E828F83A3A3A3A3A3A3A3A3E8F0A352
:10484300E9800CEEFAEFFB12205212283F7410F0AD
:104853007406023705E8240BF582E9221248632225
:10486300FCA3E03400FD8C828D8322E0FC8A828BE2
:1048730083E02CFCA3E03400FD8A828B83ECF0A35D
:10488300EDF022124F82A3E022F0E8126665E912EE
:104893004CFD7401124EE522124F79A3E022124916
:1048A30036E02274F71203BAEAFEEBFF127040708F
:1048B3001E1248DC124B2C6006123572122165124F
:1048C3007040700B125BB1120D3812283FE9F0EE05
:1048D300FAEFFB12205202421012205E8E828F8367
:1048E300A3A3A3A3A3A3A3A3A3A32274F61203BA0C
:1048F300EAFEEBFF8C088D09121AA0E97004790116
:104903008011AC08AD09EEFAEFFB90032412357960
:1049130012216502370812454AE8F0A3E9F0221292
:10492300639CE0222401F8A3E03400F92212493603
:10493300A3E02212493A2212493E22124EE9A3A3CE
:10494300A3A3A32212494CE022E8F0A3E91249549D
:1049530022124EE9A3A322126ACC121E2A22124A61
:10496300AEEEFAEFFB22E0242B123E2FE0221236AA
:10497300BC12497822E08E828F83A322124D53A367
:10498300A3A3A32274F61203BA74F312092B124AD7
:1049930076124AD4120B03740CF07405120B0374D1
:1049A3000112545560097402120B037421800774B9
:1049B30002120B037401124230120B03E0703274C3
:1049C30008120B03124A1E740612489B124A92EEF7
:1049D3002402F8EF1244A1124A09126239124A0959
:1049E300A3124930C0E0124A00122845D0E01263F6
:1049F300A4740C120B03E0F9740D023705E50824C7
:104A03000BF582E50922124A14A3A3A3A3A3A3A32C
:104A130022E0850882850983A3A322124ABC880861
:104A230089098882F5832274F71203BA74F3120991
:104A33002B124A76124AD4120B037409F074021231
:104A43000B037421F07405120B0312422E120B0395
:104A5300E0701D7408120B03124AB47407124ACD96
:104A6300124A92851882851983AA82AB8312201079
:104A7300024204EAFEEBFF7C087D00790085188280
:104A8300851983AA82AB831216808E828F8322FCC0
:104A9300A3E0FD88828983A3AA82AB83121E2A2204
:104AA300F582EF3400F583124AAE22E0FCA3E0FD69
:104AB30022124ABC8882898322124969F8A3E0F949
:104AC30022124EE4125283227401124EE5A3A3E094
:104AD30022124919740422121680850882850983DB
:104AE300A322E0F508A3E0F50922F582E9124CFDC3
:104AF300EAF0A3EBF022124AFD22124954124EDED1
:104B030022C082C083124B147422F0A37420023695
:104B1300A112206A900326228E828F83A3A3A3A3CC
:104B2300A3A3A3A3A3A312563C124079492274F76B
:104B33001203BAE9FE124B5E122845124B2C601881
:104B430088828983A3E05403700EEEFB1248581247
:104B53002845124B8F124B89024210EA125B64EB19
:104B630022C082C083EAF8EBF988828983A3A3A3D6
:104B7300A3A3E0FB88828983A3A3A3A3124B8FA3E0
:104B8300124B890236A2E0F91215A822E0FA8882B4
:104B93008983A3A32274E81203BA8A088B098C16AB
:104BA3008D178914741A120B03E0F50AA3E0F50BB1
:104BB300741C120B03E0F513741D120B03780C1213
:104BC3000AA61261E9EB127046242DFA7B00121635
:104BD300928A108B11AE10AF11EE4F7003024CDAB4
:104BE3008E828F837401F085081085091175120078
:104BF300781012087B7C157D00EE2418124CE41209
:104C030008AD851610851711781012087B7C097D75
:104C130000EE2402124CE41208AD7418120B0312B6
:104C23004556850A82850B83E0C0E0EE240F1228E7
:104C330042D0E0124D1AC0E0EE2411122842D0E017
:104C4300124D15C0E0EE2410122842D0E01239D7DD
:104C5300E513124D3FE4F0A3F0124CF3780C120A63
:104C6300C4EE2417122842E5141236CAF8A3E0F959
:104C7300EE240D122842124D391268481270466014
:104C830025EE2426125267242DF8124D3112668226
:104C930012422212087B12684612462F8A828B83A5
:104CA300124D0C1208ADEE24191270435403601D0B
:104CB30090031C124B2C600CEEFAEFFB12357C12A6
:104CC30021658013EEFAEFFB121698800AEEFAEFD5
:104CD300FB900301124ECD0268977C087D00EE2401
:104CE30004FAEF124CEA223400FB12167474032206
:104CF300EE2413124CFA22F582EF124D01223400F6
:104D0300F58322E0242B123BBC12528312167474D7
:104D13000322124D28E022124D1FE022124D2322BE
:104D2300124D28A322F0850A82850B83A322EF3438
:104D330000F98A828B8312491CE50822F0EE2426AF
:104D4300124CFA22F50CA3E0F50D750E00780C2237
:104D53001236C4A3A3A32274F11203BA8A088B09DF
:104D63007A20124E60606F8E828F837406124E7C9F
:104D73008E828F83A3A3A3A31236B68E828F831250
:104D83004DE6124D4712087B7C107D00EE2406127F
:104D93004CE41208AD850882850983A3A3A3124DB1
:104DA300DC2416FAEF3400FB120C668508828509B1
:104DB30083A3A3A3A3A3A3A3A3A3A3E0C0E0EE247D
:104DC3001E122842D0E0124DF6C0E0EE241F122836
:104DD30042D0E0124DFE026AEBA3A3A3A3A3124A9F
:104DE300AEEE22A3A3A3A3A3124DEF221236C0A3B8
:104DF300A3E022F0124A0012563222F0EEFAEFFB41
:104E0300900527E0F912169E22124CFA124E132235
:104E1300E8F0A3E9124E1B22F0850882850983225C
:104E2300124E2722123BDBF8A3E0F98E828F83A375
:104E3300A32274F41203BA8A088B097A0C124E6007
:104E430060188E828F837408124E7C124E70120883
:104E53007B124CDD1208AD124EC60229157B0012DF
:104E630016928A0A8B0BAE0AAF0BEE4F22F508A3FC
:104E7300E0F509750A00780822124E27124E13A393
:104E8300A3E022A3A3124AE5750A0078082274F668
:104E93001203BAEAFEEBFF7A057B00121692EA4B85
:104EA300601E8A828B83740A124ED38A828B83A3F9
:104EB300A31249478A828B83A3A3A3A3F0124ECAEA
:104EC300023708EEFAEFFB900527E0F912169E224F
:104ED300124ED722124EE9124EDE22E0F8A3E0F979
:104EE30022A3124EE922F08E828F8322C082C083D6
:104EF300E9900C76F0900318742EF0A3740BF090E5
:104F0300031A7440F0A3740BF090031C7452F0A3C3
:104F1300740B0236A174F71203BAEAFEEBFF890899
:104F2300EE4F7003121B3090032A124B2C70089023
:104F3300032A8022125DD888828983A3A3A3A3A313
:104F4300A3A3A3A3124F6F88828983A3A3A3A3A3BD
:104F5300A3A3A3A370DEEEF0A3EF124F7EE4F0A3AE
:104F6300124F75A3A3A3E508F0024210125283EA7D
:104F73004B22124F7922124954A322124F8222123A
:104F8300545EA3A32274F71203BA90032A800D8EF2
:104F9300828F83A3A3A3A3A3A3A3A3A3126510EE4A
:104FA3004F60348E828F83A3A3A3A3A3A3A3E0693B
:104FB30070DD8E828F83A3A3A3A3E06A7003A3E0B3
:104FC3006B70CC8E828F83A3A3A3A3A3A3E06C7087
:104FD300BEEEFAEFFB80047A007B0002421074F706
:104FE3001203BA90032A12651090032A122F9868AD
:104FF3007002EB697017125047125DD890032A12A2
:10500300456290032A1265108030126503EE4F60EB
:10501300298E828F83A3A3A3A3A3122F9468700264
:10502300EB6970E68A828B83A3A3A3A3A3A3A3A3A1
:10503300A3125054A3A3A312456212171CEEFAEF56
:10504300FB024210123E1AA3A3A3A3A3A3A3A3A3E9
:105053002212529EA3A32274F01203BA74FA120905
:105063002B8A088B098A828B83A3A3A3A3A3A3A35D
:10507300A3E0600D640160098A828B8312527B6016
:10508300057902025262850882850983A3A3A3A33B
:10509300A3A3A3A3E0640370157404120B03AC82EF
:1050A300AD83AA08AB091220D6E9701380D3850813
:1050B30082850983125DD87404120B0312456212B0
:1050C300666A12704624321252891217168A0A8BA4
:1050D3000BAE0AAF0BEE4F70030252607C327D00C1
:1050E30079001216807402120B03AA82AB8385081F
:1050F30082850983A3A3A3A3A3A3A3A3A3E0F91274
:1051030020EE7402120B03E0C0E0EE242D122842BD
:10511300D0E0F0EE242CF50AEF3400F50B74031203
:105123000B03E0850A82850B83F07901EEFAEFFB2E
:10513300120B1C85080C85090D750E00780C1208DE
:105143007B7C1C7D00EE240B124CE41208ADEE2494
:105153003012526724320808124D312411F8E50940
:1051630012703BFCE9FD8C828D83124060242E1269
:105173002842124D3912560012684F12087B8C8256
:105183008D83124AAA8A828B83124D0C1208AD7446
:1051930004120B0312529A124562900302125290A8
:1051A300F0900302E004125643242A125B71750D3A
:1051B30000850A82850B83E0780C120A1C8A828B95
:1051C30083E50CF0EE2429122842E50C126398E4DF
:1051D300F0E5082415F582E50912527574015007AC
:1051E300120B0374018004120B03E4F0EE24271264
:1051F3003DDC851882851983AA82AB831215D2E917
:1052030024FE850882850983F0F508750900EE24DC
:105213002E124AA3ECF8EDF9AA08AB09120271E8C1
:105223008E828F83A3A3A3A3A3A3A3A3F0ECF8ED80
:10523300F9AA08AB091202718B09EA4509600F8EBE
:10524300828F83A3A3A3A3A3A3A3A3E004F0EE24C9
:10525300201270434408125BE879008002791074CD
:10526300060239E6127039FAE9FBEE22EE2415F54F
:1052730082EF125632A2E02212528312111CE9224B
:10528300E0FAA3E0FB22FAA3E03400FB2212497800
:10529300A3A3A3A3A3A32212529E22124EDE8E82A5
:1052A3008F83A3A3A3A32274F41203BAEAFEEBFF32
:1052B300125B69124AF3900CC3E0F8EE242B1270D0
:1052C30043C398400302541F125B897015EE242BCD
:1052D3001270430412544DC0E0EE2429122842D028
:1052E300E0F0EE2428127043FC7900800109EE24DB
:1052F3002C123121E9C3985026750801750900E97C
:105303007808120A1C125B89550860E1E92CFC75C8
:105313000801750900E97808120A1CE04508F0EE57
:10532300242712543AEE242E122842EC8A088AF0DB
:10533300A4F8ABF0E42BF9E098F8A3E099F9C3E8FB
:105343009508E99400EE40392427123121125B8934
:105353006037EE242D122842125447A3E4F0EC7078
:1053630054EE24201270434420124365C0E0EE241F
:1053730026122842D0E0F0EE243012543AA3E08003
:1053830059242912284274FFF090035CE0FA900C30
:10539300C6E0F508EA8508F0A4ABF075F064A4FA5A
:1053A300ADF075F064EBA42DFB8E828F83A3A3EA8B
:1053B300F0A3EB80A8EE242012704354DF124D3F7C
:1053C300ECF08C08EE24271270438508F0A4FAABA6
:1053D300F0EE2430F582EF125431FBEE241EF582F9
:1053E300EF12542D125455C0E0EE2425122842D05A
:1053F300E0F0EE241C122842E812563790032C12D8
:105403004B2C600BECF912357C122165E97018EE18
:10541300240BFAEF3400FB122100800B7BE9EE240E
:1054230022F582EF12560A022915126383221256BD
:10543300322AFAA3E03B2212543E22F582EF124DA8
:1054430001E0FA22124978A3F022F0EE242A125640
:105453002F2212545AE02212545E2212493EA3A371
:105463002274F41203BA90032A1265101217BE8A2B
:105473000A8B0B7CFF7DFF8020E0C398FAA3E099A1
:10548300FBC3EA9CEB9D500E8E828F83A3A3E0C3E4
:1054930098FCA3E099FD126503EE4F6059125DD4A9
:1054A300E50AC398F8E50B99F98E828F83125BBBEB
:1054B300C3E89AE99B8E828F83A3A340BCA3A3A3D3
:1054C300A3E06402701DEE240B125B8C600CEE24CF
:1054D30010122842125BBD121698EEFAEFFB120B64
:1054E300288007EEFAEFFB120B347A017B00900C55
:1054F3007612395E801474FF6C700374FF6D600A5A
:105503007A017B00900C7612316F02291574F01228
:1055130003BA8A088B09ECFAEDFB890A7C0112664F
:105523006A125B7B8A0C8B0DAE0CAF0DEE4F7003D2
:105533000255FDE50A60030255FDE508125600E039
:10554300F8EE24281270436860030255FDEE242C04
:1055530012543AE82AF8E43400F98E828F83A3A325
:10556300A3A3A3A3A3A3E0FAE89AE99400C365D095
:1055730033401412589A125B8F700C7B00126663CF
:10558300E50912560A807312589A125B8F7031EE36
:10559300242C127043F9EE24291228427508FF7552
:1055A3000900E97808120A1CE508F0EE242A1228FB
:1055B30042E50812562729F0EE242B123953802294
:1055C300E5082414F8E5093400F9E0C0E0EE242AE4
:1055D300122842D0E0125622C0E0EE2429122842BB
:1055E300D0E0125643242D122842123CCEA3125669
:1055F300377A01FB900C7612395E0239E92413F5F0
:1056030082E509124CFD22125441EE2414124CFA85
:10561300124B89EEFAEFFB120B2822EAF0A3EB12EE
:1056230044B9E022F0EE242812562F22F582EF121D
:105633004D01E022F0A3E4F022E0240F123E2B22DE
:10564300F01217BE8E828F83EAF0A3EBF0EE227482
:10565300E81203BA74FD12092BE9851882851983B0
:10566300F08A0A8B0B8C168D17741B120B031258BE
:1056730092741D120B03780C120AA68A828B83A3E1
:10568300A3E0F91215C68A128B13EA451370077A41
:10569300007B0002588D7A127B001217168A088B42
:1056A30009AE08AF09EE4F70030258897C127D00E2
:1056B30079001216807401120B03AA82AB83850A48
:1056C30082850B83A3A3E0F91220EEEE240FF508E5
:1056D300EF1268267402120B03E0850882850983A2
:1056E300F07902EEFAEFFB120B1C85168285178305
:1056F30012529AE8F0A3E91258D28E828F83A3A3A1
:10570300A3A3A3A3A3F07514FF75150085088285D1
:105713000983E07814120A1C12283FE514F085125D
:1057230082851383A3E0F81246E8C0E0EE240B124F
:105733002842D0E01258DCF508EE240D122842E589
:1057430008F0125B94E08508F0A42424FAE5F03411
:1057530000FB1216928A088B09EE1261EAEF124AD5
:10576300F0EA4509700302587E8A828B83741A1209
:1057730056378A828B83A3A3F0A31258C61258AF5D
:10578300124562AC16AD17EA2406FAEB3400FB129D
:1057930015E4850A82850B83A3A3A3E0C0E0E50893
:1057A300240FF582E509122845D0E0F09003791221
:1057B3005DD8E50824101258A31258E9A3125DD846
:1057C300E50824121258A3124D1AC0E012589A1277
:1057D3002845D0E0F0E50A125B64E50B127046C081
:1057E300E0E5082415F582E509122845D0E01258B2
:1057F300BDC0E0E5082416F582E509122845D0E08E
:10580300127452E0C0E0E5082417F582E509122876
:1058130045D0E0127452A3E0C0E0E5082418F582F5
:10582300E509122845D0E0124922C0E0E508241911
:10583300F582E509122845D0E0F0E508241AF5823F
:10584300E509122845780C120AC4E5082424F8E572
:10585300093400F9E5082422F582E50912455FE5DC
:105863000A126665E50B127046C0E0E508241FF5D1
:1058730082E509122845D0E0F0800BEEFAEFFB1227
:105883000B287E007F00EEFAEFFB7403026894E0BE
:10589300F510A3E0F51122E5082414F582E50922A9
:1058A300F582E509124CFDE8F0A3E922E0F8A3E054
:1058B300F98A828B83A3A3A3A322F0851082851187
:1058C30083E0221258CA22124D23A3A3A3A322F0DA
:1058D300126672E50B12563222F0E50A2410F582A5
:1058E300E50B125632221258CAA3A3A32274E8125C
:1058F30003BA8A0A8B0B8C108D1189147418120B3E
:1059030003E0F516A3E0F517741A120B03780C12D3
:105913000AA6750900EA2413F582EB127046F5080E
:1059230090032C124B2C6011A90890032C1235798B
:10593300122165E96003025B617C02851082851197
:1059430083125BBD126672E50B125B7B8A128B13AB
:10595300AE12AF13EE4F704B850A82850B83A3E023
:10596300A2E04003025B61780C12087778161208F4
:105973007FA914AC10AD11AA0AAB0B120B46740627
:105983001208AD8A0C8B0DAE0CAF0DEE4F700302F7
:105993005B618E828F83A3A3A3A3A3A3A3A3E50821
:1059A300125BE885080C8E828F83A3A3A3A3A3A312
:1059B300A3A3E024FFF8E434FFF9E8650C7001E9E0
:1059C3007003750901EE240B125B8C7003025B14E8
:1059D300850A82850B83A3E0A2E0500375080012B9
:1059E3005BC8E50C98E499C365D033401EE0F8EE3C
:1059F300240E12704328F0750CFF750D00E8780C27
:105A0300120A1CEE125B64EF125B82126679E50BDD
:105A130012422212087B12462785080CEE240D122F
:105A23007043850CF0A4F8A9F0EE241012704324FF
:105A33002212408828FAA3E039FB12456A1208AD06
:105A4300750C01125BA0780C120A1C127040450CF5
:105A5300F0E509A2E05069EE240C125B71125BA021
:105A630004780C120A1C8A828B83E0450C125BE0DB
:105A730085080C850CF0A4F8E50A1261EAE50B121F
:105A83007046FCE82CFCE5F03400FDEE24101228EF
:105A930042125BC1125DE0F47026EE240BF50CEFAD
:105AA3003400F50DEE2410122842125BBD850C82E2
:105AB300850D83124ECD850C82850D8374FF805036
:105AC300125B69124AF390035CE0FA900CC6E0F5AE
:105AD3000CEA850CF0A4FAABF0F8EBF9900CC3E0F8
:105AE300F50CE8850CF0A4F8ACF0850CF0E9A42CD7
:105AF300F9EA28F8EB39F9E875F064A4F8AAF07527
:105B0300F064E9A42AF98E828F83A3A3E8F0A3E9C2
:105B1300F0125BC81264FAE8650C7001E9600EEEDE
:105B2300240C125B8C6006E509A2E05031EE240ED2
:105B3300127043C0E0125B94D0E0F0127040C0E0FA
