:020000040000FA
:06000000020ACE020238E4
:03002B0002093295
:0300530002015E49
:03006B0002055F2C
:100083000201C50101FF01010503010F10FEFF0E6F
:10009300150E150E150E15C413BE130E15312300C0
:1000A3000000005724000000000C0000000C0001B9
:1000B300FFFF0101010027050000009E05B80102B2
:1000C30002000800000502070401051E02051E02C6
:1000D3000A0A03B80B02803E010201FFFF010A0175
:1000E3001401E096511800020206FF010900EF58BF
:1000F3000C330D0006B21FB81FBE1FC41F00000043
:1001030000000000000000000000000000000000EC
:10011300000000B21FB81FBE1FCA1F00000000006E
:1001230000000000000000000000000000000000CC
:1001330000102020202020202020202020202020EC
:1001430020200110040100010005758001DC8011ED
:10015300040100010005758001DC80C0E074F11228
:100163000450A2AFE433FED2AFE5A7FFE5A1F50843
:100173005FF509741055096006121C1C75A1EF7414
:100183000855096008121C2275A1F7802BEFA2E025
:10019300C0D0E508A2E092F0120A54158182F05013
:1001A30017906198E0F890066AE0C398A2D265D0F0
:1001B300335002E8F075A1FEEEA2E092AF7F020297
:1001C30004AFC0E074F2120450A2AFE433FED2AF26
:1001D3009061A4E0F8759B00E59158540860087598
:1001E30091F7121C64802AE59158541060087591A8
:1001F300EF121C6A801BE8A2E0C0D0E591A2E09256
:10020300F0120A54158182F05007E0C2E0F0121D8B
:10021300A29061A3E0F8E5E9585404600E121D783A
:1002230075E9FB906193E0A2E640F2EEA2E092AFA3
:100233007F010204AFC0E074F2120450A2AFE433B2
:10024300FED2AF9061A5E0F8E5BF5854046006758F
:10025300BFFB121DB480D4C3E498F8E499F91202E9
:100263009B8026C3E49AFAE49BFBE920E7E91202A8
:100273009BE498F8E499F922C3E498F8E499F91215
:10028300029BE498F8E499F9C3E49AFAE49BFB220D
:10029300EB20E7CFE920E7E0B90010BB0008E88ACC
:1002A300F084F8AAF022E4FBC8FA22EB70227B1058
:1002B300C833C8C933C9335007C39AC3DBF28006B6
:1002C3009A50012ADBEAC833F4C8C933F4C9FA22C5
:1002D30075F008E4C833C8C933C933C99AC99B50F8
:1002E30004C92AC93BD5F0ECFBC833F4C8E4C9FA06
:1002F30022080808EAC0E0EBC0E086F0E7A4FA1899
:100303000986F0E7A42AFA180986F0E7A42AFA185E
:100313000986F0E7A42AFA1986F0E7A4FBE5F02A98
:10032300FA190886F0E7A42BFBE5F03AFA190886D8
:10033300F0E7A42BFBE5F03AFA18180986F0E7A4D6
:10034300C5F02BFBE43AFA1908E7C5F0C6A426F674
:10035300E5F03BFBE43AFA1886F0E7A4F6E5F0088B
:1003630026F6E43B08F6E43A08F6D0E0FBD0E0FAE0
:1003730022E4CFC0E0E4CEC0E0E4CDC0E0E4CCC0F2
:10038300E075F020C3E633F608E633F608E633F605
:1003930008E633F6181818EC33FCED33FDEE33FEA4
:1003A300EF33FFC3EC9709ED9709EE9709EF971920
:1003B3001919400FFFEC97FC09ED97FD09EE97FE25
:1003C300191906D5F0BEECF709EDF709EEF709EFB9
:1003D300F7191919D0E0FCD0E0FDD0E0FED0E0FF22
:1003E300222518C582C0E0E51934FFC583C0E0E5C6
:1003F30018C3958224F810AF088583198582188065
:1004030008858319858218D2AFCEF0A3E520F0A327
:100413007808E608F0A3DEFAEFF0A3E58124FAF802
:10042300E608F0A3E608F0A3E608F0A30808E60848
:10043300F0A3E608F0A315811581D0E0FED0E0F823
:10044300158115811581E8C0E0EEC0E022C0D025FA
:1004530018C582C0E0E51934FFC583C0E0E518C3C1
:10046300958224F310AF0885831985821880088547
:100473008319858218D2AFC8F0A3E9F0A3EAF0A3E9
:10048300EBF0A37908E709F0A3D8FAECF0A3EDF0B9
:10049300A3EEF0A3EFF0A3D0E0F0A3D0E0F0A3D05D
:1004A300E0F0A3E520F0A3E5F0F0A322851983850E
:1004B3001882E0C0E0A3E0F9A3E0FAA3E0FBA3788D
:1004C30008E0F608A3DFFAE0FCA3E0FDA3E0FEA347
:1004D300E0FFA3E0C0E0A3E0C0E0A3E0F5D0A3E029
:1004E300F520A3E0A3F5F010AF08858319858218E2
:1004F3008008858319858218D2AFD082D083D0E05B
:10050300F8D0E032120B30B90003020549E490033E
:10051300017873790A8002F0A3D8FCD9FA900C739E
:10052300AA82AB8390008678D979018015E493A3DE
:10053300AC82AD838A828B83F0A3AA82AB838C8245
:100543008D83D8E9D9E77582697583B47404120879
:10055300917582987583217400120891C0E074F23A
:10056300120450A2AFE433FED2AF900C56E4F0E590
:1005730089A2E4500653ABEF7401F0E589A2E5507C
:100583000753ABDFE0D2E1F0E06016900C57E004D4
:10059300F07C147D007A107B00900C58E0F9121760
:1005A300D8758900C2C5EEA2E092AF7F010204AF05
:1005B3000A75F0108E1A8F1B85821F85831E85187E
:1005C30082851983E0CEA3E0CF851F82851E83EB4E
:1005D300C9EAC8EDCBECCAC3E833C8E933C9EA3387
:1005E300CAEB33CBC3EA9EF51DEB9FF51CB3500456
:1005F300AB1CAA1DEC33CCED33CDD5F0DAAE1AAF7C
:100603001B22D083D082ECC0E0EDC0E0E493A3FCD6
:10061300E493A3FDED4C600D1206DDEC24FFFCED2D
:1006230034FFFD80EFE493A3FCE493A3FDED4C6062
:100633000D12077AEC24FFFCED34FFFD80EFD0E0D0
:10064300FDD0E0FCE493A3C0E0E493C0E022D083B8
:10065300D082E9C0E0E493A3C386F0C5F095F0F936
:1006630008E493A386F0C5F095F0700BE493A3C35D
:10067300994005E9048002A3E475F002A42582F5FC
:1006830082E5F03583F583D0E0F9E493A3C0E0E499
:1006930093C0E022851983851882E0A3FEE0A3F5C9
:1006A300207808E0A3F608DFFAE0A3FFE0A3C0E0A8
:1006B300E0A3C0E0E0A3C0E0E0A3C0E0E0A3C0E0AB
:1006C30010AF088582188583198008858218858371
:1006D30019D2AFD083D082020897C0E0C3E49396C7
:1006E300087401939618400FE49366700808740128
:1006F30093661870007019A3A3C3E493960874015A
:10070300939618A3A3400DD0E0D0E0D0E0020641B9
:10071300A3A3A3A3A3A3D0E0227404800474028040
:1007230000CCC0E0EDC0E0E518C39CCCAD1950018E
:100733001D10AF068C188D1980068C188D19D2AF39
:10074300120813D0E0FDD0E0FC2274028000CCC07C
:10075300E0EDC0E0E518C39CCCAD1950011D10AF0E
:10076300068C188D1980068C188D19D2AF1207F1DB
:10077300D0E0FDD0E0FC22C0E0C0F088F0E4936656
:1007830070080874019366187000A8F0A3A3700B97
:10079300D0F0D0E0D0E0D0E0020641A3A3D0F0D067
:1007A300E022D083D082CCC0E0E493A36006120899
:1007B300531470FAE493A360061209631470FAD019
:1007C300E0FCE493A3C0E0E493C0E022A2E792D666
:1007D3005002F40430F70663F0FF05F0B3400384DE
:1007E300800384F40430D60563F0FF05F022CAC009
:1007F300E0E493A3C582CCC582C583CDC583F0A3B2
:10080300C582CCC582C583CDC583DAE5D0E0CA22D3
:10081300CAC0E0E0A3C582CCC582C583CDC583F041
:10082300A3C582CCC582C583CDC583DAE6D0E0CA31
:10083300227009080808226016181818C6C333C6A0
:1008430008C633C608C633C608C633C6D5E0EA228F
:10085300C0E0E493A3D39C5010E493A3C39C400A49
:10086300D0E0D0E0D0E00207C2A3A3A3D0E022C02F
:1008730008C3E096F50808A3E096420808A3E096AB
:10088300420808A3E09645087001D3D00822C09F10
:10089300F59FE473D09F22D083D082C09FE493C09E
:1008A300E0740193C0E0740293F59F222518F5824A
:1008B30010AF08F518400215198008F51840021505
:1008C30019D2AF851983227404800A7403800674D5
:1008D3000280027401C0E0F4041208AFD0E0120BEE
:1008E3000B22C0D0251810AF08F518500205198047
:1008F30008F51850020519D2AFD0D022BB0102E788
:1009030022C082C08389828A83BB0003E08002E421
:1009130093D083D082226016080808C6C313C61872
:10092300C613C618C613C618C613C6D5E0EA22C036
:10093300E0C0D0E8C0E0E5A8D2AFC2C7A2E792AF5B
:10094300D0E0F8D0D0D0E032C3E0C696F608A3E0FA
:10095300C696F608A3E0C696F608A3E0C696F62266
:10096300C0E0E493A36C7009D0E0D0E0D0E00207CC
:10097300C2A3A3D0E022251810AF08F51840021532
:10098300198008F51840021519D2AF22E0667010DD
:1009930008A3E066700A08A3E066700408A3E06693
:1009A30022C3E09608A3E09608A3E09608A3E09686
:1009B300A2D265D03322E76670100809E766700A91
:1009C3000809E76670040809E76622C3E096F008A1
:1009D300A3E096F008A3E096F008A3E096F022E6E1
:1009E30057F60809E657F60809E657F60809E657E1
:1009F300F622E627F60809E637F60809E637F60889
:100A030009E637F622E026F608A3E036F608A3E067
:100A130036F608A3E036F622E056F008A3E056F0D7
:100A230008A3E056F008A3E056F022E647F60809CB
:100A3300E647F60809E647F60809E647F622700492
:100A430022600D18C6C333C608C633C6D5E0F418F2
:100A530022C0E0E8C0E0E58124FCF8E6A2E7D0E0AC
:100A6300F8D0E022E026F008A3E036F008A3E03651
:100A7300F008A3E036F022E056F608A3E056F608A5
:100A8300A3E056F608A3E056F622E4C396F608E47C
:100A930096F608E496F608E496F622C6F4C608C667
:100AA300F4C608C6F4C608C6F4C622C3E09608A373
:100AB300E09608A3E09608A3E09622C3E796080908
:100AC300E7960809E7960809E7962275D00075812D
:100AD3004075180175190300020507E0F608A3E045
:100AE300F608A3E0F608A3E0F622600C08C6C313D9
:100AF300C618C613C6D5E0F422E6F008A3E6F0084C
:100B0300A3E6F008A3E6F022CAC0E0E6F0A308DA01
:100B1300FAD0E0FA22E0FAA3E0FBA3E0FCA3E0FDB5
:100B230022EAF0A3EBF0A3ECF0A3EDF022E5C75427
:100B3300F84401F5C77901222518F582E43519F542
:100B43008322C2AF75D69F0200002212089A894FF2
:100B53000012089AB24F0012089A22500012089A03
:100B63007B500012089AF4500012089A4453001262
:100B7300089AFE540012089AAA550012089AEC56D5
:100B83000012089A8A590012089A905C0012089A77
:100B93009D5C0012089A2B5D0012089ADD5D00121D
:100BA300089A255E0012089A855E0012089AA15ED3
:100BB3000012089AD55E0012089A0A5F0012089A7A
:100BC300F35F0012089AA8600012089AFD620012EF
:100BD300089A4A640012089AED640012089A7A652A
:100BE3000012089AB0650012089A62660012089A09
:100BF30034670012089AEF680012089A43690012DA
:100C0300089A77690012089AF2690012089ACC6A66
:100C13000012089A8A6B0012089ACF6B0012089A86
:100C2300E76B0012089A7E6C0012089AEF6E0012AE
:100C3300089A04710012089A22710012089A4071EE
:100C43000012089A1A720012089A38750012089A4C
:100C530000800212089A35800212089A5B80021201
:100C6300089A95800212089AA7800212089AF980BE
:100C73000212089A5A810212089AE4810212089A0F
:100C830088820212089AD0820212089A0A830212F8
:100C9300089A27830212089A4C830212089A9E83A9
:100CA3000212089AB7830212089ADD830212089A85
:100CB300FC830212089A37840212089A7B84021278
:100CC300089AA2840212089AF3840212089AA3854E
:100CD3000212089A5B860212089A23870212089A64
:100CE300E3870212089A27880212089A4C88021294
:100CF300089A8F880212089ADC880212089A348AAA
:100D03000212089ABA8A0212089AD88A0212089A18
:100D1300028B0212089A1C8B0212089A2B8B021266
:100D2300089A368B0212089AF68B0212089A4F8C95
:100D33000212089A118D0212089A198D0212089A4A
:100D4300918D0212089AE08D0212089A268E0212E1
:100D5300089A678E0212089AF78F0212089AAF90C8
:100D63000212089A1B910212089A46920212089ADA
:100D730057920212089ACD920212089A5F930212B6
:100D8300089AB7930212089A77940212089A9E94CB
:100D93000212089ABC940212089ACE940212089A7C
:100DA30021950212089A5E950212089A6B95021217
:100DB300089AEE960212089A43980212089A5C98CF
:100DC3000212089A98990212089A339A0212089A00
:100DD3006C9A0212089AB89A0212089AD49B0212C9
:100DE300089A1D9E0212089A289E0212089A339EA0
:100DF3000212089A3D9E0212089A489E0212089A0D
:100E0300629E0212089A6C9E0212089A769E021241
:100E1300089A819E0212089AA99E0212089A049FB8
:100E23000212089A289F0212089A4C9F0212089AEB
:100E3300AA9F0212089AEE9F0212089A0AA00212AF
:100E4300089A81A00212089AB9A00212089A05A171
:100E53000212089A62A10212089A1CA20212089AAC
:100E630000A40212089A59A40212089A89A5021230
:100E7300089AAFA50212089A38A70212089AB4AAD0
:100E83000212089A86AC0212089A4FAE0212089A0E
:100E9300FCAE0212089A67B00212089A06B1021257
:100EA300089A53B10212089ABDB10212089ACCB142
:100EB3000212089A53B40212089A05B60212089A4B
:100EC30072B60212089A51B70212089A6AB802124D
:100ED300089AE7B90212089A06BA0212089A5BBA8C
:100EE3000212089A60BB0212089A88BB0212089A7F
:100EF300E0BB0212089ABFBC0212089A03BD021299
:100F0300089A4EBD0212089AB9BD0212089AFABE97
:100F13000212089A5EBF0212089AACC00212089A23
:100F23000CC30212089A3DC30212089AF5C40212B6
:100F3300089A4AC50212089A4EC60212089AEBC6CC
:100F43000212089A44C70212089AF7C70212089AB3
:100F530099C80212089A39C90212089ADEC9021204
:100F6300089AE2800112089A21810112089A688383
:100F73000112089AB2830112089ACD840112089AC9
:100F83003D850112089A72850112089AE6860112BC
:100F9300089A69890112089A928A0112089A288B81
:100FA3000112089A30940112089AC5940112089A02
:100FB300AC970112089A9F980112089A009901129E
:100FC300089A1C9A0112089A019C0112089A129E0F
:100FD3000112089A7C9E0112089A4E9F0112089AE8
:100FE30005A00112089A0FA00112089A3DA0011250
:100FF300089AFAA00112089AD1A10112089A98A29C
:101003000112089A4AA30112089A73A30112089ABB
:1010130095A30112089AEBA50112089AC3A601121F
:10102300089A07A70112089A6FA70112089A27A81E
:101033000112089A59A80112089A9DA80112089A48
:10104300D3A80112089A1FA90112089A74A90112C0
:10105300089A79A90112089ACCA90112089AF1A950
:101063000112089A00AB0112089A64AB0112089AA4
:10107300D4AB0112089A60AC0112089A2DAF011289
:10108300089A11B00112089A94B10112089ACAB3CE
:101093000112089A78B40112089A28B50112089A25
:1010A30069B70112089A0CB80112089A53B80112D1
:1010B300089AFFB90112089A13BA0112089A1DBAC5
:1010C3000112089A45BA0112089A51BA0112089AF4
:1010D30070BA0112089A55BC0112089A8CBC01120D
:1010E300089A96BC0112089AA0BC0112089AFBBC8C
:1010F3000112089A45BD0112089A4DBE0112089AC1
:10110300A4BE0112089AF3BF0112089A37C0011254
:10111300089ADFC00112089AC2C10112089A6DC26F
:101123000112089AB9C30112089AB7C40112089AA6
:101133005DC50112089AEDC50112089A04C6011291
:10114300089A3BC60112089A45C60112089A50C66E
:101153000112089A6EC60112089AB2C60112089AC1
:101163000FC70112089A34C70112089A4EC7011219
:10117300089ADAC70112089AF7C80112089A64C9D3
:101183000112089A4BCA0112089A72CA0112089AEC
:10119300E6CA0112089A61CB0112089A65CC0112C2
:1011A300089A5BCD0112089A0ACE0112089A1DCF44
:1011B3000112089AB9CF0112089A46D00112089A6F
:1011C30024D10112089A5CD10112089AB4D10112F8
:1011D300089A7DD20112089A9ED20112089A25D349
:1011E3000112089A49D30112089A6BD30112089A83
:1011F300B4D30112089ACAD50112089AB1D60112C2
:10120300089A62D70112089A98D90112089AE8D964
:101213000112089A28DA0112089A6ADA0112089A66
:10122300C6DA0112089AF4DA0112089A18DB0112DD
:10123300089A6BDB0112089A99DB0112089AD2DB38
:101243000112089A27DC0112089A8DDC0112089A10
:10125300E1DD0112089A04E00112089A71E001121B
:10126300089A9AE00112089A25E10112089A8CE182
:101273000112089AD7E10112089AFBE10112089AB8
:101283001FE20112089A7AE20112089A95E201120A
:10129300089A4EE30112089A88E30112089A2E8BEA
:1012A3000412089A668B0412089A878B0412089A10
:1012B300C98B0412089A2F8C0412089A398C0412D1
:1012C300089A498C0412089A7E8C0412089AC78FD4
:1012D3000412089A71910412089A71930412089ADD
:1012E300A2CA0212089AE8CA0212089AC8CB0212CA
:1012F300089ACACC0212089ACDCD0212089A59CF85
:101303000212089AB7CF0212089A74D00212089AEE
:1013130092D10212089A03D20212089A3FD2021201
:10132300089A8DD20212089A97D20212089ADBD237
:101333000212089A37D30212089AD2D30212089AD9
:101343004FD40212089A1ED50212089AB7D5021278
:10135300089AD7D50212089A0DD60212089A3ED6D9
:101363000212089AFFD60212089A0FD70212089A9D
:1013730063D70212089A7ED70212089A90D70212F4
:10138300089A99D70212089AF3D70212089A4FD8EB
:101393000212089A9BD80212089AB6D80212089A27
:1013A300E7D80212089A04D90212089A10D9021235
:1013B300089A84DA0212089A9DDA0212089A04DB68
:1013C3000212089A17DB0212089A25DB0212089A06
:1013D300D9DB0212089ABDDC0212089AC3DD02129D
:1013E300089A4DDE0212089A57DE0212089AC4DEEA
:1013F3000212089ADBDE0212089A0DDF0212089A23
:1014030046DF0212089A70DF0212089AD1DF021235
:10141300089AF1DF0212089A0FE00212089A55E0C7
:101423000212089A7BE10212089AC8E10212089A92
:10143300F7E10212089A6DE20212089A95E202128B
:10144300089ACEE20212089ADCE20212089A34E306
:101453000212089A83E30212089AC2E30212089A5C
:10146300F2E30212089A1EE40212089A29E4021215
:10147300089A47E40212089A09E50212089A13E54A
:101483000212089A4EE50212089A64E50212089ABB
:10149300B9E50212089ACDE50212089ADBE60212B8
:1014A300089AEEE60212089A03E70212089AA5E7E1
:1014B3000212089A28E80212089AE6E80212089A29
:1014C300F1E80212089A1DEA0212089A39EA021296
:1014D300089A8BEA0212089ACAEA0212089ADFEA09
:1014E3000212089A41EB0212089AD0EB0212089AF0
:1014F3001BEC0212089A6CEE0212089AEAEE021230
:10150300089A5FEF0212089A81F10212089A99F180
:101513000212089A9CF10212089AA8F10212089A80
:10152300BCF10212089AC4F10212089AF7F10212EE
:10153300089AA7F20212089A1DF30212089A90F36E
:101543000212089A44F40212089AF9F40212089A51
:1015530018F50212089AB8F50212089AC4F5021295
:10156300089AEFF50212089AF2F50212089A5CF64D
:101573000212089A84F70212089A5CF80212089A77
:10158300E7F80212089A00FA0212089ABDFA021248
:10159300089AF6FA0212089A27FB0212089AE5FB48
:1015A3000212089A15FC0212089AF0FC0212089A19
:1015B30089FD0212089A14FE0212089AC5FE02124D
:1015C300089A88490012089A7AFF0212089ABBFF08
:1015D3000212089A56750012089ABB750012089AEF
:1015E300F8750012089A47760012089A31780012AB
:1015F300089A187A0012089A517D0012089A777D8A
:101603000012089A8F7D0012089AF87D0012089A3A
:10161300347E0012089A617E0012089A937E0012AB
:10162300089A2B4F0012089A00800412089A7E80B1
:101633000412089AB0800412089A08810412089AC6
:1016430082820412089A9E820412089AD982041292
:10165300089A60830412089AB0830412089A7D845E
:101663000412089A81850412089AD5850412089AEF
:1016730050860412089AB1860412089AF28604125C
:10168300089A9D870412089ABB880412089AF18865
:101693000412089A3C890412089A83890412089A4E
:1016A3000D8A0412089AB28A0412089AA89B04129B
:1016B300089AEE9B0412089A589C0412089A799C83
:1016C3000412089A199D0412089A239D0412089A79
:1016D300709D0412089A959D0412089AF59D0412B0
:1016E300089A8B9E0412089AC39E0412089A1C9FA0
:1016F3000412089A789F0412089AA69F0412089A63
:101703002EA00412089A73A00412089AB2A004121D
:10171300089AF7A00412089A09A10412089A1BA1B7
:101723000412089A3AA10412089A43A10412089ACF
:10173300EFA10412089A2FA20412089AB1DC041232
:10174300089A1FD00412089A55D00412089A9ED002
:101753000412089AEBD10412089AF6AA0312089A03
:101763006FAC0312089A30AE0312089A6CAE0312E0
:10177300089AF3B10312089A39B20312089A4EB4C5
:101783000312089A20B50312089ACCB50312089ADB
:1017930077B70312089AC1B90312089ADDBC031282
:1017A300089AEBBC0312089AC6BD0312089AD9C162
:1017B3000312089A77DE0412089AFDDF0412089ACE
:1017C30013E00412089AD2C20412089AE5C2041262
:1017D300089A83C30412089AC5C30412089AEAC379
:1017E3000412089A2FC40412089A68C40412089AAF
:1017F30099C40412089A0CC60412089A417F001275
:10180300089A777F0012089A937F0012089AD57F6F
:101813000012089AE57F0012089A6CC20312089A14
:10182300BEC20312089A2DC30312089A24C40312DA
:10183300089AA8C40312089A6FC50312089A84C5AC
:101843000312089ACEC50312089A1DC60312089AFA
:101853006FC60312089A82C60312089ACEC60312F1
:10186300089AC9C80312089A4BC90312089A75C982
:101873000312089ABEC90312089A86CB0312089A68
:1018830001CC0312089A8ECC0312089AA1CC03123E
:10189300089AF0CC0312089A06CD0312089A1DCDBC
:1018A3000312089A4CCD0312089A6DCD0312089ABD
:1018B30046CE0312089AA9CE0312089AF5CE031254
:1018C300089AF8CF0312089A66D20312089A92D2A2
:1018D3000312089A16D30312089A86D30312089A9E
:1018E300A9D30312089AE3D30312089A51D403121B
:1018F300089A07D50312089A2CD50312089A36D5ED
:101903000312089A46D50312089AC9D50312089AF6
:10191300E4D50312089A06D60312089A32D60312A4
:10192300089A6DD60312089A7CD60312089ABDD67C
:101933000312089AC7DE0412089ADFDE0412089A1B
:1019430023940412089A72940412089A2496041297
:10195300089AD9970412089A21980412089A1D9993
:101963000412089A749A0412089A969A0412089A0E
:10197300F29A0412089A749B0412089AE2D603128C
:10198300089A0DD70312089AF0D70312089A72D84F
:101993000312089ADCD80312089A28D90312089A6A
:1019A30096D90312089A21DA0312089AAFDA0312BE
:1019B300089AE2DA0312089AD6DF0312089A7BE147
:1019C3000312089A37E20312089A74E20312089A80
:1019D300C0E40312089A34E50312089A33E60312AB
:1019E300089A0CE70312089A86E70312089A40E85C
:1019F3000312089AFFE80312089A6BE90312089A84
:101A030012EA0312089A6FEA0312089A2CED0312E2
:101A1300089AECED0312089A51EE0312089AFBEFB1
:101A23000312089AB8F00312089A17F20312089ADD
:101A33003EF30312089AD9F30312089AD4F403125B
:101A4300089AD2E30112089A5AE40112089ACDE4E3
:101A53000112089A21E50112089A5CE50112089A1D
:101A6300E9E50112089A05E70112089A57E70112FE
:101A7300089AB5E70112089AF8E70112089A6DE887
:101A83000112089AB7E80112089A36EA0112089A75
:101A930009EB0112089A5FEB0112089A55EC011247
:101AA300089A02ED0112089A2DED0112089A4CEDE5
:101AB3000112089A5CED0112089A62EE0112089A6B
:101AC30026EF0112089A07F10112089A6DF101122B
:101AD300089A84F10112089ADAF20112089A57F36C
:101AE3000112089AC6F30112089A4FF40112089AD8
:101AF30093F40112089A5AF60112089A32F7011266
:101B0300089A6EF80112089A27F90112089A58FAEE
:101B13000112089A87FA0112089A61FB0112089AC6
:101B230030FC0112089A89FC0112089AA1FC0112E7
:101B3300089AA1FD0112089A2FFE0112089AD0CD2E
:101B43000412089A8FCE0412089A48CF0412089AF6
:101B5300AECF0412089AEDB40412089A56B60412D2
:101B6300089A1DE00412089A2AD60412089A38D655
:101B73000412089AEF7F0012089A60FF0312089A72
:101B830070FF0312089A7CFF0312089AC9FF03121D
:101B9300089AB3DB0412089A34DC0412089A98DC1E
:101BA3000412089AF5FF0112089AF8FF0112089A25
:101BB30037E00412089A47E00412089ADBDF0412A4
:101BC300089ADBAB0412089A30AC0412089A04AEEC
:101BD3000412089A36AE0412089A5DAE0412089AEB
:101BE30071AE0412089A8AAE0412089AB9AF0412AD
:101BF300089AE4D70412089A08D80412089A21D83C
:101C03000412089A54D80412089A85D80412089A20
:101C1300B3D80412089A15D90412089A24D90412C5
:101C2300089A2ED90412089A3BD90412089A23C69B
:101C33000412089A60C60412089A6FC60412089A1E
:101C43008EC60412089AF6C60412089AFFC6041236
:101C5300089A5EC70412089A82C70412089A75C8C4
:101C63000412089A82C80412089A93C80412089AA4
:101C73009FDF0412089ABCDF0412089A58A20412C8
:101C8300089A9EA20412089AFDA30412089A0AA4B1
:101C93000412089A1DA40412089A3CA40412089A78
:101CA30052A40412089A66A40412089ADBA404122C
:101CB300089A40A50412089AF0A50412089AC5A62A
:101CC3000412089AD5A60412089AE4A60412089AE4
:101CD3008BDD0412089AB0DD0412089AD9DD0412D0
:101CE300089A01DE0412089A52D20412089A79D291
:101CF3000412089AF5D20412089A59CB0412089ACE
:101D030072CB0412089A7ECB0412089A92CB041267
:101D1300089AB0CB0412089ABACB0412089AC4CB1F
:101D23000412089AD7CB0412089A2FCC0412089AEB
:101D330066CC0412089A94CC0412089AE2CC0412DA
:101D4300089A2FCD0412089A4ACD0412089A54CD4A
:101D53000412089A86CD0412089A26DE0412089A01
:101D63000FF60312089A39F60312089A55F603126E
:101D7300089A68F60312089AA7F60312089A28F736
:101D83000312089A60FB0312089A8AFC0312089A4A
:101D9300BDFC0312089A0AFD0312089A32FE0312CD
:101DA300089A5AFE0312089A7DFE0312089AC1FE8E
:101DB3000312089A22FF0312089A32FF0312089AA9
:101DC30080DA0412089A9BDA0412089AC4DA04121D
:101DD300089ADEDA0412089A03DB0412089A22DB5B
:101DE3000412089A3ADB0412089A68DB0412089A70
:101DF30082DB0412089A15DF0412089ACDBB041281
:101E0300089AD4BB0412089A09BD0412089A38BD73
:101E13000412089AA6BD0412089A39BE0412089A3D
:101E230072BE0412089ABBBE0412089AEBBE0412D7
:101E3300089A0BBF0412089A45D90412089A5DD96F
:101E43000412089A7ADA0412089A7DDA0412089ABC
:101E5300E0FE0112089A3FFF0112089A95FF011252
:101E6300089AD6FF0112089A00800312089A1B8071
:101E73000312089A90800312089A19810312089A90
:101E8300A8810312089AC4810312089A6E8403126C
:101E9300089A1D870312089ABB880312089A068AB8
:101EA3000312089AD38F0312089ACF900312089A49
:101EB30045910312089A11920312089AB5920312DC
:101EC300089A18940312089AB8940312089A029570
:101ED3000312089A74950312089A1D960312089A1E
:101EE300EA960312089A50970312089A5598031218
:101EF300089A12990312089AAF990312089A069C3A
:101F03000312089A9A9C0312089A169D0312089AC0
:101F1300A29F0312089A9DA00312089ACCA0031251
:101F2300089A8BA20312089A5FA40312089A55A574
:101F33000312089A43AA0312089AC1C80412089A02
:101F4300E6C80412089A75C90412089A4BCA041207
:101F5300089A37CB0412089A2EB80412089AEFB8DD
:101F63000412089A5EB90412089A83B90412089AF3
:101F73003EBA0412089A5BDF0412089A6AD4041268
:101F8300089AAAD40412089AD3D40412089A51D5F1
:101F93000412089AD0D50412089ADED50412089ABE
:101FA300FBD50412089A6BBF0412089AF9BF0412F6
:101FB300089ADBC10412089ADEC10412089A22C2ED
:101FC3000412089A25C20412089A5BC20412089AE2
:101FD30089C20412089A95B00412089ABBB004127D
:101FE300089A06B10412089A22B10412089A53B14E
:101FF3000412089A63B10412089A70B10412089A81
:102003007DB10412089A60B20412089A9EB20412B7
:10201300089AA8B20412089AC7B30412089AD2B352
:102023000412089AE4B30412089AEDB30412089A4E
:10203300F7B30412089A1DA70412089ACDAB041231
:10204300089ACCFF0312089A40490012089A8B475A
:102053000012089A0B470012089AD1460012089AF8
:1020630011460012089A87450012089A5945001232
:10207300089A05440012089A6E430012089AD14246
:102083000012089A5C420012089A2A420012089A27
:1020930067410012089A923F0012089A233F0012E8
:1020A300089AF53E0012089AF23E0012089A793D0A
:1020B3000012089A7A3C0012089A443B0012089ACC
:1020C300883A0012089AFE390012089A043900125D
:1020D300089ACF4E0012089AF44D0012089A324C17
:1020E3000012089AFE4B0012089ACB4B0012089A72
:1020F30060380012089AA7370012089A6A3700124C
:10210300089A9E4B0012089AB0360012089A7A3643
:102113000012089A21360012089AD7350012089A3D
:10212300C44A0012089AF17E0012089A7835001208
:10213300089A47350012089A0F320012089ACF31D5
:102143000012089AC3310012089A23310012089A28
:1021530063300012089ADC2D0012089A6D2B0012CE
:10216300089A2B2B0012089AFF290012089AB42907
:102173000012089AF0280012089A33280012089ACD
:1021830003280012089A214A0012089AC92700124C
:10219300089A48FF0200000080FBE4738F000100EF
:1021A300CF0C87000100CD0C240002001606250089
:1021B30002001806260002001A0627000200AD0CD2
:1021C30028000100AF0C29000100B00C84000400BA
:1021D300B10C86000100B50C2A000100B60C2B00DF
:1021E3000100B70C2C000100BB0C2D0008001E06DB
:1021F3002E000100BC0C2F000100BD0C30000100BB
:10220300BE0C31000100BF0C320001002606330072
:102213000100270634000100C00C36000100280627
:1022230038000100C10C39000100BA0C8300020020
:10223300CB0C63000100320664000100B80C65009A
:102243000100B90C6D000100CA0C6E0002001C06EF
:1022530043000100C20C44000200C30C450001000E
:10226300C50C46000200C60C470008002A064800B9
:102273000100C80C4B000100C90C04000100CE0C86
:10228300A1000100D20C37000100D10C880001002D
:10229300D00C3C00010029060000000000000001F2
:1022A30036360101000102010001030100010401AE
:1022B300060605020000070100340801000F0904A7
:1022C30001010D0100FF0E080000170200001901B3
:1022D30000FF1A0100011B0100FE1C0100081D0282
:1022E30000001F0100012001000121020000230161
:1022F300000F240200002601000127010008280224
:1023030000FF2A0100072B0102402C0100002D01D0
:1023130000012E0100012F0100FF30010B1C3108C9
:1023230000003A0100083B01000F2F0100000300E9
:10233300710030016000110070003102200350046D
:10234300800010006100000014006300730072003D
:1023530062004300000013000600000000000400B8
:102363001200000000000000000004000400370019
:1023730037003C024400000000000000000065003C
:10238300000035008100000005000000830000000C
:10239300010171010101010111010101310101017A
:1023A30001018001100161013B001400630173010D
:1023B3007201620143010001130106013D01350071
:1023C30004011201000100010001000104010401E4
:1023D300330133013C0144013201360000010001A5
:1023E30065010001350081010001050182018301BE
:1023F3000001030471040204600411047004020464
:1024030002040104020410046104000414046304BC
:1024130073047204620443040004130406040004F6
:102423000004040412040004000400040004510422
:1024330064000004000400044404000400040004D5
:1024430000046504000435048104640005040004E9
:102453008304000401037103010301030103010366
:10246300010322030203010310030003000300031B
:1024730000030003000300034203000324030603D5
:10248300000300030403120325032303250323038B
:1024930004030403000300030003440300030003D5
:1024A30023030003650321003503810300030503B0
:1024B30000030003000303027102300160021102F2
:1024C30070020102020202028002100261023A005B
:1024D30041006302730272026202430200021302AA
:1024E300380000020002040212020002000200028D
:1024F300000204020402370037003C0244020002D7
:102503003900000200026502000235028102000266
:102513000502820283020002000003002001E08022
:10252300000000002001E1800000040042016480FB
:102533000000050042015380000006004201428072
:10254300000007002001DE80000010004203210D7F
:10255300000011002003650C000012001003320D6F
:10256300030000002103660C060000002001690C33
:102573000000000000000000000003002001E080D4
:10258300000000002001E18000000400420164809B
:102593000000050042015380000006004201428012
:1025A300000007002001DE80000010004203210D1F
:1025B300000011002003650C000012001003320D0F
:1025C300030000002103660C060000002001680CD4
:1025D30000000000000000003600010006000000BB
:1025E3000F0000000000000000000000000003FFD7
:1025F300FF00000403FFFF0000FFFF0FF4010005CD
:10260300C4040320000100020B00000000000000CE
:102613000003010FE01E1C1FE61E341FEC1E221FC9
:10262300EC1E2E1FF21E341FEC1E221FF81E341F39
:10263300FE1E341F041F341F0A1F341F101F341FB4
:10264300161F341F00000000000000000000061ADF
:102653001300CA190100061A0200941903009A19FB
:102663000400A0190500A6190600B219FFFF000017
:1026730001AA0F06D40F08CE0F0BEC0F10260F0282
:10268300B00F05C20F07B60F0C8C0F0D9E0FFF0086
:10269300001E144E1424142A1448143C14361454E3
:1026A300145A1460146C1430141814121403EAF539
:1026B300E5D5D5C5B5A595958585757565655555D7
:1026C30045453535252515150500160F00000B1555
:1026D3000B020002220F320000067A6232303136DA
:1026E3003039323931303236333779692068756998
:1026F3002079756E20736D61727400000000000014
:1027030000008967452301EFCDAB0E152015261573
:10271300E8132C15E213EE136E158C159215741530
:1027230080157A1522131C1358135E1352130A13C0
:1027330000034948424D18172505020C0E020B04ED
:102743000B0A0708000F303017181921301B1D1F03
:1027530030303016181920231A1C1E3000011916A8
:102763001816161523030000383C3E363B3B352B29
:10277300432C62153215381544153E154214661460
:102783008615721478140204020101010109022E54
:102793001334132813641300BE040A3A134C13159D
:1027A3000004000000000028000C007F00E8030E76
:1027B3000003080C00040010FF1E1E010904091089
:1027C30005080F03080C74F71203E4E9FE12162838
:1027D300EE900C74F090030E746EF0A37421F090DD
:1027E30003107468F0A37421F09003127462F0A3D1
:1027F3007421F0900314745CF0A37421F00242AAD4
:1028030074F71203E4E9FE900302E4F0EE9003018F
:10281300F0900CC612361A1245FC7C2A7D067A0506
:102823007B03121E62900CC8E090030DF00242AAD3
:1028330074F41203E48A088B09EB5480605B900301
:1028430001125CFE604A8E828F83E0640170321253
:102853004D8D12071CEE24121270DDF50A780A1250
:1028630008D61228E31208D2EE240B1228DC120732
:1028730020EE2417125D0E1215E674091208E58086
:1028830008E064027003122054EEFAEFFB1216D034
:10289300AA08E5096480FB803AEAA2E05017900396
:1028A30016124BC6600612361612219DE508640106
:1028B300FAAB09801E5402600C900C737401F0EAA9
:1028C3006402FA800EEA54046005EA640480F37A31
:1028D300007B000229AFEE240CF582EF124D972204
:1028E300EE240FF50AEF3400F50B780A2274F41284
:1028F30003E48A088B098A828B83A3A3A3E02410B1
:102903001242B6FA124EFA700302299F8E828F8307
:102913007402F0A3E4124EBDA3A3A3A3E8F0A3E9BA
:10292300124A0BA3A3A3A3A3A3A3F0E5082403F8CC
:10293300E509123E6324101241228E828F83A3A3E2
:10294300A3A3F0EE2409FA1229A1124543F58388C3
:1029530082E0A2E58E828F83A3A3A3A3A350047472
:10296300018001E4F0E5082403F888828983125C7E
:1029730057EA126715EB1228DF124F221208CE1204
:102983006283EB1246C98E828F83A3A3124DA612D4
:1029930008E5EEFAEFFB900301124F67800EEF3468
:1029A30000FB8E828F83A3A3221208E57F04020615
:1029B3009774F21203E48A088B09ECFAEDFB740EA8
:1029C300120B3BE0FC1216588A0C8B0DAE0CAF0DAC
:1029D300EE4F6023AC08AD09121646E96019AC0846
:1029E300AD09EEFAEFFB12164CE97007EEFAEFFBB6
:1029F3001216407900800279B402367574EE120320
:102A0300E474F71209798A0A8B0BECFEEDFF750F5C
:102A1300B3750E00750C00750D00800CE50C2401D8
:102A2300F50CE50D3400F50D9027A4E493F874013B
:102A330093F9C3E50C98E50D994003022B1FAA0CEB
:102A4300AB0D1216A68A088B09EA450960CE8A8265
:102A53008B83A3A3A3A3A3E0250EF50EF510C3E573
:102A63000A9510E50B940050B37C157D007900EEB8
:102A7300FAEFFB124B74A3A3A3A3E50AC3950EF8C5
:102A8300E028C333F8E433F9E50828F582E509398A
:102A9300F583A3A3A3A3A3A3125334A31243F2EA7C
:102AA300FCEBFDEEFAEFFB123E80A3E06401700A3B
:102AB300124D8D7401123756804385188285198310
:102AC300AC82AD83850882850983125C5512168E0C
:102AD300E9602D7408120B3BE0C0E0124D8DD0E08D
:102AE300F07408120B3BE064038518828519837028
:102AF3000CAC82AD83EE240B12374380031245F0F6
:102B0300850882850983123D68A3A3124E80C0E025
:102B1300EE24141228DCD0E0F0750F00A90F74091D
:102B23001208E57F0A02069774F71203E4E9FE8AA6
:102B3300828B83A3A3A3A3A3A3E0540860298A825F
:102B43008B83A3A3A3A3A3A3E0540260178A828B5E
:102B530083A3A3A3A3A3A3A3A3A3E0640660057411
:102B6300E96E70031221500242AA74E81203E4745E
:102B7300F71209797407120B3B124B8DE985188202
:102B8300851983F0ECFEEDFF7424120B3B780C12D5
:102B93000ADE7513008E828F83125C518E828F83BF
:102BA300A3A3A3E0F91216648A148B15EA451570E2
:102BB30003022D76EE24101254D4A914120E2A8A7D
:102BC300168B17EA45177003022D76EE2406F510CF
:102BD300EF3400F5117C00851082F583122DC88E29
:102BE300828F83A3A3A3122DBD125957F8A3E0F933
:102BF300851682851783A3A3A3A3123858122DBD6C
:102C0300A3A3A3A31256D1851682851783A3A3A3D7
:102C1300A3A3A3F0EE126715EF1230371208CEEE1E
:102C2300126284EF1246C9851682851783A3A3A374
:102C3300A3A3A3A3A3A3124DA61208E57510000234
:102C43002CF6850A82850B83125C5512169485082F
:102C530082850983A3EAF0A3EB124DB9A3A3124A19
:102C6300AE124F7EE0A2E6500F850882850983A34A
:102C7300A3A3A3A3E0D2E1F0E513706385088285E3
:102C83000983A3125E7290036CE0687003A3E0698A
:102C9300704D850882850983A3A3A31254E1780CA0
:102CA3001208CA7427120B3BE0F50A780A1208D6F9
:102CB3007426120B3B120720900379120720790028
:102CC3007410120B3B1249FB1220DE74091208E543
:102CD300850882850983A3A3A3A3A3E04405F07415
:102CE300012510FC8E828F83A3A3A3A3A3A3122D7C
:102CF300C80510E50A450B6052851008C3E5089521
:102D030014E495155045E51075F006A4F8A9F0E50F
:102D13001628F8E51739F9E8240CF508E9123C27D9
:102D2300E4124DAF64016003022C4575130185085D
:102D3300828509837401124DB4F8A3E0F9850882F2
:102D4300850983A3E8F0A3E9022C5CAA16AB17124A
:102D53000E3078161208D27425120B3BE0FC740275
:102D6300120B3BE0F9EEFAEFFB1221567402120844
:102D7300E580428E828F83A3A3A3E0C0E074041294
:102D83000B3BD0E0123A71E0C0E07405120B3BD06C
:102D9300E0F0E514451570097406120B3B74B98015
:102DA300077406120B3B7410F07401120B3BAA82DA
:102DB300AB831220E4740902692EE085168285171D
:102DC30083A3A3A32212531D8E828F83A3A3A3E005
:102DD300F912166A8A0A8B0B2274E81203E474F35D
:102DE3001209798A0A8B0B89178C167425120B3BEF
:102DF3001270F8AA0CFB120E1EE9F514AA0CAB0D07
:102E0300120E24E9F515E514700302302975130039
:102E1300800F8E828F83A3A3A3A3A3E0D2E3F00545
:102E230013E50C240BF582E50D1231BEE513C398AF
:102E33004003023020E5147003023020E51375F0DF
:102E430006A4F8A9F0E50C28F8E50D39F9E8240CF7
:102E5300FEE9126ECCA3A3A3A3E0A2E040C1750ECA
:102E6300008E828F83E07043125C56120D168A081F
:102E73008B09A808A909E849603188828983A3A33B
:102E8300A3A3E06401600D88828983A3A3A3A3E0C5
:102E9300640370178E828F83A3A3A3A3A3E0D2E757
:102EA300F0750E01E5157003022E22750F007508EB
:102EB30008750900E5166003750F20124B14E060D6
:102EC300339003BCE064017017E50FD2E3F50F758F
:102ED30009108E828F831245DB1243E174FF802435
:102EE300430F0C75080C8E828F83A3123043126834
:102EF300C5A38010E5176009E50FD2E6F50F750845
:102F03000A12305AF07402120B3BE50F125976C0C5
:102F1300E07404120B3BD0E0F07405120B3B124239
:102F2300C8120B3BE06003022FFB7408120B3B1229
:102F33003C688E828F83A3A3A3A3F07408120B3B78
:102F4300123523F583E508F0A3E509124926E0606D
:102F5300119003BCE0C0E07408120B3B12351CD087
:102F6300E0F0850C82850D83A3A3A3E0C0E0740881
:102F7300120B3B126409D0E0126445C0E0740812DE
:102F83000B3B12352ED0E0F07408120B3B1230438A
:102F9300A3A3126410125960125C55E82428F58229
:102FA300E91254C712596CC0E0E8242EF582E912E5
:102FB30028DFD0E0F07408120B3B125C57850A82BD
:102FC300850B8312302E2424F582EB1245F9126708
:102FD30013E50B1230371208CE1246C1EA242BF543
:102FE30082EB1228DF124DA61208E5851882851997
:102FF30083AA82AB831220488E828F83A3A3A3A3C9
:10300300A3E0D2E0F0740C120B3BE06003022E1538
:10301300E50EA2E0500215151514022E227900AA1E
:103023000CAB0D12214A740D02692EA3A3A3A312A4
:103033005E76EA22124D9712592C751200781022EF
:10304300125E76850A82850B83A3A3A3A3228E82B5
:103053008F83A3A3A3A3A3A31245E0E8F0A3E922CC
:1030630074F21203E474EB120979EAFEEBFF8908A8
:103073008E828F83A3A3A3A3A3A3A3A3E0F9120E1A
:10308300488A0A8B0BEA450B607FE50870047C04D1
:1030930080027C088E828F83A3A3A3A3A3A3A3A3ED
:1030A300E0F9120E4E1228D9124BC6605C88828951
:1030B30083125C537406120B3B123111125C57746A
:1030C30008120B3B123111A3A3E0C0E07410120BE2
:1030D3003BD0E0125983125C57740E120B3B124B18
:1030E3008D7411120B3BE41256BCF9780A1208D204
:1030F300742059FC744059F97402120B3BAA82AB39
:103103008312215674021208E57415023672EAF02E
:10311300A3EB12311922124553A3A3A3A3A3A32202
:1031230074F71203E474FA120979E9FE7F018F0838
:103133007D0080047508000D1242AF1231BEEDC34D
:10314300985025ED75F006A4F8A9F0EA28F8EB39B4
:10315300F9E812670EE912530F50D9540C60D5E009
:10316300A2E250D37F0080CF8A828B83A3A3A3A341
:10317300A3A3E0703EE508A2E0400574016E70333E
:103183008A828B83A3A3A3A3A3A374011262C2E0C5
:10319300C0E07403120B3BD0E01262BAE0C0E074EB
:1031A30004120B3BD0E0F07405120B3BEF1245AA5F
:1031B3001220E474060242A7F582EF1256CCF822DD
:1031C300C082C083790112214A02373CC082C08386
:1031D300EA4B60189003B8E064027010900C73E43B
:1031E300F0EAFCEBFD7A021232048012900C737445
:1031F30001F07A027B00900301E0F91217E4023731
:103203003C7B00900301E0F91217D82274F21203F9
:10321300E474F3120979EAFEEBFF8E828F83A3A392
:10322300A3A3A3A3A3A3A3A3E0F50A900C73E07045
:103233000579BA023517750801750900750C007513
:103243000D007C087D007900851882851983AA8288
:10325300AB831216B87405120B3B740112353F543D
:103263000460127402120B3BE0D2E612353F54089D
:103273007003750803E05410600674404508F508B0
:10328300E0540860227402120B3BE044C012353F45
:103293005420600A7403120B3BE0D2E080087403ED
:1032A300120B3BE0D2E1F08E828F83A3A3A3A3A3EF
:1032B300A3A3A3E070181210B8851882851983128E
:1032C3004B8D7402120B3BE0D2E2F0023376640FB3
:1032D30070157402120B3BE0D2E3124F7F124B6E58
:1032E3004508F5080233768E828F83A3A3A3A3A395
:1032F300A3A3A3E064028E828F83700512305B80E8
:10330300C9A3A3A3A3A3A3A3A3E064037013851872
:1033130082851983AC82AD83EEFAEFFB12210E8016
:10332300528E828F83A3A3A3A3A3A3A3A3E06401C9
:1033330070419003BCE0601C7402120B3BE0D2E3CB
:10334300124F6D8518828519831245FC7509107516
:103353000AFF80187402120B3BE0440C12643274AF
:10336300FDF0A374FFF074044508F5088E828F8383
:103373001270F8125309503A7402120B3BE0540CCA
:10338300701B8E828F83125C57121AD8E9700579ED
:10339300BB0235177402120B3BE0D2E5F01253095E
:1033A30050107402120B3BE0540C64047004E0D21E
:1033B300E5F0EE24111270DDC0E07404120B3BD073
:1033C300E01242CA120B3BE060030235107408128C
:1033D3000B3B123523123535EE24181270DDC0E095
:1033E300E81266FFE91228DFD0E0F0EE241912702C
:1033F300DDC0E07408120B3BE02413123C30D0E034
:103403001243FF640170119003BCE0C0E074081222
:103413000B3B12351CD0E0F07408120B3B1240FA40
:103423002417FAEF124129FCE8241CF582E912283B
:10343300DFECF0A3E4125018E0C0E0E82422F582A8
:10344300E91228DFD0E0F07408120B3B12352EE5A9
:103453000AF07408120B3B12410F2424F582E9127F
:103463005C1CA3E50D125C7AFCA3E0FDE82426F5C1
:1034730082E91228DFECF0A3ED1238FC124B44E88A
:103483002428F582E91228DF125E7AC0E0E8242FAF
:10349300F582E91228DFD0E0F0EE241B1270DDC0C4
:1034A300E07408120B3B126402D0E0F0EE241A120F
:1034B30070DDC0E07408120B3BE0242E123C30D0C8
:1034C300E012642A124F0A1208CEEE2411124B3D69
:1034D300740B120B3B124DA01208E5EE241512706B
:1034E300DD5440601B900328124BC660138518827D
:1034F300851983AA82AB8390032912361612219D64
:10350300851882851983AA82AB83122048740C1212
:103513000B3BE0F9740D023672E02415123C56227F
:10352300124113240FF582E9340022E02423123CD4
:103533005622F583E508F0A3E509F022F0EE241501
:103543001256C92274F71203E47E638A828B83E0E6
:10355300600C7905120C38E9F87456C398FE900391
:1035630064E0600CF9120C38E9F8EEC39824F2FE1B
:10357300EEF90242AA74F61203E474FE1209798585
:103583001882851983124B8DE9FEECFAEDFB740C5E
:10359300120B3BE0FC9004AE124BC66032851882DE
:1035A30085198385820885830978081208D27D01ED
:1035B300EEF99004AE12361312219D74021208E53F
:1035C3008B09EA450960047900800679B2800279A3
:1035D300B602379D74F71203E4E9FE7409120B3B3C
:1035E300E0FF90030E124BC6601AEFF5087808123D
:1035F30008D6EEF990030E12361312219D740112B0
:1036030008E5800279B60242AAEEFAEFFB900320A6
:10361300E0F8A3123EB422125E769003032274F202
:103623001203E48A088B09ECFEEDFF750A0190038F
:103633006CE065087004A3E0650970051249F48025
:103643002A1210BE8A0C8B0DE508650C7004E5097F
:10365300650D7009EEFAEFFB1210C4800EEEFCEF5D
:10366300FDAA08AB09120CB0E9F50AA90A800312F6
:1036730008E57F0602069774F51203E4EAFEEBFF02
:103683008C088D09750A01126B6212374C700B900E
:10369300036C123EE21245FC800EAC08AD09EEFA53
:1036A300EFFB120CB6E9F50AA90A025FEE74F612F3
:1036B30003E4EAFEEBFF7A0C7B0012174EEA4B6041
:1036C3006BEE24201270DD8A828B83F0EE242112AC
:1036D3003732F0EE2422123732A3F0EE24231237CE
:1036E30032A3A3124DD9125949E8F0A3E91256C1E6
:1036F30012594AA3A3E8F0A3E91254E78A828B8301
:10370300A3A3A3A3A3A3A3A3F0EE242F1270DDC04E
:10371300E01242AF1228DFD0E0124B938A828B83F0
:10372300A3A3A3A3A3A3A3A3A31245FC0237A2129B
:1037330056C98A828B83A322F0D083D08202089752
:10374300FAEF3400FB121E62221243E622123756AE
:10375300A3E02212375A2212375E22124EB5A3A3D8
:1037630022124A19A3E02274F61203E4ECFEEDFFE1
:1037730079B3900363E07020900395E064017018BF
:10378300EE12670EEF126EE0EE240F1245F6E849D3
:1037930060047900800279A1800574021208E57F34
:1037A3000202069774F41203E474FE120979ECFE24
:1037B300EDFFEE24161270DD64057011EE2406FC95
:1037C300EF3400FD122114E9700302385185188289
:1037D300851983AC82AD831266541239E3124BC64A
:1037E3006068E875F009A4F8AAF075F009E9A42A5D
:1037F300F974ED28F874F339F9E8FAE9FBEE2412C9
:103803001228DCC082C0838A828B837808120ADE86
:10381300D083D0827808120AAE402B85188285198E
:10382300831240FA240F1228DC1238587808120A3F
:10383300DE9080AC7808120A088A828B837808129B
:103843000AFC7900800A79A2800679A1800279C8EE
:1038530074020229ACE8F0A3E9123A752274F41257
:1038630003E474FF120979EAFEEBFF900363E0704F
:1038730075900395E06401706D75083A75090078D9
:10388300081208D27402120B3B85820885830978DB
:10389300081208D21238EE1208E5E9703EEE1267FC
:1038A30015EF123EEC1249BCC0E0EE24111228DCE5
:1038B300D0E01238FC743A1256D1900330120B1830
:1038C300EE24121228DC120B249080AC7808120A22
:1038D300DE9003307808120A67800BEE240FF5821E
:1038E300EF124298A3F074010229AC7C017D007AA7
:1038F300007B00121298740422F0EE240F124D94F0
:103903002274F01203E474F6120979ECFEEDFF74ED
:1039130002120B3BAC82AD83122114E9700302390E
:10392300DE851882851983AC82AD837402120B3B4A
:10393300AA82AB831239E3124BC670030239DEE865
:1039430075F009A4F8AAF075F009E9A42AF974E955
:1039530028F874F339F988088909EE240E1239ED31
:103963001249BCF8A3E0F9EE240F124EA6120B186D
:10397300EE24121228DC120B249080AC780C120A6D
:10398300DE850882850983780C120A67850882859B
:1039930009837808120ADE9080A8780C120ADE7870
:1039A30008790C120374E50C450D450E450F702B79
:1039B30085188285198312410F75F009A4F8AAF0BE
:1039C30075F009E9A42AF974F128F58274F339F53D
:1039D300837401F07A007B101239F5740A023A807D
:1039E300121ADE85188285198322F582EF124D970C
:1039F300E422900527E0F91217062274F01203E47B
:103A03008A088B09ECFEEDFFEE240FF582EF1242DC
:103A130098A3123A71C082C0839080C0780C120AB6
:103A2300DED083D082780C12098F6032123A65702F
:103A3300051220FC802AE070051220F68022640221
:103A430070131220F6E96018EEFCEFFDAA08AB092B
:103A5300121B02800BE0640360DF79A1800279A36B
:103A6300801EEE240EF582EF1256CC640122123A28
:103A73007522F0EE2412F582EF124D9B221208E517
:103A83007F0802069774F61203E4EAFEEBFFEE24C6
:103A93000AF508EF1268C0850882124B42EC240F26
:103AA300124295124B5E1220CC850882850983123F
:103AB3004BC3706B123C347003A3E069600A123C81
:103AC300167003A3E06970578E828F83A3A3A3A309
:103AD300A3A3A3A3A3A3124B448E828F83125C5789
:103AE300121B08E960188E828F83A3A3A3A3A3A349
:103AF300A3A3A3A3E0240F123C30E4F0A3F08E822F
:103B03008F831263FA8E828F83A3A3A3A3A3A3A39A
:103B1300A3A3A37005123EDC8004123EBAE4F012A4
:103B23004BB5701A123E67125C571220F08508825B
:103B3300850983124BC370061228D974A1F002378A
:103B4300A274F61203E4EAFEEBFFEE240A123E76B9
:103B53007A187B0012174E850882850983123C6D03
:103B6300F8A3E0F9E8497003023C0DEEFAEFFB120B
:103B730020C0124BB5607F123C5A64017007123C9F
:103B830041740E8034E064027007123C41740D806E
:103B9300288E828F83A3A3A3A3A3A3124BC670EA89
:103BA300123C347003A3E06960E0123C167003A377
:103BB300E06960D6123C417405124B6754036401FB
:103BC3007007123E9A7405800B900364E0C0E01204
:103BD3003E9AD0E0F0EE240AF508EF123C27123E9D
:103BE300A8123D6DC0E0850882850983E024171281
:103BF3003C30D0E0801985088285098312425585BF
:103C03000882850983E4F0A380051228D97410F093
:103C13000237A21210B88A088B09A808A9099006CE
:103C23001CE068221268C0850882F58322123C5684
:103C3300228E828F83125E7690061CE068228E822B
:103C43008F83A3A3A3A3A3A3A3A3A3A3E0241612D5
:103C53003C5622123EC5228E828F83A3A3A3A3A325
:103C6300A3A3A3A3A3123EBEE022EAF0A3EB123C5C
:103C73007522124EB5E02274F11203E48A0A8B0B0B
:103C83008C088D097A18125DCD7003023D608E8217
:103C93008F837401F0E508240DF8E50912665DC30E
:103CA300E49AFA95E0FB12671A1254CBFB8E828FCB
:103CB30083A3A3A3A31256B88E828F83A3A3F0EE8C
:103CC300FAEFFB120BE48508828509831263FC700B
:103CD300098E828F83A374058006900364123D6866
:103CE300F0EE2417F8EF3400F9880C890D8E828FDB
:103CF30083123D6C850C82850D83F0EE2416F8EF5C
:103D03003400F9E508240EFAE5093400FB888289BA
:103D130083124908E50824100A0AE5093400FB85E3
:103D23000C82850D83E0FC88828983E0F88A828B8C
:103D330083E0C398C39C12500FF0EEFCEFFDAA0A78
:103D4300AB0B1220C6E9F508700AEEFAEFFB120B73
:103D5300F0E9F508EEFAEFFB12175480037508102B
:103D6300A908026B85124A1222A3E0F9120C38E962
:103D730022790102089774F41203E4EAFEEBFF8E42
:103D8300828F83A3A3A3A3A3A3A3A3125C5B126346
:103D9300FC706B123C5A70668E828F83A3A3A3A31D
:103DA300A3A3A3A3E0242B123C30123ED4704F8E66
:103DB300828F83A3A3A3A3A3A3A3A3E0242BF888A5
:103DC300828983123EA8E0F8740168600A74066869
:103DD300600574056870138E828F83A3A3A3A3A3C6
:103DE300A3A3A3A3A3123EDC80138E828F83A3A37A
:103DF300A3A3A3A3A3A3A3A3123EBA7403F0123EE7
:103E030067123613E4F0EE2408F8EF123E63242D14
:103E1300124122C0E0123E8ED0E01256BC242A1278
:103E23004122C0E0123E8EA3D0E01256BC240B12F6
:103E33003C30123EE2123F7B1243F28A0A8B0BACF8
:103E43000AAD0B850882850983E0240612532312E9
:103E53003E80125C57120BF01228D9E9F00229AF09
:103E630012453622EE240A123E6E22123E768882D4
:103E7300F58322F8EF3400F98808890922123E8479
:103E830022121E628508828509832285088285099C
:103E930083123F7FA3A3228E828F83A3A3A3A3A313
:103EA300A3A3A3A3A3123EAC22E0F8123EB3A32222
:103EB300A3E0F583888222123EBE22E0240E123E46
:103EC300C522123EC922F8A3E03400F9888289830F
:103ED30022E0F8124786640522123EBE74022212C3
:103EE3005E7685088285098322124D97740122022A
:103EF3003D74C082C08390031E74BAF0A37420F093
:103F030090032074AEF0A37420F090032274A8F001
:103F1300A37420F090032474B4F0A3742002373BFD
:103F230074F41203E4EAFEEBFF123F88F508121063
:103F3300B88A0A8B0BA80AA90B8E828F83123F7B48
:103F4300E0687003A3E069602CE508A2E550268EC3
:103F5300828F83A3E0FB90031E12361312219D8EE2
:103F6300828F83E0F8A31250E1A3124BC6700612AE
:103F73003F88C2E5F00229AF123F7F22E0FAA3E0B7
:103F8300F5838A82228E828F83123EACA3E0227451
:103F9300F51203E41240E812410F2420F582E912DE
:103FA30070E0FE74035EF50A1248F21228DF124035
:103FB300FA88828983F0A3A882A983E50A60097439
:103FC30002650A6003024059740C5EFF60157408B1
:103FD3006F601074046F701D7402650A7005EEA2A1
:103FE300E4402D8A828B83A3A3A3A3A3A3A3A3E06B
:103FF300242312414A740C6F70101240E3242412DC
:10400300413224241240F512414D7402650A7005B1
:10401300EEA2E440411240E3242612413224261248
:1040230040FFA312415C1240FF12415C1240F512A3
:10403300414DEF600F74086F600A740C6F60057474
:10404300046F70128A828B83A3A3A3A3A3A3A3A346
:10405300E0242212414A8A828B83A3A3A3A3A3A3AE
:10406300A3A31241187005EEA2E150178A828B8335
:10407300A3A3A3A3A3A3A3A3E0242E1248F912414D
:1040830043800E900302124143900302E004124561
:1040930053A3A882A983EEA2E750421240E324214E
:1040A3001240FF12414D8C828D83124118602E8A7B
:1040B300828B83A3A3A3A3A3A3A3A3E024301241CE
:1040C3004AEEA2E150178A828B83A3A3A3A3A3A3DF
:1040D300A3A3E0243112412288828983F0025FEE98
:1040E3001240E8E022EA2408FCEB3400FD8C828DC8
:1040F30083221248FDA322125E76EE22124103228E
:10410300F508A3E03400850882F5832212411322C7
:10411300124F78E822E024211248FDE0540322FAEA
:10412300A3E0124129223400FB8A828B83E022120E
:104133004103124143A3A882A9838C828D83E02289
:10414300E088828983F0221248FD12415122E088DF
:10415300828983F0A308A983221241518C828D8323
:10416300E0242822C082C0838A828B83123F8CF88A
:10417300740358F98A828B83A3A37401F0E9600561
:104183007402697061740C58FC601474086C600FDD
:1041930074046C70137402697005E8A2E4401D8A0C
:1041A300828B83A3A37402F0740C6C700A8A828BD3
:1041B30083A3A3E02402F07402697005E8A2E4403B
:1041C300258A828B83A3A3E02404F0EC600F740898
:1041D3006C600A740C6C600574046C70098A828BC1
:1041E30083A3A3E004F0E8A2E750318A828B83A380
:1041F300A3E004125E7EF9A3E0F5838982A3A3A35F
:10420300E0540360178A828B83A3A3E004F0E8A23F
:10421300E150098A828B83A3A3E004F08A828B8313
:10422300A3A3E00402373BC082C0838A828B83A3AB
:10423300A3A3A3A3A3A3A3A3A3124BC660098A8228
:104243008B83A3A312424D02373CA3A3A3A3A3A32F
:10425300A3A312531D1217542274F71203E4EAFEA8
:10426300EBFF125E6E88828983A3A3A3A3A3A3A3F8
:10427300A3E4F0A3123119A3A3A3A3F0A3F0E812BC
:104283005BFEE9124298122090EEFAEFFB12209C9B
:104293008015F582ED124D97E4F022740C120B3B5E
:1042A300E0F9740D1208E57F01020697EA240BF585
:1042B30082EB22126576240922124D971270FC7547
:1042C3000E00780C2274011245AE1243682274F575
:1042D3001203E474F3120979EAFEEBFF7C087D0014
:1042E3007900851882851983AA82AB831216B812C6
:1042F3003051124935C0E07404120B3BD0E0F07426
:1043030002120B3B74011243FFC0E07405120B3B16
:10431300D0E012493B640170097402120B3BE0D2F6
:10432300E5F012435E120B3BE0702D8E828F8312F9
:104333004F201208CE8E828F83A3A3A3A31246CC51
:10434300740B120B3B124DA01208E58518828519D8
:1043530083AA82AB83122048025FE2851882851903
:1043630083AA82AB8312204E740C2274F71203E4E7
:1043730074FE120979ECFEEDFF7508C88518828575
:104383001983AC82AD8312210EE96401704985184B
:10439300828519831250EE1243E1A3A3E4F0900641
:1043A30032E0601B8E828F83A3A3123ED470108EE3
:1043B300828F83A3A3A3A3A3A3A3A37401800D8EBE
:1043C300828F83A3A3A3A3A3A3A3A3E4F0EEFAEF93
:1043D300FB12207EE9F508A90874020242A71249DC
:1043E300E6A322121E5CE9640122124EADE022A371
:1043F300A3A3A3E8F0A3E9F01210B2221254F4A38A
:10440300E02274F61203E474F4120979EAFEEBFF76
:1044130012305112452CFAA3E0F5838A82A3E0FA05
:104423007402120B3BEA1256BC24021249C37404F1
:10443300120B3B1245FCEA600A7402120B3BE06468
:1044430004701C1245201253237406120B3B1245B1
:10445300261249C37408120B3BE8F0A3E98056E027
:104463006401600AE064066005E064057023124598
:1044730020124122C0E07403120B3BD0E01256BC61
:1044830024131253237406120B3B1256B8241B80B9
:10449300C07406120B3BE4F0A312452C24121253F2
:1044A300237408120B3B124526126572C0E0740A8E
:1044B300120B3BD0E0F07406120B3B124BC6602884
:1044C3007406120B3B125C57120CA4E964017018BA
:1044D3001210B28A088B09AC08AD097406120B3BA3
:1044E300125C5712374C700F851882851983AA8284
:1044F300AB831220D88021851882851983AA82ABC9
:1045030083121AE4E96401700FEEFCEFFD740612E6
:104513000B3B125C57122078740C02379F12453103
:1045230024122212454A241A22F012453122EE2483
:1045330002F8EF12453BE0223400F9888289832296
:1045430012454AF8A3E022EAF0A3EB124553E02216
:10455300F08882898322C082C08374FC1209791295
:1045630045D21245FC8A828B83A3A3E01249C1740E
:1045730002120B3B1245A61220D2740480001208CB
:10458300E502373CC082C08374FD1209791245BA33
:10459300C0E07402120B3BD0E01245AA121622743B
:1045A3000380DBE8F0A3E91245AE22F0851882858B
:1045B3001983AA82AB83228A828B83A3A3A3A3A397
:1045C300A31249B38A828B83A3A3123EACE0228A4F
:1045D300828B83A3A3A3A3A3A31245E0221245E4E2
:1045E30022E0F8A3E0F985188285198322125E760A
:1045F300EE240BF582EF124D971249B622AA82AB35
:10460300831216AC7403221249B69003302274F459
:104613001203E474FB120979EAFEEBFF8E828F83A7
:10462300A3A312410F2409F508E91268C074031209
:104633000B3BAC82AD8388828983A3AA82AB8312AE
:10464300210EE96401706A85188285198374321218
:10465300493524F7C0E07401120B3BD0E0F074023B
:10466300120B3BE41245AA120D768A0A8B0BAE0A93
:10467300AF0BEE4F603B7403120B3B1246B9A3A37F
:104683001243EDC0E0EE24201228DCD0E0F0750ADE
:104693000078081208CEEE126EC7EF1246C9EE2458
:1046A3000B1228DC124DA61208E5EEFAEFFB120DF1
:1046B3007074050229AC125E768E828F8322E50A1E
:1046C3002410F582E50B124D97E0FC7D0022C08299
:1046D300C0831246FD600E24FE600F24FE6010248A
:1046E300FB60118012122072800D12206C80081260
:1046F3002066800312206002373C8A828B83A3A347
:10470300E0F812478624FB22C082C0838A828B830F
:10471300A3A3A3A3A3A3A3A3E070528A828B83A31F
:10472300A3E0F81247826401604312477C6402608D
:104733003C12477C6403603512477C6404602E8A14
:10474300828B83A3A3123ED6602312477C640A6044
:104753001C12477C640B601512477C640C600E12BC
:10476300477C640D60077904121E4A800990032672
:1047730012361312219D02373C8A828B83A3A31224
:10478300478622123EB3E02274F61203E474FA124F
:104793000979EAFEEBFF7403120B3BEEF0A3EFF093
:1047A3007403120B3BAA82AB831220841270DA606B
:1047B300030248ED8518828519837432F07405125B
:1047C3000B3BC082C0838E828F83A3A3A3A3E0D0BD
:1047D30083D082F8E028C0E07401120B3BD0E012D2
:1047E300493BC0E07402120B3BD0E0124920F8A30E
:1047F300E0F9E8496026E82417F582E91228DFC0CA
:1048030082C083E82416F582E91270E0D083D08257
:10481300F8E028F87401120B3BE028F08518828534
:104823001983AA82AB83120D768A088B09A808A97B
:1048330009E84970030248E08E828F83125C57882F
:10484300828983A3A3EAF0A3EB124926A3A3E0C0C2
:10485300E0E82420F582E91228DFD0E0126445C0A5
:10486300E0E82421F582E91228DFD0E0124935C0BF
:10487300E0E8242AF582E91228DFD0E0F07405127B
:104883000B3BE0FA1248F21270E02A125323E82499
:104893002B124B877405120B3BE0C0E0E8242DF587
:1048A30082E91228DFD0E0124920FAA3E0FBEA4BA9
:1048B3006019E8242BFAE91229A2A3A3A3A3A3A3B3
:1048C300A3A3E024161248F91249088E828F83A30A
:1048D300A3A3A3A3A3A3A3E8F0A3E9800CEEFAEF99
:1048E300FB12208A1228D97410F0740602379FE84D
:1048F300240BF582E9221248FD22FCA3E03400FDDB
:104903008C828D8322E0FC8A828B83E02CFCA3E0E3
:104913003400FD8A828B83ECF0A3EDF02212501C4D
:10492300A3E022F0E81266FFE9124D977401124FDB
:104933007F22125013A3E0221249D0E02274F7120F
:1049430003E4EAFEEBFF1270DA701E124976124B93
:10495300C6600612360C12219D1270DA700B125CBF
:104963004B120D701228D9E9F0EEFAEFFB12208AF0
:104973000242AA1220968E828F83A3A3A3A3A3A38A
:10498300A3A3A3A32274F61203E4EAFEEBFF8C08AD
:104993008D09121AD8E9700479018011AC08AD09A8
:1049A300EEFAEFFB90032412361312219D0237A275
:1049B3001245E4E8F0A3E9F022126436E022240170
:1049C300F8A3E03400F9221249D0A3E0221249D41B
:1049D300221249D822124F83A3A3A3A3A3221249CD
:1049E300E6E022E8F0A3E91249EE22124F83A3A3E3
:1049F30022126B66121E6222124B48EEFAEFFB2262
:104A0300E0242B123EC9E022123756124A1222E04A
:104A13008E828F83A322124DEDA3A3A3A32274F648
:104A23001203E474F3120979124B10124B6E120B3A
:104A33003B740CF07405120B3B74011254EF6009C4
:104A43007402120B3B742180077402120B3B740136
:104A53001242CA120B3BE070327408120B3B124A2B
:104A6300B87406124935124B2CEE2402F8EF1245A6
:104A73003B124AA31262D3124AA3A31249CAC0E04B
:104A8300124A9A1228DFD0E012643E740C120B3BD8
:104A9300E0F9740D02379FE508240BF582E509223E
:104AA300124AAEA3A3A3A3A3A3A322E085088285EE
:104AB3000983A3A322124B56880889098882F583A8
:104AC3002274F71203E474F3120979124B10124B98
:104AD3006E120B3B7409F07402120B3B7421F074D9
:104AE30005120B3B1242C8120B3BE0701D740812F7
:104AF3000B3B124B4E7407124B67124B2C851882DB
:104B0300851983AA82AB8312204802429EEAFEEBF8
:104B1300FF7C087D007900851882851983AA82AB02
:104B2300831216B88E828F8322FCA3E0FD888289CC
:104B330083A3AA82AB83121E6222F582EF3400F5AF
:104B430083124B4822E0FCA3E0FD22124B568882DD
:104B5300898322124A03F8A3E0F922124F7E1253EB
:104B63001D227401124F7FA3A3E0221249B37404E0
:104B7300221216B8850882850983A322E0F508A3CB
:104B8300E0F50922F582E9124D97EAF0A3EBF02252
:104B9300124B97221249EE124F7822C082C0831221
:104BA3004BAE745AF0A3742002373B1220A2900339
:104BB30026228E828F83A3A3A3A3A3A3A3A3A3A32A
:104BC3001256D6124113492274F71203E4E9FE1276
:104BD3004BF81228DF124BC6601888828983A3E042
:104BE3005403700EEEFB1248F21228DF124C291206
:104BF3004C230242AAEA125BFEEB22C082C083EA84
:104C0300F8EBF988828983A3A3A3A3A3E0FB88829B
:104C13008983A3A3A3A3124C29A3124C2302373CD9
:104C2300E0F91215E022E0FA88828983A3A32274B3
:104C3300E81203E48A088B098C168D178914741AF9
:104C4300120B3BE0F50AA3E0F50B741C120B3BE0DF
:104C5300F513741D120B3B780C120ADE126283EB00
:104C63001270E0242DFA7B001216CA8A108B11AE43
:104C730010AF11EE4F7003024D748E828F83740157
:104C8300F085081085091175120078101208CE7C82
:104C9300157D00EE2418124D7E1208E58516108549
:104CA300171178101208CE7C097D00EE2402124DF4
:104CB3007E1208E57418120B3B1245F0850A8285B3
:104CC3000B83E0C0E0EE240F1228DCD0E0124DB4D9
:104CD300C0E0EE24111228DCD0E0124DAFC0E0EEAC
:104CE30024101228DCD0E0123A71E513124DD9E4F6
:104CF300F0A3F0124D8D780C120AFCEE2417122843
:104D0300DCE514123764F8A3E0F9EE240D1228DC75
:104D1300124DD31268E21270E06025EE242612537E
:104D230001242DF8124DCB12671C1242BC1208CE7F
:104D33001268E01246C98A828B83124DA61208E5D7
:104D4300EE24191270DD5403601D90031C124BC630
:104D5300600CEEFAEFFB12361612219D8013EEFA69
:104D6300EFFB1216D0800AEEFAEFFB900301124F0D
:104D7300670269317C087D00EE2404FAEF124D844A
:104D8300223400FB1216AC740322EE2413124D944A
:104D930022F582EF124D9B223400F58322E0242B6F
:104DA300123C5612531D1216AC740322124DC2E06C
:104DB30022124DB9E022124DBD22124DC2A322F0A0
:104DC300850A82850B83A322EF3400F98A828B83C1
:104DD3001249B6E50822F0EE2426124D9422F50C72
:104DE300A3E0F50D750E00780C2212375EA3A3A382
:104DF3002274F11203E48A088B097A20124EFA60B6
:104E03006F8E828F837406124F168E828F83A3A3B5
:104E1300A3A31237508E828F83124E80124DE1125C
:104E230008CE7C107D00EE2406124D7E1208E58527
:104E33000882850983A3A3A3124E762416FAEF34BE
:104E430000FB120C9E850882850983A3A3A3A3A359
:104E5300A3A3A3A3A3E0C0E0EE241E1228DCD0E0AA
:104E6300124E90C0E0EE241F1228DCD0E0124E98C0
:104E7300026B85A3A3A3A3A3124B48EE22A3A3A370
:104E8300A3A3124E892212375AA3A3E022F0124A97
:104E93009A1256CC22F0EEFAEFFB900527E0F912B6
:104EA30016D622124D94124EAD22E8F0A3E9124E0B
:104EB300B522F085088285098322124EC122123C55
:104EC30075F8A3E0F98E828F83A3A32274F41203EF
:104ED300E48A088B097A0C124EFA60188E828F834B
:104EE3007408124F16124F0A1208CE124D77120889
:104EF300E5124F600229AF7B001216CA8A0A8B0B98
:104F0300AE0AAF0BEE4F22F508A3E0F509750A00D0
:104F1300780822124EC1124EADA3A3E022A3A3121E
:104F23004B7F750A0078082274F61203E4EAFEEB5D
:104F3300FF7A057B001216CAEA4B601E8A828B83B6
:104F4300740A124F6D8A828B83A3A31249E18A826A
:104F53008B83A3A3A3A3F0124F640237A2EEFAEF4D
:104F6300FB900527E0F91216D622124F7122124F39
:104F730083124F7822E0F8A3E0F922A3124F832291
:104F8300F08E828F8322C082C083E9900C75F090EB
:104F930003187466F0A3740BF090031A7478F0A3EB
:104FA300740BF090031C748AF0A3740B02373B74E8
:104FB300F71203E4EAFEEBFF8908EE4F7003121BBE
:104FC3006890032A124BC6700890032A8022125E4F
:104FD3007288828983A3A3A3A3A3A3A3A3A3125029
:104FE3000988828983A3A3A3A3A3A3A3A3A370DE96
:104FF300EEF0A3EF125018E4F0A312500FA3A3A3F3
:10500300E508F00242AA12531DEA4B221250132262
:105013001249EEA32212501C221254F8A3A32274A5
:10502300F71203E490032A800D8E828F83A3A3A338
:10503300A3A3A3A3A3A31265AAEE4F60348E828F0A
:1050430083A3A3A3A3A3A3A3E06970DD8E828F83AD
:10505300A3A3A3A3E06A7003A3E06B70CC8E828F3B
:1050630083A3A3A3A3A3A3E06C70BEEEFAEFFB801C
:10507300047A007B000242AA74F71203E490032A25
:105083001265AA90032A123032687002EB69701716
:105093001250E1125E7290032A1245FC90032A1209
:1050A30065AA803012659DEE4F60298E828F83A39F
:1050B300A3A3A3A312302E687002EB6970E68A8261
:1050C3008B83A3A3A3A3A3A3A3A3A31250EEA3A37E
:1050D300A31245FC121754EEFAEFFB0242AA123E4A
:1050E300B4A3A3A3A3A3A3A3A3A322125338A3A349
:1050F3002274F01203E474FA1209798A088B098A7C
:10510300828B83A3A3A3A3A3A3A3A3E0600D640142
:1051130060098A828B83125315600579020252FC5F
:10512300850882850983A3A3A3A3A3A3A3A3E06400
:105133000370157404120B3BAC82AD83AA08AB0950
:1051430012210EE9701380D3850882850983125ECC
:10515300727404120B3B1245FC1267041270E024B4
:105163003212532312174E8A0A8B0BAE0AAF0BEE81
:105173004F70030252FA7C327D0079001216B87424
:1051830002120B3BAA82AB83850882850983A3A302
:10519300A3A3A3A3A3A3A3E0F91221267402120BD2
:1051A3003BE0C0E0EE242D1228DCD0E0F0EE242C0E
:1051B300F50AEF3400F50B7403120B3BE0850A820A
:1051C300850B83F07901EEFAEFFB120B5485080C83
:1051D30085090D750E00780C1208CE7C1C7D00EE3F
:1051E300240B124D7E1208E5EE24301253012432B3
:1051F3000808124DCB2411F8E5091270D5FCE9FD1E
:105203008C828D831240FA242E1228DC124DD31285
:10521300569A1268E91208CE8C828D83124B448A07
:10522300828B83124DA61208E57404120B3B1253B2
:10523300341245FC90030212532AF0900302E00457
:105243001256DD242A125C0B750D00850A82850B2C
:1052530083E0780C120A418A828B83E50CF0EE24FA
:10526300291228DCE50C126432E4F0E5082415F574
:1052730082E50912530F74015007120B3B7401802E
:1052830004120B3BE4F0EE2427123E768518828548
:105293001983AA82AB8312160AE924FE8508828544
:1052A3000983F0F508750900EE242E124B3DECF846
:1052B300EDF9AA08AB0912029BE88E828F83A3A3A0
:1052C300A3A3A3A3A3A3F0ECF8EDF9AA08AB0912D7
:1052D300029B8B09EA4509600F8E828F83A3A3A3E8
:1052E300A3A3A3A3A3E004F0EE24201270DD4408DB
:1052F300125C827900800279107406023A8012707F
:10530300D3FAE9FBEE22EE2415F582EF1256CCA276
:10531300E02212531D121154E922E0FAA3E0FB220A
:10532300FAA3E03400FB22124A12A3A3A3A3A3A36C
:105333002212533822124F788E828F83A3A3A3A302
:105343002274F41203E4EAFEEBFF125C03124B8DAA
:10535300900CC2E0F8EE242B1270DDC398400302D8
:1053630054B9125C237015EE242B1270DD04125411
:10537300E7C0E0EE24291228DCD0E0F0EE24281266
:1053830070DDFC7900800109EE242C1231BBE9C3E6
:10539300985026750801750900E97808120A411228
:1053A3005C23550860E1E92CFC750801750900E9E7
:1053B3007808120A41E04508F0EE24271254D4EE8F
:1053C300242E1228DCEC8A088AF0A4F8ABF0E42B34
:1053D300F9E098F8A3E099F9C3E89508E99400EE99
:1053E300403924271231BB125C236037EE242D127F
:1053F30028DC1254E1A3E4F0EC7054EE2420127084
:10540300DD44201243FFC0E0EE24261228DCD0E066
:10541300F0EE24301254D4A3E0805924291228DC5E
:1054230074FFF090035CE0FA900CC5E0F508EA85A0
:1054330008F0A4ABF075F064A4FAADF075F064EB7A
:10544300A42DFB8E828F83A3A3EAF0A3EB80A8EEA7
:1054530024201270DD54DF124DD9ECF08C08EE24B9
:10546300271270DD8508F0A4FAABF0EE2430F58244
:10547300EF1254CBFBEE241EF582EF1254C71254E5
:10548300EFC0E0EE24251228DCD0E0F0EE241C125D
:1054930028DCE81256D190032C124BC6600BECF9B2
:1054A30012361612219DE97018EE240BFAEF340020
:1054B300FB122138800B7BE9EE2422F582EF125692
:1054C300A40229AF12641D221256CC2AFAA3E03B90
:1054D300221254D822F582EF124D9BE0FA22124A8F
:1054E30012A3F022F0EE242A1256C9221254F4E039
:1054F300221254F8221249D8A3A32274F41203E40B
:1055030090032A1265AA1217F68A0A8B0B7CFF7D79
:10551300FF8020E0C398FAA3E099FBC3EA9CEB9DCC
:10552300500E8E828F83A3A3E0C398FCA3E099FD62
:1055330012659DEE4F6059125E6EE50AC398F8E559
:105543000B99F98E828F83125C55C3E89AE99B8E7F
:10555300828F83A3A340BCA3A3A3A3E06402701D13
:10556300EE240B125C26600CEE24101228DC125C75
:10557300571216D0EEFAEFFB120B608007EEFAEF2C
:10558300FB120B6C7A017B00900C751239F88014B6
:1055930074FF6C700374FF6D600A7A017B00900CDA
:1055A300751232090229AF74F01203E48A088B09D9
:1055B300ECFAEDFB890A7C01126704125C158A0C74
:1055C3008B0DAE0CAF0DEE4F7003025697E50A60DC
:1055D30003025697E50812569AE0F8EE2428127053
:1055E300DD686003025697EE242C1254D4E82AF89F
:1055F300E43400F98E828F83A3A3A3A3A3A3A3A35D
:10560300E0FAE89AE99400C365D0334014125934A0
:10561300125C29700C7B001266FDE5091256A4800A
:1056230073125934125C297031EE242C1270DDF997
:10563300EE24291228DC7508FF750900E9780812A1
:105643000A41E508F0EE242A1228DCE5081256C1C7
:1056530029F0EE242B1239ED8022E5082414F8E515
:10566300093400F9E0C0E0EE242A1228DCD0E0126D
:1056730056BCC0E0EE24291228DCD0E01256DD240B
:105683002D1228DC123D68A31256D17A01FB900C2F
:10569300751239F8023A832413F582E509124D97FE
:1056A300221254DBEE2414124D94124C23EEFAEF23
:1056B300FB120B6022EAF0A3EB124553E022F0EE5B
:1056C30024281256C922F582EF124D9BE022F0A343
:1056D300E4F022E0240F123EC522F01217F68E8268
:1056E3008F83EAF0A3EBF0EE2274E81203E474FD77
:1056F300120979E9851882851983F08A0A8B0B8C44
:10570300168D17741B120B3B12592C741D120B3B75
:10571300780C120ADE8A828B83A3A3E0F91215FEAA
:105723008A128B13EA451370077A007B000259270C
:105733007A127B0012174E8A088B09AE08AF09EE66
:105743004F70030259237C127D0079001216B8743E
:1057530001120B3BAA82AB83850A82850B83A3A329
:10576300E0F9122126EE240FF508EF1268C0740247
:10577300120B3BE0850882850983F07902EEFAEF8C
:10578300FB120B54851682851783125334E8F0A35A
:10579300E912596C8E828F83A3A3A3A3A3A3A3F0BF
:1057A3007514FF751500850882850983E078141246
:1057B3000A411228D9E514F0851282851383A3E0E8
:1057C300F8124782C0E0EE240B1228DCD0E0125915
:1057D30076F508EE240D1228DCE508F0125C2EE0C5
:1057E3008508F0A42424FAE5F03400FB1216CA8AD3
:1057F300088B09EE126284EF124B8AEA45097003A3
:105803000259188A828B83741A1256D18A828B8327
:10581300A3A3F0A31259601259491245FCAC16AD6B
:1058230017EA2406FAEB3400FB12161C850A82855C
:105833000B83A3A3A3E0C0E0E508240FF582E509E9
:105843001228DFD0E0F0900379125E72E50824108D
:1058530012593D125983A3125E72E508241212599C
:105863003D124DB4C0E01259341228DFD0E0F0E508
:105873000A125BFEE50B1270E0C0E0E5082415F5A3
:1058830082E5091228DFD0E0125957C0E0E5082469
:1058930016F582E5091228DFD0E01274ECE0C0E0CF
:1058A300E5082417F582E5091228DFD0E01274EC2D
:1058B300A3E0C0E0E5082418F582E5091228DFD04B
:1058C300E01249BCC0E0E5082419F582E509122875
:1058D300DFD0E0F0E508241AF582E5091228DF7825
:1058E3000C120AFCE5082424F8E5093400F9E5085C
:1058F3002422F582E5091245F9E50A1266FFE50B54
:105903001270E0C0E0E508241FF582E5091228DFE4
:10591300D0E0F0800BEEFAEFFB120B607E007F000D
:10592300EEFAEFFB740302692EE0F510A3E0F51124
:1059330022E5082414F582E50922F582E509124DD2
:1059430097E8F0A3E922E0F8A3E0F98A828B83A326
:10595300A3A3A322F0851082851183E02212596448
:1059630022124DBDA3A3A3A322F012670CE50B12D1
:1059730056CC22F0E50A2410F582E50B1256CC2210
:10598300125964A3A3A32274E81203E48A0A8B0BBB
:105993008C108D1189147418120B3BE0F516A3E0DB
:1059A300F517741A120B3B780C120ADE750900EA1C
:1059B3002413F582EB1270E0F50890032C124BC60A
:1059C3006011A90890032C12361312219DE960037C
:1059D300025BFB7C02851082851183125C57126780
:1059E3000CE50B125C158A128B13AE12AF13EE4F3C
:1059F300704B850A82850B83A3E0A2E04003025B20
:105A0300FB780C1208CA78161208D2A914AC10AD90
:105A130011AA0AAB0B120B7E74061208E58A0C8BD3
:105A23000DAE0CAF0DEE4F7003025BFB8E828F83C6
:105A3300A3A3A3A3A3A3A3A3E508125C8285080CD5
:105A43008E828F83A3A3A3A3A3A3A3A3E024FFF81E
:105A5300E434FFF9E8650C7001E97003750901EEA0
:105A6300240B125C267003025BAE850A82850B83CE
:105A7300A3E0A2E05003750800125C62E50C98E411
:105A830099C365D033401EE0F8EE240E1270DD2872
:105A9300F0750CFF750D00E8780C120A41EE125BED
:105AA300FEEF125C1C126713E50B1242BC1208CE08
:105AB3001246C185080CEE240D1270DD850CF0A48E
:105AC300F8A9F0EE24101270DD242212412228FAE4
:105AD300A3E039FB1246041208E5750C01125C3A87
:105AE300780C120A411270DA450CF0E509A2E05075
:105AF30069EE240C125C0B125C3A04780C120A4116
:105B03008A828B83E0450C125C7A85080C850CF045
:105B1300A4F8E50A126284E50B1270E0FCE82CFCA1
:105B2300E5F03400FDEE24101228DC125C5B125EFB
:105B33007AF47026EE240BF50CEF3400F50DEE2409
