:020000040000FA
:06000000020B0602026281
:03002B0002096A5D
:030053000201881F
:03006B0002047A12
:100083000201EF0101FF01010503010F10FEFF460D
:1000930015461546154615FC13F61346157B230026
:1000A300000000DD23000000000C0000000C000134
:1000B300FFFF0101010027050000009E05B80102B2
:1000C30002000800000502070401051E02051E02C6
:1000D3000A0A03B80B02803E010201FFFF010A0175
:1000E3001401E096511800020206FF010900EF58BF
:1000F3000C520D0006F01FF61FFC1F02200000002B
:1001030000000000000000000000000000000000EC
:10011300000000F01FF61FFC1F0820000000000075
:1001230000000000000000000000000000000000CC
:1001330000F01FF61FFC1F0E20000000000000004F
:10014300000000000000000000000000000000109C
:10015300202020202020202020202020202020209C
:100163000110040100010005758001DC8011040108
:1001730000010005758001DC801204010001000507
:10018300758001DC80C0E074F11204DBA2AFE433BC
:10019300FED2AFE5A7FFE5A1F5085FF50974105599
:1001A300096006121C5475A1EF7408550960081202
:1001B3001C5A75A1F7802BEFA2E0C0D0E508A2E09E
:1001C30092F0120A9F158182F05017906198E0F81F
:1001D30090066AE0C398A2D265D0335002E8F07566
:1001E300A1FEEEA2E092AF7F0202053AC0E074F2F4
:1001F3001204DBA2AFE433FED2AF9061A4E0F87542
:100203009B00E59158540860087591F7121C9C8077
:100213002AE59158541060087591EF121CA2801BB7
:10022300E8A2E0C0D0E591A2E092F0120A9F158106
:1002330082F05007E0C2E0F0121DDA9061A3E0F80B
:10024300E5E9585404600E121DB075E9FB90619303
:10025300E0A2E640F2EEA2E092AF7F0102053AC0CF
:10026300E074F21204DBA2AFE433FED2AF9061A5D7
:10027300E0F8E5BF585404600675BFFB121DEC801F
:10028300D4C3E498F8E499F91202C58026C3E49A2A
:10029300FAE49BFBE920E7E91202C5E498F8E49944
:1002A300F922C3E498F8E499F91202C5E498F8E452
:1002B30099F9C3E49AFAE49BFB22EB20E7CFE92008
:1002C300E7E0B90010BB0008E88AF084F8AAF0223E
:1002D300E4FBC8FA22EB70227B10C833C8C933C9C8
:1002E300335007C39AC3DBF280069A50012ADBEA34
:1002F300C833F4C8C933F4C9FA2275F008E4C83323
:10030300C8C933C933C99AC99B5004C92AC93BD543
:10031300F0ECFBC833F4C8E4C9FA22080808EAC0C1
:10032300E0EBC0E086F0E7A4FA180986F0E7A42A18
:10033300FA180986F0E7A42AFA180986F0E7A42A2E
:10034300FA1986F0E7A4FBE5F02AFA190886F0E724
:10035300A42BFBE5F03AFA190886F0E7A42BFBE59A
:10036300F03AFA18180986F0E7A4C5F02BFBE43A33
:10037300FA1908E7C5F0C6A426F6E5F03BFBE43A14
:10038300FA1886F0E7A4F6E5F00826F6E43B08F64B
:10039300E43A08F6D0E0FBD0E0FA22E4CFC0E0E490
:1003A300CEC0E0E4CDC0E0E4CCC0E075F020C3E60D
:1003B30033F608E633F608E633F608E633F618189C
:1003C30018EC33FCED33FDEE33FEEF33FFC3EC9754
:1003D30009ED9709EE9709EF97191919400FFFECEB
:1003E30097FC09ED97FD09EE97FE191906D5F0BEA6
:1003F300ECF709EDF709EEF709EFF7191919D0E052
:10040300FCD0E0FDD0E0FED0E0FF222518C582C07D
:10041300E0E51934FFC583C0E0E518C3958224F8ED
:1004230010AF088583198582188008858319858212
:1004330018D2AFCEF0A3E520F0A37808E608F0A326
:10044300DEFAEFF0A3E58124FAF8E608F0A3E60864
:10045300F0A3E608F0A30808E608F0A3E608F0A373
:1004630015811581D0E0FED0E0F815811581158145
:10047300E8C0E0EEC0E022C0E074F21204DBA2AFF9
:10048300E433FED2AF900C56E4F0E589A2E45006C3
:1004930053ABEF7401F0E589A2E5500753ABDFE0FE
:1004A300D2E1F0E589A2E6500753ABBFE0D2E2F018
:1004B300E06016900C57E004F07C147D007A107B0A
:1004C30000900C58E0F9121810758900C2C5EEA20D
:1004D300E092AF7F0102053AC0D02518C582C0E083
:1004E300E51934FFC583C0E0E518C3958224F310F2
:1004F300AF0885831985821880088583198582183A
:10050300D2AFC8F0A3E9F0A3EAF0A3EBF0A3790814
:10051300E709F0A3D8FAECF0A3EDF0A3EEF0A3EF14
:10052300F0A3D0E0F0A3D0E0F0A3D0E0F0A3E52067
:10053300F0A3E5F0F0A322851983851882E0C0E0DB
:10054300A3E0F9A3E0FAA3E0FBA37808E0F608A38D
:10055300DFFAE0FCA3E0FDA3E0FEA3E0FFA3E0C01D
:10056300E0A3E0C0E0A3E0F5D0A3E0F520A3E0A37F
:10057300F5F010AF088583198582188008858319E3
:10058300858218D2AFD082D083D0E0F8D0E0321287
:100593000B68B900030205D4E49003017874790A67
:1005A3008002F0A3D8FCD9FA900C74AA82AB839092
:1005B3000086780379028015E493A3AC82AD838A25
:1005C300828B83F0A3AA82AB838C828D83D8E9D9F3
:1005D300E77582697583B474041208C97582E2757C
:1005E300832174001208C9E80375F0108E1A8F1B5B
:1005F30085821F85831E851882851983E0CEA3E03B
:10060300CF851F82851E83EBC9EAC8EDCBECCAC335
:10061300E833C8E933C9EA33CAEB33CBC3EA9EF5FF
:100623001DEB9FF51CB35004AB1CAA1DEC33CCEDA2
:1006330033CDD5F0DAAE1AAF1B22D083D082ECC013
:10064300E0EDC0E0E493A3FCE493A3FDED4C600D67
:10065300120715EC24FFFCED34FFFD80EFE493A3B8
:10066300FCE493A3FDED4C600D1207B2EC24FFFCF8
:10067300ED34FFFD80EFD0E0FDD0E0FCE493A3C0B8
:10068300E0E493C0E022D083D082E9C0E0E493A306
:10069300C386F0C5F095F0F908E493A386F0C5F09E
:1006A30095F0700BE493A3C3994005E9048002A37A
:1006B300E475F002A42582F582E5F03583F583D055
:1006C300E0F9E493A3C0E0E493C0E02285198385B5
:1006D3001882E0A3FEE0A3F5207808E0A3F608DF84
:1006E300FAE0A3FFE0A3C0E0E0A3C0E0E0A3C0E022
:1006F300E0A3C0E0E0A3C0E010AF088582188583C3
:10070300198008858218858319D2AFD083D08202DD
:1007130008CFC0E0C3E49396087401939618400F82
:10072300E49366700808740193661870007019A347
:10073300A3C3E49396087401939618A3A3400DD022
:10074300E0D0E0D0E0020679A3A3A3A3A3A3D0E063
:10075300227404800474028000CCC0E0EDC0E0E5A4
:1007630018C39CCCAD1950011D10AF068C188D1900
:1007730080068C188D19D2AF12084BD0E0FDD0E063
:10078300FC2274028000CCC0E0EDC0E0E518C39CFD
:10079300CCAD1950011D10AF068C188D1980068C35
:1007A300188D19D2AF120829D0E0FDD0E0FC22C089
:1007B300E0C0F088F0E4936670080874019366184B
:1007C3007000A8F0A3A3700BD0F0D0E0D0E0D0E08D
:1007D300020679A3A3D0F0D0E022D083D082CCC08C
:1007E300E0E493A3600612088B1470FAE493A36009
:1007F3000612099B1470FAD0E0FCE493A3C0E0E472
:1008030093C0E022A2E792D65002F40430F70663C5
:10081300F0FF05F0B3400384800384F40430D6056D
:1008230063F0FF05F022CAC0E0E493A3C582CCC500
:1008330082C583CDC583F0A3C582CCC582C583CDD4
:10084300C583DAE5D0E0CA22CAC0E0E0A3C582CC02
:10085300C582C583CDC583F0A3C582CCC582C583BC
:10086300CDC583DAE6D0E0CA227009080808226001
:1008730016181818C6C333C608C633C608C633C607
:1008830008C633C6D5E0EA22C0E0E493A3D39C5064
:1008930010E493A3C39C400AD0E0D0E0D0E0020769
:1008A300FAA3A3A3D0E022C008C3E096F50808A3E7
:1008B300E096420808A3E096420808A3E09645089C
:1008C3007001D3D00822C09FF59FE473D09F22D03C
:1008D30083D082C09FE493C0E0740193C0E07402AC
:1008E30093F59F227404800A7403800674028002C5
:1008F3007401C0E0F404120902D0E0120B43222574
:1009030018F58210AF08F518400215198008F5187C
:1009130040021519D2AF85198322C0D0251810AF14
:1009230008F518500205198008F51850020519D268
:10093300AFD0D022BB0102E722C082C08389828A62
:1009430083BB0003E08002E493D083D0822260164D
:10095300080808C6C313C618C613C618C613C61894
:10096300C613C6D5E0EA22C0E0C0D0E8C0E0E5A8DF
:10097300D2AFC2C7A2E792AFD0E0F8D0D0D0E03276
:10098300C3E0C696F608A3E0C696F608A3E0C696AB
:10099300F608A3E0C696F622C0E0E493A36C7009C0
:1009A300D0E0D0E0D0E00207FAA3A3D0E0222518DC
:1009B30010AF08F518400215198008F51840021504
:1009C30019D2AF22E76670100809E766700A0809B2
:1009D300E76670040809E76622C3E09608A3E09679
:1009E30008A3E09608A3E096A2D265D03322E0667E
:1009F300701008A3E066700A08A3E066700408A3F9
:100A0300E06622C3E096F008A3E096F008A3E09620
:100A1300F008A3E096F022E026F008A3E036F00801
:100A2300A3E036F008A3E036F022E026F608A3E0C0
:100A330036F608A3E036F608A3E036F622E627F6F4
:100A43000809E637F60809E637F60809E637F62215
:100A5300E657F60809E657F60809E657F60809E6E1
:100A630057F622E056F608A3E056F608A3E056F63A
:100A730008A3E056F622E056F008A3E056F008A3D8
:100A8300E056F008A3E056F022700422600D18C669
:100A9300C333C608C633C6D5E0F41822C0E0E8C0A5
:100AA300E0E58124FCF8E6A2E7D0E0F8D0E022E616
:100AB30047F60809E647F60809E647F60809E64750
:100AC300F622E4C396F608E496F608E496F608E4FC
:100AD30096F622C6F4C608C6F4C608C6F4C608C607
:100AE300F4C622C3E09608A3E09608A3E09608A301
:100AF300E09622C3E7960809E7960809E7960809EE
:100B0300E7962275D00075814075180175190300A9
:100B1300020592E0F608A3E0F608A3E0F608A3E0D6
:100B2300F622600C08C6C313C618C613C6D5E0F474
:100B330022E6F008A3E6F008A3E6F008A3E6F02215
:100B4300CAC0E0E6F0A308DAFAD0E0FA22E0FAA39A
:100B5300E0FBA3E0FCA3E0FD22EAF0A3EBF0A3ECAF
:100B6300F0A3EDF022E5C754F84401F5C77901225B
:100B73002518F582E43519F58322C2AF75D69F0295
:100B83000000221208D23250001208D25B50001229
:100B930008D2CB50001208D22451001208D29D5122
:100BA300001208D2ED53001208D2A755001208D242
:100BB3005356001208D29557001208D2335A001226
:100BC30008D2395D001208D2465D001208D2D45D06
:100BD300001208D2865E001208D2CE5E001208D23E
:100BE3002E5F001208D24A5F001208D27E5F001205
:100BF30008D2B35F001208D29C60001208D2516180
:100C0300001208D2A663001208D2F364001208D2BD
:100C13009665001208D22366001208D259660012A4
:100C230008D20B67001208D2DD67001208D2986958
:100C3300001208D2EC69001208D2206A001208D20E
:100C43009B6A001208D2756B001208D2336C001233
:100C530008D2786C001208D2906C001208D2276D6B
:100C6300001208D2986F001208D2AD71001208D298
:100C7300CB71001208D2E971001208D2C3720012BC
:100C830008D2E175001208D20080021208D2358022
:100C9300021208D25B80021208D29580021208D297
:100CA300A780021208D2F980021208D25A810212D6
:100CB30008D2E481021208D28882021208D2D082BA
:100CC300021208D20A83021208D22783021208D220
:100CD3004C83021208D29E83021208D2B7830212F7
:100CE30008D2DD83021208D2FC83021208D23784B1
:100CF300021208D27B84021208D2A284021208D202
:100D0300F384021208D2A385021208D25B86021270
:100D130008D22387021208D2E387021208D2278857
:100D2300021208D24C88021208D28F88021208D20B
:100D3300DC88021208D2348A021208D2BA8A02125A
:100D430008D2D88A021208D2028B021208D21C8B54
:100D5300021208D22B8B021208D2368B021208D24F
:100D6300F68B021208D24F8C021208D2118D021296
:100D730008D2198D021208D2918D021208D2E08D89
:100D8300021208D2268E021208D2678E021208D2ED
:100D9300F78F021208D2AF90021208D21B910212EF
:100DA30008D24692021208D25792021208D2CD926A
:100DB300021208D25F93021208D2B793021208D22A
:100DC3007794021208D29E94021208D2BC940212A3
:100DD30008D2CE94021208D22195021208D25E954F
:100DE300021208D26B95021208D2EE96021208D2B2
:100DF3004398021208D25C98021208D29899021200
:100E030008D2339A021208D26C9A021208D2B89A04
:100E1300021208D2D49B021208D21D9E021208D2DB
:100E2300289E021208D2339E021208D23D9E02125D
:100E330008D2489E021208D2629E021208D26C9E09
:100E4300021208D2769E021208D2819E021208D2A2
:100E5300A99E021208D2049F021208D2289F0212EE
:100E630008D24C9F021208D2AA9F021208D2EE9F08
:100E7300021208D20AA0021208D281A0021208D2DA
:100E8300B9A0021208D205A1021208D262A102126D
:100E930008D21CA2021208D200A4021208D259A43A
:100EA300021208D289A5021208D2AFA5021208D2F3
:100EB30038A7021208D2B4AA021208D286AC0212D0
:100EC30008D24FAE021208D2FCAE021208D267B0AB
:100ED300021208D206B1021208D253B1021208D28A
:100EE300BDB1021208D2CCB1021208D253B402121D
:100EF30008D205B6021208D272B6021208D251B74E
:100F0300021208D26AB8021208D2E7B9021208D252
:100F130006BA021208D25BBA021208D260BB0212EE
:100F230008D288BB021208D2E0BB021208D2BFBCAF
:100F3300021208D203BD021208D24EBD021208D219
:100F4300B9BD021208D2FABE021208D25EBF021263
:100F530008D2ACC0021208D20CC3021208D23DC39D
:100F6300021208D2F5C4021208D24AC5021208D2EC
:100F73004EC6021208D2EBC6021208D244C70212AE
:100F830008D2F7C7021208D299C8021208D239C987
:100F9300021208D2DEC9021208D2E280011208D27C
:100FA3002181011208D26883011208D2B28301128F
:100FB30008D2CD84011208D23D85011208D2728570
:100FC300011208D2E686011208D26989011208D2F9
:100FD300928A011208D2288B011208D2309401128E
:100FE30008D2C594011208D2AC97011208D29F9877
:100FF300011208D20099011208D21C9A011208D2D8
:10100300019C011208D2129E011208D27C9E011289
:1010130008D24E9F011208D205A0011208D20FA0D8
:10102300011208D23DA0011208D2FAA0011208D27F
:10103300D1A1011208D298A2011208D24AA3011227
:1010430008D273A3011208D295A3011208D2EBA50B
:10105300011208D2C3A6011208D207A7011208D2AF
:101063006FA7011208D227A8011208D259A80112AA
:1010730008D29DA8011208D2D3A8011208D21FA931
:10108300011208D274A9011208D279A9011208D257
:10109300CCA9011208D2F1A9011208D200AB0112A6
:1010A30008D264AB011208D2D4AB011208D260ACEF
:1010B300011208D22DAF011208D211B0011208D2C9
:1010C30094B1011208D2CAB3011208D278B4011242
:1010D30008D228B5011208D269B7011208D20CB898
:1010E300011208D253B8011208D2FFB9011208D273
:1010F30013BA011208D21DBA011208D245BA01125D
:1011030008D251BA011208D270BA011208D255BCE2
:10111300011208D28CBC011208D296BC011208D26B
:10112300A0BC011208D2FBBC011208D245BD0112BA
:1011330008D24DBE011208D2A4BE011208D2F3BFD9
:10114300011208D237C0011208D2DFC0011208D23F
:10115300C2C1011208D26DC2011208D2B9C3011271
:1011630008D2B7C4011208D25DC5011208D2EDC579
:10117300011208D204C6011208D23BC6011208D2DA
:1011830045C6011208D250C6011208D26EC601121A
:1011930008D2B2C6011208D20FC7011208D234C74F
:1011A300011208D24EC7011208D2DAC7011208D2BF
:1011B300F7C8011208D264C9011208D24BCA01123E
:1011C30008D272CA011208D2E6CA011208D261CB50
:1011D300011208D265CC011208D25BCD011208D2EC
:1011E3000ACE011208D21DCF011208D2B9CF0112C3
:1011F30008D246D0011208D224D1011208D25CD100
:10120300011208D2B4D1011208D27DD2011208D240
:101213009ED2011208D225D3011208D249D301125A
:1012230008D26BD3011208D2B4D3011208D2CAD5A3
:10123300011208D2B1D6011208D262D7011208D224
:1012430098D9011208D2E8D9011208D228DA01127A
:1012530008D26ADA011208D2C6DA011208D2F4DA25
:10126300011208D218DB011208D26BDB011208D27B
:1012730099DB011208D2D2DB011208D227DC01125A
:1012830008D28DDC011208D2E1DD011208D204E09C
:10129300011208D271E0011208D29AE0011208D2B9
:1012A30025E1011208D28CE1011208D2D7E1011223
:1012B30008D2FBE1011208D21FE2011208D27AE23E
:1012C300011208D295E2011208D24EE3011208D2AC
:1012D30088E3011208D22E8B041208D2668B041203
:1012E30008D2878B041208D2C98B041208D22F8C20
:1012F300041208D2398C041208D2498C041208D281
:101303007E8C041208D2C78F041208D27191041282
:1013130008D27193041208D2A2CA021208D2E8CAF0
:10132300021208D2C8CB021208D2CACC021208D2C7
:10133300CDCD021208D259CF021208D2B7CF021272
:1013430008D274D0021208D292D1021208D203D268
:10135300021208D23FD2021208D28DD2021208D250
:1013630097D2021208D2DBD2021208D237D302126A
:1013730008D2D2D3021208D24FD4021208D21ED5F9
:10138300021208D2B7D5021208D2D7D5021208D258
:101393000DD6021208D23ED6021208D2FFD602128E
:1013A30008D20FD7021208D263D7021208D27ED70F
:1013B300021208D290D7021208D299D7021208D289
:1013C300F3D7021208D24FD8021208D29BD80212C6
:1013D30008D2B6D8021208D2E7D8021208D204D92A
:1013E300021208D210D9021208D284DA021208D2E9
:1013F3009DDA021208D204DB021208D217DB0212B2
:1014030008D225DB021208D2D9DB021208D2BDDCD6
:10141300021208D2C3DD021208D24DDE021208D234
:1014230057DE021208D2C4DE021208D2DBDE021239
:1014330008D20DDF021208D246DF021208D270DF93
:10144300021208D2D1DF021208D2F1DF021208D24F
:101453000FE0021208D255E0021208D27BE1021219
:1014630008D2C8E1021208D2F7E1021208D26DE2F3
:10147300021208D295E2021208D2CEE2021208D278
:10148300DCE2021208D234E3021208D283E302122E
:1014930008D2C2E3021208D2F2E3021208D21EE417
:1014A300021208D229E4021208D247E4021208D237
:1014B30009E5021208D213E5021208D24EE5021220
:1014C30008D264E5021208D2B9E5021208D2CDE5CA
:1014D300021208D2DBE6021208D2EEE6021208D2AA
:1014E30003E7021208D2A5E7021208D228E8021283
:1014F30008D2E6E8021208D2F1E8021208D21DEA85
:10150300021208D239EA021208D28BEA021208D276
:10151300CAEA021208D2DFEA021208D241EB02122F
:1015230008D2D0EB021208D21BEC021208D26CEEE6
:10153300021208D2EAEE021208D25FEF021208D2B8
:1015430081F1021208D299F1021208D29CF102121F
:1015530008D2A8F1021208D2BCF1021208D2C4F1D7
:10156300021208D2F7F1021208D2A7F2021208D22D
:101573001DF3021208D290F3021208D244F40212AD
:1015830008D2F9F4021208D218F5021208D2B8F5FB
:10159300021208D2C4F5021208D2EFF5021208D2E1
:1015A300F2F5021208D25CF6021208D284F7021294
:1015B30008D25CF8021208D2E7F8021208D200FA45
:1015C300021208D2BDFA021208D2F6FA021208D2A7
:1015D30027FB021208D2E5FB021208D215FC021205
:1015E30008D2F0FC021208D289FD021208D214FEBE
:1015F300021208D2C5FE021208D248FF021208D214
:101603007AFF021208D2314A001208D2FF75001283
:1016130008D26476001208D2A176001208D2F076BE
:10162300001208D2DA78001208D2C17A001208D266
:10163300FA7D001208D2207E001208D2387E0012F2
:1016430008D2A17E001208D2DD7E001208D20A7FE2
:10165300001208D23C7F001208D29A7F001208D2EF
:10166300D44F001208D27E80041208D2B080041234
:1016730008D20881041208D28282041208D29E8200
:10168300041208D2D982041208D26083041208D249
:10169300B083041208D27D84041208D28185041217
:1016A30008D2D585041208D25086041208D2B18616
:1016B300041208D2F286041208D29D87041208D2BB
:1016C300BB88041208D2F188041208D23C890412A0
:1016D30008D28389041208D20D8A041208D2B28A6E
:1016E300041208D2A89B041208D2EE9B041208D25B
:1016F300589C041208D2799C041208D2199D041232
:1017030008D2239D041208D2709D041208D2959D1D
:10171300041208D2F59D041208D28B9E041208D23B
:10172300C39E041208D21C9F041208D2789F04128D
:1017330008D2A69F041208D22EA0041208D273A0C6
:10174300041208D2B2A0041208D2F7A0041208D2DD
:1017530009A1041208D21BA1041208D23AA104124F
:1017630008D243A1041208D2EFA1041208D22FA277
:10177300041208D262DD041208D28FD0041208D2F8
:10178300C5D0041208D20ED1041208D25BD20412BF
:1017930008D2F6AA031208D26FAC031208D230AEF5
:1017A300031208D26CAE031208D2F3B1031208D2AB
:1017B30039B2031208D24EB4031208D220B5031271
:1017C30008D2CCB5031208D277B7031208D2C1B935
:1017D300031208D2DDBC031208D2EBBC031208D2F9
:1017E300C6BD031208D2D9C1031208D2D6DF041230
:1017F30008D25CE1041208D272E1041208D221C3B8
:10180300041208D234C3041208D2D2C3041208D279
:1018130014C4041208D239C4041208D27EC40412B8
:1018230008D2B7C4041208D2E8C4041208D25BC6B3
:10183300041208D235DE041208D26BDE041208D279
:1018430087DE041208D2C9DE041208D2D9DE0412DC
:1018530008D26CC2031208D2BEC2031208D22DC32F
:10186300031208D224C4031208D2A8C4031208D254
:101873006FC5031208D284C5031208D2CEC5031262
:1018830008D21DC6031208D26FC6031208D282C63D
:10189300031208D2CEC6031208D2C9C8031208D253
:1018A3004BC9031208D275C9031208D2BEC9031269
:1018B30008D286CB031208D201CC031208D28ECCF5
:1018C300031208D2A1CC031208D2F0CC031208D21F
:1018D30006CD031208D21DCD031208D24CCD03123C
:1018E30008D26DCD031208D246CE031208D2A9CE78
:1018F300031208D2F5CE031208D2F8CF031208D28E
:1019030066D2031208D292D2031208D216D303125C
:1019130008D286D3031208D2A9D3031208D2E3D381
:10192300031208D251D4031208D207D5031208D2E6
:101933002CD5031208D236D5031208D246D503128A
:1019430008D2C9D5031208D2E4D5031208D206D6A9
:10195300031208D232D6031208D26DD6031208D26C
:101963007CD6031208D2BDD6031208D226E0041295
:1019730008D23EE0041208D22394041208D27294CF
:10198300041208D22496041208D2D997041208D25A
:101993002198041208D21D99041208D2749A0412D1
:1019A30008D2969A041208D2F29A041208D2749BAF
:1019B300041208D2E2D6031208D20DD7031208D2BA
:1019C300F0D7031208D272D8031208D2DCD803125C
:1019D30008D228D9031208D296D9031208D221DAE1
:1019E300031208D2AFDA031208D2E2DA031208D2E2
:1019F300D6DF031208D27BE1031208D237E20312C7
:101A030008D274E2031208D2C0E4031208D234E508
:101A1300031208D233E6031208D20CE7031208D2EA
:101A230086E7031208D240E8031208D2FFE8031244
:101A330008D26BE9031208D212EA031208D26FEA42
:101A4300031208D22CED031208D2ECED031208D2D4
:101A530051EE031208D2FBEF031208D2B8F00312BF
:101A630008D217F2031208D23EF3031208D2D9F3B5
:101A7300031208D2D4F4031208D2D2E3011208D21B
:101A83005AE4011208D2CDE4011208D221E5011271
:101A930008D25CE5011208D2E9E5011208D205E794
:101AA300011208D257E7011208D2B5E7011208D292
:101AB300F8E7011208D26DE8011208D2B7E8011263
:101AC30008D236EA011208D209EB011208D25FEB01
:101AD300011208D255EC011208D202ED011208D20C
:101AE3002DED011208D24CED011208D25CED01126A
:101AF30008D262EE011208D226EF011208D207F1D2
:101B0300011208D26DF1011208D284F1011208D238
:101B1300DAF2011208D257F3011208D2C6F3011206
:101B230008D24FF4011208D293F4011208D25AF6E4
:101B3300011208D232F7011208D26EF8011208D24C
:101B430027F9011208D258FA011208D287FA0112B2
:101B530008D261FB011208D230FC011208D289FCC1
:101B6300011208D2A1FC011208D2A1FD011208D270
:101B73002FFE011208D240CE041208D2FFCE041267
:101B830008D2B8CF041208D21ED0041208D2EDB482
:101B9300041208D256B6041208D27CE1041208D209
:101BA300DBD6041208D2E9D6041208D296E1041255
:101BB30008D260FF031208D270FF031208D27CFF21
:101BC300031208D2C9FF031208D264DC041208D23C
:101BD300E5DC041208D249DD041208D2F5FF011234
:101BE30008D2F8FF011208D2EA7F001208D2FA7F66
:101BF300001208D23AE1041208D2DBAB041208D275
:101C030030AC041208D204AE041208D236AE041269
:101C130008D25DAE041208D271AE041208D28AAEA5
:101C2300041208D2B9AF041208D295D8041208D20C
:101C3300B9D8041208D2D2D8041208D205D9041292
:101C430008D236D9041208D264D9041208D2C6D9EC
:101C5300041208D2D5D9041208D2DFD9041208D24B
:101C6300ECD9041208D22BC9041208D268C9041291
:101C730008D277C9041208D296C9041208D2FEC941
:101C8300041208D207CA041208D266CA041208D280
:101C93008ACA041208D27DCB041208D28ACB04125A
:101CA30008D29BCB041208D2FEE0041208D21BE137
:101CB300041208D258A2041208D29EA2041208D217
:101CC300FDA3041208D20AA4041208D21DA404120C
:101CD30008D23CA4041208D252A4041208D266A467
:101CE300041208D2DBA4041208D240A5041208D2BD
:101CF300F0A5041208D2C5A6041208D2D5A6041270
:101D030008D2E4A6041208D2EADE041208D20FDFD6
:101D1300041208D238DF041208D260DF041208D29A
:101D2300C2D2041208D2E9D2041208D265D3041233
:101D330008D2C9CB041208D2E2CB041208D2EECBEC
:101D4300041208D202CC041208D220CC041208D206
:101D53002ACC041208D234CC041208D247CC041281
:101D630008D29FCC041208D2D6CC041208D204CDD8
:101D7300041208D252CD041208D29FCD041208D205
:101D8300BACD041208D2C4CD041208D2F6CD04127F
:101D930008D285DF041208D20FF6031208D239F6EF
:101DA300031208D255F6031208D268F6031208D2BA
:101DB300A7F6031208D228F7031208D260FB031216
:101DC30008D28AFC031208D2BDFC031208D20AFD12
:101DD300031208D232FE031208D25AFE031208D2AB
:101DE3007DFE031208D2C1FE031208D222FF0312A2
:101DF30008D232FF031208D231DB041208D24CDBC3
:101E0300041208D275DB041208D28FDB041208D245
:101E1300B4DB041208D2D3DB041208D2EBDB0412C6
:101E230008D219DC041208D233DC041208D274E09D
:101E3300041208D283BF041208D28ABF041208D244
:101E4300BFC0041208D2EEC0041208D25CC104124F
:101E530008D2EFC1041208D228C2041208D271C2F8
:101E6300041208D2A1C2041208D2C1C2041208D2B9
:101E7300F6D9041208D20EDA041208D22BDB0412AC
:101E830008D22EDB041208D2E0FE011208D23FFF73
:101E9300011208D295FF011208D2D6FF011208D20F
:101EA3000080031208D21B80031208D29080031211
:101EB30008D21981031208D2A881031208D2C4815F
:101EC300031208D26E84031208D21D87031208D2AC
:101ED300BB88031208D2068A031208D2D38F0312D7
:101EE30008D2CF90031208D24591031208D211925F
:101EF300031208D2B592031208D21894031208D21F
:101F0300B894031208D20295031208D274950312EF
:101F130008D21D96031208D2EA96031208D25097EC
:101F2300031208D25598031208D21299031208D249
:101F3300AF99031208D2069C031208D29A9C03128B
:101F430008D2169D031208D2A29F031208D29DA0A5
:101F5300031208D2CCA0031208D28BA2031208D218
:101F63005FA4031208D255A5031208D243AA031291
:101F730008D268C6041208D28DC6041208D219C743
:101F8300041208D2D9C7041208D29EC8041208D278
:101F9300FFC8041208D2E4BB041208D2A5BC041281
:101FA30008D214BD041208D239BD041208D2F4BDFC
:101FB300041208D2BAE0041208D2DAD4041208D206
:101FC30022D5041208D259D5041208D2D7D5041247
:101FD30008D282D6041208D288D6041208D2A5D613
:101FE300041208D22EB8041208D2D7B8041208D2A9
:101FF3009BBA041208D29EBA041208D2E2BA04129F
:1020030008D2E5BA041208D2F0BA041208D2FBBA15
:10201300041208D20CBB041208D29BBB041208D2D0
:1020230095B0041208D2BBB0041208D206B1041250
:1020330008D222B1041208D253B1041208D263B1F8
:10204300041208D270B1041208D27DB1041208D26E
:1020530060B2041208D29EB2041208D2A8B20412CB
:1020630008D2C7B3041208D2D2B3041208D2E4B31D
:10207300041208D2EDB3041208D2F7B3041208D243
:102083001DA7041208D2CDAB041208D2CCFF031251
:1020930008D2E949001208D23448001208D2B447E2
:1020A300001208D27A47001208D2BA46001208D2A8
:1020B3003046001208D20246001208D2AE44001283
:1020C30008D21744001208D27A43001208D20543FB
:1020D300001208D2D342001208D21042001208D2D2
:1020E3003B40001208D2CC3F001208D29E3F0012A0
:1020F30008D29B3F001208D2223E001208D2233D91
:10210300001208D2ED3B001208D2313B001208D274
:10211300A73A001208D2AD39001208D2784F001244
:1021230008D29D4E001208D2DB4C001208D2A74CF5
:10213300001208D2744C001208D20939001208D2D6
:102143005038001208D21338001208D2474C00123C
:1021530008D25937001208D22337001208D2CA36E0
:10216300001208D28036001208D26D4B001208D23A
:102173000080041208D22136001208D2F035001272
:1021830008D2B832001208D27832001208D26C3268
:10219300001208D2CC31001208D20C31001208D23E
:1021A300852E001208D2162C001208D2D42B00124E
:1021B30008D2A82A001208D25D2A001208D299294F
:1021C300001208D2DC28001208D2AC28001208D270
:1021D300CA4A001208D27228001208D2BBFF0200BA
:1021E300000080FBE4738F000100D00C8700010026
:1021F300CE0C240002001606250002001806260055
:1022030002001A0627000200AE0C28000100B00CE1
:1022130029000100B10C84000400B20C8600010007
:10222300B60C2A000100B70C2B000100B80C2C00DF
:102233000100BC0C2D0008001E062E000100BD0C81
:102243002F000100BE0C30000100BF0C3100010063
:10225300C00C3200010026063300010027063400BB
:102263000100C10C36000100280638000100C20C31
:1022730039000100BB0C83000200CC0C6300010099
:10228300320664000100B90C65000100BA0C6D0050
:102293000100CB0C6E0002001C0643000100C30CBE
:1022A30044000200C40C45000100C60C46000200B5
:1022B300C70C470008002A0648000100C90C4B0060
:1022C3000100CA0C04000100CF0CA1000100D30CD3
:1022D30037000100D20C88000100D10C3C00010042
:1022E300290600000000000000013636010100014C
:1022F30002010001030100010401060605020000BA
:10230300070100340801000F090401010D0100FF5A
:102313000E08000017020000190100FF1A01000156
:102323001B0100FE1C0100081D0200001F0100012B
:1023330020010001210200002301000F24020000FC
:102343002601000127010008280200FF2A010007D7
:102353002B0102402C0100002D0100012E01000180
:102363002F0100FF30010B1C310800003A01000867
:102373003B01000F2F0100000300710030016000DA
:10238300110070003102200350048000100061002E
:102393000000140063007300720062004300000039
:1023A30013000600000000000400120000000000FB
:1023B3000000000004000400370037003C02440022
:1023C30000000000000000006500000035008100EF
:1023D30000000500000083000000010371030103F6
:1023E3000103010301030103220302030103100399
:1023F3000003000300030003000300030003420380
:10240300000324030603000300030403120325034C
:10241300230325032303040304030003000300032E
:102423004403000300032303000365032100350372
:10243300810300030503000300030003010171018D
:1024430001010101110101013101010101018001BA
:10245300100161013B001400630173017201620109
:1024630043010001130106013D013500040112017E
:1024730000010001000100010401040133013301E3
:102483003C014401320136000001000165010001F5
:10249300350081010001050182018301000103026E
:1024A3007102300160021102700201020202020293
:1024B3008002100261023A00410063027302720259
:1024C3006202430200021302380000020002040207
:1024D300120200020002000200020402040237009A
:1024E30037003C0244020002390000020002650288
:1024F3000002350281020002050282028302000209
:10250300030471040204600411047004020402044D
:10251300010402041004610400041404630473043A
:102523007204620443040004130406040004000458
:1025330004041204000400040004000451046400B1
:102543000004000400044404000400040004000424
:102553006504000435048104640005040004830455
:102563000004000003002001E080000000002001BF
:10257300E180000004004201648000000500420184
:102583005380000006004201428000000700200142
:10259300DE80000010004203400D00001100200304
:1025A300650C000012001003510D0300000021030D
:1025B300660C0600000020016A0C00000000000009
:1025C3000000000003002001E08000000000200163
:1025D300E180000004004201648000000500420124
:1025E30053800000060042014280000007002001E2
:1025F300DE80000010004203400D000011002003A4
:10260300650C000012001003510D030000002103AC
:10261300660C060000002001680C000000000000AA
:102623000000000003002001E08000000000200102
:10263300E1800000040042016480000005004201C3
:102643005380000006004201428000000700200181
:10265300DE80000010004203400D00001100200343
:10266300650C000012001003510D0300000021034C
:10267300660C060000002001690C00000000000049
:10268300000036000100060000000F0000000000FB
:10269300000000000000000003FFFF00000403FF30
:1026A300FF0000FFFF0FF4010005C4040320000135
:1026B30000020B000000000000000003010F181FC0
:1026C300541F1E1F6C1F241F5A1F241F661F2A1FFF
:1026D3006C1F241F5A1F301F6C1F361F6C1F3C1F9B
:1026E3006C1F421F6C1F481F6C1F4E1F6C1F000086
:1026F30000000000000000003E1A1300021A01004F
:102703003E1A0200CC190300D2190400D81905009F
:10271300DE190600EA19FFFF000001E20F060C10A4
:102723000806100B2410105E0F02E80F05FA0F07BE
:10273300EE0F0CC40F0DD60FFF0000561486145C69
:10274300146214801474146E148C1492149814A4C8
:1027530014681450144A1403EAF5E5D5D5C5B5A594
:102763009595858575756565555545453535252596
:1027730015150500160F00000B150B020002220FA2
:10278300320000067A623230313630393239313034
:10279300323633377969206875692079756E20730D
:1027A3006D6172740000000000000000896745231A
:1027B30001EFCDAB461558155E15201464151A1498
:1027C3002614A615C415CA15AC15B815B2155A1397
:1027D3005413901396138A13421300034948424D2E
:1027E30018172505020001191618161615230300DC
:1027F300303017181921301B1D1F303030161819AF
:1028030020231A1C1E3000383C3E363B3B352B43FD
:102813002C0C0E020B040B0A0708000F7A149E14EB
:10282300BE15AA14B0149A156A1570157C15761581
:1028330002040201010101090266136C1360139C77
:102843001300BE040A721384130000000028000C56
:10285300000E0004007F00150003080900040A09A4
:10286300FF1E1E0C030408100C05080F0010017452
:10287300F712040EE9FE122170EE900C75F090032E
:102883000E74B8F0A37421F090031074B2F0A37423
:1028930021F090031274ACF0A37421F0900314742C
:1028A300A6F0A37421F002435374F712040EE9FE59
:1028B300900302E4F0EE900301F0900CC71236C3CC
:1028C3001246A57C2A7D067A057B03121E9A900C7C
:1028D300C9E090030DF002435374F412040E8A0806
:1028E3008B09EB5480605B900301125DA7604A8EF5
:1028F300828F83E064017032124E36120754EE2445
:1029030012127186F50A780A1208F312298C12083A
:10291300EFEE240B122985120758EE2417125DB728
:1029230012161E740912091D8008E0640270031256
:10293300209EEEFAEFFB121708AA08E5096480FB54
:10294300803AEAA2E05017900316124C6F60061209
:1029530036BF1221E7E5086401FAAB09801E540271
:10296300600C900C747401F0EA6402FA800EEA546D
:10297300046005EA640480F37A007B00022A58EEBF
:10298300240CF582EF124E4022EE240FF50AEF34A9
:1029930000F50B780A2274F412040E8A088B098A54
:1029A300828B83A3A3A3E0241012435FFA124FA3E5
:1029B3007003022A488E828F837402F0A3E4124FBD
:1029C30066A3A3A3A3E8F0A3E9124AB4A3A3A3A312
:1029D300A3A3A3F0E5082403F8E509123F0C241090
:1029E3001241CB8E828F83A3A3A3A3F0EE2409FA13
:1029F300122A4A1245ECF5838882E0A2E58E828F83
:102A030083A3A3A3A3A3500474018001E4F0E50806
:102A13002403F888828983125D00EA1267BEEB12F1
:102A23002988124FCB1208EB12632CEB1247728EDC
:102A3300828F83A3A3124E4F12091DEEFAEFFB9070
:102A43000301125010800EEF3400FB8E828F83A39C
:102A5300A32212091D7F040206CF74F212040E8A08
:102A6300088B09ECFAEDFB740E120B73E0FC1216E3
:102A7300908A0C8B0DAE0CAF0DEE4F6023AC08ADFE
:102A83000912167EE96019AC08AD09EEFAEFFB12E4
:102A93001684E97007EEFAEFFB12167879008002CC
:102AA30079B402371E74EE12040E74F71209B18A58
:102AB3000A8B0BECFEEDFF750FB3750E00750C0062
:102AC300750D00800CE50C2401F50CE50D3400F5C3
:102AD3000D902856E493F8740193F9C3E50C98E537
:102AE3000D994003022BC8AA0CAB0D1216DE8A08FF
:102AF3008B09EA450960CE8A828B83A3A3A3A3A390
:102B0300E0250EF50EF510C3E50A9510E50B9400CC
:102B130050B37C157D007900EEFAEFFB124C1DA338
:102B2300A3A3A3E50AC3950EF8E028C333F8E4335F
:102B3300F9E50828F582E50939F583A3A3A3A3A33F
:102B4300A31253DDA312449BEAFCEBFDEEFAEFFB69
:102B5300123F29A3E06401700A124E367401123742
:102B6300FF8043851882851983AC82AD83850882F3
:102B7300850983125CFE1216C6E9602D7408120BD8
:102B830073E0C0E0124E36D0E0F07408120B73E02D
:102B93006403851882851983700CAC82AD83EE249F
:102BA3000B1237EC8003124699850882850983123C
:102BB3003E11A3A3124F29C0E0EE2414122985D09D
:102BC300E0F0750F00A90F740912091D7F0A0206B0
:102BD300CF74F712040EE9FE8A828B83A3A3A3A307
:102BE300A3A3E0540860298A828B83A3A3A3A3A38E
:102BF300A3E0540260178A828B83A3A3A3A3A3A396
:102C0300A3A3A3E06406600574E96E700312219A1E
:102C130002435374E812040E74F71209B1740712D5
:102C23000B73124C36E9851882851983F0ECFEED9F
:102C3300FF7424120B73780C120B167513008E821B
:102C43008F83125CFA8E828F83A3A3A3E0F91216FB
:102C53009C8A148B15EA45157003022E1FEE24106F
:102C630012557DA914120E628A168B17EA45177046
:102C730003022E1FEE2406F510EF3400F5117C003D
:102C8300851082F583122E718E828F83A3A3A312E4
:102C93002E66125A00F8A3E0F9851682851783A3DE
:102CA300A3A3A3123901122E66A3A3A3A312577AD7
:102CB300851682851783A3A3A3A3A3A3F0EE1267AC
:102CC300BEEF1230E01208EBEE12632DEF124772E3
:102CD300851682851783A3A3A3A3A3A3A3A3A312E8
:102CE3004E4F12091D751000022D9F850A82850B18
:102CF30083125CFE1216CC850882850983A3EAF051
:102D0300A3EB124E62A3A3124B57125027E0A2E685
:102D1300500F850882850983A3A3A3A3A3E0D2E16F
:102D2300F0E5137063850882850983A3125F1B9006
:102D3300036CE0687003A3E069704D850882850920
:102D430083A3A3A312558A780C1208E77427120BE6
:102D530073E0F50A780A1208F37426120B7312074C
:102D63005890037912075879007410120B73124AA2
:102D7300A4122128740912091D850882850983A3D9
:102D8300A3A3A3A3E04405F074012510FC8E828F56
:102D930083A3A3A3A3A3A3122E710510E50A450BD6
:102DA3006052851008C3E5089514E495155045E570
:102DB3001075F006A4F8A9F0E51628F8E51739F917
:102DC300E8240CF508E9123CD0E4124E5864016083
:102DD30003022CEE751301850882850983740112A1
:102DE3004E5DF8A3E0F9850882850983A3E8F0A383
:102DF300E9022D05AA16AB17120E6878161208EF12
:102E03007425120B73E0FC7402120B73E0F9EEFAF3
:102E1300EFFB1221A0740212091D80428E828F8360
:102E2300A3A3A3E0C0E07404120B73D0E0123B1A17
:102E3300E0C0E07405120B73D0E0F0E514451570A3
:102E4300097406120B7374B980077406120B73743A
:102E530010F07401120B73AA82AB8312212E740932
:102E63000269D7E0851682851783A3A3A322125391
:102E7300C68E828F83A3A3A3E0F91216A28A0A8BBC
:102E83000B2274E812040E74F31209B18A0A8B0B35
:102E930089178C167425120B731271A1AA0CFB12DD
:102EA3000E56E9F514AA0CAB0D120E5CE9F515E507
:102EB3001470030230D2751300800F8E828F83A3A8
:102EC300A3A3A3A3E0D2E3F00513E50C240BF5823F
:102ED300E50D123267E513C39840030230C9E514C8
:102EE30070030230C9E51375F006A4F8A9F0E50CE8
:102EF30028F8E50D39F9E8240CFEE9126F75A3A350
:102F0300A3A3E0A2E040C1750E008E828F83E07020
:102F130043125CFF120D4E8A088B09A808A909E821
:102F230049603188828983A3A3A3A3E06401600D70
:102F330088828983A3A3A3A3E0640370178E828F7F
:102F430083A3A3A3A3A3E0D2E7F0750E01E5157055
:102F530003022ECB750F00750808750900E516608E
:102F630003750F20124BBDE060339003BCE0640196
:102F73007017E50FD2E3F50F7509108E828F831258
:102F8300468412448A74FF8024430F0C75080C8E08
:102F9300828F83A31230EC12696EA38010E5176051
:102FA30009E50FD2E6F50F75080A123103F0740232
:102FB300120B73E50F125A1FC0E07404120B73D087
:102FC300E0F07405120B73124371120B73E060038C
:102FD3000230A47408120B73123D118E828F83A3E7
:102FE300A3A3A3F07408120B731235CCF583E50881
:102FF300F0A3E5091249CFE060119003BCE0C0E003
:103003007408120B731235C5D0E0F0850C82850D60
:1030130083A3A3A3E0C0E07408120B731264B2D0BD
:10302300E01264EEC0E07408120B731235D7D0E0DF
:10303300F07408120B731230ECA3A31264B9125A82
:1030430009125CFEE82428F582E9125570125A151C
:10305300C0E0E8242EF582E9122988D0E0F0740854
:10306300120B73125D00850A82850B831230D724FD
:1030730024F582EB1246A21267BCE50B1230E01274
:1030830008EB12476AEA242BF582EB122988124EC9
:103093004F12091D851882851983AA82AB831220DA
:1030A300928E828F83A3A3A3A3A3E0D2E0F0740C38
:1030B300120B73E06003022EBEE50EA2E050021570
:1030C300151514022ECB7900AA0CAB0D12219474A2
:1030D3000D0269D7A3A3A3A3125F1FEA22124E40D6
:1030E3001259D5751200781022125F1F850A828546
:1030F3000B83A3A3A3A3228E828F83A3A3A3A3A340
:10310300A3124689E8F0A3E92274F212040E74EBC9
:103113001209B1EAFEEBFF89088E828F83A3A3A372
:10312300A3A3A3A3A3E0F9120E808A0A8B0BEA459B
:103133000B607FE50870047C0480027C088E828F1C
:1031430083A3A3A3A3A3A3A3A3E0F9120E86122927
:1031530082124C6F605C88828983125CFC74061255
:103163000B731231BA125D007408120B731231BA69
:10317300A3A3E0C0E07410120B73D0E0125A2C1218
:103183005D00740E120B73124C367411120B73E440
:10319300125765F9780A1208EF742059FC744059E4
:1031A300F97402120B73AA82AB831221A074021268
:1031B300091D741502371BEAF0A3EB1231C2221268
:1031C30045FCA3A3A3A3A3A32274F712040E74FACA
:1031D3001209B1E9FE7F018F087D008004750800A4
:1031E3000D124358123267EDC3985025ED75F00662
:1031F300A4F8A9F0EA28F8EB39F9E81267B7E9125D
:1032030053B850D9540C60D5E0A2E250D37F00806C
:10321300CF8A828B83A3A3A3A3A3A3E0703EE50875
:10322300A2E0400574016E70338A828B83A3A3A34B
:10323300A3A3A3740112636BE0C0E07403120B73C6
:10324300D0E0126363E0C0E07404120B73D0E0F0CB
:103253007405120B73EF12465312212E74060243A8
:1032630050F582EF125775F822C082C0837901129C
:1032730021940237E5C082C083EA4B60189003B8FB
:10328300E064027010900C74E4F0EAFCEBFD7A0247
:103293001232AD8012900C747401F07A027B0090AC
:1032A3000301E0F912181C0237E57B00900301E0EB
:1032B300F91218102274F212040E74F31209B1EA0F
:1032C300FEEBFF8E828F83A3A3A3A3A3A3A3A3A336
:1032D300A3E0F50A900C74E0700579BA0235C07565
:1032E3000801750900750C00750D007C087D0079D7
:1032F30000851882851983AA82AB831216F07405A0
:10330300120B7374011235E8540460127402120B29
:1033130073E0D2E61235E854087003750803E054ED
:1033230010600674404508F508E0540860227402F2
:10333300120B73E044C01235E85420600A74031280
:103343000B73E0D2E080087403120B73E0D2E1F058
:103353008E828F83A3A3A3A3A3A3A3A3E0701812B6
:1033630010F0851882851983124C367402120B7380
:10337300E0D2E2F002341F640F70157402120B7373
:10338300E0D2E3125028124C174508F50802341F07
:103393008E828F83A3A3A3A3A3A3A3A3E064028E1C
:1033A300828F83700512310480C9A3A3A3A3A3A3AF
:1033B300A3A3E064037013851882851983AC82ADDF
:1033C30083EEFAEFFB12215880528E828F83A3A3E0
:1033D300A3A3A3A3A3A3E0640170419003BCE06093
:1033E3001C7402120B73E0D2E31250168518828507
:1033F30019831246A5750910750AFF801874021205
:103403000B73E0440C1264DB74FDF0A374FFF074DF
:10341300044508F5088E828F831271A11253B250AE
:103423003A7402120B73E0540C701B8E828F83125A
:103433005D00121B10E9700579BB0235C0740212DE
:103443000B73E0D2E5F01253B250107402120B73F7
:10345300E0540C64047004E0D2E5F0EE2411127120
:1034630086C0E07404120B73D0E0124373120B7323
:10347300E060030235B97408120B731235CC1235B0
:10348300DEEE2418127186C0E0E81267A8E912295B
:1034930088D0E0F0EE2419127186C0E07408120B94
:1034A30073E02413123CD9D0E01244A864017011D4
:1034B3009003BCE0C0E07408120B731235C5D0E072
:1034C300F07408120B731241A32417FAEF1241D2BE
:1034D300FCE8241CF582E9122988ECF0A3E41250DD
:1034E300C1E0C0E0E82422F582E9122988D0E0F0A7
:1034F3007408120B731235D7E50AF07408120B73B4
:103503001241B82424F582E9125CC5A3E50D125DCE
:1035130023FCA3E0FDE82426F582E9122988ECF0D8
:10352300A3ED1239A5124BEDE82428F582E91229FF
:1035330088125F23C0E0E8242FF582E9122988D09E
:10354300E0F0EE241B127186C0E07408120B7312B4
:1035530064ABD0E0F0EE241A127186C0E074081256
:103563000B73E0242E123CD9D0E01264D3124FB374
:103573001208EBEE2411124BE6740B120B73124E6E
:103583004912091DEE24151271865440601B9003E5
:1035930028124C6F6013851882851983AA82AB8326
:1035A3009003291236BF1221E7851882851983AA51
:1035B30082AB83122092740C120B73E0F9740D0228
:1035C300371BE02415123CFF221241BC240FF58265
:1035D300E9340022E02423123CFF22F583E508F0BE
:1035E300A3E509F022F0EE24151257722274F712A4
:1035F300040E7E638A828B83E0600C7905120C7063
:10360300E9F87456C398FE900364E0600CF9120C59
:1036130070E9F8EEC39824F2FEEEF902435374F610
:1036230012040E74FE1209B1851882851983124C97
:1036330036E9FEECFAEDFB740C120B73E0FC90041C
:10364300AE124C6F60328518828519838582088596
:10365300830978081208EF7D01EEF99004AE123663
:10366300BC1221E7740212091D8B09EA45096004A3
:103673007900800679B2800279B602384674F7126F
:10368300040EE9FE7409120B73E0FF90030E124C53
:103693006F601AEFF50878081208F3EEF990030E3D
:1036A3001236BC1221E7740112091D800279B60299
:1036B3004353EEFAEFFB900320E0F8A3123F5D22A1
:1036C300125F1F9003032274F212040E8A088B09FF
:1036D300ECFEEDFF750A0190036CE065087004A32E
:1036E300E065097005124A9D802A1210F68A0C8B38
:1036F3000DE508650C7004E509650D7009EEFAEF38
:10370300FB1210FC800EEEFCEFFDAA08AB09120CB5
:10371300E8E9F50AA90A800312091D7F060206CF0C
:1037230074F512040EEAFEEBFF8C088D09750A018D
:10373300126C0B1237F5700B90036C123F8B124611
:10374300A5800EAC08AD09EEFAEFFB120CEEE9F51D
:103753000AA90A02609774F612040EEAFEEBFF7AD6
:103763000C7B00121786EA4B606BEE2420127186E5
:103773008A828B83F0EE24211237DBF0EE242212AF
:1037830037DBA3F0EE24231237DBA3A3124E8212FE
:1037930059F2E8F0A3E912576A1259F3A3A3E8F028
:1037A300A3E91255908A828B83A3A3A3A3A3A3A304
:1037B300A3F0EE242F127186C0E012435812298819
:1037C300D0E0124C3C8A828B83A3A3A3A3A3A3A31D
:1037D300A3A31246A502384B1257728A828B83A386
:1037E30022F0D083D0820208CFFAEF3400FB121EFE
:1037F3009A2212448F221237FFA3E02212380322A7
:1038030012380722124F5EA3A322124AC2A3E02258
:1038130074F612040EECFEEDFF79B3900363E070CF
:1038230020900395E064017018EE1267B7EF126FF2
:1038330089EE240F12469FE84960047900800279DB
:10384300A18005740212091D7F020206CF74F412CF
:10385300040E74FE1209B1ECFEEDFFEE2416127194
:103863008664057011EE2406FCEF3400FD12215E20
:10387300E970030238FA851882851983AC82AD8317
:103883001266FD123A8C124C6F6068E875F009A459
:10389300F8AAF075F009E9A42AF974ED28F874F38D
:1038A30039F9E8FAE9FBEE2412122985C082C083B4
:1038B3008A828B837808120B16D083D08278081201
:1038C3000AE6402B8518828519831241A3240F121F
:1038D30029851239017808120B169080AC780812EA
:1038E3000A2D8A828B837808120B347900800A7937
:1038F300A2800679A1800279C87402022A55E8F0F1
:10390300A3E9123B1E2274F412040E74FF1209B1D0
:10391300EAFEEBFF900363E07075900395E06401AA
:10392300706D75083A75090078081208EF74021271
:103933000B7385820885830978081208EF1239977B
:1039430012091DE9703EEE1267BEEF123F95124A4F
:1039530065C0E0EE2411122985D0E01239A5743A2E
:1039630012577A900330120B50EE2412122985124B
:103973000B5C9080AC7808120B1690033078081219
:103983000A1A800BEE240FF582EF124341A3F07461
:1039930001022A557C017D007A007B001212D0744B
:1039A3000422F0EE240F124E3D2274F012040E7422
:1039B300F61209B1ECFEEDFF7402120B73AC82AD8B
:1039C3008312215EE97003023A8785188285198381
:1039D300AC82AD837402120B73AA82AB83123A8C4E
:1039E300124C6F7003023A87E875F009A4F8AAF045
:1039F30075F009E9A42AF974E928F874F339F98808
:103A0300088909EE240E123A96124A65F8A3E0F9E2
:103A1300EE240F124F4F120B50EE2412122985126F
:103A23000B5C9080AC780C120B1685088285098399
:103A3300780C120A1A8508828509837808120B16F6
:103A43009080A8780C120B167808790C12039EE567
:103A53000C450D450E450F702B8518828519831271
:103A630041B875F009A4F8AAF075F009E9A42AF998
:103A730074F128F58274F339F5837401F07A007BCD
:103A830010123A9E740A023B29121B16851882856E
:103A9300198322F582EF124E40E422900527E0F9C4
:103AA30012173E2274F012040E8A088B09ECFEED05
:103AB300FFEE240FF582EF124341A3123B1AC0829B
:103AC300C0839080C0780C120B16D083D082780C00
:103AD3001209F16032123B0E7005122146802AE072
:103AE3007005122140802264027013122140E960A4
:103AF30018EEFCEFFDAA08AB09121B3A800BE06439
:103B03000360DF79A1800279A3801EEE240EF58283
:103B1300EF125775640122123B1E22F0EE2412F5B8
:103B230082EF124E442212091D7F080206CF74F65B
:103B330012040EEAFEEBFFEE240AF508EF126969A0
:103B4300850882124BEBEC240F12433E124C0712F2
:103B53002116850882850983124C6C706B123CDD3B
:103B63007003A3E069600A123CBF7003A3E06970AD
:103B7300578E828F83A3A3A3A3A3A3A3A3A3A31259
:103B83004BED8E828F83125D00121B40E960188E0D
:103B9300828F83A3A3A3A3A3A3A3A3A3A3E0240F1D
:103BA300123CD9E4F0A3F08E828F831264A38E8239
:103BB3008F83A3A3A3A3A3A3A3A3A3A37005123FCC
:103BC300858004123F63E4F0124C5E701A123F10BA
:103BD300125D0012213A850882850983124C6C70AC
:103BE3000612298274A1F002384B74F612040EEA0D
:103BF300FEEBFFEE240A123F1F7A187B0012178692
:103C0300850882850983123D16F8A3E0F9E8497017
:103C130003023CB6EEFAEFFB12210A124C5E607F00
:103C2300123D0364017007123CEA740E8034E064B1
:103C3300027007123CEA740D80288E828F83A3A33F
:103C4300A3A3A3A3124C6F70EA123CDD7003A3E09D
:103C53006960E0123CBF7003A3E06960D6123CEADE
:103C63007405124C10540364017007123F4374052A
:103C7300800B900364E0C0E0123F43D0E0F0EE24F9
:103C83000AF508EF123CD0123F51123E16C0E085F0
:103C93000882850983E02417123CD9D0E080198576
:103CA30008828509831242FE850882850983E4F030
:103CB300A380051229827410F002384B1210F08A87
:103CC300088B09A808A90990061CE06822126969F3
:103CD300850882F58322123CFF228E828F83125F36
:103CE3001F90061CE068228E828F83A3A3A3A3A345
:103CF300A3A3A3A3A3E02416123CFF22123F6E2228
:103D03008E828F83A3A3A3A3A3A3A3A3A3A3123FDF
:103D130067E022EAF0A3EB123D1E22124F5EE0227F
:103D230074F112040E8A0A8B0B8C088D097A18120F
:103D33005E767003023E098E828F837401F0E5087C
:103D4300240DF8E509126706C3E49AFA95E0FB121D
:103D530067C3125574FB8E828F83A3A3A3A3125749
:103D6300618E828F83A3A3F0EEFAEFFB120C1C8506
:103D730008828509831264A570098E828F83A374D8
:103D8300058006900364123E11F0EE2417F8EF3419
:103D930000F9880C890D8E828F83123E15850C8263
:103DA300850D83F0EE2416F8EF3400F9E508240EB0
:103DB300FAE5093400FB888289831249B1E50824B6
:103DC300100A0AE5093400FB850C82850D83E0FCAB
:103DD30088828983E0F88A828B83E0C398C39C122C
:103DE30050B8F0EEFCEFFDAA0AAB0B122110E9F577
:103DF30008700AEEFAEFFB120C28E9F508EEFAEF69
:103E0300FB12178C8003750810A908026C2E124A46
:103E1300BB22A3E0F9120C70E92279010208CF74E6
:103E2300F412040EEAFEEBFF8E828F83A3A3A3A3F7
:103E3300A3A3A3A3125D041264A5706B123D0370C8
:103E4300668E828F83A3A3A3A3A3A3A3A3E0242BA0
:103E5300123CD9123F7D704F8E828F83A3A3A3A3FD
:103E6300A3A3A3A3E0242BF888828983123F51E004
:103E7300F8740168600A7406686005740568701355
:103E83008E828F83A3A3A3A3A3A3A3A3A3A3123F5E
:103E93008580138E828F83A3A3A3A3A3A3A3A3A32A
:103EA300A3123F637403F0123F101236BCE4F0EE2A
:103EB3002408F8EF123F0C242D1241CBC0E0123F2F
:103EC30037D0E0125765242A1241CBC0E0123F37A6
:103ED300A3D0E0125765240B123CD9123F8B12403A
:103EE3002412449B8A0A8B0BAC0AAD0B850882858E
:103EF3000983E024061253CC123F29125D00120CF1
:103F030028122982E9F0022A581245DF22EE240AF8
:103F1300123F1722123F1F8882F58322F8EF3400E5
:103F2300F98808890922123F2D22121E9A850882D8
:103F330085098322850882850983124028A3A32249
:103F43008E828F83A3A3A3A3A3A3A3A3A3A3123F9D
:103F53005522E0F8123F5CA322A3E0F58388822276
:103F6300123F6722E0240E123F6E22123F7222F8A4
:103F7300A3E03400F98882898322E0F812482F6491
:103F83000522123F67740222125F1F85088285098A
:103F93008322124E40740122023E1DC082C08390D0
:103FA300031E7404F0A37421F090032074F8F0A3AB
:103FB3007420F090032274F2F0A37420F090032491
:103FC30074FEF0A374200237E474F412040EEAFEC4
:103FD300EBFF124031F5081210F08A0A8B0BA80A86
:103FE300A90B8E828F83124024E0687003A3E069DB
:103FF300602CE508A2E550268E828F83A3E0FB9018
:10400300031E1236BC1221E78E828F83E0F8A312BF
:10401300518AA3124C6F7006124031C2E5F0022A96
:104023005812402822E0FAA3E0F5838A82228E8286
:104033008F83123F55A3E02274F512040E124191AF
:104043001241B82420F582E9127189FE74035EF5EA
:104053000A12499B1229881241A388828983F0A3FB
:10406300A882A983E50A60097402650A6003024114
:1040730002740C5EFF601574086F601074046F7037
:104083001D7402650A7005EEA2E4402D8A828B83BB
:10409300A3A3A3A3A3A3A3A3E024231241F3740C18
:1040A3006F701012418C24241241DB242412419E90
:1040B3001241F67402650A7005EEA2E44041124112
:1040C3008C24261241DB24261241A8A31242051296
:1040D30041A812420512419E1241F6EF600F740887
:1040E3006F600A740C6F600574046F70128A828BA0
:1040F30083A3A3A3A3A3A3A3A3E024221241F38A2C
:10410300828B83A3A3A3A3A3A3A3A31241C170057B
:10411300EEA2E150178A828B83A3A3A3A3A3A3A335
:10412300A3E0242E1249A21241EC800E9003021246
:1041330041EC900302E0041245FCA3A882A983EE9C
:10414300A2E7504212418C24211241A81241F68C5D
:10415300828D831241C1602E8A828B83A3A3A3A382
:10416300A3A3A3A3E024301241F3EEA2E150178AE4
:10417300828B83A3A3A3A3A3A3A3A3E0243112410C
:10418300CB88828983F0026097124191E022EA246E
:1041930008FCEB3400FD8C828D83221249A6A322F6
:1041A300125F1FEE221241AC22F508A3E034008512
:1041B3000882F583221241BC22125021E822E02416
:1041C300211249A6E0540322FAA3E01241D2223479
:1041D30000FB8A828B83E0221241AC1241ECA3A83C
:1041E30082A9838C828D83E022E088828983F022F6
:1041F3001249A61241FA22E088828983F0A308A912
:1042030083221241FA8C828D83E0242822C082C04B
:10421300838A828B83124035F8740358F98A828B20
:1042230083A3A37401F0E960057402697061740CDF
:1042330058FC601474086C600F74046C701374027F
:10424300697005E8A2E4401D8A828B83A3A37402EC
:10425300F0740C6C700A8A828B83A3A3E02402F0AF
:104263007402697005E8A2E440258A828B83A3A3C4
:10427300E02404F0EC600F74086C600A740C6C604A
:104283000574046C70098A828B83A3A3E004F0E8AD
:10429300A2E750318A828B83A3A3E004125F27F93C
:1042A300A3E0F5838982A3A3A3E0540360178A8262
:1042B3008B83A3A3E004F0E8A2E150098A828B83F5
:1042C300A3A3E004F08A828B83A3A3E0040237E470
:1042D300C082C0838A828B83A3A3A3A3A3A3A3A324
:1042E300A3A3124C6F60098A828B83A3A31242F6A5
:1042F3000237E5A3A3A3A3A3A3A3A31253C6121731
:104303008C2274F712040EEAFEEBFF125F17888209
:104313008983A3A3A3A3A3A3A3A3E4F0A31231C2FA
:10432300A3A3A3A3F0A3F0E8125CA7E912434112ED
:1043330020DAEEFAEFFB1220E68015F582ED124E3D
:1043430040E4F022740C120B73E0F9740D12091D92
:104353007F010206CFEA240BF582EB2212661F24AB
:104363000922124E401271A5750E00780C227401B9
:104373001246571244112274F512040E74F31209F3
:10438300B1EAFEEBFF7C087D007900851882851970
:1043930083AA82AB831216F01230FA1249DEC0E010
:1043A3007404120B73D0E0F07402120B73740112D5
:1043B30044A8C0E07405120B73D0E01249E4640111
:1043C30070097402120B73E0D2E5F0124407120B6A
:1043D30073E0702D8E828F83124FC91208EB8E8289
:1043E3008F83A3A3A3A3124775740B120B73124EEF
:1043F3004912091D851882851983AA82AB8312206D
:104403009202608B851882851983AA82AB8312205E
:1044130098740C2274F712040E74FE1209B1ECFEA8
:10442300EDFF7508C8851882851983AC82AD8312A8
:104433002158E964017049851882851983125197BF
:1044430012448AA3A3E4F0900632E0601B8E828FAD
:1044530083A3A3123F7D70108E828F83A3A3A3A394
:10446300A3A3A3A37401800D8E828F83A3A3A3A30D
:10447300A3A3A3A3E4F0EEFAEFFB1220C8E9F50827
:10448300A9087402024350124A8FA322121E94E910
:10449300640122124F56E022A3A3A3A3E8F0A3E9E9
:1044A300F01210EA2212559DA3E02274F612040EB4
:1044B30074F41209B1EAFEEBFF1230FA1245D5FA91
:1044C300A3E0F5838A82A3E0FA7402120B73EA1263
:1044D30057652402124A6C7404120B731246A5EA40
:1044E300600A7402120B73E06404701C1245C91253
:1044F30053CC7406120B731245CF124A6C74081214
:104503000B73E8F0A3E98056E06401600AE06406F7
:104513006005E0640570231245C91241CBC0E07405
:1045230003120B73D0E012576524131253CC740695
:10453300120B73125761241B80C07406120B73E4B1
:10454300F0A31245D524121253CC7408120B731224
:1045530045CF12661BC0E0740A120B73D0E0F074EF
:1045630006120B73124C6F60287406120B73125DE4
:1045730000120CDCE9640170181210EA8A088B0936
:10458300AC08AD097406120B73125D001237F57097
:104593000F851882851983AA82AB83122122802179
:1045A300851882851983AA82AB83121B1CE96401D7
:1045B300700FEEFCEFFD7406120B73125D001220F8
:1045C300C2740C0238481245DA2412221245F3242D
:1045D3001A22F01245DA22EE2402F8EF1245E4E043
:1045E300223400F988828983221245F3F8A3E0225A
:1045F300EAF0A3EB1245FCE022F08882898322C013
:1046030082C08374FC1209B112467B1246A58A82CA
:104613008B83A3A3E0124A6A7402120B7312464FF0
:1046230012211C7404800012091D0237E5C082C0E8
:104633008374FD1209B1124663C0E07402120B7356
:10464300D0E0124653121660740380DBE8F0A3E94E
:1046530012465722F0851882851983AA82AB8322DA
:104663008A828B83A3A3A3A3A3A3124A5C8A828B0C
:1046730083A3A3123F55E0228A828B83A3A3A3A320
:10468300A3A31246892212468D22E0F8A3E0F985FE
:10469300188285198322125F1FEE240BF582EF1215
:1046A3004E40124A5F22AA82AB831216E47403229D
:1046B300124A5F9003302274F412040E74FB120941
:1046C300B1EAFEEBFF8E828F83A3A31241B82409C4
:1046D300F508E91269697403120B73AC82AD838820
:1046E300828983A3AA82AB83122158E96401706A89
:1046F30085188285198374321249DE24F7C0E07469
:1047030001120B73D0E0F07402120B73E4124653E0
:10471300120DAE8A0A8B0BAE0AAF0BEE4F603B74E1
:1047230003120B73124762A3A3124496C0E0EE2454
:1047330020122985D0E0F0750A0078081208EBEE04
:10474300126F70EF124772EE240B122985124E4F2F
:1047530012091DEEFAEFFB120DA87405022A551279
:104763005F1F8E828F8322E50A2410F582E50B12E8
:104773004E40E0FC7D0022C082C0831247A6600E3B
:1047830024FE600F24FE601024FB601180121220AF
:10479300BC800D1220B680081220B080031220AA1C
:1047A3000237E58A828B83A3A3E0F812482F24FB08
:1047B30022C082C0838A828B83A3A3A3A3A3A3A3C0
:1047C300A3E070528A828B83A3A3E0F812482B6480
:1047D3000160431248256402603C1248256403606B
:1047E300351248256404602E8A828B83A3A3123F6B
:1047F3007F6023124825640A601C124825640B60FD
:1048030015124825640C600E124825640D60077963
:1048130004121E8280099003261236BC1221E7027D
:1048230037E58A828B83A3A312482F22123F5CE0D1
:104833002274F612040E74FA1209B1EAFEEBFF7445
:1048430003120B73EEF0A3EFF07403120B73AA823F
:10485300AB831220CE1271836003024996851882BE
:104863008519837432F07405120B73C082C0838E72
:10487300828F83A3A3A3A3E0D083D082F8E028C0D0
:10488300E07401120B73D0E01249E4C0E074021229
:104893000B73D0E01249C9F8A3E0F9E8496026E8B0
:1048A3002417F582E9122988C082C083E82416F50B
:1048B30082E9127189D083D082F8E028F87401125A
:1048C3000B73E028F0851882851983AA82AB8312C3
:1048D3000DAE8A088B09A808A909E84970030249A3
:1048E300898E828F83125D0088828983A3A3EAF075
:1048F300A3EB1249CFA3A3E0C0E0E82420F582E9AB
:10490300122988D0E01264EEC0E0E82421F582E9A0
:10491300122988D0E01249DEC0E0E8242AF582E9B2
:10492300122988D0E0F07405120B73E0FA12499B48
:104933001271892A1253CCE8242B124C30740512BD
:104943000B73E0C0E0E8242DF582E9122988D0E05A
:104953001249C9FAA3E0FBEA4B6019E8242BFAE9F0
:10496300122A4BA3A3A3A3A3A3A3A3E02416124930
:10497300A21249B18E828F83A3A3A3A3A3A3A3A34C
:10498300E8F0A3E9800CEEFAEFFB1220D41229829F
:104993007410F07406023848E8240BF582E92212F9
:1049A30049A622FCA3E03400FD8C828D8322E0FC27
:1049B3008A828B83E02CFCA3E03400FD8A828B8304
:1049C300ECF0A3EDF0221250C5A3E022F0E8126749
:1049D300A8E9124E407401125028221250BCA3E0E1
:1049E30022124A79E02274F712040EEAFEEBFF1258
:1049F3007183701E124A1F124C6F60061236B51275
:104A030021E7127183700B125CF4120DA812298234
:104A1300E9F0EEFAEFFB1220D40243531220E08EAA
:104A2300828F83A3A3A3A3A3A3A3A3A3A32274F605
:104A330012040EEAFEEBFF8C088D09121B10E970BD
:104A43000479018011AC08AD09EEFAEFFB90032461
:104A53001236BC1221E702384B12468DE8F0A3E967
:104A6300F0221264DFE0222401F8A3E03400F922EB
:104A7300124A79A3E022124A7D22124A812212505D
:104A83002CA3A3A3A3A322124A8FE022E8F0A3E955
:104A9300124A972212502CA3A322126C0F121E9AB1
:104AA30022124BF1EEFAEFFB22E0242B123F72E0CD
:104AB300221237FF124ABB22E08E828F83A3221277
:104AC3004E96A3A3A3A32274F612040E74F3120941
:104AD300B1124BB9124C17120B73740CF07405120C
:104AE3000B73740112559860097402120B737421CD
:104AF30080077402120B737401124373120B73E079
:104B030070327408120B73124B6174061249DE1271
:104B13004BD5EE2402F8EF1245E4124B4C12637CA2
:104B2300124B4CA3124A73C0E0124B43122988D094
:104B3300E01264E7740C120B73E0F9740D02384849
:104B4300E508240BF582E50922124B57A3A3A3A37F
:104B5300A3A3A322E0850882850983A3A322124B82
:104B6300FF880889098882F5832274F712040E747A
:104B7300F31209B1124BB9124C17120B737409F0EB
:104B83007402120B737421F07405120B73124371C8
:104B9300120B73E0701D7408120B73124BF774073A
:104BA300124C10124BD5851882851983AA82AB83C8
:104BB300122092024347EAFEEBFF7C087D00790056
:104BC300851882851983AA82AB831216F08E828F91
:104BD3008322FCA3E0FD88828983A3AA82AB83128C
:104BE3001E9A22F582EF3400F583124BF122E0FC8A
:104BF300A3E0FD22124BFF8882898322124AACF87C
:104C0300A3E0F9221250271253C62274011250282E
:104C1300A3A3E022124A5C7404221216F0850882D0
:104C2300850983A322E0F508A3E0F50922F582E9CB
:104C3300124E40EAF0A3EBF022124C4022124A97A4
:104C430012502122C082C083124C5774A4F0A37463
:104C5300200237E41220EC900326228E828F83A356
:104C6300A3A3A3A3A3A3A3A3A312577F1241BC4946
:104C73002274F712040EE9FE124CA1122988124C79
:104C83006F601888828983A3E05403700EEEFB12D1
:104C9300499B122988124CD2124CCC024353EA127C
:104CA3005CA7EB22C082C083EAF8EBF98882898390
:104CB300A3A3A3A3A3E0FB88828983A3A3A3A31233
:104CC3004CD2A3124CCC0237E5E0F912161822E0BD
:104CD300FA88828983A3A32274E812040E8A088BBC
:104CE300098C168D178914741A120B73E0F50AA335
:104CF300E0F50B741C120B73E0F513741D120B73A8
:104D0300780C120B1612632CEB127189242DFA7B8B
:104D1300001217028A108B11AE10AF11EE4F700301
:104D2300024E1D8E828F837401F085081085091150
:104D330075120078101208EB7C157D00EE24181212
:104D43004E2712091D85161085171178101208EBCE
:104D53007C097D00EE2402124E2712091D741812DD
:104D63000B73124699850A82850B83E0C0E0EE241B
:104D73000F122985D0E0124E5DC0E0EE24111229F6
:104D830085D0E0124E58C0E0EE2410122985D0E001
:104D9300123B1AE513124E82E4F0A3F0124E36785A
:104DA3000C120B34EE2417122985E51412380DF872
:104DB300A3E0F9EE240D122985124E7C12698B12A1
:104DC30071896025EE24261253AA242DF8124E74FD
:104DD3001267C51243651208EB1269891247728A7A
:104DE300828B83124E4F12091DEE241912718654C1
:104DF30003601D90031C124C6F600CEEFAEFFB1264
:104E030036BF1221E78013EEFAEFFB121708800A70
:104E1300EEFAEFFB9003011250100269DA7C087D71
:104E230000EE2404FAEF124E2D223400FB1216E496
:104E3300740322EE2413124E3D22F582EF124E44E8
:104E4300223400F58322E0242B123CFF1253C612B6
:104E530016E4740322124E6BE022124E62E0221219
:104E63004E6622124E6BA322F0850A82850B83A322
:104E730022EF3400F98A828B83124A5FE50822F01D
:104E8300EE2426124E3D22F50CA3E0F50D750E001F
:104E9300780C22123807A3A3A32274F112040E8AFA
:104EA300088B097A20124FA3606F8E828F8374065A
:104EB300124FBF8E828F83A3A3A3A31237F98E82CF
:104EC3008F83124F29124E8A1208EB7C107D00EE5D
:104ED3002406124E2712091D850882850983A3A380
:104EE300A3124F1F2416FAEF3400FB120CD68508C9
:104EF30082850983A3A3A3A3A3A3A3A3A3A3E0C01E
:104F0300E0EE241E122985D0E0124F39C0E0EE24D2
:104F13001F122985D0E0124F41026C2EA3A3A3A335
:104F2300A3124BF1EE22A3A3A3A3A3124F32221287
:104F33003803A3A3E022F0124B4312577522F0EE7D
:104F4300FAEFFB900527E0F912170E22124E3D12DD
:104F53004F5622E8F0A3E9124F5E22F085088285BE
:104F6300098322124F6A22123D1EF8A3E0F98E82B2
:104F73008F83A3A32274F412040E8A088B097A0C7C
:104F8300124FA360188E828F837408124FBF124F83
:104F9300B31208EB124E2012091D125009022A58AF
:104FA3007B001217028A0A8B0BAE0AAF0BEE4F225D
:104FB300F508A3E0F509750A00780822124F6A1272
:104FC3004F56A3A3E022A3A3124C28750A00780826
:104FD3002274F612040EEAFEEBFF7A057B00121729
:104FE30002EA4B601E8A828B83740A1250168A82ED
:104FF3008B83A3A3124A8A8A828B83A3A3A3A3F0DE
:1050030012500D02384BEEFAEFFB900527E0F91230
:10501300170E2212501A2212502C12502122E0F89D
:10502300A3E0F922A312502C22F08E828F8322C098
:1050330082C083E9900C76F0900318749EF0A374F9
:105043000BF090031A74B0F0A3740BF090031C746C
:10505300C2F0A3740B0237E474F712040EEAFEEBFA
:10506300FF8908EE4F7003121BA090032A124C6FA6
:10507300700890032A8022125F1B88828983A3A36E
:10508300A3A3A3A3A3A3A31250B288828983A3A338
:10509300A3A3A3A3A3A3A370DEEEF0A3EF1250C1B7
:1050A300E4F0A31250B8A3A3A3E508F002435312FC
:1050B30053C6EA4B221250BC22124A97A322125023
:1050C300C5221255A1A3A32274F712040E90032A3A
:1050D300800D8E828F83A3A3A3A3A3A3A3A3A31251
:1050E3006653EE4F60348E828F83A3A3A3A3A3A33F
:1050F300A3E06970DD8E828F83A3A3A3A3E06A700C
:1051030003A3E06B70CC8E828F83A3A3A3A3A3A37B
:10511300E06C70BEEEFAEFFB80047A007B00024382
:105123005374F712040E90032A12665390032A1243
:1051330030DB687002EB69701712518A125F1B90A3
:10514300032A1246A590032A12665380301266463C
:10515300EE4F60298E828F83A3A3A3A3A31230D71C
:10516300687002EB6970E68A828B83A3A3A3A3A36F
:10517300A3A3A3A3125197A3A3A31246A512178C0B
:10518300EEFAEFFB024353123F5DA3A3A3A3A3A332
:10519300A3A3A3221253E1A3A32274F012040E7457
:1051A300FA1209B18A088B098A828B83A3A3A3A36A
:1051B300A3A3A3A3E0600D640160098A828B831219
:1051C30053BE600579020253A5850882850983A32E
:1051D300A3A3A3A3A3A3A3E0640370157404120BF6
:1051E30073AC82AD83AA08AB09122158E97013800E
:1051F300D3850882850983125F1B7404120B731213
:1052030046A51267AD12718924321253CC12178648
:105213008A0A8B0BAE0AAF0BEE4F70030253A37CCB
:10522300327D0079001216F07402120B73AA82AB5E
:1052330083850882850983A3A3A3A3A3A3A3A3A30D
:10524300E0F912165A7402120B73E0C0E0EE242D3B
:10525300122985D0E0F0EE242CF50AEF3400F50B8B
:105263007403120B73E0850A82850B83F07901EED8
:10527300FAEFFB120B8C85080C85090D750E00786F
:105283000C1208EB7C1C7D00EE240B124E27120936
:105293001DEE24301253AA24320808124E7424112E
:1052A300F8E50912717EFCE9FD8C828D831241A31E
:1052B300242E122985124E7C12574312699212082A
:1052C300EB8C828D83124BED8A828B83124E4F12AD
:1052D300091D7404120B731253DD1246A5900302C9
:1052E3001253D3F0900302E004125786242A125C6F
:1052F300B4750D00850A82850B83E0780C120A8C45
:105303008A828B83E50CF0EE2429122985E50C12A1
:1053130064DBE4F0E5082415F582E5091253B8745B
:10532300015007120B7374018004120B73E4F0EE47
:105333002427123F1F851882851983AA82AB831203
:105343001642E924FE850882850983F0F50875096C
:1053530000EE242E124BE6ECF8EDF9AA08AB091285
:1053630002C5E88E828F83A3A3A3A3A3A3A3A3F061
:10537300ECF8EDF9AA08AB091202C58B09EA450955
:10538300600F8E828F83A3A3A3A3A3A3A3A3E0048D
:10539300F0EE24201271864408125D2B79008002FE
:1053A30079107406023B2912717CFAE9FBEE22EEB6
:1053B3002415F582EF125775A2E0221253C612117B
:1053C3008CE922E0FAA3E0FB22FAA3E03400FB22FB
:1053D300124ABBA3A3A3A3A3A3221253E1221250F5
:1053E300218E828F83A3A3A3A32274F412040EEA53
:1053F300FEEBFF125CAC124C36900CC3E0F8EE24CB
:105403002B127186C3984003025562125CCC70154F
:10541300EE242B12718604125590C0E0EE2429125B
:105423002985D0E0F0EE2428127186FC79008001F2
:1054330009EE242C123264E9C398502675080175CD
:105443000900E97808120A8C125CCC550860E1E97E
:105453002CFC750801750900E97808120A8CE045EF
:1054630008F0EE242712557DEE242E122985EC8AAE
:10547300088AF0A4F8ABF0E42BF9E098F8A3E099DC
:10548300F9C3E89508E99400EE4039242712326401
:10549300125CCC6037EE242D12298512558AA3E4C1
:1054A300F0EC7054EE242012718644201244A8C0FC
:1054B300E0EE2426122985D0E0F0EE243012557D4B
:1054C300A3E08059242912298574FFF090035CE03E
:1054D300FA900CC6E0F508EA8508F0A4ABF075F085
:1054E30064A4FAADF075F064EBA42DFB8E828F8378
:1054F300A3A3EAF0A3EB80A8EE242012718654DF65
:10550300124E82ECF08C08EE24271271868508F087
:10551300A4FAABF0EE2430F582EF125574FBEE24BF
:105523001EF582EF125570125598C0E0EE24251235
:105533002985D0E0F0EE241C122985E812577A90D1
:10554300032C124C6F600BECF91236BF1221E7E902
:105553007018EE240BFAEF3400FB122182800B7BD0
:10556300E9EE2422F582EF12574D022A581264C63F
:10557300221257752AFAA3E03B2212558122F582A3
:10558300EF124E44E0FA22124ABBA3F022F0EE24BB
:105593002A1257722212559DE0221255A122124A55
:1055A30081A3A32274F412040E90032A12665312E9
:1055B300182E8A0A8B0B7CFF7DFF8020E0C398FAAC
:1055C300A3E099FBC3EA9CEB9D500E8E828F83A3CD
:1055D300A3E0C398FCA3E099FD126646EE4F605921
:1055E300125F17E50AC398F8E50B99F98E828F834A
:1055F300125CFEC3E89AE99B8E828F83A3A340BC0F
:10560300A3A3A3A3E06402701DEE240B125CCF607E
:105613000CEE2410122985125D00121708EEFAEF22
:10562300FB120B988007EEFAEFFB120BA47A017BB7
:1056330000900C76123AA1801474FF6C700374FF0F
:105643006D600A7A017B00900C761232B2022A58FE
:1056530074F012040E8A088B09ECFAEDFB890A7CBC
:10566300011267AD125CBE8A0C8B0DAE0CAF0DEE52
:105673004F7003025740E50A6003025740E50812E2
:105683005743E0F8EE2428127186686003025740FE
:10569300EE242C12557DE82AF8E43400F98E828F2B
:1056A30083A3A3A3A3A3A3A3A3E0FAE89AE9940083
:1056B300C365D03340141259DD125CD2700C7B00E9
:1056C3001267A6E50912574D80731259DD125CD299
:1056D3007031EE242C127186F9EE24291229857576
:1056E30008FF750900E97808120A8CE508F0EE2432
:1056F3002A122985E50812576A29F0EE242B123A5B
:10570300968022E5082414F8E5093400F9E0C0E0A6
:10571300EE242A122985D0E0125765C0E0EE242931
:10572300122985D0E0125786242D122985123E11A5
:10573300A312577A7A01FB900C76123AA1023B2C02
:105743002413F582E509124E4022125584EE2414E7
:10575300124E3D124CCCEEFAEFFB120B9822EAF0FC
:10576300A3EB1245FCE022F0EE242812577222F537
:1057730082EF124E44E022F0A3E4F022E0240F1261
:105783003F6E22F012182E8E828F83EAF0A3EBF085
:10579300EE2274E812040E74FD1209B1E985188231
:1057A300851983F08A0A8B0B8C168D17741B120BC9
:1057B300731259D5741D120B73780C120B168A824F
:1057C3008B83A3A3E0F91216368A128B13EA4513CF
:1057D30070077A007B000259D07A127B0012178679
:1057E3008A088B09AE08AF09EE4F70030259CC7CCF
:1057F300127D0079001216F07401120B73AA82ABAA
:1058030083850A82850B83A3A3E0F912165AEE243B
:105813000FF508EF1269697402120B73E0850882B1
:10582300850983F07902EEFAEFFB120B8C85168261
:105833008517831253DDE8F0A3E9125A158E828F80
:1058430083A3A3A3A3A3A3A3F07514FF75150085D6
:105853000882850983E07814120A8C122982E514E0
:10586300F0851282851383A3E0F812482BC0E0EE83
:10587300240B122985D0E0125A1FF508EE240D12CD
:105883002985E508F0125CD7E08508F0A42424FA02
:10589300E5F03400FB1217028A088B09EE12632D20
:1058A300EF124C33EA450970030259C18A828B8394
:1058B300741A12577A8A828B83A3A3F0A3125A090C
:1058C3001259F21246A5AC16AD17EA2406FAEB34C8
:1058D30000FB121654850A82850B83A3A3A3E0C0A1
:1058E300E0E508240FF582E509122988D0E0F0905D
:1058F3000379125F1BE50824101259E6125A2CA3F0
:10590300125F1BE50824121259E6124E5DC0E01225
:1059130059DD122988D0E0F0E50A125CA7E50B12E5
:105923007189C0E0E5082415F582E509122988D0BC
:10593300E0125A00C0E0E5082416F582E5091229B1
:1059430088D0E0127595E0C0E0E5082417F582E5FC
:1059530009122988D0E0127595A3E0C0E0E5082478
:1059630018F582E509122988D0E0124A65C0E0E5FE
:10597300082419F582E509122988D0E0F0E5082406
:105983001AF582E509122988780C120B34E50824EC
:1059930024F8E5093400F9E5082422F582E5091223
:1059A30046A2E50A1267A8E50B127189C0E0E50873
:1059B300241FF582E509122988D0E0F0800BEEFA66
:1059C300EFFB120B987E007F00EEFAEFFB740302ED
:1059D30069D7E0F510A3E0F51122E5082414F58258
:1059E300E50922F582E509124E40E8F0A3E922E039
:1059F300F8A3E0F98A828B83A3A3A3A322F08510E3
:105A030082851183E022125A0D22124E66A3A3A3AC
:105A1300A322F01267B5E50B12577522F0E50A24AD
:105A230010F582E50B12577522125A0DA3A3A32278
:105A330074E812040E8A0A8B0B8C108D118914746E
:105A430018120B73E0F516A3E0F517741A120B7313
:105A5300780C120B16750900EA2413F582EB127108
:105A630089F50890032C124C6F6011A90890032C40
:105A73001236BC1221E7E96003025CA47C028510A4
:105A830082851183125D001267B5E50B125CBE8A35
:105A9300128B13AE12AF13EE4F704B850A82850B38
:105AA30083A3E0A2E04003025CA4780C1208E77829
:105AB300161208EFA914AC10AD11AA0AAB0B120B06
:105AC300B6740612091D8A0C8B0DAE0CAF0DEE4F8A
:105AD3007003025CA48E828F83A3A3A3A3A3A3A3B7
:105AE300A3E508125D2B85080C8E828F83A3A3A3E5
:105AF300A3A3A3A3A3E024FFF8E434FFF9E8650C10
:105B03007001E97003750901EE240B125CCF700379
:105B1300025C57850A82850B83A3E0A2E0500375DC
:105B23000800125D0BE50C98E499C365D033401E61
:105B3300E0F8EE240E12718628F0750CFF750D0047
