:020000040000FA
:06000000020AF802026290
:03002B0002095C6B
:030053000201881F
:03006B0002039EEF
:100083000201EF0101FF01010503010F10FEFF3E15
:10009300153E153E153E15F413EE133E156723006A
:1000A300000000C923000000000C0000000C000148
:1000B300FFFF0101010027050000009E05B80102B2
:1000C30002000800000502070401781E02051E0253
:1000D3000A0A03B80B02803E010201FFFF010A0175
:1000E3001401E096511800020206FF010100EF50CF
:1000F3000F4C100006E21FE81FEE1FF41F00000064
:1001030000000000000000000000000000000000EC
:10011300000000E21FE81FEE1FFA1F0000000000AE
:1001230000000000000000000000000000000000CC
:1001330000E21FE81FEE1F00200000000000000087
:10014300000000000000000000000000000000109C
:10015300202020202020202020202020202020209C
:100163000110040100010005758001DC8011040108
:1001730000010005758001DC801204010001000507
:10018300758001DC80C0E074F11204EEA2AFE433A9
:10019300FED2AFE5A7FFE5A1F5085FF50974105599
:1001A300096006121C4675A1EF7408550960081210
:1001B3001C4C75A1F7802BEFA2E0C0D0E508A2E0AC
:1001C30092F0120A1F158182F05017906198E0F89F
:1001D300900669E0C398A2D265D0335002E8F07567
:1001E300A1FEEEA2E092AF7F0202054DC0E074F2E1
:1001F3001204EEA2AFE433FED2AF9061A4E0F8752F
:100203009B00E59158540860087591F7121C8E8085
:100213002AE59158541060087591EF121C94801BC5
:10022300E8A2E0C0D0E591A2E092F0120A1F158186
:1002330082F05007E0C2E0F0121DCC9061A3E0F819
:10024300E5E9585404600E121DA275E9FB90619311
:10025300E0A2E640F2EEA2E092AF7F0102054DC0BC
:10026300E074F21204EEA2AFE433FED2AF9061A5C4
:10027300E0F8E5BF585404600675BFFB121DDE802D
:10028300D4C3E498F8E499F91202C58026C3E49A2A
:10029300FAE49BFBE920E7E91202C5E498F8E49944
:1002A300F922C3E498F8E499F91202C5E498F8E452
:1002B30099F9C3E49AFAE49BFB22EB20E7CFE92008
:1002C300E7E0B90010BB0008E88AF084F8AAF0223E
:1002D300E4FBC8FA22EB70227B10C833C8C933C9C8
:1002E300335007C39AC3DBF280069A50012ADBEA34
:1002F300C833F4C8C933F4C9FA2275F008E4C83323
:10030300C8C933C933C99AC99B5004C92AC93BD543
:10031300F0ECFBC833F4C8E4C9FA22080808EAC0C1
:10032300E0EBC0E086F0E7A4FA180986F0E7A42A18
:10033300FA180986F0E7A42AFA180986F0E7A42A2E
:10034300FA1986F0E7A4FBE5F02AFA190886F0E724
:10035300A42BFBE5F03AFA190886F0E7A42BFBE59A
:10036300F03AFA18180986F0E7A4C5F02BFBE43A33
:10037300FA1908E7C5F0C6A426F6E5F03BFBE43A14
:10038300FA1886F0E7A4F6E5F00826F6E43B08F64B
:10039300E43A08F6D0E0FBD0E0FA22C0E074F212AF
:1003A30004EEA2AFE433FED2AF900F4EE4F0E58942
:1003B300A2E4500C53ABEF7401F0900F4FE004F044
:1003C300E589A2E5500F53ABDF900F4EE0D2E1F089
:1003D300900F4FE4F0E589A2E6500F53ABBF900FA7
:1003E3004EE0D2E2F0900F4FE4F0900F4EE0601039
:1003F3007C147D007A107B00900F50E0F9121808EE
:10040300758900C2C5EEA2E092AF7F0102054DE4FB
:10041300CFC0E0E4CEC0E0E4CDC0E0E4CCC0E07502
:10042300F020C3E633F608E633F608E633F608E6CB
:1004330033F6181818EC33FCED33FDEE33FEEF33CF
:10044300FFC3EC9709ED9709EE9709EF971919196F
:10045300400FFFEC97FC09ED97FD09EE97FE191984
:1004630006D5F0BEECF709EDF709EEF709EFF7193A
:100473001919D0E0FCD0E0FDD0E0FED0E0FF22254A
:1004830018C582C0E0E51934FFC583C0E0E518C391
:10049300958224F810AF0885831985821880088512
:1004A3008319858218D2AFCEF0A3E520F0A3780894
:1004B300E608F0A3DEFAEFF0A3E58124FAF8E608F4
:1004C300F0A3E608F0A3E608F0A30808E608F0A303
:1004D300E608F0A315811581D0E0FED0E0F8158180
:1004E30015811581E8C0E0EEC0E022C0D02518C513
:1004F30082C0E0E51934FFC583C0E0E518C39582E7
:1005030024F310AF08858319858218800885831921
:10051300858218D2AFC8F0A3E9F0A3EAF0A3EBF009
:10052300A37908E709F0A3D8FAECF0A3EDF0A3EE62
:10053300F0A3EFF0A3D0E0F0A3D0E0F0A3D0E0F07D
:10054300A3E520F0A3E5F0F0A322851983851882A3
:10055300E0C0E0A3E0F9A3E0FAA3E0FBA37808E09E
:10056300F608A3DFFAE0FCA3E0FDA3E0FEA3E0FFAF
:10057300A3E0C0E0A3E0C0E0A3E0F5D0A3E0F52052
:10058300A3E0A3F5F010AF088583198582188008CE
:10059300858319858218D2AFD082D083D0E0F8D07A
:1005A300E032120B5AB900030205E7E49003017825
:1005B3006E790D8002F0A3D8FCD9FA900F6EAA824F
:1005C300AB83900086780379028015E493A3AC8211
:1005D300AD838A828B83F0A3AA82AB838C828D83C3
:1005E300D8E9D9E77582B87583B874041208BB7566
:1005F30082CE75832174001208BBE8030375F010E3
:100603008E1A8F1B85821F85831E85188285198309
:10061300E0CEA3E0CF851F82851E83EBC9EAC8ED38
:10062300CBECCAC3E833C8E933C9EA33CAEB33CBEB
:10063300C3EA9EF51DEB9FF51CB35004AB1CAA1D2A
:10064300EC33CCED33CDD5F0DAAE1AAF1B22D08329
:10065300D082ECC0E0EDC0E0E493A3FCE493A3FDFF
:10066300ED4C600D120729EC24FFFCED34FFFD80F7
:10067300EFE493A3FCE493A3FDED4C600D1207C6D6
:10068300EC24FFFCED34FFFD80EFD0E0FDD0E0FC77
:10069300E493A3C0E0E493C0E022D083D082E9C016
:1006A300E0E493A3C386F0C5F095F0F908E493A3BF
:1006B30086F0C5F095F0700BE493A3C3994005E968
:1006C300048002A3E475F002A42582F582E5F035E7
:1006D30083F583D0E0F9E493A3C0E0E493C0E02280
:1006E300851983851882E0A3FEE0A3F5207808E04E
:1006F300A3F608DFFAE0A3FFE0A3C0E0E0A3C0E0B5
:10070300E0A3C0E0E0A3C0E0E0A3C0E010AF088531
:1007130082188583198008858218858319D2AFD002
:1007230083D0820208C1C0E0C3E4939608740193A6
:100733009618400FE4936670080874019366187066
:10074300007019A3A3C3E49396087401939618A3A6
:10075300A3400DD0E0D0E0D0E002068DA3A3A3A375
:10076300A3A3D0E0227404800474028000CCC0E010
:10077300EDC0E0E518C39CCCAD1950011D10AF06C8
:100783008C188D1980068C188D19D2AF12083DD0A4
:10079300E0FDD0E0FC2274028000CCC0E0EDC0E0BC
:1007A300E518C39CCCAD1950011D10AF068C188DF4
:1007B3001980068C188D19D2AF12081BD0E0FDD01A
:1007C300E0FC22C0E0C0F088F0E49366700808748F
:1007D300019366187000A8F0A3A3700BD0F0D0E0CB
:1007E300D0E0D0E002068DA3A3D0F0D0E022D083E6
:1007F300D082CCC0E0E493A3600612089C1470FA84
:10080300E493A3600612098D1470FAD0E0FCE4931C
:10081300A3C0E0E493C0E022CAC0E0E493A3C5828E
:10082300CCC582C583CDC583F0A3C582CCC582C5A3
:1008330083CDC583DAE5D0E0CA22CAC0E0E0A3C510
:1008430082CCC582C583CDC583F0A3C582CCC582C6
:10085300C583CDC583DAE6D0E0CA2270090808084B
:10086300226016181818C6C333C608C633C608C68E
:1008730033C608C633C6D5E0EA22C008C3E096F5FE
:100883000808A3E096420808A3E096420808A3E0FC
:100893009645087001D3D00822C0E0E493A3D39C0B
:1008A3005010E493A3C39C400AD0E0D0E0D0E00210
:1008B300080EA3A3A3D0E022C09FF59FE473D09FAB
:1008C30022D083D082C09FE493C0E0740193C0E040
:1008D300740293F59F222518F58210AF08F518408E
:1008E3000215198008F51840021519D2AF8519832E
:1008F300227404800A74038006740280027401C0A7
:10090300E0F4041208D9D0E0120B3522C0D0251828
:1009130010AF08F518500205198008F518500205A4
:1009230019D2AFD0D022BB0102E722C082C0838993
:10093300828A83BB0003E08002E493D083D08222C7
:100943006016080808C6C313C618C613C618C6130C
:10095300C618C613C6D5E0EA22C0E0C0D0E8C0E09E
:10096300E5A8D2AFC2C7A2E792AFD0E0F8D0D0D00B
:10097300E032C3E0C696F608A3E0C696F608A3E005
:10098300C696F608A3E0C696F622C0E0E493A36CED
:100993007009D0E0D0E0D0E002080EA3A3D0E0229B
:1009A300251810AF08F518400215198008F51840EE
:1009B300021519D2AF22E76670100809E766700ABC
:1009C3000809E76670040809E76622E06670100804
:1009D300A3E066700A08A3E066700408A3E0662239
:1009E300C3E09608A3E09608A3E09608A3E096A2C6
:1009F300D265D03322C3E096F008A3E096F008A3B3
:100A0300E096F008A3E096F022E026F608A3E0368D
:100A1300F608A3E036F608A3E036F622C0E0E8C005
:100A2300E0E58124FCF8E6A2E7D0E0F8D0E022E696
:100A330027F60809E637F60809E637F60809E63720
:100A4300F622E657F60809E657F60809E657F608C8
:100A530009E657F622E056F608A3E056F608A3E0A7
:100A630056F608A3E056F622E056F008A3E056F047
:100A730008A3E056F008A3E056F022E647F608097B
:100A8300E647F60809E647F60809E647F622E026B0
:100A9300F008A3E036F008A3E036F008A3E036F050
:100AA30022700422600D18C6C333C608C633C6D5E8
:100AB300E0F41822E4C396F608E496F608E496F602
:100AC30008E496F622C6F4C608C6F4C608C6F4C6F9
:100AD30008C6F4C622C3E7960809E7960809E7960D
:100AE3000809E79622C3E09608A3E09608A3E096D8
:100AF30008A3E0962275D000758140751801751919
:100B030003000205A5E0F608A3E0F608A3E0F60853
:100B1300A3E0F622600C08C6C313C618C613C6D5D5
:100B2300E0F422E6F008A3E6F008A3E6F008A3E663
:100B3300F022CAC0E0E6F0A308DAFAD0E0FA22E035
:100B4300FAA3E0FBA3E0FCA3E0FD22EAF0A3EBF0B1
:100B5300A3ECF0A3EDF022E5C754F84401F5C779FF
:100B630001222518F582E43519F58322C2AF75D623
:100B73009F020000221208C4BF4F001208C41D5078
:100B8300001208C44650001208C4B650001208C42C
:100B93000F51001208C48851001208C4D853001220
:100BA30008C49255001208C43E56001208C4805768
:100BB300001208C41E5A001208C4245D001208C49F
:100BC300315D001208C4BF5D001208C4715E0012DB
:100BD30008C4B95E001208C4195F001208C4355F67
:100BE300001208C4695F001208C49E5F001208C4A3
:100BF3008760001208C43C61001208C491630012AC
:100C030008C4DE64001208C48165001208C40E66BD
:100C1300001208C44466001208C4F666001208C431
:100C2300C867001208C48369001208C4D769001298
:100C330008C40B6A001208C4866A001208C4606BF9
:100C4300001208C41E6C001208C4636C001208C4AE
:100C53007B6C001208C4126D001208C4836F00126B
:100C630008C49871001208C4B671001208C4D47184
:100C7300001208C4AE72001208C4CC75001208C476
:100C83000080021208C43580021208C45B8002127D
:100C930008C49580021208C4A780021208C4F98010
:100CA300021208C45A81021208C4E481021208C461
:100CB3008882021208C4D082021208C40A83021274
:100CC30008C42783021208C44C83021208C49E83FB
:100CD300021208C4B783021208C4DD83021208C4D7
:100CE300FC83021208C43784021208C47B840212F4
:100CF30008C4A284021208C4F384021208C4A385A0
:100D0300021208C45B86021208C42387021208C4B5
:100D1300E387021208C42788021208C44C8802120F
:100D230008C48F88021208C4DC88021208C4348AFB
:100D3300021208C4BA8A021208C4D88A021208C46A
:100D4300028B021208C41C8B021208C42B8B0212E2
:100D530008C4368B021208C4F68B021208C44F8CE7
:100D6300021208C4118D021208C4198D021208C49C
:100D7300918D021208C4E08D021208C4268E02125D
:100D830008C4678E021208C4F78F021208C4AF901A
:100D9300021208C41B91021208C44692021208C42C
:100DA3005792021208C4CD92021208C45F93021232
:100DB30008C4B793021208C47794021208C49E941D
:100DC300021208C4BC94021208C4CE94021208C4CE
:100DD3002195021208C45E95021208C46B95021293
:100DE30008C4EE96021208C44398021208C45C9821
:100DF300021208C49899021208C4339A021208C452
:100E03006C9A021208C4B89A021208C4D49B021244
:100E130008C41D9E021208C4289E021208C4339EF1
:100E2300021208C43D9E021208C4489E021208C45E
:100E3300629E021208C46C9E021208C4769E0212BD
:100E430008C4819E021208C4A99E021208C4049F0A
:100E5300021208C4289F021208C44C9F021208C43D
:100E6300AA9F021208C4EE9F021208C40AA002122B
:100E730008C481A0021208C4B9A0021208C405A1C3
:100E8300021208C462A1021208C41CA2021208C4FE
:100E930000A4021208C459A4021208C489A50212AC
:100EA30008C4AFA5021208C438A7021208C4B4AA22
:100EB300021208C486AC021208C44FAE021208C460
:100EC300FCAE021208C467B0021208C406B10212D3
:100ED30008C453B1021208C4BDB1021208C4CCB194
:100EE300021208C453B4021208C405B6021208C49D
:100EF30072B6021208C451B7021208C46AB80212C9
:100F030008C4E7B9021208C406BA021208C45BBADD
:100F1300021208C460BB021208C488BB021208C4D0
:100F2300E0BB021208C4BFBC021208C403BD021214
:100F330008C44EBD021208C4B9BD021208C4FABEE9
:100F4300021208C45EBF021208C4ACC0021208C475
:100F53000CC3021208C43DC3021208C4F5C4021232
:100F630008C44AC5021208C44EC6021208C4EBC61E
:100F7300021208C444C7021208C4F7C7021208C405
:100F830099C8021208C439C9021208C4DEC9021280
:100F930008C4E280011208C42181011208C46883D5
:100FA300011208C4B283011208C4CD84011208C41B
:100FB3003D85011208C47285011208C4E686011238
:100FC30008C46989011208C4928A011208C4288BD3
:100FD300011208C43094011208C4C594011208C454
:100FE300AC97011208C49F98011208C4009901121A
:100FF30008C41C9A011208C4019C011208C4129E61
:10100300011208C47C9E011208C44E9F011208C439
:1010130005A0011208C40FA0011208C43DA00112CB
:1010230008C4FAA0011208C4D1A1011208C498A2ED
:10103300011208C44AA3011208C473A3011208C40D
:1010430095A3011208C4EBA5011208C4C3A601129B
:1010530008C407A7011208C46FA7011208C427A870
:10106300011208C459A8011208C49DA8011208C49A
:10107300D3A8011208C41FA9011208C474A901123C
:1010830008C479A9011208C4CCA9011208C4F1A9A2
:10109300011208C400AB011208C464AB011208C4F6
:1010A300D4AB011208C460AC011208C42DAF011205
:1010B30008C411B0011208C494B1011208C4CAB320
:1010C300011208C478B4011208C428B5011208C477
:1010D30069B7011208C40CB8011208C453B801124D
:1010E30008C4FFB9011208C413BA011208C41DBA17
:1010F300011208C445BA011208C451BA011208C446
:1011030070BA011208C455BC011208C48CBC011288
:1011130008C496BC011208C4A0BC011208C4FBBCDD
:10112300011208C445BD011208C44DBE011208C412
:10113300A4BE011208C4F3BF011208C437C00112D0
:1011430008C4DFC0011208C4C2C1011208C46DC2C1
:10115300011208C4B9C3011208C4B7C4011208C4F8
:101163005DC5011208C4EDC5011208C404C601120D
:1011730008C43BC6011208C445C6011208C450C6C0
:10118300011208C46EC6011208C4B2C6011208C413
:101193000FC7011208C434C7011208C44EC7011295
:1011A30008C4DAC7011208C4F7C8011208C464C925
:1011B300011208C44BCA011208C472CA011208C43E
:1011C300E6CA011208C461CB011208C465CC01123E
:1011D30008C45BCD011208C40ACE011208C41DCF96
:1011E300011208C4B9CF011208C446D0011208C4C1
:1011F30024D1011208C45CD1011208C4B4D1011274
:1012030008C47DD2011208C49ED2011208C425D39A
:10121300011208C449D3011208C46BD3011208C4D4
:10122300B4D3011208C4CAD5011208C4B1D601123D
:1012330008C462D7011208C498D9011208C4E8D9B6
:10124300011208C428DA011208C46ADA011208C4B8
:10125300C6DA011208C4F4DA011208C418DB011259
:1012630008C46BDB011208C499DB011208C4D2DB8A
:10127300011208C427DC011208C48DDC011208C462
:10128300E1DD011208C404E0011208C471E0011297
:1012930008C49AE0011208C425E1011208C48CE1D4
:1012A300011208C4D7E1011208C4FBE1011208C40A
:1012B3001FE2011208C47AE2011208C495E2011286
:1012C30008C44EE3011208C488E3011208C42E8B3C
:1012D300041208C4668B041208C4878B041208C462
:1012E300C98B041208C42F8C041208C4398C04124D
:1012F30008C4498C041208C47E8C041208C4C78F26
:10130300041208C47191041208C47193041208C42E
:10131300A2CA021208C4E8CA021208C4C8CB021245
:1013230008C4CACC021208C4CDCD021208C459CFD6
:10133300021208C4B7CF021208C474D0021208C440
:1013430092D1021208C403D2021208C43FD202127D
:1013530008C48DD2021208C497D2021208C4DBD289
:10136300021208C437D3021208C4D2D3021208C42B
:101373004FD4021208C41ED5021208C4B7D50212F4
:1013830008C4D7D5021208C40DD6021208C43ED62B
:10139300021208C4FFD6021208C40FD7021208C4EF
:1013A30063D7021208C47ED7021208C490D7021270
:1013B30008C499D7021208C4F3D7021208C44FD83D
:1013C300021208C49BD8021208C4B6D8021208C479
:1013D300E7D8021208C404D9021208C410D90212B1
:1013E30008C484DA021208C49DDA021208C404DBBA
:1013F300021208C417DB021208C425DB021208C458
:10140300D9DB021208C4BDDC021208C4C3DD021218
:1014130008C44DDE021208C457DE021208C4C4DE3B
:10142300021208C4DBDE021208C40DDF021208C474
:1014330046DF021208C470DF021208C4D1DF0212B1
:1014430008C4F1DF021208C40FE0021208C455E019
:10145300021208C47BE1021208C4C8E1021208C4E4
:10146300F7E1021208C46DE2021208C495E2021207
:1014730008C4CEE2021208C4DCE2021208C434E358
:10148300021208C483E3021208C4C2E3021208C4AE
:10149300F2E3021208C41EE4021208C429E4021291
:1014A30008C447E4021208C409E5021208C413E59C
:1014B300021208C44EE5021208C464E5021208C40D
:1014C300B9E5021208C4CDE5021208C4DBE6021234
:1014D30008C4EEE6021208C403E7021208C4A5E733
:1014E300021208C428E8021208C4E6E8021208C47B
:1014F300F1E8021208C41DEA021208C439EA021212
:1015030008C48BEA021208C4CAEA021208C4DFEA5A
:10151300021208C441EB021208C4D0EB021208C441
:101523001BEC021208C46CEE021208C4EAEE0212AB
:1015330008C45FEF021208C481F1021208C499F1D2
:10154300021208C49CF1021208C4A8F1021208C4D2
:10155300BCF1021208C4C4F1021208C4F7F102126A
:1015630008C4A7F2021208C41DF3021208C490F3C0
:10157300021208C444F4021208C4F9F4021208C4A3
:1015830018F5021208C4B8F5021208C4C4F5021211
:1015930008C4EFF5021208C4F2F5021208C45CF69F
:1015A300021208C484F7021208C45CF8021208C4C9
:1015B300E7F8021208C400FA021208C4BDFA0212C4
:1015C30008C4F6FA021208C427FB021208C4E5FB9A
:1015D300021208C415FC021208C4F0FC021208C46B
:1015E30089FD021208C414FE021208C4C5FE0212C9
:1015F30008C448FF021208C4D449001208C4BBFF40
:10160300021208C4EA75001208C44F76001208C417
:101613008C76001208C4DB76001208C4C578001269
:1016230008C4AC7A001208C4E57D001208C40B7E1E
:10163300001208C4237E001208C48C7E001208C462
:10164300C87E001208C4F57E001208C4277F00126A
:1016530008C4634F001208C40080041208C47E80CB
:10166300041208C4B080041208C40881041208C418
:101673008282041208C49E82041208C4D98204120E
:1016830008C46083041208C4B083041208C47D84B0
:10169300041208C48185041208C4D585041208C441
:1016A3005086041208C4B186041208C4F2860412D8
:1016B30008C49D87041208C4BB88041208C4F188B7
:1016C300041208C43C89041208C48389041208C4A0
:1016D3000D8A041208C4B28A041208C4A89B041217
:1016E30008C4EE9B041208C4589C041208C4799CD5
:1016F300041208C4199D041208C4239D041208C4CB
:10170300709D041208C4959D041208C4F59D04122B
:1017130008C48B9E041208C4C39E041208C41C9FF1
:10172300041208C4789F041208C4A69F041208C4B4
:101733002EA0041208C473A0041208C4B2A0041299
:1017430008C4F7A0041208C409A1041208C41BA109
:10175300041208C43AA1041208C443A1041208C421
:10176300EFA1041208C42FA2041208C474DE0412E9
:1017730008C445D1041208C47BD1041208C4C4D1DF
:10178300041208C411D3041208C4F6AA031208C42D
:101793006FAC031208C430AE031208C46CAE03125C
:1017A30008C4F3B1031208C439B2031208C44EB417
:1017B300031208C420B5031208C4CCB5031208C42D
:1017C30077B7031208C4C1B9031208C4DDBC0312FE
:1017D30008C4EBBC031208C4C6BD031208C4D9C1B4
:1017E300031208C4E8E0041208C4DBFF031208C4B0
:1017F300F1FF031208C4BAC3041208C4CDC3041210
:1018030008C46BC4041208C4ADC4041208C4D2C40F
:10181300041208C417C5041208C450C5041208C42E
:1018230081C5041208C4F4C6041208C447DF0412B5
:1018330008C47DDF041208C499DF041208C4DBDF87
:10184300041208C4EBDF041208C46CC2031208C4F8
:10185300BEC2031208C42DC3031208C424C4031256
:1018630008C4A8C4031208C46FC5031208C484C5FE
:10187300031208C4CEC5031208C41DC6031208C44C
:101883006FC6031208C482C6031208C4CEC603126D
:1018930008C4C9C8031208C44BC9031208C475C9D4
:1018A300031208C4BEC9031208C486CB031208C4BA
:1018B30001CC031208C48ECC031208C4A1CC0312BA
:1018C30008C4F0CC031208C406CD031208C41DCD0E
:1018D300031208C44CCD031208C46DCD031208C40F
:1018E30046CE031208C4A9CE031208C4F5CE0312D0
:1018F30008C4F8CF031208C466D2031208C480D206
:10190300031208C405D3031208C475D3031208C411
:1019130098D3031208C4D2D3031208C440D40312C9
:1019230008C4F6D4031208C41BD5031208C425D572
:10193300031208C435D5031208C4B8D5031208C46A
:10194300D3D5031208C4F5D5031208C421D6031254
:1019530008C45CD6031208C46BD6031208C4ACD601
:10196300031208C438E1041208C450E1041208C485
:101973002394041208C47294041208C42496041213
:1019830008C4D997041208C42198041208C41D99E5
:10199300041208C4749A041208C4969A041208C460
:1019A300F29A041208C4749B041208C4D1D6031219
:1019B30008C4FCD6031208C4DFD7031208C461D8D5
:1019C300031208C4CBD8031208C417D9031208C4DE
:1019D30085D9031208C410DA031208C49EDA03126D
:1019E30008C4D1DA031208C4C5DF031208C46AE1CC
:1019F300031208C426E2031208C463E2031208C4F4
:101A0300AFE4031208C423E5031208C422E6031259
:101A130008C4FBE6031208C475E7031208C42FE8E1
:101A2300031208C4EEE8031208C45AE9031208C4F7
:101A330001EA031208C45EEA031208C41BED031291
:101A430008C4DBED031208C440EE031208C4EAEF36
:101A5300031208C4A7F0031208C406F2031208C451
:101A63002DF3031208C4C8F3031208C4C3F403120A
:101A730008C4D2E3011208C45AE4011208C4CDE435
:101A8300011208C421E5011208C45CE5011208C46F
:101A9300E9E5011208C405E7011208C457E701127A
:101AA30008C4B5E7011208C4F8E7011208C46DE8D9
:101AB300011208C4B7E8011208C436EA011208C4C7
:101AC30009EB011208C45FEB011208C455EC0112C3
:101AD30008C402ED011208C42DED011208C44CED37
:101AE300011208C45CED011208C462EE011208C4BD
:101AF30026EF011208C407F1011208C46DF10112A7
:101B030008C484F1011208C4DAF2011208C457F3BD
:101B1300011208C4C6F3011208C44FF4011208C429
:101B230093F4011208C45AF6011208C432F70112E1
:101B330008C46EF8011208C427F9011208C458FA40
:101B4300011208C487FA011208C461FB011208C418
:101B530030FC011208C489FC011208C4A1FC011263
:101B630008C4A1FD011208C42FFE011208C4F6CE59
:101B7300041208C4B5CF041208C46ED0041208C4FA
:101B8300D4D0041208C43CB9041208C4A5BA041280
:101B930008C479E2041208C490D7041208C49ED77B
:101BA300041208C493E2041208C46FFF031208C4AA
:101BB3007FFF031208C48BFF031208C4D8FF03126C
:101BC30008C476DD041208C4F7DD041208C45BDE22
:101BD300041208C4F77F001208C4FA7F001208C475
:101BE300F5FF011208C4D57F001208C4DBAB041251
:101BF30008C430AC041208C404AE041208C436AEE0
:101C0300041208C45DAE041208C471AE041208C401
:101C13008AAE041208C4B9AF041208C4E2DA04128B
:101C230008C406DB041208C41FDB041208C452DB19
:101C3300041208C483DB041208C4B1DB041208C411
:101C430013DC041208C422DC041208C42CDC0412C2
:101C530008C439DC041208C4E1C9041208C41ECA4A
:101C6300041208C42DCA041208C44CCA041208C4BE
:101C7300B4CA041208C4BDCA041208C41CCB04129B
:101C830008C440CB041208C433CC041208C440CCAB
:101C9300041208C451CC041208C410E2041208C48C
:101CA3002DE2041208C458A2041208C49EA204120E
:101CB30008C4FDA3041208C40AA4041208C41DA482
:101CC300041208C43CA4041208C452A4041208C495
:101CD30066A4041208C4DBA4041208C440A50412B9
:101CE30008C4F0A5041208C4C5A6041208C4D5A6E6
:101CF300041208C4E4A6041208C4FCDF041208C4D6
:101D030021E0041208C44AE0041208C472E0041279
:101D130008C478D3041208C49FD3041208C41BD484
:101D2300041208C47FCC041208C498CC041208C45B
:101D3300A4CC041208C4B8CC041208C4D6CC041230
:101D430008C4E0CC041208C4EACC041208C4FDCCD5
:101D5300041208C455CD041208C48CCD041208C45F
:101D6300BACD041208C408CE041208C455CE041216
:101D730008C470CE041208C47ACE041208C4ACCED0
:101D8300041208C497E0041208C4FEF5031208C441
:101D930028F6031208C444F6031208C457F60312C4
:101DA30008C496F6031208C417F7031208C44FFBBE
:101DB300031208C479FC031208C4ACFC031208C460
:101DC300F9FC031208C441FE031208C469FE03129E
:101DD30008C48CFE031208C4D0FE031208C431FFEA
:101DE300031208C441FF031208C443DC041208C4ED
:101DF3005EDC041208C487DC041208C4A1DC0412EC
:101E030008C4C6DC041208C4E5DC041208C4FDDC03
:101E1300041208C42BDD041208C445DD041208C4EF
:101E230086E1041208C41CC0041208C423C00412AF
:101E330008C458C1041208C487C1041208C4F5C1F8
:101E4300041208C488C2041208C4C1C2041208C41C
:101E53000AC3041208C43AC3041208C45AC30412BE
:101E630008C44AD9041208C462D9041208C47FDA28
:101E7300041208C482DA041208C4E0FE011208C482
:101E83003FFF011208C495FF011208C4D6FF0112D7
:101E930008C40080031208C41B80031208C4908086
:101EA300031208C41981031208C4A881031208C4C9
:101EB300C481031208C46E84031208C41D8703126D
:101EC30008C4BB88031208C4068A031208C4D38F4C
:101ED300031208C4CF90031208C44591031208C427
:101EE3001192031208C4B592031208C41894031282
:101EF30008C4B894031208C40295031208C4749565
:101F0300031208C41D96031208C4EA96031208C4F8
:101F13005097031208C45598031208C41299031268
:101F230008C4AF99031208C4069C031208C49A9C00
:101F3300031208C4169D031208C4A29F031208C407
:101F43009DA0031208C4CCA0031208C48BA20312E1
:101F530008C45FA4031208C455A5031208C443AA06
:101F6300031208C401C7041208C426C7041208C414
:101F7300AFC7041208C471C8041208C443C90412C9
:101F830008C4B5C9041208C47DBC041208C43EBD0C
:101F9300041208C4ADBD041208C4D2BD041208C49F
:101FA3008DBE041208C4CCE1041208C490D50412F7
:101FB30008C4D8D5041208C409D6041208C48CD6A0
:101FC300041208C437D7041208C43DD7041208C446
:101FD3005AD7041208C495B0041208C43EB10412BF
:101FE30008C40FB3041208C412B3041208C44EB3D6
:101FF300041208C451B3041208C45CB3041208C425
:1020030067B3041208C478B3041208C407B40412F3
:1020130008C4E4B4041208C40AB5041208C455B5CC
:10202300041208C471B5041208C4A2B5041208C48A
:10203300B2B5041208C4BFB5041208C4CCB5041267
:1020430008C4AFB6041208C4EDB6041208C4F7B648
:10205300041208C416B8041208C421B8041208C430
:1020630033B8041208C43CB8041208C446B80412B6
:1020730008C41DA7041208C4CDAB041208C44CE263
:10208300041208C41F48001208C49F47001208C462
:102093006547001208C4A546001208C41B46001277
:1020A30008C4ED45001208C49944001208C4024450
:1020B300001208C46543001208C4F042001208C4A9
:1020C300BE42001208C4FB41001208C4264000129D
:1020D30008C4B73F001208C4893F001208C4863FF2
:1020E300001208C40D3E001208C40E3D001208C4BD
:1020F300D83B001208C41C3B001208C4923A0012D9
:1021030008C49839001208C4884E001208C4C64C8B
:10211300001208C4924C001208C45F4C001208C499
:10212300324C001208C4F438001208C43B380012C1
:1021330008C4FE37001208C4584B001208C44437C1
:10214300001208C40E37001208C4B536001208C4C2
:102153006B36001208C4B54A001208C4857F00120A
:1021630008C40C36001208C4DB35001208C4A332BD
:10217300001208C46332001208C45732001208C4A4
:10218300B731001208C4F730001208C4702E0012D1
:1021930008C4012C001208C4BF2B001208C4932AE0
:1021A300001208C4482A001208C48429001208C473
:1021B300C728001208C49728001208C41C4A00123A
:1021C30008C45D28001208C47AFF0200000080FBE7
:1021D300E4738F000100CA0F87000100C80F2400B9
:1021E30002001606250002001806260002001A0641
:1021F30027000200A80F28000100AA0F29000100F0
:10220300AB0F84000400AC0F86000100B00F2A005E
:102213000100B10F2B000100B20F2C000100B60F1B
:102223002D0008001E062E000100B70F2F0001002D
:10223300B80F30000100B90F31000100BA0F3200AE
:102243000100260633000100270634000100BB0FFE
:1022530036000100280638000100BC0F39000100D8
:10226300B50F83000200C60F63000100320664004D
:102273000100B30F65000100B40F6D000100C50F2D
:102283006E0002001C0643000100BD0F4400020063
:10229300BE0F45000100C00F46000200C10F4700FA
:1022A30008002A0648000100C30F4B000100C40FB9
:1022B30004000100C90FA1000100CD0F3700010088
:1022C300CC0F88000100CB0F3C0001002906000061
:1022D3000000000000013636010100010201000187
:1022E3000301000104010606050200000701003492
:1022F3000801000F090401010D0100FF0E08000091
:1023030017020000190100FF1A0100011B0100FE62
:102313001C0100081D0200001F0100012001000133
:10232300210200002301000F240200002601000106
:1023330027010008280200FF2A0100072B010240A1
:102343002C0100002D0100012E0100012F0100FFCF
:1023530030010B1C310800003A0100083B01000F5B
:102363002F010000030071003001600011007000B4
:1023730031022003500480001000610000001400AB
:102383006300730072006200430000001300060044
:102393000000000004001200000000000000000024
:1023A30004000400370037003C0244000000000032
:1023B30000000000650000003500810000000500FA
:1023C3000000830000000103710301030103010303
:1023D30001030103220302030103100300030003AB
:1023E300000300030003000300034203000324036C
:1023F3000603000300030403120325032303250339
:102403002303040304030003000300034403000342
:102413000003230300036503210035038103000345
:102423000503000300030003010171010101010120
:10243300110101013101010101018001100161015B
:102443003B00140063017301720162014301000147
:10245300130106013D0135000401120100010001D1
:102463000001000104010401330133013C01440173
:1024730032013600000100016501000135008101D0
:102483000001050182018301000103027102300191
:1024930060021102700201020202020280021002B3
:1024A30061023A0041006302730272026202430254
:1024B30000021302380000020002040212020002AA
:1024C30000020002000204020402370037003C024B
:1024D30044020002390000020002650200023502D4
:1024E30081020002050282028302000203047104D6
:1024F30002046004110470040204020401040204CF
:102503001004610400041404630473047204620479
:102513004304000413040604000400040404120426
:1025230000040004000400045104640000040004D7
:1025330000044404000400040004000465040004CF
:1025430035048104640005040004830400040000CE
:1025530003002001E080000000002001E180000072
:102563000400420164800000050042015380000022
:10257300060042014280000007002001DE800000C7
:10258300100042033A100000110020035F0F000007
:10259300120010034B10030000002103600F06001C
:1025A30000002001640F0000000000000000000094
:1025B30003002001E080000000002001E180000012
:1025C30004004201648000000500420153800000C2
:1025D300060042014280000007002001DE80000067
:1025E300100042033A100000110020035F0F0000A7
:1025F300120010034B10030000002103600F0600BC
:1026030000002001620F0000000000000000000035
:1026130003002001E080000000002001E1800000B1
:102623000400420164800000050042015380000061
:10263300060042014280000007002001DE80000006
:10264300100042033A100000110020035F0F000046
:10265300120010034B10030000002103600F06005B
:1026630000002001630F000000000000000036009E
:102673000100060000000F00000000000000000041
:102683000000000003FFFF00000403FFFF0000FF42
:10269300FF0FF4010005C4040320000100020B0036
:1026A3000000000000000003010F0A1F461F101F57
:1026B3005E1F161F4C1F161F581F1C1F5E1F161F61
:1026C3004C1F221F5E1F281F5E1F2E1F5E1F341FFD
:1026D3005E1F3A1F5E1F401F5E1F000000000000C8
:1026E30000000000361A1300FA190100361A02001E
:1026F300C4190300CA190400D0190500D61906002D
:10270300E219FFFF000001DA0F06041008FE0F0BA9
:102713001C1010560F02E00F05F20F07E60F0CBC5A
:102723000F0DCE0FFF00004E147E1454145A14786C
:10273300146C14661484148A1490149C1460144842
:1027430014421403EAF5E5D5D5C5B5A59595858558
:1027530075756565555545453535252515150500AB
:10276300160F00000B150B020002220F32000006A9
:102773007A623230313630393239313032363337AA
:102783007969206875692079756E20736D6172743B
:1027930000000000000000008967452301EFCDAB76
:1027A3003E155015561518145C1512141E149E155B
:1027B300BC15C215A415B015AA1552134C138813D2
:1027C3008E1382133A1300034948424D1817250507
:1027D30002000119161816161523030030301718B6
:1027E3001921301B1D1F30303016181920231A1CD5
:1027F3001E3000383C3E363B3B352B432C0C0E023F
:102803000B040B0A0708000F72149614B615A214D2
:10281300A81492156215681574156E150204020149
:1028230001010109025E1364135813941300BE04DB
:102833000A6A137C130000000028000C000E000439
:1028430000FFEF1500080900040A09FF1E1E0C0310
:102853000408100C05080F00300174F7120482E914
:10286300FE121658EE900F6FF090030E74A4F0A3AF
:102873007421F0900310749EF0A37421F09003125E
:102883007498F0A37421F09003147492F0A374214C
:10289300F002433E74F7120482E9FE900302E4F06F
:1028A300EE900301F0900FC11236AE1246907C2ACF
:1028B3007D067A057B03121E8C900FC3E090030DF7
:1028C300F002433E74F41204828A088B09EB5480AD
:1028D300605B900301125D92604A8E828F83E06495
:1028E300017032124E21120768EE2412127171F533
:1028F3000A780A1209001229771208FCEE240B1237
:10290300297012076CEE2417125DA21216167409B1
:1029130012090F8008E06402700312208AEEFAEFB6
:10292300FB121700AA08E5096480FB803AEAA2E0DB
:102933005017900316124C5A60061236AA1221D36E
:10294300E5086401FAAB09801E5402600C900F6E17
:102953007401F0EA6402FA800EEA54046005EA6442
:102963000480F37A007B00022A43EE240CF582EF05
:10297300124E2B22EE240FF50AEF3400F50B780AE2
:102983002274F41204828A088B098A828B83A3A39C
:10299300A3E0241012434AFA124F8E7003022A3323
:1029A3008E828F837402F0A3E4124F51A3A3A3A3D7
:1029B300E8F0A3E9124A9FA3A3A3A3A3A3A3F0E56B
:1029C300082403F8E509123EF724101241B68E825B
:1029D3008F83A3A3A3A3F0EE2409FA122A35124589
:1029E300D7F5838882E0A2E58E828F83A3A3A3A376
:1029F300A3500474018001E4F0E5082403F88882FD
:102A03008983125CEBEA1267A9EB122973124FB6A2
:102A13001208F8126317EB12475D8E828F83A3A30C
:102A2300124E3A12090FEEFAEFFB900301124FFB1D
:102A3300800EEF3400FB8E828F83A3A32212090F33
:102A43007F040206E374F21204828A088B09ECFA0B
:102A5300EDFB740E120B65E0FC1216888A0C8B0DCD
:102A6300AE0CAF0DEE4F6023AC08AD09121676E93C
:102A73006019AC08AD09EEFAEFFB12167CE970079A
:102A8300EEFAEFFB1216707900800279B40237096F
:102A930074EE12048274F71209A38A0A8B0BECFEFC
:102AA300EDFF750FB3750E00750C00750D00800CEE
:102AB300E50C2401F50CE50D3400F50D902842E4F6
:102AC30093F8740193F9C3E50C98E50D994003025B
:102AD3002BB3AA0CAB0D1216D68A088B09EA45094B
:102AE30060CE8A828B83A3A3A3A3A3E0250EF50E56
:102AF300F510C3E50A9510E50B940050B37C157DE2
:102B0300007900EEFAEFFB124C08A3A3A3A3E50A96
:102B1300C3950EF8E028C333F8E433F9E50828F544
:102B230082E50939F583A3A3A3A3A3A31253C8A3DF
:102B3300124486EAFCEBFDEEFAEFFB123F14A3E02E
:102B43006401700A124E2174011237EA804385181A
:102B530082851983AC82AD83850882850983125CE3
:102B6300E91216BEE9602D7408120B65E0C0E0128D
:102B73004E21D0E0F07408120B65E06403851882DF
:102B8300851983700CAC82AD83EE240B1237D7808A
:102B930003124684850882850983123DFCA3A31290
:102BA3004F14C0E0EE2414122970D0E0F0750F002A
:102BB300A90F740912090F7F0A0206E374F71204BE
:102BC30082E9FE8A828B83A3A3A3A3A3A3E0540871
:102BD30060298A828B83A3A3A3A3A3A3E0540260E7
:102BE300178A828B83A3A3A3A3A3A3A3A3A3E064B2
:102BF30006600574E96E700312218602433E74E891
:102C030012048274F71209A37407120B65124C2184
:102C1300E9851882851983F0ECFEEDFF7424120B0D
:102C230065780C120B087513008E828F83125CE596
:102C33008E828F83A3A3A3E0F91216948A148B15B3
:102C4300EA45157003022E0AEE2410125568A914E2
:102C5300120E5A8A168B17EA45177003022E0AEED4
:102C63002406F510EF3400F5117C00851082F583FE
:102C7300122E5C8E828F83A3A3A3122E511259EBC3
:102C8300F8A3E0F9851682851783A3A3A3A31238BB
:102C9300EC122E51A3A3A3A31257658516828517A1
:102CA30083A3A3A3A3A3A3F0EE1267A9EF1230CBD0
:102CB3001208F8EE126318EF12475D851682851726
:102CC30083A3A3A3A3A3A3A3A3A3124E3A12090FFF
:102CD300751000022D8A850A82850B83125CE91226
:102CE30016C4850882850983A3EAF0A3EB124E4D2F
:102CF300A3A3124B42125012E0A2E6500F850882A2
:102D0300850983A3A3A3A3A3E0D2E1F0E513706332
:102D1300850882850983A3125F0690036CE06870BF
:102D230003A3E069704D850882850983A3A3A312D9
:102D33005575780C1208F47427120B65E0F50A78C0
:102D43000A1209007426120B6512076C900379129C
:102D5300076C79007410120B65124A8F12210E74DE
:102D63000912090F850882850983A3A3A3A3A3E0FE
:102D73004405F074012510FC8E828F83A3A3A3A3C3
:102D8300A3A3122E5C0510E50A450B6052851008BB
:102D9300C3E5089514E495155045E51075F006A4B0
:102DA300F8A9F0E51628F8E51739F9E8240CF50831
:102DB300E9123CBBE4124E4364016003022CD97553
:102DC30013018508828509837401124E48F8A3E034
:102DD300F9850882850983A3E8F0A3E9022CF0AA08
:102DE30016AB17120E6078161208FC7425120B65C9
:102DF300E0FC7402120B65E0F9EEFAEFFB12218C92
:102E0300740212090F80428E828F83A3A3A3E0C0B2
:102E1300E07404120B65D0E0123B05E0C0E07405DA
:102E2300120B65D0E0F0E514451570097406120B1A
:102E33006574B980077406120B657410F07401127F
:102E43000B65AA82AB8312211474090269C2E0855F
:102E53001682851783A3A3A3221253B18E828F8375
:102E6300A3A3A3E0F912169A8A0A8B0B2274E81221
:102E7300048274F31209A38A0A8B0B89178C1674C4
:102E830025120B6512718CAA0CFB120E4EE9F51478
:102E9300AA0CAB0D120E54E9F515E51470030230BC
:102EA300BD751300800F8E828F83A3A3A3A3A3E01A
:102EB300D2E3F00513E50C240BF582E50D12325233
:102EC300E513C39840030230B4E51470030230B431
:102ED300E51375F006A4F8A9F0E50C28F8E50D391B
:102EE300F9E8240CFEE9126F60A3A3A3A3E0A2E018
:102EF30040C1750E008E828F83E07043125CEA122C
:102F03000D468A088B09A808A909E8496031888217
:102F13008983A3A3A3A3E06401600D88828983A3AB
:102F2300A3A3A3E0640370178E828F83A3A3A3A339
:102F3300A3E0D2E7F0750E01E5157003022EB67516
:102F43000F00750808750900E5166003750F201258
:102F53004BA8E060339003BCE064017017E50FD227
:102F6300E3F50F7509108E828F8312466F12447535
:102F730074FF8024430F0C75080C8E828F83A31279
:102F830030D7126959A38010E5176009E50FD2E61F
:102F9300F50F75080A1230EEF07402120B65E50F97
:102FA300125A0AC0E07404120B65D0E0F0740512E3
:102FB3000B6512435C120B65E0600302308F7408EB
:102FC300120B65123CFC8E828F83A3A3A3A3F07420
:102FD30008120B651235B7F583E508F0A3E509126E
:102FE30049BAE060119003BCE0C0E07408120B65BD
:102FF3001235B0D0E0F0850C82850D83A3A3A3E046
:10300300C0E07408120B6512649DD0E01264D9C04D
:10301300E07408120B651235C2D0E0F07408120B8D
:10302300651230D7A3A31264A41259F4125CE9E821
:103033002428F582E912555B125A00C0E0E8242ED9
:10304300F582E9122973D0E0F07408120B65125C63
:10305300EB850A82850B831230C22424F582EB129E
:10306300468D1267A7E50B1230CB1208F8124755AD
:10307300EA242BF582EB122973124E3A12090F85BB
:103083001882851983AA82AB831215F88E828F83E7
:10309300A3A3A3A3A3E0D2E0F0740C120B65E0603A
:1030A30003022EA9E50EA2E0500215151514022EF7
:1030B300B67900AA0CAB0D122180740D0269C2A36C
:1030C300A3A3A3125F0AEA22124E2B1259C0751250
:1030D30000781022125F0A850A82850B83A3A3A3BB
:1030E300A3228E828F83A3A3A3A3A3A3124674E870
:1030F300F0A3E92274F212048274EB1209A3EAFE2C
:10310300EBFF89088E828F83A3A3A3A3A3A3A3A307
:10311300E0F9120E788A0A8B0BEA450B607FE5080B
:1031230070047C0480027C088E828F83A3A3A3A3F4
:10313300A3A3A3A3E0F9120E7E12296D124C5A60C9
:103143005C88828983125CE77406120B651231A5D1
:10315300125CEB7408120B651231A5A3A3E0C0E067
:103163007410120B65D0E0125A17125CEB740E1236
:103173000B65124C217411120B65E4125750F97848
:103183000A1208FC742059FC744059F97402120B9A
:1031930065AA82AB8312218C740212090F74150283
:1031A3003706EAF0A3EB1231AD221245E7A3A3A33E
:1031B300A3A3A32274F712048274FA1209A3E9FEEB
:1031C3007F018F087D0080047508000D12434312B0
:1031D3003252EDC3985025ED75F006A4F8A9F0EA34
:1031E30028F8EB39F9E81267A2E91253A350D9542E
:1031F3000C60D5E0A2E250D37F0080CF8A828B831C
:10320300A3A3A3A3A3A3E0703EE508A2E040057433
:10321300016E70338A828B83A3A3A3A3A3A3740138
:10322300126356E0C0E07403120B65D0E012634EE4
:10323300E0C0E07404120B65D0E0F07405120B6576
:10324300EF12463E122114740602433BF582EF123D
:103253005760F822C082C08379011221800237D0DF
:10326300C082C083EA4B60189003B8E06402701018
:10327300900F6EE4F0EAFCEBFD7A021232988012B2
:10328300900F6E7401F07A027B00900301E0F91253
:1032930018140237D07B00900301E0F912180822BA
:1032A30074F212048274F31209A3EAFEEBFF8E8216
:1032B3008F83A3A3A3A3A3A3A3A3A3A3E0F50A902C
:1032C3000F6EE0700579BA0235AB75080175090018
:1032D300750C00750D007C087D00790085188285CA
:1032E3001983AA82AB831216E87405120B65740165
:1032F3001235D3540460127402120B65E0D2E61245
:1033030035D354087003750803E054106006744005
:103313004508F508E0540860227402120B65E04486
:10332300C01235D35420600A7403120B65E0D2E057
:1033330080087403120B65E0D2E1F08E828F83A3C1
:10334300A3A3A3A3A3A3A3E070181210E885188274
:10335300851983124C217402120B65E0D2E2F0024C
:10336300340A640F70157402120B65E0D2E3125035
:1033730013124C024508F50802340A8E828F83A388
:10338300A3A3A3A3A3A3A3E064028E828F837005E8
:103393001230EF80C9A3A3A3A3A3A3A3A3E0640351
:1033A3007013851882851983AC82AD83EEFAEFFB27
:1033B30012214480528E828F83A3A3A3A3A3A3A32A
:1033C300A3E0640170419003BCE0601C7402120B23
:1033D30065E0D2E312500185188285198312469065
:1033E300750910750AFF80187402120B65E0440C0E
:1033F3001264C674FDF0A374FFF074044508F50865
:103403008E828F8312718C12539D503A7402120B69
:1034130065E0540C701B8E828F83125CEB121B08C9
:10342300E9700579BB0235AB7402120B65E0D2E596
:10343300F012539D50107402120B65E0540C640497
:103443007004E0D2E5F0EE2411127171C0E074044F
:10345300120B65D0E012435E120B65E06003023588
:10346300A47408120B651235B71235C9EE2418126D
:103473007171C0E0E8126793E9122973D0E0F0EEAE
:103483002419127171C0E07408120B65E024131241
:103493003CC4D0E0124493640170119003BCE0C0BB
:1034A300E07408120B651235B0D0E0F07408120B0B
:1034B3006512418E2417FAEF1241BDFCE8241CF576
:1034C30082E9122973ECF0A3E41250ACE0C0E0E807
:1034D3002422F582E9122973D0E0F07408120B65F7
:1034E3001235C2E50AF07408120B651241A32424B5
:1034F300F582E9125CB0A3E50D125D0EFCA3E0FDBD
:10350300E82426F582E9122973ECF0A3ED12399031
:10351300124BD8E82428F582E9122973125F0EC0F2
:10352300E0E8242FF582E9122973D0E0F0EE241BA2
:10353300127171C0E07408120B65126496D0E0F04A
:10354300EE241A127171C0E07408120B65E0242E88
:10355300123CC4D0E01264BE124F9E1208F8EE244F
:1035630011124BD1740B120B65124E3412090FEE6C
:1035730024151271715440601B900328124C5A6039
:1035830013851882851983AA82AB83900329123687
:10359300AA1221D3851882851983AA82AB831215B7
:1035A300F8740C120B65E0F9740D023706E024156C
:1035B300123CEA221241A7240FF582E9340022E0EB
:1035C3002423123CEA22F583E508F0A3E509F0225F
:1035D300F0EE241512575D2274F71204827E638A7B
:1035E300828B83E0600C7905120C68E9F87456C38A
:1035F30098FE900364E0600CF9120C68E9F8EEC3DE
:103603009824F2FEEEF902433E74F612048274FE2D
:103613001209A3851882851983124C21E9FEECFA5D
:10362300EDFB740C120B65E0FC9004AE124C5A6077
:103633003285188285198385820885830978081263
:1036430008FC7D01EEF99004AE1236A71221D37463
:103653000212090F8B09EA45096004790080067993
:10366300B2800279B602383174F7120482E9FE742B
:1036730009120B65E0FF90030E124C5A601AEFF526
:10368300087808120900EEF990030E1236A71221EA
:10369300D3740112090F800279B602433EEEFAEFAA
:1036A300FB900320E0F8A3123F4822125F0A900325
:1036B300032274F21204828A088B09ECFEEDFF7573
:1036C3000A0190036CE065087004A3E065097005C6
:1036D300124A88802A1210EE8A0C8B0DE508650CBD
:1036E3007004E509650D7009EEFAEFFB1210F48022
:1036F3000EEEFCEFFDAA08AB09120CE0E9F50AA9EE
:103703000A800312090F7F060206E374F51204828E
:10371300EAFEEBFF8C088D09750A01126BF612376E
:10372300E0700B90036C123F76124690800EAC084B
:10373300AD09EEFAEFFB120CE6E9F50AA90A0260FD
:103743008274F6120482EAFEEBFF7A0C7B001217F6
:103753007EEA4B606BEE24201271718A828B83F0B8
:10376300EE24211237C6F0EE24221237C6A3F0EE60
:1037730024231237C6A3A3124E6D1259DDE8F0A31A
:10378300E91257551259DEA3A3E8F0A3E912557BBA
:103793008A828B83A3A3A3A3A3A3A3A3F0EE242FC3
:1037A300127171C0E0124343122973D0E0124C2707
:1037B3008A828B83A3A3A3A3A3A3A3A3A312469049
:1037C30002383612575D8A828B83A322F0D083D0CE
:1037D300820208C1FAEF3400FB121E8C2212447AD3
:1037E300221237EAA3E0221237EE221237F2221214
:1037F3004F49A3A322124AADA3E02274F612048216
:10380300ECFEEDFF79B3900363E07020900395E045
:1038130064017018EE1267A2EF126F74EE240F1298
:10382300468AE84960047900800279A18005740220
:1038330012090F7F020206E374F412048274FE126B
:1038430009A3ECFEEDFFEE241612717164057011ED
:10385300EE2406FCEF3400FD12214AE9700302381E
:10386300E5851882851983AC82AD831266E8123A26
:1038730077124C5A6068E875F009A4F8AAF075F05D
:1038830009E9A42AF974ED28F874F339F9E8FAE997
:10389300FBEE2412122970C082C0838A828B837844
:1038A30008120B08D083D0827808120AE8402B85CF
:1038B300188285198312418E240F1229701238EC55
:1038C3007808120B089080AC7808120A0C8A828B55
:1038D300837808120B267900800A79A2800679A1E1
:1038E300800279C87402022A40E8F0A3E9123B0976
:1038F3002274F412048274FF1209A3EAFEEBFF9010
:103903000363E07075900395E06401706D75083A88
:1039130075090078081208FC7402120B6585820889
:1039230085830978081208FC12398212090FE9709D
:103933003EEE1267A9EF123F80124A50C0E0EE2418
:1039430011122970D0E0123990743A12576590031E
:1039530030120B42EE2412122970120B4E9080ACDF
:103963007808120B089003307808120A91800BEE46
:10397300240FF582EF12432CA3F07401022A407C3A
:10398300017D007A007B001212C8740422F0EE2439
:103993000F124E282274F012048274F61209A3EC5B
:1039A300FEEDFF7402120B65AC82AD8312214AE96E
:1039B3007003023A72851882851983AC82AD8374D1
:1039C30002120B65AA82AB83123A77124C5A700328
:1039D300023A72E875F009A4F8AAF075F009E9A4AF
:1039E3002AF974E928F874F339F988088909EE2467
:1039F3000E123A81124A50F8A3E0F9EE240F124F47
:103A03003A120B42EE2412122970120B4E9080AC24
:103A1300780C120B08850882850983780C120A91A9
:103A23008508828509837808120B089080A8780C92
:103A3300120B087808790C120412E50C450D450E9B
:103A4300450F702B8518828519831241A375F009E0
:103A5300A4F8AAF075F009E9A42AF974F128F5820B
:103A630074F339F5837401F07A007B10123A897488
:103A73000A023B14121B0E85188285198322F582D4
:103A8300EF124E2BE422900527E0F9121736227429
:103A9300F01204828A088B09ECFEEDFFEE240FF589
:103AA30082EF12432CA3123B05C082C0839080C0D7
:103AB300780C120B08D083D082780C1209CE6032B6
:103AC300123AF97005122132802AE0700512212C76
:103AD30080226402701312212CE96018EEFCEFFDC2
:103AE300AA08AB09121B32800BE0640360DF79A1E3
:103AF300800279A3801EEE240EF582EF12576064D4
:103B03000122123B0922F0EE2412F582EF124E2F0E
:103B13002212090F7F080206E374F6120482EAFEFA
:103B2300EBFFEE240AF508EF126954850882124B65
:103B3300D6EC240F124329124BF21221028508827C
:103B4300850983124C57706B123CC87003A3E0695C
:103B5300600A123CAA7003A3E06970578E828F83B8
:103B6300A3A3A3A3A3A3A3A3A3A3124BD88E828F20
:103B730083125CEB121B38E960188E828F83A3A338
:103B8300A3A3A3A3A3A3A3A3E0240F123CC4E4F021
:103B9300A3F08E828F8312648E8E828F83A3A3A35E
:103BA300A3A3A3A3A3A3A37005123F708004123F92
:103BB3004EE4F0124C49701A123EFB125CEB1221D8
:103BC30026850882850983124C57700612296D7465
:103BD300A1F002383674F6120482EAFEEBFFEE24FB
:103BE3000A123F0A7A187B0012177E85088285091C
:103BF30083123D01F8A3E0F9E8497003023CA1EE0A
:103C0300FAEFFB1220F6124C49607F123CEE64017E
:103C13007007123CD5740E8034E064027007123CC6
:103C2300D5740D80288E828F83A3A3A3A3A3A3128D
:103C33004C5A70EA123CC87003A3E06960E0123C7E
:103C4300AA7003A3E06960D6123CD57405124BFB3E
:103C5300540364017007123F2E7405800B900364B4
:103C6300E0C0E0123F2ED0E0F0EE240AF508EF1298
:103C73003CBB123F3C123E01C0E0850882850983AC
:103C8300E02417123CC4D0E080198508828509839B
:103C93001242E9850882850983E4F0A3800512298D
:103CA3006D7410F00238361210E88A088B09A808E0
:103CB300A90990061CE06822126954850882F583DD
:103CC30022123CEA228E828F83125F0A90061CE046
:103CD30068228E828F83A3A3A3A3A3A3A3A3A3A3D7
:103CE300E02416123CEA22123F59228E828F83A3CC
:103CF300A3A3A3A3A3A3A3A3A3123F52E022EAF087
:103D0300A3EB123D0922124F49E02274F1120482FF
:103D13008A0A8B0B8C088D097A18125E6170030274
:103D23003DF48E828F837401F0E508240DF8E509D4
:103D33001266F1C3E49AFA95E0FB1267AE12555F7F
:103D4300FB8E828F83A3A3A3A312574C8E828F83F0
:103D5300A3A3F0EEFAEFFB120C1485088285098306
:103D630012649070098E828F83A37405800690037A
:103D730064123DFCF0EE2417F8EF3400F9880C8947
:103D83000D8E828F83123E00850C82850D83F0EEAB
:103D93002416F8EF3400F9E508240EFAE509340097
:103DA300FB8882898312499CE50824100A0AE509E5
:103DB3003400FB850C82850D83E0FC88828983E0D7
:103DC300F88A828B83E0C398C39C1250A3F0EEFC65
:103DD300EFFDAA0AAB0B1220FCE9F508700AEEFA14
:103DE300EFFB120C20E9F508EEFAEFFB12178480C3
:103DF30003750810A908026C19124AA622A3E0F958
:103E0300120C68E92279010208C174F4120482EAEF
:103E1300FEEBFF8E828F83A3A3A3A3A3A3A3A3126B
:103E23005CEF126490706B123CEE70668E828F832F
:103E3300A3A3A3A3A3A3A3A3E0242B123CC4123FD5
:103E430068704F8E828F83A3A3A3A3A3A3A3A3E02E
:103E5300242BF888828983123F3CE0F87401686060
:103E63000A740668600574056870138E828F83A3D5
:103E7300A3A3A3A3A3A3A3A3A3123F7080138E8220
:103E83008F83A3A3A3A3A3A3A3A3A3A3123F4E74AC
:103E930003F0123EFB1236A7E4F0EE2408F8EF120B
:103EA3003EF7242D1241B6C0E0123F22D0E0125754
:103EB30050242A1241B6C0E0123F22A3D0E0125789
:103EC30050240B123CC4123F7612400F1244868AD0
:103ED3000A8B0BAC0AAD0B850882850983E02406A7
:103EE3001253B7123F14125CEB120C2012296DE926
:103EF300F0022A431245CA22EE240A123F0222127A
:103F03003F0A8882F58322F8EF3400F9880889098B
:103F130022123F1822121E8C85088285098322856E
:103F23000882850983124013A3A3228E828F83A361
:103F3300A3A3A3A3A3A3A3A3A3123F4022E0F81226
:103F43003F47A322A3E0F583888222123F5222E057
:103F5300240E123F5922123F5D22F8A3E03400F9E8
:103F63008882898322E0F812481A640522123F529C
:103F7300740222125F0A85088285098322124E2B5E
:103F8300740122023E08C082C08390031E74F0F0C5
:103F9300A37420F090032074E4F0A37420F0900342
:103FA3002274DEF0A37420F090032474EAF0A37467
:103FB300200237CF74F4120482EAFEEBFF12401C96
:103FC300F5081210E88A0A8B0BA80AA90B8E828FB8
:103FD3008312400FE0687003A3E069602CE508A238
:103FE300E550268E828F83A3E0FB90031E1236A733
:103FF3001221D38E828F83E0F8A3125175A3124C42
:104003005A700612401CC2E5F0022A4312401322E2
:10401300E0FAA3E0F5838A82228E828F83123F40E7
:10402300A3E02274F512048212417C1241A32420DE
:10403300F582E9127174FE74035EF50A1249861261
:10404300297312418E88828983F0A3A882A983E50C
:104053000A60097402650A60030240ED740C5EFF96
:10406300601574086F601074046F701D7402650A24
:104073007005EEA2E4402D8A828B83A3A3A3A3A39E
:10408300A3A3A3E024231241DE740C6F701012412A
:104093007724241241C624241241891241E1740277
:1040A300650A7005EEA2E4404112417724261241CD
:1040B300C62426124193A31241F01241931241F0F8
:1040C3001241891241E1EF600F74086F600A740CAA
:1040D3006F600574046F70128A828B83A3A3A3A3FA
:1040E300A3A3A3A3E024221241DE8A828B83A3A38A
:1040F300A3A3A3A3A3A31241AC7005EEA2E150179F
:104103008A828B83A3A3A3A3A3A3A3A3E0242E1236
:10411300498D1241D7800E9003021241D7900302BA
:10412300E0041245E7A3A882A983EEA2E750421256
:10413300417724211241931241E18C828D831241F4
:10414300AC602E8A828B83A3A3A3A3A3A3A3A3E020
:1041530024301241DEEEA2E150178A828B83A3A39F
:10416300A3A3A3A3A3A3E024311241B68882898326
:10417300F002608212417CE022EA2408FCEB340066
:10418300FD8C828D8322124991A322125F0AEE22B3
:1041930012419722F508A3E03400850882F58322B3
:1041A3001241A72212500CE822E02421124991E087
:1041B300540322FAA3E01241BD223400FB8A828B0E
:1041C30083E0221241971241D7A3A882A9838C824C
:1041D3008D83E022E088828983F022124991124183
:1041E300E522E088828983F0A308A983221241E5AE
:1041F3008C828D83E0242822C082C0838A828B83B1
:10420300124020F8740358F98A828B83A3A37401A4
:10421300F0E960057402697061740C58FC601474F1
:10422300086C600F74046C70137402697005E8A263
:10423300E4401D8A828B83A3A37402F0740C6C7018
:104243000A8A828B83A3A3E02402F07402697005B7
:10425300E8A2E440258A828B83A3A3E02404F0EC44
:10426300600F74086C600A740C6C600574046C70E5
:10427300098A828B83A3A3E004F0E8A2E750318A82
:10428300828B83A3A3E004125F12F9A3E0F5838971
:1042930082A3A3A3E0540360178A828B83A3A3E0C2
:1042A30004F0E8A2E150098A828B83A3A3E004F01F
:1042B3008A828B83A3A3E0040237CFC082C0838AA0
:1042C300828B83A3A3A3A3A3A3A3A3A3A3124C5A45
:1042D30060098A828B83A3A31242E10237D0A3A38E
:1042E300A3A3A3A3A3A31253B11217842274F71297
:1042F3000482EAFEEBFF125F0288828983A3A3A3F1
:10430300A3A3A3A3A3E4F0A31231ADA3A3A3A3F098
:10431300A3F0E8125C92E912432C1220C6EEFAEFE6
:10432300FB1220D28015F582ED124E2BE4F022749D
:104333000C120B65E0F9740D12090F7F010206E3FD
:10434300EA240BF582EB2212660A240922124E2B71
:10435300127190750E00780C2274011246421243BA
:10436300FC2274F512048274F31209A3EAFEEBFF34
:104373007C087D007900851882851983AA82AB8326
:104383001216E81230E51249C9C0E07404120B6535
:10439300D0E0F07402120B657401124493C0E07410
:1043A30005120B65D0E01249CF6401700974021243
:1043B3000B65E0D2E5F01243F2120B65E0702D8E2F
:1043C300828F83124FB41208F88E828F83A3A3A324
:1043D300A3124760740B120B65124E3412090F853A
:1043E3001882851983AA82AB831215F80260768539
:1043F3001882851983AA82AB83122084740C2274D9
:10440300F712048274FE1209A3ECFEEDFF7508C8CF
:10441300851882851983AC82AD83122144E9640136
:104423007049851882851983125182124475A3A39A
:10443300E4F0900632E0601B8E828F83A3A3123FC9
:104443006870108E828F83A3A3A3A3A3A3A3A374D3
:1044530001800D8E828F83A3A3A3A3A3A3A3A3E4AD
:10446300F0EEFAEFFB1220B4E9F508A90874020292
:10447300433B124A7AA322121E86E9640122124F99
:1044830041E022A3A3A3A3E8F0A3E9F01210E222E0
:10449300125588A3E02274F612048274F41209A35D
:1044A300EAFEEBFF1230E51245C0FAA3E0F5838A7A
:1044B30082A3E0FA7402120B65EA12575024021227
:1044C3004A577404120B65124690EA600A7402128A
:1044D3000B65E06404701C1245B41253B7740612E2
:1044E3000B651245BA124A577408120B65E8F0A31C
:1044F300E98056E06401600AE064066005E0640553
:1045030070231245B41241B6C0E07403120B65D098
:10451300E012575024131253B77406120B65125747
:104523004C241B80C07406120B65E4F0A31245C033
:1045330024121253B77408120B651245BA12660699
:10454300C0E0740A120B65D0E0F07406120B65121A
:104553004C5A60287406120B65125CEB120CD4E9FA
:10456300640170181210E28A088B09AC08AD097453
:1045730006120B65125CEB1237E0700F851882850B
:104583001983AA82AB831221088021851882851999
:1045930083AA82AB83121B14E96401700FEEFCEF54
:1045A300FD7406120B65125CEB1220AE740C02381C
:1045B300331245C52412221245DE241A22F0124575
:1045C300C522EE2402F8EF1245CFE0223400F98829
:1045D300828983221245DEF8A3E022EAF0A3EB12DC
:1045E30045E7E022F08882898322C082C08374FC7D
:1045F3001209A31246661246908A828B83A3A3E014
:10460300124A557402120B6512463A12165274047A
:10461300800012090F0237D0C082C08374FD1209D3
:10462300A312464EC0E07402120B65D0E012463E60
:10463300120B78740380DBE8F0A3E912464222F000
:10464300851882851983AA82AB83228A828B83A3EE
:10465300A3A3A3A3A3124A478A828B83A3A3123FD4
:1046630040E0228A828B83A3A3A3A3A3A31246744D
:104673002212467822E0F8A3E0F98518828519838F
:1046830022125F0AEE240BF582EF124E2B124A4AD6
:1046930022AA82AB831216DC740322124A4A9003C5
:1046A300302274F412048274FB1209A3EAFEEBFFB6
:1046B3008E828F83A3A31241A32409F508E912690B
:1046C300547403120B65AC82AD8388828983A3AAD9
:1046D30082AB83122144E96401706A8518828519CB
:1046E3008374321249C924F7C0E07401120B65D0F8
:1046F300E0F07402120B65E412463E120DA68A0A1C
:104703008B0BAE0AAF0BEE4F603B7403120B6512BB
:10471300474DA3A3124481C0E0EE2420122970D098
:10472300E0F0750A0078081208F8EE126F5BEF12DA
:10473300475DEE240B122970124E3A12090FEEFA5E
:10474300EFFB120DA07405022A40125F0A8E828FBE
:104753008322E50A2410F582E50B124E2BE0FC7D43
:104763000022C082C083124791600E24FE600F2492
:10477300FE601024FB601180121220A8800D12200D
:10478300A2800812209C80031220960237D08A82CE
:104793008B83A3A3E0F812481A24FB22C082C083B0
:1047A3008A828B83A3A3A3A3A3A3A3A3E070528AA8
:1047B300828B83A3A3E0F812481664016043124876
:1047C300106402603C1248106403603512481064A0
:1047D30004602E8A828B83A3A3123F6A602312484C
:1047E30010640A601C124810640B601512481064B0
:1047F3000C600E124810640D60077904121E748059
:10480300099003261236A71221D30237D08A828B4E
:1048130083A3A312481A22123F47E02274F612041C
:104823008274FA1209A3EAFEEBFF7403120B65EE1E
:10483300F0A3EFF07403120B65AA82AB831220BAC4
:1048430012716E600302498185188285198374325F
:10485300F07405120B65C082C0838E828F83A3A37D
:10486300A3A3E0D083D082F8E028C0E07401120B48
:1048730065D0E01249CFC0E07402120B65D0E0129C
:1048830049B4F8A3E0F9E8496026E82417F582E97A
:10489300122973C082C083E82416F582E912717469
:1048A300D083D082F8E028F87401120B65E028F079
:1048B300851882851983AA82AB83120DA68A088B79
:1048C30009A808A909E84970030249748E828F83F5
:1048D300125CEB88828983A3A3EAF0A3EB1249BAA3
:1048E300A3A3E0C0E0E82420F582E9122973D0E015
:1048F3001264D9C0E0E82421F582E9122973D0E0DB
:104903001249C9C0E0E8242AF582E9122973D0E0EC
:10491300F07405120B65E0FA1249861271742A12BB
:1049230053B7E8242B124C1B7405120B65E0C0E04F
:10493300E8242DF582E9122973D0E01249B4FAA3D1
:10494300E0FBEA4B6019E8242BFAE9122A36A3A309
:10495300A3A3A3A3A3A3E0241612498D12499C8EFB
:10496300828F83A3A3A3A3A3A3A3A3E8F0A3E980B4
:104973000CEEFAEFFB1220C012296D7410F07406CE
:10498300023833E8240BF582E92212499122FCA371
:10499300E03400FD8C828D8322E0FC8A828B83E0ED
:1049A3002CFCA3E03400FD8A828B83ECF0A3EDF0B2
:1049B300221250B0A3E022F0E8126793E9124E2BC3
:1049C3007401125013221250A7A3E022124A64E08A
:1049D3002274F7120482EAFEEBFF12716E701E124C
:1049E3004A0A124C5A60061236A01221D312716E73
:1049F300700B125CDF120DA012296DE9F0EEFAEFD5
:104A0300FB1220C002433E1220CC8E828F83A3A3CD
:104A1300A3A3A3A3A3A3A3A32274F6120482EAFE6F
:104A2300EBFF8C088D09121B08E9700479018011D2
:104A3300AC08AD09EEFAEFFB9003241236A712215E
:104A4300D3023836124678E8F0A3E9F0221264CA9A
:104A5300E0222401F8A3E03400F922124A64A3E01F
:104A630022124A6822124A6C22125017A3A3A3A34C
:104A7300A322124A7AE022E8F0A3E9124A82221220
:104A83005017A3A322126BFA121E8C22124BDCEED8
:104A9300FAEFFB22E0242B123F5DE0221237EA12E9
:104AA3004AA622E08E828F83A322124E81A3A3A360
:104AB300A32274F612048274F31209A3124BA412F4
:104AC3004C02120B65740CF07405120B6574011221
:104AD300558360097402120B6574218007740212F6
:104AE3000B65740112435E120B65E0703274081299
:104AF3000B65124B4C74061249C9124BC0EE2402CB
:104B0300F8EF1245CF124B37126367124B37A312DC
:104B13004A5EC0E0124B2E122973D0E01264D274A5
:104B23000C120B65E0F9740D023833E508240BF51C
:104B330082E50922124B42A3A3A3A3A3A3A322E0CA
:104B4300850882850983A3A322124BEA8808890971
:104B53008882F5832274F712048274F31209A31274
:104B63004BA4124C02120B657409F07402120B650C
:104B73007421F07405120B6512435C120B65E0702F
:104B83001D7408120B65124BE27407124BFB124B98
:104B9300C0851882851983AA82AB831215F8024354
:104BA30032EAFEEBFF7C087D0079008518828519C7
:104BB30083AA82AB831216E88E828F8322FCA3E042
:104BC300FD88828983A3AA82AB83121E8C22F5827D
:104BD300EF3400F583124BDC22E0FCA3E0FD22124C
:104BE3004BEA8882898322124A97F8A3E0F92212BA
:104BF30050121253B1227401125013A3A3E02212D4
:104C03004A477404221216E8850882850983A32281
:104C1300E0F508A3E0F50922F582E9124E2BEAF04C
:104C2300A3EBF022124C2B22124A8212500C22C008
:104C330082C083124C427490F0A374200237CF12C7
:104C430020D8900326228E828F83A3A3A3A3A3A39A
:104C5300A3A3A3A312576A1241A7492274F712040C
:104C630082E9FE124C8C122973124C5A6018888206
:104C73008983A3E05403700EEEFB12498612297355
:104C8300124CBD124CB702433EEA125C92EB22C0B7
:104C930082C083EAF8EBF988828983A3A3A3A3A341
:104CA300E0FB88828983A3A3A3A3124CBDA3124C68
:104CB300B70237D0E0F912161022E0FA888289830E
:104CC300A3A32274E81204828A088B098C168D1719
:104CD3008914741A120B65E0F50AA3E0F50B741C32
:104CE300120B65E0F513741D120B65780C120B089B
:104CF300126317EB127174242DFA7B001216FA8AD1
:104D0300108B11AE10AF11EE4F7003024E088E825E
:104D13008F837401F08508108509117512007810CE
:104D23001208F87C157D00EE2418124E1212090F9A
:104D330085161085171178101208F87C097D00EE8E
:104D43002402124E1212090F7418120B65124684B4
:104D5300850A82850B83E0C0E0EE240F122970D010
:104D6300E0124E48C0E0EE2411122970D0E0124E3A
:104D730043C0E0EE2410122970D0E0123B05E51386
:104D8300124E6DE4F0A3F0124E21780C120B26EEB6
:104D93002417122970E5141237F8F8A3E0F9EE246A
:104DA3000D122970124E671269761271746025EE26
:104DB3002426125395242DF8124E5F1267B0124326
:104DC300501208F812697412475D8A828B83124E5F
:104DD3003A12090FEE24191271715403601D9003E6
:104DE3001C124C5A600CEEFAEFFB1236AA1221D3B6
:104DF3008013EEFAEFFB121700800AEEFAEFFB9036
:104E03000301124FFB0269C57C087D00EE2404FAFE
:104E1300EF124E18223400FB1216DC740322EE2428
:104E230013124E2822F582EF124E2F223400F583FF
:104E330022E0242B123CEA1253B11216DC74032233
:104E4300124E56E022124E4DE022124E5122124EC5
:104E530056A322F0850A82850B83A322EF3400F93F
:104E63008A828B83124A4AE50822F0EE2426124EE8
:104E73002822F50CA3E0F50D750E00780C221237ED
:104E8300F2A3A3A32274F11204828A088B097A2065
:104E9300124F8E606F8E828F837406124FAA8E829A
:104EA3008F83A3A3A3A31237E48E828F83124F149D
:104EB300124E751208F87C107D00EE2406124E1275
:104EC30012090F850882850983A3A3A3124F0A241D
:104ED30016FAEF3400FB120CCE850882850983A3F2
:104EE300A3A3A3A3A3A3A3A3A3E0C0E0EE241E1242
:104EF3002970D0E0124F24C0E0EE241F122970D095
:104F0300E0124F2C026C19A3A3A3A3A3124BDCEE54
:104F130022A3A3A3A3A3124F1D221237EEA3A3E040
:104F230022F0124B2E12576022F0EEFAEFFB90059F
:104F330027E0F912170622124E28124F4122E8F0F9
:104F4300A3E9124F4922F085088285098322124F73
:104F53005522123D09F8A3E0F98E828F83A3A32281
:104F630074F41204828A088B097A0C124F8E60182B
:104F73008E828F837408124FAA124F9E1208F81262
:104F83004E0B12090F124FF4022A437B001216FA3A
:104F93008A0A8B0BAE0AAF0BEE4F22F508A3E0F59E
:104FA30009750A00780822124F55124F41A3A3E056
:104FB30022A3A3124C13750A0078082274F6120474
:104FC30082EAFEEBFF7A057B001216FAEA4B601EBB
:104FD3008A828B83740A1250018A828B83A3A31261
:104FE3004A758A828B83A3A3A3A3F0124FF80238D6
:104FF30036EEFAEFFB900527E0F91217062212505E
:10500300052212501712500C22E0F8A3E0F922A354
:1050130012501722F08E828F8322C082C083E990C0
:105023000F70F09003187496F0A3740BF090031AAA
:1050330074A8F0A3740BF090031C74BAF0A3740B60
:105043000237CF74F7120482EAFEEBFF8908EE4FB2
:105053007003121B9890032A124C5A700890032A6B
:105063008022125F0688828983A3A3A3A3A3A3A399
:10507300A3A312509D88828983A3A3A3A3A3A3A35D
:10508300A3A370DEEEF0A3EF1250ACE4F0A3125032
:10509300A3A3A3A3E508F002433E1253B1EA4B22B4
:1050A3001250A722124A82A3221250B02212558C08
:1050B300A3A32274F712048290032A800D8E828F99
:1050C30083A3A3A3A3A3A3A3A3A312663EEE4F604C
:1050D300348E828F83A3A3A3A3A3A3A3E06970DD6C
:1050E3008E828F83A3A3A3A3E06A7003A3E06B70F4
:1050F300CC8E828F83A3A3A3A3A3A3E06C70BEEE85
:10510300FAEFFB80047A007B0002433E74F712043B
:105113008290032A12663E90032A1230C6687002F8
:10512300EB697017125175125F0690032A124690AD
:1051330090032A12663E8030126631EE4F60298E4C
:10514300828F83A3A3A3A3A31230C2687002EB6967
:1051530070E68A828B83A3A3A3A3A3A3A3A3A3120F
:105163005182A3A3A3124690121784EEFAEFFB0217
:10517300433E123F48A3A3A3A3A3A3A3A3A3221223
:1051830053CCA3A32274F012048274FA1209A38AE3
:10519300088B098A828B83A3A3A3A3A3A3A3A3E05E
:1051A300600D640160098A828B831253A9600579BB
:1051B30002025390850882850983A3A3A3A3A3A313
:1051C300A3A3E0640370157404120B65AC82AD8372
:1051D300AA08AB09122144E9701380D3850882859C
:1051E3000983125F067404120B65124690126798C6
:1051F30012717424321253B712177E8A0A8B0BAEC4
:105203000AAF0BEE4F700302538E7C327D007900A0
:105213001216E87402120B65AA82AB838508828595
:105223000983A3A3A3A3A3A3A3A3A3E0F912215CCC
:105233007402120B65E0C0E0EE242D122970D0E059
:10524300F0EE242CF50AEF3400F50B7403120B6512
:10525300E0850A82850B83F07901EEFAEFFB120BEE
:105263008485080C85090D750E00780C1208F87CEE
:105273001C7D00EE240B124E1212090FEE24301285
:10528300539524320808124E5F2411F8E509127170
:1052930069FCE9FD8C828D8312418E242E122970C4
:1052A300124E6712572E12697D1208F88C828D8375
:1052B300124BD88A828B83124E3A12090F7404124E
:1052C3000B651253C81246909003021253BEF0901E
:1052D3000302E004125771242A125C9F750D0085A6
:1052E3000A82850B83E0780C120AA48A828B83E5F9
:1052F3000CF0EE2429122970E50C1264C6E4F0E5E3
:10530300082415F582E5091253A374015007120B03
:105313006574018004120B65E4F0EE2427123F0A42
:10532300851882851983AA82AB8312163AE924FE73
:10533300850882850983F0F508750900EE242E128D
:105343004BD1ECF8EDF9AA08AB091202C5E88E823D
:105353008F83A3A3A3A3A3A3A3A3F0ECF8EDF9AABC
:1053630008AB091202C58B09EA4509600F8E828FCB
:1053730083A3A3A3A3A3A3A3A3E004F0EE24201277
:1053830071714408125D1679008002791074060267
:105393003B14127167FAE9FBEE22EE2415F582EF56
:1053A300125760A2E0221253B1121184E922E0FAEB
:1053B300A3E0FB22FAA3E03400FB22124AA6A3A334
:1053C300A3A3A3A3221253CC2212500C8E828F8349
:1053D300A3A3A3A32274F4120482EAFEEBFF125CDC
:1053E30097124C21900FBDE0F8EE242B127171C37C
:1053F30098400302554D125CB77015EE242B1271C1
:10540300710412557BC0E0EE2429122970D0E0F01C
:10541300EE2428127171FC7900800109EE242C120C
:10542300324FE9C3985026750801750900E97808D9
:10543300120AA4125CB7550860E1E92CFC75080157
:10544300750900E97808120AA4E04508F0EE24275C
:10545300125568EE242E122970EC8A088AF0A4F8FB
:10546300ABF0E42BF9E098F8A3E099F9C3E89508C9
:10547300E99400EE4039242712324F125CB76037AB
:10548300EE242D122970125575A3E4F0EC7054EE3E
:1054930024201271714420124493C0E0EE2426129A
:1054A3002970D0E0F0EE2430125568A3E08059242F
:1054B3002912297074FFF090035CE0FA900FC0E0AA
:1054C300F508EA8508F0A4ABF075F064A4FAADF032
:1054D30075F064EBA42DFB8E828F83A3A3EAF0A364
:1054E300EB80A8EE242012717154DF124E6DECF0A4
:1054F3008C08EE24271271718508F0A4FAABF0EE44
:105503002430F582EF12555FFBEE241EF582EF1275
:10551300555B125583C0E0EE2425122970D0E0F0CC
:10552300EE241C122970E812576590032C124C5A72
:10553300600BECF91236AA1221D3E97018EE240B92
:10554300FAEF3400FB12216E800B7BE9EE2422F587
:1055530082EF125738022A431264B1221257602A8B
:10556300FAA3E03B2212556C22F582EF124E2FE094
:10557300FA22124AA6A3F022F0EE242A12575D2241
:10558300125588E02212558C22124A6CA3A322746E
:10559300F412048290032A12663E1218268A0A8B9A
:1055A3000B7CFF7DFF8020E0C398FAA3E099FBC347
:1055B300EA9CEB9D500E8E828F83A3A3E0C398FCDD
:1055C300A3E099FD126631EE4F6059125F02E50ABE
:1055D300C398F8E50B99F98E828F83125CE9C3E8CF
:1055E3009AE99B8E828F83A3A340BCA3A3A3A3E0CA
:1055F3006402701DEE240B125CBA600CEE241012D0
:105603002970125CEB121700EEFAEFFB120B90807D
:1056130007EEFAEFFB120B9C7A017B00900F7012DE
:105623003A8C801474FF6C700374FF6D600A7A0106
:105633007B00900F7012329D022A4374F012048291
:105643008A088B09ECFAEDFB890A7C011267981230
:105653005CA98A0C8B0DAE0CAF0DEE4F7003025795
:105663002BE50A600302572BE50812572EE0F8EEEC
:10567300242812717168600302572BEE242C1255F3
:1056830068E82AF8E43400F98E828F83A3A3A3A3E6
:10569300A3A3A3A3E0FAE89AE99400C365D0334037
:1056A300141259C8125CBD700C7B00126791E50996
:1056B30012573880731259C8125CBD7031EE242C16
:1056C300127171F9EE24291229707508FF7509000A
:1056D300E97808120AA4E508F0EE242A122970E5F5
:1056E3000812575529F0EE242B123A818022E5083F
:1056F3002414F8E5093400F9E0C0E0EE242A122965
:1057030070D0E0125750C0E0EE2429122970D0E087
:10571300125771242D122970123DFCA31257657A7A
:1057230001FB900F70123A8C023B172413F582E5AC
:1057330009124E2B2212556FEE2414124E28124CCE
:10574300B7EEFAEFFB120B9022EAF0A3EB1245E758
:10575300E022F0EE242812575D22F582EF124E2F3D
:10576300E022F0A3E4F022E0240F123F5922F012CA
:1057730018268E828F83EAF0A3EBF0EE2274E812F0
:10578300048274FD1209A3E9851882851983F08ABE
:105793000A8B0B8C168D17741B120B651259C07470
:1057A3001D120B65780C120B088A828B83A3A3E06E
:1057B300F912162E8A128B13EA451370077A007BAF
:1057C300000259BB7A127B0012177E8A088B09AE3E
:1057D30008AF09EE4F70030259B77C127D007900C0
:1057E3001216E87401120B65AA82AB83850A8285BF
:1057F3000B83A3A3E0F912215CEE240FF508EF124B
:1058030069547402120B65E0850882850983F07977
:1058130002EEFAEFFB120B8485168285178312536F
:10582300C8E8F0A3E9125A008E828F83A3A3A3A32F
:10583300A3A3A3F07514FF7515008508828509835A
:10584300E07814120AA412296DE514F085128285FA
:105853001383A3E0F8124816C0E0EE240B1229705C
:10586300D0E0125A0AF508EE240D122970E508F06B
:10587300125CC2E08508F0A42424FAE5F03400FBAE
:105883001216FA8A088B09EE126318EF124C1EEAFD
:10589300450970030259AC8A828B83741A125765C7
:1058A3008A828B83A3A3F0A31259F41259DD124603
:1058B30090AC16AD17EA2406FAEB3400FB12164C33
:1058C300850A82850B83A3A3A3E0C0E0E508240F28
:1058D300F582E509122973D0E0F0900379125F068F
:1058E300E50824101259D1125A17A3125F06E508CE
:1058F30024121259D1124E48C0E01259C81229730A
:10590300D0E0F0E50A125C92E50B127174C0E0E599
:10591300082415F582E509122973D0E01259EBC06A
:10592300E0E5082416F582E509122973D0E0127523
:1059330080E0C0E0E5082417F582E509122973D059
:10594300E0127580A3E0C0E0E5082418F582E509BC
:10595300122973D0E0124A50C0E0E5082419F582F9
:10596300E509122973D0E0F0E508241AF582E50968
:10597300122973780C120B26E5082424F8E5093460
:1059830000F9E5082422F582E50912468DE50A129D
:105993006793E50B127174C0E0E508241FF582E5F7
:1059A30009122973D0E0F0800BEEFAEFFB120B9093
:1059B3007E007F00EEFAEFFB74030269C2E0F5108C
:1059C300A3E0F51122E5082414F582E50922F58206
:1059D300E509124E2BE8F0A3E922E0F8A3E0F98AE7
:1059E300828B83A3A3A3A322F0851082851183E076
:1059F300221259F822124E51A3A3A3A322F0126735
:105A0300A0E50B12576022F0E50A2410F582E50B9E
:105A1300125760221259F8A3A3A32274E812048236
:105A23008A0A8B0B8C108D1189147418120B65E084
:105A3300F516A3E0F517741A120B65780C120B0810
:105A4300750900EA2413F582EB127174F5089003CB
:105A53002C124C5A6011A90890032C1236A712215C
:105A6300D3E96003025C8F7C028510828511831267
:105A73005CEB1267A0E50B125CA98A128B13AE12C2
:105A8300AF13EE4F704B850A82850B83A3E0A2E030
:105A93004003025C8F780C1208F478161208FCA9F4
:105AA30014AC10AD11AA0AAB0B120BAE740612099B
:105AB3000F8A0C8B0DAE0CAF0DEE4F7003025C8F93
:105AC3008E828F83A3A3A3A3A3A3A3A3E508125D3D
:105AD3001685080C8E828F83A3A3A3A3A3A3A3A3DA
:105AE300E024FFF8E434FFF9E8650C7001E9700382
:105AF300750901EE240B125CBA7003025C42850A3D
:105B030082850B83A3E0A2E05003750800125CF6C4
:105B1300E50C98E499C365D033401EE0F8EE240EFB
:105B230012717128F0750CFF750D00E8780C120ADC
:105B3300A4EE125C92EF125CB01267A7E50B12435E
