:020000040800F2
:1000000090040020490100086F0200085B0200080C
:100010006D020008B5010008090700080000000093
:10002000000000000000000000000000AD03000818
:10003000B701000800000000E902000859040008A8
:100040006301000863010008630100086301000800
:1000500063010008630100086301000863010008F0
:1000600063010008630100086301000863010008E0
:1000700063010008630100086301000863010008D0
:10008000630100086301000863010008000000002C
:1000900000000000000000000000000063010008F4
:1000A00063010008630100086301000863010008A0
:1000B0006301000863010008630100086301000890
:1000C0006301000863010008630100086301000880
:1000D00063010008AD040008630100080105000881
:1000E0006301000863010008630100086301000860
:1000F0006301000863010008000000000000000028
:100100000000000000000000630100086301000817
:10011000630100086301000863010008630100082F
:10012000630100086301000863010008630100081F
:1001300063010008DFF80CD000F02AF800480047FF
:10014000A1080008900400200648804706480047A0
:10015000FEE7FEE7FEE7FEE7FEE7FEE7FEE7FEE777
:10016000FEE7FEE75D04000835010008D2B201E0B9
:1001700000F8012B491EFBD270470022F6E710B5AC
:1001800013460A4604461946FFF7F0FF204610BD05
:10019000064C074D06E0E06840F0010394E80700D4
:1001A00098471034AC42F6D3FFF7C8FFFC080008AC
:1001B0001C090008FEE77047F0B5CA78002502F078
:1001C0000F03D20601D58A7813430A784FF00F0E39
:1001D00012F0FF0F4FF001021CD004680F8802FAE2
:1001E00005F63740B74211D14FEA850C0EFA0CF7ED
:1001F00024EA070703FA0CF43C43CF78282F02D0F7
:10020000482F02D002E0466100E006616D1C082D17
:10021000E4D304600C88FF2C1ED944685FF000060C
:1002200006F1080702FA07F50F882F40AF420FD1F9
:100230004FEA860C0EFA0CF7BC4303FA0CF73C436A
:10024000CF78282F00D14561CF78482F00D10561A4
:10025000761C082EE4D34460F0BDFEE702494AF65E
:10026000AA2008607047000000300040FEE7704799
:1002700070B50F23C47801780122F4B1144C2468BE
:10028000457804F4E064C4F5E064240AC4F104068B
:10029000E3408478B5401C402C4301F1E021230168
:1002A00081F80034007800F01F018A404009800086
:1002B00000F1E020C0F8002170BD01F01F00824075
:1002C0004809800000F1E020C0F8802170BD0000E6
:1002D0000CED00E002490843024908607047000045
:1002E0000000FA050CED00E070470000044A002908
:1002F000D16901D0014300E08143D1617047000022
:1003000000100240044A0029916901D0014300E035
:1003100081439161704700000010024030B51F49D1
:100320004A6812F00C031E4A03D0042B01D0082B9C
:1003300021D002604A680F231A4C03EA1212A35C10
:100340000268DA4042604B68072505EA1323E35C44
:1003500022FA03F383604B6805EAD323E35CDA40B7
:10036000C2604968032303EA9131231F595CB2FB41
:10037000F1F1016130BD4A684B6802F470124FF030
:10038000020413F4803F04EB924202D04B689B03BB
:1003900001D5054B00E0024B5A43CAE7001002406A
:1003A00000127A000A00002000093D00704700009A
:1003B0000CB50021264801910091026842F4803278
:1003C00002604FF4A063026802F400320092019AC6
:1003D000521C0192009A12B9019A9A42F3D1026812
:1003E000920333D5012100911A490A6842F01002A4
:1003F0000A600A6822F003020A600A6842F00202F8
:100400000A604168416041684160416841F480612F
:100410004160416821F47C114160416841F4E81178
:100420004160016841F08071016001688901FCD57B
:10043000416821F003014160416841F002014160DF
:100440004168C1F381010229FAD10CBD00910CBDB4
:100450000010024000200240704700000F4810B515
:10046000016841F00101016041680D4A114041609D
:1004700001680C4A11400160016821F4802101608B
:10048000416821F4FE0141604FF41F018160FFF7D4
:100490008FFF05494FF00060086010BD001002405A
:1004A0000000FFF8FFFFF6FE08ED00E010B5104C6D
:1004B00040F22551204600F05EF850B1204600F091
:1004C000E7F80C4A11780C4B0B44491C117018705A
:1004D00010BD40F22441204600F04DF80028F7D02E
:1004E00020880348001D008804490120087010BDC1
:1004F00000380140000000201C0000200200002005
:1005000010B5104C40F22551204600F034F850B19F
:10051000204600F0BDF80C4A11780C4B0B44491CE6
:100520001170187010BD40F22441204600F023F8ED
:100530000028F7D020880348001D008804490120C6
:10054000087010BD00480040010000205500002048
:10055000030000200029818902D041F4005101E00C
:1005600021F40051818170470246002012880A421E
:1005700000D00120704730B501F01F020124002592
:10058000C1F3421304FA02F2012B0FD0022B0FD059
:10059000838A4FEA11210088134204FA01F400EA29
:1005A000040001D000B10125284630BD8389F0E761
:1005B000038AEEE710B5C1F3421301F01F040121D5
:1005C000A140012B07D0022B07D01430002A02686B
:1005D00005D00A4304E00C30F8E71030F6E78A4310
:1005E000026010BD30B50446008A85B00D464CF659
:1005F000FF710840E98801432182A1894EF6F3107A
:100600000140A8882A8910436A890A431043A081BF
:10061000A08A4FF6FF410840A9890143A18268469C
:10062000FFF77CFE1948844201D1039800E002984C
:10063000A189090400EBC00101EB0010296801D574
:10064000490000E08900B0FBF1F06422B0FBF2F158
:1006500009010B096FF018056B4300EB8300A389B8
:100660001D044FF0320306D503EBC000B0FBF2F0DF
:1006700000F0070005E003EB0010B0FBF2F000F023
:100680000F000843208105B030BD00000038014054
:100690008088C0F308007047C1F30801818070476B
:1006A0002DE9F0410E4607460024094D0BE040219C
:1006B0002846FFF759FF0028F9D0395D2846FFF793
:1006C000EBFF641CE4B2B442F1D3BDE8F08100005A
:1006D000003801402DE9F0410E4607460024094D3F
:1006E0000BE040212846FFF73FFF0028F9D0395D95
:1006F0002846FFF7D1FF641CE4B2B442F1D3BDE851
:10070000F081000000480040FEE7000030B587B0EF
:10071000012144F20400FFF7F5FD4FF40070ADF83D
:10072000100003248DF812401820244D8DF813007A
:1007300004A92846FFF740FD2815ADF81000042055
:100740008DF8130004A92846FFF736FD4FF4A0608A
:10075000FFF7C0FD25208DF814008DF815408DF8A9
:10076000164001208DF8170005A8FFF781FD4FF412
:10077000614000900020ADF80400ADF80600ADF82F
:100780000800ADF80C000C200D4CADF80A006946CD
:100790002046FFF727FF012240F224412046FFF7C1
:1007A00009FF012240F225512046FFF703FF0121F6
:1007B0002046FFF7CFFE07B030BD00000008014023
:1007C0000038014030B587B001210820FFF79AFDBD
:1007D00001218804FFF78AFD4FF48060ADF8100016
:1007E00003248DF812401820234D8DF8130004A91E
:1007F0002846FFF7E1FCE814ADF8100004208DF85E
:10080000130004A92846FFF7D7FC4FF4A060FFF7B8
:1008100061FD27208DF814008DF815408DF81640E5
:1008200001208DF8170005A8FFF722FD4FF4614065
:1008300000900020ADF80400ADF80600ADF8080007
:10084000ADF80C000C200D4CADF80A0069462046AE
:10085000FFF7C8FE012240F224412046FFF7AAFE1E
:10086000012240F225512046FFF7A4FE0121204637
:10087000FFF770FE07B030BD000C0140004800409B
:1008800002E008C8121F08C1002AFAD17047704759
:10089000002001E001C1121F002AFBD170470000B7
:1008A000FFF734FFFFF78EFF124C2078207160783D
:1008B00060710025FFF7D2FCA078012809D1A5704E
:1008C00021780D48FFF706FF257039210A48FFF708
:1008D00054FCE0780128EDD1E570617806483930A4
:1008E000FFF7DEFE6570044839213930FFF745FC1B
:1008F000E0E70000000000201C0000201C090008A8
:10090000000000201C0000008008000838090008D2
:100910001C00002074040000900800080000000083
:1009200000000204060800000000010203040102A6
:0809300003040607080900009A
:0400000508000135B9
:00000001FF
