:020000040000FA
:06000000020AC8020239E9
:03002B00020913B4
:0300530002015F48
:03006B000203E5A8
:100083000201C60101FF01010503010F10FEFF0E6E
:10009300150E150E150E15C413BE130E1599230058
:1000A3000000005D24000000000C0000000C0001B3
:1000B300FFFF0101010027050000009E05B80102B2
:1000C30002008810060502070401051E02051E0230
:1000D3000A0A03B80B02803E010201FFFF010A0175
:1000E3001401E096511800020206FF010900EF50C7
:1000F3000F2D100006FFB81FBE1FC41FCA1F00002C
:1001030000000000000000000000000000000000EC
:1001130000000000B81FBE1FC41FD01F0000000056
:1001230000000000000000000000000000000000CC
:10013300000010202020202020202020202020200C
:100143002020200110040100010005758001DC80DE
:1001530011040100010005758001DC80C0E074F129
:100163001204C1A2AFE433FED2AFE5A7FFE5A1F5C8
:10017300085FF509741055096006121C1675A1EF86
:10018300740855096008121C1C75A1F7802BEFA297
:10019300E0C0D0E508A2E092F0120A74158182F063
:1001A3005017906198E0F8900668E0C398A2D26572
:1001B300D0335002E8F075A1FEEEA2E092AF7F02C9
:1001C300020578C0E074F21204C1A2AFE433FED298
:1001D300AF9061A4E0F8759B00E59158540860085E
:1001E3007591F7121C5E802AE591585410600875CA
:1001F30091EF121C64801BE8A2E0C0D0E591A2E05D
:1002030092F0120A74158182F05007E0C2E0F012F6
:100213001DA89061A3E0F8E5E9585404600E121D8F
:100223007E75E9FB906193E0A2E640F2EEA2E092D4
:10023300AF7F01020578C0E074F21204C1A2AFE4FB
:1002430033FED2AF9061A5E0F8E5BF5854046006D1
:1002530075BFFB121DBA80D4C3E498F8E499F91270
:10026300029C8026C3E49AFAE49BFBE920E7E912A7
:10027300029CE498F8E499F922C3E498F8E499F924
:1002830012029CE498F8E499F9C3E49AFAE49BFB1C
:1002930022EB20E7CFE920E7E0B90010BB0008E834
:1002A3008AF084F8AAF022E4FBC8FA22EB70227BDE
:1002B30010C833C8C933C9335007C39AC3DBF280AC
:1002C300069A50012ADBEAC833F4C8C933F4C9FAE1
:1002D3002275F008E4C833C8C933C933C99AC99B26
:1002E3005004C92AC93BD5F0ECFBC833F4C8E4C9B0
:1002F300FA22080808EAC0E0EBC0E086F0E7A4FAB7
:10030300180986F0E7A42AFA180986F0E7A42AFA5E
:10031300180986F0E7A42AFA1986F0E7A4FBE5F0AA
:100323002AFA190886F0E7A42BFBE5F03AFA190834
:1003330086F0E7A42BFBE5F03AFA18180986F0E7F4
:10034300A4C5F02BFBE43AFA1908E7C5F0C6A426C6
:10035300F6E5F03BFBE43AFA1886F0E7A4F6E5F09D
:100363000826F6E43B08F6E43A08F6D0E0FBD0E0D2
:10037300FA22E4CFC0E0E4CEC0E0E4CDC0E0E4CCB8
:10038300C0E075F020C3E633F608E633F608E6333B
:10039300F608E633F6181818EC33FCED33FDEE33AC
:1003A300FEEF33FFC3EC9709ED9709EE9709EF973B
:1003B300191919400FFFEC97FC09ED97FD09EE970A
:1003C300FE191906D5F0BEECF709EDF709EEF709AA
:1003D300EFF7191919D0E0FCD0E0FDD0E0FED0E032
:1003E300FF22C0E074F21204C1A2AFE433FED2AF25
:1003F300900F4EE4F0E589A2E0500653ABFE740182
:10040300F0E589A2E1500753ABFDE0D2E1F0E589C5
:10041300A2E75019E0701653AB7F900F4FE4F07CC6
:1004230064FDFA7B08900F50E0F91217D8900F4E35
:10043300E060107C647D007A107B00900F50E0F93F
:100443001217D8758900C2C5EEA2E092AF7F0102F0
:1004530005782518C582C0E0E51934FFC583C0E0DF
:10046300E518C3958224F810AF088583198582188F
:100473008008858319858218D2AFCEF0A3E520F0DA
:10048300A37808E608F0A3DEFAEFF0A3E58124FAE7
:10049300F8E608F0A3E608F0A3E608F0A30808E6E8
:1004A30008F0A3E608F0A315811581D0E0FED0E0A3
:1004B300F8158115811581E8C0E0EEC0E022C0D0B7
:1004C3002518C582C0E0E51934FFC583C0E0E518EF
:1004D300C3958224F310AF08858319858218800899
:1004E300858319858218D2AFC8F0A3E9F0A3EAF097
:1004F300A3EBF0A37908E709F0A3D8FAECF0A3ED96
:10050300F0A3EEF0A3EFF0A3D0E0F0A3D0E0F0A3CC
:10051300D0E0F0A3E520F0A3E5F0F0A322120B2A2C
:10052300B90003020562E4900301786C790D80023F
:10053300F0A3D8FCD9FA900F6CAA82AB8390008603
:1005430078DA79018015E493A3AC82AD838A828B38
:1005530083F0A3AA82AB838C828D83D8E9D9E77514
:1005630082247583B9740412088B75829E75832166
:10057300740012088B851983851882E0C0E0A3E01C
:10058300F9A3E0FAA3E0FBA37808E0F608A3DFFAF7
:10059300E0FCA3E0FDA3E0FEA3E0FFA3E0C0E0A333
:1005A300E0C0E0A3E0F5D0A3E0F520A3E0A3F5F0DD
:1005B30010AF088583198582188008858319858281
:1005C30018D2AFD082D083D0E0F8D0E03275F010EB
:1005D3008E1A8F1B85821F85831E8518828519833A
:1005E300E0CEA3E0CF851F82851E83EBC9EAC8ED69
:1005F300CBECCAC3E833C8E933C9EA33CAEB33CB1C
:10060300C3EA9EF51DEB9FF51CB35004AB1CAA1D5A
:10061300EC33CCED33CDD5F0DAAE1AAF1B22D08359
:10062300D082ECC0E0EDC0E0E493A3FCE493A3FD2F
:10063300ED4C600D1206F9EC24FFFCED34FFFD8058
:10064300EFE493A3FCE493A3FDED4C600D12079636
:10065300EC24FFFCED34FFFD80EFD0E0FDD0E0FCA7
:10066300E493A3C0E0E493C0E02285198385188254
:10067300E0A3FEE0A3F5207808E0A3F608DFFAE0A4
:10068300A3FFE0A3C0E0E0A3C0E0E0A3C0E0E0A3D9
:10069300C0E0E0A3C0E010AF08858218858319800D
:1006A30008858218858319D2AFD083D0820208913E
:1006B300D083D082E9C0E0E493A3C386F0C5F0956C
:1006C300F0F908E493A386F0C5F095F0700BE4937A
:1006D300A3C3994005E9048002A3E475F002A425AD
:1006E30082F582E5F03583F583D0E0F9E493A3C086
:1006F300E0E493C0E022C0E0C3E49396087401935E
:100703009618400FE4936670080874019366187096
:10071300007019A3A3C3E49396087401939618A3D6
:10072300A3400DD0E0D0E0D0E002065DA3A3A3A3D5
:10073300A3A3D0E0227404800474028000CCC0E040
:10074300EDC0E0E518C39CCCAD1950011D10AF06F8
:100753008C188D1980068C188D19D2AF12080DD004
:10076300E0FDD0E0FC2274028000CCC0E0EDC0E0EC
:10077300E518C39CCCAD1950011D10AF068C188D24
:100783001980068C188D19D2AF1207EBD0E0FDD07B
:10079300E0FC22C0E0C0F088F0E4936670080874BF
:1007A300019366187000A8F0A3A3700BD0F0D0E0FB
:1007B300D0E0D0E002065DA3A3D0F0D0E022D08346
:1007C300D082CCC0E0E493A3600612086C1470FAE4
:1007D300E493A3600612095D1470FAD0E0FCE4937D
:1007E300A3C0E0E493C0E022CAC0E0E493A3C582BF
:1007F300CCC582C583CDC583F0A3C582CCC582C5D4
:1008030083CDC583DAE5D0E0CA22CAC0E0E0A3C540
:1008130082CCC582C583CDC583F0A3C582CCC582F6
:10082300C583CDC583DAE6D0E0CA22C008C3E0960B
:10083300F50808A3E096420808A3E096420808A337
:10084300E09645087001D3D00822700908080822F1
:100853006016181818C6C333C608C633C608C6338D
:10086300C608C633C6D5E0EA22C0E0E493A3D39C0E
:100873005010E493A3C39C400AD0E0D0E0D0E00240
:1008830007DEA3A3A3D0E022C09FF59FE473D09F0C
:1008930022D083D082C09FE493C0E0740193C0E070
:1008A300740293F59F227404800A74038006740211
:1008B30080027401C0E0F4041208C4D0E0120B05F6
:1008C300222518F58210AF08F51840021519800883
:1008D300F51840021519D2AF85198322BB0102E72F
:1008E30022C082C08389828A83BB0003E08002E442
:1008F30093D083D08222C0D0251810AF08F51850AA
:100903000205198008F51850020519D2AFD0D0227C
:10091300C0E0C0D0E8C0E0E5A8D2AFC2C7A2E7926A
:10092300AFD0E0F8D0D0D0E0326016080808C6C3D4
:1009330013C618C613C618C613C618C613C6D5E001
:10094300EA22C3E0C696F608A3E0C696F608A3E03B
:10095300C696F608A3E0C696F622C0E0E493A36C1D
:100963007009D0E0D0E0D0E00207DEA3A3D0E022FC
:10097300251810AF08F518400215198008F518401E
:10098300021519D2AF22C3E09608A3E09608A3E0AC
:100993009608A3E096A2D265D03322E066701008D1
:1009A300A3E066700A08A3E066700408A3E0662269
:1009B300E76670100809E766700A0809E7667004BD
:1009C3000809E76622C3E096F008A3E096F008A3BF
:1009D300E096F008A3E096F022E026F608A3E036BE
:1009E300F608A3E036F608A3E036F622E026F00880
:1009F300A3E036F008A3E036F008A3E036F022E6E1
:100A030057F60809E657F60809E657F60809E657C0
:100A1300F622E056F608A3E056F608A3E056F608D9
:100A2300A3E056F622E056F008A3E056F008A3E050
:100A330056F008A3E056F022E647F60809E647F623
:100A43000809E647F60809E647F622700422600D16
:100A530018C6C333C608C633C6D5E0F41822E62742
:100A6300F60809E637F60809E637F60809E637F621
:100A730022C0E0E8C0E0E58124FCF8E6A2E7D0E08C
:100A8300F8D0E022E4C396F608E496F608E496F676
:100A930008E496F622C6F4C608C6F4C608C6F4C629
:100AA30008C6F4C622C3E7960809E7960809E7963D
:100AB3000809E79622C3E09608A3E09608A3E09608
:100AC30008A3E0962275D000758140751801751949
:100AD3000300020520E0F608A3E0F608A3E0F60809
:100AE300A3E0F622600C08C6C313C618C613C6D506
:100AF300E0F422E6F008A3E6F008A3E6F008A3E694
:100B0300F022CAC0E0E6F0A308DAFAD0E0FA22E065
:100B1300FAA3E0FBA3E0FCA3E0FD22EAF0A3EBF0E1
:100B2300A3ECF0A3EDF022E5C754F84401F5C7792F
:100B330001222518F582E43519F58322C2AF75D653
:100B43009F02000022120894274F00120894854F39
:100B530000120894AE4F001208941E50001208941D
:100B6300775000120894F05000120894405300127A
:100B73000894FA5400120894A65500120894E856F3
:100B8300001208948659001208948C5C0012089491
:100B9300995C00120894275D00120894D95D001235
:100BA3000894215E00120894815E001208949D5EF1
:100BB30000120894D15E00120894065F0012089494
:100BC300EF5F00120894A46000120894F962001207
:100BD3000894466400120894E96400120894766548
:100BE30000120894AC65001208945E660012089423
:100BF300306700120894EB68001208943F690012F2
:100C03000894736900120894EE6900120894C86A84
:100C130000120894866B00120894CB6B00120894A0
:100C2300E36B001208947A6C00120894EB6E0012C6
:100C330008940071001208941E71001208943C710C
:100C43000012089416720012089434750012089466
:100C53000080021208943580021208945B8002120D
:100C63000894958002120894A78002120894F980D0
:100C7300021208945A8102120894E4810212089421
:100C8300888202120894D082021208940A83021204
:100C930008942783021208944C83021208949E83BB
:100CA30002120894B78302120894DD830212089497
:100CB300FC83021208943784021208947B84021284
:100CC3000894A28402120894F38402120894A38560
:100CD300021208945B860212089423870212089476
:100CE300E387021208942788021208944C880212A0
:100CF30008948F8802120894DC8802120894348ABC
:100D030002120894BA8A02120894D88A021208942A
:100D1300028B021208941C8B021208942B8B021272
:100D23000894368B02120894F68B021208944F8CA7
:100D330002120894118D02120894198D021208945C
:100D4300918D02120894E08D02120894268E0212ED
:100D53000894678E02120894F78F02120894AF90DA
:100D6300021208941B9102120894469202120894EC
:100D7300579202120894CD92021208945F930212C2
:100D83000894B793021208947794021208949E94DD
:100D930002120894BC9402120894CE94021208948E
:100DA3002195021208945E95021208946B95021223
:100DB3000894EE96021208944398021208945C98E1
:100DC30002120894989902120894339A0212089412
:100DD3006C9A02120894B89A02120894D49B0212D5
:100DE30008941D9E02120894289E02120894339EB2
:100DF300021208943D9E02120894489E021208941F
:100E0300629E021208946C9E02120894769E02124D
:100E13000894819E02120894A99E02120894049FCA
:100E230002120894289F021208944C9F02120894FD
:100E3300AA9F02120894EE9F021208940AA00212BB
:100E4300089481A002120894B9A00212089405A183
:100E53000212089462A1021208941CA202120894BE
:100E630000A40212089459A40212089489A502123C
:100E73000894AFA50212089438A702120894B4AAE2
:100E83000212089486AC021208944FAE0212089420
:100E9300FCAE0212089467B00212089406B1021263
:100EA300089453B102120894BDB102120894CCB154
:100EB3000212089453B40212089405B6021208945D
:100EC30072B60212089451B7021208946AB8021259
:100ED3000894E7B90212089406BA021208945BBA9E
:100EE3000212089460BB0212089488BB0212089491
:100EF300E0BB02120894BFBC0212089403BD0212A5
:100F030008944EBD02120894B9BD02120894FABEA9
:100F1300021208945EBF02120894ACC00212089435
:100F23000CC3021208943DC302120894F5C40212C2
:100F330008944AC5021208944EC602120894EBC6DE
:100F43000212089444C702120894F7C702120894C5
:100F530099C80212089439C902120894DEC9021210
:100F63000894E28001120894218101120894688395
:100F730001120894B28301120894CD8401120894DB
:100F83003D8501120894728501120894E6860112C8
:100F93000894698901120894928A01120894288B93
:100FA30001120894309401120894C5940112089414
:100FB300AC97011208949F980112089400990112AA
:100FC30008941C9A01120894019C01120894129E21
:100FD300011208947C9E011208944E9F01120894FA
:100FE30005A0011208940FA0011208943DA001125C
:100FF3000894FAA001120894D1A10112089498A2AE
:10100300011208944AA30112089473A301120894CD
:1010130095A301120894EBA501120894C3A601122B
:10102300089407A7011208946FA70112089427A830
:101033000112089459A8011208949DA8011208945A
:10104300D3A8011208941FA90112089474A90112CC
:10105300089479A901120894CCA901120894F1A962
:101063000112089400AB0112089464AB01120894B6
:10107300D4AB0112089460AC011208942DAF011295
:10108300089411B00112089494B101120894CAB3E0
:101093000112089478B40112089428B50112089437
:1010A30069B7011208940CB80112089453B80112DD
:1010B3000894FFB90112089413BA011208941DBAD7
:1010C3000112089445BA0112089451BA0112089406
:1010D30070BA0112089455BC011208948CBC011219
:1010E300089496BC01120894A0BC01120894FBBC9E
:1010F3000112089445BD011208944DBE01120894D3
:10110300A4BE01120894F3BF0112089437C0011260
:101113000894DFC001120894C2C1011208946DC281
:1011230001120894B9C301120894B7C401120894B8
:101133005DC501120894EDC50112089404C601129D
:1011430008943BC60112089445C60112089450C680
:10115300011208946EC601120894B2C601120894D3
:101163000FC70112089434C7011208944EC7011225
:101173000894DAC701120894F7C80112089464C9E5
:10118300011208944BCA0112089472CA01120894FE
:10119300E6CA0112089461CB0112089465CC0112CE
:1011A30008945BCD011208940ACE011208941DCF56
:1011B30001120894B9CF0112089446D00112089481
:1011C30024D1011208945CD101120894B4D1011204
:1011D30008947DD2011208949ED20112089425D35B
:1011E3000112089449D3011208946BD30112089495
:1011F300B4D301120894CAD501120894B1D60112CE
:10120300089462D70112089498D901120894E8D976
:101213000112089428DA011208946ADA0112089478
:10122300C6DA01120894F4DA0112089418DB0112E9
:1012330008946BDB0112089499DB01120894D2DB4A
:101243000112089427DC011208948DDC0112089422
:10125300E1DD0112089404E00112089471E0011227
:1012630008949AE00112089425E1011208948CE194
:1012730001120894D7E101120894FBE101120894CA
:101283001FE2011208947AE20112089495E2011216
:1012930008944EE30112089488E3011208942E8BFC
:1012A30004120894668B04120894878B0412089422
:1012B300C98B041208942F8C04120894398C0412DD
:1012C3000894498C041208947E8C04120894C78FE6
:1012D30004120894719104120894719304120894EF
:1012E300A2CA02120894E8CA02120894C8CB0212D6
:1012F3000894CACC02120894CDCD0212089459CF97
:1013030002120894B7CF0212089474D00212089400
:1013130092D10212089403D2021208943FD202120D
:1013230008948DD20212089497D202120894DBD249
:101333000212089437D302120894D2D302120894EB
:101343004FD4021208941ED502120894B7D5021284
:101353000894D7D5021208940DD6021208943ED6EB
:1013630002120894FFD6021208940FD702120894AF
:1013730063D7021208947ED70212089490D7021200
:10138300089499D702120894F3D7021208944FD8FD
:10139300021208949BD802120894B6D80212089439
:1013A300E7D80212089404D90212089410D9021241
:1013B300089484DA021208949DDA0212089404DB7A
:1013C3000212089417DB0212089425DB0212089418
:1013D300D9DB02120894BDDC02120894C3DD0212A9
:1013E30008944DDE0212089457DE02120894C4DEFC
:1013F30002120894DBDE021208940DDF0212089435
:1014030046DF0212089470DF02120894D1DF021241
:101413000894F1DF021208940FE00212089455E0D9
:10142300021208947BE102120894C8E102120894A4
:10143300F7E1021208946DE20212089495E2021297
:101443000894CEE202120894DCE20212089434E318
:101453000212089483E302120894C2E3021208946E
:10146300F2E3021208941EE40212089429E4021221
:10147300089447E40212089409E50212089413E55C
:10148300021208944EE50212089464E502120894CD
:10149300B9E502120894CDE502120894DBE60212C4
:1014A3000894EEE60212089403E702120894A5E7F3
:1014B3000212089428E802120894E6E8021208943B
:1014C300F1E8021208941DEA0212089439EA0212A2
:1014D30008948BEA02120894CAEA02120894DFEA1B
:1014E3000212089441EB02120894D0EB0212089402
:1014F3001BEC021208946CEE02120894EAEE02123C
:1015030008945FEF0212089481F10212089499F192
:10151300021208949CF102120894A8F10212089492
:10152300BCF102120894C4F102120894F7F10212FA
:101533000894A7F2021208941DF30212089490F380
:101543000212089444F402120894F9F40212089463
:1015530018F502120894B8F502120894C4F50212A1
:101563000894EFF502120894F2F5021208945CF65F
:101573000212089484F7021208945CF80212089489
:10158300E7F80212089400FA02120894BDFA021254
:101593000894F6FA0212089427FB02120894E5FB5A
:1015A3000212089415FC02120894F0FC021208942B
:1015B30089FD0212089414FE02120894C5FE021259
:1015C300089448FF021208943C4900120894BBFF98
:1015D30002120894527500120894B7750012089409
:1015E300F475001208944376001208942D780012C3
:1015F3000894147A001208944D7D00120894737DA8
:10160300001208948B7D00120894F47D0012089454
:10161300307E001208945D7E001208948F7E0012C3
:101623000894CB4E001208940080041208947E8024
:1016330004120894B08004120894088104120894D8
:101643008282041208949E8204120894D98204129E
:101653000894608304120894B083041208947D8470
:1016630004120894818504120894D5850412089401
:10167300508604120894B18604120894F286041268
:1016830008949D8704120894BB8804120894F18877
:10169300041208943C890412089483890412089460
:1016A3000D8A04120894B28A04120894A89B0412A7
:1016B3000894EE9B04120894589C04120894799C95
:1016C30004120894199D04120894239D041208948B
:1016D300709D04120894959D04120894F59D0412BC
:1016E30008948B9E04120894C39E041208941C9FB2
:1016F30004120894789F04120894A69F0412089475
:101703002EA00412089473A004120894B2A0041229
:101713000894F7A00412089409A1041208941BA1C9
:10172300041208943AA10412089443A104120894E1
:10173300F5A10412089435A2041208943ADD0412A8
:1017430008943CD40412089472D404120894BBD4B1
:101753000412089408D604120894E3A90312089407
:101763005CAB031208941DAD0312089459AD031228
:101773000894E0B00312089426B1031208943BB313
:10178300031208940DB403120894B9B40312089415
:1017930064B603120894AEB803120894CABB0312CA
:1017A3000894D8BB03120894B3BC03120894C6C0B0
:1017B300031208949ADF0412089429E1041208948E
:1017C3003FE1041208941EC40412089431C40412A5
:1017D3000894CFC40412089411C50412089436C5A2
:1017E300041208947BC504120894B4C50412089427
:1017F300E5C50412089458C7041208943D7F0012EB
:101803000894737F001208948F7F00120894D17F8D
:1018130000120894E17F0012089459C1031208943E
:10182300ABC1031208941AC20312089411C3031222
:10183300089495C3031208945CC40312089471C4FA
:1018430003120894BBC4031208940AC50312089434
:101853005CC5031208946FC503120894BBC5031239
:101863000894B6C70312089438C80312089462C8D0
:1018730003120894ABC80312089473CA03120894A2
:10188300EECA031208947BCB031208948ECB031287
:101893000894DDCB03120894F3CB031208940ACC0B
:1018A3000312089439CC031208945ACC03120894F7
:1018B30033CD0312089496CD03120894E2CD03129C
:1018C3000894E5CE0312089453D1031208946DD102
:1018D30003120894F2D10312089462D203120894FB
:1018E30085D203120894BFD2031208942DD3031296
:1018F3000894E3D30312089408D40312089412D46F
:101903000312089422D403120894A5D40312089452
:10191300C0D403120894E2D4031208940ED5031220
:10192300089449D50312089458D50312089499D5FD
:1019330003120894EADF0412089402E004120894E4
:1019430023940412089472940412089424960412A3
:101953000894D997041208942198041208941D99A5
:1019630004120894749A04120894969A0412089420
:10197300F29A04120894749B04120894BED50312BD
:101983000894E9D503120894CCD6031208944ED7D1
:1019930003120894B8D70312089404D803120894C6
:1019A30072D803120894FDD8031208948BD903123A
:1019B3000894BED903120894B2DE0312089457E0C8
:1019C3000312089413E10312089450E103120894DC
:1019D3009CE30312089410E4031208940FE5031226
:1019E3000894E8E50312089462E6031208941CE7DE
:1019F30003120894DBE70312089447E803120894E0
:101A0300EEE8031208944BE90312089408EC03125E
:101A13000894C8EC031208942DED03120894D7EE32
:101A23000312089494EF03120894F3F0031208943A
:101A33001AF203120894B5F203120894B0F30312D6
:101A43000894D2E3011208945AE401120894CDE4F5
:101A53000112089421E5011208945CE5011208942F
:101A6300E9E50112089405E70112089457E701120A
:101A73000894B5E701120894F8E7011208946DE899
:101A830001120894B7E80112089436EA0112089487
:101A930009EB011208945FEB0112089455EC011253
:101AA300089402ED011208942DED011208944CEDF7
:101AB300011208945CED0112089462EE011208947D
:101AC30026EF0112089407F1011208946DF1011237
:101AD300089484F101120894DAF20112089457F37E
:101AE30001120894C6F3011208944FF401120894EA
:101AF30093F4011208945AF60112089432F7011272
:101B030008946EF80112089427F90112089458FA00
:101B13000112089487FA0112089461FB01120894D8
:101B230030FC0112089489FC01120894A1FC0112F3
:101B33000894A1FD011208942FFE01120894EDD11F
:101B430004120894ACD20412089465D304120894C6
:101B5300CBD304120894A0B90412089409BB04124D
:101B6300089449E10412089449DC0412089457DCF0
:101B730004120894EB7F001208942EDF04120894D9
:101B83003EDF041208944ADF0412089497DF04121C
:101B930008944BDB04120894CCDB0412089430DC69
:101BA30004120894F5FF01120894F8FF0112089437
:101BB300FC7F00120894D8FF0312089496B0041215
:101BC3000894EBB004120894BFB204120894F1B263
:101BD3000412089418B3041208942CB30412089442
:101BE30045B30412089474B40412089477FE0312E4
:101BF30008949BFE03120894B4FE03120894E7FEB4
:101C03000312089418FF0312089446FF0312089462
:101C1300A8FF03120894B7FF03120894C1FF03122D
:101C23000894CEFF0312089464CA04120894A1CA4C
:101C330004120894B0CA04120894CFCA0412089478
:101C430037CB0412089440CB041208949FCB0412A0
:101C53000894C3CB04120894B6CC04120894C3CCE2
:101C630004120894D4CC04120894C0E0041208941B
:101C7300DDE0041208941CA70412089462A704125E
:101C83000894B9A804120894C6A804120894D9A801
:101C930004120894F8A8041208940EA904120894D4
:101CA30022A90412089497A904120894FCA9041207
:101CB3000894ACAA0412089481AB0412089491AB63
:101CC30004120894A0AB0412089414DE04120894BE
:101CD30039DE0412089462DE041208948ADE0412C8
:101CE30008946FD60412089496D60412089412D757
:101CF3000412089402CD041208941BCD0412089414
:101D030027CD041208943BCD0412089459CD041234
:101D1300089463CD041208946DCD0412089480CD09
:101D230004120894DFCD0412089416CE041208940A
:101D330044CE0412089492CE04120894DFCE041207
:101D43000894FACE0412089404CF041208944CCFDA
:101D530004120894AFDE04120894CBDE0412089434
:101D630063E104120894EBF40312089415F50312CB
:101D7300089431F50312089444F50312089483F58B
:101D83000312089404F60312089441FA0312089408
:101D93006BFB031208949EFB03120894EBFB0312E4
:101DA300089449FD0312089471FD0312089494FDED
:101DB30003120894D8FD0312089439FE0312089401
:101DC30049FE0312089418DA0412089433DA041251
:101DD30008945CDA0412089476DA041208949BDA05
:101DE30004120894BADA04120894D2DA041208949A
:101DF30000DB041208941ADB0412089438E004127E
:101E0300089480C00412089487C004120894BCC1CB
:101E130004120894EBC10412089459C204120894E2
:101E2300ECC20412089425C3041208946EC304126E
:101E330008949EC304120894BEC30412089480D865
:101E43000412089498D804120894B5D9041208947B
:101E5300B8D904120894E0FE011208943FFF01125E
:101E6300089495FF01120894D6FF0112089400808C
:101E7300031208941B8003120894908003120894A1
:101E8300168103120894A98103120894C5810312D1
:101E930008946F84031208941E8703120894BC8865
:101EA30003120894078A03120894BC8E0312089441
:101EB300B88F031208942E9003120894FA90031219
:101EC30008949E9103120894019303120894A1931A
:101ED30003120894EB93031208945D94031208947D
:101EE300029503120894CF950312089435960312B2
:101EF30008943A9703120894F79703120894949856
:101F030003120894EB9A031208947F9B031208941C
:101F1300FB9B03120894879E03120894829F03126B
:101F23000894B19F0312089470A10312089444A368
:101F3300031208943AA40312089423A903120894E1
:101F430065C7041208948AC70412089432C804129D
:101F53000894FAC804120894CCC90412089438CA25
:101F630004120894E1BC04120894A2BD041208945C
:101F730011BE0412089436BE04120894F1BE041272
:101F830008947CE00412089496CF04120894DECFE0
:101F93000412089412D004120894C3D004120894B3
:101FA30037D10412089448D104120894D9AB04120F
:101FB300089467AC0412089462AE0412089465AEE8
:101FC30004120894A1AE04120894A4AE0412089457
:101FD300DAAE0412089408AF041208940CB0041289
:101FE300089450B50412089476B504120894C1B548
:101FF30004120894DDB5041208940EB60412089472
:102003001EB6041208942BB60412089438B60412B0
:1020130008941BB70412089459B70412089463B7C1
:102023000412089482B8041208948DB80412089418
:102033009FB804120894A8B804120894B2B8041202
:1020430008945EA2041208940EA704120894FCE0FC
:102053000412089487470012089407470012089453
:10206300CD46001208940D460012089483450012D1
:1020730008945545001208940144001208946A43D9
:1020830000120894CD42001208945842001208949A
:102093002642001208946341001208948E3F0012F6
:1020A30008941F3F00120894F13E00120894EE3E7C
:1020B30000120894753D00120894763C00120894AF
:1020C300403B00120894843A00120894FA39001233
:1020D3000894003900120894F04D001208942E4C15
:1020E30000120894FA4B00120894C74B001208948C
:1020F3009A4B001208945C3800120894A33700121C
:102103000894663700120894C04A00120894AC364B
:10211300001208947636001208941D3600120894B3
:10212300D335001208941D4A00120894ED7E001264
:1021330008947435001208944335001208940B3246
:1021430000120894CB3100120894BF310012089496
:102153001F31001208945F3000120894D82D00122A
:102163000894692B00120894272B00120894FB296A
:1021730000120894B02900120894EC280012089465
:102183002F2800120894FF27001208948449001294
:102193000894C527001208947AFF0200000080FB10
:1021A300E4738F000100C80F87000100C60F2400ED
:1021B30002001606250002001806260002001A0671
:1021C30027000200A60F28000100A80F2900010024
:1021D300A90F84000400AA0F86000100AE0F2A0095
:1021E3000100AF0F2B000100B00F2C000100B40F52
:1021F3002D0008001E062E000100B50F2F00010060
:10220300B60F30000100B70F31000100B80F3200E4
:102213000100260633000100270634000100B90F30
:1022230036000100280638000100BA0F390001000A
:10223300B30F83000200C40F630001003206640081
:102243000100B10F65000100B20F6D000100C30F63
:102253006E0002001C0643000100BB0F4400020095
:10226300BC0F45000100BE0F46000200BF0F470030
:1022730008002A0648000100C10F4B000100C20FED
:1022830004000100C70FA1000100CB0F37000100BC
:10229300CA0F88000100C90F3C0001002906000095
:1022A30000000000000136360101000102010001B7
:1022B30003010001040106060502000007010034C2
:1022C3000801000F090401010D0100FF0E080000C1
:1022D30017020000190100FF1A0100011B0100FE93
:1022E3001C0100081D0200001F0100012001000164
:1022F300210200002301000F240200002601000137
:1023030027010008280200FF2A0100072B010240D1
:102313002C0100002D0100012E0100012F0100FFFF
:1023230030010B1C310800003A0100083B01000F8B
:102333002F010000010171010101010111010101DE
:102343003101010101018001100161013B00140011
:10235300630173017201620143010001130106016C
:102363003D013500040112010001000100010001DB
:1023730004010401330133013C01440132013600FD
:102383000001000165010001350081010001050123
:10239300820183010001030071003001600011001C
:1023A300700031022003500480001000610000001F
:1023B3001400630073007200620043000000130006
:1023C30006000000000004001200000000000000EE
:1023D300000004000400370037003C024400000002
:1023E30000000000000065000000350081000000CF
:1023F3000500000083000000030271023001600247
:102403001102700201020202020280021002610242
:102413003A00410063027302720262024302000245
:10242300130238000002000204021202000200023A
:102433000002000204020402370037003C02440297
:102443000002390000020002650200023502810227
:1024530000020502820283020002010371030103E9
:102463000103010301030103220302030103100318
:1024730000030003000300030003000300034203FF
:1024830000032403060300030003040312032503CC
:1024930023032503230304030403000300030003AE
:1024A30044030003000323030003650321003503F2
:1024B3008103000305030003000300030304710405
:1024C30002046004110470040204020401040204FF
:1024D30010046104000414046304730472046204AA
:1024E3004304000413040604000400040404120457
:1024F3000004000400040004510464000004000408
:1025030000044404000400040004000465040004FF
:1025130035048104640005040004830400040000FE
:1025230003002001E080000000002001E1800000A2
:102533000400420164800000050042015380000052
:10254300060042014280000007002001DE800000F7
:10255300100042031B100000110020035E0F000057
:10256300120010032C100300000021035F0F06006C
:1025730000002001620F00000000000000000000C6
:1025830003002001E080000000002001E180000042
:1025930004004201648000000500420153800000F2
:1025A300060042014280000007002001DE80000097
:1025B300100042031B100000110020035E0F0000F7
:1025C300120010032C100300000021035F0F06000C
:1025D30000002001610F0000000000000000360031
:1025E3000100060000000F000000000000000000D2
:1025F3000000000003FFFF00000403FFFF0000FFD3
:10260300FF0FF4010005C4040320000100140B00B4
:102613000000000000000003010FE61E221FEC1E55
:102623003A1FF21E281FF21E341FF81E3A1FF21E15
:10263300281FFE1E3A1F041F3A1F0A1F3A1F101FAE
:102643003A1F161F3A1F1C1F3A1F0000000000000C
:1026530000000000061A1300CA190100061A02003E
:10266300941903009A190400A0190500A61906007D
:10267300B219FFFF000001AA0F06D40F08CE0F0BFB
:10268300EC0F10260F02B00F05C20F07B60F0C8C0C
:102693000F0D9E0FFF00001E144E1424142A14481D
:1026A300143C14361454145A1460146C1430141853
:1026B30014121400160F00000B150B020002220F58
:1026C300320000067A6232303136303932393130F5
:1026D30032363337000000000000000089674523CD
:1026E30001EFCDAB7969206875692079756E207328
:1026F3006D6172740E1520152615E8132C15E2135F
:10270300EE13140AE5D5C5B5A5A59585857565228E
:10271300131C1358135E1352130A136E158C159260
:1027230015741580157A15303017181921301B1DB3
:102733001F30303016181920231A1C1E3000383C65
:102743003E363B3B352B432C000119161816161544
:102753002303000C0E020B040B0A0708000F0003EF
:102763004948424D1817250502621532153815449C
:10277300153E154214661486157214781402040269
:102783000101010109022E133413281364133A13B0
:102793004C1300BE040A05271500FA060E000000BC
:1027A300000028000C0004007F00E8030A03080966
:1027B3000004000CFF1E1E300804091003010C085E
:1027C3000F0574F7120455E9FE121628EE900F6DEB
:1027D300F090030E7474F0A37421F0900310746EE0
:1027E300F0A37421F09003127468F0A37421F090A5
:1027F30003147462F0A37421F00242A674F7120466
:1028030055E9FE900302E4F0EE900301F0900FBF50
:102813001236161245F87C2A7D067A057B03121EB2
:1028230068900FC1E090030DF00242A674F4120405
:10283300558A088B09EB5480605B900301125CFAA4
:10284300604A8E828F83E064017032124D891207D1
:1028530038EE24121270D9F50A780A1208B5122834
:10286300DF1208B1EE240B1228D812073CEE24170E
:10287300125D0A1215E674091208F98008E0640271
:10288300700312205AEEFAEFFB1216D0AA08E509DC
:102893006480FB803AEAA2E05017900316124BC201
:1028A30060061236121221A3E5086401FAAB09800F
:1028B3001E5402600C900F6C7401F0EA6402FA80FB
:1028C3000EEA54046005EA640480F37A007B000294
:1028D30029ABEE240CF582EF124D9322EE240FF573
:1028E3000AEF3400F50B780A2274F41204558A08AF
:1028F3008B098A828B83A3A3A3E024101242B2FA2A
:10290300124EF6700302299B8E828F837402F0A30A
:10291300E4124EB9A3A3A3A3E8F0A3E9124A07A3C1
:10292300A3A3A3A3A3A3F0E5082403F8E509123E98
:102933005F241012411E8E828F83A3A3A3A3F0EE04
:102943002409FA12299D12453FF5838882E0A2E506
:102953008E828F83A3A3A3A3A3500474018001E4F5
:10296300F0E5082403F888828983125C53EA12672E
:1029730011EB1228DB124F1E1208AD12627FEB120D
:1029830046C58E828F83A3A3124DA21208F9EEFAD5
:10299300EFFB900301124F63800EEF3400FB8E8236
:1029A3008F83A3A3221208F97F0402066D74F21227
:1029B30004558A088B09ECFAEDFB740E120B35E013
:1029C300FC1216588A0C8B0DAE0CAF0DEE4F602324
:1029D300AC08AD09121646E96019AC08AD09EEFA68
:1029E300EFFB12164CE97007EEFAEFFB1216407973
:1029F30000800279B402367174EE12045574F71232
:102A030009738A0A8B0BECFEEDFF750FB3750E008D
:102A1300750C00750D00800CE50C2401F50CE50D1B
:102A23003400F50D9027A9E493F8740193F9C3E5F5
:102A33000C98E50D994003022B1BAA0CAB0D121643
:102A4300A68A088B09EA450960CE8A828B83A3A3F1
:102A5300A3A3A3E0250EF50EF510C3E50A9510E533
:102A63000B940050B37C157D007900EEFAEFFB1256
:102A73004B70A3A3A3A3E50AC3950EF8E028C333C1
:102A8300F8E433F9E50828F582E50939F583A3A3CA
:102A9300A3A3A3A3125330A31243EEEAFCEBFDEE70
:102AA300FAEFFB123E7CA3E06401700A124D8974B5
:102AB300011237528043851882851983AC82AD8316
:102AC300850882850983125C5112168EE9602D7484
:102AD30008120B35E0C0E0124D89D0E0F074081203
:102AE3000B35E06403851882851983700CAC82ADC5
:102AF30083EE240B12373F80031245EC8508828551
:102B03000983123D64A3A3124E7CC0E0EE24141289
:102B130028D8D0E0F0750F00A90F74091208F97FC7
:102B23000A02066D74F7120455E9FE8A828B83A3A9
:102B3300A3A3A3A3A3E0540860298A828B83A3A33E
:102B4300A3A3A3A3E0540260178A828B83A3A3A346
:102B5300A3A3A3A3A3A3E06406600574E96E7003B3
:102B63001221560242A674E812045574F71209732F
:102B73007407120B35124B89E9851882851983F086
:102B8300ECFEEDFF7424120B35780C120AD8751382
:102B9300008E828F83125C4D8E828F83A3A3A3E06A
:102BA300F91216648A148B15EA45157003022D7207
:102BB300EE24101254D0A914120E2A8A168B17EA87
:102BC30045177003022D72EE2406F510EF3400F55D
:102BD300117C00851082F583122DC48E828F83A30E
:102BE300A3A3122DB9125953F8A3E0F985168285D0
:102BF3001783A3A3A3A3123854122DB9A3A3A3A38A
:102C03001256CD851682851783A3A3A3A3A3A3F08E
:102C1300EE126711EF1230331208ADEE126280EF3D
:102C23001246C5851682851783A3A3A3A3A3A3A3D3
:102C3300A3A3124DA21208F9751000022CF2850A03
:102C430082850B83125C5112169485088285098351
:102C5300A3EAF0A3EB124DB5A3A3124AAA124F7A2B
:102C6300E0A2E6500F850882850983A3A3A3A3A34B
:102C7300E0D2E1F0E5137063850882850983A3122E
:102C83005E6E90036CE0687003A3E069704D850885
:102C930082850983A3A3A31254DD780C1208A974B7
:102CA30027120B35E0F50A780A1208B57426120BC1
:102CB3003512073C90037912073C79007410120B0C
:102CC300351249F71220DE74091208F98508828546
:102CD3000983A3A3A3A3A3E04405F074012510FC77
:102CE3008E828F83A3A3A3A3A3A3122DC40510E5F0
:102CF3000A450B6052851008C3E5089514E4951541
:102D03005045E51075F006A4F8A9F0E51628F8E596
:102D13001739F9E8240CF508E9123C23E4124DAB0A
:102D230064016003022C41751301850882850983C0
:102D33007401124DB0F8A3E0F9850882850983A3D5
:102D4300E8F0A3E9022C58AA16AB17120E30781636
:102D53001208B17425120B35E0FC7402120B35E036
:102D6300F9EEFAEFFB12215C74021208F980428E2D
:102D7300828F83A3A3A3E0C0E07404120B35D0E0D9
:102D8300123A6DE0C0E07405120B35D0E0F0E514A3
:102D9300451570097406120B3574B9800774061251
:102DA3000B357410F07401120B35AA82AB83122019
:102DB300E4740902692AE0851682851783A3A3A315
:102DC300221253198E828F83A3A3A3E0F912166AEA
:102DD3008A0A8B0B2274E812045574F31209738A5E
:102DE3000A8B0B89178C167425120B351270F4AAF3
:102DF3000CFB120E1EE9F514AA0CAB0D120E24E9FE
:102E0300F515E5147003023025751300800F8E82CB
:102E13008F83A3A3A3A3A3E0D2E3F00513E50C24BC
:102E23000BF582E50D1231BAE513C3984003023066
:102E33001CE514700302301CE51375F006A4F8A911
:102E4300F0E50C28F8E50D39F9E8240CFEE9126EDB
:102E5300C8A3A3A3A3E0A2E040C1750E008E828F96
:102E630083E07043125C52120D168A088B09A8087E
:102E7300A909E849603188828983A3A3A3A3E064F5
:102E830001600D88828983A3A3A3A3E06403701761
:102E93008E828F83A3A3A3A3A3E0D2E7F0750E01D1
:102EA300E5157003022E1E750F00750808750900DD
:102EB300E5166003750F20124B10E060339003BCDE
:102EC300E064017017E50FD2E3F50F7509108E82E8
:102ED3008F831245D71243DD74FF8024430F0C7593
:102EE300080C8E828F83A312303F1268C1A3801017
:102EF300E5176009E50FD2E6F50F75080A1230569B
:102F0300F07402120B35E50F125972C0E07404120B
:102F13000B35D0E0F07405120B351242C4120B3599
:102F2300E06003022FF77408120B35123C648E82A3
:102F33008F83A3A3A3A3F07408120B3512351FF5D7
:102F430083E508F0A3E509124922E060119003BC70
:102F5300E0C0E07408120B35123518D0E0F0850C90
:102F630082850D83A3A3A3E0C0E07408120B35127E
:102F73006405D0E0126441C0E07408120B351235C9
:102F83002AD0E0F07408120B3512303FA3A3126469
:102F93000C12595C125C51E82428F582E91254C3DF
:102FA300125968C0E0E8242EF582E91228DBD0E04C
:102FB300F07408120B35125C53850A82850B831259
:102FC300302A2424F582EB1245F512670FE50B1224
:102FD30030331208AD1246BDEA242BF582EB1228DA
:102FE300DB124DA21208F9851882851983AA82ABD8
:102FF300831215C88E828F83A3A3A3A3A3E0D2E079
:10300300F0740C120B35E06003022E11E50EA2E002
:10301300500215151514022E1E7900AA0CAB0D12C1
:103023002150740D02692AA3A3A3A3125E72EA229C
:10303300124D93125928751200781022125E728570
:103043000A82850B83A3A3A3A3228E828F83A3A3C8
:10305300A3A3A3A31245DCE8F0A3E92274F21204AC
:103063005574EB120973EAFEEBFF89088E828F8396
:10307300A3A3A3A3A3A3A3A3E0F9120E488A0A8BD5
:103083000BEA450B607FE50870047C0480027C0832
:103093008E828F83A3A3A3A3A3A3A3A3E0F9120EFA
:1030A3004E1228D5124BC2605C88828983125C4F12
:1030B3007406120B3512310D125C537408120B3562
:1030C30012310DA3A3E0C0E07410120B35D0E0124F
:1030D300597F125C53740E120B35124B8974111203
:1030E3000B35E41256B8F9780A1208B1742059FC6A
:1030F300744059F97402120B35AA82AB8312215C16
:1031030074021208F9741502366EEAF0A3EB123159
:10311300152212454FA3A3A3A3A3A32274F712045A
:103123005574FA120973E9FE7F018F087D0080044C
:103133007508000D1242AB1231BAEDC3985025ED5C
:1031430075F006A4F8A9F0EA28F8EB39F9E8126754
:103153000AE912530B50D9540C60D5E0A2E250D3C4
:103163007F0080CF8A828B83A3A3A3A3A3A3E07052
:103173003EE508A2E0400574016E70338A828B83BA
:10318300A3A3A3A3A3A374011262BEE0C0E07403CC
:10319300120B35D0E01262B6E0C0E07404120B35B6
:1031A300D0E0F07405120B35EF1245A61220E4743B
:1031B300060242A3F582EF1256C8F822C082C083EA
:1031C3007901122150023738C082C083EA4B60185C
:1031D3009003B8E064027010900F6CE4F0EAFCEB2B
:1031E300FD7A021232008012900F6C7401F07A02A1
:1031F3007B00900301E0F91217E40237387B00905B
:103203000301E0F91217D82274F212045574F31271
:103213000973EAFEEBFF8E828F83A3A3A3A3A3A369
:10322300A3A3A3A3E0F50A900F6CE0700579BA029B
:103233003513750801750900750C00750D007C08C0
:103243007D007900851882851983AA82AB831216C3
:10325300B87405120B35740112353B5404601274B3
:1032630002120B35E0D2E612353B540870037508A1
:1032730003E05410600674404508F508E054086004
:10328300227402120B35E044C012353B5420600A0D
:103293007403120B35E0D2E080087403120B35E09F
:1032A300D2E1F08E828F83A3A3A3A3A3A3A3A3E05E
:1032B30070181210B8851882851983124B8974020D
:1032C300120B35E0D2E2F0023372640F7015740210
:1032D300120B35E0D2E3124F7B124B6A4508F50817
:1032E3000233728E828F83A3A3A3A3A3A3A3A3E01A
:1032F30064028E828F83700512305780C9A3A3A303
:10330300A3A3A3A3A3E06403701385188285198381
:10331300AC82AD83EEFAEFFB12211480528E828FC2
:1033230083A3A3A3A3A3A3A3A3E064017041900376
:10333300BCE0601C7402120B35E0D2E3124F6985C6
:1033430018828519831245F8750910750AFF8018CC
:103353007402120B35E0440C12642E74FDF0A37456
:10336300FFF074044508F5088E828F831270F412FF
:103373005305503A7402120B35E0540C701B8E82C5
:103383008F83125C53121AD8E9700579BB02351387
:103393007402120B35E0D2E5F0125305501074029B
:1033A300120B35E0540C64047004E0D2E5F0EE2413
:1033B300111270D9C0E07404120B35D0E01242C66A
:1033C300120B35E0600302350C7408120B3512350D
:1033D3001F123531EE24181270D9C0E0E81266FBD3
:1033E300E91228DBD0E0F0EE24191270D9C0E074A2
:1033F30008120B35E02413123C2CD0E01243FB647B
:103403000170119003BCE0C0E07408120B35123553
:1034130018D0E0F07408120B351240F62417FAEFB7
:10342300124125FCE8241CF582E91228DBECF0A309
:10343300E4125014E0C0E0E82422F582E91228DB0C
:10344300D0E0F07408120B3512352AE50AF074083F
:10345300120B3512410B2424F582E9125C18A3E503
:103463000D125C76FCA3E0FDE82426F582E9122820
:10347300DBECF0A3ED1238F8124B40E82428F58278
:10348300E91228DB125E76C0E0E8242FF582E91208
:1034930028DBD0E0F0EE241B1270D9C0E0740812D0
:1034A3000B351263FED0E0F0EE241A1270D9C0E09F
:1034B3007408120B35E0242E123C2CD0E012642643
:1034C300124F061208ADEE2411124B39740B120B76
:1034D30035124D9C1208F9EE24151270D954406030
:1034E3001B900328124BC26013851882851983AA87
:1034F30082AB839003291236121221A38518828589
:103503001983AA82AB831215C8740C120B35E0F928
:10351300740D02366EE02415123C522212410F2420
:103523000FF582E9340022E02423123C5222F58372
:10353300E508F0A3E509F022F0EE24151256C522A2
:1035430074F71204557E638A828B83E0600C7905DD
:10355300120C38E9F87456C398FE900364E0600CCB
:10356300F9120C38E9F8EEC39824F2FEEEF90242A0
:10357300A674F612045574FE120973851882851910
:1035830083124B89E9FEECFAEDFB740C120B35E068
:10359300FC9004AE124BC260328518828519838574
:1035A300820885830978081208B17D01EEF9900439
:1035B300AE12360F1221A374021208F98B09EA45E1
:1035C3000960047900800679B2800279B6023799DE
:1035D30074F7120455E9FE7409120B35E0FF9003EA
:1035E3000E124BC2601AEFF50878081208B5EEF90F
:1035F30090030E12360F1221A374011208F98002F0
:1036030079B60242A6EEFAEFFB900320E0F8A3128C
:103613003EB022125E729003032274F21204558AA2
:10362300088B09ECFEEDFF750A0190036CE0650859
:103633007004A3E0650970051249F0802A1210BED8
:103643008A0C8B0DE508650C7004E509650D70099E
:10365300EEFAEFFB1210C4800EEEFCEFFDAA08ABEE
:1036630009120CB0E9F50AA90A80031208F97F06CA
:1036730002066D74F5120455EAFEEBFF8C088D0902
:10368300750A01126B5E123748700B90036C123E81
:10369300DE1245F8800EAC08AD09EEFAEFFB120C12
:1036A300B6E9F50AA90A025FEA74F6120455EAFEBE
:1036B300EBFF7A0C7B0012174EEA4B606BEE242073
:1036C3001270D98A828B83F0EE242112372EF0EE0A
:1036D300242212372EA3F0EE242312372EA3A31293
:1036E3004DD5125945E8F0A3E91256BD125946A328
:1036F300A3E8F0A3E91254E38A828B83A3A3A3A3D1
:10370300A3A3A3A3F0EE242F1270D9C0E01242ABFF
:103713001228DBD0E0124B8F8A828B83A3A3A3A34F
:10372300A3A3A3A3A31245F802379E1256C58A8208
:103733008B83A322F0D083D082020891FAEF340066
:10374300FB121E68221243E222123752A3E0221216
:1037530037562212375A22124EB1A3A322124A1508
:10376300A3E02274F6120455ECFEEDFF79B3900347
:1037730063E07020900395E064017018EE12670A0D
:10378300EF126EDCEE240F1245F2E8496004790073
:10379300800279A1800574021208F97F0202066D86
:1037A30074F412045574FE120973ECFEEDFFEE245B
:1037B300161270D964057011EE2406FCEF3400FD77
:1037C30012211AE9700302384D851882851983ACDA
:1037D30082AD831266501239DF124BC26068E875FE
:1037E300F009A4F8AAF075F009E9A42AF974ED2800
:1037F300F874F339F9E8FAE9FBEE24121228D8C079
:1038030082C0838A828B837808120AD8D083D082BD
:103813007808120AB8402B8518828519831240F65E
:10382300240F1228D81238547808120AD89080AC82
:1038330078081209DC8A828B837808120AF67900E9
:10384300800A79A2800679A1800279C874020229CC
:10385300A8E8F0A3E9123A712274F412045574FF34
:10386300120973EAFEEBFF900363E0707590039512
:10387300E06401706D75083A75090078081208B1A3
:103883007402120B3585820885830978081208B102
:103893001238EA1208F9E9703EEE126711EF123E90
:1038A300E81249B8C0E0EE24111228D8D0E012384B
:1038B300F8743A1256CD900330120B12EE24121202
:1038C30028D8120B1E9080AC7808120AD8900330C7
:1038D30078081209EF800BEE240FF582EF12429461
:1038E300A3F074010229A87C017D007A007B0012F9
:1038F3001298740422F0EE240F124D902274F012E9
:10390300045574F6120973ECFEEDFF7402120B35C5
:10391300AC82AD8312211AE970030239DA85188269
:10392300851983AC82AD837402120B35AA82AB83F3
:103933001239DF124BC270030239DAE875F009A4B9
:10394300F8AAF075F009E9A42AF974E928F874F3E0
:1039530039F988088909EE240E1239E91249B8F8B1
:10396300A3E0F9EE240F124EA2120B12EE24121250
:1039730028D8120B1E9080AC780C120AD8850882C6
:10398300850983780C1209EF8508828509837808F5
:10399300120AD89080A8780C120AD87808790C12E9
:1039A3000375E50C450D450E450F702B8518828573
:1039B300198312410B75F009A4F8AAF075F009E90F
:1039C300A42AF974F128F58274F339F5837401F0AC
:1039D3007A007B101239F1740A023A7C121ADE85DE
:1039E300188285198322F582EF124D93E422900504
:1039F30027E0F91217062274F01204558A088B097E
:103A0300ECFEEDFFEE240FF582EF124294A3123A7F
:103A13006DC082C0839080C0780C120AD8D083D046
:103A230082780C12099E6032123A617005122102EB
:103A3300802AE070051220FC802264027013122099
:103A4300FCE96018EEFCEFFDAA08AB09121B02802B
:103A53000BE0640360DF79A1800279A3801EEE246A
:103A63000EF582EF1256C8640122123A7122F0EE6B
:103A73002412F582EF124D97221208F97F080206ED
:103A83006D74F6120455EAFEEBFFEE240AF508EF17
:103A93001268BC850882124B3EEC240F124291122D
:103AA3004B5A1220D2850882850983124BBF706B53
:103AB300123C307003A3E069600A123C127003A346
:103AC300E06970578E828F83A3A3A3A3A3A3A3A3A9
:103AD300A3A3124B408E828F83125C53121B08E9FF
:103AE30060188E828F83A3A3A3A3A3A3A3A3A3A3DB
:103AF300E0240F123C2CE4F0A3F08E828F83126338
:103B0300F68E828F83A3A3A3A3A3A3A3A3A3A370CC
:103B130005123ED88004123EB6E4F0124BB1701A7F
:103B2300123E63125C531220F685088285098312C4
:103B33004BBF70061228D574A1F002379E74F6129B
:103B43000455EAFEEBFFEE240A123E727A187B005C
:103B530012174E850882850983123C69F8A3E0F9A0
:103B6300E8497003023C09EEFAEFFB1220C6124B40
:103B7300B1607F123C5664017007123C3D740E80A5
:103B830034E064027007123C3D740D80288E828FEE
:103B930083A3A3A3A3A3A3124BC270EA123C307066
:103BA30003A3E06960E0123C127003A3E06960D6EE
:103BB300123C3D7405124B63540364017007123EBB
:103BC300967405800B900364E0C0E0123E96D0E04B
:103BD300F0EE240AF508EF123C23123EA4123D69CD
:103BE300C0E0850882850983E02417123C2CD0E0CD
:103BF30080198508828509831242518508828509C7
:103C030083E4F0A380051228D57410F002379E12C6
:103C130010B88A088B09A808A90990061CE0682235
:103C23001268BC850882F58322123C52228E828F51
:103C330083125E7290061CE068228E828F83A3A398
:103C4300A3A3A3A3A3A3A3A3E02416123C5222126B
:103C53003EC1228E828F83A3A3A3A3A3A3A3A3A363
:103C6300A3123EBAE022EAF0A3EB123C7122124EF9
:103C7300B1E02274F11204558A0A8B0B8C088D096A
:103C83007A18125DC97003023D5C8E828F837401C2
:103C9300F0E508240DF8E509126659C3E49AFA958C
:103CA300E0FB1267161254C7FB8E828F83A3A3A374
:103CB300A31256B48E828F83A3A3F0EEFAEFFB1206
:103CC3000BE48508828509831263F870098E828F5D
:103CD30083A374058006900364123D64F0EE2417F9
:103CE300F8EF3400F9880C890D8E828F83123D68BA
:103CF300850C82850D83F0EE2416F8EF3400F9E588
:103D030008240EFAE5093400FB88828983124904EA
:103D1300E50824100A0AE5093400FB850C82850DA9
:103D230083E0FC88828983E0F88A828B83E0C398EE
:103D3300C39C12500BF0EEFCEFFDAA0AAB0B122052
:103D4300CCE9F508700AEEFAEFFB120BF0E9F5087F
:103D5300EEFAEFFB1217548003750810A908026BE3
:103D630081124A0E22A3E0F9120C38E922790102EA
:103D7300089174F4120455EAFEEBFF8E828F83A33D
:103D8300A3A3A3A3A3A3A3125C571263F8706B129C
:103D93003C5670668E828F83A3A3A3A3A3A3A3A37E
:103DA300E0242B123C2C123ED0704F8E828F83A3C3
:103DB300A3A3A3A3A3A3A3E0242BF888828983123C
:103DC3003EA4E0F8740168600A740668600574052F
:103DD3006870138E828F83A3A3A3A3A3A3A3A3A318
:103DE300A3123ED880138E828F83A3A3A3A3A3A37E
:103DF300A3A3A3A3123EB67403F0123E6312360FBD
:103E0300E4F0EE2408F8EF123E5F242D12411EC0A9
:103E1300E0123E8AD0E01256B8242A12411EC0E0B6
:103E2300123E8AA3D0E01256B8240B123C2C123E49
:103E3300DE123F771243EE8A0A8B0BAC0AAD0B8579
:103E43000882850983E0240612531F123E7C125C0C
:103E530053120BF01228D5E9F00229AB1245322296
:103E6300EE240A123E6A22123E728882F58322F8F9
:103E7300EF3400F98808890922123E8022121E6855
:103E830085088285098322850882850983123F7B01
:103E9300A3A3228E828F83A3A3A3A3A3A3A3A3A3DA
:103EA300A3123EA822E0F8123EAFA322A3E0F583BB
:103EB300888222123EBA22E0240E123EC122123E12
:103EC300C522F8A3E03400F98882898322E0F8123E
:103ED3004782640522123EBA740222125E7285087A
:103EE3008285098322124D93740122023D70C082A0
:103EF300C08390031E74C0F0A37420F09003207459
:103F0300B4F0A37420F090032274AEF0A37420F0F5
:103F130090032474BAF0A3742002373774F41204A4
:103F230055EAFEEBFF123F84F5081210B88A0A8B9C
:103F33000BA80AA90B8E828F83123F77E068700368
:103F4300A3E069602CE508A2E550268E828F83A347
:103F5300E0FB90031E12360F1221A38E828F83E0A3
:103F6300F8A31250DDA3124BC27006123F84C2E5C0
:103F7300F00229AB123F7B22E0FAA3E0F5838A82A9
:103F8300228E828F83123EA8A3E02274F512045579
:103F93001240E412410B2420F582E91270DCFE7416
:103FA300035EF50A1248EE1228DB1240F688828976
:103FB30083F0A3A882A983E50A60097402650A60F5
:103FC30003024055740C5EFF601574086F60107433
:103FD300046F701D7402650A7005EEA2E4402D8A19
:103FE300828B83A3A3A3A3A3A3A3A3E024231241AC
:103FF30046740C6F70101240DF242412412E2424C7
:104003001240F11241497402650A7005EEA2E440C0
:10401300411240DF242612412E24261240FBA31214
:1040230041581240FB1241581240F1124149EF60CE
:104033000F74086F600A740C6F600574046F70125C
:104043008A828B83A3A3A3A3A3A3A3A3E024221203
:1040530041468A828B83A3A3A3A3A3A3A3A3124151
:10406300147005EEA2E150178A828B83A3A3A3A346
:10407300A3A3A3A3E0242E1248F512413F800E9080
:10408300030212413F900302E00412454FA3A882AA
:10409300A983EEA2E750421240DF24211240FB1213
:1040A30041498C828D83124114602E8A828B83A3B3
:1040B300A3A3A3A3A3A3A3E02430124146EEA2E14A
:1040C30050178A828B83A3A3A3A3A3A3A3A3E02450
:1040D3003112411E88828983F0025FEA1240E4E0D4
:1040E30022EA2408FCEB3400FD8C828D83221248E3
:1040F300F9A322125E72EE221240FF22F508A3E01A
:104103003400850882F5832212410F22124F74E88E
:1041130022E024211248F9E0540322FAA3E01241D9
:1041230025223400FB8A828B83E0221240FF124156
:104133003FA3A882A9838C828D83E022E0888289B1
:1041430083F0221248F912414D22E088828983F0DC
:10415300A308A9832212414D8C828D83E024282257
:10416300C082C0838A828B83123F88F8740358F914
:104173008A828B83A3A37401F0E9600574026970DA
:1041830061740C58FC601474086C600F74046C70D8
:10419300137402697005E8A2E4401D8A828B83A32D
:1041A300A37402F0740C6C700A8A828B83A3A3E05D
:1041B3002402F07402697005E8A2E440258A828B28
:1041C30083A3A3E02404F0EC600F74086C600A740A
:1041D3000C6C600574046C70098A828B83A3A3E062
:1041E30004F0E8A2E750318A828B83A3A3E0041290
:1041F3005E7AF9A3E0F5838982A3A3A3E054036065
:10420300178A828B83A3A3E004F0E8A2E150098A12
:10421300828B83A3A3E004F08A828B83A3A3E004AD
:10422300023737C082C0838A828B83A3A3A3A3A34D
:10423300A3A3A3A3A3124BC260098A828B83A3A364
:10424300124249023738A3A3A3A3A3A3A3A31253E0
:10425300191217542274F7120455EAFEEBFF125E8B
:104263006A88828983A3A3A3A3A3A3A3A3E4F0A33C
:10427300123115A3A3A3A3F0A3F0E8125BFAE9128A
:104283004294122096EEFAEFFB1220A28015F582DB
:10429300ED124D93E4F022740C120B35E0F9740D1A
:1042A3001208F97F0102066DEA240BF582EB221254
:1042B3006572240922124D931270F8750E00780C62
:1042C3002274011245AA1243642274F51204557430
:1042D300F3120973EAFEEBFF7C087D007900851871
:1042E30082851983AA82AB831216B812304D124904
:1042F30031C0E07404120B35D0E0F07402120B35B8
:1043030074011243FBC0E07405120B35D0E012496F
:1043130037640170097402120B35E0D2E5F01243E1
:104323005A120B35E0702D8E828F83124F1C1208A8
:10433300AD8E828F83A3A3A3A31246C8740B120B63
:1043430035124D9C1208F9851882851983AA82AB10
:10435300831215C8025FDE851882851983AA82AB92
:1043630083122054740C2274F712045574FE12093C
:1043730073ECFEEDFF7508C8851882851983AC823E
:10438300AD83122114E9640170498518828519836C
:104393001250EA1243DDA3A3E4F0900632E0601B5F
:1043A3008E828F83A3A3123ED070108E828F83A33D
:1043B300A3A3A3A3A3A3A37401800D8E828F83A3BE
:1043C300A3A3A3A3A3A3A3E4F0EEFAEFFB12208419
:1043D300E9F508A90874020242A31249E2A32212D2
:1043E3001E62E9640122124EA9E022A3A3A3A3E85B
:1043F300F0A3E9F01210B2221254F0A3E02274F6F3
:1044030012045574F4120973EAFEEBFF12304D12D5
:104413004528FAA3E0F5838A82A3E0FA7402120B1B
:1044230035EA1256B824021249BF7404120B35122E
:1044330045F8EA600A7402120B35E06404701C123A
:10444300451C12531F7406120B351245221249BF25
:104453007408120B35E8F0A3E98056E06401600AA2
:10446300E064066005E06405702312451C12411EDA
:10447300C0E07403120B35D0E01256B82413125364
:104483001F7406120B351256B4241B80C074061217
:104493000B35E4F0A3124528241212531F7408129B
:1044A3000B3512452212656EC0E0740A120B35D02B
:1044B300E0F07406120B35124BC260287406120B1F
:1044C30035125C53120CA4E9640170181210B28AFD
:1044D300088B09AC08AD097406120B35125C531234
:1044E3003748700F851882851983AA82AB831220FF
:1044F300D88021851882851983AA82AB83121AE496
:10450300E96401700FEEFCEFFD7406120B35125CCB
:104513005312207E740C02379B12452D2412221253
:104523004546241A22F012452D22EE2402F8EF12FA
:104533004537E0223400F98882898322124546F800
:10454300A3E022EAF0A3EB12454FE022F088828930
:104553008322C082C08374FC1209731245CE1245B4
:10456300F88A828B83A3A3E01249BD7402120B3530
:104573001245A2121622740480001208F902373879
:10458300C082C08374FD1209731245B6C0E0740281
:10459300120B35D0E01245A6120B48740380DBE8FA
:1045A300F0A3E91245AA22F0851882851983AA820D
:1045B300AB83228A828B83A3A3A3A3A3A31249AFB2
:1045C3008A828B83A3A3123EA8E0228A828B83A3D1
:1045D300A3A3A3A3A31245DC221245E022E0F8A380
:1045E300E0F985188285198322125E72EE240BF599
:1045F30082EF124D931249B222AA82AB831216ACF8
:104603007403221249B29003302274F412045574D5
:10461300FB120973EAFEEBFF8E828F83A3A3124181
:104623000B2409F508E91268BC7403120B35AC823C
:10463300AD8388828983A3AA82AB83122114E964A0
:1046430001706A851882851983743212493124F7FF
:10465300C0E07401120B35D0E0F07402120B35E4A4
:104663001245A6120D768A0A8B0BAE0AAF0BEE4FDC
:10467300603B7403120B351246B5A3A31243E9C082
:10468300E0EE24201228D8D0E0F0750A0078081252
:1046930008ADEE126EC3EF1246C5EE240B1228D8F6
:1046A300124DA21208F9EEFAEFFB120D7074050217
:1046B30029A8125E728E828F8322E50A2410F58266
:1046C300E50B124D93E0FC7D0022C082C0831246AD
:1046D300F9600E24FE600F24FE601024FB6011803D
:1046E30012122078800D122072800812206C800331
:1046F3001220660237388A828B83A3A3E0F812471D
:104703008224FB22C082C0838A828B83A3A3A3A3B8
:10471300A3A3A3A3E070528A828B83A3A3E0F8121E
:10472300477E640160431247786402603C12477815
:10473300640360351247786404602E8A828B83A3F6
:10474300A3123ED26023124778640A601C12477892
:10475300640B6015124778640C600E124778640D81
:1047630060077904121E50800990032612360F1237
:1047730021A30237388A828B83A3A3124782221292
:104783003EAFE02274F612045574FA120973EAFE7E
:10479300EBFF7403120B35EEF0A3EFF07403120B6F
:1047A30035AA82AB8312208A1270D660030248E9CD
:1047B3008518828519837432F07405120B35C08213
:1047C300C0838E828F83A3A3A3A3E0D083D082F878
:1047D300E028C0E07401120B35D0E0124937C0E085
:1047E3007402120B35D0E012491CF8A3E0F9E84932
:1047F3006026E82417F582E91228DBC082C083E82B
:104803002416F582E91270DCD083D082F8E028F810
:104813007401120B35E028F0851882851983AA826A
:10482300AB83120D768A088B09A808A909E8497099
:10483300030248DC8E828F83125C5388828983A3B0
:10484300A3EAF0A3EB124922A3A3E0C0E0E82420EB
:10485300F582E91228DBD0E0126441C0E0E82421AC
:10486300F582E91228DBD0E0124931C0E0E8242ABE
:10487300F582E91228DBD0E0F07405120B35E0FA7B
:104883001248EE1270DC2A12531FE8242B124B83BA
:104893007405120B35E0C0E0E8242DF582E91228F7
:1048A300DBD0E012491CFAA3E0FBEA4B6019E824D1
:1048B3002BFAE912299EA3A3A3A3A3A3A3A3E024F2
:1048C300161248F51249048E828F83A3A3A3A3A3D0
:1048D300A3A3A3E8F0A3E9800CEEFAEFFB12209068
:1048E3001228D57410F0740602379BE8240BF58266
:1048F300E9221248F922FCA3E03400FD8C828D8367
:1049030022E0FC8A828B83E02CFCA3E03400FD8A46
:10491300828B83ECF0A3EDF022125018A3E022F077
:10492300E81266FBE9124D937401124F7B22125079
:104933000FA3E0221249CCE02274F7120455EAFED9
:10494300EBFF1270D6701E124972124BC260061230
:1049530036081221A31270D6700B125C47120D7029
:104963001228D5E9F0EEFAEFFB1220900242A612CC
:10497300209C8E828F83A3A3A3A3A3A3A3A3A3A3F8
:104983002274F6120455EAFEEBFF8C088D09121A05
:10499300D8E9700479018011AC08AD09EEFAEFFB98
:1049A30090032412360F1221A302379E1245E0E82A
:1049B300F0A3E9F022126432E0222401F8A3E034E8
:1049C30000F9221249CCA3E0221249D0221249D481
:1049D30022124F7FA3A3A3A3A3221249E2E022E85A
:1049E300F0A3E91249EA22124F7FA3A322126B62BA
:1049F300121E6822124B44EEFAEFFB22E0242B1224
:104A03003EC5E022123752124A0E22E08E828F8375
:104A1300A322124DE9A3A3A3A32274F6120455748F
:104A2300F3120973124B0C124B6A120B35740CF010
:104A33007405120B3574011254EB60097402120BE6
:104A430035742180077402120B3574011242C612A9
:104A53000B35E070327408120B35124AB474061227
:104A63004931124B28EE2402F8EF124537124A9FC0
:104A73001262CF124A9FA31249C6C0E0124A96128D
:104A830028DBD0E012643A740C120B35E0F9740D94
:104A930002379BE508240BF582E50922124AAAA3F3
:104AA300A3A3A3A3A3A322E0850882850983A3A3C9
:104AB30022124B52880889098882F5832274F712DF
:104AC300045574F3120973124B0C124B6A120B3513
:104AD3007409F07402120B357421F07405120B354E
:104AE3001242C4120B35E0701D7408120B35124BC1
:104AF3004A7407124B63124B28851882851983AABF
:104B030082AB831215C802429AEAFEEBFF7C087D52
:104B1300007900851882851983AA82AB831216B89F
:104B23008E828F8322FCA3E0FD88828983A3AA82DD
:104B3300AB83121E6822F582EF3400F583124B44D7
:104B430022E0FCA3E0FD22124B52888289832212C9
:104B530049FFF8A3E0F922124F7A12531922740184
:104B6300124F7BA3A3E0221249AF7404221216B89A
:104B7300850882850983A322E0F508A3E0F50922CD
:104B8300F582E9124D93EAF0A3EBF022124B932244
:104B93001249EA124F7422C082C083124BAA746076
:104BA300F0A374200237371220A8900326228E82A6
:104BB3008F83A3A3A3A3A3A3A3A3A3A31256D21236
:104BC300410F492274F7120455E9FE124BF41228DF
:104BD300DB124BC2601888828983A3E05403700EF2
:104BE300EEFB1248EE1228DB124C25124C1F024238
:104BF300A6EA125BFAEB22C082C083EAF8EBF988DB
:104C0300828983A3A3A3A3A3E0FB88828983A3A3AD
:104C1300A3A3124C25A3124C1F023738E0F9121537
:104C2300E022E0FA88828983A3A32274E812045560
:104C33008A088B098C168D178914741A120B35E0A8
:104C4300F50AA3E0F50B741C120B35E0F513741D84
:104C5300120B35780C120AD812627FEB1270DC2427
:104C63002DFA7B001216CA8A108B11AE10AF11EE0B
:104C73004F7003024D708E828F837401F08508108C
:104C830085091175120078101208AD7C157D00EEB0
:104C93002418124D7A1208F9851610851711781009
:104CA3001208AD7C097D00EE2402124D7A1208F938
:104CB3007418120B351245EC850A82850B83E0C00C
:104CC300E0EE240F1228D8D0E0124DB0C0E0EE245D
:104CD300111228D8D0E0124DABC0E0EE24101228F8
:104CE300D8D0E0123A6DE513124DD5E4F0A3F012DB
:104CF3004D89780C120AF6EE24171228D8E51412FF
:104D03003760F8A3E0F9EE240D1228D8124DCF1224
:104D130068DE1270DC6025EE24261252FD242DF885
:104D2300124DC71267181242B81208AD1268DC128E
:104D330046C58A828B83124DA21208F9EE241912FA
:104D430070D95403601D90031C124BC2600CEEFA21
:104D5300EFFB1236121221A38013EEFAEFFB1216A9
:104D6300D0800AEEFAEFFB900301124F6302692D24
:104D73007C087D00EE2404FAEF124D80223400FB00
:104D83001216AC740322EE2413124D9022F582EF17
:104D9300124D97223400F58322E0242B123C521249
:104DA30053191216AC740322124DBEE022124DB5F4
:104DB300E022124DB922124DBEA322F0850A82854C
:104DC3000B83A322EF3400F98A828B831249B2E565
:104DD3000822F0EE2426124D9022F50CA3E0F50DE7
:104DE300750E00780C2212375AA3A3A32274F11272
:104DF30004558A088B097A20124EF6606F8E828FD3
:104E0300837406124F128E828F83A3A3A3A3123738
:104E13004C8E828F83124E7C124DDD1208AD7C10B6
:104E23007D00EE2406124D7A1208F9850882850961
:104E330083A3A3A3124E722416FAEF3400FB120CC1
:104E43009E850882850983A3A3A3A3A3A3A3A3A3E6
:104E5300A3E0C0E0EE241E1228D8D0E0124E8CC08E
:104E6300E0EE241F1228D8D0E0124E94026B81A3E7
:104E7300A3A3A3A3124B44EE22A3A3A3A3A3124E63
:104E83008522123756A3A3E022F0124A961256C87F
:104E930022F0EEFAEFFB900527E0F91216D6221264
:104EA3004D90124EA922E8F0A3E9124EB122F085EB
:104EB300088285098322124EBD22123C71F8A3E0B9
:104EC300F98E828F83A3A32274F41204558A088B6C
:104ED300097A0C124EF660188E828F837408124F73
:104EE30012124F061208AD124D731208F9124F5CDD
:104EF3000229AB7B001216CA8A0A8B0BAE0AAF0BD0
:104F0300EE4F22F508A3E0F509750A00780822128E
:104F13004EBD124EA9A3A3E022A3A3124B7B750A95
:104F23000078082274F6120455EAFEEBFF7A057B3B
:104F3300001216CAEA4B601E8A828B83740A124FD0
:104F4300698A828B83A3A31249DD8A828B83A3A3FD
:104F5300A3A3F0124F6002379EEEFAEFFB900527F2
:104F6300E0F91216D622124F6D22124F7F124F74A0
:104F730022E0F8A3E0F922A3124F7F22F08E828F62
:104F83008322C082C083E9900F6EF0900318746689
:104F9300F0A3740BF090031A7478F0A3740BF090E1
:104FA300031C748AF0A3740B02373774F712045589
:104FB300EAFEEBFF8908EE4F7003121B6890032A89
:104FC300124BC2700890032A8022125E6E88828977
:104FD30083A3A3A3A3A3A3A3A3A312500588828996
:104FE30083A3A3A3A3A3A3A3A3A370DEEEF0A3EFC2
:104FF300125014E4F0A312500BA3A3A3E508F0028C
:1050030042A6125319EA4B2212500F221249EAA365
:1050130022125018221254F4A3A32274F712045537
:1050230090032A800D8E828F83A3A3A3A3A3A3A39C
:10503300A3A31265A6EE4F60348E828F83A3A3A32E
:10504300A3A3A3A3E06970DD8E828F83A3A3A3A38D
:10505300E06A7003A3E06B70CC8E828F83A3A3A35B
:10506300A3A3A3E06C70BEEEFAEFFB80047A007B8F
:10507300000242A674F712045590032A1265A69003
:10508300032A12302E687002EB6970171250DD127A
:105093005E6E90032A1245F890032A1265A68030AB
:1050A300126599EE4F60298E828F83A3A3A3A3A3D6
:1050B30012302A687002EB6970E68A828B83A3A39D
:1050C300A3A3A3A3A3A3A31250EAA3A3A31245F8E4
:1050D300121754EEFAEFFB0242A6123EB0A3A3A3AB
:1050E300A3A3A3A3A3A322125334A3A32274F01252
:1050F300045574FA1209738A088B098A828B83A375
:10510300A3A3A3A3A3A3A3E0600D640160098A8200
:105113008B83125311600579020252F88508828548
:105123000983A3A3A3A3A3A3A3A3E0640370157498
:1051330004120B35AC82AD83AA08AB09122114E922
:10514300701380D3850882850983125E6E740412FE
:105153000B351245F81267001270DC243212531F0C
:1051630012174E8A0A8B0BAE0AAF0BEE4F70030277
:1051730052F67C327D0079001216B87402120B3598
:10518300AA82AB83850882850983A3A3A3A3A3A3D0
:10519300A3A3A3E0F912212C7402120B35E0C0E0A3
:1051A300EE242D1228D8D0E0F0EE242CF50AEF34AB
:1051B30000F50B7403120B35E0850A82850B83F02F
:1051C3007901EEFAEFFB120B5485080C85090D7576
:1051D3000E00780C1208AD7C1C7D00EE240B124DE2
:1051E3007A1208F9EE24301252FD24320808124DC7
:1051F300C72411F8E5091270D1FCE9FD8C828D8377
:105203001240F6242E1228D8124DCF125696126849
:10521300E51208AD8C828D83124B408A828B8312F8
:105223004DA21208F97404120B351253301245F8CB
:10523300900302125326F0900302E0041256D9247D
:105243002A125C07750D00850A82850B83E0780CB2
:10525300120A4E8A828B83E50CF0EE24291228D899
:10526300E50C12642EE4F0E5082415F582E5091235
:10527300530B74015007120B3574018004120B3564
:10528300E4F0EE2427123E72851882851983AA82E0
:10529300AB8312160AE924FE850882850983F0F59B
:1052A30008750900EE242E124B39ECF8EDF9AA0823
:1052B300AB0912029CE88E828F83A3A3A3A3A3A3AB
:1052C300A3A3F0ECF8EDF9AA08AB0912029C8B0931
:1052D300EA4509600F8E828F83A3A3A3A3A3A3A38D
:1052E300A3E004F0EE24201270D94408125C7E7906
:1052F30000800279107406023A7C1270CFFAE9FB3F
:10530300EE22EE2415F582EF1256C8A2E0221253C4
:1053130019121154E922E0FAA3E0FB22FAA3E034C4
:1053230000FB22124A0EA3A3A3A3A3A32212533466
:1053330022124F748E828F83A3A3A3A32274F41229
:105343000455EAFEEBFF125BFF124B89900FBBE0A3
:10535300F8EE242B1270D9C39840030254B5125CA3
:105363001F7015EE242B1270D9041254E3C0E0EE23
:1053730024291228D8D0E0F0EE24281270D9FC7921
:1053830000800109EE242C1231B7E9C39850267529
:105393000801750900E97808120A4E125C1F5508C6
:1053A30060E1E92CFC750801750900E97808120A27
:1053B3004EE04508F0EE24271254D0EE242E122896
:1053C300D8EC8A088AF0A4F8ABF0E42BF9E098F85B
:1053D300A3E099F9C3E89508E99400EE403924273E
:1053E3001231B7125C1F6037EE242D1228D81254E5
:1053F300DDA3E4F0EC7054EE24201270D9442012A3
:1054030043FBC0E0EE24261228D8D0E0F0EE24308F
:105413001254D0A3E0805924291228D874FFF090A5
:10542300035CE0FA900FBEE0F508EA8508F0A4AB50
:10543300F075F064A4FAADF075F064EBA42DFB8E67
:10544300828F83A3A3EAF0A3EB80A8EE242012703B
:10545300D954DF124DD5ECF08C08EE24271270D905
:105463008508F0A4FAABF0EE2430F582EF1254C7AE
:10547300FBEE241EF582EF1254C31254EBC0E0EE90
:1054830024251228D8D0E0F0EE241C1228D8E812E4
:1054930056CD90032C124BC2600BECF9123612124C
:1054A30021A3E97018EE240BFAEF3400FB12213E1E
:1054B300800B7BE9EE2422F582EF1256A00229AB82
:1054C300126419221256C82AFAA3E03B221254D4BA
:1054D30022F582EF124D97E0FA22124A0EA3F02230
:1054E300F0EE242A1256C5221254F0E0221254F48C
:1054F300221249D4A3A32274F412045590032A124E
:1055030065A61217F68A0A8B0B7CFF7DFF8020E0CD
:10551300C398FAA3E099FBC3EA9CEB9D500E8E82DD
:105523008F83A3A3E0C398FCA3E099FD126599EED2
:105533004F6059125E6AE50AC398F8E50B99F98E34
:10554300828F83125C51C3E89AE99B8E828F83A377
:10555300A340BCA3A3A3A3E06402701DEE240B121B
:105563005C22600CEE24101228D8125C531216D061
:10557300EEFAEFFB120B608007EEFAEFFB120B6CF7
:105583007A017B00900F6E1239F4801474FF6C70F3
:105593000374FF6D600A7A017B00900F6E1232056F
:1055A3000229AB74F01204558A088B09ECFAEDFB5F
:1055B300890A7C01126700125C118A0C8B0DAE0CF8
:1055C300AF0DEE4F7003025693E50A600302569344
:1055D300E508125696E0F8EE24281270D9686003A5
:1055E300025693EE242C1254D0E82AF8E43400F93E
:1055F3008E828F83A3A3A3A3A3A3A3A3E0FAE89A12
:10560300E99400C365D0334014125930125C2570FD
:105613000C7B001266F9E5091256A080731259300B
:10562300125C257031EE242C1270D9F9EE24291264
:1056330028D87508FF750900E97808120A4EE508AD
:10564300F0EE242A1228D8E5081256BD29F0EE24DC
:105653002B1239E98022E5082414F8E5093400F90E
:10566300E0C0E0EE242A1228D8D0E01256B8C0E0F9
:10567300EE24291228D8D0E01256D9242D1228D886
:10568300123D64A31256CD7A01FB900F6E1239F4CA
:10569300023A7F2413F582E509124D93221254D75F
:1056A300EE2414124D90124C1FEEFAEFFB120B6016
:1056B30022EAF0A3EB12454FE022F0EE2428125623
:1056C300C522F582EF124D97E022F0A3E4F022E029
:1056D300240F123EC122F01217F68E828F83EAF056
:1056E300A3EBF0EE2274E812045574FD120973E97A
:1056F300851882851983F08A0A8B0B8C168D177493
:105703001B120B35125928741D120B35780C120A13
:10571300D88A828B83A3A3E0F91215FE8A128B1316
:10572300EA451370077A007B000259237A127B0043
:1057330012174E8A088B09AE08AF09EE4F700302A9
:10574300591F7C127D0079001216B87401120B35B3
:10575300AA82AB83850A82850B83A3A3E0F9122176
:105763002CEE240FF508EF1268BC7402120B35E01F
:10577300850882850983F07902EEFAEFFB120B5458
:10578300851682851783125330E8F0A3E91259680E
:105793008E828F83A3A3A3A3A3A3A3F07514FF7582
:1057A3001500850882850983E07814120A4E1228B1
:1057B300D5E514F0851282851383A3E0F812477EA2
:1057C300C0E0EE240B1228D8D0E0125972F508EE8F
:1057D300240D1228D8E508F0125C2AE08508F0A40D
:1057E3002424FAE5F03400FB1216CA8A088B09EE6A
:1057F300126280EF124B86EA450970030259148A3C
:10580300828B83741A1256CD8A828B83A3A3F0A34F
:1058130012595C1259451245F8AC16AD17EA240625
:10582300FAEB3400FB12161C850A82850B83A3A3B3
:10583300A3E0C0E0E508240FF582E5091228DBD0D8
:10584300E0F0900379125E6EE508241012593912C4
:10585300597FA3125E6EE5082412125939124DB016
:10586300C0E01259301228DBD0E0F0E50A125BFAEF
:10587300E50B1270DCC0E0E5082415F582E509129A
:1058830028DBD0E0125953C0E0E5082416F582E581
:10589300091228DBD0E01274E8E0C0E0E508241721
:1058A300F582E5091228DBD0E01274E8A3E0C0E03A
:1058B300E5082418F582E5091228DBD0E01249B87F
:1058C300C0E0E5082419F582E5091228DBD0E0F0F1
:1058D300E508241AF582E5091228DB780C120AF68A
:1058E300E5082424F8E5093400F9E5082422F582C3
:1058F300E5091245F5E50A1266FBE50B1270DCC0FB
:10590300E0E508241FF582E5091228DBD0E0F080EA
:105913000BEEFAEFFB120B607E007F00EEFAEFFB5B
:10592300740302692AE0F510A3E0F51122E50824C7
:1059330014F582E50922F582E509124D93E8F0A3F7
:10594300E922E0F8A3E0F98A828B83A3A3A3A3222D
:10595300F0851082851183E02212596022124DB91D
:10596300A3A3A3A322F0126708E50B1256C822F0E3
:10597300E50A2410F582E50B1256C822125960A3DA
:10598300A3A32274E81204558A0A8B0B8C108D1181
:1059930089147418120B35E0F516A3E0F517741A81
:1059A300120B35780C120AD8750900EA2413F58214
:1059B300EB1270DCF50890032C124BC26011A9089E
:1059C30090032C12360F1221A3E96003025BF77CCC
:1059D30002851082851183125C53126708E50B124E
:1059E3005C118A128B13AE12AF13EE4F704B850A04
:1059F30082850B83A3E0A2E04003025BF7780C12DD
:105A030008A978161208B1A914AC10AD11AA0AABF3
:105A13000B120B7E74061208F98A0C8B0DAE0CAFB9
:105A23000DEE4F7003025BF78E828F83A3A3A3A3B4
:105A3300A3A3A3A3E508125C7E85080C8E828F8343
:105A4300A3A3A3A3A3A3A3A3E024FFF8E434FFF930
:105A5300E8650C7001E97003750901EE240B125C13
:105A6300227003025BAA850A82850B83A3E0A2E06E
:105A73005003750800125C5EE50C98E499C365D089
:105A830033401EE0F8EE240E1270D928F0750CFF97
:105A9300750D00E8780C120A4EEE125BFAEF125CF9
:105AA3001812670FE50B1242B81208AD1246BD85F6
:105AB300080CEE240D1270D9850CF0A4F8A9F0EEB1
:105AC30024101270D9242212411E28FAA3E039FBB4
:105AD3001246001208F9750C01125C36780C120A92
:105AE3004E1270D6450CF0E509A2E05069EE240C85
:105AF300125C07125C3604780C120A4E8A828B837E
:105B0300E0450C125C7685080C850CF0A4F8E50AD8
:105B1300126280E50B1270DCFCE82CFCE5F034002B
:105B2300FDEE24101228D8125C57125E76F470260C
:105B3300EE240BF50CEF3400F50DEE24101228D8EB
