:020000040000FA
:06000000020AC0020289A1
:03002B0002090BBC
:030053000201AFF8
:03006B0002034548
:100083000202160101FF010503010FA611A611A625
:1000930011A61162105C10A611211F000000004779
:1000A30020000000000C0000000C0001FFFF010114
:1000B3000100EA040000006005B80102020000002C
:1000C300040502070101051E02051E020A0A03B800
:1000D3000B02803E010201FFFF020A011401E096B8
:1000E30051180002020612FF010900EFAA0AC20B0F
:1000F3000008B41BBA1BC01BC61B00000000000095
:1001030000000000000000000000000000000000EC
:10011300B41BBA1BC01BCC1B000000000000000076
:100123000000000000000000000000000000B41BFD
:10013300BA1BC01BD21B000000000000000000001F
:10014300000000000000000000000000B41BBA1B08
:10015300C01BD81B000000000000000000000000CE
:1001630000000000000000000000102020202020DC
:100173002020202020202020202020011004010006
:10018300010005758001D08011040100010005758F
:100193008001D08012040100010005758001D08028
:1001A30013040100010005758001D080C0E074F1E3
:1001B3001204B8A2AFE433FED2AFE5A7FFE5A1F581
:1001C300085FF50974105509600612181275A1EF3E
:1001D30074085509600812181875A1F7802BEFA24F
:1001E300E0C0D0E508A2E092F0120A0D158182F07A
:1001F3005017906198E0F890062AE0C398A2D26560
:10020300D0335002E8F075A1FEEEA2E092AF7F0278
:10021300020517C0E074F21204B8A2AFE433FED2B1
:10022300AF9061A4E0F8759B00E59158540860080D
:100233007591F712185A802AE59158541060087581
:1002430091EF121860801BE8A2E0C0D0E591A2E014
:1002530092F0120A0D158182F05007E0C2E0F0120D
:1002630019A49061A3E0F8E5E9585404600E12194B
:100273007A75E9FB906193E0A2E640F2EEA2E09288
:10028300AF7F01020517C0E074F21204B8A2AFE415
:1002930033FED2AF9061A5E0F8E5BF585404600681
:1002A30075BFFB1219B680D4C3E498F8E499F91228
:1002B30002EC8026C3E49AFAE49BFBE920E7E91207
:1002C30002ECE498F8E499F922C3E498F8E499F984
:1002D3001202ECE498F8E499F9C3E49AFAE49BFB7C
:1002E30022EB20E7CFE920E7E0B90010BB0008E8E4
:1002F3008AF084F8AAF022E4FBC8FA22EB70227B8E
:1003030010C833C8C933C9335007C39AC3DBF2805B
:10031300069A50012ADBEAC833F4C8C933F4C9FA90
:100323002275F008E4C833C8C933C933C99AC99BD5
:100333005004C92AC93BD5F0ECFBC833F4C8E4C95F
:10034300FA22C0E074F21204B8A2AFE433FED2AFD3
:10035300900AA8E4F0E589A2E4500C7401F053ABD1
:10036300EF900AA9E004F0E589A2E5500C53ABDF56
:10037300900AA8E0D2E51203C5E589A2E6500C5322
:10038300ABBF900AA8E0D2E61203C5E589A2E75005
:100393000C53AB7F900AA8E0D2E71203C5900AA8DA
:1003A300E060107C147D007A107B00900AAAE0F9CB
:1003B300121464758900C2C5EEA2E092AF7F0102F8
:1003C3000517F0900AA9E4F022080808EAC0E0EB58
:1003D300C0E086F0E7A4FA180986F0E7A42AFA1821
:1003E3000986F0E7A42AFA180986F0E7A42AFA197D
:1003F30086F0E7A4FBE5F02AFA190886F0E7A42BB8
:10040300FBE5F03AFA190886F0E7A42BFBE5F03A8E
:10041300FA18180986F0E7A4C5F02BFBE43AFA1999
:1004230008E7C5F0C6A426F6E5F03BFBE43AFA1864
:1004330086F0E7A4F6E5F00826F6E43B08F6E43A8E
:1004430008F6D0E0FBD0E0FA222518C582C0E0E52B
:100453001934FFC583C0E0E518C3958224F810AFB3
:10046300088583198582188008858319858218D2A7
:10047300AFCEF0A3E520F0A37808E608F0A3DEFAF8
:10048300EFF0A3E58124FAF8E608F0A3E608F0A369
:10049300E608F0A30808E608F0A3E608F0A3158130
:1004A3001581D0E0FED0E0F8158115811581E8C0F3
:1004B300E0EEC0E022C0D02518C582C0E0E51934C3
:1004C300FFC583C0E0E518C3958224F310AF088508
:1004D30083198582188008858319858218D2AFC84D
:1004E300F0A3E9F0A3EAF0A3EBF0A37908E709F09E
:1004F300A3D8FAECF0A3EDF0A3EEF0A3EFF0A3D0B2
:10050300E0F0A3D0E0F0A3D0E0F0A3E520F0A3E572
:10051300F0F0A322851983851882E0C0E0A3E0F9F7
:10052300A3E0FAA3E0FBA37808E0F608A3DFFAE070
:10053300FCA3E0FDA3E0FEA3E0FFA3E0C0E0A3E093
:10054300C0E0A3E0F5D0A3E0F520A3E0A3F5F0100D
:10055300AF088583198582188008858319858218D9
:10056300D2AFD082D083D0E0F8D0E032120B22B9E0
:1005730000030205B1E490030178C979088002F011
:10058300A3D8FCD9FA900AC9AA82AB8390008678D3
:100593002A79028015E493A3AC82AD838A828B838C
:1005A300F0A3AA82AB838C828D83D8E9D9E77582C5
:1005B3008D7583B1740312088375828875831D74E6
:1005C300001208830C75F0108E1A8F1B85821F850D
:1005D300831E851882851983E0CEA3E0CF851F8211
:1005E300851E83EBC9EAC8EDCBECCAC3E833C8E97F
:1005F30033C9EA33CAEB33CBC3EA9EF51DEB9FF550
:100603001CB35004AB1CAA1DEC33CCED33CDD5F099
:10061300DAAE1AAF1B22D083D082ECC0E0EDC0E08B
:10062300E493A3FCE493A3FDED4C600D1206F1ECFF
:1006330024FFFCED34FFFD80EFE493A3FCE493A3DC
:10064300FDED4C600D12078EEC24FFFCED34FFFD35
:1006530080EFD0E0FDD0E0FCE493A3C0E0E493C0DE
:10066300E022851983851882E0A3FEE0A3F52078B4
:1006730008E0A3F608DFFAE0A3FFE0A3C0E0E0A3ED
:10068300C0E0E0A3C0E0E0A3C0E0E0A3C0E010AF9F
:10069300088582188583198008858218858319D275
:1006A300AFD083D082020889D083D082E9C0E0E44E
:1006B30093A3C386F0C5F095F0F908E493A386F0FD
:1006C300C5F095F0700BE493A3C3994005E904804A
:1006D30002A3E475F002A42582F582E5F03583F5E3
:1006E30083D0E0F9E493A3C0E0E493C0E022C0E048
:1006F300C3E49396087401939618400FE4936670CD
:100703000808740193661870007019A3A3C3E493D7
:1007130096087401939618A3A3400DD0E0D0E0D0BF
:10072300E0020655A3A3A3A3A3A3D0E022740480ED
:100733000474028000CCC0E0EDC0E0E518C39CCC9B
:10074300AD1950011D10AF068C188D1980068C1839
:100753008D19D2AF120805D0E0FDD0E0FC2274025F
:100763008000CCC0E0EDC0E0E518C39CCCAD1950CF
:10077300011D10AF068C188D1980068C188D19D2A7
:10078300AF1207E3D0E0FDD0E0FC22C0E0C0F08868
:10079300F0E4936670080874019366187000A8F07B
:1007A300A3A3700BD0F0D0E0D0E0D0E0020655A3B5
:1007B300A3D0F0D0E022D083D082CCC0E0E493A3D6
:1007C30060061208641470FAE493A3600612096BBE
:1007D3001470FAD0E0FCE493A3C0E0E493C0E022F9
:1007E300CAC0E0E493A3C582CCC582C583CDC583CB
:1007F300F0A3C582CCC582C583CDC583DAE5D0E03D
:10080300CA22CAC0E0E0A3C582CCC582C583CDC5D8
:1008130083F0A3C582CCC582C583CDC583DAE6D078
:10082300E0CA227009080808226016181818C6C3FF
:1008330033C608C633C608C633C608C633C6D5E0B2
:10084300EA22C008C3E096F50808A3E09642080828
:10085300A3E096420808A3E09645087001D3D008A8
:1008630022C0E0E493A3D39C5010E493A3C39C4021
:100873000AD0E0D0E0D0E00207D6A3A3A3D0E022C1
:10088300C09FF59FE473D09F22D083D082C09FE4A2
:1008930093C0E0740193C0E0740293F59F22740443
:1008A300800A74038006740280027401C0E0F404B9
:1008B3001208BCD0E0120AFD222518F58210AF08F9
:1008C300F518400215198008F51840021519D2AF22
:1008D30085198322BB0102E722C082C08389828AF1
:1008E30083BB0003E08002E493D083D08222C0D094
:1008F300251810AF08F518500205198008F518508F
:10090300020519D2AFD0D022C0E0C0D0E8C0E0E5E4
:10091300A8D2AFC2C7A2E792AFD0E0F8D0D0D0E060
:10092300326016080808C6C313C618C613C618C60D
:1009330013C618C613C6D5E0EA22C3E0C696F60866
:10094300A3E0C696F608A3E0C696F608A3E0C6960B
:10095300F622251810AF08F518400215198008F57E
:100963001840021519D2AF22C0E0E493A36C7009BA
:10097300D0E0D0E0D0E00207D6A3A3D0E022C3E0CA
:100983009608A3E09608A3E09608A3E096A2D26592
:10099300D03322E76670100809E766700A0809E792
:1009A3006670040809E76622E066701008A3E06633
:1009B300700A08A3E066700408A3E06622C3E09609
:1009C300F008A3E096F008A3E096F008A3E096F001
:1009D30022E026F008A3E036F008A3E036F008A3EF
:1009E300E036F022E627F60809E637F60809E63787
:1009F300F60809E637F622E026F608A3E036F608FD
:100A0300A3E036F608A3E036F622C0E0E8C0E0E54E
:100A13008124FCF8E6A2E7D0E0F8D0E022E647F62E
:100A23000809E647F60809E647F60809E647F62205
:100A3300E657F60809E657F60809E657F60809E601
:100A430057F622E056F608A3E056F608A3E056F65A
:100A530008A3E056F622E056F008A3E056F008A3F8
:100A6300E056F008A3E056F022700422600D18C689
:100A7300C333C608C633C6D5E0F41822E4C396F6DA
:100A830008E496F608E496F608E496F622C6F4C659
:100A930008C6F4C608C6F4C608C6F4C622C3E79659
:100AA3000809E7960809E7960809E79622C3E0963E
:100AB30008A3E09608A3E09608A3E0962275D00069
:100AC3007581407518017519030002056FE0F6087A
:100AD300A3E0F608A3E0F608A3E0F622600C08C63C
:100AE300C313C618C613C6D5E0F422E6F008A3E67E
:100AF300F008A3E6F008A3E6F022CAC0E0E6F0A3FC
:100B030008DAFAD0E0FA22E0FAA3E0FBA3E0FCA3C0
:100B1300E0FD22EAF0A3EBF0A3ECF0A3EDF022E575
:100B2300C754F84401F5C77901222518F582E43545
:100B330019F58322C2AF75D69F0200002212088CDA
:100B43004F4C0012088C414F0012088C4E4F00127C
:100B5300088CDB4F0012088C9D500012088CE55066
:100B63000012088C39510012088C55510012088C60
:100B730089510012088CBE510012088CB552001224
:100B8300088C6A530012088CB9550012088C0C5754
:100B93000012088CAF570012088C3C580012088CC6
:100BA300CB580012088C28590012088C5C5900128B
:100BB300088CD7590012088CB15A0012088C6F5B4D
:100BC3000012088C875B0012088C1E5C0012088CD4
:100BD3008F5E0012088C95600012088CB3600012BF
:100BE300088C4BA80212088C80A80212088CA6A8B5
:100BF3000212088CE0A80212088CF2A80212088CD8
:100C030044A90212088CA5A90212088C2FAA021269
:100C1300088CD3AA0212088C1BAB0212088C55ABAA
:100C23000212088C72AB0212088C97AB0212088C6A
:100C3300E9AB0212088C02AC0212088C28AC021237
:100C4300088C63AC0212088CA7AC0212088CCEACE1
:100C53000212088C1FAD0212088CCFAD0212088C51
:100C630087AE0212088C4FAF0212088C2CB002120E
:100C7300088CB2B00212088CC1B00212088CCCB03E
:100C83000212088CD5B10212088CE6B10212088C4C
:100C93005CB20212088CEEB20212088C46B3021246
:100CA300088C0CB40212088C33B40212088C51B4B1
:100CB3000212088CA4B40212088CE9B40212088C44
:100CC300F6B40212088C8AB60212088CEFB702122D
:100CD300088C2BB80212088C47B90212088CB1BBDE
:100CE3000212088CBCBB0212088CC6BB0212088C11
:100CF300D1BB0212088CDBBB0212088CE5BB0212CB
:100D0300088CF0BB0212088CFBBB0212088C2CBCB3
:100D13000212088C50BC0212088C74BC0212088C9C
:100D2300D9BC0212088C1DBD0212088C39BD0212F7
:100D3300088CB0BD0212088CE8BD0212088C34BEC8
:100D43000212088C91BE0212088C73C00212088C26
:100D5300F9C00212088CD2C10212088CE2C402123A
:100D6300088C37C50212088C64C50212088CB0C601
:100D73000212088C00C70212088C55C70212088C95
:100D830056C80212088CEEC80212088C70C90212EF
:100D9300088C10CA0212088CD6800112088C0F81AD
:100DA3000112088CE9820112088C28830112088C35
:100DB30072830112088C17840112088C7684011245
:100DC300088CAA840112088C17850112088C3486BA
:100DD3000112088C3C870112088CD2870112088CFF
:100DE300198B0112088CC28B0112088C9E8C011284
:100DF300088CFF8C0112088C1C8E0112088C469003
:100E03000112088CFD900112088C07910112088CC5
:100E130035910112088C0C920112088CD3920112A5
:100E2300088C6E930112088CD3930112088CFC93E7
:100E33000112088C1E940112088C4D960112088C25
:100E430024970112088C68970112088CD597011218
:100E5300088C90980112088CC2980112088C06998C
:100E63000112088C3C990112088C91990112088C8B
:100E7300E6990112088C7A9A0112088CDC9A011205
:100E8300088C449B0112088CED9C0112088CD59DA3
:100E93000112088C179F0112088C45A10112088CBE
:100EA30005A20112088C3AA40112088CDDA40112D8
:100EB300088C1BA50112088CC7A60112088CDBA69F
:100EC3000112088CE5A60112088C0FA70112088CE9
:100ED3001BA70112088C3AA70112088CF1A7011273
:100EE300088C30A80112088C3AA80112088C44A877
:100EF3000112088C8FA80112088CF2A80112088C29
:100F0300F9A90112088C59AA0112088C09AB011224
:100F1300088C08AC0112088C01AD0112088C9EAD3F
:100F23000112088C40AE0112088C57AE0112088CD6
:100F33008EAE0112088CACAE0112088CF0AE011219
:100F4300088C15AF0112088CFBAF0112088C67B037
:100F53000112088CE1B00112088CF0B10112088C67
:100F63002FB30112088C0DB40112088C6FB4011257
:100F7300088C29B50112088C4CB50112088C20B6D7
:100F83000112088C6BB60112088CADB60112088CE5
:100F930004B70112088C49B70112088C77B7011204
:100FA300088CB0B70112088CD5B70112088C5DB854
:100FB3000112088C80BA0112088CDFBA0112088C66
:100FC30073BB0112088CDFBB0112088C2ABC01120F
:100FD300088C57BC0112088C91BC0112088CF7F6DF
:100FE3000212088C2FF70212088C50F70212088C99
:100FF30092F70212088CF8F70212088C02F8021218
:10100300088C12F80212088C47F80212088C90FB25
:101013000212088C3AFD0212088C3AFF0212088C65
:1010230014810212088C6E810212088CCA8102128A
:10103300088C16820212088C31820212088C62829A
:101043000212088C7F820212088C8B820212088C97
:10105300FF830212088C18840212088C7F84021208
:10106300088C92840212088CA0840212088C548586
:101073000212088C38860212088C3E870212088CF2
:10108300C4870212088CCE870212088C3B88021296
:10109300088C52880212088C84880212088CBD883E
:1010A3000212088CE7880212088C48890212088C05
:1010B30068890212088C86890212088CCC89021274
:1010C300088CF28A0212088C3F8B0212088C6E8BFA
:1010D3000212088CE48B0212088C0C8C0212088C0E
:1010E300458C0212088C538C0212088CAB8C0212B2
:1010F300088CFA8C0212088C398D0212088C698DC7
:101103000212088C958D0212088CA08D0212088C95
:10111300BE8D0212088C808E0212088C8A8E0212F7
:10112300088CC58E0212088CDB8E0212088CE48EAA
:101133000212088C398F0212088C4D8F0212088C10
:101143005B900212088C6E900212088C839002123C
:10115300088C25910212088CA8910212088C6692C1
:101163000212088C71920212088C97930212088C57
:10117300B3930212088C05940212088C4494021251
:10118300088C59940212088C9B940212088CE896DE
:101193000212088C66970212088CD9970212088CE7
:1011A300FB990212088C139A0212088C169A0212E7
:1011B300088C229A0212088C369A0212088C3E9AE4
:1011C3000212088C719A0212088C219B0212088C5D
:1011D300979B0212088C0A9C0212088CBE9C021276
:1011E300088C739D0212088C929D0212088C329E09
:1011F3000212088C3E9E0212088C699E0212088C11
:101203006C9E0212088CD69E0212088CFE9F02125C
:10121300088CD6A00212088C61A10212088C7AA253
:101223000212088C37A30212088C70A30212088CD6
:10123300A1A30212088C41A40212088C71A4021209
:10124300088C4CA50212088CE5A50212088C70A626
:101253000212088C21A70212088CA3A70212088C81
:10126300D5A70212088C16A80212088C2E8B031223
:10127300088C938B0312088CD08B0312088C1F8C61
:101283000312088C098E0312088CF08F0312088C4A
:1012930029930312088C4F930312088C679303124C
:1012A300088CD0930312088C0C940312088C399485
:1012B3000312088C6B940312088CC9940312088CD4
:1012C30000800312088C7E800312088CB080031206
:1012D300088C08810312088C82820312088C9E8278
:1012E3000312088CD9820312088C60830312088CC2
:1012F300B0830312088C7D840312088C818503124A
:10130300088CD5850312088C50860312088CB1868D
:101313000312088CF2860312088C9D870312088C33
:10132300BB880312088CF1880312088C3C890312D2
:10133300088C83890312088C0D8A0312088CB28AE5
:101343000312088CB8F80112088CFEF80112088CFD
:1013530068F90112088C89F90112088C29FA011223
:10136300088C33FA0112088C80FA0112088CA5FA52
:101373000112088C05FB0112088C9BFB0112088CDF
:10138300D3FB0112088C2CFC0112088C88FC01127F
:10139300088C10FD0112088C55FD0112088C94FD78
:1013A3000112088CD9FD0112088CEBFD0112088C87
:1013B300FDFD0112088C1CFE0112088C1042001264
:1013C300088CD1FE0112088C11FF0112088C7BDA04
:1013D3000312088C4ECD0312088C84CD0312088CA3
:1013E300CDCD0312088C1ACF0312088CE4600012CF
:1013F300088C5D620012088C1E640012088C5A640B
:101403000012088CE1670012088C27680012088C10
:10141300A1490012088C0E6B0012088CBA6B0012E3
:10142300088C656D0012088CAF6F0012088CCB72AC
:101433000012088CD9720012088CB4730012088C45
:10144300C7770012088C42DD0312088CE8FF0112F3
:10145300088C83BC0312088C96BC0312088C34BD21
:101463000312088C76BD0312088C9BBD0312088CF3
:10147300E0BD0312088C19BE0312088C4ABE031286
:10148300088CBDBF0312088C3AFF0112088C70FF51
:101493000112088C8CFF0112088CCEFF0112088CFC
:1014A300DEFF0112088CC3CA0212088C05CB02129C
:1014B300088C74CB0212088C2CCC0212088C96CCAC
:1014C3000212088C1ECD0212088C33CD0212088C36
:1014D3007DCD0212088CC1CD0212088CD4CD02122C
:1014E300088C20CE0212088C0AD00212088C8CD0F1
:1014F3000212088CB6D00212088CEED00212088CAD
:1015030079D20212088CF0D20212088C7DD3021217
:10151300088C98D30212088CB8D30212088CCAD351
:101523000212088C95D40212088CF8D40212088C8B
:1015330044D50212088C3ED60212088CABD8021294
:10154300088C3AD90212088C85D90212088CFAD970
:101553000212088C17DA0212088C1ADA0212088CAB
:101563002ADA0212088CA1DA0212088CD6DA0212E5
:10157300088CF8DA0212088C24DB0212088C5FDB79
:101583000212088C76DB0212088CF0DB0312088C43
:10159300FCDB0312088C38DC0312088C5A78001227
:1015A300088CA9780012088C5B7A0012088C107CD6
:1015B3000012088C587C0012088C547D0012088C91
:1015C300AB7E0012088CCD7E0012088C297F00129E
:1015D300088CAB7F0012088CD1E70112088CFCE762
:1015E3000112088CBEE80112088C40E90112088C34
:1015F300AAE90112088CF6E90112088C69EA0112C2
:10160300088CF4EA0112088C83EB0112088CB6EB08
:101613000112088CAAF00112088C52F20112088CF4
:101623004DF30112088C4EF50112088CBDF5011221
:10163300088CAEF60112088C8BF70112088CFEF7AA
:101643000112088CDBEA0212088C9AEB0212088C56
:101653000AEC0212088CB1EC0212088C0EED021295
:10166300088C35EE0212088CF5EE0212088C5AEF44
:101673000212088C08F10212088CC5F10212088CC0
:10168300F1F20212088C0FF40212088CA8F4021271
:10169300088C98F50212088C9BDB0212088C22DC62
:1016A3000212088C94DC0212088CE8DC0212088C0B
:1016B30023DD0212088CB0DD0212088CD0DE021288
:1016C300088C39DF0212088C79DF0212088CC3DF21
:1016D3000212088C73E10212088C0CE20212088CCD
:1016E3002AE20212088C2CE20212088C0AE302128C
:1016F300088CE1E30212088C0CE40212088C2DE43E
:101703000212088C71E40212088C49E50212088C5B
:1017130082E60212088C5CE70212088C2BE80212A4
:10172300088C84E80212088C9CE80212088C9CE95D
:101733000212088C2AEA0212088CFFCA0312088CD0
:10174300BECB0312088C77CC0312088CDDCC0312BA
:10175300088C05B20312088C6EB30312088CDF7F6A
:101763000012088C88D90312088C96D90312088CAE
:10177300ECFF0212088C6FDC0312088C7FDC03126F
:10178300088C8BDC0312088CD8DC0312088C8AD8F3
:101793000312088C0BD90312088C6FD90312088C1F
:1017A300CADE0312088CCDDE0312088C85DE031219
:1017B300088CC8DE0312088C1EA80312088C73A8B9
:1017C3000312088C47AA0312088C79AA0312088C07
:1017D300A0AA0312088CB4AA0312088CCDAA031280
:1017E300088CFCAB0312088CAFD30312088CD3D341
:1017F3000312088CECD30312088C1FD40312088C39
:1018030050D40312088C7ED40312088CE0D4031244
:10181300088CEFD40312088CF9D40312088C06D574
:101823000312088CCDC50312088C0AC60312088C58
:1018330019C60312088C38C60312088CA0C60312FB
:10184300088CA9C60312088C08C70312088C2CC77E
:101853000312088C1FC80312088C2CC80312088CAF
:101863003DC80312088C1CDE0312088C39DE0312F8
:10187300088C5FA30312088CA5A30312088CFEA493
:101883000312088C0BA50312088C1EA50312088CE7
:101893003DA50312088C53A50312088C67A50312F8
:1018A300088CDCA50312088C41A60312088CF1A650
:1018B3000312088CC6A70312088CD6A70312088C40
:1018C300E5A70312088C55DB0312088C7ADB03129D
:1018D300088CA3DB0312088CCBDB0312088C9ED18C
:1018E3000312088CC5D10312088C41D20312088C51
:1018F3006BC80312088C84C80312088C90C80312A7
:10190300088CA4C80312088CC2C80312088CCCC864
:101913000312088CD6C80312088CE9C80312088C7A
:1019230048C90312088C7FC90312088CADC903127E
:10193300088CFBC90312088C48CA0312088C63CABB
:101943000312088C6DCA0312088CB5CA0312088CE3
:10195300DBDC0312088CF7DC0312088CA7DE03120E
:10196300088C19950312088C43950312088C5F9514
:101973000312088C72950312088CB1950312088C1C
:1019830032960312088C6F9A0312088C999B0312E8
:10199300088CCC9B0312088C199C0312088C579D4E
:1019A3000312088C7F9D0312088CA29D0312088CDE
:1019B300E69D0312088C479E0312088C579E031260
:1019C300088C10D50312088C2BD50312088C54D520
:1019D3000312088C6ED50312088C93D50312088C5E
:1019E300B2D50312088CCAD50312088CF8D503129A
:1019F300088C12D60312088C92DD0312088CE5B80A
:101A03000312088CECB80312088C21BA0312088C59
:101A130050BA0312088CBEBA0312088C51BB0312CE
:101A2300088C8ABB0312088CD3BB0312088C03BC3B
:101A33000312088C23BC0312088C43D60312088CB0
:101A430055D60312088C6FD70312088C72D7031272
:101A5300088C75D70312088CD4D70312088C2AD8A4
:101A63000312088C6BD80312088CDBBC0112088CA0
:101A7300F6BC0112088C6BBD0112088CF4BD011277
:101A8300088C83BE0112088C9FBE0112088C49C1C9
:101A93000112088CF8C30112088C96C50112088C38
:101AA300E1C60112088CAECC0112088CAACD01123A
:101AB300088C20CE0112088CECCE0112088C90CF3A
:101AC3000112088CF3D00112088C93D10112088CF7
:101AD300DDD10112088C4FD20112088CF8D2011209
:101AE300088CC5D30112088C2BD40112088C30D575
:101AF3000112088CEDD50112088C8AD60112088CCC
:101B0300E1D80112088C75D90112088CF1D90112A0
:101B1300088C7DDC0112088C78DD0112088CA7DDAE
:101B23000112088C66DF0112088C3AE10112088C5D
:101B330030E20112088C1EE70112088CE2C2031284
:101B4300088C07C30312088C90C30312088C52C479
:101B53000312088C24C50312088CA1C50312088C38
:101B630046B50312088C07B60312088C76B6031227
:101B7300088C9BB60312088C56B70312088CD8DD69
:101B83000312088C81CF0312088CD0CF0312088C68
:101B93000DD00312088C90D00312088C5FD103126E
:101BA300088C65D10312088C859E0312088C499F0B
:101BB3000312088C50A10312088C53A10312088C42
:101BC3008FA10312088C92A10312088C9DA103120A
:101BD300088CA8A10312088CB3A10312088CC4A11A
:101BE3000312088C78A20312088CCABF0312088C54
:101BF300EDBF0312088C38C00312088C54C00312C3
:101C0300088C85C00312088C95C00312088C78C118
:101C13000312088C82C10312088C8FC10312088C33
:101C2300AEC20312088CC2C20312088CCBC20312C9
:101C3300088CD8AC0312088C88B10312088C58DEC8
:101C43000312088C2E410012088C713F0012088C7D
:101C53003D3F0012088C0A3F0012088CEE3E001232
:101C6300088CF73D0012088CAF3D0012088CE43B52
:101C73000012088C643B0012088C4A3B0012088C4B
:101C8300C93A0012088C89390012088CEB3800120B
:101C9300088CB9380012088CF6370012088C2136EC
:101CA3000012088CB2350012088C84350012088C9F
:101CB30081350012088C6E350012088C063500122F
:101CC300088C71480012088CC5470012088C164610
:101CD3000012088CD1430012088C58430012088C60
:101CE300ED340012088CB7330012088C81330012D4
:101CF300088CFF420012088C44330012088CE53232
:101D03000012088CB4320012088C6F2F0012088C5A
:101D130093420012088C3C6A0012088C602E001259
:101D2300088CEF2D0012088CB42D0012088C7F2D27
:101D33000012088C732D0012088CD32C0012088C0F
:101D43001A2C0012088CED290012088C7927001236
:101D5300088C37270012088C02260012088CB7253E
:101D63000012088CE6240012088C3D240012088C13
:101D730013240012088C6A420012088CD923001223
:101D8300088C25FE0100000080FBE4738F00010036
:101D9300210B870001001F0B24000200D80525003A
:101DA3000200DA0526000200DC0527000200FF0A14
:101DB30028000100010B29000100020B840004002C
:101DC300030B86000100070B2A000100080B2B0000
:101DD3000100090B2C0001000D0B2D000800E0058C
:101DE3002E0001000E0B2F0001000F0B300001002D
:101DF300100B31000100110B32000100E805330024
:101E03000100E90534000100120B36000100EA0568
:101E130038000100130B390001000C0B8300020092
:101E23001D0B63000100F405640001000A0B65004B
:101E330001000B0B6D0001001C0B6E000200DE05A0
:101E430043000100140B44000200150B4500010080
:101E5300170B46000200180B47000800EC0548006A
:101E630001001A0B4B0001001B0B04000100200BA7
:101E7300A1000100240B37000100230B880001009F
:101E8300220B3C000100EB050000000000000001F4
:101E930036360101000102010001030100010401C2
:101EA300060605020000070100340801000F0904BB
:101EB30001010D0100FF0E080000170200001901C7
:101EC30000FF1A0100011B0100FE1C0100081D0296
:101ED30000001F0100012001000121020000230175
:101EE300000F240200002601000127010008280238
:101EF30000FF2A0100072B0102402C0100002D01E5
:101F030000012E0100012F0100FF30010B1C3108DD
:101F130000003A0100083B01000F2F0100000300FD
:101F23007100300160001100700031022003500481
:101F33008000100061000000140063007300720051
:101F430062004300000013000600000000000400CC
:101F5300120000000000000000000400040037002D
:101F630037003C0244000000000000000000650050
:101F73000000350081000000050000008300000020
:101F8300010171010101010111010101310101018E
:101F930001018001100161013B0014006301730121
:101FA3007201620143010001130106013D01350085
:101FB30004011201000100010001000104010401F8
:101FC300330133013C0144013201360000010001B9
:101FD30065010001350081010001050182018301D2
:101FE300000103027102300160021102700201025A
:101FF300020202028002100261023A0041006302FF
:1020030073027202620243020002130238000002EA
:102013000002040212020002000200020002040293
:102023000402370037003C02440200023900000278
:1020330000026502000235028102000205028202EB
:10204300830200020103710301030103010301037E
:10205300010322030203010310030003000300032F
:1020630000030003000300034203000324030603E9
:10207300000300030403120325032303250323039F
:1020830004030403000300030003440300030003E9
:1020930023030003650321003503810300030503C4
:1020A300000300030003000003002001D4800000AC
:1020B30000002001D580000004004201648000007C
:1020C30005004201538000000600420142800000E7
:1020D30007002001D280000010004203B00B000073
:1020E30011002003B90A000012001003C10B030002
:1020F30000002103BA0A060000002001BD0A000007
:10210300000000000000000003002001D480000054
:1021130000002001D580000004004201648000001B
:102123000500420153800000060042014280000086
:1021330007002001D280000010004203B00B000012
:1021430011002003B90A000012001003C10B0300A1
:1021530000002103BA0A060000002001BF0A0000A4
:10216300000000000000000003002001D4800000F4
:1021730000002001D58000000400420164800000BB
:102183000500420153800000060042014280000026
:1021930007002001D280000010004203B00B0000B2
:1021A30011002003B90A000012001003C10B030041
:1021B30000002103BA0A060000002001BE0A000045
:1021C300000000000000000003002001D480000094
:1021D30000002001D580000004004201648000005B
:1021E30005004201538000000600420142800000C6
:1021F30007002001D280000010004203B00B000052
:1022030011002003B90A000012001003C10B0300E0
:1022130000002103BA0A060000002001BC0A0000E6
:1022230000000000000036000100060000000F005F
:1022330000000000000000000000000003FFFF009A
:10224300000403FFFF0000FFFF0FF4010005C404B7
:102253000320000100140B00000000000000000335
:10226300010FE21A1E1BE81A361BEE1A241BEE1A84
:10227300301BF41A361BEE1A241BFA1A361B001BEA
:10228300361B061B361B0C1B361B121B361B181B5F
:10229300361B000000000000000000005C16130065
:1022A300201601005C160200F0150300F615040069
:1022B300FC150500021606000E16FFFF0000BC10F9
:1022C300EC10C210C810E610DA10D410F210F81097
:1022D300FE100A11CE10B610B0100A220E02E60D3F
:1022E30005F80D07EC0D0CC80D0DDA0DFF0000000D
:1022F300160F00000B150B020002220F320000061E
:102303007A6232303136303932393130323633371E
:1023130000000000000000008967452301EFCDABFA
:1023230058696E6748756F5975616E536D61727444
:10233300A611B811BE118610C41180108C10140A96
:10234300E5D5C5B5A5A59585857565061224122A1B
:10235300120C1218121212303017181921301B1DCB
:102363001F30303016181920231A1C1E3000011993
:1023730016181616152303000C0E020B040B0A077E
:1023830008000F00383C3E363B3B352B432C000303
:102393004948424D1817250502E01004111E12107A
:1023A300111611FA11CA11D011DC11D6110204024F
:1023B30001010101090200BE040AFA062800150002
:1023C3000E0004004123E803091E03040A10040855
:1023D300051EFF080C0F74F712044CE9FE1212C01D
:1023E300EE900ACAF090030C745EF0A3741DF09093
:1023F300030E7458F0A3741DF09003107452F0A3ED
:10240300741DF0900312744CF0A3741DF002393E56
:1024130074F712044CE9FE900302E4F0EE9003011A
:10242300F07CEC7D057A037B03121A64900B1AE0AF
:1024330090030BF0121D2802393E74F412044C8AE7
:10244300088B09EB5480605B900301124FAF604A25
:102453008E828F83E0640170321240C5120730EE22
:1024630024121260D4F50A780A1208AD1224D91284
:1024730008A9EE240B122730120734EE2417124F4B
:10248300BF12127E74091208F18008E0640270031F
:10249300121C74EEFAEFFB121368AA08E5096480B4
:1024A300FB8030EA5402600C900AC97401F0EA64BC
:1024B30002FA801FEA54046005EA640480F3EA54D4
:1024C30008600C121D22E5086408FAAB0980047A3F
:1024D300007B000225B2EE240FF50AEF3400F50B62
:1024E300780A2274F412044C8A088B098A828B833B
:1024F300A3A3A3E0241012394AFA1241F67003028F
:1025030025958E828F837402F0A3E41241E4A3A382
:10251300A3A3E8F0A3E9123E67A3A3A3A3A3A3A3E2
:10252300F0E5082403F8E50912350B24101237B13E
:102533008E828F83A3A3A3A3F0EE2409FA12259717
:10254300123A86F5838882E0A2E58E828F83A3A365
:10255300A3A3A3500474018001E4F0E5082403F865
:1025630088828983125099EA12588AEB1227331210
:1025730025A21208A51258BFEB123B348E828F831B
:10258300A3A31240D21208F1EEFAEFFB900301125B
:102593004248801BEF3400FB8E828F83A3A322E08B
:1025A300F508A3E0F509750A007808221208F17FFF
:1025B3000402066574F212044C8A088B09ECFAEDE6
:1025C300FB740E120B2DE0FC1212F08A0C8B0DAE75
:1025D3000CAF0DEE4F6023AC08AD091212DEE960BB
:1025E30019AC08AD09EEFAEFFB1212E4E97007EE3D
:1025F300FAEFFB1212D87900800279B402337C74AB
:10260300EE12044C74F71209558A0A8B0BECFEED9B
:10261300FF750FB3750E00750C00750D00800CE58A
:102623000C2401F50CE50D3400F50D9023C5E4935E
:10263300F8740193F9C3E50C98E50D99400302275B
:1026430021AA0CAB0D12133E8A088B09EA450960D7
:10265300CE8A828B83A3A3A3A3A3E0250EF50EF555
:1026630010C3E50A9510E50B940050B37C157D006B
:102673007900EEFAEFFB123EC9A3A3A3A3E50AC3B5
:10268300950EF8E028C333F8E433F9E50828F5821A
:10269300E50939F583A3A3A3A3A3A3124606A312B3
:1026A3003977EAFCEBFDEEFAEF12355FA3E0640144
:1026B300700A1240C5740112346E804385188285F6
:1026C3001983AC82AD8385088285098312509712E2
:1026D3001326E9602D7408120B2DE0C0E01240C5EB
:1026E300D0E0F07408120B2DE0640385188285197D
:1026F30083700CAC82AD83EE240B12345B80031227
:102703003B1A8508828509831234FAA3A31241AECA
:10271300C0E0EE2414122730D0E0F0750F00A90FAB
:1027230074091208F17F0A020665EE240CF582EFA4
:102733001241162274F712044CE9FE8A828B83A39A
:10274300A3A3A3A3A3E0540860298A828B83A3A332
:10275300A3A3A3A3E0540260178A828B83A3A3A33A
:10276300A3A3A3A3A3A3E06406600574E96E7003A7
:10277300121D4002393E74E812044C74F7120955D5
:102783007407120B2D123EDBE9851882851983F03D
:10279300ECFEEDFF7424120B2D780C120AD0751386
:1027A300008E828F831250938E828F83A3A3A3E024
:1027B300F91212FC8A148B15EA451570030229934A
:1027C300EE24101247A0A914120D1A8A168B17EAC9
:1027D30045177003022993EE2406F510EF3400F534
:1027E300117C00851082F5831229D98E828F83A3F1
:1027F300A3A3E0851682851783A3A3A3124C19F81C
:10280300A3E0F9851682851783A3A3A3A3E8F0A306
:10281300E9122F6A851682851783A3A3A3A3A3A313
:10282300A31247C0851682851783A3A3A3A3A3A3DB
:10283300F0EE12588AEF122BF31208A5EE1258C0CD
:10284300EF123B34851682851783A3A3A3A3A3A307
:10285300A3A3A31240D21208F17510000229138515
:102863000A82850B8312509712132C8508828509DF
:1028730083A3EAF0A3EB1240EBA3A3123E9E124202
:102883005FE0A2E6500F850882850983A3A3A3A373
:10289300A3E0D2E1F0E5137063850882850983A381
:1028A300124C0390035BE0687003A3E069704D85ED
:1028B3000882850983A3A3A31247AC780C1208A14D
:1028C3007427120B2DE0F50A780A1208AD7426124C
:1028D3000B2D120734900368120734790074101219
:1028E3000B2D123E52121C4A74091208F1850882FC
:1028F300850983A3A3A3A3A3E04405F074012510D2
:10290300FC8E828F83A3A3A3A3A3A31229D90510AB
:10291300E50A450B6052851008C3E5089514E49554
:10292300155045E51075F006A4F8A9F0E51628F84A
:10293300E51739F9E8240CF508E91234D2E412401A
:10294300E164016003022862751301850882850929
:102953008374011240E6F8A3E0F9850882850983B0
:10296300A3E8F0A3E9022879AA16AB17120D207881
:10297300161208A97425120B2DE0FC7402120B2DFC
:10298300E0F9EEFAEFFB121D4674021208F18041E2
:102993008E828F83A3A3A3E0C0E07404120B2DD017
:1029A300E0122F6AC0E07405120B2DD0E0F0E5149D
:1029B300451570097406120B2D74B980077406123D
:1029C3000B2D7410F07401120B2DAA82AB83121C11
:1029D30050740902590A1240DB8E828F83A3A3A38A
:1029E300E0F91213028A0A8B0B2274EA12044C7464
:1029F300F31209558A0A8B0B89158C147423120B55
:102A03002D126089AA0CFB120D0EE9F513AA0CAB6B
:102A13000D120D14E5137003022BE0750E00800FE9
:102A23008E828F83A3A3A3A3A3E0D2E3F0050EE5D5
:102A33000C240BF582E50D122D6EE50EC3984003B1
:102A4300022BD7E5137003022BD7E50E75F006A40E
:102A5300F8A9F0E50C28F8E50D39F9E8240CFEE9AE
:102A6300125E6CA3A3A3A3E0A2E040C1750F00759F
:102A73000808750900E5146003750F20123E86E00F
:102A830060339003ABE064017017E50FD2E3F50FF9
:102A93007509108E828F83123AB812396B74FF80D6
:102AA30024430F0C75080C8E828F83A3122BFF1205
:102AB30058ACA38010E5156009E50FD2E6F50F7554
:102AC300080A122C0DF07402120B2DE50F124C386C
:102AD300C0E07404120B2DD0E0F07405120B2D121C
:102AE300395C120B2DE06003022BBA7408120B2D14
:102AF3001234E38E828F83A3A3A3A3F07408120B73
:102B03002D123290F583E508F0A3E509123D90E01C
:102B130060119003ABE0C0E07408120B2D123289F0
:102B2300D0E0F0850C82850D83A3A3A3E0C0E074FD
:102B330008120B2D1256CFD0E0125707C0E07408CD
:102B4300120B2D12329BD0E0F07408120B2D122BB6
:102B5300FFA3A31256D6124C22A3A3E01256BAEA3D
:102B6300F0A3EB124C2EC0E0E8242EF582E91227E5
:102B730033D0E0F07408120B2D125099850A828528
:102B83000B83122BEA2424F582EB123B2312588881
:102B9300E50B122BF31208A5123B31EA242BF58225
:102BA300EB1227331240D21208F18518828519835C
:102BB300AA82AB83121C688E828F83A3A3A3A3A3D1
:102BC300E0D2E0F0740C120B2DE06003022A23150F
:102BD30013022A307900AA0CAB0D121D3A740D12A0
:102BE30008F17F0E020665A3A3A3A3124C07EA22F2
:102BF300124116124BE2751200781022124C07850F
:102C03000A82850B83A3A3A3A322A3122C1222124D
:102C13003E2BE8F0A3E92274F212044C74EB120980
:102C230055EAFEEBFF89088E828F83A3A3A3A3A398
:102C3300A3A3A3E0F9120D388A0A8B0BEA450B60B4
:102C43007FE50870047C0480027C088E828F83A356
:102C5300A3A3A3A3A3A3A3E0F9120D3E12272D124E
:102C63003F05605C888289831250957406120B2D90
:102C7300122CC81250997408120B2D122CC8A3A33E
:102C8300E0C0E07410120B2DD0E0124C48125099A2
:102C9300740E120B2D123EDB7411120B2DE412492C
:102CA30083F9780A1208A9742059FC744059F974FD
:102CB30002120B2DAA82AB83121D4674021208F175
:102CC3007415023379EAF0A3EB123934A3A3A322D8
:102CD30074F712044C74FA120955E9FE7F018F0848
:102CE3007D0080047508000D123943122D6EEDC36B
:102CF300985025ED75F006A4F8A9F0EA28F8EB3909
:102D0300F9E8125883E91245EF50D9540C60D5E025
:102D1300A2E250D37F0080CF8A828B83A3A3A3A395
:102D2300A3A3E0703EE508A2E0400574016E703392
:102D33008A828B83A3A3A3A3A3A3740112557EE06A
:102D4300C0E07403120B2DD0E0125576E0C0E0749E
:102D530004120B2DD0E0F07405120B2DEF123AE89C
:102D6300121C50740602393BF582EF124993F82284
:102D7300C082C0837901121D3A023443C082C083EA
:102D8300EA4B60189003A7E064027010900AC9E44C
:102D9300F0EAFCEBFD7A021234508012900AC974F7
:102DA30001F07A027B00900301E0F91214700234FF
:102DB30043C082C083900B2CE075F005A4FCADF0FA
:102DC30079007A1F7B0A1213507B008012EB75F097
:102DD30005A4F8A9F0122F5F74FEF0A304F00B9082
:102DE3000B2CE0F8EBC39840E4023443C082C08369
:102DF3007C007B0080037C010B900B2CE0F8EBC381
:102E030098504FEB75F005A4F8AAF0EAF9122F5881
:102E13007003A3E0F460E1122F4FE82403080808CD
:102E2300E912350B24FFF0A3E034FF124983F8A322
:102E3300E0F9E84970C0EB75F005A4F8EAF9122F40
:102E43004F8882898374FEF0A30412558FA3E4F0A4
:102E530080A6ECA2E0500312344A02344374F61203
:102E6300044CEAFEEBFF900B2CE07003022F4AEEBA
:102E730024111260D47003022F4A8E828F83A3A37E
:102E8300A3A3A3A3A3A3A3123E5A6402600F8E823B
:102E93008F83A3A3A3A3A3E07003022F4A7C008024
:102EA300010C900B2CE0F8ECC3985045EE240B1268
:102EB3002730124C03EC75F005A4FAABF0741F2A0B
:102EC300F582740A3BF583E0687003A3E06970D16F
:102ED300EE24121260D4FBEC75F005A4F8A9F0748B
:102EE3002128F582740A39F583E06B70B479008088
:102EF300587C0080010C900B2CE0F8ECC39850ED4B
:102F0300EC75F005A4F8A9F0122F587003A3E0F4B0
:102F130070E3122F4FEE240B122730123D63EAF0B9
:102F2300A3EB122F6A88828983A312392F740C12A0
:102F330047C07A08FB900301E0F91214768B09EA83
:102F43004509700312344A7901023487741F28F843
:102F5300740A39F922122F5FE064FE22741F28F5E8
:102F630082740A39F583221234BEE02274F2120409
:102F73004C74F3120955EAFEEBFF8E828F83A3A3F1
:102F8300A3A3A3A3A3A3A3A3E0F50A900AC9E07094
:102F93000579BA023284750801750900750C00754C
:102FA3000D007C087D007900851882851983AA822B
:102FB300AB831213507405120B2D74011232AC54EF
:102FC3000460127402120B2DE0D2E61232AC5408E4
:102FD3007003750803E05410600674404508F50853
:102FE300E0540860227402120B2DE044C01232AC8C
:102FF3005420600A7403120B2DE0D2E0800874039E
:10300300120B2DE0D2E1F08E828F83A3A3A3A3A39F
:10301300A3A3A3E07018120EBE851882851983122C
:103023003EDB7402120B2DE0D2E2F00230D6640FC5
:1030330070157402120B2DE0D2E3124260123EC3EC
:103043004508F5080230D68E828F83A3A3A3A3A3DA
:10305300A3A3A3E064028E828F837005122C0E80DB
:10306300C9A3A3A3A3A3A3A3A3E064037013851815
:1030730082851983AC82AD83EEFAEFFB121CEC80E0
:10308300528E828F83A3A3A3A3A3A3A3A3E064016C
:1030930070419003ABE0601C7402120B2DE0D2E38D
:1030A30012424E851882851983123B2675091075C5
:1030B3000AFF80187402120B2DE0440C1256F474AC
:1030C300FDF0A374FFF074044508F5088E828F8326
:1030D3001260891245E9503A7402120B2DE0540C28
:1030E300701B8E828F831250991216F8E97005793E
:1030F300BB0232847402120B2DE0D2E5F01245E9D3
:1031030050107402120B2DE0540C64047004E0D2CE
:10311300E5F0EE24111260D4C0E07404120B2DD03C
:10312300E012395E120B2DE0600302327D74081247
:103133000B2D1232901232A2EE24181260D4C0E08A
:10314300E8125874E9122733D0E0F0EE2419126024
:10315300D4C0E07408120B2DE024131234DBD0E04A
:10316300123984640170119003ABE0C0E07408125B
:103173000B2D123289D0E0F07408120B2D1237890F
:103183002417FAEF1237B8FCE8241CF582E912275A
:1031930033EC1247C08E828F83A3A3A3A3A3A3A35D
:1031A300A3A3E0C0E0E82422F582E9122733D0E0AC
:1031B300F07408120B2D12329BE50AF07408120BFF
:1031C3002D12378E2424F582E9124ED2A3E50D1277
:1031D3004F2BFCA3E0FDE82426F582E9122733EC0C
:1031E300F0A3ED12349A123EB0E82428F582E912D6
:1031F300273312512EC0E0E8242FF582E91227333A
:10320300D0E0F0EE241B1260D4C0E07408120B2D42
:103213001256C8D0E0F0EE241A1260D4C0E074084D
:10322300120B2DE0242E1234DBD0E01256EC1225C3
:10323300A31208A5EE2411122730123EB0740B120C
:103243000B2D1240CC1208F1EE24151260D4544019
:10325300601B900324123F05601385188285198330
:10326300AA82AB83900325123523121D8D85188204
:10327300851983AA82AB83121C68740C120B2DE090
:10328300F9740D023379E024151234DF22123792D8
:10329300240FF582E9340022E024231234DF22F5DF
:1032A30083E508F0A3E509F022F0EE241512499016
:1032B3002274F712044C7E638A828B83E0600C795C
:1032C30005120BDCE9F87456C398FE900353E060D3
:1032D3000CF9120BDCE9F8EEC39824F2FEEEF902C6
:1032E300393E74F612044C74FE1209558518828512
:1032F3001983123EDBE9FEECFAEDFB740C120B2D85
:10330300E0FC900471123F056032851882851983B1
:1033130085820885830978081208A97D01EEF99052
:103323000471123520121D8D74021208F18B09EA03
:10333300450960047900800679B2800279B60234C7
:103343008274F712044CE9FE7409120B2DE0FF900E
:10335300030C123F05601AEFF50878081208ADEE6A
:10336300F990030C123520121D8D74011208F1809F
:103373000279B602393E1208F17F0602066574F53A
:1033830012044CEAFEEBFF8C088D09750A01125BEF
:1033930047123464700B90035B123555123B268041
:1033A3000EAC08AD09EEFAEFFB120C42E9F50AA9DF
:1033B3000A0252B074F612044CEAFEEBFF7A0C7B5D
:1033C300001213E0EA4B606BEE24201260D48A8271
:1033D3008B83F0EE2421123439F0EE242212343997
:1033E300A3F0EE2423123439A3A312410B124C0B86
:1033F300E8F0A3E9124988124C0CA3A3E8F0A3E96F
:103403001247B28A828B83A3A3A3A3A3A3A3A3F08C
:10341300EE242F1260D4C0E0123943122733D0E0D8
:10342300123EE18A828B83A3A3A3A3A3A3A3A3A393
:10343300123B260234871249908A828B83A322F09F
:10344300D083D0820208897CF47D017A087B0090C6
:103453000301E0F912146422FAEF3400FB121A6438
:10346300221239702212346EA3E022123472221215
:103473003476221241DCA3A322123E75A3E0227408
:10348300021208F17F020206657C017D007A007B4F
:1034930000120FD8740422F01234A212411622EE45
:1034A300240FF582EF22F582EF124116E4229004F5
:1034B300EAE0F9121398221234BE22F0EE2412F538
:1034C30082EF3400F583221208F17F0802066512A9
:1034D30058A7850882F583221234DF2212353C2255
:1034E300123535E0221241DCE022C082C083123F54
:1034F300371234AC023442123E6E22A3E0F9120BAF
:10350300DCE9227901020889123AB322F8EF340088
:10351300F98808890922EEFAEFFB90031CE0F8A36F
:1035230012352F22E0F812352EA322A3E0F583886B
:103533008222E0240E12353C2212354022F8A3E009
:10354300123547223400F98882898322123BDF64D3
:103553000522124C0785088285098322FB123564F4
:1035630022121A6485088285098322C082C08312CD
:103573003F3712357B023442124116740122023561
:1035830006C082C08390031A74E0F0A3741CF09009
:10359300031C74B6F0A3741CF090031E74B0F0A364
:1035A300741CF090032074BCF0A3741C02344274A6
:1035B300F412044CEAFEEBFF123617F508120EBEA6
:1035C3008A0A8B0BA80AA90B8E828F8312360AE014
:1035D300687003A3E069602CE508A2E550268E829B
:1035E3008F83A3E0FB90031A123520121D8D8E8268
:1035F3008F83E0F8A31243BEA3123F057006123671
:1036030017C2E5F00225B212360E22E0FAA3E0F566
:10361300838A82228E828F83123527A3E02274F558
:1036230012044C12377712378E2420F582E9126088
:10363300D7FE74035EF50A123D4D12273312378904
:1036430088828983F0A3A882A983E50A60097402AA
:10365300650A60030236E8740C5EFF601574086F38
:10366300601074046F701D7402650A7005EEA2E4A5
:10367300402D8A828B83A3A3A3A3A3A3A3A3E024A4
:10368300231237D9740C6F70101237722424123737
:10369300C124241237841237DC7402650A7005EEE4
:1036A300A2E4404112377224261237C1242612376E
:1036B30097A31237EB1237971237EB12378412376F
:1036C300DCEF600F74086F600A740C6F600574049C
:1036D3006F70128A828B83A3A3A3A3A3A3A3A3E0E4
:1036E30024221237D98A828B83A3A3A3A3A3A3A3E0
:1036F300A31237A77005EEA2E150178A828B83A32A
:10370300A3A3A3A3A3A3A3E0242E123D541237D251
:10371300800E9003021237D2900302E004123A960D
:10372300A3A882A983EEA2E7504212377224211282
:1037330037971237DC8C828D831237A7602E8A82EB
:103743008B83A3A3A3A3A3A3A3A3E024301237D9FA
:10375300EEA2E150178A828B83A3A3A3A3A3A3A3FF
:10376300A3E024311237B188828983F00252B01268
:103773003777E022EA2408FCEB3400FD8C828D834A
:1037830022123D58A322124C07EE22123792221224
:103793004259E82212379B22F508A3E0340085083A
:1037A30082F58322E02421123D58E0540322FAA338
:1037B300E01237B8223400FB8A828B83E02212376F
:1037C3009B1237D2A3A882A9838C828D83E022E047
:1037D30088828983F022123D581237E022E08882E2
:1037E3008983F0A308A983221237E08C828D83E0BA
:1037F300242822C082C0838A828B8312361BF874EA
:103803000358F98A828B83A3A37401F0E9600574DA
:1038130002697061740C58FC601474086C600F7456
:10382300046C70137402697005E8A2E4401D8A8277
:103833008B83A3A37402F0740C6C700A8A828B834B
:10384300A3A3E02402F07402697005E8A2E4402512
:103853008A828B83A3A3E02404F0EC600F74086CCA
:10386300600A740C6C600574046C70098A828B8323
:10387300A3A3E004F0E8A2E750318A828B83A3A3D9
:10388300E004125132F9A3E0F5838982A3A3A3E0F4
:10389300540360178A828B83A3A3E004F0E8A2E1B8
:1038A30050098A828B83A3A3E004F08A828B83A3CB
:1038B300A3E004023442C082C0838A828B83A3A321
:1038C300A3A3A3A3A3A3A3A3123F0560098A828B87
:1038D30083A3A31238DC023443A3A3A3A3A3A3A308
:1038E300A31240DB1213E62274F712044CEAFEEB38
:1038F300FF124BFF88828983A3A3A3A3A3A3A3A33C
:10390300E4F012392FA3A3A3A3A3A3A3F0A3F0E886
:10391300124EBCE9123929121C98EEFAEFFB121C65
:10392300A48018F582ED124116E4F022A312393473
:1039330022123A96A3A3A3221208F17F010206657D
:10394300EA240BF582EB221258382409221241167D
:1039530012608D750E00780C227401123AEC123944
:103963006522121C6E740C22123E48A322121A5EA8
:10397300E9640122A3A3A3A3E8F0A3E9F0120EB81C
:1039830022123D8AE02274F612044C74F412095593
:10399300123A9CFCA3E0F5838C82A3E0FC74021230
:1039A3000B2DEC1249832402123E3C7404120B2D9E
:1039B300123B26EC600A7402120B2DE06404701CA7
:1039C300123A7A1245F57406120B2D123A80123E02
:1039D3003C7408120B2DE8F0A3E98056E064016003
:1039E3000AE064066005E064057023123A7A123730
:1039F300B1C0E07403120B2DD0E0124983241312DB
:103A030045F57406120B2D12497F241B80C07406E2
:103A1300120B2DE4F0A3123AA924121245F57408EF
:103A2300120B2D123A80125834C0E0740A120B2D77
:103A3300D0E0F07406120B2D123F056028740612B5
:103A43000B2D125099120C36E964017018120EB83E
:103A53008A088B09AC08AD097406120B2D12509914
:103A6300123464700D851882851983AA82AB831280
:103A73001C44740C023484123AAE241222123A8D7E
:103A8300241A22123A8DF8A3E022EAF0A3EB123AA9
:103A930096E022F088828983228A828B83A3A3A360
:103AA300A3A3A3122C12F0123AAE22EA2402F8EBDB
:103AB300123547E022A3124C078518828519832209
:103AC3001208F1023443C082C08374FD12095512F7
:103AD3003AF8C0E07402120B2DD0E0123AE8121348
:103AE300BC740380DB123AEC22F0851882851983BB
:103AF300AA82AB83228A828B83A3A3A3A3A3A31249
:103B03003E228A828B83A3A3123527E022AA82ABAB
:103B130083121344740322124C07EE240BF582EF35
:103B2300124116123E2522123E2590032C22124CDE
:103B330040124116E0FC7D00228A828B83A3A3E01E
:103B4300F8123BDF24FB22C082C083123B3C600699
:103B530024FC60078008121C868003121C80023438
:103B630043C082C0838A828B83A3A3A3A3A3A3A3FB
:103B7300A3E070528A828B83A3A3E0F8123BDB6439
:103B8300016043123BD56402603C123BD564036081
:103B930035123BD56404602E8A828B83A3A312352E
:103BA3004F6023123BD5640A601C123BD5640B6043
:103BB30015123BD5640C600E123BD5640D6007797A
:103BC30004121A4C8009900322123520121D8D0213
:103BD30034438A828B83A3A3123BDF2212352EE068
:103BE3002274F612044C74FA120955EAFEEBFF74C0
:103BF30003120B2DEEF0A3EFF07403120B2DAA8228
:103C0300AB83121C8C1260D16003023D488518827D
:103C13008519837432F07405120B2DC082C0838E14
:103C2300828F83A3A3A3A3E0D083D082F8E028C02C
:103C3300E07401120B2DD0E0123DA4C0E074021217
:103C43000B2DD0E0123D83F8A3E0F9E8496026E8A4
:103C53002417F582E9122733C082C083E82416F5BE
:103C630082E91260D7D083D082F8E028F874011279
:103C73000B2DE028F0851882851983AA82AB831265
:103C83000C908A088B09A808A909E8497003023D2A
:103C93003B8E828F83123D63A3A3EAF0A3EB123D15
:103CA30090A3A3E0C0E0E82420F582E9122733D0F3
:103CB300E0125707C0E0E82421F582E9122733D048
:103CC300E0123D9FC0E0E8242AF582E9122733D0B1
:103CD300E0F07405120B2DE0FA123D4D1260D72A65
:103CE3001245F5E8242BF582E9122733123EDB74E3
:103CF30005120B2DE0C0E0E8242DF582E9122733ED
:103D0300D0E0123D83FAA3E0FBEA4B6019E8242BD1
:103D1300FAE9122598A3A3A3A3A3A3A3A3E02416BC
:103D2300123D54123D6B8E828F83A3A3A3A3A3A33F
:103D3300A3A3E8F0A3E9800CEEFAEFFB121C9212A6
:103D4300272D7410F07406023484E8240BF582E9FD
:103D530022123D5822FCA3E03400FD8C828D832285
:103D63001240DB8882898322E0FC8A828B83E02CE9
:103D7300FCA3E03400FD8A828B83ECF0A3EDF022F8
:103D8300123D8AA3A3E0221242F8A3A322F0E81271
:103D93005874E9124116740112426022123DAAE0DE
:103DA30022123DAAA3E02212529EA32274F7120408
:103DB3004CEAFEEBFF1260D1701E123DE5123F0587
:103DC3006006123519121D8D1260D1700B12508DC1
:103DD300120C8A12272DE9F0EEFAEFFB121C920265
:103DE300393E121C9E8E828F83A3A3A3A3A3A3A3F6
:103DF300A3A3A32274F612044CEAFEEBFF8C088DF6
:103E0300091216F8E9700479018011AC08AD09EEC6
:103E1300FAEFFB900320123520121D8D0234871216
:103E23003E2BE8F0A3E9F022E0F8A3E0F98518823D
:103E3300851983221256F8E022F8A3E03400F92210
:103E4300123E48E022E8F0A3E9124264A3A322123F
:103E53003EB4EEFAEFFB221240DB120F36E92212D8
:103E63003540E02212346E123E6E22E08E828F8342
:103E7300A322124127A3A3A3A322E508240BF582BF
:103E8300E509227C087D007900851882851983AABB
:103E930082AB831213508E828F8322E08508828542
:103EA3000983A3A322A3A3A3A3A3A3A3A3123EB4FF
:103EB30022E0FCA3E0FD227401124260A3A3E022EE
:103EC300123E22740422121350850882850983A3AB
:103ED300221214828E828F83EAF0A3EBF022123E29
:103EE300E522124264A3A312425922C082C0831264
:103EF3003EFE747AF0A3741C023442121CAA90038F
:103F03002222123792492274F712044CE9FE123F1F
:103F130037122733123F05601888828983A3E05440
:103F230003700EEEFB123D4D122733123F68123F12
:103F33006202393EEA124EBCEB22C082C083EAF829
:103F4300EBF988828983A3A3A3A3A3E0FB888289D7
:103F530083A3A3A3A3123F68A3123F62023443E0E7
:103F6300F912127822E0FA88828983A3A32274E8E3
:103F730012044C8A088B098C168D178914741A1233
:103F83000B2DE0F50AA3E0F50B741C120B2DE0F5E5
:103F930013741D120B2D780C120AD01258BFEB129A
:103FA30060D7242DFA7B001213628A108B11AE1096
:103FB300AF11EE4F70030240B38E828F837401F012
:103FC30085081085091175120078101208A57C1553
:103FD3007D00EE24181240B61208F18516108517DD
:103FE3001178101208A57C097D00EE24021240B658
:103FF3001208F17418120B2D123B1A850A82850BD5
:1040030083E0C0E0EE240F122730D0E01240E6C078
:10401300E0EE2411122730D0E01240E1C0E0EE249C
:1040230010122730D0E01234BAE51312410BE4F03A
:10403300A3F01240C5780C120AEEEE2417122730B3
:10404300E51412347CF8A3E0F9EE240D12273012A4
:1040530041051258B91260D76025EE24261245E1B6
:10406300242DF81240FD12588F1239501208A51250
:1040730058B7123B348A828B831240D21208F1EE76
:1040830024191260D45403601D900318123F056075
:104093000CEEFAEFFB123523121D8D8013EEFAEFAF
:1040A300FB121368800AEEFAEFFB900301124248F9
:1040B30002590DFAEF1240BC223400FB1213447470
:1040C3000322EE241312411322E0242B1234DF12B5
:1040D30040DB121344740322E0FAA3E0FB221240F4
:1040E300F4E0221240EBE0221240EF221240F4A34C
:1040F30022F0850A82850B83A322EF3400F98A829A
:104103008B83123E25E50822F0EE2426124113226A
:10411300F582EF3400F58322F50CA3E0F50D750E5F
:1041230000780C22123476A3A3A32274F112044C58
:104133008A088B097A201241F6606D8E828F837410
:10414300061242068E828F83A3A3A3A31234688E22
:10415300828F831241AE12411B1208A57C107D0091
:10416300EE24061240B61208F185088285098312EF
:104173003EA8EE2416FAEF3400FB120C30850882B9
:10418300850983A3A3A3A3A3A3A3A3A3A3E0C0E03D
:10419300EE241E122730D0E01241BEC0E0EE241FF1
:1041A300122730D0E01241C6025B6AA3A3A3A3A3E4
:1041B3001241B722123472A3A3E022F0123E7D1201
:1041C300499322F0EEFAEFFB9004EAE0F912136E42
:1041D30022E8F0A3E91241DC22F0850882850983F5
:1041E300221241E8221234E8F8A3E0F98E828F8389
:1041F300A3A3227B001213628A0A8B0BAE0AAF0BB6
:10420300EE4F221241E81241D4A3A3E02274F61226
:10421300044CEAFEEBFF7A057B00121362EA4B6063
:104223001E8A828B83740A12424E8A828B83A3A3D3
:10423300123E438A828B83A3A3A3A3F012424502B7
:1042430034879004EAE0F912136E221242522212CA
:10425300426412425922E0F8A3E0F922A312426415
:1042630022F08E828F8322C082C083E9900ACBF032
:1042730090031474D4F0A3741CF090031674C2F06A
:10428300A3741CF09003187446F0A3740B02344219
:1042930074F712044CEAFEEBFF8908EE4F70031229
:1042A3001764900326123F0570089003268022129C
:1042B3004C0388828983A3A3A3A3A3A3A3A3A312C9
:1042C30042EA88828983A3A3A3A3A3A3A3A3A3707E
:1042D300DEEEF0A3EF1242F0A3A3A3E4F0A3124295
:1042E300F0E508F002393E1240DBEA4B221242F4B9
:1042F300221242F8221252A2A3A3A32274F7120499
:104303004C900326800D8E828F83A3A3A3A3A3A324
:10431300A3A3A312586CEE4F60348E828F83A3A3A2
:10432300A3A3A3A3A3E06970DD8E828F83A3A3A3BA
:10433300A3E06A7003A3E06B70CC8E828F83A3A388
:10434300A3A3A3A3E06C70BEEEFAEFFB80047A0094
:104353007B0002393E74F712044C90032612586C0A
:10436300900326122BEE687002EB6970171243BE9E
:10437300124C03900326123B2690032612586C809E
:104383003012585FEE4F60298E828F83A3A3A3A3BD
:10439300A3122BEA687002EB6970E68A828B83A30F
:1043A300A3A3A3A3A3A3A3A31243CBA3A3A3123B9C
:1043B300261213E6EEFAEFFB02393E12352FA3A3C2
:1043C300A3A3A3A3A3A3A32212460AA3A32274F025
:1043D30012044C74FA1209558A088B098A828B835A
:1043E300A3A3A3A3A3A3A3A3E0600D640160098A0D
:1043F300828B83123E5A600579020245DC8508826E
:10440300850983A3A3A3A3A3A3A3A3E064037015B4
:104413007404120B2DAC82AD83AA08AB09121CECF9
:10442300E9701380D3850882850983124C037404D1
:10443300120B2D123B261258791260D724321245E3
:10444300F51213E08A0A8B0BAE0AAF0BEE4F700323
:104453000245DA7C327D0079001213507402120B8C
:104463002DAA82AB83850882850983A3A3A3A3A373
:10447300A3A3A3A3E0F91212BA7402120B2DE0C096
:10448300E0EE242D122730D0E0F0EE242CF50AEFD5
:104493003400F50B7403120B2DE0850A82850B8320
:1044A300F07901EEFAEFFB121D1085080C85090D5A
:1044B300750E00780C1208A57C1C7D00EE240B12EF
:1044C30040B61208F1EE24301245E12432080812F6
:1044D30040FD2411F8E509126070FCE9FD8C828D22
:1044E30083123789242E1227301241051249611293
:1044F30058C51208A58C828D83123EB08A828B83A5
:104503001240D21208F17404120B2D124606123B0C
:10451300269003021245FCF0900302E0041249972F
:10452300242A124EC1750D00850A82850B83E0781B
:104533000C120A6C8A828B83E50CF0EE2429122775
:1045430030E50C1256F4E4F0E5082415F582E5098C
:104553001245EF74015007120B2D74018004120BE6
:104563002DE4F0EE242712350F851882851983AACE
:1045730082AB831212A2E924FE850882850983F0A7
:10458300F508750900EE242E122730123EB0ECF820
:10459300EDF9AA08AB091202ECE88E828F83A3A37C
:1045A300A3A3A3A3A3A3F0ECF8EDF9AA08AB091204
:1045B30002EC8B09EA4509600F8E828F83A3A3A3C4
:1045C300A3A3A3A3A3E004F0EE24201260D4440821
:1045D300124F3379008002791074060234CA1260D4
:1045E3006EFAE9FBEE22EE2415F582EF124993A24F
:1045F300E022FAA3E03400FB22123E6EA3A3A3A39E
:10460300A3A32212460A221242598E828F83A3A3A6
:10461300A3A32274F412044CEAFEEBFF123ED490DF
:104623000B14E0F8EE242B1260D4C3984003024726
:1046330089124ED97015EE242B1260D4041247B29E
:10464300C0E0EE2429122730D0E0F0EE24281260D7
:10465300D4FC7900800109EE242C122D6BE9C39858
:104663005026750801750900E97808120A6C124E84
:10467300D9550860E1E92CFC750801750900E97852
:1046830008120A6CE04508F0EE24271247A0EE2436
:104693002E122730EC8A088AF0A4F8ABF0E42BF949
:1046A300E098F8A3E099F9C3E89508E99400EE408F
:1046B300392427122D6B124ED96037EE242D122781
:1046C300301247ACA3E4F0EC7054EE24201260D413
:1046D3004420123984C0E0EE2426122730D0E0F0C3
:1046E300EE24301247A0A3E0805924291227307406
:1046F300FFF090034BE0FA900B17E0F508EA85080A
:10470300F0A4ABF075F064A4FAADF075F064EBA41B
:104713002DFB8E828F83A3A3EAF0A3EB80A8EE2464
:10472300201260D454DF12410BECF08C08EE2427E6
:104733001260D48508F0A4FAABF0EE2430F582EFD2
:10474300124797FBEE241E122730EAF0A3EB124721
:10475300BAC0E0EE2425122730D0E0F0EE241C127C
:104763002730E81247C0900328123F05600BECF98D
:10477300123523121D8DE97018EE240BFAEF340065
:10478300FB121D0A800B7BE9EE2422F582EF12490E
:104793006B0225B21249932AFAA3E03B22F582EF7A
:1047A3001247A722124F25FA22123E6EA3F022F0DF
:1047B300EE242A124990221242F4A3E022F0A3E449
:1047C300F02274F412044C90032612586C121482D3
:1047D3008A0A8B0B7CFF7DFF8020E0C398FAA3E05D
:1047E30099FBC3EA9CEB9D500E8E828F83A3A3E0BB
:1047F300C398FCA3E099FD12585FEE4F6059124B2A
:10480300FFE50AC398F8E50B99F98E828F8312505E
:1048130097C3E89AE99B8E828F83A3A340BCA3A38B
:10482300A3A3E06402701DEE240B124EDC600CEEB9
:104833002410122730125099121368EEFAEFFB126C
:104843001CDA8007EEFAEFFB121CCE7A017B009094
:104853000ACB1234B4801474FF6C700374FF6D6060
:104863000A7A017B00900ACB1234550225B274F008
:1048730012044C8A088B09ECFAEDFB890A7C0112BD
:104883005879124ECB8A0C8B0DAE0CAF0DEE4F70D8
:104893000302495EE50A600302495EE508124961C5
:1048A300E0F8EE24281260D468600302495EEE2427
:1048B3002C1247A0E82AF8E43400F98E828F83A3F0
:1048C300A3A3A3A3A3A3A3E0FAE89AE99400C3656F
:1048D300D0334014124BEA124EDF700C7B00125897
:1048E30072E50912496B8073124BEA124EDF703185
:1048F300EE242C1260D4F9EE24291227307508FF18
:10490300750900E97808120A6CE508F0EE242A120A
:104913002730E50812498829F0EE242B1234A980A8
:1049230022E5082414F8E5093400F9E0C0E0EE2498
:104933002A122730D0E0124983C0E0EE242912273F
:1049430030D0E0124997242D1227301234FAA312E3
:1049530047C07A01FB900ACB1234B40234CD24133E
:10496300F582E509124116221247A7EE24141241DB
:1049730013123F62EEFAEFFB121CDA22EAF0A3EB0A
:10498300123A96E022F0EE242812499022F582EFA3
:10499300124F2522F0125912F0A3EBF0EE2274E825
:1049A30012044C74FD120955E9851882851983F0A8
:1049B3008A0A8B0B8C168D17741B120B2D124BE26C
:1049C300741D120B2D780C120AD08A828B83A3A339
:1049D300E0F91212968A128B13EA451370077A00D4
:1049E3007B00024BDD7A127B001213E08A088B09ED
:1049F300AE08AF09EE4F7003024BD97C127D0079EC
:104A0300001213507401120B2DAA82AB83850A8204
:104A1300850B83A3A3E0F91212BAEE240FF508EF76
:104A23001258A77402120B2DE0850882850983F0C2
:104A33007902EEFAEFFB121D108516828517831299
:104A43004606E8F0A3E9124C2E8E828F83A3A3A31C
:104A5300A3A3A3A3F07514FF751500850882850928
:104A630083E07814120A6C12272DE514F085128264
:104A7300851383A3E0F8123BDBC0E0EE240B12277F
:104A830030D0E0124C38F508EE240D122730E5083B
:104A9300F0124EE4E08508F0A42424FAE5F0340093
:104AA300FB1213628A088B09EE2410122730123E80
:104AB300DBEA45097003024BCE8A828B83741A1298
:104AC30047C08A828B83A3A3F0A3124C22124C0B00
:104AD300123B26AC16AD17EA2406FAEB3400FB12A0
:104AE30012B4850A82850B83A3A3A3E0C0E0E50883
:104AF300240FF582E509122733D0E0F09003681202
:104B03004C03E5082410124BF3124C48A3124C0338
:104B1300E5082412124BF31240E6C0E0124BEA12EE
:104B23002733D0E0F0E50A124EBCE50B1260D7C084
:104B3300E0E5082415F582E509122733D0E0124C8D
:104B430019C0E0E5082416F582E509122733D0E001
:104B53001260DBE0C0E0E5082417F582E5091227BF
:104B630033D0E01260DBA3E0C0E0E5082418F5824F
:104B7300E509122733D0E0123E37C0E0E5082419D7
:104B8300F582E509122733D0E0F0E508241AF5820F
:104B9300E509122733780C120AEEE5082424F8E518
:104BA300093400F9E5082422F582E509123B23E5DF
:104BB3000A125874E50B1260D7C0E0E508241FF50C
:104BC30082E509122733D0E0F0800BEEFAEFFB12F7
:104BD3001CDA7E007F00EEFAEFFB740302590AE051
:104BE300F510A3E0F51122E5082414F582E5092266
:104BF300F582E509124116E8F0A3E9228E828F833C
:104C0300124C072212425922E0F8A3E0F98A828B60
:104C130083A3A3A3A322F0851082851183E022122C
:104C23004C26221240EFA3A3A3A322F0125881E53E
:104C33000B12499322F0124C4012499322E50A12B7
:104C430058C0E50B22124C26A3A3A32274E8120436
:104C53004C8A0A8B0B8C108D1189147418120B2D2E
:104C6300E0F516A3E0F517741A120B2D780C120A4F
:104C7300D0750900EA2413F582EB1260D7F508908A
:104C83000328123F056011A908900328123520124A
:104C93001D8DE96003024EB97C0285108285118364
:104CA300125099125881E50B124ECB8A128B13AE18
:104CB30012AF13EE4F704B850A82850B83A3E0A2DC
:104CC300E04003024EB9780C1208A178161208A925
:104CD300A914AC10AD11AA0AAB0B1214107406126E
:104CE30008F18A0C8B0DAE0CAF0DEE4F7003024E24
:104CF300B98E828F83A3A3A3A3A3A3A3A3E50812BF
:104D03004F3385080C8E828F83A3A3A3A3A3A3A3EE
:104D1300A3E024FFF8E434FFF9E8650C7001E970BF
:104D230003750901EE240B124EDC7003024E6C85F1
:104D33000A82850B83A3E0A2E05003750800124F9B
:104D430005E50C98E499C365D033401EE0F8EE24E2
:104D53000E1260D428F0750CFF750D00E8780C1264
:104D63000A6CEE124EBCEF124ED2125888E50B12AB
:104D730039501208A5123B3185080CEE240D126040
:104D8300D4850CF0A4F8A9F0EE24101260D42422E8
:104D93001237B128FAA3E039FB123B141208F1755C
:104DA3000C01124EF0780C120A6C1260D1450CF013
:104DB300E509A2E05065EE240C124EC1124EF00438
:104DC300780C120A6C8A828B83E0450C124F2B8578
:104DD300080C850CF0A4F8124C401260D7FCE82CA8
:104DE300FCE5F03400FDEE2410122730124EFE12C3
:104DF300512EF47026EE240BF50CEF3400F50DEE76
:104E03002410122730125099850C82850D8312428B
:104E130048850C82850D8374FF804D123ED4900328
:104E23004BE0FA900B17E0F50CEA850CF0A4FAAB13
:104E3300F0F8EBF9900B14E0F50CE8850CF0A4F80E
:104E4300ACF0850CF0E9A42CF9EA28F8EB39F9E881
:104E530075F064A4F8AAF075F064E9A42AF98E82C7
:104E63008F83A3A3E8F0A3E9F0124F05125856E885
:104E7300650C7001E9600EEE240C124EDC6006E551
:104E830009A2E05031EE240E1260D4C0E0124EE4C9
:104E9300D0E0F01260D1C0E0E50A2414F582E50BFE
:104EA300122733D0E0F0AC0AAD0B85108285118355
:104EB300125099120B8802590D240CF582221260AC
:104EC3006EFAE9FB750CFF22124FD6121CF2221266
:104ED3004116E50CF022EE2429F582EF124993F4F2
:104EE30022E50A2413F582E50B12411622750D0003
:104EF300124F1BF5F0E50884E5F022E0242012347C
:104F0300DF2285080CEE240E124990F8124F1BFA8B
:104F1300E82AF8E43400F922EE240FF582EF124F69
:104F230025223400F583E022F0EE240D124990226D
:104F3300F07A017B00900ACBE0F912139822C08229
:104F4300C083900ACB12424802344374F412044CD7
:104F53008A088B09EB5480703BEAA2E05047121C8D
:104F6300C8E5086401FAAB09803F8E828F83E06451
:104F730001701A1240C51207301224D91208A9EE83
:104F83002412124FBF120B4074061208F1EEFAEF0F
:104F9300FB121368900ACB124FAF70CEAA08E50933
:104FA3006480FB80047A007B000225B2E0F91213CF
:104FB300748A0A8B0BAE0AAF0BEE4F22F582EF1207
:104FC3004FD6EE2402FCEF3400FDEE2418FAEF3442
:104FD30000FB22124F25F92274F112044C890A8A2C
:104FE300088B098A828B83125099120B588B0DEA16
:104FF300450D600479B8807F120B649023D0E4934D
:10500300F8E9C398400479B2806D7A1512507D7027
:1050130004791080628E828F83E4F0A31256E7A393
:10502300E50AF085080C85090D750E00780C120849
:10503300A57C127D00EE24030A0A0A1240B7120867
:10504300F190032A123F0590032A7006EEF0A3EFB6
:10505300801FE0FAA3E08003E8FAE9FB8A828B83EE
:10506300123F0570F3EEF8EFF98A828B83E8F0A321
:10507300E9F0120B767900025B6A7B001213E08A77
:105083000C8B0DAE0CAF0DEE4F228E828F83A3A33C
:10509300A3A3A3A3A3A31240DB22C082C0839003D4
:1050A3002A80048C828D831250DF60298C828D8349
:1050B300A3A3E069600574FF6970E88C828D83A304
:1050C300A3A3E06A7003A3E06B70D8EC2403FAEDAA
:1050D3003400FB80047A007B00023443123EB4ECBC
:1050E3004D2274F712044CE9FC74FE6C70047D01CC
:1050F30080027D0090032A80096C70027D01888202
:105103008983123F05601F88828983A3A3A3E06A72
:105113007003A3E06B70E7EDA2E088828983A3A309
:10512300E050D6F9800279FE02393EECF0A3EDF0AF
:105133008A828B83E022C082C083790090032A8015
:1051430001091250998A828B83E582458370F202AA
:10515300344374F612044CE4F508F5097808120890
:10516300A99023D0E49375F013A42402FCE5F01274
:10517300528E12143474021208F1E9FE6003120B0A
:1051830070EEF902348774F612044C74FE1209555A
:10519300851882851983E4F0A31256F48582088565
:1051A300830978081208A97508027509007808129E
:1051B30008A91259C91208F102348274F512044C79
:1051C30074EB120955851882851983E4F0A3F090D6
:1051D300032AE0FEA3E0807D8E828F83A3A3E0C039
:1051E300E07402120B2DD0E0125296A982AA838991
:1051F300088A09750A0078081208A57C127D0074D4
:1052030006120B2D123B101208F17402120B2D859E
:10521300820885830978081208A97508137509009F
:1052230078081208A97404120B2D12378E75F01327
:10523300A4F8AAF075F013E91252861259D1120894
:10524300F1851882851983E02401F0A3E03400126C
:10525300424EE8FEE9FFEE4F60030251DB85188200
:1052630085198385820885830978081208A975083A
:105273000275090078081208A91259C91208F174B5
:10528300158027A42AF9E82402FCE93400FD7A42B8
:105293007B002212529A2212529E221252A222F012
:1052A3008E828F83A3A3A322740D1208F17F0302BE
:1052B300066574F412044C74EB1209557E007F00EA
:1052C30085188285198385820885830978081208E1
:1052D300A97508028E0978081208A97C007D007A56
:1052E30042125AA91208F1E970748E08805E7402A2
:1052F300120B2D85820A85830B780A1208A9750A79
:1053030013750B00780A1208A9E50875F013A4F8C1
:10531300AAF075F013E509125286125AAB1208F17E
:10532300E9701E7403120B2DAA82AB837402120B55
:105333002DE0F9120B52E97008EE24010EEF340050
:10534300FFE5082401F508E5091258A785188285A9
:105353001983124C03C3E50898E509994090EEFAC6
:10536300EFFB74150225AF74F612044C8C828D8307
:10537300A3A3125568F0EA2417F582EB1260D7C095
:10538300E0EC1258C0ED122733D0E0F0EA241DF50B
:1053930082EB122733124C03EC125E67ED122733B4
:1053A300125568A3F0A3F0125E66EB122733125571
:1053B3005AA3A3A3A3A3A3EEF0A3EF124983FE8CE6
:1053C300828D8312558774035EFEC39403400FECF2
:1053D300240D123926EC2410123926025542EE60B0
:1053E3000574026E70748C828D83E0540CFE740C11
:1053F3006E70030254DFE0A2E4400D88828983E0EB
:105403008C828D83A31255B174086E60030254DF3E
:10541300EC124EBCED12357BF08A828B83A3A3A3DF
:105423001256B270148C828D83E0440C125576A30D
:10543300A312555AEEF0A3EFF08C828D83E0A2E421
:10544300401812554512559412554EA3A312559464
:105453008C828D83A3A3A312558788828983E0C09E
:10546300E0EC125883ED122733D0E01255878C827B
:105473008D83E0A2E7507C88828983E0FE8C828D55
:10548300831255B174FC5E60030253D28C828D8308
:10549300A3E05403640370030253D28C828D83A36D
:1054A300E05403605188828983E0C0E0EC2413F563
:1054B30082ED122733D0E01255B28C828D83E054F3
:1054C300036402703188828983E0C0E0EC2414F520
:1054D30082ED122733D0E01255B2801AEC240C125D
:1054E3003926740C6E600302541C12554512559FE5
:1054F30002543CA3E4F0EC12588AED123B23EC2453
:1055030010FEED3400FFEA241DF582EB1260D7F59F
:10551300088E828F83E0C3982508F508F0EA2417E4
:10552300F8EB12350BC39508C0E0EC125E67ED1281
:105533002733D0E0124983C3950850030253D202A4
:10554300348788828983E012554E22F508A3E0FF51
:10555300E5088C828D8322E0FEA3E0FF8C828D839D
:10556300A3A3A3A322E412556D22F08C828D83A3FF
:10557300A3A32212557EA3A3A3A322F08A828B8323
:10558300A3A3A32212558FA882A98322123A96A31A
:1055930022A3A312559F88828983E022A3A3A3A3F6
:1055A300F0A3EFF0E824020808E93400F922A3127B
:1055B300558F08A9832274F512044C74F31209550C
:1055C3008A088B09ECFEEDFF8E828F83E0540CF585
:1055D3000AE0A2E75006E50AD2E7F50AE50AD2E1B6
:1055E300F50A1256B47006E50AD2E4F50AE0A2E51C
:1055F3005006E50AD2E5F50A7C087D007900851896
:1056030082851983AA82AB831213507402120B2D65
:10561300E50A1256E7E0C0E07403120B2DD0E01246
:1056230056F41232A47405120B2D12395C120B2D91
:10563300E070797408120B2DE024121234DB123E51
:10564300BAC0E07408120B2D1256CFD0E0125707E0
:10565300C0E07408120B2D12329BD0E0F0740812D4
:105663000B2D1243CB1256D61239841256BA123E60
:10567300DBEE24111260D4C0E0E8242EF582E91297
:105683002733D0E0F0EE24141260D4C0E074081283
:105693000B2DE024311234DBD0E01256ECC0E07461
:1056A30008120B2D1256C8D0E01257000252ABA3BA
:1056B300A3E05403640122FAA3E0FBE82428F58263
:1056C300E912411622E024301234DF22E0242212B0
:1056D30034DF221240DBE82426F582E9124116EA80
:1056E300F0A3EB22124260A322F0EE24131249909E
:1056F300221256F822F085188285198322123AEC79
:10570300121C682212529AE02274F712044C7E0093
:105713008A828B83A3A3A3A3A3A3A3A3A3E064026B
:10572300607B1239431260D77073123F37122733ED
:10573300123F05606888828983E05403705FA3A3E6
:10574300A3A3A31257A3E06A7003A3E06B704E8870
:105753008289831257A3A3A3E0FFA3E0F5838F827B
:10576300A3A3A3A3A3A3E06A7003A3E06B702E8893
:10577300828983A3A3E0F88C828D83A3A3E0F9A39A
:10578300E0F5838982A3A3E06860118C828D83A3F3
:10579300A3E0F8123BDB540C640470010E0232E008
:1057A300A3A3A3A31240DB8C828D832274F612047D
:1057B3004C74FC120955EAFEEBFFECFAEDFB8A820E
:1057C3008B83A3E054036016900316123F05605CBD
:1057D3007900EEFCEFFD123523121D8D804E8518E6
:1057E30082851983EEF0A3EFF07402120B2DEAF019
:1057F300A3EB1256F4AC82AD837A8E7B0B120E644C
:105803008A088B09A808A909E84960208882898346
:10581300A3A3A3A3A3A3A3A3A37406F07A008882DC
:105823008983E0240C125834F9120DB6740402343F
:105833008412583822123E6222C082C08390033001
:1058430074CAF0A3740BF090033274BEF0A3740B0C
:10585300023442E824FF18E934FFF9228E828F8351
:10586300A3A3A3A3A3A3A3A3A3E0FEA3E0FF22E513
:10587300082412F58222E508125883E50922E50A75
:105883002411F58222E50A240EF58222240EF582E4
:10589300E50922E08E828F83228E828F83F0A3AE6E
:1058A30082AF83223400F50922E8F0A3E91256F807
:1058B30074FFF022E5081258C0E50922EA2410F526
:1058C300822212608D780C2274F412044C8A088BA5
:1058D30009E4F50AF50B780A1208A97C107D007A11
:1058E300707B0012143474021208F178081208A9AC
:1058F30075081075090078081208A97C007D007AE4
:10590300701259CF0225AF1208F17F1002066512FB
:1059130014828E828F83EA227B001213E08A0A8B21
:105923000BEA450B2274F412044C8A088B0978089D
:105933001208A9750A11750B00780A1208A9125AE0
:10594300A31208F1E9700F90032C120B0A12587975
:10595300122733120B160225B274F512044C74EF9E
:10596300120955E9851882851983F08A088B097510
:105973000A0078081208A57C107D007404120B2D10
:10598300123B101208F185188285198385820885D8
:10599300830978081208A975081175090078081297
:1059A30008A97C007D007A3B1259CF1208F17C11C3
:1059B3007D007900851882851983AA82AB8312132F
:1059C3005074110252AD7C007D007A427B001214A8
:1059D3003A74042274F212044CE9FE7A117B001229
:1059E30013E08A088B09EA45097003025AA0780874
:1059F3001208A9750A11750B00780A1208A97C0010
:105A03007D007A3B125AA91208F1E9707C8508825D
:105A1300850983E06E70727A1112591B606B780AE4
:105A23001208A9750C11750D00780C1208A9125AE9
:105A3300A31208F1E9703E78081208A9780C12083D
:105A4300A97C007D007A3A1259CF1208F1780A1224
:105A530008A9780C1208A97C007D007A3B1259CF63
:105A63001208F19003847401F09080B4120B0A9031
:105A7300032C120B167C117D007900AA0AAB0B12C2
:105A83001350AA0AAB0B1213E67C117D007900AA0E
:105A930008AB09121350AA08AB091213E602337CB0
:105AA3007C007D007A3A7B0012144074042274F166
:105AB30012044C74FF120955890E8A0D8B0CECFEEF
:105AC300EDFF7410120B2D7808120AD0EBC4335477
:105AD300E0F8EA33333354F8450E4812589C7808FB
:105AE3001208A1EEFAEFFB125B411208F18A088B50
:105AF30009AE08AF09E50C6006125B47125B5B74E5
:105B030001650D703575083A75090078081208A902
:105B13007402120B2D85820885830978081208A95F
:105B230012348C1208F1E9700B85188285198312DF
:105B3300589680058E828F83E4F0740180261213B9
