:020000040000FA
:06000000020AB8020238FA
:03002B00020903C4
:0300530002015E49
:03006B000204503C
:100083000201C50101FF01010503010F10FEFFFE7F
:1000930014FE14FE14FE14B413AE13FE141B23003B
:1000A3000000004124000000000C0000000C0001CF
:1000B300FFFF0101010027050000009E05B80102B2
:1000C30002000800000502070401051E02051E02C6
:1000D3000A0A03B80B02803E010201FFFF010A0175
:1000E3001401E096511800020206FF010900EF50C7
:1000F3000F2D100006A21FA81FAE1FB41F00000083
:1001030000000000000000000000000000000000EC
:10011300000000A21FA81FAE1FBA1F0000000000AE
:1001230000000000000000000000000000000000CC
:1001330000102020202020202020202020202020EC
:1001430020200110040100010005758001DC8011ED
:10015300040100010005758001DC80C0E074F11228
:1001630004AFA2AFE433FED2AFE5A7FFE5A1F508E4
:100173005FF509741055096006121C0675A1EF742A
:100183000855096008121C0C75A1F7802BEFA2E03B
:10019300C0D0E508A2E092F01209DF158182F05089
:1001A30017906198E0F8900669E0C398A2D265D0F1
:1001B300335002E8F075A1FEEEA2E092AF7F020297
:1001C3000566C0E074F21204AFA2AFE433FED2AF0F
:1001D3009061A4E0F8759B00E59158540860087598
:1001E30091F7121C4E802AE59158541060087591BE
:1001F300EF121C54801BE8A2E0C0D0E591A2E0926C
:10020300F01209DF158182F05007E0C2E0F0121D01
:100213008C9061A3E0F8E5E9585404600E121D6266
:1002230075E9FB906193E0A2E640F2EEA2E092AFA3
:100233007F01020566C0E074F21204AFA2AFE4339B
:10024300FED2AF9061A5E0F8E5BF5854046006758F
:10025300BFFB121D9E80D4C3E498F8E499F91202FF
:100263009B8026C3E49AFAE49BFBE920E7E91202A8
:100273009BE498F8E499F922C3E498F8E499F91215
:10028300029BE498F8E499F9C3E49AFAE49BFB220D
:10029300EB20E7CFE920E7E0B90010BB0008E88ACC
:1002A300F084F8AAF022E4FBC8FA22EB70227B1058
:1002B300C833C8C933C9335007C39AC3DBF28006B6
:1002C3009A50012ADBEAC833F4C8C933F4C9FA22C5
:1002D30075F008E4C833C8C933C933C99AC99B50F8
:1002E30004C92AC93BD5F0ECFBC833F4C8E4C9FA06
:1002F30022080808EAC0E0EBC0E086F0E7A4FA1899
:100303000986F0E7A42AFA180986F0E7A42AFA185E
:100313000986F0E7A42AFA1986F0E7A4FBE5F02A98
:10032300FA190886F0E7A42BFBE5F03AFA190886D8
:10033300F0E7A42BFBE5F03AFA18180986F0E7A4D6
:10034300C5F02BFBE43AFA1908E7C5F0C6A426F674
:10035300E5F03BFBE43AFA1886F0E7A4F6E5F0088B
:1003630026F6E43B08F6E43A08F6D0E0FBD0E0FAE0
:1003730022E4CFC0E0E4CEC0E0E4CDC0E0E4CCC0F2
:10038300E075F020C3E633F608E633F608E633F605
:1003930008E633F6181818EC33FCED33FDEE33FEA4
:1003A300EF33FFC3EC9709ED9709EE9709EF971920
:1003B3001919400FFFEC97FC09ED97FD09EE97FE25
:1003C300191906D5F0BEECF709EDF709EEF709EFB9
:1003D300F7191919D0E0FCD0E0FDD0E0FED0E0FF22
:1003E300222518C582C0E0E51934FFC583C0E0E5C6
:1003F30018C3958224F810AF088583198582188065
:1004030008858319858218D2AFCEF0A3E520F0A327
:100413007808E608F0A3DEFAEFF0A3E58124FAF802
:10042300E608F0A3E608F0A3E608F0A30808E60848
:10043300F0A3E608F0A315811581D0E0FED0E0F823
:10044300158115811581E8C0E0EEC0E022C0E0749B
:10045300F21204AFA2AFE433FED2AF900F4EE4F03A
:10046300E589A2E4500C53ABEF7401F0900F4FE019
:1004730004F0E589A2E5500F53ABDF900F4EE0D2B5
:10048300E1F0900F4FE4F0900F4EE060107C147D8C
:10049300007A107B00900F50E0F91217C87589009D
:1004A300C2C5EEA2E092AF7F01020566C0D0251857
:1004B300C582C0E0E51934FFC583C0E0E518C395E4
:1004C3008224F310AF0885831985821880088583F9
:1004D30019858218D2AFC8F0A3E9F0A3EAF0A3EB21
:1004E300F0A37908E709F0A3D8FAECF0A3EDF0A3A1
:1004F300EEF0A3EFF0A3D0E0F0A3D0E0F0A3D0E0C0
:10050300F0A3E520F0A3E5F0F0A322120B1AB90043
:1005130003020550E4900301786D790D8002F0A386
:10052300D8FCD9FA900F6DAA82AB8390008678D954
:1005330079018015E493A3AC82AD838A828B83F027
:10054300A3AA82AB838C828D83D8E9D9E7758246CF
:100553007583B8740412087B7582827583217400D5
:1005630012087B851983851882E0C0E0A3E0F9A314
:10057300E0FAA3E0FBA37808E0F608A3DFFAE0FCC7
:10058300A3E0FDA3E0FEA3E0FFA3E0C0E0A3E0C07F
:10059300E0A3E0F5D0A3E0F520A3E0A3F5F010AFCE
:1005A300088583198582188008858319858218D266
:1005B300AFD082D083D0E0F8D0E032150075F010D0
:1005C3008E1A8F1B85821F85831E8518828519834A
:1005D300E0CEA3E0CF851F82851E83EBC9EAC8ED79
:1005E300CBECCAC3E833C8E933C9EA33CAEB33CB2C
:1005F300C3EA9EF51DEB9FF51CB35004AB1CAA1D6B
:10060300EC33CCED33CDD5F0DAAE1AAF1B22D08369
:10061300D082ECC0E0EDC0E0E493A3FCE493A3FD3F
:10062300ED4C600D1206E9EC24FFFCED34FFFD8078
:10063300EFE493A3FCE493A3FDED4C600D12078656
:10064300EC24FFFCED34FFFD80EFD0E0FDD0E0FCB7
:10065300E493A3C0E0E493C0E022D083D082E9C056
:10066300E0E493A3C386F0C5F095F0F908E493A3FF
:1006730086F0C5F095F0700BE493A3C3994005E9A8
:10068300048002A3E475F002A42582F582E5F03527
:1006930083F583D0E0F9E493A3C0E0E493C0E022C0
:1006A300851983851882E0A3FEE0A3F5207808E08E
:1006B300A3F608DFFAE0A3FFE0A3C0E0E0A3C0E0F5
:1006C300E0A3C0E0E0A3C0E0E0A3C0E010AF088572
:1006D30082188583198008858218858319D2AFD043
:1006E30083D082020881C0E0C3E493960874019327
:1006F3009618400FE49366700808740193661870A7
:10070300007019A3A3C3E49396087401939618A3E6
:10071300A3400DD0E0D0E0D0E002064DA3A3A3A3F5
:10072300A3A3D0E0227404800474028000CCC0E050
:10073300EDC0E0E518C39CCCAD1950011D10AF0608
:100743008C188D1980068C188D19D2AF1207FDD025
:10075300E0FDD0E0FC2274028000CCC0E0EDC0E0FC
:10076300E518C39CCCAD1950011D10AF068C188D34
:100773001980068C188D19D2AF1207DBD0E0FDD09B
:10078300E0FC22C0E0C0F088F0E4936670080874CF
:10079300019366187000A8F0A3A3700BD0F0D0E00B
:1007A300D0E0D0E002064DA3A3D0F0D0E022D08366
:1007B300D082CCC0E0E493A3600612085C1470FA04
:1007C300E493A3600612094D1470FAD0E0FCE4939D
:1007D300A3C0E0E493C0E022CAC0E0E493A3C582CF
:1007E300CCC582C583CDC583F0A3C582CCC582C5E4
:1007F30083CDC583DAE5D0E0CA22CAC0E0E0A3C551
:1008030082CCC582C583CDC583F0A3C582CCC58206
:10081300C583CDC583DAE6D0E0CA2270090808088B
:10082300226016181818C6C333C608C633C608C6CE
:1008330033C608C633C6D5E0EA22C008C3E096F53E
:100843000808A3E096420808A3E096420808A3E03C
:100853009645087001D3D00822C0E0E493A3D39C4B
:100863005010E493A3C39C400AD0E0D0E0D0E00250
:1008730007CEA3A3A3D0E022C09FF59FE473D09F2C
:1008830022D083D082C09FE493C0E0740193C0E080
:10089300740293F59F222518F58210AF08F51840CE
:1008A3000215198008F51840021519D2AF8519836E
:1008B300227404800A74038006740280027401C0E7
:1008C300E0F404120899D0E0120AF522BB0102E712
:1008D30022C082C08389828A83BB0003E08002E452
:1008E30093D083D08222C0D0251810AF08F51850BA
:1008F3000205198008F51850020519D2AFD0D0228D
:10090300C0E0C0D0E8C0E0E5A8D2AFC2C7A2E7927A
:10091300AFD0E0F8D0D0D0E0326016080808C6C3E4
:1009230013C618C613C618C613C618C613C6D5E011
:10093300EA22C3E0C696F608A3E0C696F608A3E04B
:10094300C696F608A3E0C696F622C0E0E493A36C2D
:100953007009D0E0D0E0D0E00207CEA3A3D0E0221C
:10096300251810AF08F518400215198008F518402E
:10097300021519D2AF22E066701008A3E066700A70
:1009830008A3E066700408A3E06622E76670100817
:1009930009E766700A0809E76670040809E7662232
:1009A300C3E09608A3E09608A3E09608A3E096A206
:1009B300D265D03322C3E096F008A3E096F008A3F3
:1009C300E096F008A3E096F022E026F008A3E036D4
:1009D300F008A3E036F008A3E036F022C0E0E8C058
:1009E300E0E58124FCF8E6A2E7D0E0F8D0E022704D
:1009F3000422600D18C6C333C608C633C6D5E0F457
:100A03001822E026F608A3E036F608A3E036F60837
:100A1300A3E036F622E627F60809E637F60809E6E4
:100A230037F60809E637F622E657F60809E657F6D9
:100A33000809E657F60809E657F622E056F608A332
:100A4300E056F608A3E056F608A3E056F622E05671
:100A5300F008A3E056F008A3E056F008A3E056F030
:100A630022E647F60809E647F60809E647F60809C5
:100A7300E647F622E4C396F608E496F608E496F60B
:100A830008E496F622C6F4C608C6F4C608C6F4C639
:100A930008C6F4C622C3E7960809E7960809E7964D
:100AA3000809E79622C3E09608A3E09608A3E09618
:100AB30008A3E0962275D000758140751801751959
:100AC300030002050EE0F608A3E0F608A3E0F6082B
:100AD300A3E0F622600C08C6C313C618C613C6D516
:100AE300E0F422E6F008A3E6F008A3E6F008A3E6A4
:100AF300F022CAC0E0E6F0A308DAFAD0E0FA22E076
:100B0300FAA3E0FBA3E0FCA3E0FD22EAF0A3EBF0F1
:100B1300A3ECF0A3EDF022E5C754F84401F5C7793F
:100B230001222518F582E43519F58322C2AF75D663
:100B33009F02000022120884144F00120884724F8F
:100B4300001208849B4F001208840B500012088483
:100B5300645000120884DD50001208842D530012E3
:100B63000884E75400120884935500120884D5566C
:100B730000120884735900120884795C00120884F7
:100B8300865C00120884145D00120884C65D00129E
:100B930008840E5E001208846E5E001208848A5E6A
:100BA30000120884BE5E00120884F35E00120884FB
:100BB300DC5F00120884916000120884E662001270
:100BC3000884336400120884D664001208846365C1
:100BD300001208849965001208844B660012088489
:100BE3001D6700120884D868001208842C6900125B
:100BF3000884606900120884DB6900120884B56AFE
:100C030000120884736B00120884B86B0012088406
:100C1300D06B00120884676C00120884D86E00122F
:100C23000884ED70001208840B7100120884297186
:100C330000120884037200120884217500120884CC
:100C43000080021208843580021208845B8002123D
:100C53000884958002120884A78002120884F98010
:100C6300021208845A8102120884E4810212088461
:100C7300888202120884D082021208840A83021234
:100C830008842783021208844C83021208849E83FB
:100C930002120884B78302120884DD8302120884D7
:100CA300FC83021208843784021208847B840212B4
:100CB3000884A28402120884F38402120884A385A0
:100CC300021208845B8602120884238702120884B6
:100CD300E387021208842788021208844C880212D0
:100CE30008848F8802120884DC8802120884348AFC
:100CF30002120884BA8A02120884D88A021208846B
:100D0300028B021208841C8B021208842B8B0212A2
:100D13000884368B02120884F68B021208844F8CE7
:100D230002120884118D02120884198D021208849C
:100D3300918D02120884E08D02120884268E02121D
:100D43000884678E02120884F78F02120884AF901A
:100D5300021208841B91021208844692021208842C
:100D6300579202120884CD92021208845F930212F2
:100D73000884B793021208847794021208849E941D
:100D830002120884BC9402120884CE9402120884CE
:100D93002195021208845E95021208846B95021253
:100DA3000884EE96021208844398021208845C9821
:100DB30002120884989902120884339A0212088452
:100DC3006C9A02120884B89A02120884D49B021205
:100DD30008841D9E02120884289E02120884339EF2
:100DE300021208843D9E02120884489E021208845F
:100DF300629E021208846C9E02120884769E02127E
:100E03000884819E02120884A99E02120884049F0A
:100E130002120884289F021208844C9F021208843D
:100E2300AA9F02120884EE9F021208840AA00212EB
:100E3300088481A002120884B9A00212088405A1C3
:100E43000212088462A1021208841CA202120884FE
:100E530000A40212088459A40212088489A502126C
:100E63000884AFA50212088438A702120884B4AA22
:100E73000212088486AC021208844FAE0212088460
:100E8300FCAE0212088467B00212088406B1021293
:100E9300088453B102120884BDB102120884CCB194
:100EA3000212088453B40212088405B6021208849D
:100EB30072B60212088451B7021208846AB8021289
:100EC3000884E7B90212088406BA021208845BBADE
:100ED3000212088460BB0212088488BB02120884D1
:100EE300E0BB02120884BFBC0212088403BD0212D5
:100EF30008844EBD02120884B9BD02120884FABEEA
:100F0300021208845EBF02120884ACC00212088475
:100F13000CC3021208843DC302120884F5C40212F2
:100F230008844AC5021208844EC602120884EBC61E
:100F33000212088444C702120884F7C70212088405
:100F430099C80212088439C902120884DEC9021240
:100F53000884E280011208842181011208846883D5
:100F630001120884B28301120884CD84011208841B
:100F73003D8501120884728501120884E6860112F8
:100F83000884698901120884928A01120884288BD3
:100F930001120884309401120884C5940112088454
:100FA300AC97011208849F980112088400990112DA
:100FB30008841C9A01120884019C01120884129E61
:100FC300011208847C9E011208844E9F011208843A
:100FD30005A0011208840FA0011208843DA001128C
:100FE3000884FAA001120884D1A10112088498A2EE
:100FF300011208844AA30112088473A3011208840E
:1010030095A301120884EBA501120884C3A601125B
:10101300088407A7011208846FA70112088427A870
:101023000112088459A8011208849DA8011208849A
:10103300D3A8011208841FA90112088474A90112FC
:10104300088479A901120884CCA901120884F1A9A2
:101053000112088400AB0112088464AB01120884F6
:10106300D4AB0112088460AC011208842DAF0112C5
:10107300088411B00112088494B101120884CAB320
:101083000112088478B40112088428B50112088477
:1010930069B7011208840CB80112088453B801120D
:1010A3000884FFB90112088413BA011208841DBA17
:1010B3000112088445BA0112088451BA0112088446
:1010C30070BA0112088455BC011208848CBC011249
:1010D300088496BC01120884A0BC01120884FBBCDE
:1010E3000112088445BD011208844DBE0112088413
:1010F300A4BE01120884F3BF0112088437C0011291
:101103000884DFC001120884C2C1011208846DC2C1
:1011130001120884B9C301120884B7C401120884F8
:101123005DC501120884EDC50112088404C60112CD
:1011330008843BC60112088445C60112088450C6C0
:10114300011208846EC601120884B2C60112088413
:101153000FC70112088434C7011208844EC7011255
:101163000884DAC701120884F7C80112088464C925
:10117300011208844BCA0112088472CA011208843E
:10118300E6CA0112088461CB0112088465CC0112FE
:1011930008845BCD011208840ACE011208841DCF96
:1011A30001120884B9CF0112088446D001120884C1
:1011B30024D1011208845CD101120884B4D1011234
:1011C30008847DD2011208849ED20112088425D39B
:1011D3000112088449D3011208846BD301120884D5
:1011E300B4D301120884CAD501120884B1D60112FE
:1011F300088462D70112088498D901120884E8D9B7
:101203000112088428DA011208846ADA01120884B8
:10121300C6DA01120884F4DA0112088418DB011219
:1012230008846BDB0112088499DB01120884D2DB8A
:101233000112088427DC011208848DDC0112088462
:10124300E1DD0112088404E00112088471E0011257
:1012530008849AE00112088425E1011208848CE1D4
:1012630001120884D7E101120884FBE1011208840A
:101273001FE2011208847AE20112088495E2011246
:1012830008844EE30112088488E3011208842E8B3C
:1012930004120884668B04120884878B0412088462
:1012A300C98B041208842F8C04120884398C04120D
:1012B3000884498C041208847E8C04120884C78F26
:1012C300041208847191041208847193041208842F
:1012D300A2CA02120884E8CA02120884C8CB021206
:1012E3000884CACC02120884CDCD0212088459CFD7
:1012F30002120884B7CF0212088474D00212088441
:1013030092D10212088403D2021208843FD202123D
:1013130008848DD20212088497D202120884DBD289
:101323000212088437D302120884D2D3021208842B
:101333004FD4021208841ED502120884B7D50212B4
:101343000884D7D5021208840DD6021208843ED62B
:1013530002120884FFD6021208840FD702120884EF
:1013630063D7021208847ED70212088490D7021230
:10137300088499D702120884F3D7021208844FD83D
:10138300021208849BD802120884B6D80212088479
:10139300E7D80212088404D90212088410D9021271
:1013A300088484DA021208849DDA0212088404DBBA
:1013B3000212088417DB0212088425DB0212088458
:1013C300D9DB02120884BDDC02120884C3DD0212D9
:1013D30008844DDE0212088457DE02120884C4DE3C
:1013E30002120884DBDE021208840DDF0212088475
:1013F30046DF0212088470DF02120884D1DF021272
:101403000884F1DF021208840FE00212088455E019
:10141300021208847BE102120884C8E102120884E4
:10142300F7E1021208846DE20212088495E20212C7
:101433000884CEE202120884DCE20212088434E358
:101443000212088483E302120884C2E302120884AE
:10145300F2E3021208841EE40212088429E4021251
:10146300088447E40212088409E50212088413E59C
:10147300021208844EE50212088464E5021208840D
:10148300B9E502120884CDE502120884DBE60212F4
:101493000884EEE60212088403E702120884A5E733
:1014A3000212088428E802120884E6E8021208847B
:1014B300F1E8021208841DEA0212088439EA0212D2
:1014C30008848BEA02120884CAEA02120884DFEA5B
:1014D3000212088441EB02120884D0EB0212088442
:1014E3001BEC021208846CEE02120884EAEE02126C
:1014F30008845FEF0212088481F10212088499F1D3
:10150300021208849CF102120884A8F102120884D2
:10151300BCF102120884C4F102120884F7F102122A
:101523000884A7F2021208841DF30212088490F3C0
:101533000212088444F402120884F9F402120884A3
:1015430018F502120884B8F502120884C4F50212D1
:101553000884EFF502120884F2F5021208845CF69F
:101563000212088484F7021208845CF802120884C9
:10157300E7F80212088400FA02120884BDFA021284
:101583000884F6FA0212088427FB02120884E5FB9A
:101593000212088415FC02120884F0FC021208846B
:1015A30089FD0212088414FE02120884C5FE021289
:1015B30008842949001208847AFF02120884BBFFB9
:1015C300021208843F7500120884A475001208846F
:1015D300E175001208843076001208841A7800122C
:1015E3000884017A001208843A7D00120884607D21
:1015F30000120884787D00120884E17D00120884BB
:101603001D7E001208844A7E00120884B84E001220
:101613000884DA7E001208840080041208847E8025
:1016230004120884B0800412088408810412088418
:101633008282041208849E8204120884D9820412CE
:101643000884608304120884B083041208847D84B0
:1016530004120884818504120884D5850412088441
:10166300508604120884B18604120884F286041298
:1016730008849D8704120884BB8804120884F188B7
:10168300041208843C8904120884838904120884A0
:101693000D8A04120884B28A04120884A89B0412D7
:1016A3000884EE9B04120884589C04120884799CD5
:1016B30004120884199D04120884239D04120884CB
:1016C300709D04120884959D04120884F59D0412EC
:1016D30008848B9E04120884C39E041208841C9FF2
:1016E30004120884789F04120884A69F04120884B5
:1016F3002EA00412088473A004120884B2A004125A
:101703000884F7A00412088409A1041208841BA109
:10171300041208843AA10412088443A10412088421
:10172300EFA1041208842FA2041208842A7F001256
:101733000884CDD00412088403D1041208844CD148
:101743000412088499D204120884F6AA03120884A6
:101753006FAC0312088430AE031208846CAE03121C
:101763000884F3B10312088439B2031208844EB417
:101773000312088420B503120884CCB5031208842D
:1017830077B703120884C1B903120884DDBC0312BE
:101793000884EBBC03120884C6BD03120884D9C1B4
:1017A300031208845EDF04120884EFE00412088445
:1017B30005E10412088448C3041208845BC30412BD
:1017C3000884F9C3041208843BC40412088460C467
:1017D30004120884A5C404120884DEC40412088415
:1017E3000FC50412088482C604120884BDDD0412E6
:1017F3000884F3DD041208840FDE0412088451DE2A
:101803000412088461DE041208846CC20312088483
:10181300BEC2031208842DC30312088424C4031216
:101823000884A8C4031208846FC50312088484C5FE
:1018330003120884CEC5031208841DC6031208844C
:101843006FC60312088482C603120884CEC603122D
:101853000884C9C8031208844BC90312088475C9D4
:1018630003120884BEC90312088486CB03120884BA
:1018730001CC031208848ECC03120884A1CC03127A
:101883000884F0CC0312088406CD031208841DCD0E
:10189300031208844CCD031208846DCD031208840F
:1018A30046CE03120884A9CE03120884F5CE031290
:1018B3000884F8CF0312088466D20312088480D206
:1018C3000312088405D30312088475D30312088412
:1018D30098D303120884D2D30312088440D403128A
:1018E3000884F6D4031208841BD50312088425D573
:1018F3000312088435D503120884B8D5031208846B
:10190300D3D503120884F5D50312088421D6031214
:1019130008845CD6031208846BD603120884ACD601
:1019230003120884AEDF04120884C6DF041208849D
:1019330023940412088472940412088424960412D3
:101943000884D997041208842198041208841D99E5
:1019530004120884749A04120884969A0412088460
:10196300F29A04120884749B04120884D1D60312D9
:101973000884FCD603120884DFD70312088461D8D5
:1019830003120884CBD80312088417D903120884DE
:1019930085D90312088410DA031208849EDA03122D
:1019A3000884D1DA03120884C5DF031208846AE1CC
:1019B3000312088426E20312088463E203120884F4
:1019C300AFE40312088423E50312088422E603121A
:1019D3000884FBE60312088475E7031208842FE8E2
:1019E30003120884EEE8031208845AE903120884F8
:1019F30001EA031208845EEA031208841BED031252
:101A03000884DBED0312088440EE03120884EAEF36
:101A130003120884A7F00312088406F20312088451
:101A23002DF303120884C8F303120884C3F40312CA
:101A33000884D2E3011208845AE401120884CDE435
:101A43000112088421E5011208845CE5011208846F
:101A5300E9E50112088405E70112088457E701123A
:101A63000884B5E701120884F8E7011208846DE8D9
:101A730001120884B7E80112088436EA01120884C7
:101A830009EB011208845FEB0112088455EC011283
:101A9300088402ED011208842DED011208844CED37
:101AA300011208845CED0112088462EE01120884BD
:101AB30026EF0112088407F1011208846DF1011267
:101AC300088484F101120884DAF20112088457F3BE
:101AD30001120884C6F3011208844FF4011208842A
:101AE30093F4011208845AF60112088432F70112A2
:101AF30008846EF80112088427F90112088458FA41
:101B03000112088487FA0112088461FB0112088418
:101B130030FC0112088489FC01120884A1FC011223
:101B23000884A1FD011208842FFE011208847ECED1
:101B3300041208843DCF04120884F6CF04120884EB
:101B43005CD004120884CAB80412088433BA04129D
:101B530008840FE104120884D9D604120884E7D656
:101B63000412088429E1041208846FFF0312088415
:101B73007FFF031208848BFF03120884D8FF03122C
:101B83000884BFDC0412088440DD04120884A4DD49
:101B930004120884F5FF01120884F8FF0112088477
:101BA300FD7F00120884DBFF03120884DBAB041201
:101BB300088430AC0412088404AE0412088436AEE0
:101BC300041208845DAE0412088471AE0412088402
:101BD3008AAE04120884B9AF041208842BDA041203
:101BE30008844FDA0412088468DA041208849BDA42
:101BF30004120884CCDA04120884FADA0412088482
:101C03005CDB041208846BDB0412088475DB0412AA
:101C1300088482DB0412088469C904120884A6C9F3
:101C230004120884B5C904120884D4C904120884B0
:101C33003CCA0412088445CA04120884A4CA0412C4
:101C43000884C8CA04120884BBCB04120884C8CB16
:101C530004120884D9CB0412088486E00412088491
:101C6300A3E00412088458A2041208849EA204125A
:101C73000884FDA3041208840AA4041208841DA482
:101C8300041208843CA40412088452A40412088495
:101C930066A404120884DBA40412088440A5041279
:101CA3000884F0A504120884C5A604120884D5A6E6
:101CB30004120884E4A60412088472DE0412088461
:101CC30097DE04120884C0DE04120884E8DE0412DE
:101CD300088400D30412088427D304120884A3D3EE
:101CE3000412088407CC0412088420CC041208844C
:101CF3002CCC0412088440CC041208845ECC041259
:101D0300088468CC0412088472CC0412088485CC3D
:101D130004120884DDCC0412088414CD0412088450
:101D230042CD0412088490CD04120884DDCD041240
:101D33000884F8CD0412088402CE0412088434CE39
:101D4300041208840DDF04120884FEF503120884CC
:101D530028F60312088444F60312088457F6031284
:101D6300088496F60312088417F7031208844FFBBE
:101D73000312088479FC03120884ACFC0312088460
:101D8300F9FC0312088441FE0312088469FE03125E
:101D930008848CFE03120884D0FE0312088431FFEA
:101DA3000312088441FF031208848CDB04120884A5
:101DB300A7DB04120884D0DB04120884EADB0412D4
:101DC30008840FDC041208842EDC0412088446DC29
:101DD3000412088474DC041208848EDC0412088460
:101DE300FCDF04120884AABF04120884B1BF0412E2
:101DF3000884E6C00412088415C10412088483C150
:101E03000412088416C2041208844FC20412088400
:101E130098C204120884C8C204120884E8C20412D7
:101E2300088493D804120884ABD804120884C8D950
:101E330004120884CBD904120884E0FE011208843A
:101E43003FFF0112088495FF01120884D6FF011297
:101E530008840080031208841B8003120884908086
:101E630003120884198103120884A88103120884C9
:101E7300C481031208846E84031208841D8703122D
:101E83000884BB8803120884068A03120884D38F4C
:101E930003120884CF900312088445910312088427
:101EA300119203120884B592031208841894031242
:101EB3000884B89403120884029503120884749565
:101EC300031208841D9603120884EA9603120884F9
:101ED3005097031208845598031208841299031229
:101EE3000884AF9903120884069C031208849A9C01
:101EF30003120884169D03120884A29F0312088408
:101F03009DA003120884CCA0031208848BA20312A1
:101F130008845FA40312088455A50312088443AA06
:101F2300031208848FC604120884B4C604120884FA
:101F33003DC704120884FFC704120884D1C80412E1
:101F430008843DC9041208840BBC04120884CCBC69
:101F5300041208843BBD0412088460BD0412088483
:101F63001BBE0412088442E00412088418D504122C
:101F7300088458D5041208847DD50412088400D639
:101F8300041208847FD6041208848DD604120884B0
:101F9300AAD60412088495B00412088423B104124B
:101FA3000884FDB20412088400B3041208843CB30D
:101FB300041208843FB30412088475B3041208841E
:101FC300A3B30412088472B40412088498B40412EC
:101FD3000884E3B404120884FFB40412088430B5FF
:101FE3000412088440B5041208844DB50412088411
:101FF3005AB5041208843DB6041208847BB6041251
:10200300088485B604120884A4B704120884AFB701
:1020130004120884C1B704120884CAB704120884DE
:10202300D4B7041208841DA704120884CDAB04128C
:102033000884C2E004120884744700120884F4463A
:1020430000120884BA4600120884FA450012088474
:10205300704500120884424500120884EE430012C2
:102063000884574300120884BA4200120884454288
:10207300001208841342001208845041001208849D
:102083007B3F001208840C3F00120884DE3E0012DE
:102093000884DB3E00120884623D00120884633C1E
:1020A300001208842D3B00120884713A0012088440
:1020B300E73900120884ED3800120884DD4D001260
:1020C30008841B4C00120884E74B00120884B44BAD
:1020D30000120884874B00120884493800120884D0
:1020E300903700120884533700120884AD4A001257
:1020F30008849936001208846336001208840A366D
:1021030000120884C035001208840A4A00120884A9
:102113007C7E001208846135001208843035001279
:102123000884F83100120884B83100120884AC31F5
:10213300001208840C31001208844C300012088409
:10214300C52D00120884562B00120884142B00128C
:102153000884E829001208849D2900120884D928DC
:10216300001208841C2800120884EC27001208843B
:10217300714900120884B2270012088448FF020044
:10218300000080FBE4738F000100C90F870001008A
:10219300C70F2400020016062500020018062600B9
:1021A30002001A0627000200A70F28000100A90F4A
:1021B30029000100AA0F84000400AB0F8600010070
:1021C300AF0F2A000100B00F2B000100B10F2C004C
:1021D3000100B50F2D0008001E062E000100B60FEA
:1021E3002F000100B70F30000100B80F31000100CC
:1021F300B90F320001002606330001002706340020
:102203000100BA0F36000100280638000100BB0F99
:1022130039000100B40F83000200C50F6300010001
:10222300320664000100B20F65000100B30F6D00B8
:102233000100C40F6E0002001C0643000100BC0F26
:1022430044000200BD0F45000100BF0F460002001D
:10225300C00F470008002A0648000100C20F4B00C8
:102263000100C30F04000100C80FA1000100CC0F3F
:1022730037000100CB0F88000100CA0F3C000100AA
:1022830029060000000000000001363601010001AC
:10229300020100010301000104010606050200001A
:1022A300070100340801000F090401010D0100FFBB
:1022B3000E08000017020000190100FF1A010001B7
:1022C3001B0100FE1C0100081D0200001F0100018C
:1022D30020010001210200002301000F240200005D
:1022E3002601000127010008280200FF2A01000738
:1022F3002B0102402C0100002D0100012E010001E1
:102303002F0100FF30010B1C310800003A010008C7
:102313003B01000F2F01000003007100300160003A
:10232300110070003102200350048000100061008E
:102333000000140063007300720062004300000099
:10234300130006000000000004001200000000005B
:102353000000000004000400370037003C02440082
:10236300000000000000000065000000350081004F
:10237300000005000000830000000101710101015C
:10238300010111010101310101010101800110016C
:1023930061013B0014006301730172016201430197
:1023A3000001130106013D01350004011201000182
:1023B30000010001000104010401330133013C0168
:1023C30044013201360000010001650100013500BE
:1023D30081010001050182018301000103047104ED
:1023E30002046004110470040204020401040204E0
:1023F300100461040004140463047304720462048B
:102403004304000413040604000400040404120437
:1024130000040004000400045104640000040004E8
:1024230000044404000400040004000465040004E0
:1024330035048104640005040004830400040103DB
:1024430071030103010301030103010322030203D7
:102453000103100300030003000300030003000350
:1024630000034203000324030603000300030403E1
:102473001203250323032503230304030403000397
:102483000003000344030003000323030003650365
:102493002100350381030003050300030003000348
:1024A3000302710230016002110270020102020292
:1024B30002028002100261023A00410063027302C9
:1024C3007202620243020002130238000002000299
:1024D30004021202000200020002000204020402CB
:1024E300370037003C0244020002390000020002B8
:1024F30065020002350281020002050282028302A4
:102503000002000003002001E08000000000200121
:10251300E1800000040042016480000005004201E4
:1025230053800000060042014280000007002001A2
:10253300DE800000100042031B1000001100200386
:102543005F0F0000120010032C1003000000210392
:10255300600F060000002001630F00000000000070
:102563000000000003002001E080000000002001C3
:10257300E180000004004201648000000500420184
:102583005380000006004201428000000700200142
:10259300DE800000100042031B1000001100200326
:1025A3005F0F0000120010032C1003000000210332
:1025B300600F060000002001620F00000000000011
:1025C300000036000100060000000F0000000000BC
:1025D300000000000000000003FFFF00000403FFF1
:1025E300FF0000FFFF0FF4010005C40403200001F6
:1025F30000020B000000000000000003010FCA1ED0
:10260300061FD01E1E1FD61E0C1FD61E181FDC1E33
:102613001E1FD61E0C1FE21E1E1FE81E1E1FEE1ECF
:102623001E1FF41E1E1FFA1E1E1F001F1E1F00006A
:102633000000000000000000F6191300BA190100A1
:10264300F6190200841903008A1904009019050081
:1026530096190600A219FFFF0000019A0F06C40F86
:1026630008BE0F0BDC0F10160F02A00F05B20F07E9
:10267300A60F0C7C0F0D8E0FFF00000E143E1414DA
:10268300141A1438142C14261444144A1450145CC9
:102693001420140814021403EAF5E5D5D5C5B5A52D
:1026A3009595858575756565555545453535252557
:1026B30015150500160F00000B150B020002220F63
:1026C300320000067A6232303136303932393130F5
:1026D300323633377969206875692079756E2073CE
:1026E3006D617274000000000000000089674523DB
:1026F30001EFCDABFE1410151615D8131C15D2130C
:10270300DE135E157C158215641570156A15121398
:102713000C1348134E134213FA1200034948424D57
:1027230018172505020C0E020B040B0A0708000FED
:10273300303017181921301B1D1F3030301618196F
:1027430020231A1C1E300001191618161615230310
:102753000000383C3E363B3B352B432C52152215AB
:10276300281534152E153214561476156214681470
:102773000204020101010109021E13241318135458
:102783001300BE040A2A133C1304000000000028AF
:10279300000C007F00E8030E000A03080C0004008D
:1027A30030FF1E1E010904091005080F03080C74ED
:1027B300F71203E4E9FE121618EE900F6EF0900381
:1027C3000E7458F0A37421F09003107452F0A374A4
:1027D30021F0900312744CF0A37421F0900314744D
:1027E30046F0A37421F002429374F71203E4E9FE66
:1027F300900302E4F0EE900301F0900FC012360351
:102803001245E57C2A7D067A057B03121E4C900F48
:10281300C2E090030DF002429374F41203E48A08B9
:102823008B09EB5480605B900301125CE7604A8E76
:10283300828F83E064017032124D76120728EE24F2
:10284300121270C6F50A780A1208C01228CC1208B0
:10285300BCEE240B1228C512072CEE2417125CF7CA
:102863001215D674091208E98008E0640270031295
:10287300203EEEFAEFFB1216C0AA08E5096480FBBE
:10288300803AEAA2E05017900316124BAF6006128B
:1028930035FF122187E5086401FAAB09801E540253
:1028A300600C900F6D7401F0EA6402FA800EEA5432
:1028B300046005EA640480F37A007B00022998EE41
:1028C300240CF582EF124D8022EE240FF50AEF342B
:1028D30000F50B780A2274F41203E48A088B098A40
:1028E300828B83A3A3A3E0241012429FFA124EE328
:1028F30070030229888E828F837402F0A3E4124E40
:10290300A6A3A3A3A3E8F0A3E91249F4A3A3A3A353
:10291300A3A3A3F0E5082403F8E509123E4C241011
:1029230012410B8E828F83A3A3A3A3F0EE2409FA93
:1029330012298A12452CF5838882E0A2E58E828FC4
:1029430083A3A3A3A3A3500474018001E4F0E508C7
:102953002403F888828983125C40EA1266FEEB1234
:1029630028C8124F0B1208B812626CEB1246B28ED3
:10297300828F83A3A3124D8F1208E9EEFAEFFB9027
:102983000301124F50800EEF3400FB8E828F83A31E
:10299300A3221208E97F040206A374F21203E48A55
:1029A300088B09ECFAEDFB740E120B25E0FC1216F2
:1029B300488A0C8B0DAE0CAF0DEE4F6023AC08AD07
:1029C30009121636E96019AC08AD09EEFAEFFB12ED
:1029D300163CE97007EEFAEFFB121630790080021D
:1029E30079B402365E74EE1203E474F71209638A53
:1029F3000A8B0BECFEEDFF750FB3750E00750C0023
:102A0300750D00800CE50C2401F50CE50D3400F583
:102A13000D90278CE493F8740193F9C3E50C98E5C2
:102A23000D994003022B08AA0CAB0D1216968A08C7
:102A33008B09EA450960CE8A828B83A3A3A3A3A350
:102A4300E0250EF50EF510C3E50A9510E50B94008D
:102A530050B37C157D007900EEFAEFFB124B5DA3BA
:102A6300A3A3A3E50AC3950EF8E028C333F8E43320
:102A7300F9E50828F582E50939F583A3A3A3A3A300
:102A8300A312531DA31243DBEAFCEBFDEEFAEFFBAB
:102A9300123E69A3E06401700A124D767401123785
:102AA3003F8043851882851983AC82AD8385088274
:102AB300850983125C3E12167EE9602D7408120BA1
:102AC30025E0C0E0124D76D0E0F07408120B25E04B
:102AD3006403851882851983700CAC82AD83EE2460
:102AE3000B12372C80031245D9850882850983127E
:102AF3003D51A3A3124E69C0E0EE24141228C5D0A1
:102B0300E0F0750F00A90F74091208E97F0A0206A5
:102B1300A374F71203E4E9FE8A828B83A3A3A3A31E
:102B2300A3A3E0540860298A828B83A3A3A3A3A34E
:102B3300A3E0540260178A828B83A3A3A3A3A3A356
:102B4300A3A3A3E06406600574E96E700312213A3F
:102B530002429374E81203E474F7120963740712D0
:102B63000B25124B76E9851882851983F0ECFEED6F
:102B7300FF7424120B25780C120AC87513008E8279
:102B83008F83125C3A8E828F83A3A3A3E0F912167C
:102B9300548A148B15EA45157003022D5FEE241039
:102BA3001254BDA914120E1A8A168B17EA45177010
:102BB30003022D5FEE2406F510EF3400F5117C00BF
:102BC300851082F583122DB18E828F83A3A3A31266
:102BD3002DA6125940F8A3E0F9851682851783A321
:102BE300A3A3A3123841122DA6A3A3A3A31256BADB
:102BF300851682851783A3A3A3A3A3A3F0EE12666E
:102C0300FEEF1230201208B8EE12626DEF1246B2D8
:102C1300851682851783A3A3A3A3A3A3A3A3A312A8
:102C23004D8F1208E9751000022CDF850A82850B8F
:102C330083125C3E121684850882850983A3EAF019
:102C4300A3EB124DA2A3A3124A97124F67E0A2E689
:102C5300500F850882850983A3A3A3A3A3E0D2E130
:102C6300F0E5137063850882850983A3125E5B9088
:102C7300036CE0687003A3E069704D8508828509E1
:102C830083A3A3A31254CA780C1208B47427120B9B
:102C930025E0F50A780A1208C07426120B251207DC
:102CA3002C90037912072C79007410120B2512490A
:102CB300E41220C274091208E9850882850983A3F6
:102CC300A3A3A3A3E04405F074012510FC8E828F17
:102CD30083A3A3A3A3A3A3122DB10510E50A450B58
:102CE3006052851008C3E5089514E495155045E531
:102CF3001075F006A4F8A9F0E51628F8E51739F9D8
:102D0300E8240CF508E9123C10E4124D98640160C4
:102D130003022C2E75130185088285098374011221
:102D23004D9DF8A3E0F9850882850983A3E8F0A304
:102D3300E9022C45AA16AB17120E2078161208BC0E
:102D43007425120B25E0FC7402120B25E0F9EEFA50
:102D5300EFFB12214074021208E980428E828F83B6
:102D6300A3A3A3E0C0E07404120B25D0E0123A5AE7
:102D7300E0C0E07405120B25D0E0F0E514451570B2
:102D8300097406120B2574B980077406120B257497
:102D930010F07401120B25AA82AB831220C87409A8
:102DA300026917E0851682851783A3A3A322125312
:102DB300068E828F83A3A3A3E0F912165A8A0A8B85
:102DC3000B2274E81203E474F31209638A0A8B0B6F
:102DD30089178C167425120B251270E1AA0CFB12AD
:102DE3000E0EE9F514AA0CAB0D120E14E9F515E558
:102DF300147003023012751300800F8E828F83A329
:102E0300A3A3A3A3E0D2E3F00513E50C240BF582FF
:102E1300E50D1231A7E513C3984003023009E51409
:102E23007003023009E51375F006A4F8A9F0E50C68
:102E330028F8E50D39F9E8240CFEE9126EB5A3A3D1
:102E4300A3A3E0A2E040C1750E008E828F83E070E1
:102E530043125C3F120D068A088B09A808A909E8EA
:102E630049603188828983A3A3A3A3E06401600D31
:102E730088828983A3A3A3A3E0640370178E828F40
:102E830083A3A3A3A3A3E0D2E7F0750E01E5157016
:102E930003022E0B750F00750808750900E516600F
:102EA30003750F20124AFDE060339003BCE0640118
:102EB3007017E50FD2E3F50F7509108E828F831219
:102EC30045C41243CA74FF8024430F0C75080C8E4B
:102ED300828F83A312302C1268AEA38010E5176093
:102EE30009E50FD2E6F50F75080A123043F07402B4
:102EF300120B25E50F12595FC0E07404120B25D0A5
:102F0300E0F07405120B251242B1120B25E06003A9
:102F1300022FE47408120B25123C518E828F83A377
:102F2300A3A3A3F07408120B2512350CF583E5084F
:102F3300F0A3E50912490FE060119003BCE0C0E083
:102F43007408120B25123505D0E0F0850C82850D2F
:102F530083A3A3A3E0C0E07408120B251263F2D08D
:102F6300E012642EC0E07408120B25123517D0E06E
:102F7300F07408120B2512302CA3A31263F9125913
:102F830049125C3EE82428F582E91254B0125955DF
:102F9300C0E0E8242EF582E91228C8D0E0F07408D6
:102FA300120B25125C40850A82850B83123017248D
:102FB30024F582EB1245E21266FCE50B1230201277
:102FC30008B81246AAEA242BF582EB1228C8124D40
:102FD3008F1208E9851882851983AA82AB8312159B
:102FE300B28E828F83A3A3A3A3A3E0D2E0F0740CD9
:102FF300120B25E06003022DFEE50EA2E050021540
:10300300151514022E0B7900AA0CAB0D1221347482
:103013000D026917A3A3A3A3125E5FEA22124D80D8
:10302300125915751200781022125E5F850A828587
:103033000B83A3A3A3A3228E828F83A3A3A3A3A300
:10304300A31245C9E8F0A3E92274F21203E474EB76
:10305300120963EAFEEBFF89088E828F83A3A3A381
:10306300A3A3A3A3A3E0F9120E388A0A8B0BEA45A4
:103073000B607FE50870047C0480027C088E828FDD
:1030830083A3A3A3A3A3A3A3A3E0F9120E3E122831
:10309300C2124BAF605C88828983125C3C74061257
:1030A3000B251230FA125C407408120B251230FA09
:1030B300A3A3E0C0E07410120B25D0E012596C12E8
:1030C3005C40740E120B25124B767411120B25E41F
:1030D3001256A5F9780A1208BC742059FC74405999
:1030E300F97402120B25AA82AB83122140740212D7
:1030F30008E9741502365BEAF0A3EB1231022212DF
:10310300453CA3A3A3A3A3A32274F71203E474FA75
:10311300120963E9FE7F018F087D008004750800B2
:103123000D1242981231A7EDC3985025ED75F006A4
:10313300A4F8A9F0EA28F8EB39F9E81266F7E912DE
:1031430052F850D9540C60D5E0A2E250D37F0080EE
:10315300CF8A828B83A3A3A3A3A3A3E0703EE50836
:10316300A2E0400574016E70338A828B83A3A3A30C
:10317300A3A3A374011262ABE0C0E07403120B2596
:10318300D0E01262A3E0C0E07404120B25D0E0F09B
:103193007405120B25EF1245931220C874060242E0
:1031A30090F582EF1256B5F822C082C083790112DE
:1031B3002134023725C082C083EA4B60189003B8DC
:1031C300E064027010900F6DE4F0EAFCEBFD7A020C
:1031D3001231ED8012900F6D7401F07A027B009032
:1031E3000301E0F91217D40237257B00900301E0B5
:1031F300F91217C82274F21203E474F3120963EA92
:10320300FEEBFF8E828F83A3A3A3A3A3A3A3A3A3F6
:10321300A3E0F50A900F6DE0700579BA02350075E9
:103223000801750900750C00750D007C087D007997
:1032330000851882851983AA82AB831216A87405A8
:10324300120B257401123528540460127402120BF8
:1032530025E0D2E612352854087003750803E054BC
:1032630010600674404508F508E0540860227402B3
:10327300120B25E044C01235285420600A7403124F
:103283000B25E0D2E080087403120B25E0D2E1F0B5
:103293008E828F83A3A3A3A3A3A3A3A3E070181277
:1032A30010A8851882851983124B767402120B2598
:1032B300E0D2E2F002335F640F70157402120B2543
:1032C300E0D2E3124F68124B574508F50802335F0B
:1032D3008E828F83A3A3A3A3A3A3A3A3E064028EDD
:1032E300828F83700512304480C9A3A3A3A3A3A331
:1032F300A3A3E064037013851882851983AC82ADA0
:1033030083EEFAEFFB1220F880528E828F83A3A301
:10331300A3A3A3A3A3A3E0640170419003BCE06053
:103323001C7402120B25E0D2E3124F5685188285D6
:1033330019831245E5750910750AFF801874021286
:103343000B25E0440C12641B74FDF0A374FFF074AE
:10335300044508F5088E828F831270E11252F250F1
:103363003A7402120B25E0540C701B8E828F831269
:103373005C40121AC8E9700579BB02350074021269
:103383000B25E0D2E5F01252F250107402120B2515
:10339300E0540C64047004E0D2E5F0EE24111270E2
:1033A300C6C0E07404120B25D0E01242B3120B2501
:1033B300E060030234F97408120B2512350C123540
:1033C3001EEE24181270C6C0E0E81266E8E912285F
:1033D300C8D0E0F0EE24191270C6C0E07408120BD6
:1033E30025E02413123C19D0E01243E86401701164
:1033F3009003BCE0C0E07408120B25123505D0E041
:10340300F07408120B251240E32417FAEF1241124D
:10341300FCE8241CF582E91228C8ECF0A3E412505E
:1034230001E0C0E0E82422F582E91228C8D0E0F0E8
:103433007408120B25123517E50AF07408120B25D0
:103443001240F82424F582E9125C05A3E50D125C11
:1034530063FCA3E0FDE82426F582E91228C8ECF01A
:10346300A3ED1238E5124B2DE82428F582E9122842
:10347300C8125E63C0E0E8242FF582E91228C8D0A1
:10348300E0F0EE241B1270C6C0E07408120B251284
:1034930063EBD0E0F0EE241A1270C6C0E074081299
:1034A3000B25E0242E123C19D0E0126413124EF3C4
:1034B3001208B8EE2411124B26740B120B25124D71
:1034C300891208E9EE24151270C65440601B90035C
:1034D30028124BAF6013851882851983AA82AB83A8
:1034E3009003291235FF122187851882851983AA33
:1034F30082AB831215B2740C120B25E0F9740D0222
:10350300365BE02415123C3F221240FC240FF58267
:10351300E9340022E02423123C3F22F583E508F03E
:10352300A3E509F022F0EE24151256B22274F71225
:1035330003E47E638A828B83E0600C7905120C2896
:10354300E9F87456C398FE900364E0600CF9120C1A
:1035530028E9F8EEC39824F2FEEEF902429374F6DA
:103563001203E474FE120963851882851983124BD2
:1035730076E9FEECFAEDFB740C120B25E0FC9004EB
:10358300AE124BAF60328518828519838582088518
:10359300830978081208BC7D01EEF99004AE123558
:1035A300FC12218774021208E98B09EA45096004B9
:1035B3007900800679B2800279B602378674F712F1
:1035C30003E4E9FE7409120B25E0FF90030E124B8E
:1035D300AF601AEFF50878081208C0EEF990030EF1
:1035E3001235FC12218774011208E9800279B602B0
:1035F3004293EEFAEFFB900320E0F8A3123E9D22E4
:10360300125E5F9003032274F21203E48A088B09AB
:10361300ECFEEDFF750A0190036CE065087004A3EE
:10362300E0650970051249DD802A1210AE8A0C8B01
:103633000DE508650C7004E509650D7009EEFAEFF8
:10364300FB1210B4800EEEFCEFFDAA08AB09120CBE
:10365300A0E9F50AA90A80031208E97F060206A376
:1036630074F51203E4EAFEEBFF8C088D09750A0179
:10367300126B4B123735700B90036C123ECB124515
:10368300E5800EAC08AD09EEFAEFFB120CA6E9F5E6
:103693000AA90A025FD774F61203E4EAFEEBFF7A83
:1036A3000C7B0012173EEA4B606BEE24201270C6AF
:1036B3008A828B83F0EE242112371BF0EE24221230
:1036C300371BA3F0EE242312371BA3A3124DC21200
:1036D3005932E8F0A3E91256AA125933A3A3E8F02A
:1036E300A3E91254D08A828B83A3A3A3A3A3A3A386
:1036F300A3F0EE242F1270C6C0E01242981228C81D
:10370300D0E0124B7C8A828B83A3A3A3A3A3A3A39E
:10371300A3A31245E502378B1256B28A828B83A389
:1037230022F0D083D082020881FAEF3400FB121E0C
:103733004C221243CF2212373FA3E02212374322F7
:1037430012374722124E9EA3A322124A02A3E0225B
:1037530074F61203E4ECFEEDFF79B3900363E070BB
:1037630020900395E064017018EE1266F7EF126E75
:10377300C9EE240F1245DFE849600479008002791D
:10378300A1800574021208E97F020206A374F412F1
:1037930003E474FE120963ECFEEDFFEE24161270CF
:1037A300C664057011EE2406FCEF3400FD1220FE02
:1037B300E9700302383A851882851983AC82AD8398
:1037C30012663D1239CC124BAF6068E875F009A45C
:1037D300F8AAF075F009E9A42AF974ED28F874F34E
:1037E30039F9E8FAE9FBEE24121228C5C082C08336
:1037F3008A828B837808120AC8D083D08278081211
:103803000AA8402B8518828519831240E3240F12DE
:1038130028C51238417808120AC89080AC7808127B
:103823000A058A828B837808120AE67900800A796E
:10383300A2800679A1800279C87402022995E8F072
:10384300A3E9123A5E2274F41203E474FF120963CB
:10385300EAFEEBFF900363E07075900395E064016B
:10386300706D75083A75090078081208BC74021265
:103873000B2585820885830978081208BC1238D77E
:103883001208E9E9703EEE1266FEEF123ED51249C8
:10389300A5C0E0EE24111228C5D0E01238E5743A31
:1038A3001256BA900330120B02EE24121228C512DC
:1038B3000B0E9080AC7808120AC890033078081277
:1038C30009CC800BEE240FF582EF124281A3F07432
:1038D300010229957C017D007A007B001212887415
:1038E3000422F0EE240F124D7D2274F01203E474CF
:1038F300F6120963ECFEEDFF7402120B25AC82ADE8
:10390300831220FEE970030239C785188285198363
:10391300AC82AD837402120B25AA82AB831239CC1D
:10392300124BAF70030239C7E875F009A4F8AAF087
:1039330075F009E9A42AF974E928F874F339F988C8
:10394300088909EE240E1239D61249A5F8A3E0F925
:10395300EE240F124E8F120B02EE24121228C51200
:103963000B0E9080AC780C120AC8850882850983F7
:10397300780C1209CC8508828509837808120AC855
:103983009080A8780C120AC87808790C120374E5A1
:103993000C450D450E450F702B8518828519831232
:1039A30040F875F009A4F8AAF075F009E9A42AF91A
:1039B30074F128F58274F339F5837401F07A007B8E
:1039C300101239DE740A023A69121ACE85188285FA
:1039D300198322F582EF124D80E422900527E0F946
:1039E3001216F62274F01203E48A088B09ECFEED3A
:1039F300FFEE240FF582EF124281A3123A5AC082DE
:103A0300C0839080C0780C120AC8D083D082780C0F
:103A13001209796032123A4E70051220E6802AE0CC
:103A230070051220E08022640270131220E0E96026
:103A330018EEFCEFFDAA08AB09121AF2800BE06442
:103A43000360DF79A1800279A3801EEE240EF58244
:103A5300EF1256B5640122123A5E22F0EE2412F5FB
:103A630082EF124D84221208E97F080206A374F63E
:103A73001203E4EAFEEBFFEE240AF508EF1268A94D
:103A8300850882124B2BEC240F12427E124B4712F5
:103A930020B6850882850983124BAC706B123C1DDE
:103AA3007003A3E069600A123BFF7003A3E069702F
:103AB300578E828F83A3A3A3A3A3A3A3A3A3A3121A
:103AC3004B2D8E828F83125C40121AF8E960188E98
:103AD300828F83A3A3A3A3A3A3A3A3A3A3E0240FDE
:103AE300123C19E4F0A3F08E828F831263E38E827B
:103AF3008F83A3A3A3A3A3A3A3A3A3A37005123E8E
:103B0300C58004123EA3E4F0124B9E701A123E507D
:103B1300125C401220DA850882850983124BAC704F
:103B2300061228C274A1F002378B74F61203E4EA7A
:103B3300FEEBFFEE240A123E5F7A187B0012173E5B
:103B4300850882850983123C56F8A3E0F9E8497099
:103B530003023BF6EEFAEFFB1220AA124B9E607FA4
:103B6300123C4364017007123C2A740E8034E064F3
:103B7300027007123C2A740D80288E828F83A3A3C0
:103B8300A3A3A3A3124BAF70EA123C1D7003A3E0DF
:103B93006960E0123BFF7003A3E06960D6123C2A20
:103BA3007405124B50540364017007123E8374056D
:103BB300800B900364E0C0E0123E83D0E0F0EE247B
:103BC3000AF508EF123C10123E91123D56C0E085F3
:103BD3000882850983E02417123C19D0E0801985F7
:103BE300088285098312423E850882850983E4F0B1
:103BF300A380051228C27410F002378B1210A88A12
:103C0300088B09A808A90990061CE068221268A974
:103C1300850882F58322123C3F228E828F83125EB7
:103C23005F90061CE068228E828F83A3A3A3A3A3C5
:103C3300A3A3A3A3A3E02416123C3F22123EAE2269
:103C43008E828F83A3A3A3A3A3A3A3A3A3A3123EA1
:103C5300A7E022EAF0A3EB123C5E22124E9EE02282
:103C630074F11203E48A0A8B0B8C088D097A1812FB
:103C73005DB67003023D498E828F837401F0E508BF
:103C8300240DF8E509126646C3E49AFA95E0FB129F
:103C930067031254B4FB8E828F83A3A3A3A312568C
:103CA300A18E828F83A3A3F0EEFAEFFB120BD485D0
:103CB30008828509831263E570098E828F83A3745A
:103CC300058006900364123D51F0EE2417F8EF349B
:103CD30000F9880C890D8E828F83123D55850C82E5
:103CE300850D83F0EE2416F8EF3400F9E508240E71
:103CF300FAE5093400FB888289831248F1E5082438
:103D0300100A0AE5093400FB850C82850D83E0FC6B
:103D130088828983E0F88A828B83E0C398C39C12EC
:103D23004FF8F0EEFCEFFDAA0AAB0B1220B0E9F559
:103D330008700AEEFAEFFB120BE0E9F508EEFAEF72
:103D4300FB1217448003750810A908026B6E124911
:103D5300FB22A3E0F9120C28E922790102088174FD
:103D6300F41203E4EAFEEBFF8E828F83A3A3A3A3E3
:103D7300A3A3A3A3125C441263E5706B123C4370CC
:103D8300668E828F83A3A3A3A3A3A3A3A3E0242B61
:103D9300123C19123EBD704F8E828F83A3A3A3A33F
:103DA300A3A3A3A3E0242BF888828983123E91E086
:103DB300F8740168600A7406686005740568701316
:103DC3008E828F83A3A3A3A3A3A3A3A3A3A3123E20
:103DD300C580138E828F83A3A3A3A3A3A3A3A3A3AB
:103DE300A3123EA37403F0123E501235FCE4F0EE2E
:103DF3002408F8EF123E4C242D12410BC0E0123E72
:103E030077D0E01256A5242A12410BC0E0123E7768
:103E1300A3D0E01256A5240B123C19123ECB123F3D
:103E2300641243DB8A0A8B0BAC0AAD0B85088285CF
:103E33000983E0240612530C123E69125C40120BF4
:103E4300E01228C2E9F002299812451F22EE240A43
:103E5300123E5722123E5F8882F58322F8EF340028
:103E6300F98808890922123E6D22121E4C850882A8
:103E730085098322850882850983123F68A3A322CB
:103E83008E828F83A3A3A3A3A3A3A3A3A3A3123E5F
:103E93009522E0F8123E9CA322A3E0F583888222B8
:103EA300123EA722E0240E123EAE22123EB222F8A8
:103EB300A3E03400F98882898322E0F812476F6413
:103EC3000522123EA7740222125E5F8508828509CD
:103ED3008322124D80740122023D5DC082C0839013
:103EE300031E74A4F0A37420F09003207498F0A32D
:103EF3007420F09003227492F0A37420F0900324B2
:103F0300749EF0A3742002372474F41203E4EAFECF
:103F1300EBFF123F71F5081210A88A0A8B0BA80A4F
:103F2300A90B8E828F83123F64E0687003A3E0695C
:103F3300602CE508A2E550268E828F83A3E0FB90D8
:103F4300031E1235FC1221878E828F83E0F8A312A1
:103F530050CAA3124BAF7006123F71C2E5F002299B
:103F630098123F6822E0FAA3E0F5838A82228E82C8
:103F73008F83123E95A3E02274F51203E41240D11D
:103F83001240F82420F582E91270C9FE74035EF52D
:103F93000A1248DB1228C81240E388828983F0A3FF
:103FA300A882A983E50A60097402650A60030240D6
:103FB30042740C5EFF601574086F601074046F70B8
:103FC3001D7402650A7005EEA2E4402D8A828B837C
:103FD300A3A3A3A3A3A3A3A3E02423124133740C99
:103FE3006F70101240CC242412411B24241240DE93
:103FF3001241367402650A7005EEA2E44041124094
:10400300CC242612411B24261240E8A31241451258
:1040130040E81241451240DE124136EF600F74084A
:104023006F600A740C6F600574046F70128A828B60
:1040330083A3A3A3A3A3A3A3A3E024221241338AAC
:10404300828B83A3A3A3A3A3A3A3A31241017005FC
:10405300EEA2E150178A828B83A3A3A3A3A3A3A3F6
:10406300A3E0242E1248E212412C800E9003021288
:10407300412C900302E00412453CA3A882A983EEDD
:10408300A2E750421240CC24211240E81241368C60
:10409300828D83124101602E8A828B83A3A3A3A303
:1040A300A3A3A3A3E02430124133EEA2E150178A65
:1040B300828B83A3A3A3A3A3A3A3A3E024311241CD
:1040C3000B88828983F0025FD71240D1E022EA2471
:1040D30008FCEB3400FD8C828D83221248E6A32278
:1040E300125E5FEE221240EC22F508A3E034008555
:1040F3000882F583221240FC22124F61E822E02459
:10410300211248E6E0540322FAA3E01241122234BA
:1041130000FB8A828B83E0221240EC12412CA3A87D
:1041230082A9838C828D83E022E088828983F022B6
:104133001248E612413A22E088828983F0A308A953
:10414300832212413A8C828D83E0242822C082C0CC
:10415300838A828B83123F75F8740358F98A828BA2
:1041630083A3A37401F0E960057402697061740CA0
:1041730058FC601474086C600F74046C7013740240
:10418300697005E8A2E4401D8A828B83A3A37402AD
:10419300F0740C6C700A8A828B83A3A3E02402F070
:1041A3007402697005E8A2E440258A828B83A3A385
:1041B300E02404F0EC600F74086C600A740C6C600B
:1041C3000574046C70098A828B83A3A3E004F0E86E
:1041D300A2E750318A828B83A3A3E004125E67F9BE
:1041E300A3E0F5838982A3A3A3E0540360178A8223
:1041F3008B83A3A3E004F0E8A2E150098A828B83B6
:10420300A3A3E004F08A828B83A3A3E004023724F0
:10421300C082C0838A828B83A3A3A3A3A3A3A3A3E4
:10422300A3A3124BAF60098A828B83A3A3124236E6
:10423300023725A3A3A3A3A3A3A3A3125306121771
:10424300442274F71203E4EAFEEBFF125E578882FE
:104253008983A3A3A3A3A3A3A3A3E4F0A31231027B
:10426300A3A3A3A3F0A3F0E8125BE7E91242811230
:10427300207AEEFAEFFB1220868015F582ED124DBF
:1042830080E4F022740C120B25E0F9740D1208E996
:104293007F010206A3EA240BF582EB2212655F2459
:1042A3000922124D801270E5750E00780C227401FC
:1042B3001245971243512274F51203E474F3120961
:1042C30063EAFEEBFF7C087D00790085188285197F
:1042D30083AA82AB831216A812303A12491EC0E099
:1042E3007404120B25D0E0F07402120B2574011232
:1042F30043E8C0E07405120B25D0E01249246401A1
:1043030070097402120B25E0D2E5F0124347120B39
:1043130025E0702D8E828F83124F091208B88E828A
:104323008F83A3A3A3A31246B5740B120B25124DBF
:10433300891208E9851882851983AA82AB8312152D
:10434300B2025FCB851882851983AA82AB831220C0
:1043530038740C2274F71203E474FE120963ECFE42
:10436300EDFF7508C8851882851983AC82AD831269
:1043730020F8E9640170498518828519831250D7A2
:104383001243CAA3A3E4F0900632E0601B8E828F2F
:1043930083A3A3123EBD70108E828F83A3A3A3A316
:1043A300A3A3A3A37401800D8E828F83A3A3A3A3CE
:1043B300A3A3A3A3E4F0EEFAEFFB122068E9F50848
:1043C300A90874020242901249CFA322121E46E9A1
:1043D300640122124E96E022A3A3A3A3E8F0A3E96B
:1043E300F01210A2221254DDA3E02274F61203E4A9
:1043F30074F4120963EAFEEBFF12303A124515FA20
:10440300A3E0F5838A82A3E0FA7402120B25EA1271
:1044130056A524021249AC7404120B251245E5EA91
:10442300600A7402120B25E06404701C1245091221
:10443300530C7406120B2512450F1249AC74081263
:104443000B25E8F0A3E98056E06401600AE0640606
:104453006005E06405702312450912410BC0E07446
:1044630003120B25D0E01256A5241312530C740625
:10447300120B251256A1241B80C07406120B25E4CF
:10448300F0A3124515241212530C7408120B2512B3
:10449300450F12655BC0E0740A120B25D0E0F0747F
:1044A30006120B25124BAF60287406120B25125C03
:1044B30040120C94E9640170181210A28A088B0947
:1044C300AC08AD097406120B25125C401237357027
:1044D3000F851882851983AA82AB831220BC8021A1
:1044E300851882851983AA82AB83121AD4E96401E1
:1044F300700FEEFCEFFD7406120B25125C401220C8
:1045030062740C02378812451A241222124533248E
:104513001A22F012451A22EE2402F8EF124524E083
:10452300223400F98882898322124533F8A3E022DA
:10453300EAF0A3EB12453CE022F08882898322C093
:1045430082C08374FC1209631245BB1245E58A825B
:104553008B83A3A3E01249AA7402120B2512458F81
:1045630012160C740480001208E9023725C082C0B9
:104573008374FD1209631245A3C0E07402120B2574
:10458300D0E0124593120B38740380DBE8F0A3E903
:1045930012459722F0851882851983AA82AB83225C
:1045A3008A828B83A3A3A3A3A3A312499C8A828B8E
:1045B30083A3A3123E95E0228A828B83A3A3A3A3A2
:1045C300A3A31245C9221245CD22E0F8A3E0F98541
:1045D300188285198322125E5FEE240BF582EF1297
:1045E3004D8012499F22AA82AB8312169C74032228
:1045F30012499F9003302274F41203E474FB1209EE
:1046030063EAFEEBFF8E828F83A3A31240F8240993
:10461300F508E91268A97403120B25AC82AD8388EF
:10462300828983A3AA82AB831220F8E96401706AAA
:10463300851882851983743212491E24F7C0E074E9
:1046430001120B25D0E0F07402120B25E4124593FE
:10465300120D668A0A8B0BAE0AAF0BEE4F603B74EA
:1046630003120B251246A2A3A31243D6C0E0EE24E5
:10467300201228C5D0E0F0750A0078081208B8EEB9
:10468300126EB0EF1246B2EE240B1228C5124D8FF4
:104693001208E9EEFAEFFB120D6074050229951278
:1046A3005E5F8E828F8322E50A2410F582E50B126A
:1046B3004D80E0FC7D0022C082C0831246E6600E7E
:1046C30024FE600F24FE601024FB60118012122070
:1046D3005C800D1220568008122050800312204A5D
:1046E3000237258A828B83A3A3E0F812476F24FB4A
:1046F30022C082C0838A828B83A3A3A3A3A3A3A381
:10470300A3E070528A828B83A3A3E0F812476B6401
:104713000160431247656402603C124765640360AD
:10472300351247656404602E8A828B83A3A3123EED
:10473300BF6023124765640A601C124765640B60FF
:1047430015124765640C600E124765640D600779A6
:1047530004121E3480099003261235FC12218702AD
:1047630037258A828B83A3A312476F22123E9CE0D4
:104773002274F61203E474FA120963EAFEEBFF747F
:1047830003120B25EEF0A3EFF07403120B25AA829C
:10479300AB8312206E1270C360030248D685188261
:1047A3008519837432F07405120B25C082C0838E81
:1047B300828F83A3A3A3A3E0D083D082F8E028C091
:1047C300E07401120B25D0E0124924C0E0740212F8
:1047D3000B25D0E0124909F8A3E0F9E8496026E87F
:1047E3002417F582E91228C8C082C083E82416F58D
:1047F30082E91270C9D083D082F8E028F8740112DC
:104803000B25E028F0851882851983AA82AB8312D1
:104813000D668A088B09A808A909E84970030248AC
:10482300C98E828F83125C4088828983A3A3EAF0B6
:10483300A3EB12490FA3A3E0C0E0E82420F582E92B
:104843001228C8D0E012642EC0E0E82421F582E9E2
:104853001228C8D0E012491EC0E0E8242AF582E9F4
:104863001228C8D0E0F07405120B25E0FA1248DBD9
:104873001270C92A12530CE8242B124B70740512C0
:104883000B25E0C0E0E8242DF582E91228C8D0E02A
:10489300124909FAA3E0FBEA4B6019E8242BFAE971
:1048A30012298BA3A3A3A3A3A3A3A3E024161248B3
:1048B300E21248F18E828F83A3A3A3A3A3A3A3A38E
:1048C300E8F0A3E9800CEEFAEFFB1220741228C281
:1048D3007410F07406023788E8240BF582E922127B
:1048E30048E622FCA3E03400FD8C828D8322E0FCA9
:1048F3008A828B83E02CFCA3E03400FD8A828B83C5
:10490300ECF0A3EDF022125005A3E022F0E81266CA
:10491300E8E9124D807401124F6822124FFCA3E0A4
:10492300221249B9E02274F71203E4EAFEEBFF1204
:1049330070C3701E12495F124BAF60061235F51239
:1049430021871270C3700B125C34120D601228C2DF
:10495300E9F0EEFAEFFB1220740242931220808EEC
:10496300828F83A3A3A3A3A3A3A3A3A3A32274F6C6
:104973001203E4EAFEEBFF8C088D09121AC8E970F2
:104983000479018011AC08AD09EEFAEFFB90032422
:104993001235FC12218702378B1245CDE8F0A3E9CB
:1049A300F02212641FE0222401F8A3E03400F9226C
:1049B3001249B9A3E0221249BD221249C122124F62
:1049C3006CA3A3A3A3A3221249CFE022E8F0A3E997
:1049D3001249D722124F6CA3A322126B4F121E4C03
:1049E30022124B31EEFAEFFB22E0242B123EB2E00F
:1049F3002212373F1249FB22E08E828F83A32212B9
:104A03004DD6A3A3A3A32274F61203E474F31209ED
:104A130063124AF9124B57120B25740CF0740512EA
:104A23000B2574011254D860097402120B257421EA
:104A330080077402120B2574011242B3120B25E096
:104A430070327408120B25124AA1740612491E1201
:104A53004B15EE2402F8EF124524124A8C1262BC65
:104A6300124A8CA31249B3C0E0124A831228C8D059
:104A7300E0126427740C120B25E0F9740D023788D9
:104A8300E508240BF582E50922124A97A3A3A3A301
:104A9300A3A3A322E0850882850983A3A322124B43
:104AA3003F880889098882F5832274F71203E47426
:104AB300F3120963124AF9124B57120B257409F0CA
:104AC3007402120B257421F07405120B251242B1E6
:104AD300120B25E0701D7408120B25124B37740757
:104AE300124B50124B15851882851983AA82AB830A
:104AF3001215B2024287EAFEEBFF7C087D007900C3
:104B0300851882851983AA82AB831216A88E828F99
:104B13008322FCA3E0FD88828983A3AA82AB83124C
:104B23001E4C22F582EF3400F583124B3122E0FC58
:104B3300A3E0FD22124B3F88828983221249ECF8BD
:104B4300A3E0F922124F67125306227401124F6831
:104B5300A3A3E02212499C7404221216A88508829A
:104B6300850983A322E0F508A3E0F50922F582E98C
:104B7300124D80EAF0A3EBF022124B80221249D7A8
:104B8300124F6122C082C083124B977444F0A37406
:104B93002002372412208C900326228E828F83A337
:104BA300A3A3A3A3A3A3A3A3A31256BF1240FC4989
:104BB3002274F71203E4E9FE124BE11228C8124BE8
:104BC300AF601888828983A3E05403700EEEFB1252
:104BD30048DB1228C8124C12124C0C024293EA1200
:104BE3005BE7EB22C082C083EAF8EBF98882898312
:104BF300A3A3A3A3A3E0FB88828983A3A3A3A312F4
:104C03004C12A3124C0C023725E0F91215D022E006
:104C1300FA88828983A3A32274E81203E48A088BA7
:104C2300098C168D178914741A120B25E0F50AA343
:104C3300E0F50B741C120B25E0F513741D120B2504
:104C4300780C120AC812626CEB1270C9242DFA7B1D
:104C5300001216BA8A108B11AE10AF11EE4F70030B
:104C6300024D5D8E828F837401F0850810850911D2
:104C730075120078101208B87C157D00EE24181206
:104C83004D671208E985161085171178101208B8B8
:104C93007C097D00EE2402124D671208E974181294
:104CA3000B251245D9850A82850B83E0C0E0EE24EB
:104CB3000F1228C5D0E0124D9DC0E0EE241112283A
:104CC300C5D0E0124D98C0E0EE24101228C5D0E004
:104CD300123A5AE513124DC2E4F0A3F0124D76785E
:104CE3000C120AE6EE24171228C5E51412374DF804
:104CF300A3E0F9EE240D1228C5124DBC1268CB12A5
:104D030070C96025EE24261252EA242DF8124DB400
:104D13001267051242A51208B81268C91246B28A70
:104D2300828B83124D8F1208E9EE24191270C65438
:104D330003601D90031C124BAF600CEEFAEFFB12E5
:104D430035FF1221878013EEFAEFFB1216C0800A9B
:104D5300EEFAEFFB900301124F5002691A7C087DB3
:104D630000EE2404FAEF124D6D223400FB12169C60
:104D7300740322EE2413124D7D22F582EF124D842B
:104D8300223400F58322E0242B123C3F12530612F7
:104D9300169C740322124DABE022124DA2E02212A4
:104DA3004DA622124DABA322F0850A82850B83A365
:104DB30022EF3400F98A828B8312499FE50822F09F
:104DC300EE2426124D7D22F50CA3E0F50D750E00A1
:104DD300780C22123747A3A3A32274F11203E48AA7
:104DE300088B097A20124EE3606F8E828F837406DC
:104DF300124EFF8E828F83A3A3A3A31237398E8211
:104E03008F83124E69124DCA1208B87C107D00EED2
:104E13002406124D671208E9850882850983A3A336
:104E2300A3124E5F2416FAEF3400FB120C8E850892
:104E330082850983A3A3A3A3A3A3A3A3A3A3E0C0DE
:104E4300E0EE241E1228C5D0E0124E79C0E0EE2415
:104E53001F1228C5D0E0124E81026B6EA3A3A3A339
:104E6300A3124B31EE22A3A3A3A3A3124E722212C9
:104E73003743A3A3E022F0124A831256B522F0EE81
:104E8300FAEFFB900527E0F91216C622124D7D12A8
:104E93004E9622E8F0A3E9124E9E22F08508828501
:104EA300098322124EAA22123C5EF8A3E0F98E82F5
:104EB3008F83A3A32274F41203E48A088B097A0C68
:104EC300124EE360188E828F837408124EFF124EC7
:104ED300F31208B8124D601208E9124F49022998DB
:104EE3007B001216BA8A0A8B0BAE0AAF0BEE4F2267
:104EF300F508A3E0F509750A00780822124EAA12F4
:104F03004E96A3A3E022A3A3124B68750A00780868
:104F13002274F61203E4EAFEEBFF7A057B00121615
:104F2300BAEA4B601E8A828B83740A124F568A82B6
:104F33008B83A3A31249CA8A828B83A3A3A3A3F05F
:104F4300124F4D02378BEEFAEFFB900527E0F91273
:104F530016C622124F5A22124F6C124F6122E0F8EA
:104F6300A3E0F922A3124F6C22F08E828F8322C01A
:104F730082C083E9900F6FF09003187456F0A37406
:104F83000BF090031A7468F0A3740BF090031C7475
:104F93007AF0A3740B02372474F71203E4EAFEEBEE
:104FA300FF8908EE4F7003121B5890032A124BAF70
:104FB300700890032A8022125E5B88828983A3A3F0
:104FC300A3A3A3A3A3A3A3124FF288828983A3A3BA
:104FD300A3A3A3A3A3A3A370DEEEF0A3EF12500138
:104FE300E4F0A3124FF8A3A3A3E508F0024293123F
:104FF3005306EA4B22124FFC221249D7A322125026
:1050030005221254E1A3A32274F71203E490032AA6
:10501300800D8E828F83A3A3A3A3A3A3A3A3A31211
:105023006593EE4F60348E828F83A3A3A3A3A3A3C0
:10503300A3E06970DD8E828F83A3A3A3A3E06A70CC
:1050430003A3E06B70CC8E828F83A3A3A3A3A3A33C
:10505300E06C70BEEEFAEFFB80047A007B00024244
:105063009374F71203E490032A12659390032A12B0
:10507300301B687002EB6970171250CA125E5B90A6
:10508300032A1245E590032A126593803012658640
:10509300EE4F60298E828F83A3A3A3A3A31230179D
:1050A300687002EB6970E68A828B83A3A3A3A3A330
:1050B300A3A3A3A31250D7A3A3A31245E512174496
:1050C300EEFAEFFB024293123E9DA3A3A3A3A3A375
:1050D300A3A3A322125321A3A32274F01203E47403
:1050E300FA1209638A088B098A828B83A3A3A3A379
:1050F300A3A3A3A3E0600D640160098A828B8312DA
:1051030052FE600579020252E5850882850983A370
:10511300A3A3A3A3A3A3A3E0640370157404120BB6
:1051230025AC82AD83AA08AB091220F8E97013807D
:10513300D3850882850983125E5B7404120B2512E2
:1051430045E51266ED1270C9243212530C12173E54
:105153008A0A8B0BAE0AAF0BEE4F70030252E37C4D
:10516300327D0079001216A87402120B25AA82ABB5
:1051730083850882850983A3A3A3A3A3A3A3A3A3CE
:10518300E0F91216127402120B25E0C0E0EE242D92
:105193001228C5D0E0F0EE242CF50AEF3400F50B0D
:1051A3007403120B25E0850A82850B83F07901EEE7
:1051B300FAEFFB120B4485080C85090D750E007878
:1051C3000C1208B87C1C7D00EE240B124D671208EC
:1051D300E9EE24301252EA24320808124DB42411A5
:1051E300F8E5091270BEFCE9FD8C828D831240E361
:1051F300242E1228C5124DBC1256831268D21208EF
:10520300B88C828D83124B2D8A828B83124D8F1221
:1052130008E97404120B2512531D1245E59003028D
:10522300125313F0900302E0041256C6242A125BB1
:10523300F4750D00850A82850B83E0780C1209F260
:105243008A828B83E50CF0EE24291228C5E50C1223
:10525300641BE4F0E5082415F582E5091252F8749D
:10526300015007120B2574018004120B25E4F0EEA4
:105273002427123E5F851882851983AA82AB831285
:1052830015FAE924FE850882850983F0F508750976
:1052930000EE242E124B26ECF8EDF9AA08AB091206
:1052A300029BE88E828F83A3A3A3A3A3A3A3A3F04C
:1052B300ECF8EDF9AA08AB0912029B8B09EA450940
:1052C300600F8E828F83A3A3A3A3A3A3A3A3E0044E
:1052D300F0EE24201270C64408125C6B7900800241
:1052E30079107406023A691270BCFAE9FBEE22EEF9
:1052F3002415F582EF1256B5A2E0221253061211BD
:1053030044E922E0FAA3E0FB22FAA3E03400FB2203
:105313001249FBA3A3A3A3A3A32212532122124F37
:10532300618E828F83A3A3A3A32274F41203E4EAFE
:10533300FEEBFF125BEC124B76900FBCE0F8EE2411
:105343002B1270C6C39840030254A2125C0C701552
:10535300EE242B1270C6041254D0C0E0EE2429129E
:1053630028C5D0E0F0EE24281270C6FC7900800135
:1053730009EE242C1231A4E9C3985026750801754F
:105383000900E978081209F2125C0C550860E1E99A
:105393002CFC750801750900E978081209F2E0454B
:1053A30008F0EE24271254BDEE242E1228C5EC8AF1
:1053B300088AF0A4F8ABF0E42BF9E098F8A3E0999D
:1053C300F9C3E89508E99400EE403924271231A483
:1053D300125C0C6037EE242D1228C51254CAA3E4C4
:1053E300F0EC7054EE24201270C644201243E8C03F
:1053F300E0EE24261228C5D0E0F0EE24301254BD8E
:10540300A3E0805924291228C574FFF090035CE0BF
:10541300FA900FBFE0F508EA8508F0A4ABF075F049
:1054230064A4FAADF075F064EBA42DFB8E828F8338
:10543300A3A3EAF0A3EB80A8EE24201270C654DFE6
:10544300124DC2ECF08C08EE24271270C68508F0CA
:10545300A4FAABF0EE2430F582EF1254B4FBEE2441
:105463001EF582EF1254B01254D8C0E0EE24251278
:1054730028C5D0E0F0EE241C1228C5E81256BA90D5
:10548300032C124BAF600BECF91235FF122187E9A5
:105493007018EE240BFAEF3400FB122122800B7BF1
:1054A300E9EE2422F582EF12568D02299812640642
:1054B300221256B52AFAA3E03B221254C122F582E6
:1054C300EF124D84E0FA221249FBA3F022F0EE24FE
:1054D3002A1256B2221254DDE0221254E12212495A
:1054E300C1A3A32274F41203E490032A1265931256
:1054F30017E68A0A8B0B7CFF7DFF8020E0C398FAB6
:10550300A3E099FBC3EA9CEB9D500E8E828F83A38D
:10551300A3E0C398FCA3E099FD126586EE4F6059A2
:10552300125E57E50AC398F8E50B99F98E828F83CB
:10553300125C3EC3E89AE99B8E828F83A3A340BC8F
:10554300A3A3A3A3E06402701DEE240B125C0F60FF
:105553000CEE24101228C5125C401216C0EEFAEFAE
:10556300FB120B508007EEFAEFFB120B5C7A017B08
:1055730000900F6F1239E1801474FF6C700374FF95
:105583006D600A7A017B00900F6F1231F202299845
:1055930074F01203E48A088B09ECFAEDFB890A7CA8
:1055A300011266ED125BFE8A0C8B0DAE0CAF0DEE95
:1055B3004F7003025680E50A6003025680E5081225
:1055C3005683E0F8EE24281270C668600302568002
:1055D300EE242C1254BDE82AF8E43400F98E828FAD
:1055E30083A3A3A3A3A3A3A3A3E0FAE89AE9940044
:1055F300C365D033401412591D125C12700C7B002A
:105603001266E6E50912568D807312591D125C125B
:105613007031EE242C1270C6F9EE24291228C575B8
:1056230008FF750900E978081209F2E508F0EE248D
:105633002A1228C5E5081256AA29F0EE242B12399E
:10564300D68022E5082414F8E5093400F9E0C0E027
:10565300EE242A1228C5D0E01256A5C0E0EE242974
:105663001228C5D0E01256C6242D1228C5123D516A
:10567300A31256BA7A01FB900F6F1239E1023A6C0A
:105683002413F582E509124D80221254C4EE24142A
:10569300124D7D124C0CEEFAEFFB120B5022EAF086
:1056A300A3EB12453CE022F0EE24281256B222F579
:1056B30082EF124D84E022F0A3E4F022E0240F12E3
:1056C3003EAE22F01217E68E828F83EAF0A3EBF050
:1056D300EE2274E81203E474FD120963E98518826B
:1056E300851983F08A0A8B0B8C168D17741B120B8A
:1056F30025125915741D120B25780C120AC88A82BB
:105703008B83A3A3E0F91215EE8A128B13EA4513D8
:1057130070077A007B000259107A127B0012173E41
:105723008A088B09AE08AF09EE4F700302590C7C4F
:10573300127D0079001216A87401120B25AA82AB00
:1057430083850A82850B83A3A3E0F9121612EE2444
:105753000FF508EF1268A97402120B25E085088281
:10576300850983F07902EEFAEFFB120B448516826A
:1057730085178312531DE8F0A3E91259558E828FC2
:1057830083A3A3A3A3A3A3A3F07514FF7515008597
:105793000882850983E078141209F21228C2E514FD
:1057A300F0851282851383A3E0F812476BC0E0EE05
:1057B300240B1228C5D0E012595FF508EE240D1210
:1057C30028C5E508F0125C17E08508F0A42424FA44
:1057D300E5F03400FB1216BA8A088B09EE12626DEB
:1057E300EF124B73EA450970030259018A828B83D6
:1057F300741A1256BA8A828B83A3A3F0A31259494F
:105803001259321245E5AC16AD17EA2406FAEB3409
:1058130000FB122110850A82850B83A3A3A3E0C09A
:10582300E0E508240FF582E5091228C8D0E0F090DE
:105833000379125E5BE508241012592612596CA3F2
:10584300125E5BE5082412125926124D9DC0E01228
:10585300591D1228C8D0E0F0E50A125BE7E50B12E8
:1058630070C9C0E0E5082415F582E5091228C8D0FF
:10587300E0125940C0E0E5082416F582E509122834
:10588300C8D0E01274D5E0C0E0E5082417F582E53E
:10589300091228C8D0E01274D5A3E0C0E0E50824BB
:1058A30018F582E5091228C8D0E01249A5C0E0E541
:1058B300082419F582E5091228C8D0E0F0E5082488
:1058C3001AF582E5091228C8780C120AE6E50824BD
:1058D30024F8E5093400F9E5082422F582E50912E4
:1058E30045E2E50A1266E8E50B1270C9C0E0E50877
:1058F300241FF582E5091228C8D0E0F0800BEEFAE8
:10590300EFFB120B507E007F00EEFAEFFB740302F5
:105913006917E0F510A3E0F51122E5082414F582D8
:10592300E50922F582E509124D80E8F0A3E922E0BA
:10593300F8A3E0F98A828B83A3A3A3A322F08510A3
:1059430082851183E02212594D22124DA6A3A3A3EF
:10595300A322F01266F5E50B1256B522F0E50A24F0
:1059630010F582E50B1256B52212594DA3A3A322BB
:1059730074E81203E48A0A8B0B8C108D118914745A
:1059830018120B25E0F516A3E0F517741A120B2570
:10599300780C120AC8750900EA2413F582EB127019
:1059A300C9F50890032C124BAF6011A90890032C82
:1059B3001235FC122187E96003025BE47C02851047
:1059C30082851183125C401266F5E50B125BFE8A39
:1059D300128B13AE12AF13EE4F704B850A82850BF9
:1059E30083A3E0A2E04003025BE4780C1208B478DE
:1059F300161208BCA914AC10AD11AA0AAB0B120BFA
:105A03006E74061208E98A0C8B0DAE0CAF0DEE4FC7
:105A13007003025BE48E828F83A3A3A3A3A3A3A338
:105A2300A3E508125C6B85080C8E828F83A3A3A366
:105A3300A3A3A3A3A3E024FFF8E434FFF9E8650CD0
:105A43007001E97003750901EE240B125C0F7003FA
:105A5300025B97850A82850B83A3E0A2E05003755E
:105A63000800125C4BE50C98E499C365D033401EE3
:105A7300E0F8EE240E1270C628F0750CFF750D00C9
:105A8300E8780C1209F2EE125BE7EF125C0512667E
:105A9300FCE50B1242A51208B81246AA85080CEEC3
:105AA300240D1270C6850CF0A4F8A9F0EE24101290
:105AB30070C6242212410B28FAA3E039FB1245EDEC
:105AC3001208E9750C01125C23780C1209F21270AA
:105AD300C3450CF0E509A2E05069EE240C125BF417
:105AE300125C2304780C1209F28A828B83E0450C42
:105AF300125C6385080C850CF0A4F8E50A12626D4C
:105B0300E50B1270C9FCE82CFCE5F03400FDEE2433
:105B1300101228C5125C44125E63F47026EE240B47
:105B2300F50CEF3400F50DEE24101228C5125C407D
:105B3300850C82850D83124F50850C82850D8374ED
