:020000040000FA
:06000000020A9402020F47
:03002B000208DFE9
:0300530002013572
:03006B0002042765
:1000830002019C0101FF01010503010F10FEFFDACC
:1000930014DA14DA14DA1490138A13DA14C123006D
:1000A3000000008524000000000C0000000C00018B
:1000B300FFFF0101010027050000009E05B80102B2
:1000C30002008810060502070401051E02051E0230
:1000D3000A0A03B80B02803E010201FFFF010A0175
:1000E3001401E096511800020206FF010900EF50C7
:1000F3000F0D100006FF841F8A1F901F961F00001C
:1001030000000000000000000000000000000000EC
:10011300000000001020202020202020202020206C
:10012300202020202001100401000100057580011A
:10013300DC80C0E074F112048CA2AFE433FED2AFD2
:10014300E5A7FFE5A1F5085FF509741055096006F9
:10015300121BE275A1EF740855096008121BE875BC
:10016300A1F7802BEFA2E0C0D0E508A2E092F01245
:1001730009BB158182F05017906198E0F8900668EA
:10018300E0C398A2D265D0335002E8F075A1FEEE29
:10019300A2E092AF7F02020543C0E074F212048C26
:1001A300A2AFE433FED2AF9061A4E0F8759B00E503
:1001B3009158540860087591F7121C2A802AE5911A
:1001C30058541060087591EF121C30801BE8A2E0B0
:1001D300C0D0E591A2E092F01209BB158182F050E4
:1001E30007E0C2E0F0121D749061A3E0F8E5E9585E
:1001F3005404600E121D4A75E9FB906193E0A2E678
:1002030040F2EEA2E092AF7F01020543C0E074F238
:1002130012048CA2AFE433FED2AF9061A5E0F8E5FF
:10022300BF585404600675BFFB121D8680D4C3E417
:1002330098F8E499F91202728026C3E49AFAE49BCF
:10024300FBE920E7E9120272E498F8E499F922C382
:10025300E498F8E499F9120272E498F8E499F9C37E
:10026300E49AFAE49BFB22EB20E7CFE920E7E0B92D
:100273000010BB0008E88AF084F8AAF022E4FBC867
:10028300FA22EB70227B10C833C8C933C933500735
:10029300C39AC3DBF280069A50012ADBEAC833F41F
:1002A300C8C933F4C9FA2275F008E4C833C8C9339E
:1002B300C933C99AC99B5004C92AC93BD5F0ECFB81
:1002C300C833F4C8E4C9FA22080808EAC0E0EBC05E
:1002D300E086F0E7A4FA180986F0E7A42AFA1809D9
:1002E30086F0E7A42AFA180986F0E7A42AFA198601
:1002F300F0E7A4FBE5F02AFA190886F0E7A42BFB44
:10030300E5F03AFA190886F0E7A42BFBE5F03AFA90
:1003130018180986F0E7A4C5F02BFBE43AFA19088C
:10032300E7C5F0C6A426F6E5F03BFBE43AFA1886E7
:10033300F0E7A4F6E5F00826F6E43B08F6E43A080D
:10034300F6D0E0FBD0E0FA22E4CFC0E0E4CEC0E098
:10035300E4CDC0E0E4CCC0E075F020C3E633F6089A
:10036300E633F608E633F608E633F6181818EC33E6
:10037300FCED33FDEE33FEEF33FFC3EC9709ED974E
:1003830009EE9709EF97191919400FFFEC97FC092C
:10039300ED97FD09EE97FE191906D5F0BEECF709A6
:1003A300EDF709EEF709EFF7191919D0E0FCD0E0E2
:1003B300FDD0E0FED0E0FF222518C582C0E0E5199C
:1003C30034FFC583C0E0E518C3958224F810AF0855
:1003D3008583198582188008858319858218D2AF91
:1003E300CEF0A3E520F0A37808E608F0A3DEFAEF49
:1003F300F0A3E58124FAF8E608F0A3E608F0A3E603
:1004030008F0A30808E608F0A3E608F0A315811591
:1004130081D0E0FED0E0F8158115811581E8C0E0B8
:10042300EEC0E022C0E074F212048CA2AFE433FE0B
:10043300D2AF900F4EE4F0E589A2E0500653ABFE35
:100443007401F0E589A2E7501BE0A2E0401653AB2C
:100453007F900F4FE4F07C64FDFA7B08900F50E02F
:10046300F91217A4900F4EE060107C647D007A109F
:100473007B00900F50E0F91217A4758900C2C5EEF6
:10048300A2E092AF7F01020543C0D02518C582C008
:10049300E0E51934FFC583C0E0E518C3958224F372
:1004A30010AF088583198582188008858319858292
:1004B30018D2AFC8F0A3E9F0A3EAF0A3EBF0A37955
:1004C30008E709F0A3D8FAECF0A3EDF0A3EEF0A34C
:1004D300EFF0A3D0E0F0A3D0E0F0A3D0E0F0A3E5E9
:1004E30020F0A3E5F0F0A322120AF6B900030205F7
:1004F3002DE4900301786A790D8002F0A3D8FCD92A
:10050300FA900F6AAA82AB8390008678B079018053
:1005130015E493A3AC82AD838A828B83F0A3AA8272
:10052300AB838C828D83D8E9D9E77582147583B741
:100533007404120857758264758321740012085776
:10054300851983851882E0C0E0A3E0F9A3E0FAA34C
:10055300E0FBA37808E0F608A3DFFAE0FCA3E0FDE4
:10056300A3E0FEA3E0FFA3E0C0E0A3E0C0E0A3E0BC
:10057300F5D0A3E0F520A3E0A3F5F010AF08858341
:10058300198582188008858319858218D2AFD08295
:10059300D083D0E0F8D0E0320C75F0108E1A8F1BA8
:1005A30085821F85831E851882851983E0CEA3E08B
:1005B300CF851F82851E83EBC9EAC8EDCBECCAC386
:1005C300E833C8E933C9EA33CAEB33CBC3EA9EF550
:1005D3001DEB9FF51CB35004AB1CAA1DEC33CCEDF3
:1005E30033CDD5F0DAAE1AAF1B22D083D082ECC064
:1005F300E0EDC0E0E493A3FCE493A3FDED4C600DB8
:100603001206C5EC24FFFCED34FFFD80EFE493A359
:10061300FCE493A3FDED4C600D120762EC24FFFC98
:10062300ED34FFFD80EFD0E0FDD0E0FCE493A3C008
:10063300E0E493C0E022851983851882E0A3FEE0FD
:10064300A3F5207808E0A3F608DFFAE0A3FFE0A310
:10065300C0E0E0A3C0E0E0A3C0E0E0A3C0E0E0A30B
:10066300C0E010AF08858218858319800885821839
:10067300858319D2AFD083D08202085DD083D08224
:10068300E9C0E0E493A3C386F0C5F095F0F908E46C
:1006930093A386F0C5F095F0700BE493A3C3994040
:1006A30005E9048002A3E475F002A42582F582E53E
:1006B300F03583F583D0E0F9E493A3C0E0E493C07D
:1006C300E022C0E0C3E49396087401939618400FA8
:1006D300E49366700808740193661870007019A398
:1006E300A3C3E49396087401939618A3A3400DD073
:1006F300E0D0E0D0E0020629A3A3A3A3A3A3D0E004
:10070300227404800474028000CCC0E0EDC0E0E5F4
:1007130018C39CCCAD1950011D10AF068C188D1950
:1007230080068C188D19D2AF1207D9D0E0FDD0E026
:10073300FC2274028000CCC0E0EDC0E0E518C39C4D
:10074300CCAD1950011D10AF068C188D1980068C85
:10075300188D19D2AF1207B7D0E0FDD0E0FC22C04C
:10076300E0C0F088F0E4936670080874019366189B
:100773007000A8F0A3A3700BD0F0D0E0D0E0D0E0DD
:10078300020629A3A3D0F0D0E022D083D082CCC02C
:10079300E0E493A360061208191470FAE493A360CB
:1007A300061209291470FAD0E0FCE493A3C0E0E434
:1007B30093C0E022CAC0E0E493A3C582CCC582C53E
:1007C30083CDC583F0A3C582CCC582C583CDC58344
:1007D300DAE5D0E0CA22CAC0E0E0A3C582CCC58274
:1007E300C583CDC583F0A3C582CCC582C583CDC5E2
:1007F30083DAE6D0E0CA22700908080822601618D6
:100803001818C6C333C608C633C608C633C608C6D7
:1008130033C6D5E0EA22C0E0E493A3D39C5010E4AE
:1008230093A3C39C400AD0E0D0E0D0E00207AAA380
:10083300A3A3D0E022C008C3E096F50808A3E0967E
:10084300420808A3E096420808A3E0964508700111
:10085300D3D00822C09FF59FE473D09F22D083D0CA
:1008630082C09FE493C0E0740193C0E0740293F5E7
:100873009F222518F58210AF08F51840021519803C
:1008830008F51840021519D2AF8519832274048024
:100893000A74038006740280027401C0E0F4041237
:1008A3000875D0E0120AD122BB0102E722C082C040
:1008B3008389828A83BB0003E08002E493D083D0E0
:1008C3008222C0D0251810AF08F5185002051980F0
:1008D30008F51850020519D2AFD0D022C0E0C0D01D
:1008E300E8C0E0E5A8D2AFC2C7A2E792AFD0E0F874
:1008F300D0D0D0E0326016080808C6C313C618C6A5
:1009030013C618C613C618C613C6D5E0EA22C3E039
:10091300C696F608A3E0C696F608A3E0C696F608C0
:10092300A3E0C696F622C0E0E493A36C7009D0E07E
:10093300D0E0D0E00207AAA3A3D0E022251810AF8D
:1009430008F518400215198008F51840021519D248
:10095300AF22E066701008A3E066700A08A3E066A1
:10096300700408A3E06622E76670100809E7667062
:100973000A0809E76670040809E76622C3E09608D7
:10098300A3E09608A3E09608A3E096A2D265D0332D
:1009930022C3E096F008A3E096F008A3E096F008DF
:1009A300A3E096F022E026F008A3E036F008A3E0E7
:1009B30036F008A3E036F022C0E0E8C0E0E5812489
:1009C300FCF8E6A2E7D0E0F8D0E022700422600D44
:1009D30018C6C333C608C633C6D5E0F41822E026CA
:1009E300F608A3E036F608A3E036F608A3E036F6E9
:1009F30022E627F60809E637F60809E637F6080976
:100A0300E637F622E657F60809E657F60809E657E9
:100A1300F60809E657F622E056F608A3E056F6086C
:100A2300A3E056F608A3E056F622E056F008A3E04A
:100A330056F008A3E056F008A3E056F022E647F686
:100A43000809E647F60809E647F60809E647F622E5
:100A5300E4C396F608E496F608E496F608E496F6F8
:100A630022C6F4C608C6F4C608C6F4C608C6F4C649
:100A730022C3E7960809E7960809E7960809E79667
:100A830022C3E09608A3E09608A3E09608A3E096A5
:100A93002275D00075814075180175190300020491
:100AA300EBE0F608A3E0F608A3E0F608A3E0F622DD
:100AB300600C08C6C313C618C613C6D5E0F422E6F5
:100AC300F008A3E6F008A3E6F008A3E6F022CAC004
:100AD300E0E6F0A308DAFAD0E0FA22E0FAA3E0FBBA
:100AE300A3E0FCA3E0FD22EAF0A3EBF0A3ECF0A368
:100AF300EDF022E5C754F84401F5C7790122251822
:100B0300F582E43519F58322C2AF75D69F02000042
:100B1300221208608C4E00120860EA4E0012086030
:100B2300134F00120860834F00120860DC4F00125D
:100B33000860555000120860A552001208605F5407
:100B4300001208600B55001208604D560012086031
:100B5300EB5800120860F15B00120860FE5B0012A4
:100B630008608C5C001208603E5D00120860865DC0
:100B730000120860E65D00120860025E0012086061
:100B8300365E001208606B5E00120860545F00124C
:100B930008600960001208605E6200120860AB63BF
:100BA300001208604E6400120860DB6400120860E3
:100BB300116500120860C365001208609566001293
:100BC3000860506800120860A46800120860D868C2
:100BD300001208605369001208602D6A0012086051
:100BE300EB6A00120860306B00120860486B001259
:100BF3000860DF6B00120860506E001208606570B9
:100C030000120860837000120860A170001208606F
:100C13007B71001208609974001208600080021250
:100C230008603580021208605B80021208609580BC
:100C330002120860A78002120860F980021208609D
:100C43005A8102120860E48102120860888202124B
:100C53000860D082021208600A83021208602783A8
:100C6300021208604C83021208609E83021208601D
:100C7300B78302120860DD8302120860FC8302124C
:100C830008603784021208607B8402120860A28421
:100C930002120860F38402120860A385021208603E
:100CA3005B8602120860238702120860E387021240
:100CB30008602788021208604C88021208608F8837
:100CC30002120860DC8802120860348A021208608B
:100CD300BA8A02120860D88A02120860028B0212D2
:100CE30008601C8B021208602B8B02120860368B83
:100CF30002120860F68B021208604F8C0212086021
:100D0300118D02120860198D02120860918D021272
:100D13000860E08D02120860268E02120860678E5A
:100D230002120860F78F02120860AF900212086087
:100D33001B91021208604692021208605792021237
:100D43000860CD92021208605F9302120860B793A5
:100D5300021208607794021208609E9402120860DF
:100D6300BC9402120860CE9402120860219502120C
:100D730008605E95021208606B9502120860EE9699
:100D8300021208604398021208605C98021208601D
:100D9300989902120860339A021208606C9A021240
:100DA3000860B89A02120860D49B021208601D9E64
:100DB30002120860289E02120860339E0212086025
:100DC3003D9E02120860489E02120860629E021253
:100DD30008606C9E02120860769E02120860819E73
:100DE30002120860A99E02120860049F02120860A2
:100DF300289F021208604C9F02120860AA9F0212E9
:100E03000860EE9F021208600AA00212086081A027
:100E130002120860B9A00212086005A1021208605C
:100E230062A1021208601CA20212086000A402124E
:100E3300086059A40212086089A502120860AFA5D0
:100E43000212086038A702120860B4AA02120860EE
:100E530086AC021208604FAE02120860FCAE0212AA
:100E6300086067B00212086006B10212086053B14D
:100E730002120860BDB102120860CCB10212086010
:100E830053B40212086005B60212086072B6021269
:100E9300086051B7021208606AB802120860E7B925
:100EA3000212086006BA021208605BBA02120860F6
:100EB30060BB0212086088BB02120860E0BB02122A
:100EC3000860BFBC0212086003BD021208604EBD79
:100ED30002120860B9BD02120860FABE021208606D
:100EE3005EBF02120860ACC0021208600CC302129B
:100EF30008603DC302120860F5C4021208604AC5C7
:100F0300021208604EC602120860EBC602120860A5
:100F130044C702120860F7C70212086099C8021298
:100F2300086039C902120860DEC902120860E28053
:100F330001120860218101120860688301120860B0
:100F4300B28301120860CD84011208603D8501124D
:100F53000860728501120860E686011208606989DB
:100F630001120860928A01120860288B011208603E
:100F7300309401120860C59401120860AC97011205
:100F830008609F98011208600099011208601C9A7A
:100F930001120860019C01120860129E0112086090
:100FA3007C9E011208604E9F0112086005A0011289
:100FB30008600FA0011208603DA001120860FAA0AA
:100FC30001120860D1A10112086098A20112086001
:100FD3004AA30112086073A30112086095A30112CA
:100FE3000860EBA501120860C3A60112086007A7F9
:100FF300011208606FA70112086027A80112086098
:1010030059A8011208609DA801120860D3A8011213
:1010130008601FA90112086074A90112086079A968
:1010230001120860CCA901120860F1A9011208603D
:1010330000AB0112086064AB01120860D4AB01126B
:10104300086060AC011208602DAF0112086011B096
:101053000112086094B101120860CAB3011208605A
:1010630078B40112086028B50112086069B701124B
:1010730008600CB80112086053B801120860FFB988
:101083000112086013BA011208601DBA0112086048
:1010930045BA0112086051BA0112086070BA011210
:1010A300086055BC011208608CBC0112086096BC34
:1010B30001120860A0BC01120860FBBC01120860A9
:1010C30045BD011208604DBE01120860A4BE0112A5
:1010D3000860F3BF0112086037C001120860DFC067
:1010E30001120860C2C1011208606DC201120860DA
:1010F300B9C301120860B7C4011208605DC50112CB
:101103000860EDC50112086004C6011208603BC601
:101113000112086045C60112086050C6011208603A
:101123006EC601120860B2C6011208600FC7011231
:10113300086034C7011208604EC701120860DAC79D
:1011430001120860F7C80112086064C9011208603F
:101153004BCA0112086072CA01120860E6CA011282
:10116300086061CB0112086065CC011208605BCD99
:10117300011208600ACE011208601DCF0112086037
:10118300B9CF0112086046D00112086024D10112C0
:1011930008605CD101120860B4D1011208607DD2ED
:1011A300011208609ED20112086025D30112086063
:1011B30049D3011208606BD301120860B4D3011242
:1011C3000860CAD501120860B1D60112086062D75F
:1011D3000112086098D901120860E8D90112086069
:1011E30028DA011208606ADA01120860C6DA01120D
:1011F3000860F4DA0112086018DB011208606BDB87
:101203000112086099DB01120860D2DB0112086049
:1012130027DC011208608DDC01120860E1DD011298
:10122300086004E00112086071E0011208609AE0AE
:101233000112086025E1011208608CE101120860C7
:10124300D7E101120860FBE1011208601FE20112FD
:1012530008607AE20112086095E2011208604EE329
:101263000112086088E3011208608C890412086087
:10127300C48904120860E58904120860278A0412ED
:1012830008608D8A04120860978A04120860A78A8E
:1012930004120860DC8A04120860258E04120860B8
:1012A300CF8F04120860CF9104120860A2CA021201
:1012B3000860E8CA02120860C8CB02120860CACCF0
:1012C30002120860CDCD0212086059CF02120860E5
:1012D300B7CF0212086074D00212086092D10212D2
:1012E300086003D2021208603FD2021208608DD256
:1012F3000212086097D202120860DBD20212086061
:1013030037D302120860D2D3021208604FD40212FC
:1013130008601ED502120860B7D502120860D7D53F
:10132300021208600DD6021208603ED6021208604F
:10133300FFD6021208600FD70212086063D70212A9
:1013430008607ED70212086090D70212086099D70E
:1013530002120860F3D7021208604FD80212086025
:101363009BD802120860B6D802120860E7D80212AE
:10137300086004D90212086010D90212086084DAE6
:10138300021208609DDA0212086004DB0212086090
:1013930017DB0212086025DB02120860D9DB021298
:1013A3000860BDDC02120860C3DD021208604DDE76
:1013B3000212086057DE02120860C4DE02120860DF
:1013C300DBDE021208600DDF0212086046DF021244
:1013D300086070DF02120860D1DF02120860F1DFDB
:1013E300021208600FE00212086055E00212086062
:1013F3007BE102120860C8E102120860F7E1021201
:1014030008606DE20212086095E202120860CEE203
:1014130002120860DCE20212086034E30212086080
:1014230083E302120860C2E302120860F2E30212CD
:1014330008601EE40212086029E40212086047E40F
:101443000212086009E50212086013E5021208603F
:101453004EE50212086064E502120860B9E5021263
:101463000860CDE502120860DBE602120860EEE6D2
:101473000212086003E702120860A5E7021208607F
:1014830028E802120860E6E802120860F1E8021296
:1014930008601DEA0212086039EA021208608BEA4A
:1014A30002120860CAEA02120860DFEA0212086048
:1014B30041EB02120860D0EB021208601BEC02122F
:1014C30008606CEE02120860EAEE021208605FEF39
:1014D3000212086081F10212086099F10212086099
:1014E3009CF102120860A8F102120860BCF102121A
:1014F3000860C4F102120860F7F102120860A7F253
:10150300021208601DF30212086090F302120860D1
:1015130044F402120860F9F40212086018F502128A
:101523000860B8F502120860C4F502120860EFF50E
:1015330002120860F2F5021208605CF602120860FB
:1015430084F7021208605CF802120860E7F80212DE
:10155300086000FA02120860BDFA02120860F6FA87
:101563000212086027FB02120860E5FB0212086002
:1015730015FC02120860F0FC0212086089FD0212D9
:10158300086014FE02120860C5FE02120860A1483A
:10159300001208607AFF02120860BBFF02120860A3
:1015A300EBF40312086050F5031208608DF5031283
:1015B3000860DCF503120860C6F703120860ADF992
:1015C30003120860E6FC031208600CFD03120860B6
:1015D30024FD031208608DFD03120860C9FD031288
:1015E3000860F6FD03120860304E0012086086FEA4
:1015F30003120860B77400120860357500120860A2
:10160300677500120860BF75001208603977001211
:101613000860557700120860907700120860177809
:1016230000120860677800120860347900120860BD
:10163300387A001208608C7A00120860077B001267
:101643000860687B00120860A97B00120860547C64
:1016530000120860727D00120860A87D0012086005
:10166300F37D001208603A7E00120860C47E001207
:101673000860697F00120860069A041208604C9A99
:1016830004120860B69A04120860D79A041208601C
:10169300779B04120860819B04120860CE9B04129E
:1016A3000860F39B04120860539C04120860E99CD1
:1016B30004120860219D041208607A9D04120860D8
:1016C300D69D04120860049E041208608C9E0412C6
:1016D3000860D19E04120860109F04120860559F91
:1016E30004120860679F04120860799F041208605F
:1016F300989F04120860A19F0412086053A004126B
:10170300086093A00412086041DB04120860D1CF83
:101713000412086007D00412086050D00412086055
:101723009DD104120860E3A9031208605CAB0312A5
:1017330008601DAD0312086059AD03120860E0B0E4
:101743000312086026B1031208603BB3031208605A
:101753000DB403120860B9B40312086064B603122F
:101763000860AEB803120860CABB03120860D8BB96
:1017730003120860B3BC03120860C6C003120860FA
:101783004FDE04120860DEDF04120860F4DF041287
:1017930008600EC20412086021C204120860BFC2AE
:1017A3000412086001C30412086026C3041208600F
:1017B3006BC304120860A4C304120860D5C30412E7
:1017C300086048C50412086014DC041208604ADC8F
:1017D3000412086066DC04120860A8DC04120860C6
:1017E300B8DC0412086059C103120860ABC10312CC
:1017F30008601AC20312086011C30312086095C37C
:10180300031208605CC40312086071C40312086009
:10181300BBC4031208600AC5031208605CC5031247
:1018230008606FC503120860BBC503120860B6C722
:101833000312086038C80312086062C80312086004
:10184300ABC80312086073CA03120860EECA03121E
:1018530008607BCB031208608ECB03120860DDCBDC
:1018630003120860F3CB031208600ACC031208606A
:1018730039CC031208605ACC0312086033CD03122B
:10188300086096CD03120860E2CD03120860E5CE2E
:101893000312086053D1031208606DD1031208606C
:1018A300F2D10312086062D20312086085D20312D8
:1018B3000860BFD2031208602DD303120860E3D37C
:1018C3000312086008D40312086012D403120860DC
:1018D30022D403120860A5D403120860C0D40312F3
:1018E3000860E2D4031208600ED50312086049D5DC
:1018F3000312086058D50312086099D503120860D3
:101903009FDE04120860B7DE04120860819204129D
:101913000860D0920412086082940412086037961B
:10192300041208607F96041208607B970412086013
:10193300D29804120860F4980412086050990412B3
:101943000860D29904120860BED503120860E9D575
:1019530003120860CCD6031208604ED70312086046
:10196300B8D70312086004D80312086072D80312B0
:101973000860FDD8031208608BD903120860BED932
:1019830003120860B2DE0312086057E00312086016
:1019930013E10312086050E1031208609CE3031291
:1019A300086010E4031208600FE503120860E8E51D
:1019B3000312086062E6031208601CE70312086062
:1019C300DBE70312086047E803120860EEE803123E
:1019D30008604BE90312086008EC03120860C8ECC6
:1019E300031208602DED03120860D7EE031208609E
:1019F30094EF03120860F3F0031208601AF2031263
:101A03000860B5F203120860B0F303120860D2E372
:101A1300011208605AE401120860CDE40112086063
:101A230021E5011208605CE501120860E9E5011295
:101A3300086005E70112086057E701120860B5E77F
:101A430001120860F8E7011208606DE801120860EE
:101A5300B7E80112086036EA0112086009EB0112C7
:101A630008605FEB0112086055EC0112086002ED9B
:101A7300011208602DED011208604CED011208609F
:101A83005CED0112086062EE0112086026EF01129C
:101A9300086007F1011208606DF10112086084F11A
:101AA30001120860DAF20112086057F301120860AC
:101AB300C6F3011208604FF40112086093F4011297
:101AC30008605AF60112086032F7011208606EF8D6
:101AD3000112086027F90112086058FA0112086020
:101AE30087FA0112086061FB0112086030FC0112E1
:101AF300086089FC01120860A1FC01120860A1FDC5
:101B0300011208602FFE0112086082CD04120860E2
:101B130041CE04120860FACE0412086060CF0412AA
:101B2300086090B704120860F9B804120860E57FF2
:101B33000012086050DA041208605EDA04120860CA
:101B430018E004120860E3DD04120860F3DD0412F8
:101B53000860FFDD041208604CDE04120860D6FE44
:101B63000312086057FF03120860BBFF03120860EB
:101B7300F5FF01120860F8FF01120860FDFF011272
:101B83000860D4FF0312086037AA041208608CAA05
:101B93000412086060AC0412086092AC041208607E
:101BA300B9AC04120860CDAC04120860E6AC0412B0
:101BB300086015AE04120860BCD704120860E0D7B1
:101BC30004120860F9D7041208602CD804120860C4
:101BD3005DD8041208608BD804120860EDD8041293
:101BE3000860FCD80412086006D90412086013D9EF
:101BF3000412086050C8041208608DC804120860FB
:101C03009CC804120860BBC80412086023C90412EC
:101C130008602CC9041208608BC904120860AFC99C
:101C230004120860A2CA04120860AFCA0412086052
:101C3300C0CA0412086075DF0412086092DF041240
:101C430008607AA504120860C0A50412086017A7EB
:101C53000412086024A70412086037A7041208605E
:101C630056A7041208606CA70412086080A7041228
:101C73000860F5A7041208605AA8041208600AA9AC
:101C830004120860DFA904120860EFA904120860B7
:101C9300FEA904120860C9DC04120860EEDC041219
:101CA300086017DD041208603FDD0412086004D2E7
:101CB300041208602BD204120860A7D20412086031
:101CC300EECA0412086007CB0412086013CB041297
:101CD300086027CB0412086045CB041208604FCB81
:101CE3000412086059CB041208606CCB041208601C
:101CF300CBCB0412086002CC0412086030CC04126F
:101D030008607ECC04120860CBCC04120860E6CCD9
:101D130004120860F0CC0412086038CD0412086085
:101D230064DD0412086080DD04120860FEDF041223
:101D330008600080041208602A800412086046804C
:101D43000412086059800412086098800412086025
:101D530019810412086056850412086080860412F3
:101D63000860B386041208600087041208605E8866
:101D730004120860868804120860A98804120860A7
:101D8300ED88041208604E89041208605E8904120B
:101D930008601DD90412086038D90412086061D99B
:101DA300041208607BD904120860A0D904120860E9
:101DB300BFD904120860D7D90412086005DA0412E7
:101DC30008601FDA04120860EDDE0412086070BEBA
:101DD3000412086077BE04120860ACBF04120860E6
:101DE300DBBF0412086049C004120860DCC004129F
:101DF300086015C1041208605EC1041208608EC138
:101E030004120860AEC10412086024D604120860EC
:101E13003CD60412086059D7041208605CD7041238
:101E23000860E0FE011208603FFF0112086095FFA1
:101E330001120860D6FF01120860008003120860D7
:101E43001B8003120860908003120860168103123E
:101E53000860A98103120860C581031208606F84BA
:101E6300031208601E8703120860BC88031208600F
:101E7300078A03120860BC8E03120860B88F03122E
:101E830008602E9003120860FA90031208609E9176
:101E930003120860019303120860A1930312086000
:101EA300EB93031208605D9403120860029503121A
:101EB3000860CF95031208603596031208603A97BD
:101EC30003120860F79703120860949803120860DE
:101ED300EB9A031208607F9B03120860FB9B0312BB
:101EE3000860879E03120860829F03120860B19FF7
:101EF3000312086070A10312086044A30312086070
:101F03003AA40312086023A90312086055C50412FA
:101F130008607AC50412086022C604120860EFC67E
:101F230004120860C1C70412086024C804120860C0
:101F3300D1BA0412086092BB0412086001BC0412F7
:101F4300086026BC04120860E1BC0412086031DF9B
:101F53000412086015D40412086055D404120860F2
:101F63007DD4041208602ED50412086076D50412BD
:101F7300086084D504120860F1AE0412086062AFF1
:101F83000412086051B10412086054B104120860CD
:101F930090B10412086093B104120860C7B104122F
:101FA3000860B6B20412086040B30412086066B356
:101FB30004120860B1B304120860CDB304120860C0
:101FC300FEB3041208600EB4041208601BB40412BA
:101FD300086028B4041208600BB50412086049B500
:101FE3000412086053B50412086072B60412086044
:101FF3007DB6041208608FB60412086098B6041206
:102003000860A2B604120860BCA0041208606CA5A4
:1020130004120860B1DF04120860EC460012086085
:102023006C460012086032460012086072450012C6
:102033000860E84400120860BA440012086066436E
:1020430000120860CF42001208603242001208609A
:10205300BD41001208608B4100120860C8400012A5
:102063000860F33E00120860843E00120860563E8A
:1020730000120860533E00120860DA3C0012086048
:10208300DB3B00120860A53A00120860E939001230
:1020930008605F3900120860653800120860554D0A
:1020A30000120860934B001208605F4B0012086037
:1020B3002C4B00120860FF4A00120860C13700125F
:1020C3000860083700120860CB3600120860254A02
:1020D30000120860113600120860DB350012086038
:1020E30082350012086038350012086082490012F8
:1020F300086028FE03120860D93400120860A8346F
:10210300001208607031001208603031001208605C
:10211300243100120860843000120860C42F0012BA
:1021230008603D2D00120860CE2A001208608C2A38
:102133000012086060290012086015290012086067
:1021430051280012086094270012086064270012C7
:102153000860E948001208602A270012086048FF57
:102163000200000080FBE4738F000100C60F8700AC
:102173000100C40F24000200160625000200180601
:10218300260002001A0627000200A40F28000100FF
:10219300A60F29000100A70F84000400A80F8600E2
:1021A3000100AC0F2A000100AD0F2B000100AE0FA0
:1021B3002C000100B20F2D0008001E062E000100A6
:1021C300B30F2F000100B40F30000100B50F310031
:1021D3000100B60F32000100260633000100270676
:1021E30034000100B70F3600010028063800010053
:1021F300B80F39000100B10F83000200C20F630062
:102203000100320664000100AF0F65000100B00F4A
:102213006D000100C10F6E0002001C0643000100A7
:10222300B90F44000200BA0F45000100BC0F46007D
:102233000200BD0F470008002A0648000100BF0F37
:102243004B000100C00F04000100C50FA1000100F5
:10225300C90F37000100C80F88000100C70F3C00F9
:1022630001002906000000000000000136360101CC
:102273000001020100010301000104010606050239
:102283000000070100340801000F090401010D01DA
:1022930000FF0E08000017020000190100FF1A01D9
:1022A30000011B0100FE1C0100081D0200001F01AC
:1022B300000120010001210200002301000F24027C
:1022C30000002601000127010008280200FF2A015F
:1022D30000072B0102402C0100002D0100012E01FB
:1022E30000012F0100FF30010B1C310800003A01EF
:1022F30000083B01000F2F010000030271023001AF
:102303006002110270020102020202028002100244
:1023130061023A00410063027302720262024302E5
:10232300000213023800000200020402120200023B
:1023330000020002000204020402370037003C02DC
:102343004402000239000002000265020002350265
:10235300810200020502820283020002010171016F
:10236300010101011101010131010101010180019B
:10237300100161013B0014006301730172016201EA
:1023830043010001130106013D013500040112015F
:1023930000010001000100010401040133013301C4
:1023A3003C014401320136000001000165010001D6
:1023B3003500810100010501820183010001030051
:1023C30071003001600011007000310220035004DD
:1023D30080001000610000001400630073007200AD
:1023E3006200430000001300060000000000040028
:1023F3001200000000000000000004000400370089
:1024030037003C02440000000000000000006500AB
:10241300000035008100000005000000830000007B
:10242300030471040204600411047004020402042E
:10243300010402041004610400041404630473041B
:102443007204620443040004130406040004000439
:102453000404120400040004000400045104640092
:102463000004000400044404000400040004000405
:102473006504000435048104640005040004830436
:1024830000040103710301030103010301030103B9
:1024930022030203010310030003000300030003EC
:1024A30000030003000342030003240306030003A5
:1024B3000003040312032503230325032303040357
:1024C3000403000300030003440300030003230386
:1024D30000036503210035038103000305030003A3
:1024E30000030003000003002001E080000000005F
:1024F3002001E18000000400420164800000050027
:1025030042015380000006004201428000000700A0
:102513002001DE80000010004203FB0F00001100C9
:1025230020035D0F0000120010030C1003000000D5
:1025330021035E0F060000002001600F0000000071
:102543000000000036000100060000000F0000003C
:102553000000000000000000000003FFFF00000473
:1025630003FFFF0000FFFF0FF4010005C404032075
:10257300000100140B000000000000000003010F25
:10258300B21EEE1EB81E061FBE1EF41EBE1E001F88
:10259300C41E061FBE1EF41ECA1E061FD01E061F23
:1025A300D61E061FDC1E061FE21E061FE81E061FA0
:1025B30000000000000000000000D219130096196B
:1025C3000100D219020060190300661904006C1996
:1025D3000500721906007E19FFFF000001760F0641
:1025E300A00F089A0F0BB80F10F20E027C0F058E86
:1025F3000F07820F0C580F0D6A0FFF0000EA131A22
:1026030014F013F613141408140214201426142CB3
:10261300143814FC13E413DE1300160F00000B151B
:102623000B020002220F320000060000000000002F
:1026330000008967452301EFCDAB7A623230313632
:102643003039323931303236333779692068756938
:102653002079756E20736D617274DA14EC14F214C0
:10266300B413F814AE13BA13140AE5D5C5B5A5A56A
:102673009585857565EE12E81224132A131E13D669
:10268300123A1558155E1540154C154615000349A9
:1026930048424D1817250502303016181920231A01
:1026A3001C1E30303017181921301B1D1F30003805
:1026B3003C3E363B3B352B432C00011916181616AE
:1026C300152303000C0E020B040B0A0708000F2E40
:1026D30015FE14041510150A150E14321452153E66
:1026E300144414020402010101010902FA12001345
:1026F300F41230130613181300BE040AFA066B26ED
:1027030015000E0004000000000028000C007F00EC
:10271300E8030A03080900040030FF1E1E08090429
:102723000310010C080F0574F71203BBE9FE121521
:10273300F4EE900F6BF090030E743AF0A37421F053
:102743009003107434F0A37421F0900312742EF0EC
:10275300A37421F09003147428F0A37421F00242AF
:102763000B74F71203BBE9FE900302E4F0EE90034F
:1027730001F0900FBD12357B12455D7C2A7D067AF0
:10278300057B03121E34900FBFE090030DF002424D
:102793000B74F41203BB8A088B09EB5480605B90C3
:1027A3000301125C5F604A8E828F83E064017032A2
:1027B300124CEE120704EE241212703EF50A780A48
:1027C30012089C122844120898EE240B12283D127A
:1027D3000708EE2417125C6F1215B274091208C5AC
:1027E3008008E064027003122020EEFAEFFB121659
:1027F3009CAA08E5096480FB803AEAA2E05017909E
:102803000316124B276006123577122169E5086417
:1028130001FAAB09801E5402600C900F6A7401F038
:10282300EA6402FA800EEA54046005EA640480F361
:102833007A007B00022910EE240CF582EF124CF88B
:1028430022EE240FF50AEF3400F50B780A2274F414
:102853001203BB8A088B098A828B83A3A3A3E02478
:1028630010124217FA124E5B70030229008E828FF8
:10287300837402F0A3E4124E1EA3A3A3A3E8F0A360
:10288300E912496CA3A3A3A3A3A3A3F0E50824031C
:10289300F8E509123DC424101240838E828F83A36E
:1028A300A3A3A3F0EE2409FA1229021244A4F58388
:1028B3008882E0A2E58E828F83A3A3A3A3A35004FF
:1028C30074018001E4F0E5082403F8888289831207
:1028D3005BB8EA126676EB122840124E8312089414
:1028E3001261E4EB12462A8E828F83A3A3124D0753
:1028F3001208C5EEFAEFFB900301124EC8800EEFEB
:102903003400FB8E828F83A3A3221208C57F0402A7
:10291300063974F21203BB8A088B09ECFAEDFB74D7
:102923000E120B01E0FC1216248A0C8B0DAE0CAFB9
:102933000DEE4F6023AC08AD09121612E96019AC15
:1029430008AD09EEFAEFFB121618E97007EEFAEF7D
:10295300FB12160C7900800279B40235D674EE129C
:1029630003BB74F712093F8A0A8B0BECFEEDFF756C
:102973000FB3750E00750C00750D00800CE50C246B
:1029830001F50CE50D3400F50D902707E493F87479
:102993000193F9C3E50C98E50D994003022A80AA37
:1029A3000CAB0D1216728A088B09EA450960CE8AB0
:1029B300828B83A3A3A3A3A3E0250EF50EF510C377
:1029C300E50A9510E50B940050B37C157D00790062
:1029D300EEFAEFFB124AD5A3A3A3A3E50AC3950E10
:1029E300F8E028C333F8E433F9E50828F582E5096C
:1029F30039F583A3A3A3A3A3A3125295A31243530D
:102A0300EAFCEBFDEEFAEFFB123DE1A3E06401709B
:102A13000A124CEE74011236B78043851882851969
:102A230083AC82AD83850882850983125BB6121657
:102A33005AE9602D7408120B01E0C0E0124CEED08D
:102A4300E0F07408120B01E0640385188285198392
:102A5300700CAC82AD83EE240B1236A480031245B6
:102A630051850882850983123CC9A3A3124DE1C095
:102A7300E0EE241412283DD0E0F0750F00A90F7486
:102A8300091208C57F0A02063974F71203BBE9FE6F
:102A93008A828B83A3A3A3A3A3A3E0540860298AF8
:102AA300828B83A3A3A3A3A3A3E0540260178A8208
:102AB3008B83A3A3A3A3A3A3A3A3A3E0640660059B
:102AC30074E96E700312211C02420B74E81203BBFB
:102AD30074F712093F7407120B01124AEEE98518C5
:102AE30082851983F0ECFEEDFF7424120B01780C40
:102AF300120AA47513008E828F83125BB28E828FAB
:102B030083A3A3A3E0F91216308A148B15EA4515A3
:102B13007003022CD7EE2410125435A914120DF6AB
:102B23008A168B17EA45177003022CD7EE2406F595
:102B330010EF3400F5117C00851082F583122D29E6
:102B43008E828F83A3A3A3122D1E1258B8F8A3E07D
:102B5300F9851682851783A3A3A3A31237B9122D70
:102B63001EA3A3A3A3125632851682851783A3A39C
:102B7300A3A3A3A3F0EE126676EF122F9812089484
:102B8300EE1261E5EF12462A851682851783A3A309
:102B9300A3A3A3A3A3A3A3124D071208C5751000F3
:102BA300022C57850A82850B83125BB61216608549
:102BB3000882850983A3EAF0A3EB124D1AA3A3129B
:102BC3004A0F124EDFE0A2E6500F85088285098383
:102BD300A3A3A3A3A3E0D2E1F0E513706385088266
:102BE300850983A3125DD390036CE0687003A3E0AF
:102BF30069704D850882850983A3A3A31254427883
:102C03000C1208907427120B01E0F50A780A1208D7
:102C13009C7426120B011207089003791207087996
:102C2300007410120B0112495C1220A474091208DB
:102C3300C5850882850983A3A3A3A3A3E04405F064
:102C430074012510FC8E828F83A3A3A3A3A3A312D5
:102C53002D290510E50A450B6052851008C3E508C8
:102C63009514E495155045E51075F006A4F8A9F000
:102C7300E51628F8E51739F9E8240CF508E9123BBD
:102C830088E4124D1064016003022BA675130185BD
:102C930008828509837401124D15F8A3E0F98508AC
:102CA30082850983A3E8F0A3E9022BBDAA16AB171B
:102CB300120DFC78161208987425120B01E0FC74AF
:102CC30002120B01E0F9EEFAEFFB12212274021259
:102CD30008C580428E828F83A3A3A3E0C0E074045F
:102CE300120B01D0E01239D2E0C0E07405120B01DF
:102CF300D0E0F0E514451570097406120B0174B9A0
:102D030080077406120B017410F07401120B01AAF0
:102D130082AB831220AA740902688FE0851682852C
:102D23001783A3A3A32212527E8E828F83A3A3A30E
:102D3300E0F91216368A0A8B0B2274E81203BB746D
:102D4300F312093F8A0A8B0B89178C167425120B11
:102D530001127059AA0CFB120DEAE9F514AA0CAB87
:102D63000D120DF0E9F515E5147003022F8A7513A2
:102D730000800F8E828F83A3A3A3A3A3E0D2E3F0EB
:102D83000513E50C240BF582E50D12311FE513C382
:102D9300984003022F81E5147003022F81E5137518
:102DA300F006A4F8A9F0E50C28F8E50D39F9E824B4
:102DB3000CFEE9126E2DA3A3A3A3E0A2E040C1750C
:102DC3000E008E828F83E07043125BB7120CE28A8F
:102DD300088B09A808A909E849603188828983A377
:102DE300A3A3A3E06401600D88828983A3A3A3A3A3
:102DF300E0640370178E828F83A3A3A3A3A3E0D2FF
:102E0300E7F0750E01E5157003022D83750F00754C
:102E13000808750900E5166003750F20124A75E06E
:102E230060339003BCE064017017E50FD2E3F50F44
:102E33007509108E828F8312453C12434274FF80C2
:102E430024430F0C75080C8E828F83A3122FA412B8
:102E53006826A38010E5176009E50FD2E6F50F7524
:102E6300080A122FBBF07402120B01E50F1258D798
:102E7300C0E07404120B01D0E0F07405120B0112D0
:102E83004229120B01E06003022F5C7408120B014C
:102E9300123BC98E828F83A3A3A3A3F07408120BE2
:102EA30001123484F583E508F0A3E509124887E0AD
:102EB30060119003BCE0C0E07408120B0112347D72
:102EC300D0E0F0850C82850D83A3A3A3E0C0E0745A
:102ED30008120B0112636AD0E01263A6C0E0740803
:102EE300120B0112348FD0E0F07408120B01122F71
:102EF300A4A3A31263711258C1125BB6E82428F588
:102F030082E91254281258CDC0E0E8242EF582E954
:102F1300122840D0E0F07408120B01125BB8850A46
:102F230082850B83122F8F2424F582EB12455A12CC
:102F33006674E50B122F98120894124622EA242B8A
:102F4300F582EB122840124D071208C585188285B9
:102F53001983AA82AB8312158E8E828F83A3A3A3B8
:102F6300A3A3E0D2E0F0740C120B01E06003022D86
:102F730076E50EA2E0500215151514022D83790093
:102F8300AA0CAB0D122116740D02688FA3A3A3A381
:102F9300125DD7EA22124CF812588D751200781080
:102FA30022125DD7850A82850B83A3A3A3A3228E56
:102FB300828F83A3A3A3A3A3A3124541E8F0A3E9AC
:102FC3002274F21203BB74EB12093FEAFEEBFF8992
:102FD300088E828F83A3A3A3A3A3A3A3A3E0F912C1
:102FE3000E148A0A8B0BEA450B607FE50870047C9C
:102FF3000480027C088E828F83A3A3A3A3A3A3A32D
:10300300A3E0F9120E1A12283A124B27605C888249
:103013008983125BB47406120B01123072125BB80F
:103023007408120B01123072A3A3E0C0E0741012F3
:103033000B01D0E01258E4125BB8740E120B0112AC
:103043004AEE7411120B01E412561DF9780A1208A4
:1030530098742059FC744059F97402120B01AA8226
:10306300AB8312212274021208C574150235D3EA08
:10307300F0A3EB12307A221244B4A3A3A3A3A3A315
:103083002274F71203BB74FA12093FE9FE7F018F22
:10309300087D0080047508000D12421012311FEDE7
:1030A300C3985025ED75F006A4F8A9F0EA28F8EBCB
:1030B30039F9E812666FE912527050D9540C60D591
:1030C300E0A2E250D37F0080CF8A828B83A3A3A3A5
:1030D300A3A3A3E0703EE508A2E0400574016E706F
:1030E300338A828B83A3A3A3A3A3A37401126223B2
:1030F300E0C0E07403120B01D0E012621BE0C0E0F9
:103103007404120B01D0E0F07405120B01EF1245A9
:103113000B1220AA7406024208F582EF12562DF80C
:1031230022C082C083790112211602369DC082C05B
:1031330083EA4B60189003B8E064027010900F6A42
:10314300E4F0EAFCEBFD7A021231658012900F6A1B
:103153007401F07A027B00900301E0F91217B002C8
:10316300369D7B00900301E0F91217A42274F2123A
:1031730003BB74F312093FEAFEEBFF8E828F83A336
:10318300A3A3A3A3A3A3A3A3A3E0F50A900F6AE0B9
:10319300700579BA023478750801750900750C0059
:1031A300750D007C087D007900851882851983AA36
:1031B30082AB831216847405120B0174011234A0BE
:1031C300540460127402120B01E0D2E61234A054CC
:1031D300087003750803E05410600674404508F551
:1031E30008E0540860227402120B01E044C0123458
:1031F300A05420600A7403120B01E0D2E08008742B
:1032030003120B01E0D2E1F08E828F83A3A3A3A369
:10321300A3A3A3A3E07018121084851882851983D1
:10322300124AEE7402120B01E0D2E2F00232D764CA
:103233000F70157402120B01E0D2E3124EE0124A32
:10324300CF4508F5080232D78E828F83A3A3A3A3A9
:10325300A3A3A3A3E064028E828F837005122FBC05
:1032630080C9A3A3A3A3A3A3A3A3E06403701385AB
:103273001882851983AC82AD83EEFAEFFB1220DA54
:1032830080528E828F83A3A3A3A3A3A3A3A3E064EB
:103293000170419003BCE0601C7402120B01E0D288
:1032A300E3124ECE85188285198312455D75091088
:1032B300750AFF80187402120B01E0440C12639329
:1032C30074FDF0A374FFF074044508F5088E828F33
:1032D3008312705912526A503A7402120B01E0546D
:1032E3000C701B8E828F83125BB8121AA4E97005CF
:1032F30079BB0234787402120B01E0D2E5F012526A
:103303006A50107402120B01E0540C64047004E060
:10331300D2E5F0EE241112703EC0E07404120B01EA
:10332300D0E012422B120B01E060030234717408E7
:10333300120B01123484123496EE241812703EC01C
:10334300E0E8126660E9122840D0E0F0EE2419129A
:10335300703EC0E07408120B01E02413123B91D0BD
:10336300E0124360640170119003BCE0C0E0740894
:10337300120B0112347DD0E0F07408120B011240DD
:103383005B2417FAEF12408AFCE8241CF582E91249
:103393002840ECF0A3E4124F79E0C0E0E82422F5E2
:1033A30082E9122840D0E0F07408120B0112348F26
:1033B300E50AF07408120B011240702424F582E927
:1033C300125B7DA3E50D125BDBFCA3E0FDE8242685
:1033D300F582E9122840ECF0A3ED12385D124AA5FC
:1033E300E82428F582E9122840125DDBC0E0E824D6
:1033F3002FF582E9122840D0E0F0EE241B12703E34
:10340300C0E07408120B01126363D0E0F0EE241ADB
:1034130012703EC0E07408120B01E0242E123B919F
:10342300D0E012638B124E6B120894EE2411124AF1
:103433009E740B120B01124D011208C5EE241512D6
:10344300703E5440601B900328124B27601385186D
:1034530082851983AA82AB839003291235771221BF
:1034630069851882851983AA82AB8312158E740C21
:10347300120B01E0F9740D0235D3E02415123BB7AA
:1034830022124074240FF582E9340022E02423122F
:103493003BB722F583E508F0A3E509F022F0EE241B
:1034A3001512562A2274F71203BB7E638A828B831A
:1034B300E0600C7905120C04E9F87456C398FE9089
:1034C3000364E0600CF9120C04E9F8EEC39824F2EB
:1034D300FEEEF902420B74F61203BB74FE12093FAF
:1034E300851882851983124AEEE9FEECFAEDFB7426
:1034F3000C120B01E0FC9004AE124B2760328518CE
:103503008285198385820885830978081208987D46
:1035130001EEF99004AE1235741221697402120897
:10352300C58B09EA450960047900800679B28002F7
:1035330079B60236FE74F71203BBE9FE7409120B67
:1035430001E0FF90030E124B27601AEFF50878088D
:1035530012089CEEF990030E12357412216974015E
:103563001208C5800279B602420BEEFAEFFB900314
:1035730020E0F8A3123E1522125DD79003032274B4
:10358300F21203BB8A088B09ECFEEDFF750A01906A
:10359300036CE065087004A3E065097005124955E2
:1035A300802A12108A8A0C8B0DE508650C7004E5DD
:1035B30009650D7009EEFAEFFB121090800EEEFC18
:1035C300EFFDAA08AB09120C7CE9F50AA90A8003EE
:1035D3001208C57F0602063974F51203BBEAFEEB37
:1035E300FF8C088D09750A01126AC31236AD700B80
:1035F30090036C123E4312455D800EAC08AD09EE9C
:10360300FAEFFB120C82E9F50AA90A025F4F74F67E
:103613001203BBEAFEEBFF7A0C7B0012171AEA4B8C
:10362300606BEE242012703E8A828B83F0EE24219D
:10363300123693F0EE2422123693A3F0EE242312D3
:103643003693A3A3124D3A1258AAE8F0A3E91256EF
:10365300221258ABA3A3E8F0A3E91254488A828B41
:1036630083A3A3A3A3A3A3A3A3F0EE242F12703ECB
:10367300C0E0124210122840D0E0124AF48A828B32
:1036830083A3A3A3A3A3A3A3A3A312455D02370309
:1036930012562A8A828B83A322F0D083D082020817
:1036A3005DFAEF3400FB121E342212434722123616
:1036B300B7A3E0221236BB221236BF22124E16A344
:1036C300A32212497AA3E02274F61203BBECFEEDA7
:1036D300FF79B3900363E07020900395E064017079
:1036E30018EE12666FEF126E41EE240F124557E883
:1036F3004960047900800279A1800574021208C52B
:103703007F0202063974F41203BB74FE12093FEC04
:10371300FEEDFFEE241612703E64057011EE2406D2
:10372300FCEF3400FD1220E0E970030237B2851884
:1037330082851983AC82AD831265B5123944124B6D
:10374300276068E875F009A4F8AAF075F009E9A400
:103753002AF974ED28F874F339F9E8FAE9FBEE2451
:103763001212283DC082C0838A828B837808120A92
:10377300A4D083D0827808120A84402B85188285CE
:10378300198312405B240F12283D1237B9780812AF
:103793000AA49080AC78081209E18A828B837808A6
:1037A300120AC27900800A79A2800679A18002797F
:1037B300C8740202290DE8F0A3E91239D62274F481
:1037C3001203BB74FF12093FEAFEEBFF900363E0B1
:1037D3007075900395E06401706D75083A75090082
:1037E30078081208987402120B01858208858309F0
:1037F300780812089812384F1208C5E9703EEE1285
:103803006676EF123E4D12491DC0E0EE24111228D8
:103813003DD0E012385D743A125632900330120AEA
:10382300DEEE241212283D120AEA9080AC780812C8
:103833000AA490033078081209A8800BEE240FF530
:1038430082EF1241F9A3F0740102290D7C017D007E
:103853007A007B00121264740422F0EE240F124CDF
:10386300F52274F01203BB74F612093FECFEEDFF70
:103873007402120B01AC82AD831220E0E9700302E3
:10388300393F851882851983AC82AD837402120B8C
:1038930001AA82AB83123944124B27700302393FCA
:1038A300E875F009A4F8AAF075F009E9A42AF974F7
:1038B300E928F874F339F988088909EE240E1239D6
:1038C3004E12491DF8A3E0F9EE240F124E07120A17
:1038D300DEEE241212283D120AEA9080AC780C1214
:1038E3000AA4850882850983780C1209A8850882B1
:1038F3008509837808120AA49080A8780C120AA478
:103903007808790C12034BE50C450D450E450F70F5
:103913002B85188285198312407075F009A4F8AAC3
:10392300F075F009E9A42AF974F128F58274F339E2
:10393300F5837401F07A007B10123956740A023948
:10394300E1121AAA85188285198322F582EF124C97
:10395300F8E422900527E0F91216D22274F012033C
:10396300BB8A088B09ECFEEDFFEE240FF582EF1204
:1039730041F9A31239D2C082C0839080C0780C125F
:103983000AA4D083D082780C12095560321239C64A
:1039930070051220C8802AE070051220C2802264BC
:1039A3000270131220C2E96018EEFCEFFDAA08AB07
:1039B30009121ACE800BE0640360DF79A1800279DB
:1039C300A3801EEE240EF582EF12562D64012212FF
:1039D30039D622F0EE2412F582EF124CFC221208A3
:1039E300C57F0802063974F61203BBEAFEEBFFEE4D
:1039F300240AF508EF126821850882124AA3EC24F1
:103A03000F1241F6124ABF12209885088285098356
:103A1300124B24706B123B957003A3E069600A128A
:103A23003B777003A3E06970578E828F83A3A3A3B0
:103A3300A3A3A3A3A3A3A3124AA58E828F83125B7E
:103A4300B8121AD4E960188E828F83A3A3A3A3A309
:103A5300A3A3A3A3A3E0240F123B91E4F0A3F08E4E
:103A6300828F8312635B8E828F83A3A3A3A3A3A3FB
:103A7300A3A3A3A37005123E3D8004123E1BE4F0F2
:103A8300124B16701A123DC8125BB81220BC85087F
:103A930082850983124B24700612283A74A1F0021E
:103AA300370374F61203BBEAFEEBFFEE240A123D62
:103AB300D77A187B0012171A850882850983123B6F
:103AC300CEF8A3E0F9E8497003023B6EEEFAEFFB90
:103AD30012208C124B16607F123BBB6401700712DD
:103AE3003BA2740E8034E064027007123BA2740D93
:103AF30080288E828F83A3A3A3A3A3A3124B277033
:103B0300EA123B957003A3E06960E0123B77700310
:103B1300A3E06960D6123BA27405124AC854036439
:103B2300017007123DFB7405800B900364E0C0E055
:103B3300123DFBD0E0F0EE240AF508EF123B8812A9
:103B43003E09123CCEC0E0850882850983E0241734
:103B5300123B91D0E080198508828509831241B612
:103B6300850882850983E4F0A3800512283A74103E
:103B7300F00237031210848A088B09A808A9099058
:103B8300061CE06822126821850882F58322123B15
:103B9300B7228E828F83125DD790061CE068228E37
:103BA300828F83A3A3A3A3A3A3A3A3A3A3E0241606
:103BB300123BB722123E26228E828F83A3A3A3A396
:103BC300A3A3A3A3A3A3123E1FE022EAF0A3EB1235
:103BD3003BD622124E16E02274F11203BB8A0A8BE3
:103BE3000B8C088D097A18125D2E7003023CC18E6E
:103BF300828F837401F0E508240DF8E5091265BE90
:103C0300C3E49AFA95E0FB12667B12542CFB8E8276
:103C13008F83A3A3A3A31256198E828F83A3A3F02A
:103C2300EEFAEFFB120BB085088285098312635D00
:103C330070098E828F83A374058006900364123CFF
:103C4300C9F0EE2417F8EF3400F9880C890D8E8241
:103C53008F83123CCD850C82850D83F0EE2416F8FC
:103C6300EF3400F9E508240EFAE5093400FB8882F5
:103C73008983124869E50824100A0AE5093400FB20
:103C8300850C82850D83E0FC88828983E0F88A8233
:103C93008B83E0C398C39C124F70F0EEFCEFFDAA38
:103CA3000AAB0B122092E9F508700AEEFAEFFB1249
:103CB3000BBCE9F508EEFAEFFB1217208003750839
:103CC30010A908026AE612497322A3E0F9120C0450
:103CD300E922790102085D74F41203BBEAFEEBFFEB
:103CE3008E828F83A3A3A3A3A3A3A3A3125BBC125C
:103CF300635D706B123BBB70668E828F83A3A3A33D
:103D0300A3A3A3A3A3E0242B123B91123E35704F30
:103D13008E828F83A3A3A3A3A3A3A3A3E0242BF83F
:103D230088828983123E09E0F8740168600A740688
:103D330068600574056870138E828F83A3A3A3A3A1
:103D4300A3A3A3A3A3A3123E3D80138E828F83A3B9
:103D5300A3A3A3A3A3A3A3A3A3123E1B7403F012C1
:103D63003DC8123574E4F0EE2408F8EF123DC42484
:103D73002D124083C0E0123DEFD0E012561D242ADD
:103D8300124083C0E0123DEFA3D0E012561D240B76
:103D9300123B91123E43123EDC1243538A0A8B0BB1
:103DA300AC0AAD0B850882850983E0240612528490
:103DB300123DE1125BB8120BBC12283AE9F002295A
:103DC3001012449722EE240A123DCF22123DD788C7
:103DD30082F58322F8EF3400F98808890922123D1D
:103DE300E522121E3485088285098322850882858F
:103DF3000983123EE0A3A3228E828F83A3A3A3A3EE
:103E0300A3A3A3A3A3A3123E0D22E0F8123E14A37F
:103E130022A3E0F583888222123E1F22E0240E12A1
:103E23003E2622123E2A22F8A3E03400F988828932
:103E33008322E0F81246E7640522123E1F74022231
:103E4300125DD785088285098322124CF8740122FA
:103E5300023CD5C082C08390031E7486F0A37420F5
:103E6300F0900320747AF0A37420F090032274740A
:103E7300F0A37420F09003247480F0A3742002361E
:103E83009C74F41203BBEAFEEBFF123EE9F5081241
:103E930010848A0A8B0BA80AA90B8E828F83123E89
:103EA300DCE0687003A3E069602CE508A2E5502616
:103EB3008E828F83A3E0FB90031E12357412216957
:103EC3008E828F83E0F8A3125042A3124B27700611
:103ED300123EE9C2E5F0022910123EE022E0FAA305
:103EE300E0F5838A82228E828F83123E0DA3E02225
:103EF30074F51203BB1240491240702420F582E985
:103F0300127041FE74035EF50A12485312284012E0
:103F1300405B88828983F0A3A882A983E50A6009AC
:103F23007402650A6003023FBA740C5EFF60157485
:103F3300086F601074046F701D7402650A7005EEDB
:103F4300A2E4402D8A828B83A3A3A3A3A3A3A3A349
:103F5300E024231240AB740C6F70101240442424ED
:103F630012409324241240561240AE7402650A7024
:103F730005EEA2E440411240442426124093242635
:103F8300124060A31240BD1240601240BD12405661
:103F93001240AEEF600F74086F600A740C6F600517
:103FA30074046F70128A828B83A3A3A3A3A3A3A316
:103FB300A3E024221240AB8A828B83A3A3A3A3A3EF
:103FC300A3A3A31240797005EEA2E150178A828B56
:103FD30083A3A3A3A3A3A3A3A3E0242E12485A124B
:103FE30040A4800E9003021240A4900302E0041246
:103FF30044B4A3A882A983EEA2E75042124044240A
:10400300211240601240AE8C828D83124079602E63
:104013008A828B83A3A3A3A3A3A3A3A3E024301225
:1040230040ABEEA2E150178A828B83A3A3A3A3A381
:10403300A3A3A3E0243112408388828983F0025F23
:104043004F124049E022EA2408FCEB3400FD8C8245
:104053008D832212485EA322125DD7EE22124064A2
:1040630022F508A3E03400850882F5832212407408
:1040730022124ED9E822E0242112485EE0540322A2
:10408300FAA3E012408A223400FB8A828B83E02267
:104093001240641240A4A3A882A9838C828D83E07A
:1040A30022E088828983F02212485E1240B222E025
:1040B30088828983F0A308A983221240B28C828D5F
:1040C30083E0242822C082C0838A828B83123EED40
:1040D300F8740358F98A828B83A3A37401F0E9600F
:1040E300057402697061740C58FC601474086C6088
:1040F3000F74046C70137402697005E8A2E4401D28
:104103008A828B83A3A37402F0740C6C700A8A8274
:104113008B83A3A3E02402F07402697005E8A2E490
:1041230040258A828B83A3A3E02404F0EC600F7400
:10413300086C600A740C6C600574046C70098A82E4
:104143008B83A3A3E004F0E8A2E750318A828B8338
:10415300A3A3E004125DDFF9A3E0F5838982A3A39F
:10416300A3E0540360178A828B83A3A3E004F0E8DF
:10417300A2E150098A828B83A3A3E004F08A828B95
:1041830083A3A3E00402369CC082C0838A828B830C
:10419300A3A3A3A3A3A3A3A3A3A3124B2760098A47
:1041A300828B83A3A31241AE02369DA3A3A3A3A331
:1041B300A3A3A312527E1217202274F71203BBEAA1
:1041C300FEEBFF125DCF88828983A3A3A3A3A3A3DE
:1041D300A3A3E4F0A312307AA3A3A3A3F0A3F0E86C
:1041E300125B5FE91241F912205CEEFAEFFB122039
:1041F300688015F582ED124CF8E4F022740C120B72
:1042030001E0F9740D1208C57F01020639EA240B97
:10421300F582EB221264D7240922124CF812705D46
:10422300750E00780C22740112450F1242C92274D4
:10423300F51203BB74F312093FEAFEEBFF7C087D22
:10424300007900851882851983AA82AB83121684AC
:10425300122FB2124896C0E07404120B01D0E0F0A2
:104263007402120B017401124360C0E07405120B57
:1042730001D0E012489C640170097402120B01E042
:10428300D2E5F01242BF120B01E0702D8E828F83B4
:10429300124E811208948E828F83A3A3A3A3124686
:1042A3002D740B120B01124D011208C5851882855E
:1042B3001983AA82AB8312158E025F438518828508
:1042C3001983AA82AB8312201A740C2274F7120387
:1042D300BB74FE12093FECFEEDFF7508C88518821A
:1042E300851983AC82AD831220DAE96401704985B4
:1042F300188285198312504F124342A3A3E4F0900E
:104303000632E0601B8E828F83A3A3123E357010AA
:104313008E828F83A3A3A3A3A3A3A3A37401800D5E
:104323008E828F83A3A3A3A3A3A3A3A3E4F0EEFA94
:10433300EFFB12204AE9F508A908740202420812A9
:104343004947A322121E2EE9640122124E0EE022D7
:10435300A3A3A3A3E8F0A3E9F012107E22125455FD
:10436300A3E02274F61203BB74F412093FEAFEEBD6
:10437300FF122FB212448DFAA3E0F5838A82A3E0E1
:10438300FA7402120B01EA12561D24021249247414
:1043930004120B0112455DEA600A7402120B01E07C
:1043A3006404701C1244811252847406120B0112AD
:1043B30044871249247408120B01E8F0A3E98056DC
:1043C300E06401600AE064066005E064057023129E
:1043D3004481124083C0E07403120B01D0E01256F3
:1043E3001D24131252847406120B01125619241B36
:1043F30080C07406120B01E4F0A312448D24121240
:1044030052847408120B011244871264D3C0E074FF
:104413000A120B01D0E0F07406120B01124B276055
:10442300287406120B01125BB8120C70E964017058
:104433001812107E8A088B09AC08AD097406120B9A
:1044430001125BB81236AD700F851882851983AAE5
:1044530082AB8312209E8021851882851983AA82CC
:10446300AB83121AB0E96401700FEEFCEFFD740622
:10447300120B01125BB8122044740C023700124471
:10448300922412221244AB241A22F012449222EEF6
:104493002402F8EF12449CE0223400F988828983D5
:1044A300221244ABF8A3E022EAF0A3EB1244B4E0F7
:1044B30022F08882898322C082C08374FC12093F60
:1044C30012453312455D8A828B83A3A3E0124922EE
:1044D3007402120B011245071215E87404800012CE
:1044E30008C502369DC082C08374FD12093F124580
:1044F3001BC0E07402120B01D0E012450B120B1427
:10450300740380DBE8F0A3E912450F22F0851882DB
:10451300851983AA82AB83228A828B83A3A3A3A355
:10452300A3A31249148A828B83A3A3123E0DE02214
:104533008A828B83A3A3A3A3A3A31245412212457B
:104543004522E0F8A3E0F985188285198322125DDC
:10455300D7EE240BF582EF124CF812491722AA82E8
:10456300AB83121678740322124917900330227416
:10457300F41203BB74FB12093FEAFEEBFF8E828F3A
:1045830083A3A31240702409F508E9126821740378
:10459300120B01AC82AD8388828983A3AA82AB8389
:1045A3001220DAE96401706A8518828519837432EE
:1045B30012489624F7C0E07401120B01D0E0F074A6
:1045C30002120B01E412450B120D428A0A8B0BAE49
:1045D3000AAF0BEE4F603B7403120B0112461AA392
:1045E300A312434EC0E0EE242012283DD0E0F07524
:1045F3000A007808120894EE126E28EF12462AEE8B
:10460300240B12283D124D071208C5EEFAEFFB12D8
:104613000D3C740502290D125DD78E828F8322E52E
:104623000A2410F582E50B124CF8E0FC7D0022C051
:1046330082C08312465E600E24FE600F24FE60106B
:1046430024FB6011801212203E800D122038800856
:10465300122032800312202C02369D8A828B83A380
:10466300A3E0F81246E724FB22C082C0838A828B30
:1046730083A3A3A3A3A3A3A3A3E070528A828B83E0
:10468300A3A3E0F81246E3640160431246DD64022B
:10469300603C1246DD640360351246DD6404602E1F
:1046A3008A828B83A3A3123E3760231246DD640AFA
:1046B300601C1246DD640B60151246DD640C600E4F
:1046C3001246DD640D60077904121E1C80099003F5
:1046D3002612357412216902369D8A828B83A3A325
:1046E3001246E722123E14E02274F61203BB74FA58
:1046F30012093FEAFEEBFF7403120B01EEF0A3EF86
:10470300F07403120B01AA82AB8312205012703B88
:10471300600302484E8518828519837432F074054C
:10472300120B01C082C0838E828F83A3A3A3A3E055
:10473300D083D082F8E028C0E07401120B01D0E0EE
:1047430012489CC0E07402120B01D0E0124881F8B9
:10475300A3E0F9E8496026E82417F582E912284026
:10476300C082C083E82416F582E9127041D083D059
:1047730082F8E028F87401120B01E028F085188212
:10478300851983AA82AB83120D428A088B09A80874
:10479300A909E84970030248418E828F83125BB8EE
:1047A30088828983A3A3EAF0A3EB124887A3A3E03B
:1047B300C0E0E82420F582E9122840D0E01263A685
:1047C300C0E0E82421F582E9122840D0E01248969F
:1047D300C0E0E8242AF582E9122840D0E0F074050D
:1047E300120B01E0FA1248531270412A125284E864
:1047F300242B124AE87405120B01E0C0E0E8242DD3
:10480300F582E9122840D0E0124881FAA3E0FBEADE
:104813004B6019E8242BFAE9122903A3A3A3A3A34A
:10482300A3A3A3E0241612485A1248698E828F83E9
:10483300A3A3A3A3A3A3A3A3E8F0A3E9800CEEFA85
:10484300EFFB12205612283A7410F0740602370058
:10485300E8240BF582E92212485E22FCA3E034002F
:10486300FD8C828D8322E0FC8A828B83E02CFCA367
:10487300E03400FD8A828B83ECF0A3EDF022124F2B
:104883007DA3E022F0E8126660E9124CF87401128D
:104893004EE022124F74A3E022124931E02274F752
:1048A3001203BBEAFEEBFF12703B701E1248D712D5
:1048B3004B27600612356D12216912703B700B1283
:1048C3005BAC120D3C12283AE9F0EEFAEFFB122032
:1048D3005602420B1220628E828F83A3A3A3A3A34B
:1048E300A3A3A3A3A32274F61203BBEAFEEBFF8CDC
:1048F300088D09121AA4E9700479018011AC08AD7E
:1049030009EEFAEFFB900324123574122169023782
:1049130003124545E8F0A3E9F022126397E022244D
:1049230001F8A3E03400F922124931A3E02212492D
:10493300352212493922124EE4A3A3A3A3A32212C0
:104943004947E022E8F0A3E912494F22124EE4A3BB
:10495300A322126AC7121E3422124AA9EEFAEFFBEF
:1049630022E0242B123E2AE0221236B71249732288
:10497300E08E828F83A322124D4EA3A3A3A322749E
:10498300F61203BB74F312093F124A71124ACF1293
:104993000B01740CF07405120B0174011254506076
:1049A300097402120B01742180077402120B017443
:1049B3000112422B120B01E070327408120B011228
:1049C3004A197406124896124A8DEE2402F8EF1221
:1049D300449C124A04126234124A04A312492BC0A3
:1049E300E01249FB122840D0E012639F740C120BB3
:1049F30001E0F9740D023700E508240BF582E5099F
:104A030022124A0FA3A3A3A3A3A3A322E085088290
:104A1300850983A3A322124AB7880889098882F5E6
:104A2300832274F71203BB74F312093F124A711203
:104A33004ACF120B017409F07402120B017421F0B6
:104A43007405120B01124229120B01E0701D740848
:104A5300120B01124AAF7407124AC8124A8D851805
:104A630082851983AA82AB8312158E0241FFEAFE67
:104A7300EBFF7C087D007900851882851983AA8263
:104A8300AB831216848E828F8322FCA3E0FD88827F
:104A93008983A3AA82AB83121E3422F582EF3400EA
:104AA300F583124AA922E0FCA3E0FD22124AB7884B
:104AB30082898322124964F8A3E0F922124EDF129D
:104AC300527E227401124EE0A3A3E0221249147411
:104AD3000422121684850882850983A322E0F5083F
:104AE300A3E0F50922F582E9124CF8EAF0A3EBF012
:104AF30022124AF82212494F124ED922C082C08391
:104B0300124B0F7426F0A3742002369C12206E9071
:104B13000326228E828F83A3A3A3A3A3A3A3A3A36A
:104B2300A3125637124074492274F71203BBE9FEED
:104B3300124B59122840124B27601888828983A38D
:104B4300E05403700EEEFB124853122840124B8AB6
:104B5300124B8402420BEA125B5FEB22C082C083DA
:104B6300EAF8EBF988828983A3A3A3A3A3E0FB88D4
:104B7300828983A3A3A3A3124B8AA3124B84023675
:104B83009DE0F91215AC22E0FA88828983A3A3225F
:104B930074E81203BB8A088B098C168D1789147469
:104BA3001A120B01E0F50AA3E0F50B741C120B01BA
:104BB300E0F513741D120B01780C120AA41261E4C0
:104BC300EB127041242DFA7B001216968A108B117A
:104BD300AE10AF11EE4F7003024CD58E828F8374EB
:104BE30001F08508108509117512007810120894D8
:104BF3007C157D00EE2418124CDF1208C5851610B3
:104C030085171178101208947C097D00EE24021296
:104C13004CDF1208C57418120B01124551850A8224
:104C2300850B83E0C0E0EE240F12283DD0E0124D47
:104C330015C0E0EE241112283DD0E0124D10C0E063
:104C4300EE241012283DD0E01239D2E513124D3A6A
:104C5300E4F0A3F0124CEE780C120AC2EE24171201
:104C6300283DE5141236C5F8A3E0F9EE240D122809
:104C73003D124D341268431270416025EE24261212
:104C83005262242DF8124D2C12667D12421D120819
:104C93009412684112462A8A828B83124D071208A6
:104CA300C5EE241912703E5403601D90031C124B71
:104CB30027600CEEFAEFFB1235771221698013EEB1
:104CC300FAEFFB12169C800AEEFAEFFB9003011237
:104CD3004EC80268927C087D00EE2404FAEF124C61
:104CE300E5223400FB121678740322EE2413124CCF
:104CF300F522F582EF124CFC223400F58322E024E6
:104D03002B123BB712527E121678740322124D23D4
:104D1300E022124D1AE022124D1E22124D23A3222D
:104D2300F0850A82850B83A322EF3400F98A828BF4
:104D330083124917E50822F0EE2426124CF522F5DA
:104D43000CA3E0F50D750E00780C221236BFA3A359
:104D5300A32274F11203BB8A088B097A20124E5BDB
:104D6300606F8E828F837406124E778E828F83A339
:104D7300A3A3A31236B18E828F83124DE1124D424B
:104D83001208947C107D00EE2406124CDF1208C535
:104D9300850882850983A3A3A3124DD72416FAEFAE
:104DA3003400FB120C6A850882850983A3A3A3A39D
:104DB300A3A3A3A3A3A3E0C0E0EE241E12283DD027
:104DC300E0124DF1C0E0EE241F12283DD0E0124D59
:104DD300F9026AE6A3A3A3A3A3124AA9EE22A3A3FB
:104DE300A3A3A3124DEA221236BBA3A3E022F0121F
:104DF30049FB12562D22F0EEFAEFFB900527E0F95E
:104E03001216A222124CF5124E0E22E8F0A3E9125A
:104E13004E1622F085088285098322124E22221221
:104E23003BD6F8A3E0F98E828F83A3A32274F412F6
:104E330003BB8A088B097A0C124E5B60188E828F33
:104E4300837408124E77124E6B120894124CD812C8
:104E530008C5124EC10229107B001216968A0A8BCE
:104E63000BAE0AAF0BEE4F22F508A3E0F509750A66
:104E730000780822124E22124E0EA3A3E022A3A30F
:104E8300124AE0750A0078082274F61203BBEAFEA0
:104E9300EBFF7A057B00121696EA4B601E8A828B23
:104EA30083740A124ECE8A828B83A3A31249428A49
:104EB300828B83A3A3A3A3F0124EC5023703EEFA9A
:104EC300EFFB900527E0F91216A222124ED222120E
:104ED3004EE4124ED922E0F8A3E0F922A3124EE4E5
:104EE30022F08E828F8322C082C083E9900F6CF000
:104EF3009003187432F0A3740BF090031A7444F007
:104F0300A3740BF090031C7456F0A3740B02369C2D
:104F130074F71203BBEAFEEBFF8908EE4F7003122E
:104F23001B3490032A124B27700890032A80221205
:104F33005DD388828983A3A3A3A3A3A3A3A3A3125B
:104F43004F6A88828983A3A3A3A3A3A3A3A3A37064
:104F5300DEEEF0A3EF124F79E4F0A3124F70A3A398
:104F6300A3E508F002420B12527EEA4B22124F7461
:104F73002212494FA322124F7D22125459A3A32276
:104F830074F71203BB90032A800D8E828F83A3A331
:104F9300A3A3A3A3A3A3A312650BEE4F60348E8236
:104FA3008F83A3A3A3A3A3A3A3E06970DD8E828F42
:104FB30083A3A3A3A3E06A7003A3E06B70CC8E82E8
:104FC3008F83A3A3A3A3A3A3E06C70BEEEFAEFFBAE
:104FD30080047A007B0002420B74F71203BB900338
:104FE3002A12650B90032A122F93687002EB6970E3
:104FF30017125042125DD390032A12455D90032A83
:1050030012650B80301264FEEE4F60298E828F830F
:10501300A3A3A3A3A3122F8F687002EB6970E68A80
:10502300828B83A3A3A3A3A3A3A3A3A312504FA3DE
:10503300A3A312455D121720EEFAEFFB02420B12F7
:105043003E15A3A3A3A3A3A3A3A3A322125299A38D
:10505300A32274F01203BB74FA12093F8A088B0966
:105063008A828B83A3A3A3A3A3A3A3A3E0600D645A
:105073000160098A828B831252766005790202529B
:105083005D850882850983A3A3A3A3A3A3A3A3E0A8
:10509300640370157404120B01AC82AD83AA08ABD0
:1050A300091220DAE9701380D385088285098312F7
:1050B3005DD37404120B0112455D126665127041D3
:1050C300243212528412171A8A0A8B0BAE0AAF0BC0
:1050D300EE4F700302525B7C327D0079001216841E
:1050E3007402120B01AA82AB83850882850983A30C
:1050F300A3A3A3A3A3A3A3A3E0F91215EE7402121F
:105103000B01E0C0E0EE242D12283DD0E0F0EE24A8
:105113002CF50AEF3400F50B7403120B01E0850A3A
:1051230082850B83F07901EEFAEFFB120B208508E1
:105133000C85090D750E00780C1208947C1C7D00FB
:10514300EE240B124CDF1208C5EE243012526224F7
:10515300320808124D2C2411F8E509127036FCE9C7
:10516300FD8C828D8312405B242E12283D124D3418
:105173001255FB12684A1208948C828D83124AA539
:105183008A828B83124D071208C57404120B011215
:10519300529512455D90030212528BF0900302E088
:1051A3000412563E242A125B6C750D00850A828513
:1051B3000B83E0780C1209CE8A828B83E50CF0EE28
:1051C300242912283DE50C126393E4F0E508241525
:1051D300F582E50912527074015007120B01740134
:1051E3008004120B01E4F0EE2427123DD7851882C8
:1051F300851983AA82AB831215D6E924FE8508821A
:10520300850983F0F508750900EE242E124A9EECF9
:10521300F8EDF9AA08AB09120272E88E828F83A314
:10522300A3A3A3A3A3A3A3F0ECF8EDF9AA08AB09E6
:105233001202728B09EA4509600F8E828F83A3A342
:10524300A3A3A3A3A3A3E004F0EE242012703E447F
:1052530008125BE379008002791074060239E112C7
:105263007034FAE9FBEE22EE2415F582EF12562D87
:10527300A2E02212527E121120E922E0FAA3E0FBFF
:1052830022FAA3E03400FB22124973A3A3A3A3A32E
:10529300A32212529922124ED98E828F83A3A3A3E3
:1052A300A32274F41203BBEAFEEBFF125B64124AFF
:1052B300EE900FB9E0F8EE242B12703EC398400332
:1052C30002541A125B847015EE242B12703E0412E2
:1052D3005448C0E0EE242912283DD0E0F0EE242803
:1052E30012703EFC7900800109EE242C12311CE976
:1052F300C3985026750801750900E978081209CE8C
:10530300125B84550860E1E92CFC750801750900FE
:10531300E978081209CEE04508F0EE242712543547
:10532300EE242E12283DEC8A088AF0A4F8ABF0E4B0
:105333002BF9E098F8A3E099F9C3E89508E99400FC
:10534300EE4039242712311C125B846037EE242D82
:1053530012283D125442A3E4F0EC7054EE242012C0
:10536300703E4420124360C0E0EE242612283DD054
:10537300E0F0EE2430125435A3E08059242912289A
:105383003D74FFF090035CE0FA900FBCE0F508EA8F
:105393008508F0A4ABF075F064A4FAADF075F06481
:1053A300EBA42DFB8E828F83A3A3EAF0A3EB80A84B
:1053B300EE242012703E54DF124D3AECF08C08EECE
:1053C300242712703E8508F0A4FAABF0EE2430F5E2
:1053D30082EF12542CFBEE241EF582EF1254281296
:1053E3005450C0E0EE242512283DD0E0F0EE241CFA
:1053F30012283DE812563290032C124B27600BEC17
:10540300F9123577122169E97018EE240BFAEF349B
:1054130000FB122104800B7BE9EE2422F582EF12BC
:10542300560502291012637E2212562D2AFAA3E092
:105433003B2212543922F582EF124CFCE0FA22127D
:105443004973A3F022F0EE242A12562A221254554D
:10545300E02212545922124939A3A32274F41203ED
:10546300BB90032A12650B1217C28A0A8B0B7CFFAF
:105473007DFF8020E0C398FAA3E099FBC3EA9CEB8D
:105483009D500E8E828F83A3A3E0C398FCA3E09963
:10549300FD1264FEEE4F6059125DCFE50AC398F822
:1054A300E50B99F98E828F83125BB6C3E89AE99B69
:1054B3008E828F83A3A340BCA3A3A3A3E064027043
:1054C3001DEE240B125B87600CEE241012283D1294
:1054D3005BB812169CEEFAEFFB120B2C8007EEFA68
:1054E300EFFB120B387A017B00900F6C1239598055
:1054F3001474FF6C700374FF6D600A7A017B009073
:105503000F6C12316A02291074F01203BB8A088BE4
:1055130009ECFAEDFB890A7C01126665125B768A57
:105523000C8B0DAE0CAF0DEE4F70030255F8E50A70
:1055330060030255F8E5081255FBE0F8EE24281243
:10554300703E6860030255F8EE242C125435E82AA5
:10555300F8E43400F98E828F83A3A3A3A3A3A3A3A8
:10556300A3E0FAE89AE99400C365D03340141258D3
:1055730095125B8A700C7B0012665EE50912560574
:105583008073125895125B8A7031EE242C12703E90
:10559300F9EE242912283D7508FF750900E97808FA
:1055A3001209CEE508F0EE242A12283DE50812562A
:1055B3002229F0EE242B12394E8022E5082414F818
:1055C300E5093400F9E0C0E0EE242A12283DD0E0DA
:1055D30012561DC0E0EE242912283DD0E012563E9B
:1055E300242D12283D123CC9A31256327A01FB9096
:1055F3000F6C1239590239E42413F582E509124C70
:10560300F82212543CEE2414124CF5124B84EEFA99
:10561300EFFB120B2C22EAF0A3EB1244B4E022F0CE
:10562300EE242812562A22F582EF124CFCE022F0D7
:10563300A3E4F022E0240F123E2622F01217C28EBA
:10564300828F83EAF0A3EBF0EE2274E81203BB74BB
:10565300FD12093FE9851882851983F08A0A8B0BAD
:105663008C168D17741B120B0112588D741D120B9F
:1056730001780C120AA48A828B83A3A3E0F9121582
:10568300CA8A128B13EA451370077A007B0002580B
:10569300887A127B0012171A8A088B09AE08AF09A1
:1056A300EE4F70030258847C127D00790012168439
:1056B3007401120B01AA82AB83850A82850B83A333
:1056C300A3E0F91215EEEE240FF508EF126821742A
:1056D30002120B01E0850882850983F07902EEFA54
:1056E300EFFB120B20851682851783125295E8F083
:1056F300A3E91258CD8E828F83A3A3A3A3A3A3A34D
:10570300F07514FF751500850882850983E0781408
:105713001209CE12283AE514F0851282851383A369
:10572300E0F81246E3C0E0EE240B12283DD0E0126D
:1057330058D7F508EE240D12283DE508F0125B8FCB
:10574300E08508F0A42424FAE5F03400FB12169651
:105753008A088B09EE1261E5EF124AEBEA450970FC
:10576300030258798A828B83741A1256328A828B87
:1057730083A3A3F0A31258C11258AA12455DAC1615
:10578300AD17EA2406FAEB3400FB1220F2850A82F5
:10579300850B83A3A3A3E0C0E0E508240FF582E50E
:1057A30009122840D0E0F0900379125DD3E5082474
:1057B3001012589E1258E4A3125DD3E50824121266
:1057C300589E124D15C0E0125895122840D0E0F0B3
:1057D300E50A125B5FE50B127041C0E0E508241592
:1057E300F582E509122840D0E01258B8C0E0E50878
:1057F3002416F582E509122840D0E012744DE0C06A
:10580300E0E5082417F582E509122840D0E0127478
:105813004DA3E0C0E0E5082418F582E5091228400D
:10582300D0E012491DC0E0E5082419F582E509120C
:105833002840D0E0F0E508241AF582E50912284053
:10584300780C120AC2E5082424F8E5093400F9E5C6
:10585300082422F582E50912455AE50A126660E535
:105863000B127041C0E0E508241FF582E5091228F8
:1058730040D0E0F0800BEEFAEFFB120B2C7E007FA2
:1058830000EEFAEFFB740302688FE0F510A3E0F576
:105893001122E5082414F582E50922F582E50912AF
:1058A3004CF8E8F0A3E922E0F8A3E0F98A828B83BD
:1058B300A3A3A3A322F0851082851183E0221258AB
:1058C300C522124D1EA3A3A3A322F012666DE50BFE
:1058D30012562D22F0E50A2410F582E50B12562DFF
:1058E300221258C5A3A3A32274E81203BB8A0A8B0E
:1058F3000B8C108D1189147418120B01E0F516A38B
:10590300E0F517741A120B01780C120AA47509003A
:10591300EA2413F582EB127041F50890032C124B25
:10592300276011A90890032C123574122169E960CC
:1059330003025B5C7C02851082851183125BB812C3
:10594300666DE50B125B768A128B13AE12AF13EE04
:105953004F704B850A82850B83A3E0A2E0400302CC
:105963005B5C780C1208907816120898A914AC1096
:10597300AD11AA0AAB0B120B4A74061208C58A0CA6
:105983008B0DAE0CAF0DEE4F7003025B5C8E828FFE
:1059930083A3A3A3A3A3A3A3A3E508125BE385089F
:1059A3000C8E828F83A3A3A3A3A3A3A3A3E024FFAB
:1059B300F8E434FFF9E8650C7001E9700375090137
:1059C300EE240B125B877003025B0F850A82850B43
:1059D30083A3E0A2E05003750800125BC3E50C98B3
:1059E300E499C365D033401EE0F8EE240E12703EF6
:1059F30028F0750CFF750D00E8780C1209CEEE1235
:105A03005B5FEF125B7D126674E50B12421D120899
:105A13009412462285080CEE240D12703E850CF07C
:105A2300A4F8A9F0EE241012703E24221240832819
:105A3300FAA3E039FB1245651208C5750C01125B28
:105A43009B780C1209CE12703B450CF0E509A2E0DD
:105A53005069EE240C125B6C125B9B04780C1209E8
:105A6300CE8A828B83E0450C125BDB85080C850CA8
:105A7300F0A4F8E50A1261E5E50B127041FCE82C8D
:105A8300FCE5F03400FDEE241012283D125BBC123D
:105A93005DDBF47026EE240BF50CEF3400F50DEE10
:105AA300241012283D125BB8850C82850D83124E9B
:105AB300C8850C82850D8374FF8050125B64124A83
:105AC300EE90035CE0FA900FBCE0F50CEA850CF075
:105AD300A4FAABF0F8EBF9900FB9E0F50CE8850CFC
:105AE300F0A4F8ACF0850CF0E9A42CF9EA28F8EB63
:105AF30039F9E875F064A4F8AAF075F064E9A42A0A
:105B0300F98E828F83A3A3E8F0A3E9F0125BC3129B
:105B130064F5E8650C7001E9600EEE240C125B87F6
:105B23006006E509A2E05031EE240E12703EC0E09B
:105B3300125B8FD0E0F012703BC0E0E50A2414F54D
