:020000040000FA
:06000000020B6002028DFC
:03002B000209AB1C
:030053000201B3F4
:03006B000202AFDF
:03007B000203126B
:1000830002021A0101FF01010503010F10FEFFA681
:1000930015A615A615A6155C145614A6152B240033
:1000A3000000005125000000000C0000000C0001BE
:1000B300FFFF0101010027050000009E05B80102B2
:1000C30002008810060502070401051E02051E0230
:1000D3000A0A03B80B02803E010201FFFF010A0175
:1000E3001401E096511800020206FF010900EF50C7
:1000F3000F6B100008FF38203E2044204A200000E8
:1001030000000000000000000000000000000000EC
:100113000000000038203E20442050200000000052
:1001230000000000000000000000000000000000CC
:10013300000038203E20442056200000000000002C
:1001430000000000000000000000000000000000AC
:1001530038203E2044205C20000000000000000006
:10016300000000000000000000000000000010205C
:10017300202020202020202020202020202020019B
:1001830010040100010005758001DC8011040100E9
:10019300010005758001DC80120401000100057572
:1001A3008001DC8013040100010005758001DC80FF
:1001B300C0E074F1120557A2AFE433FED2AFE5A756
:1001C300FFE5A1F5085FF509741055096006121CD7
:1001D3009675A1EF740855096008121C9C75A1F768
:1001E300802BEFA2E0C0D0E508A2E092F0120A9AB9
:1001F300158182F05017906198E0F8900668E0C38B
:1002030098A2D265D0335002E8F075A1FEEEA2E0C9
:1002130092AF7F020205B6C0E074F2120557A2AF97
:10022300E433FED2AF9061A4E0F8759B00E59158EA
:10023300540860087591F7121CDE802AE591585422
:100243001060087591EF121CE4801BE8A2E0C0D097
:10025300E591A2E092F0120A9A158182F05007E02C
:10026300C2E0F0121E289061A3E0F8E5E9585404B7
:10027300600E121DFE75E9FB906193E0A2E640F269
:10028300EEA2E092AF7F010205B6C0E074F2120560
:1002930057A2AFE433FED2AF9061A5E0F8E5BF58B3
:1002A3005404600675BFFB121E3A80D4C0E074F29A
:1002B300120557A2AFE433FED2AFE589A2E0500A9C
:1002C300900F4EE0D2E0F053ABFEE589A2E1500A75
:1002D30053ABFD900F4EE0D2E2F0E589A2E7501751
:1002E300900F4EE0701153AB7F900F4FE4F07C649E
:1002F300FDFA7B08120358900F4EE060031203507F
:10030300758900C2C5EEA2E092AF7F010205B6C0B7
:10031300E074F2120557A2AFE433FED2AFE58AA22E
:10032300E0500A538DFE900F4EE0D2E4F0E58AA22E
:10033300E2500A538DFB900F4EE0D2E3F0900F4E44
:10034300E06003120350758A00C2EB80B87C647DC1
:10035300007A107B00900F50E0F912187022C3E46A
:1003630098F8E499F91203A28026C3E49AFAE49B6D
:10037300FBE920E7E91203A2E498F8E499F922C320
:10038300E498F8E499F91203A2E498F8E499F9C31C
:10039300E49AFAE49BFB22EB20E7CFE920E7E0B9FC
:1003A3000010BB0008E88AF084F8AAF022E4FBC836
:1003B300FA22EB70227B10C833C8C933C933500704
:1003C300C39AC3DBF280069A50012ADBEAC833F4EE
:1003D300C8C933F4C9FA2275F008E4C833C8C9336D
:1003E300C933C99AC99B5004C92AC93BD5F0ECFB50
:1003F300C833F4C8E4C9FA22080808EAC0E0EBC02D
:10040300E086F0E7A4FA180986F0E7A42AFA1809A7
:1004130086F0E7A42AFA180986F0E7A42AFA1986CF
:10042300F0E7A4FBE5F02AFA190886F0E7A42BFB12
:10043300E5F03AFA190886F0E7A42BFBE5F03AFA5F
:1004430018180986F0E7A4C5F02BFBE43AFA19085B
:10045300E7C5F0C6A426F6E5F03BFBE43AFA1886B6
:10046300F0E7A4F6E5F00826F6E43B08F6E43A08DC
:10047300F6D0E0FBD0E0FA22E4CFC0E0E4CEC0E067
:10048300E4CDC0E0E4CCC0E075F020C3E633F60869
:10049300E633F608E633F608E633F6181818EC33B5
:1004A300FCED33FDEE33FEEF33FFC3EC9709ED971D
:1004B30009EE9709EF97191919400FFFEC97FC09FB
:1004C300ED97FD09EE97FE191906D5F0BEECF70975
:1004D300EDF709EEF709EFF7191919D0E0FCD0E0B1
:1004E300FDD0E0FED0E0FF222518C582C0E0E5196B
:1004F30034FFC583C0E0E518C3958224F810AF0824
:100503008583198582188008858319858218D2AF5F
:10051300CEF0A3E520F0A37808E608F0A3DEFAEF17
:10052300F0A3E58124FAF8E608F0A3E608F0A3E6D1
:1005330008F0A30808E608F0A3E608F0A315811560
:1005430081D0E0FED0E0F8158115811581E8C0E087
:10055300EEC0E022C0D02518C582C0E0E51934FF03
:10056300C583C0E0E518C3958224F310AF088583E3
:10057300198582188008858319858218D2AFC8F03F
:10058300A3E9F0A3EAF0A3EBF0A37908E709F0A34A
:10059300D8FAECF0A3EDF0A3EEF0A3EFF0A3D0E0D4
:1005A300F0A3D0E0F0A3D0E0F0A3E520F0A3E5F0C2
:1005B300F0A322851983851882E0C0E0A3E0F9A3A4
:1005C300E0FAA3E0FBA37808E0F608A3DFFAE0FC77
:1005D300A3E0FDA3E0FEA3E0FFA3E0C0E0A3E0C02F
:1005E300E0A3E0F5D0A3E0F520A3E0A3F5F010AF7E
:1005F300088583198582188008858319858218D216
:10060300AFD082D083D0E0F8D0E032120BC2B90071
:1006130003020650E4900301786E790D8002F0A383
:10062300D8FCD9FA900F6EAA82AB83900086782EFD
:1006330079028015E493A3AC82AD838A828B83F025
:10064300A3AA82AB838C828D83D8E9D9E775822EE6
:100653007583B9740412092375823075832274007B
:10066300120923E80375F0108E1A8F1B85821F85EC
:10067300831E851882851983E0CEA3E0CF851F8270
:10068300851E83EBC9EAC8EDCBECCAC3E833C8E9DE
:1006930033C9EA33CAEB33CBC3EA9EF51DEB9FF5AF
:1006A3001CB35004AB1CAA1DEC33CCED33CDD5F0F9
:1006B300DAAE1AAF1B22D083D082ECC0E0EDC0E0EB
:1006C300E493A3FCE493A3FDED4C600D120791ECBE
:1006D30024FFFCED34FFFD80EFE493A3FCE493A33C
:1006E300FDED4C600D12082EEC24FFFCED34FFFDF4
:1006F30080EFD0E0FDD0E0FCE493A3C0E0E493C03E
:10070300E022851983851882E0A3FEE0A3F5207813
:1007130008E0A3F608DFFAE0A3FFE0A3C0E0E0A34C
:10072300C0E0E0A3C0E0E0A3C0E0E0A3C0E010AFFE
:10073300088582188583198008858218858319D2D4
:10074300AFD083D082020929D083D082E9C0E0E40C
:1007530093A3C386F0C5F095F0F908E493A386F05C
:10076300C5F095F0700BE493A3C3994005E90480A9
:1007730002A3E475F002A42582F582E5F03583F542
:1007830083D0E0F9E493A3C0E0E493C0E022C0E0A7
:10079300C3E49396087401939618400FE49366702C
:1007A3000808740193661870007019A3A3C3E49337
:1007B30096087401939618A3A3400DD0E0D0E0D01F
:1007C300E00206F5A3A3A3A3A3A3D0E022740480AD
:1007D3000474028000CCC0E0EDC0E0E518C39CCCFB
:1007E300AD1950011D10AF068C188D1980068C1899
:1007F3008D19D2AF1208A5D0E0FDD0E0FC2274021F
:100803008000CCC0E0EDC0E0E518C39CCCAD19502E
:10081300011D10AF068C188D1980068C188D19D206
:10082300AF120883D0E0FDD0E0FC22C0E0C0F08826
:10083300F0E4936670080874019366187000A8F0DA
:10084300A3A3700BD0F0D0E0D0E0D0E00206F5A374
:10085300A3D0F0D0E022D083D082CCC0E0E493A335
:1008630060061209041470FAE493A360061209F5F2
:100873001470FAD0E0FCE493A3C0E0E493C0E02258
:10088300CAC0E0E493A3C582CCC582C583CDC5832A
:10089300F0A3C582CCC582C583CDC583DAE5D0E09C
:1008A300CA22CAC0E0E0A3C582CCC582C583CDC538
:1008B30083F0A3C582CCC582C583CDC583DAE6D0D8
:1008C300E0CA22C008C3E096F50808A3E0964208F0
:1008D30008A3E096420808A3E09645087001D3D028
:1008E30008227009080808226016181818C6C333AE
:1008F300C608C633C608C633C608C633C6D5E0EA3B
:1009030022C0E0E493A3D39C5010E493A3C39C4080
:100913000AD0E0D0E0D0E0020876A3A3A3D0E0227F
:10092300C09FF59FE473D09F22D083D082C09FE401
:1009330093C0E0740193C0E0740293F59F222518DD
:10094300F58210AF08F518400215198008F5184014
:10095300021519D2AF851983227404800A740380A7
:1009630006740280027401C0E0F404120941D0E06D
:10097300120B9D22C0D0251810AF08F518500205A0
:10098300198008F51850020519D2AFD0D022BB0147
:1009930002E722C082C08389828A83BB0003E0808E
:1009A30002E493D083D08222C0E0C0D0E8C0E0E567
:1009B300A8D2AFC2C7A2E792AFD0E0F8D0D0D0E0C0
:1009C300326016080808C6C313C618C613C618C66D
:1009D30013C618C613C6D5E0EA22C3E0C696F608C6
:1009E300A3E0C696F608A3E0C696F608A3E0C6966B
:1009F300F622C0E0E493A36C7009D0E0D0E0D0E02D
:100A0300020876A3A3D0E022251810AF08F51840FA
:100A13000215198008F51840021519D2AF22E766AE
:100A230070100809E766700A0809E7667004080988
:100A3300E76622C3E09608A3E09608A3E09608A31E
:100A4300E096A2D265D03322E066701008A3E06678
:100A5300700A08A3E066700408A3E06622C3E09668
:100A6300F008A3E096F008A3E096F008A3E096F060
:100A730022E026F608A3E036F608A3E036F608A33C
:100A8300E036F622E627F60809E637F60809E637E0
:100A9300F60809E637F622C0E0E8C0E0E58124FC69
:100AA300F8E6A2E7D0E0F8D0E022700422600D1847
:100AB300C6C333C608C633C6D5E0F41822E657F6D4
:100AC3000809E657F60809E657F60809E657F62235
:100AD300E056F608A3E056F608A3E056F608A3E0AE
:100AE30056F622E056F008A3E056F008A3E056F0CD
:100AF30008A3E056F022E647F60809E647F6080998
:100B0300E647F60809E647F622E026F008A3E036B2
:100B1300F008A3E036F008A3E036F022E4C396F62B
:100B230008E496F608E496F608E496F622C6F4C6B8
:100B330008C6F4C608C6F4C608C6F4C622C3E796B8
:100B43000809E7960809E7960809E79622C3E0969D
:100B530008A3E09608A3E09608A3E0962275D000C8
:100B63007581407518017519030002060EE0F60839
:100B7300A3E0F608A3E0F608A3E0F622600C08C69B
:100B8300C313C618C613C6D5E0F422E6F008A3E6DD
:100B9300F008A3E6F008A3E6F022CAC0E0E6F0A35B
:100BA30008DAFAD0E0FA22E0FAA3E0FBA3E0FCA320
:100BB300E0FD22EAF0A3EBF0A3ECF0A3EDF022E5D5
:100BC300C754F84401F5C77901222518F582E435A5
:100BD30019F58322C2AF75D69F0200002212092C99
:100BE30077500012092CD5500012092CFE50001228
:100BF300092C6E510012092CC7510012092C4052C6
:100C03000012092C90540012092C4A560012092C88
:100C1300F6560012092C38580012092CD65A001225
:100C2300092CDC5D0012092CE95D0012092C775EAA
:100C33000012092C295F0012092C715F0012092C84
:100C4300D15F0012092CED5F0012092C2160001204
:100C5300092C56600012092C3F610012092CF46123
:100C63000012092C49640012092C96650012092C04
:100C730039660012092CC6660012092CFC660012A4
:100C8300092CAE670012092C80680012092C3B6AFC
:100C93000012092C8F6A0012092CC36A0012092C56
:100CA3003E6B0012092C186C0012092CD66C001232
:100CB300092C1B6D0012092C336D0012092CCA6D0F
:100CC3000012092C3B700012092C50720012092CDF
:100CD3006E720012092C8C720012092C66730012BA
:100CE300092C84760012092C00800212092C35800D
:100CF3000212092C5B800212092C95800212092C26
:100D0300A7800212092CF9800212092C5A810212BF
:100D1300092CE4810212092C88820212092CD08248
:100D23000212092C0A830212092C27830212092CAE
:100D33004C830212092C9E830212092CB7830212E0
:100D4300092CDD830212092CFC830212092C37843F
:100D53000212092C7B840212092CA2840212092C90
:100D6300F3840212092CA3850212092C5B8602125A
:100D7300092C23870212092CE3870212092C2788E6
:100D83000212092C4C880212092C8F880212092C9A
:100D9300DC880212092C348A0212092CBA8A021244
:100DA300092CD88A0212092C028B0212092C1C8BE3
:100DB3000212092C2B8B0212092C368B0212092CDE
:100DC300F68B0212092C4F8C0212092C118D021280
:100DD300092C198D0212092C918D0212092CE08D18
:100DE3000212092C268E0212092C678E0212092C7C
:100DF300F78F0212092CAF900212092C1B910212D9
:100E0300092C46920212092C57920212092CCD92F8
:100E13000212092C5F930212092CB7930212092CB8
:100E230077940212092C9E940212092CBC9402128C
:100E3300092CCE940212092C21950212092C5E95DD
:100E43000212092C6B950212092CEE960212092C40
:100E530043980212092C5C980212092C98990212E9
:100E6300092C339A0212092C6C9A0212092CB89A93
:100E73000212092CD49B0212092C1D9E0212092C6A
:100E8300289E0212092C339E0212092C3D9E021247
:100E9300092C489E0212092C629E0212092C6C9E98
:100EA3000212092C769E0212092C819E0212092C31
:100EB300A99E0212092C049F0212092C289F0212D8
:100EC300092C4C9F0212092CAA9F0212092CEE9F97
:100ED3000212092C0AA00212092C81A00212092C69
:100EE300B9A00212092C05A10212092C62A1021257
:100EF300092C1CA20212092C00A40212092C59A4C9
:100F03000212092C89A50212092CAFA50212092C81
:100F130038A70212092CB4AA0212092C86AC0212B9
:100F2300092C4FAE0212092CFCAE0212092C67B039
:100F33000212092C06B10212092C53B10212092C18
:100F4300BDB10212092CCCB10212092C53B4021206
:100F5300092C05B60212092C72B60212092C51B7DC
:100F63000212092C6AB80212092CE7B90212092CE1
:100F730006BA0212092C5BBA0212092C60BB0212D8
:100F8300092C88BB0212092CE0BB0212092CBFBC3E
:100F93000212092C03BD0212092C4EBD0212092CA8
:100FA300B9BD0212092CFABE0212092C5EBF02124D
:100FB300092CACC00212092C0CC30212092C3DC32C
:100FC3000212092CF5C40212092C4AC50212092C7B
:100FD3004EC60212092CEBC60212092C44C7021298
:100FE300092CF7C70212092C99C80212092C39C916
:100FF3000212092CDEC90212092CE2800112092C0B
:1010030021810112092C68830112092CB283011278
:10101300092CCD840112092C3D850112092C7285FE
:101023000112092CE6860112092C69890112092C87
:10103300928A0112092C288B0112092C3094011277
:10104300092CC5940112092CAC970112092C9F9805
:101053000112092C00990112092C1C9A0112092C66
:10106300019C0112092C129E0112092C7C9E011273
:10107300092C4E9F0112092C05A00112092C0FA067
:101083000112092C3DA00112092CFAA00112092C0E
:10109300D1A10112092C98A20112092C4AA3011211
:1010A300092C73A30112092C95A30112092CEBA59A
:1010B3000112092CC3A60112092C07A70112092C3E
:1010C3006FA70112092C27A80112092C59A8011294
:1010D300092C9DA80112092CD3A80112092C1FA9C0
:1010E3000112092C74A90112092C79A90112092CE6
:1010F300CCA90112092CF1A90112092C00AB011290
:10110300092C64AB0112092CD4AB0112092C60AC7D
:101113000112092C2DAF0112092C11B00112092C57
:1011230094B10112092CCAB30112092C78B401122B
:10113300092C28B50112092C69B70112092C0CB826
:101143000112092C53B80112092CFFB90112092C01
:1011530013BA0112092C1DBA0112092C45BA011246
:10116300092C51BA0112092C70BA0112092C55BC71
:101173000112092C8CBC0112092C96BC0112092CFA
:10118300A0BC0112092CFBBC0112092C45BD0112A4
:10119300092C4DBE0112092CA4BE0112092CF3BF68
:1011A3000112092C37C00112092CDFC00112092CCE
:1011B300C2C10112092C6DC20112092CB9C301125B
:1011C300092CB7C40112092C5DC50112092CEDC508
:1011D3000112092C04C60112092C3BC60112092C69
:1011E30045C60112092C50C60112092C6EC6011204
:1011F300092CB2C60112092C0FC70112092C34C7DE
:101203000112092C4EC70112092CDAC70112092C4D
:10121300F7C80112092C64C90112092C4BCA011227
:10122300092C72CA0112092CE6CA0112092C61CBDE
:101233000112092C65CC0112092C5BCD0112092C7A
:101243000ACE0112092C1DCF0112092CB9CF0112AC
:10125300092C46D00112092C24D10112092C5CD18E
:101263000112092CB4D10112092C7DD20112092CCF
:101273009ED20112092C25D30112092C49D3011244
:10128300092C6BD30112092CB4D30112092CCAD532
:101293000112092CB1D60112092C62D70112092CB3
:1012A30098D90112092CE8D90112092C28DA011264
:1012B300092C6ADA0112092CC6DA0112092CF4DAB4
:1012C3000112092C18DB0112092C6BDB0112092C0A
:1012D30099DB0112092CD2DB0112092C27DC011244
:1012E300092C8DDC0112092CE1DD0112092C04E02B
:1012F3000112092C71E00112092C9AE00112092C48
:1013030025E10112092C8CE10112092CD7E101120C
:10131300092CFBE10112092C1FE20112092C7AE2CC
:101323000112092C95E20112092C4EE30112092C3A
:1013330088E30112092CA2760012092CDA76001236
:10134300092CFB760012092C3D770012092CA37798
:101353000012092CAD770012092CBD770012092C5D
:10136300F2770012092C3B7B0012092CE57C00125A
:10137300092CE57E0012092CA2CA0212092CE8CA24
:101383000212092CC8CB0212092CCACC0212092C56
:10139300CDCD0212092C59CF0212092CB7CF02125C
:1013A300092C74D00212092C92D10212092C03D2F7
:1013B3000212092C3FD20212092C8DD20212092CDF
:1013C30097D20212092CDBD20212092C37D3021254
:1013D300092CD2D30212092C4FD40212092C1ED588
:1013E3000212092CB7D50212092CD7D50212092CE7
:1013F3000DD60212092C3ED60212092CFFD6021278
:10140300092C0FD70212092C63D70212092C7ED79D
:101413000212092C90D70212092C99D70212092C17
:10142300F3D70212092C4FD80212092C9BD80212AF
:10143300092CB6D80212092CE7D80212092C04D9B8
:101443000212092C10D90212092C84DA0212092C77
:101453009DDA0212092C04DB0212092C17DB02129B
:10146300092C25DB0212092CD9DB0212092CBDDC65
:101473000212092CC3DD0212092C4DDE0212092CC3
:1014830057DE0212092CC4DE0212092CDBDE021223
:10149300092C0DDF0212092C46DF0212092C70DF22
:1014A3000212092CD1DF0212092CF1DF0212092CDE
:1014B3000FE00212092C55E00212092C7BE1021203
:1014C300092CC8E10212092CF7E10212092C6DE282
:1014D3000212092C95E20212092CCEE20212092C07
:1014E300DCE20212092C34E30212092C83E3021218
:1014F300092CC2E30212092CF2E30212092C1EE4A6
:101503000212092C29E40212092C47E40212092CC5
:1015130009E50212092C13E50212092C4EE5021209
:10152300092C64E50212092CB9E50212092CCDE558
:101533000212092CDBE60212092CEEE60212092C38
:1015430003E70212092CA5E70212092C28E802126C
:10155300092CE6E80212092CF1E80212092C1DEA13
:101563000212092C39EA0212092C8BEA0212092C05
:10157300CAEA0212092CDFEA0212092C41EB021219
:10158300092CD0EB0212092C1BEC0212092C6CEE75
:101593000212092CEAEE0212092C5FEF0212092C47
:1015A30081F10212092C99F10212092C9CF1021209
:1015B300092CA8F10212092CBCF10212092CC4F166
:1015C3000212092CF7F10212092CA7F20212092CBC
:1015D3001DF30212092C90F30212092C44F4021297
:1015E300092CF9F40212092C18F50212092CB8F58A
:1015F3000212092CC4F50212092CEFF50212092C70
:10160300F2F50212092C5CF60212092C84F702127D
:10161300092C5CF80212092CE7F80212092C00FAD3
:101623000212092CBDFA0212092CF6FA0212092C35
:1016330027FB0212092CE5FB0212092C15FC0212EE
:10164300092CF0FC0212092C89FD0212092C14FE4C
:101653000212092CC5FE0212092C8C4A0012092C15
:101663007AFF0212092CBBFF0212092C008004121C
:10167300092C65800412092CA2800412092CF18024
:101683000412092CDB820412092CC2840412092CD3
:10169300FB870412092C21880412092C39880412AF
:1016A300092CA2880412092CDE880412092C0B8948
:1016B3000412092C1B500012092C9B890412092CBB
:1016C30019F40312092C97F40312092CC9F4031219
:1016D300092C21F50312092C9BF60312092CB7F6EA
:1016E3000312092CF2F60312092C79F70312092CC1
:1016F300C9F70312092C96F80312092C9AF903125D
:10170300092CEEF90312092C69FA0312092CCAFAFF
:101713000312092C0BFB0312092CB6FB0312092C31
:10172300D4FC0312092C0AFD0312092C55FD0312E4
:10173300092C9CFD0312092C26FE0312092CCBFE57
:101743000312092CFC9A0412092C429B0412092C43
:10175300AC9B0412092CCD9B0412092C6D9C041222
:10176300092C779C0412092CC49C0412092CE99CB3
:101773000412092C499D0412092CDF9D0412092C23
:10178300179E0412092C709E0412092CCC9E04127D
:10179300092CFA9E0412092C829F0412092CC79F5C
:1017A3000412092C06A00412092C4BA00412092CC4
:1017B3005DA00412092C6FA00412092C8EA0041240
:1017C300092C97A00412092C49A10412092C89A100
:1017D3000412092C6EDF0412092C0FD50412092CF4
:1017E30045D50412092C8ED50412092CDBD604121C
:1017F300092CE3A90312092C5CAB0312092C1DADC0
:101803000312092C59AD0312092CE0B00312092C61
:1018130026B10312092C3BB30312092C0DB4031296
:10182300092CB9B40312092C64B60312092CAEB8FF
:101833000312092CCABB0312092CD8BB0312092CAF
:10184300B3BC0312092CC6C00312092C977F0012E4
:10185300092C2FE30412092C45E30412092C28C494
:101863000412092C3BC40412092CD9C40412092CF8
:101873001BC50412092C40C50412092C85C504128A
:10188300092CBEC50412092CEFC50412092C62C72A
:101893000412092C47FF0312092C7DFF0312092CA4
:1018A30099FF0312092CDBFF0312092CEBFF031230
:1018B300092C59C10312092C9BC10312092C0AC21A
:1018C3000312092C01C30312092C85C30312092C2B
:1018D3000DC40312092C22C40312092C6CC4031275
:1018E300092CBBC40312092C0DC50312092C20C5F6
:1018F3000312092C6CC50312092C67C70312092CA8
:10190300E9C70312092C13C80312092C5CC803127C
:10191300092C24CA0312092C94CA0312092C21CBC3
:101923000312092C3CCB0312092C5CCB0312092CA8
:101933007DCB0312092C56CC0312092CB9CC03120C
:10194300092C05CD0312092C08CE0312092C76D0DD
:101953000312092C90D00312092C15D10312092C60
:1019630085D10312092CA8D10312092CE2D1031249
:10197300092C50D20312092C11D30312092C36D38C
:101983000312092C40D30312092C50D30312092C40
:10199300D3D30312092CEED30312092C10D4031250
:1019A300092C3CD40312092C77D40312092C86D4B6
:1019B3000312092CC7D40312092CCEE10412092CFB
:1019C300E6E10412092C77930412092CC69304123E
:1019D300092C78950412092C2D970412092C75975C
:1019E3000412092C71980412092CC8990412092CA9
:1019F300EA990412092C469A0412092CC89A041273
:101A0300092CECD40312092C17D50312092CFAD58F
:101A13000312092C7CD60312092CE6D60312092CD7
:101A230032D70312092CA0D70312092C2BD8031287
:101A3300092CB9D80312092CECD80312092CE0DDC8
:101A43000312092C85DF0312092C41E00312092C30
:101A53007EE00312092CCAE20312092C3EE30312AF
:101A6300092C3DE40312092C16E50312092C90E519
:101A73000312092C4AE60312092C09E70312092C65
:101A830075E70312092C1CE80312092C79E80312E9
:101A9300092C36EB0312092CF6EB0312092C5BEC31
:101AA3000312092C05EE0312092CC2EE0312092CB2
:101AB30021F00312092C48F10312092CE3F103125C
:101AC300092CDEF20312092CD2E30112092C5AE489
:101AD3000112092CCDE40112092C21E50112092C74
:101AE3005CE50112092CE9E50112092C05E7011255
:101AF300092C57E70112092CB5E70112092CF8E765
:101B03000112092C6DE80112092CB7E80112092C06
:101B130036EA0112092C09EB0112092C5FEB0112C1
:101B2300092C55EC0112092C02ED0112092C2DEDA3
:101B33000112092C4CED0112092C5CED0112092C48
:101B430062EE0112092C26EF0112092C07F1011292
:101B5300092C6DF10112092C84F10112092CDAF21E
:101B63000112092C57F30112092CC6F30112092C97
:101B73004FF40112092C93F40112092C5AF60112A5
:101B8300092C32F70112092C6EF80112092C27F9DE
:101B93000112092C58FA0112092C87FA0112092C97
:101BA30061FB0112092C30FC0112092C89FC011282
:101BB300092CA1FC0112092CA1FD0112092C2FFEF5
:101BC3000112092CC0D20412092C7FD30412092C50
:101BD30038D40412092C9ED40412092CAAB9041275
:101BE300092C13BB0412092C69E30412092C7DDEB2
:101BF3000412092C8BDE0412092CE77F0012092C36
:101C030062E10412092C72E10412092C7EE1041230
:101C1300092CCBE10412092C7FDD0412092C00DE10
:101C23000412092C64DE0412092CF87F0012092C1B
:101C3300FB7F0012092C0DE30412092CA0B004123F
:101C4300092CF5B00412092CC9B20412092CFBB2F9
:101C53000412092C22B30412092C36B30412092CE2
:101C63004FB30412092C7EB40412092CEBDA0412CC
:101C7300092C0FDB0412092C28DB0412092C5BDB73
:101C83000412092C8CDB0412092CBADB0412092C74
:101C93001CDC0412092C2BDC0412092C35DC041285
:101CA300092C42DC0412092C8ECD0412092CCBCD55
:101CB3000412092CDACD0412092CF9CD0412092CD3
:101CC30061CE0412092C6ACE0412092CC9CE041267
:101CD300092CEDCE0412092CE0CF0412092CEDCF10
:101CE3000412092CFECF0412092CA4E20412092CBD
:101CF300C1E20412092CE3AB0412092C29AC04122F
:101D0300092C80AD0412092C8DAD0412092CA0AD51
:101D13000412092CBFAD0412092CD5AD0412092CF1
:101D2300E9AD0412092C5EAE0412092CC3AE0412F1
:101D3300092C73AF0412092C48B00412092C58B0B3
:101D43000412092C67B00412092C48E00412092C70
:101D53006DE00412092C96E00412092CBEE0041273
:101D6300092C42D70412092C69D70412092CE5D790
:101D73000412092C2CD00412092C45D00412092C6E
:101D830051D00412092C65D00412092C83D00412FB
:101D9300092C8DD00412092C97D00412092CAAD037
:101DA3000412092C09D10412092C40D10412092C64
:101DB3006ED10412092CBCD10412092C09D20412CD
:101DC300092C24D20412092C2ED20412092C76D207
:101DD3000412092CE3E00412092CFFE00412092C7D
:101DE3004FE30412092CEB890412092C158A0412FF
:101DF300092C318A0412092C448A0412092C838A7F
:101E03000412092C048B0412092C418F0412092C8F
:101E13006B900412092C9E900412092CEB9004126F
:101E2300092C49920412092C71920412092C9492E0
:101E33000412092CD8920412092C39930412092C88
:101E430049930412092C4CDC0412092C67DC04129C
:101E5300092C90DC0412092CAADC0412092CCFDC17
:101E63000412092CEEDC0412092C06DD0412092CE1
:101E730034DD0412092C4EDD0412092C60E2041235
:101E8300092C8AC00412092C91C00412092CC6C162
:101E93000412092CF5C10412092C63C20412092C83
:101EA300F6C20412092C2FC30412092C78C304129E
:101EB300092CA8C30412092CC8C30412092C53D932
:101EC3000412092C6BD90412092C88DA0412092C88
:101ED3008BDA0412092CE0FE0112092C3FFF0112D8
:101EE300092C95FF0112092CD6FF0112092C008041
:101EF3000312092C1B800312092C90800312092C56
:101F030016810312092CA9810312092CC58103121E
:101F1300092C6F840312092C1E870312092CBC8819
:101F23000312092C078A0312092CBC8E0312092CF5
:101F3300B88F0312092C2E900312092CFA90031266
:101F4300092C9E910312092C01930312092CA193CE
:101F53000312092CEB930312092C5D940312092C31
:101F630002950312092CCF950312092C35960312FF
:101F7300092C3A970312092CF7970312092C94980A
:101F83000312092CEB9A0312092C7F9B0312092CD1
:101F9300FB9B0312092C879E0312092C829F0312B9
:101FA300092CB19F0312092C70A10312092C44A31D
:101FB3000312092C3AA40312092C23A90312092C96
:101FC3007ECA0412092CA3CA0412092C4BCB041297
:101FD300092C13CC0412092CE5CC0412092C62CD74
:101FE3000412092CEBBC0412092CACBD0412092CFD
:101FF3001BBE0412092C40BE0412092CFBBE0412A2
:10200300092C1CE20412092C6FC70412092CC9C73E
:102013000412092C20C80412092CD1C80412092C5B
:10202300BDC90412092CD9C90412092CB2A1041286
:10203300092C72A20412092C50A40412092C53A4D3
:102043000412092C8FA40412092C92A40412092C43
:102053009DA40412092CA8A40412092CB3A40412ED
:10206300092CC4A40412092C78A50412092C9BA6DC
:102073000412092C5AB50412092C80B50412092C38
:10208300CBB50412092CE7B50412092C18B60412B7
:10209300092C28B60412092C35B60412092C42B6B1
:1020A3000412092C25B70412092C63B70412092C56
:1020B3006DB70412092C8CB80412092C97B80412BA
:1020C300092CA9B80412092CB2B80412092CBCB803
:1020D3000412092C25A70412092CD5AB0412092CD0
:1020E300E0E20412092CD7480012092C57480012C9
:1020F300092C1D480012092C5D470012092CD346F8
:102103000012092CA5460012092C51450012092C76
:10211300BA440012092C1D440012092CA8430012D2
:10212300092C76430012092CB3420012092CDE401D
:102133000012092C6F400012092C41400012092C97
:102143003E400012092CC53E0012092CC63D001268
:10215300092C903C0012092CD43B0012092C4A3B59
:102163000012092C503A0012092C404F0012092C7E
:102173007E4D0012092C4A4D0012092C174D0012F6
:10218300092CEA4C0012092CAC390012092CF33843
:102193000012092CB6380012092C104C0012092C1D
:1021A300FC370012092CC6370012092C6D370012B8
:1021B300092C23370012092C6D4B0012092C3D8981
:1021C3000412092CC4360012092C93360012092C70
:1021D3005B330012092C1B330012092C0F3300123E
:1021E300092C6F320012092CAF310012092C282F51
:1021F3000012092CB92C0012092C772C0012092C7F
:102203004B2B0012092C002B0012092C3C2A001224
:10221300092C7F290012092C4F290012092CD44ABA
:102223000012092C15290012092C48FF0200000096
:1022330080FBE4738F000100CA0F87000100C80F01
:1022430024000200160625000200180626000200DC
:102253001A0627000200A80F28000100AA0F290070
:102263000100AB0F84000400AC0F86000100B00F27
:102273002A000100B10F2B000100B20F2C00010056
:10228300B60F2D0008001E062E000100B70F2F0009
:102293000100B80F30000100B90F31000100BA0F7F
:1022A3003200010026063300010027063400010036
:1022B300BB0F36000100280638000100BC0F3900AF
:1022C3000100B50F83000200C60F63000100320650
:1022D30064000100B30F65000100B40F6D0001003D
:1022E300C50F6E0002001C0643000100BD0F440031
:1022F3000200BE0F45000100C00F46000200C10FDF
:10230300470008002A0648000100C30F4B000100E4
:10231300C40F04000100C90FA1000100CD0F370055
:102323000100CC0F88000100CB0F3C0001002906FF
:102333000000000000000001363601010001020127
:102343000001030100010401060605020000070164
:1023530000340801000F090401010D0100FF0E08FC
:10236300000017020000190100FF1A0100011B0100
:1023730000FE1C0100081D0200001F0100012001D6
:102383000001210200002301000F240200002601A6
:10239300000127010008280200FF2A0100072B0182
:1023A30002402C0100002D0100012E0100012F012C
:1023B30000FF30010B1C310800003A0100083B010B
:1023C300000F2F0100000101710101010101110141
:1023D30001013101010101018001100161013B0093
:1023E30014006301730172016201430100011301CF
:1023F30006013D0135000401120100010001000145
:10240300000104010401330133013C0144013201A1
:102413003600000100016501000135008101000162
:102423000501820183010001030071003001600096
:10243300110070003102200350048000100061007D
:102443000000140063007300720062004300000088
:10245300130006000000000004001200000000004A
:102463000000000004000400370037003C02440071
:10247300000000000000000065000000350081003E
:10248300000005000000830000000304710402043F
:102493006004110470040204020401040204100421
:1024A30061040004140463047304720462044304A7
:1024B30000041304060400040004040412040004CA
:1024C3000004000400045104640000040004000438
:1024D30044040004000400040004650400043504FB
:1024E30081046400050400048304000403027102F0
:1024F3003001600211027002010202020202800234
:10250300100261023A004100630273027202620226
:102513004302000213023800000200020402120206
:102523000002000200020002040204023700370026
:102533003C0244020002390000020002650200026C
:1025430035028102000205028202830200020103B6
:1025530071030103010301030103010322030203C6
:10256300010310030003000300030003000300033F
:1025730000034203000324030603000300030403D0
:102583001203250323032503230304030403000386
:102593000003000344030003000323030003650354
:1025A3002100350381030003050300030003000337
:1025B300000003002001E080000000002001E18012
:1025C30000000400420164800000050042015380C2
:1025D3000000060042014280000007002001DE8067
:1025E30000001000420359100000110020035E0F89
:1025F3000000120010036A100300000021035F0FA4
:10260300060000002001640F00000000000000002D
:10261300000003002001E080000000002001E180B1
:102623000000040042016480000005004201538061
:102633000000060042014280000007002001DE8006
:1026430000001000420359100000110020035E0F28
:102653000000120010036A100300000021035F0F43
:10266300060000002001620F0000000000000000CF
:10267300000003002001E080000000002001E18051
:102683000000040042016480000005004201538001
:102693000000060042014280000007002001DE80A6
:1026A30000001000420359100000110020035E0FC8
:1026B3000000120010036A100300000021035F0FE3
:1026C300060000002001610F000000000000000070
:1026D300000003002001E080000000002001E180F1
:1026E30000000400420164800000050042015380A1
:1026F3000000060042014280000007002001DE8046
:1027030000001000420359100000110020035E0F67
:102713000000120010036A100300000021035F0F82
:10272300060000002001630F00000000000000000D
:1027330036000100060000000F000000000000004A
:1027430000000000000003FFFF00000403FFFF0080
:1027530000FFFF0FF4010005C4040320000100146F
:102763000B000000000000000003010F661FA21F02
:102773006C1FBA1F721FA81F721FB41F781FBA1FC6
:10278300721FA81F7E1FBA1F841FBA1F8A1FBA1F7A
:10279300901FBA1F961FBA1F9C1FBA1F000000008C
:1027A3000000000000008C1A1300501A01008C1A5C
:1027B30002001A1A0300201A0400261A05002C1A14
:1027C3000600381AFFFF0000014210066C1008666D
:1027D300100B841010BE0F024810055A10074E103C
:1027E3000C24100D3610FF0000B614E614BC14C2FE
:1027F30014E014D414CE14EC14F214F8140415C811
:1028030014B014AA1400160F00000B150B020002DB
:10281300220F320000067A623230313630393239D3
:1028230031303236333758696E6748756F59756181
:102833006E536D6172740000000000000000896730
:10284300452301EFCDABA615B815BE158014C415ED
:102853007A148614140AE5D5C5B5A5A5958585759D
:1028630065061624162A160C1618161216BA13B471
:1028730013F013F613EA13A213303017181921308B
:102883001B1D1F300C0E020B040B0A0708000F0060
:10289300034948424D181725050200011916181659
:1028A300161523030000383C3E363B3B352B432CA7
:1028B300303016181920231A1C1E30DA14FE141E89
:1028C300160A151015FA15CA15D015DC15D61502FA
:1028D3000402010101010902C613CC13C013FC1346
:1028E30000BE040AD213E413FA0600000000280015
:1028F3000C0015000E0004007F005728080900048F
:102903000303FF1E1E0A0C04301005080F01090003
:10291300080C74F71204EBE9FE1216C0EE900F6F69
:10292300F090030E7406F0A37422F0900310740069
:10293300F0A37422F090031274FAF0A37421F090C0
:10294300031474F4F0A37421F00243F674F7120431
:10295300EBE9FE900302E4F0EE900301F0900FC167
:102963001237661247487C2A7D067A057B03121EBE
:10297300E8900FC3E090030DF00243F674F41204E1
:10298300EB8A088B09EB5480605B900301125E4A6B
:10299300604A8E828F83E064017032124ED912072F
:1029A300D0EE2412127229F50A780A120968122A43
:1029B3002F120964EE240B122A281207D4EE2417CF
:1029C300125E5A12167E74091209778008E06402B7
:1029D30070031220ECEEFAEFFB121768AA08E50960
:1029E3006480FB803AEAA2E05017900316124D125E
:1029F3006006123762122235E5086401FAAB0980DA
:102A03001E5402600C900F6E7401F0EA6402FA80A7
:102A13000EEA54046005EA640480F37A007B000242
:102A23002AFBEE240CF582EF124EE322EE240FF57F
:102A33000AEF3400F50B780A2274F41204EB8A08C7
:102A43008B098A828B83A3A3A3E02410124402FA86
:102A53001250467003022AEB8E828F837402F0A316
:102A6300E4125009A3A3A3A3E8F0A3E9124B57A3CD
:102A7300A3A3A3A3A3A3F0E5082403F8E509123F46
:102A8300AF241012426E8E828F83A3A3A3A3F0EE12
:102A93002409FA122AED12468FF5838882E0A2E513
:102AA3008E828F83A3A3A3A3A3500474018001E4A4
:102AB300F0E5082403F888828983125DA3EA12688B
:102AC30061EB122A2B12506E1209601263CFEB12C4
:102AD30048158E828F83A3A3124EF2120977EEFA62
:102AE300EFFB9003011250B3800EEF3400FB8E8294
:102AF3008F83A3A3221209777F0402070574F212BE
:102B030004EB8A088B09ECFAEDFB740E120BCDE093
:102B1300FC1216F08A0C8B0DAE0CAF0DEE4F60233A
:102B2300AC08AD091216DEE96019AC08AD09EEFA7E
:102B3300EFFB1216E4E97007EEFAEFFB1216D879F1
:102B430000800279B40237C174EE1204EB74F712F9
:102B53000A0B8A0A8B0BECFEEDFF750FB3750E00A3
:102B6300750C00750D00800CE50C2401F50CE50DCA
:102B73003400F50D9028F9E493F8740193F9C3E553
:102B83000C98E50D994003022C6BAA0CAB0D1217A0
:102B93003E8A088B09EA450960CE8A828B83A3A308
:102BA300A3A3A3E0250EF50EF510C3E50A9510E5E2
:102BB3000B940050B37C157D007900EEFAEFFB1205
:102BC3004CC0A3A3A3A3E50AC3950EF8E028C3331F
:102BD300F8E433F9E50828F582E50939F583A3A379
:102BE300A3A3A3A3125480A312453EEAFCEBFDEE7C
:102BF300FAEFFB123FCCA3E06401700A124ED974C2
:102C0300011238A28043851882851983AC82AD8373
:102C1300850882850983125DA1121726E9602D7448
:102C230008120BCDE0C0E0124ED9D0E0F0740812C8
:102C33000BCDE06403851882851983700CAC82ADDB
:102C430083EE240B12388F800312473C850882855C
:102C53000983123EB4A3A3124FCCC0E0EE24141296
:102C63002A28D0E0F0750F00A90F74091209777FA5
:102C73000A02070574F71204EBE9FE8A828B83A329
:102C8300A3A3A3A3A3E0540860298A828B83A3A3ED
:102C9300A3A3A3A3E0540260178A828B83A3A3A3F5
:102CA300A3A3A3A3A3A3E06406600574E96E700362
:102CB3001221E80243F674E81204EB74F7120A0BCC
:102CC3007407120BCD124CD9E9851882851983F04C
:102CD300ECFEEDFF7424120BCD780C120B70751300
:102CE300008E828F83125D9D8E828F83A3A3A3E0C8
:102CF300F91216FC8A148B15EA45157003022EC2CD
:102D0300EE2410125620A914120EC28A168B17EA4B
:102D130045177003022EC2EE2406F510EF3400F5BA
:102D2300117C00851082F583122F148E828F83A36A
:102D3300A3A3122F09125AA3F8A3E0F985168285DB
:102D43001783A3A3A3A31239A4122F09A3A3A3A395
:102D530012581D851682851783A3A3A3A3A3A3F0EB
:102D6300EE126861EF123183120960EE1263D0EF45
:102D7300124815851682851783A3A3A3A3A3A3A330
:102D8300A3A3124EF2120977751000022E42850A90
:102D930082850B83125DA112172C85088285098316
:102DA300A3EAF0A3EB124F05A3A3124BFA1250CAE6
:102DB300E0A2E6500F850882850983A3A3A3A3A3FA
:102DC300E0D2E1F0E5137063850882850983A312DD
:102DD3005FBE90036CE0687003A3E069704D8508E3
:102DE30082850983A3A3A312562D780C12095C7460
:102DF30027120BCDE0F50A780A1209687426120B24
:102E0300CD1207D49003791207D479007410120BF2
:102E1300CD124B47122170740912097785088285F8
:102E23000983A3A3A3A3A3E04405F074012510FC25
:102E33008E828F83A3A3A3A3A3A3122F140510E54C
:102E43000A450B6052851008C3E5089514E49515EF
:102E53005045E51075F006A4F8A9F0E51628F8E545
:102E63001739F9E8240CF508E9123D73E4124EFB17
:102E730064016003022D917513018508828509831E
:102E83007401124F00F8A3E0F9850882850983A332
:102E9300E8F0A3E9022DA8AA16AB17120EC87816FC
:102EA3001209647425120BCDE0FC7402120BCDE001
:102EB300F9EEFAEFFB1221EE740212097780428ECB
:102EC300828F83A3A3A3E0C0E07404120BCDD0E0F0
:102ED300123BBDE0C0E07405120BCDD0E0F0E51469
:102EE300451570097406120BCD74B9800774061268
:102EF3000BCD7410F07401120BCDAA82AB83122197
:102F0300767409026A7AE0851682851783A3A3A3E0
:102F1300221254698E828F83A3A3A3E0F9121702AE
:102F23008A0A8B0B2274E81204EB74F3120A0B8ADD
:102F33000A8B0B89178C167425120BCD127244AAB7
:102F43000CFB120EB6E9F514AA0CAB0D120EBCE97C
:102F5300F515E5147003023175751300800F8E8229
:102F63008F83A3A3A3A3A3E0D2E3F00513E50C246B
:102F73000BF582E50D12330AE513C39840030231C2
:102F83006CE514700302316CE51375F006A4F8A91F
:102F9300F0E50C28F8E50D39F9E8240CFEE9127088
:102FA30018A3A3A3A3E0A2E040C1750E008E828FF5
:102FB30083E07043125DA2120DAE8A088B09A80844
:102FC300A909E849603188828983A3A3A3A3E064A4
:102FD30001600D88828983A3A3A3A3E06403701710
:102FE3008E828F83A3A3A3A3A3E0D2E7F0750E0180
:102FF300E5157003022F6E750F007508087509003B
:10300300E5166003750F20124C60E060339003BC3B
:10301300E064017017E50FD2E3F50F7509108E8296
:103023008F8312472712452D74FF8024430F0C759D
:10303300080C8E828F83A312318F126A11A3801022
:10304300E5176009E50FD2E6F50F75080A1231A6F8
:10305300F07402120BCDE50F125AC2C0E0740412D1
:103063000BCDD0E0F07405120BCD124414120BCD2E
:10307300E060030231477408120BCD123DB48E8217
:103083008F83A3A3A3A3F07408120BCD12366FF59D
:1030930083E508F0A3E509124A72E060119003BCCE
:1030A300E0C0E07408120BCD123668D0E0F0850C56
:1030B30082850D83A3A3A3E0C0E07408120BCD1295
:1030C3006555D0E0126591C0E07408120BCD12363D
:1030D3007AD0E0F07408120BCD12318FA3A31265DE
:1030E3005C125AAC125DA1E82428F582E91256134A
:1030F300125AB8C0E0E8242EF582E9122A2BD0E058
:10310300F07408120BCD125DA3850A82850B83121E
:10311300317A2424F582EB12474512685FE50B12DE
:10312300318312096012480DEA242BF582EB122A2F
:103133002B124EF2120977851882851983AA82AB66
:103143008312165A8E828F83A3A3A3A3A3E0D2E094
:10315300F0740C120BCDE06003022F61E50EA2E0C8
:10316300500215151514022F6E7900AA0CAB0D121F
:1031730021E2740D026A7AA3A3A3A3125FC2EA2217
:10318300124EE3125A78751200781022125FC2852C
:103193000A82850B83A3A3A3A3228E828F83A3A377
:1031A300A3A3A3A312472CE8F0A3E92274F2120409
:1031B300EB74EB120A0BEAFEEBFF89088E828F8316
:1031C300A3A3A3A3A3A3A3A3E0F9120EE08A0A8BEC
:1031D3000BEA450B607FE50870047C0480027C08E1
:1031E3008E828F83A3A3A3A3A3A3A3A3E0F9120EA9
:1031F300E6122A25124D12605C88828983125D9F34
:103203007406120BCD12325D125DA37408120BCD3E
:1032130012325DA3A3E0C0E07410120BCDD0E01214
:103223005ACF125DA3740E120BCD124CD974111226
:103233000BCDE4125808F9780A120964742059FC7A
:10324300744059F97402120BCDAA82AB831221EE9A
:10325300740212097774150237BEEAF0A3EB123237
:10326300652212469FA3A3A3A3A3A32274F7120468
:10327300EB74FA120A0BE9FE7F018F087D008004CC
:103283007508000D1243FB12330AEDC3985025ED68
:1032930075F006A4F8A9F0EA28F8EB39F9E8126802
:1032A3005AE912545B50D9540C60D5E0A2E250D3D2
:1032B3007F0080CF8A828B83A3A3A3A3A3A3E07001
:1032C3003EE508A2E0400574016E70338A828B8369
:1032D300A3A3A3A3A3A3740112640EE0C0E0740329
:1032E300120BCDD0E0126406E0C0E07404120BCDE3
:1032F300D0E0F07405120BCDEF1246F6122176746E
:10330300060243F3F582EF125818F822C082C083F5
:1033130079011221E2023888C082C083EA4B601827
:103323009003B8E064027010900F6EE4F0EAFCEBD7
:10333300FD7A021233508012900F6E7401F07A02FC
:103343007B00900301E0F912187C0238887B00901F
:103353000301E0F91218702274F21204EB74F312F1
:103363000A0BEAFEEBFF8E828F83A3A3A3A3A3A37F
:10337300A3A3A3A3E0F50A900F6EE0700579BA0248
:103383003663750801750900750C00750D007C081E
:103393007D007900851882851983AA82AB83121771
:1033A300507405120BCD740112368B5404601274E1
:1033B30002120BCDE0D2E612368B54087003750867
:1033C30003E05410600674404508F508E0540860B3
:1033D300227402120BCDE044C012368B5420600AD3
:1033E3007403120BCDE0D2E080087403120BCDE01E
:1033F300D2E1F08E828F83A3A3A3A3A3A3A3A3E00D
:103403007018121150851882851983124CD97402D1
:10341300120BCDE0D2E2F00234C2640F70157402D5
:10342300120BCDE0D2E31250CB124CBA4508F5088B
:103433000234C28E828F83A3A3A3A3A3A3A3A3E077
:1034430064028E828F8370051231A780C9A3A3A360
:10345300A3A3A3A3A3E06403701385188285198330
:10346300AC82AD83EEFAEFFB1221A680528E828FDF
:1034730083A3A3A3A3A3A3A3A3E064017041900325
:10348300BCE0601C7402120BCDE0D2E31250B9858C
:103493001882851983124748750910750AFF801829
:1034A3007402120BCDE0440C12657E74FDF0A3741C
:1034B300FFF074044508F5088E828F83127244125C
:1034C3005455503A7402120BCDE0540C701B8E828B
:1034D3008F83125DA3121B5EE9700579BB0236630D
:1034E3007402120BCDE0D2E5F01254555010740261
:1034F300120BCDE0540C64047004E0D2E5F0EE242A
:1035030011127229C0E07404120BCDD0E0124416DC
:10351300120BCDE0600302365C7408120BCD123639
:103523006F123681EE2418127229C0E0E812684B3C
:10353300E9122A2BD0E0F0EE2419127229C0E074AC
:1035430008120BCDE02413123D7CD0E012454B64EE
:103553000170119003BCE0C0E07408120BCD123669
:1035630068D0E0F07408120BCD1242462417FAEF2C
:10357300124275FCE8241CF582E9122A2BECF0A315
:10358300E4125164E0C0E0E82422F582E9122A2B18
:10359300D0E0F07408120BCD12367AE50AF0740805
:1035A300120BCD12425B2424F582E9125D68A3E578
:1035B3000D125DC6FCA3E0FDE82426F582E9122A7C
:1035C3002BECF0A3ED123A48124C90E82428F58234
:1035D300E9122A2B125FC6C0E0E8242FF582E91214
:1035E3002A2BD0E0F0EE241B127229C0E0740812DB
:1035F3000BCD12654ED0E0F0EE241A127229C0E012
:103603007408120BCDE0242E123D7CD0E0126576B7
:10361300125056120960EE2411124C89740B120BCE
:10362300CD124EEC120977EE241512722954406024
:103633001B900328124D126013851882851983AAE3
:1036430082AB839003291237621222358518828553
:103653001983AA82AB8312165A740C120BCDE0F9AC
:10366300740D0237BEE02415123DA22212425F24DC
:103673000FF582E9340022E02423123DA222F583D0
:10368300E508F0A3E509F022F0EE241512581522FF
:1036930074F71204EB7E638A828B83E0600C7905F6
:1036A300120CD0E9F87456C398FE900364E0600CE2
:1036B300F9120CD0E9F8EEC39824F2FEEEF90243B6
:1036C300F674F61204EB74FE120A0B851882851940
:1036D30083124CD9E9FEECFAEDFB740C120BCDE02E
:1036E300FC9004AE124D12603285188285198385D1
:1036F300820885830978081209647D01EEF9900434
:10370300AE12375F12223574021209778B09EA452C
:103713000960047900800679B2800279B60238E93B
:1037230074F71204EBE9FE7409120BCDE0FF90036A
:103733000E124D12601AEFF5087808120968EEF9B7
:1037430090030E12375F122235740112097780023B
:1037530079B60243F6EEFAEFFB900320E0F8A312EA
:10376300400022125FC29003032274F21204EB8A18
:10377300088B09ECFEEDFF750A0190036CE0650808
:103783007004A3E065097005124B40802A1211569C
:103793008A0C8B0DE508650C7004E509650D70094D
:1037A300EEFAEFFB12115C800EEEFCEFFDAA08AB04
:1037B30009120D48E9F50AA90A80031209777F0661
:1037C30002070574F51204EBEAFEEBFF8C088D0982
:1037D300750A01126CAE123898700B90036C12408C
:1037E3002E124748800EAC08AD09EEFAEFFB120D1E
:1037F3004EE9F50AA90A02613A74F61204EBEAFEED
:10380300EBFF7A0C7B001217E6EA4B606BEE242089
:103813001272298A828B83F0EE242112387EF0EE15
:10382300242212387EA3F0EE242312387EA3A3129F
:103833004F25125A95E8F0A3E912580D125A96A390
:10384300A3E8F0A3E91256338A828B83A3A3A3A32D
:10385300A3A3A3A3F0EE242F127229C0E01243FB0B
:10386300122A2BD0E0124CDF8A828B83A3A3A3A35B
:10387300A3A3A3A3A31247480238EE1258158A82C2
:103883008B83A322F0D083D082020929FAEF34007C
:10389300FB121EE822124532221238A2A3E02212A2
:1038A30038A6221238AA22125001A3A322124B6572
:1038B300A3E02274F61204EBECFEEDFF79B3900360
:1038C30063E07020900395E064017018EE12685A6B
:1038D300EF12702CEE240F124742E849600479007E
:1038E300800279A1800574021209777F020207051D
:1038F30074F41204EB74FE120A0BECFEEDFFEE24DB
:103903001612722964057011EE2406FCEF3400FDD3
:103913001221ACE9700302399D851882851983ACA5
:1039230082AD831267A0123B2F124D126068E875B7
:10393300F009A4F8AAF075F009E9A42AF974ED28AE
:10394300F874F339F9E8FAE9FBEE2412122A28C0D5
:1039530082C0838A828B837808120B70D083D082D3
:103963007808120B50402B85188285198312424622
:10397300240F122A281239A47808120B709080ACF5
:103983007808120A748A828B837808120B8E790066
:10399300800A79A2800679A1800279C87402022A7A
:1039A300F8E8F0A3E9123BC12274F41204EB74FFAC
:1039B300120A0BEAFEEBFF900363E0707590039528
:1039C300E06401706D75083A75090078081209649E
:1039D3007402120BCD858208858309780812096465
:1039E300123A3A120977E9703EEE126861EF12401B
:1039F30038124B08C0E0EE2411122A28D0E0123A04
:103A030048743A12581D900330120BAAEE24121276
:103A13002A28120BB69080AC7808120B70900330F2
:103A23007808120B0C800BEE240FF582EF1243E49F
:103A3300A3F07401022AF87C017D007A007B001256
:103A43001330740422F0EE240F124EE02274F012AD
:103A530004EB74F6120A0BECFEEDFF7402120BCDAD
:103A6300AC82AD831221ACE97003023B2A85188234
:103A7300851983AC82AD837402120BCDAA82AB830A
:103A8300123B2F124D127003023B2AE875F009A472
:103A9300F8AAF075F009E9A42AF974E928F874F38F
:103AA30039F988088909EE240E123B39124B08F8BC
:103AB300A3E0F9EE240F124FF2120BAAEE24121216
:103AC3002A28120BB69080AC780C120B70850882F2
:103AD300850983780C120B0C850882850983780885
:103AE300120B709080A8780C120B707808790C1266
:103AF300047BE50C450D450E450F702B851882851B
:103B0300198312425B75F009A4F8AAF075F009E96C
:103B1300A42AF974F128F58274F339F5837401F05A
:103B23007A007B10123B41740A023BCC121B648562
:103B3300188285198322F582EF124EE3E422900561
:103B430027E0F912179E2274F01204EB8A088B09FE
:103B5300ECFEEDFFEE240FF582EF1243E4A3123BDC
:103B6300BDC082C0839080C0780C120B70D083D00C
:103B730082780C120A4B6032123BB1700512219409
:103B8300802AE0700512218E8022640270131221B4
:103B93008EE96018EEFCEFFDAA08AB09121B8880C2
:103BA3000BE0640360DF79A1800279A3801EEE2419
:103BB3000EF582EF125818640122123BC122F0EE77
:103BC3002412F582EF124EE7221209777F080207CB
:103BD3000574F61204EBEAFEEBFFEE240AF508EF98
:103BE300126A0C850882124C8EEC240F1243E112E8
:103BF3004CAA122164850882850983124D0F706BCC
:103C0300123D807003A3E069600A123D627003A352
:103C1300E06970578E828F83A3A3A3A3A3A3A3A357
:103C2300A3A3124C908E828F83125DA3121B8EE985
:103C330060188E828F83A3A3A3A3A3A3A3A3A3A389
:103C4300E0240F123D7CE4F0A3F08E828F83126593
:103C5300468E828F83A3A3A3A3A3A3A3A3A3A3702B
:103C6300051240288004124006E4F0124D01701A38
:103C7300123FB3125DA3122188850882850983123E
:103C83004D0F7006122A2574A1F00238EE74F61255
:103C930004EBEAFEEBFFEE240A123FC27A187B0024
:103CA3001217E6850882850983123DB9F8A3E0F966
:103CB300E8497003023D59EEFAEFFB122158124D09
:103CC30001607F123DA664017007123D8D740E8062
:103CD30034E064027007123D8D740D80288E828F4C
:103CE30083A3A3A3A3A3A3124D1270EA123D807072
:103CF30003A3E06960E0123D627003A3E06960D64C
:103D0300123D8D7405124CB3540364017007123FC6
:103D1300E67405800B900364E0C0E0123FE6D0E058
:103D2300F0EE240AF508EF123D73123FF4123EB988
:103D3300C0E0850882850983E02417123D7CD0E02A
:103D430080198508828509831243A1850882850924
:103D530083E4F0A38005122A257410F00238EE12D2
:103D630011508A088B09A808A90990061CE068224B
:103D7300126A0C850882F58322123DA2228E828F5D
:103D830083125FC290061CE068228E828F83A3A3F6
:103D9300A3A3A3A3A3A3A3A3E02416123DA22212C9
:103DA3004011228E828F83A3A3A3A3A3A3A3A3A3C0
:103DB300A312400AE022EAF0A3EB123DC122125003
:103DC30001E02274F11204EB8A0A8B0B8C088D0933
:103DD3007A18125F197003023EAC8E828F837401CE
:103DE300F0E508240DF8E5091267A9C3E49AFA95EA
:103DF300E0FB126866125617FB8E828F83A3A3A380
:103E0300A31258048E828F83A3A3F0EEFAEFFB1262
:103E13000C7C85088285098312654870098E828F20
:103E230083A374058006900364123EB4F0EE241756
:103E3300F8EF3400F9880C890D8E828F83123EB817
:103E4300850C82850D83F0EE2416F8EF3400F9E536
:103E530008240EFAE5093400FB88828983124A5448
:103E6300E50824100A0AE5093400FB850C82850D58
:103E730083E0FC88828983E0F88A828B83E0C3989D
:103E8300C39C12515BF0EEFCEFFDAA0AAB0B1221AF
:103E93005EE9F508700AEEFAEFFB120C88E9F50803
:103EA300EEFAEFFB1217EC8003750810A908026CF9
:103EB300D1124B5E22A3E0F9120CD0E92279010260
:103EC300092974F41204EBEAFEEBFF8E828F83A3BD
:103ED300A3A3A3A3A3A3A3125DA7126548706B12A8
:103EE3003DA670668E828F83A3A3A3A3A3A3A3A3DC
:103EF300E0242B123D7C124020704F8E828F83A3CF
:103F0300A3A3A3A3A3A3A3E0242BF88882898312EA
:103F13003FF4E0F8740168600A740668600574058C
:103F23006870138E828F83A3A3A3A3A3A3A3A3A3C6
:103F3300A312402880138E828F83A3A3A3A3A3A3DA
:103F4300A3A3A3A31240067403F0123FB312375F77
:103F5300E4F0EE2408F8EF123FAF242D12426EC0B6
:103F6300E0123FDAD0E0125808242A12426EC0E071
:103F7300123FDAA3D0E0125808240B123D7C124002
:103F83002E1240C712453E8A0A8B0BAC0AAD0B8535
:103F93000882850983E0240612546F123FCC125D18
:103FA300A3120C88122A25E9F0022AFB1246822268
:103FB300EE240A123FBA22123FC28882F58322F806
:103FC300EF3400F98808890922123FD022121EE833
:103FD300850882850983228508828509831240CB5F
:103FE300A3A3228E828F83A3A3A3A3A3A3A3A3A389
:103FF300A3123FF822E0F8123FFFA322A3E0F583C8
:1040030088822212400A22E0240E1240112212401A
:104013001522F8A3E03400F98882898322E0F8129C
:1040230048D264052212400A740222125FC2850834
:104033008285098322124EE3740122023EC0C082AC
:10404300C08390031E7452F0A37421F09003207474
:1040530046F0A37421F09003227440F0A37421F07E
:10406300900324744CF0A3742102388774F412046F
:10407300EBEAFEEBFF1240D4F5081211508A0A8BCB
:104083000BA80AA90B8E828F831240C7E0687003C6
:10409300A3E069602CE508A2E550268E828F83A3F6
:1040A300E0FB90031E12375F1222358E828F83E06E
:1040B300F8A312522DA3124D1270061240D4C2E57A
:1040C300F0022AFB1240CB22E0FAA3E0F5838A82B6
:1040D300228E828F83123FF8A3E02274F51204EB41
:1040E30012423412425B2420F582E912722CFE74D0
:1040F300035EF50A124A3E122A2B1242468882892F
:1041030083F0A3A882A983E50A60097402650A60A3
:10411300030241A5740C5EFF601574086F60107490
:10412300046F701D7402650A7005EEA2E4402D8AC7
:10413300828B83A3A3A3A3A3A3A3A3E02423124259
:1041430096740C6F701012422F242412427E242482
:104153001242411242997402650A7005EEA2E440CC
:104163004112422F242612427E242612424BA312CE
:1041730042A812424B1242A8124241124299EF60E6
:104183000F74086F600A740C6F600574046F70120B
:104193008A828B83A3A3A3A3A3A3A3A3E0242212B2
:1041A30042968A828B83A3A3A3A3A3A3A3A31242AE
:1041B300647005EEA2E150178A828B83A3A3A3A3A5
:1041C300A3A3A3A3E0242E124A4512428F800E908C
:1041D300030212428F900302E00412469FA3A882B7
:1041E300A983EEA2E7504212422F242112424B121E
:1041F30042998C828D83124264602E8A828B83A3C0
:10420300A3A3A3A3A3A3A3E02430124296EEA2E1A7
:1042130050178A828B83A3A3A3A3A3A3A3A3E024FE
:104223003112426E88828983F002613A124234E08D
:1042330022EA2408FCEB3400FD8C828D8322124A8F
:1042430049A322125FC2EE2212424F22F508A3E0D5
:104253003400850882F5832212425F221250C4E89B
:1042630022E02421124A49E0540322FAA3E0124235
:1042730075223400FB8A828B83E02212424F124262
:104283008FA3A882A9838C828D83E022E088828910
:1042930083F022124A4912429D22E088828983F0E8
:1042A300A308A9832212429D8C828D83E0242822B5
:1042B300C082C0838A828B831240D8F8740358F972
:1042C3008A828B83A3A37401F0E960057402697089
:1042D30061740C58FC601474086C600F74046C7087
:1042E300137402697005E8A2E4401D8A828B83A3DC
:1042F300A37402F0740C6C700A8A828B83A3A3E00C
:104303002402F07402697005E8A2E440258A828BD6
:1043130083A3A3E02404F0EC600F74086C600A74B8
:104323000C6C600574046C70098A828B83A3A3E010
:1043330004F0E8A2E750318A828B83A3A3E004123E
:104343005FCAF9A3E0F5838982A3A3A3E0540360C2
:10435300178A828B83A3A3E004F0E8A2E150098AC1
:10436300828B83A3A3E004F08A828B83A3A3E0045C
:10437300023887C082C0838A828B83A3A3A3A3A3AB
:10438300A3A3A3A3A3124D1260098A828B83A3A3C1
:10439300124399023888A3A3A3A3A3A3A3A31254EC
:1043A300691217EC2274F71204EBEAFEEBFF125FBB
:1043B300BA88828983A3A3A3A3A3A3A3A3E4F0A39B
:1043C300123265A3A3A3A3F0A3F0E8125D4AE91296
:1043D30043E4122128EEFAEFFB1221348015F58213
:1043E300ED124EE3E4F022740C120BCDE0F9740DE0
:1043F3001209777F01020705EA240BF582EB2212EB
:1044030066C2240922124EE3127248750E00780C1C
:104413002274011246FA1244B42274F51204EB74A6
:10442300F3120A0BEAFEEBFF7C087D007900851886
:1044330082851983AA82AB8312175012319D124AC7
:1044430081C0E07404120BCDD0E0F07402120BCDE6
:10445300740112454BC0E07405120BCDD0E0124A33
:1044630087640170097402120BCDE0D2E5F01244A7
:10447300AA120BCDE0702D8E828F8312506C12091D
:10448300608E828F83A3A3A3A3124818740B120B0D
:10449300CD124EEC120977851882851983AA82AB57
:1044A3008312165A02612E851882851983AA82AB5C
:1044B300831220E6740C2274F71204EB74FE120AC2
:1044C3000BECFEEDFF7508C8851882851983AC8255
:1044D300AD831221A6E96401704985188285198389
:1044E30012523A12452DA3A3E4F0900632E0601B6A
:1044F3008E828F83A3A312402070108E828F83A39A
:10450300A3A3A3A3A3A3A37401800D8E828F83A36C
:10451300A3A3A3A3A3A3A3E4F0EEFAEFFB12211634
:10452300E9F508A90874020243F3124B32A32212DD
:104533001EE2E9640122124FF9E022A3A3A3A3E838
:10454300F0A3E9F012114A22125640A3E02274F6B6
:104553001204EB74F4120A0BEAFEEBFF12319D1204
:104563004678FAA3E0F5838A82A3E0FA7402120B79
:10457300CDEA1258082402124B0F7404120BCD1209
:104583004748EA600A7402120BCDE06404701C12FF
:10459300466C12546F7406120BCD124672124B0FF7
:1045A3007408120BCDE8F0A3E98056E06401600AB9
:1045B300E064066005E06405702312466C12426EE7
:1045C300C0E07403120BCDD0E01258082413125428
:1045D3006F7406120BCD125804241B80C07406128C
:1045E3000BCDE4F0A3124678241212546F74081210
:1045F3000BCD1246721266BEC0E0740A120BCDD008
:10460300E0F07406120BCD124D1260287406120BE3
:10461300CD125DA3120D3CE96401701812114A8A90
:10462300088B09AC08AD097406120BCD125DA312F9
:104633003898700F851882851983AA82AB8312215B
:104643006A8021851882851983AA82AB83121B6A2B
:10465300E96401700FEEFCEFFD7406120BCD125DE1
:10466300A3122110740C0238EB12467D241222127D
:104673004696241A22F012467D22EE2402F8EF1207
:104683004687E0223400F98882898322124696F80D
:10469300A3E022EAF0A3EB12469FE022F08882898E
:1046A3008322C082C08374FC120A0B12471E124776
:1046B300488A828B83A3A3E0124B0D7402120BCDA5
:1046C3001246F21216B47404800012097702388875
:1046D300C082C08374FD120A0B124706C0E0740245
:1046E300120BCDD0E01246F6120BE0740380DBE828
:1046F300F0A3E91246FA22F0851882851983AA826B
:10470300AB83228A828B83A3A3A3A3A3A3124AFF0F
:104713008A828B83A3A3123FF8E0228A828B83A32E
:10472300A3A3A3A3A312472C2212473022E0F8A38A
:10473300E0F985188285198322125FC2EE240BF5F6
:1047430082EF124EE3124B0222AA82AB831217446A
:10475300740322124B029003302274F41204EB749C
:10476300FB120A0BEAFEEBFF8E828F83A3A3124296
:104773005B2409F508E9126A0C7403120BCDAC82B1
:10478300AD8388828983A3AA82AB831221A6E964BD
:1047930001706A8518828519837432124A8124F75D
:1047A300C0E07401120BCDD0E0F07402120BCDE423
:1047B3001246F6120E0E8A0A8B0BAE0AAF0BEE4FA1
:1047C300603B7403120BCD124805A3A3124539C0F5
:1047D300E0EE2420122A28D0E0F0750A00780812AF
:1047E3000960EE127013EF124815EE240B122A28FB
:1047F300124EF2120977EEFAEFFB120E087405025D
:104803002AF8125FC28E828F8322E50A2410F58272
:10481300E50B124EE3E0FC7D0022C082C083124808
:1048230049600E24FE600F24FE601024FB6011809B
:104833001212210A800D12210480081220FE800327
:104843001220F80238888A828B83A3A3E0F81248E7
:10485300D224FB22C082C0838A828B83A3A3A3A317
:10486300A3A3A3A3E070528A828B83A3A3E0F812CD
:1048730048CE640160431248C86402603C1248C8D1
:10488300640360351248C86404602E8A828B83A354
:10489300A312402260231248C8640A601C1248C84D
:1048A300640B60151248C8640C600E1248C8640D8E
:1048B30060077904121ED0800990032612375F1215
:1048C30022350238888A828B83A3A31248D222120C
:1048D3003FFFE02274F61204EB74FA120A0BEAFEAD
:1048E300EBFF7403120BCDEEF0A3EFF07403120B86
:1048F300CDAA82AB8312211C1272266003024A39AD
:104903008518828519837432F07405120BCDC08229
:10491300C0838E828F83A3A3A3A3E0D083D082F826
:10492300E028C0E07401120BCDD0E0124A87C0E04A
:104933007402120BCDD0E0124A6CF8A3E0F9E849F7
:104943006026E82417F582E9122A2BC082C083E887
:104953002416F582E912722CD083D082F8E028F86D
:104963007401120BCDE028F0851882851983AA8281
:10497300AB83120E0E8A088B09A808A909E84970AF
:1049830003024A2C8E828F83125DA388828983A3BC
:10499300A3EAF0A3EB124A72A3A3E0C0E0E8242049
:1049A300F582E9122A2BD0E0126591C0E0E82421B8
:1049B300F582E9122A2BD0E0124A81C0E0E8242ACA
:1049C300F582E9122A2BD0E0F07405120BCDE0FA40
:1049D300124A3E12722C2A12546FE8242B124CD323
:1049E3007405120BCDE0C0E0E8242DF582E9122A0C
:1049F3002BD0E0124A6CFAA3E0FBEA4B6019E824DF
:104A03002BFAE9122AEEA3A3A3A3A3A3A3A3E0244F
:104A130016124A45124A548E828F83A3A3A3A3A3DB
:104A2300A3A3A3E8F0A3E9800CEEFAEFFB12212283
:104A3300122A257410F074060238EBE8240BF58271
:104A4300E922124A4922FCA3E03400FD8C828D83C3
:104A530022E0FC8A828B83E02CFCA3E03400FD8AF5
:104A6300828B83ECF0A3EDF022125168A3E022F0D5
:104A7300E812684BE9124EE374011250CB22125133
:104A83005FA3E022124B1CE02274F71204EBEAFE50
:104A9300EBFF127226701E124AC2124D12600612EA
:104AA3003758122235127226700B125D97120E08B8
:104AB300122A25E9F0EEFAEFFB1221220243F61245
:104AC300212E8E828F83A3A3A3A3A3A3A3A3A3A314
:104AD3002274F61204EBEAFEEBFF8C088D09121B1D
:104AE3005EE9700479018011AC08AD09EEFAEFFBC1
:104AF30090032412375F1222350238EE124730E852
:104B0300F0A3E9F022126582E0222401F8A3E03445
:104B130000F922124B1CA3E022124B2022124B2439
:104B2300221250CFA3A3A3A3A322124B32E022E865
:104B3300F0A3E9124B3A221250CFA3A322126CB274
:104B4300121EE822124C94EEFAEFFB22E0242B1201
:104B53004015E0221238A2124B5E22E08E828F8330
:104B6300A322124F39A3A3A3A32274F61204EB7456
:104B7300F3120A0B124C5C124CBA120BCD740CF0EC
:104B83007405120BCD740112563B60097402120BAB
:104B9300CD742180077402120BCD740112441612D6
:104BA3000BCDE070327408120BCD124C0474061254
:104BB3004A81124C78EE2402F8EF124687124BEF2B
:104BC30012641F124BEFA3124B16C0E0124BE612F6
:104BD3002A2BD0E012658A740C120BCDE0F9740D08
:104BE3000238EBE508240BF582E50922124BFAA300
:104BF300A3A3A3A3A3A322E0850882850983A3A378
:104C030022124CA2880889098882F5832274F7123C
:104C130004EB74F3120A0B124C5C124CBA120BCD58
:104C23007409F07402120BCD7421F07405120BCDCC
:104C3300124414120BCDE0701D7408120BCD124CEC
:104C43009A7407124CB3124C78851882851983AA7B
:104C530082AB8312165A0243EAEAFEEBFF7C087D1D
:104C6300007900851882851983AA82AB83121750B5
:104C73008E828F8322FCA3E0FD88828983A3AA828C
:104C8300AB83121EE822F582EF3400F583124C94B5
:104C930022E0FCA3E0FD22124CA288828983221227
:104CA3004B4FF8A3E0F9221250CA1254692274013F
:104CB3001250CBA3A3E022124AFF7404221217500E
:104CC300850882850983A322E0F508A3E0F509227C
:104CD300F582E9124EE3EAF0A3EBF022124CE32251
:104CE300124B3A1250C422C082C083124CFA74F29F
:104CF300F0A3742002388712213A900326228E8271
:104D03008F83A3A3A3A3A3A3A3A3A3A31258221292
:104D1300425F492274F71204EBE9FE124D44122A52
:104D23002B124D12601888828983A3E05403700EFE
:104D3300EEFB124A3E122A2B124D75124D6F02439F
:104D4300F6EA125D4AEB22C082C083EAF8EBF988E7
:104D5300828983A3A3A3A3A3E0FB88828983A3A35C
:104D6300A3A3124D75A3124D6F023888E0F91216F2
:104D73007822E0FA88828983A3A32274E81204EBE1
:104D83008A088B098C168D178914741A120BCDE0BF
:104D9300F50AA3E0F50B741C120BCDE0F513741D9B
:104DA300120BCD780C120B701263CFEB12722C2402
:104DB3002DFA7B001217628A108B11AE10AF11EE21
:104DC3004F7003024EC08E828F837401F0850810EA
:104DD30085091175120078101209607C157D00EEAB
:104DE3002418124ECA1209778516108517117810E8
:104DF3001209607C097D00EE2402124ECA12097763
:104E03007418120BCD12473C850A82850B83E0C0D0
:104E1300E0EE240F122A28D0E0124F00C0E0EE2467
:104E230011122A28D0E0124EFBC0E0EE2410122A01
:104E330028D0E0123BBDE513124F25E4F0A3F01296
:104E43004ED9780C120B8EEE2417122A28E5141271
:104E530038B0F8A3E0F9EE240D122A28124F1F12DE
:104E63006A2E12722C6025EE242612544D242DF83E
:104E7300124F17126868124408120960126A2C1242
:104E830048158A828B83124EF2120977EE24191287
:104E930072295403601D90031C124D12600CEEFA2C
:104EA300EFFB1237621222358013EEFAEFFB121773
:104EB30068800AEEFAEFFB9003011250B3026A7D99
:104EC3007C087D00EE2404FAEF124ED0223400FB5E
:104ED300121744740322EE2413124EE022F582EFDC
:104EE300124EE7223400F58322E0242B123DA21256
:104EF3005469121744740322124F0EE022124F0515
:104F0300E022124F0922124F0EA322F0850A828556
:104F13000B83A322EF3400F98A828B83124B02E5C1
:104F23000822F0EE2426124EE022F50CA3E0F50D44
:104F3300750E00780C221238AAA3A3A32274F112CF
:104F430004EB8A088B097A20125046606F8E828F99
:104F53008374061250628E828F83A3A3A3A3123895
:104F63009C8E828F83124FCC124F2D1209607C10BE
:104F73007D00EE2406124ECA120977850882850940
:104F830083A3A3A3124FC22416FAEF3400FB120D1E
:104F930036850882850983A3A3A3A3A3A3A3A3A3FD
:104FA300A3E0C0E0EE241E122A28D0E0124FDCC09A
:104FB300E0EE241F122A28D0E0124FE4026CD1A3A2
:104FC300A3A3A3A3124C94EE22A3A3A3A3A3124FC0
:104FD300D5221238A6A3A3E022F0124BE6125818EA
:104FE30022F0EEFAEFFB900527E0F912176E22127A
:104FF3004EE0124FF922E8F0A3E912500122F085A6
:1050030008828509832212500D22123DC1F8A3E0C4
:10501300F98E828F83A3A32274F41204EB8A088B84
:10502300097A0C12504660188E828F8374081250CE
:1050330062125056120960124EC31209771250AC15
:10504300022AFB7B001217628A0A8B0BAE0AAF0B94
:10505300EE4F22F508A3E0F509750A00780822123D
:10506300500D124FF9A3A3E022A3A3124CCB750A50
:105073000078082274F61204EBEAFEEBFF7A057B54
:1050830000121762EA4B601E8A828B83740A1250E5
:10509300B98A828B83A3A3124B2D8A828B83A3A30A
:1050A300A3A3F01250B00238EEEEFAEFFB900527FF
:1050B300E0F912176E221250BD221250CF1250C4C3
:1050C30022E0F8A3E0F922A31250CF22F08E828FC0
:1050D3008322C082C083E9900F70F090031874FE9E
:1050E300F0A3740BF090031A7410F0A3740CF090F7
:1050F300031C7422F0A3740C02388774F71204EBB8
:10510300EAFEEBFF8908EE4F7003121BEE90032AB1
:10511300124D12700890032A8022125FBE88828982
:1051230083A3A3A3A3A3A3A3A3A3125155888289F3
:1051330083A3A3A3A3A3A3A3A3A370DEEEF0A3EF70
:10514300125164E4F0A312515BA3A3A3E508F00298
:1051530043F6125469EA4B2212515F22124B3AA3CF
:105163002212516822125644A3A32274F71204EBAD
:1051730090032A800D8E828F83A3A3A3A3A3A3A34B
:10518300A3A31266F6EE4F60348E828F83A3A3A38C
:10519300A3A3A3A3E06970DD8E828F83A3A3A3A33C
:1051A300E06A7003A3E06B70CC8E828F83A3A3A30A
:1051B300A3A3A3E06C70BEEEFAEFFB80047A007B3E
:1051C300000243F674F71204EB90032A1266F6907A
:1051D300032A12317E687002EB69701712522D1286
:1051E3005FBE90032A12474890032A1266F6803066
:1051F3001266E9EE4F60298E828F83A3A3A3A3A334
:1052030012317A687002EB6970E68A828B83A3A3FA
:10521300A3A3A3A3A3A3A312523AA3A3A3124748EE
:105223001217ECEEFAEFFB0243F6124000A3A3A31E
:10523300A3A3A3A3A3A322125484A3A32274F012AF
:1052430004EB74FA120A0B8A088B098A828B83A3F4
:10525300A3A3A3A3A3A3A3E0600D640160098A82AF
:105263008B83125461600579020254488508828554
:105273000983A3A3A3A3A3A3A3A3E0640370157447
:1052830004120BCDAC82AD83AA08AB091221A6E9A7
:10529300701380D3850882850983125FBE7404125C
:1052A3000BCD12474812685012722C243212546FDD
:1052B3001217E68A0A8B0BAE0AAF0BEE4F7003028E
:1052C30054467C327D0079001217507402120BCDC4
:1052D300AA82AB83850882850983A3A3A3A3A3A37F
:1052E300A3A3A3E0F91216BA7402120BCDE0C0E037
:1052F300EE242D122A28D0E0F0EE242CF50AEF3408
:1053030000F50B7403120BCDE0850A82850B83F045
:105313007901EEFAEFFB120BEC85080C85090D758C
:105323000E00780C1209607C1C7D00EE240B124EDB
:10533300CA120977EE243012544D24320808124F52
:10534300172411F8E509127221FCE9FD8C828D8383
:10535300124246242E122A28124F1F1257E6126AAF
:10536300351209608C828D83124C908A828B831252
:105373004EF21209777404120BCD1254801247486F
:10538300900302125476F0900302E0041258292489
:105393002A125D57750D00850A82850B83E0780C10
:1053A300120AAD8A828B83E50CF0EE2429122A2897
:1053B300E50C12657EE4F0E5082415F582E5091293
:1053C300545B74015007120BCD74018004120BCD92
:1053D300E4F0EE2427123FC2851882851983AA823E
:1053E300AB831216A2E924FE850882850983F0F5B2
:1053F30008750900EE242E124C89ECF8EDF9AA0881
:10540300AB091203A2E88E828F83A3A3A3A3A3A352
:10541300A3A3F0ECF8EDF9AA08AB091203A28B09D8
:10542300EA4509600F8E828F83A3A3A3A3A3A3A33B
:10543300A3E004F0EE24201272294408125DCE7911
:1054430000800279107406023BCC12721FFAE9FB4A
:10545300EE22EE2415F582EF125818A2E022125420
:10546300691211ECE922E0FAA3E0FB22FAA3E0348B
:1054730000FB22124B5EA3A3A3A3A3A32212548473
:10548300221250C48E828F83A3A3A3A32274F41287
:1054930004EBEAFEEBFF125D4F124CD9900FBDE017
:1054A300F8EE242B127229C3984003025605125DAD
:1054B3006F7015EE242B12722904125633C0E0EEDE
:1054C3002429122A28D0E0F0EE2428127229FC792C
:1054D30000800109EE242C123307E9C39850267586
:1054E3000801750900E97808120AAD125D6F5508C5
:1054F30060E1E92CFC750801750900E97808120AD6
:10550300ADE04508F0EE2427125620EE242E122A91
:1055130028EC8A088AF0A4F8ABF0E42BF9E098F8B9
:10552300A3E099F9C3E89508E99400EE40392427EC
:10553300123307125D6F6037EE242D122A2812569C
:105543002DA3E4F0EC7054EE2420127229442012AF
:10555300454BC0E0EE2426122A28D0E0F0EE24309A
:10556300125620A3E080592429122A2874FFF090B0
:10557300035CE0FA900FC0E0F508EA8508F0A4ABFD
:10558300F075F064A4FAADF075F064EBA42DFB8E16
:10559300828F83A3A3EAF0A3EB80A8EE24201272E8
:1055A3002954DF124F25ECF08C08EE2427127229C0
:1055B3008508F0A4FAABF0EE2430F582EF1256170B
:1055C300FBEE241EF582EF12561312563BC0E0EE9B
:1055D3002425122A28D0E0F0EE241C122A28E812EF
:1055E300581D90032C124D12600BECF91237621206
:1055F3002235E97018EE240BFAEF3400FB1221D0A8
:10560300800B7BE9EE2422F582EF1257F0022AFB8E
:10561300126569221258182AFAA3E03B2212562473
:1056230022F582EF124EE7E0FA22124B5EA3F0223C
:10563300F0EE242A12581522125640E02212564444
:1056430022124B24A3A32274F41204EB90032A1214
:1056530066F612188E8A0A8B0B7CFF7DFF8020E092
:10566300C398FAA3E099FBC3EA9CEB9D500E8E828C
:105673008F83A3A3E0C398FCA3E099FD1266E9EE30
:105683004F6059125FBAE50AC398F8E50B99F98E92
:10569300828F83125DA1C3E89AE99B8E828F83A3D5
:1056A300A340BCA3A3A3A3E06402701DEE240B12CA
:1056B3005D72600CEE2410122A28125DA312176883
:1056C300EEFAEFFB120BF88007EEFAEFFB120C0475
:1056D3007A017B00900F70123B44801474FF6C704E
:1056E3000374FF6D600A7A017B00900F70123355CB
:1056F300022AFB74F01204EB8A088B09ECFAEDFB27
:10570300890A7C01126850125D618A0C8B0DAE0C04
:10571300AF0DEE4F70030257E3E50A60030257E350
:10572300E5081257E6E0F8EE2428127229686003B0
:105733000257E3EE242C125620E82AF8E43400F949
:105743008E828F83A3A3A3A3A3A3A3A3E0FAE89AC0
:10575300E99400C365D0334014125A80125D75700A
:105763000C7B00126849E5091257F08073125A80C6
:10577300125D757031EE242C127229F9EE24291270
:105783002A287508FF750900E97808120AADE508AB
:10579300F0EE242A122A28E50812580D29F0EE24E7
:1057A3002B123B398022E5082414F8E5093400F96B
:1057B300E0C0E0EE242A122A28D0E0125808C0E004
:1057C300EE2429122A28D0E0125829242D122A283F
:1057D300123EB4A312581D7A01FB900F70123B4482
:1057E300023BCF2413F582E509124EE3221256271A
:1057F300EE2414124EE0124D6FEEFAEFFB120BF88B
:1058030022EAF0A3EB12469FE022F0EE242812587E
:105813001522F582EF124EE7E022F0A3E4F022E036
:10582300240F12401122F012188E8E828F83EAF019
:10583300A3EBF0EE2274E81204EB74FD120A0BE9F9
:10584300851882851983F08A0A8B0B8C168D177441
:105853001B120BCD125A78741D120BCD780C120B40
:10586300708A828B83A3A3E0F91216968A128B1394
:10587300EA451370077A007B00025A737A127B00A1
:105883001217E68A088B09AE08AF09EE4F700302C0
:105893005A6F7C127D0079001217507401120BCDE0
:1058A300AA82AB83850A82850B83A3A3E0F9121630
:1058B300BAEE240FF508EF126A0C7402120BCDE056
:1058C300850882850983F07902EEFAEFFB120BEC6F
:1058D300851682851783125480E8F0A3E9125AB81B
:1058E3008E828F83A3A3A3A3A3A3A3F07514FF7531
:1058F3001500850882850983E07814120AAD122AFF
:1059030025E514F0851282851383A3E0F81248CEAF
:10591300C0E0EE240B122A28D0E0125AC2F508EE9A
:10592300240D122A28E508F0125D7AE08508F0A418
:105933002424FAE5F03400FB1217628A088B09EE7F
:105943001263D0EF124CD6EA45097003025A648AF7
:10595300828B83741A12581D8A828B83A3A3F0A3AC
:10596300125AAC125A95124748AC16AD17EA2406E0
:10597300FAEB3400FB1221BE850A82850B83A3A3B5
:10598300A3E0C0E0E508240FF582E509122A2BD035
:10599300E0F0900379125FBEE5082410125A8912D1
:1059A3005ACFA3125FBEE5082412125A89124F0080
:1059B300C0E0125A80122A2BD0E0F0E50A125D4AA9
:1059C300E50B12722CC0E0E5082415F582E50912F7
:1059D3002A2BD0E0125AA3C0E0E5082416F582E58D
:1059E30009122A2BD0E0127638E0C0E0E50824172C
:1059F300F582E509122A2BD0E0127638A3E0C0E045
:105A0300E5082418F582E509122A2BD0E0124B0889
:105A1300C0E0E5082419F582E509122A2BD0E0F04D
:105A2300E508241AF582E509122A2B780C120B8E4D
:105A3300E5082424F8E5093400F9E5082422F58271
:105A4300E509124745E50A12684BE50B12722CC0B3
:105A5300E0E508241FF582E509122A2BD0E0F08047
:105A63000BEEFAEFFB120BF87E007F00EEFAEFFB72
:105A73007403026A7AE0F510A3E0F51122E5082425
:105A830014F582E50922F582E509124EE3E8F0A355
:105A9300E922E0F8A3E0F98A828B83A3A3A3A322DC
:105AA300F0851082851183E022125AB022124F0929
:105AB300A3A3A3A322F0126858E50B12581822F0EF
:105AC300E50A2410F582E50B12581822125AB0A3E6
:105AD300A3A32274E81204EB8A0A8B0B8C108D119A
:105AE30089147418120BCDE0F516A3E0F517741A98
:105AF300120BCD780C120B70750900EA2413F58292
:105B0300EB12722CF50890032C124D126011A908A8
:105B130090032C12375F122235E96003025D477C44
:105B230002851082851183125DA3126858E50B125A
:105B33005D618A128B13AE12AF13EE4F704B850A61
