:020000040000FA
:06000000020B5C02028D00
:03002B000209A720
:030053000201B3F4
:03006B000202AFDF
:03007B0002030D70
:1000830002021A0101FF01010503010F10FEFFA285
:1000930015A215A215A21558145214A2152724004F
:1000A3000000004D25000000000C0000000C0001C2
:1000B300FFFF0101010027050000009E05B80102B2
:1000C30002008810060502070401051E02051E0230
:1000D3000A0A03B80B02803E010201FFFF010A0175
:1000E3001401E096511800020206FF010900EF50C7
:1000F3000F6A100008FF34203A20402046200000F9
:1001030000000000000000000000000000000000EC
:100113000000000034203A2040204C200000000062
:1001230000000000000000000000000000000000CC
:10013300000034203A20402052200000000000003C
:1001430000000000000000000000000000000000AC
:1001530034203A2040205820000000000000000016
:10016300000000000000000000000000000010205C
:10017300202020202020202020202020202020019B
:1001830010040100010005758001DC8011040100E9
:10019300010005758001DC80120401000100057572
:1001A3008001DC8013040100010005758001DC80FF
:1001B300C0E074F1120552A2AFE433FED2AFE5A75B
:1001C300FFE5A1F5085FF509741055096006121CD7
:1001D3009275A1EF740855096008121C9875A1F770
:1001E300802BEFA2E0C0D0E508A2E092F0120A96BD
:1001F300158182F05017906198E0F8900668E0C38B
:1002030098A2D265D0335002E8F075A1FEEEA2E0C9
:1002130092AF7F020205B1C0E074F2120552A2AFA1
:10022300E433FED2AF9061A4E0F8759B00E59158EA
:10023300540860087591F7121CDA802AE591585426
:100243001060087591EF121CE0801BE8A2E0C0D09B
:10025300E591A2E092F0120A96158182F05007E030
:10026300C2E0F0121E249061A3E0F8E5E9585404BB
:10027300600E121DFA75E9FB906193E0A2E640F26D
:10028300EEA2E092AF7F010205B1C0E074F2120565
:1002930052A2AFE433FED2AF9061A5E0F8E5BF58B8
:1002A3005404600675BFFB121E3680D4C0E074F29E
:1002B300120552A2AFE433FED2AF900F4EE4F0E545
:1002C30089A2E050067401F053ABFEE589A2E15028
:1002D3000753ABFDE0D2E2F0E589A2E75014E070EA
:1002E3001153AB7F900F4FE4F07C64FDFA7B08124F
:1002F3000353900F4EE0600312034B758900C2C590
:10030300EEA2E092AF7F010205B1C0E074F21205E4
:1003130052A2AFE433FED2AFE58AA2E0500A538D76
:10032300FE900F4EE0D2E4F0E58AA2E2500A538D2C
:10033300FB900F4EE0D2E3F0900F4EE06003120308
:100343004B758A00C2EB80B87C647D007A107B0019
:10035300900F50E0F912186C22C3E498F8E499F96D
:1003630012039D8026C3E49AFAE49BFBE920E7E9A4
:1003730012039DE498F8E499F922C3E498F8E49908
:10038300F912039DE498F8E499F9C3E49AFAE49B1B
:10039300FB22EB20E7CFE920E7E0B90010BB000820
:1003A300E88AF084F8AAF022E4FBC8FA22EB702270
:1003B3007B10C833C8C933C9335007C39AC3DBF2B0
:1003C30080069A50012ADBEAC833F4C8C933F4C95A
:1003D300FA2275F008E4C833C8C933C933C99AC9C6
:1003E3009B5004C92AC93BD5F0ECFBC833F4C8E4DD
:1003F300C9FA22080808EAC0E0EBC0E086F0E7A4E7
:10040300FA180986F0E7A42AFA180986F0E7A42A5D
:10041300FA180986F0E7A42AFA1986F0E7A4FBE59F
:10042300F02AFA190886F0E7A42BFBE5F03AFA194B
:100433000886F0E7A42BFBE5F03AFA18180986F0D2
:10044300E7A4C5F02BFBE43AFA1908E7C5F0C6A404
:1004530026F6E5F03BFBE43AFA1886F0E7A4F6E566
:10046300F00826F6E43B08F6E43A08F6D0E0FBD0C1
:10047300E0FA22E4CFC0E0E4CEC0E0E4CDC0E0E4A3
:10048300CCC0E075F020C3E633F608E633F608E6A1
:1004930033F608E633F6181818EC33FCED33FDEEAB
:1004A30033FEEF33FFC3EC9709ED9709EE9709EF9E
:1004B30097191919400FFFEC97FC09ED97FD09EE09
:1004C30097FE191906D5F0BEECF709EDF709EEF71B
:1004D30009EFF7191919D0E0FCD0E0FDD0E0FED008
:1004E300E0FF222518C582C0E0E51934FFC583C0AB
:1004F300E0E518C3958224F810AF08858319858237
:10050300188008858319858218D2AFCEF0A3E52021
:10051300F0A37808E608F0A3DEFAEFF0A3E5812460
:10052300FAF8E608F0A3E608F0A3E608F0A3080843
:10053300E608F0A3E608F0A315811581D0E0FED00C
:10054300E0F8158115811581E8C0E0EEC0E022C016
:10055300D02518C582C0E0E51934FFC583C0E0E5A6
:1005630018C3958224F310AF0885831985821880F8
:1005730008858319858218D2AFC8F0A3E9F0A3EAEE
:10058300F0A3EBF0A37908E709F0A3D8FAECF0A302
:10059300EDF0A3EEF0A3EFF0A3D0E0F0A3D0E0F0F2
:1005A300A3D0E0F0A3E520F0A3E5F0F0A3228519A2
:1005B30083851882E0C0E0A3E0F9A3E0FAA3E0FB9F
:1005C300A37808E0F608A3DFFAE0FCA3E0FDA3E0CC
:1005D300FEA3E0FFA3E0C0E0A3E0C0E0A3E0F5D00A
:1005E300A3E0F520A3E0A3F5F010AF0885831985F8
:1005F30082188008858319858218D2AFD082D08370
:10060300D0E0F8D0E032120BBEB9000302064BE48F
:10061300900301786D790D8002F0A3D8FCD9FA908C
:100623000F6DAA82AB83900086782E79028015E441
:1006330093A3AC82AD838A828B83F0A3AA82AB831C
:100643008C828D83D8E9D9E77582807583B9740468
:1006530012091F75822C758322740012091FE80387
:100663000875F0108E1A8F1B85821F85831E8518CF
:1006730082851983E0CEA3E0CF851F82851E83EB9D
:10068300C9EAC8EDCBECCAC3E833C8E933C9EA33D6
:10069300CAEB33CBC3EA9EF51DEB9FF51CB35004A5
:1006A300AB1CAA1DEC33CCED33CDD5F0DAAE1AAFCB
:1006B3001B22D083D082ECC0E0EDC0E0E493A3FC26
:1006C300E493A3FDED4C600D12078DEC24FFFCEDCC
:1006D30034FFFD80EFE493A3FCE493A3FDED4C60B2
:1006E3000D12082AEC24FFFCED34FFFD80EFD0E06F
:1006F300FDD0E0FCE493A3C0E0E493C0E0228519BD
:1007030083851882E0A3FEE0A3F5207808E0A3F632
:1007130008DFFAE0A3FFE0A3C0E0E0A3C0E0E0A3AA
:10072300C0E0E0A3C0E0E0A3C0E010AF08858218FA
:100733008583198008858218858319D2AFD083D029
:1007430082020925D083D082E9C0E0E493A3C38663
:10075300F0C5F095F0F908E493A386F0C5F095F0A1
:10076300700BE493A3C3994005E9048002A3E475E5
:10077300F002A42582F582E5F03583F583D0E0F914
:10078300E493A3C0E0E493C0E022C0E0C3E4939603
:10079300087401939618400FE49366700808740177
:1007A30093661870007019A3A3C3E49396087401A9
:1007B300939618A3A3400DD0E0D0E0D0E00206F159
:1007C300A3A3A3A3A3A3D0E0227404800474028090
:1007D30000CCC0E0EDC0E0E518C39CCCAD195001DE
:1007E3001D10AF068C188D1980068C188D19D2AF89
:1007F3001208A1D0E0FDD0E0FC2274028000CCC03E
:10080300E0EDC0E0E518C39CCCAD1950011D10AF5D
:10081300068C188D1980068C188D19D2AF12087F9B
:10082300D0E0FDD0E0FC22C0E0C0F088F0E49366A5
:1008330070080874019366187000A8F0A3A3700BE6
:10084300D0F0D0E0D0E0D0E00206F1A3A3D0F0D006
:10085300E022D083D082CCC0E0E493A360061209E7
:10086300001470FAE493A360061209F11470FAD02D
:10087300E0FCE493A3C0E0E493C0E022CAC0E0E458
:1008830093A3C582CCC582C583CDC583F0A3C5829E
:10089300CCC582C583CDC583DAE5D0E0CA22CAC000
:1008A300E0E0A3C582CCC582C583CDC583F0A3C5D3
:1008B30082CCC582C583CDC583DAE6D0E0CA22C027
:1008C30008C3E096F50808A3E096420808A3E0965B
:1008D300420808A3E09645087001D3D008227009A6
:1008E300080808226016181818C6C333C608C6338A
:1008F300C608C633C608C633C6D5E0EA22C0E0E45C
:1009030093A3D39C5010E493A3C39C400AD0E0D09C
:10091300E0D0E0020872A3A3A3D0E022C09FF59F1A
:10092300E473D09F22D083D082C09FE493C0E0744D
:100933000193C0E0740293F59F222518F58210AF4E
:1009430008F518400215198008F51840021519D248
:10095300AF851983227404800A74038006740280AD
:10096300027401C0E0F40412093DD0E0120B992295
:10097300C0D0251810AF08F518500205198008F5E6
:100983001850020519D2AFD0D022BB0102E722C012
:1009930082C08389828A83BB0003E08002E493D010
:1009A30083D08222C0E0C0D0E8C0E0E5A8D2AFC2C5
:1009B300C7A2E792AFD0E0F8D0D0D0E032601608FB
:1009C3000808C6C313C618C613C618C613C618C666
:1009D30013C6D5E0EA22C3E0C696F608A3E0C6969E
:1009E300F608A3E0C696F608A3E0C696F622C0E092
:1009F300E493A36C7009D0E0D0E0D0E0020872A3C6
:100A0300A3D0E022251810AF08F51840021519806D
:100A130008F51840021519D2AF22E76670100809CD
:100A2300E766700A0809E76670040809E76622C3E7
:100A3300E09608A3E09608A3E09608A3E096A2D266
:100A430065D03322E066701008A3E066700A08A33D
:100A5300E066700408A3E06622C3E096F008A3E012
:100A630096F008A3E096F008A3E096F022E026F6BD
:100A730008A3E036F608A3E036F608A3E036F6222C
:100A8300E627F60809E637F60809E637F60809E621
:100A930037F622C0E0E8C0E0E58124FCF8E6A2E7EF
:100AA300D0E0F8D0E022700422600D18C6C333C62C
:100AB30008C633C6D5E0F41822E657F60809E65708
:100AC300F60809E657F60809E657F622E056F6084F
:100AD300A3E056F608A3E056F608A3E056F622E094
:100AE30056F008A3E056F008A3E056F008A3E0563A
:100AF300F022E647F60809E647F60809E647F6084E
:100B030009E647F622E026F008A3E036F008A3E062
:100B130036F008A3E036F022E4C396F608E496F62E
:100B230008E496F608E496F622C6F4C608C6F4C6A8
:100B330008C6F4C608C6F4C622C3E7960809E796B2
:100B43000809E7960809E79622C3E09608A3E0960A
:100B530008A3E09608A3E0962275D000758140753E
:100B6300180175190300020609E0F608A3E0F60868
:100B7300A3E0F608A3E0F622600C08C6C313C61868
:100B8300C613C6D5E0F422E6F008A3E6F008A3E610
:100B9300F008A3E6F022CAC0E0E6F0A308DAFAD030
:100BA300E0FA22E0FAA3E0FBA3E0FCA3E0FD22EAE3
:100BB300F0A3EBF0A3ECF0A3EDF022E5C754F84467
:100BC30001F5C77901222518F582E43519F5832249
:100BD300C2AF75D69F02000022120928725000127C
:100BE3000928D05000120928F95000120928695128
:100BF30000120928C251001209283B520012092889
:100C03008B5400120928455600120928F156001288
:100C13000928335800120928D15A00120928D75D30
:100C230000120928E45D00120928725E00120928E7
:100C3300245F001209286C5F00120928CC5F0012A0
:100C43000928E85F001209281C6000120928516076
:100C5300001209283A6100120928EF6100120928DD
:100C630044640012092891650012092834660012B1
:100C73000928C16600120928F76600120928A96726
:100C8300001209287B6800120928366A0012092815
:100C93008A6A00120928BE6A00120928396B0012F9
:100CA3000928136C00120928D16C00120928166D4B
:100CB300001209282E6D00120928C56D001209289B
:100CC3003670001209284B7200120928697200124B
:100CD30009288772001209286173001209287F7698
:100CE30000120928008002120928358002120928FF
:100CF3005B8002120928958002120928A78002123C
:100D03000928F980021209285A8102120928E4816C
:100D130002120928888202120928D08202120928A5
:100D23000A83021209282783021209284C8302121C
:100D330009289E8302120928B78302120928DD833A
:100D430002120928FC830212092837840212092897
:100D53007B8402120928A28402120928F384021256
:100D63000928A385021209285B8602120928238712
:100D730002120928E3870212092827880212092888
:100D83004C88021209288F8802120928DC88021273
:100D93000928348A02120928BA8A02120928D88A31
:100DA30002120928028B021209281C8B021209283D
:100DB3002B8B02120928368B02120928F68B02129A
:100DC30009284F8C02120928118D02120928198D46
:100DD30002120928918D02120928E08D02120928B6
:100DE300268E02120928678E02120928F78F021233
:100DF3000928AF90021209281B9102120928469272
:100E030002120928579202120928CD9202120928C8
:100E13005F9302120928B7930212092877940212EA
:100E230009289E9402120928BC9402120928CE9420
:100E3300021209282195021209285E950212092837
:100E43006B9502120928EE960212092843980212A2
:100E530009285C9802120928989902120928339AE2
:100E6300021209286C9A02120928B89A0212092858
:100E7300D49B021209281D9E02120928289E0212E1
:100E83000928339E021209283D9E02120928489E12
:100E930002120928629E021209286C9E0212092876
:100EA300769E02120928819E02120928A99E021227
:100EB3000928049F02120928289F021209284C9F1F
:100EC30002120928AA9F02120928EE9F021209287A
:100ED3000AA00212092881A002120928B9A002124D
:100EE300092805A10212092862A1021209281CA2DD
:100EF3000212092800A40212092859A4021209287F
:100F030089A502120928AFA50212092838A70212DF
:100F13000928B4AA0212092886AC021209284FAE86
:100F230002120928FCAE0212092867B0021209282E
:100F330006B10212092853B102120928BDB10212E7
:100F43000928CCB10212092853B40212092805B6A4
:100F53000212092872B60212092851B7021209288F
:100F63006AB802120928E7B90212092806BA02125E
:100F730009285BBA0212092860BB0212092888BB40
:100F830002120928E0BB02120928BFBC0212092879
:100F930003BD021209284EBD02120928B9BD02126F
:100FA3000928FABE021209285EBF02120928ACC042
:100FB300021209280CC3021209283DC30212092890
:100FC300F5C4021209284AC5021209284EC60212A4
:100FD3000928EBC60212092844C702120928F7C7D9
:100FE3000212092899C80212092839C902120928CC
:100FF300DEC902120928E2800112092821810112A7
:101003000928688301120928B28301120928CD84B3
:10101300011209283D850112092872850112092848
:10102300E68601120928698901120928928A0112A8
:101033000928288B01120928309401120928C59424
:1010430001120928AC97011209289F980112092857
:101053000099011209281C9A01120928019C011206
:101063000928129E011209287C9E011209284E9F0D
:101073000112092805A0011209280FA0011209284D
:101083003DA001120928FAA001120928D1A10112D9
:10109300092898A2011209284AA30112092873A357
:1010A3000112092895A301120928EBA501120928A9
:1010B300C3A60112092807A7011209286FA7011265
:1010C300092827A80112092859A8011209289DA84F
:1010D30001120928D3A8011209281FA901120928FE
:1010E30074A90112092879A901120928CCA90112AE
:1010F3000928F1A90112092800AB0112092864ABE0
:1011030001120928D4AB0112092860AC0112092885
:101113002DAF0112092811B00112092894B101124F
:101123000928CAB30112092878B40112092828B57D
:101133000112092869B7011209280CB801120928FC
:1011430053B801120928FFB90112092813BA011271
:1011530009281DBA0112092845BA0112092851BAF2
:101163000112092870BA0112092855BC0112092875
:101173008CBC0112092896BC01120928A0BC0112DB
:101183000928FBBC0112092845BD011209284DBEDF
:1011930001120928A4BE01120928F3BF011209286C
:1011A30037C001120928DFC001120928C2C1011288
:1011B30009286DC201120928B9C301120928B7C44D
:1011C300011209285DC501120928EDC5011209287C
:1011D30004C6011209283BC60112092845C601129B
:1011E300092850C6011209286EC601120928B2C681
:1011F300011209280FC70112092834C7011209284F
:101203004EC701120928DAC701120928F7C80112CB
:10121300092864C9011209284BCA0112092872CA94
:1012230001120928E6CA0112092861CB0112092813
:1012330065CC011209285BCD011209280ACE0112DF
:1012430009281DCF01120928B9CF0112092846D058
:101253000112092824D1011209285CD1011209289D
:10126300B4D1011209287DD2011209289ED201129C
:10127300092825D30112092849D3011209286BD360
:1012830001120928B4D301120928CAD50112092869
:10129300B1D60112092862D70112092898D901127F
:1012A3000928E8D90112092828DA011209286ADA7B
:1012B30001120928C6DA01120928F4DA01120928F1
:1012C30018DB011209286BDB0112092899DB0112D3
:1012D3000928D2DB0112092827DC011209288DDC39
:1012E30001120928E1DD0112092804E0011209288D
:1012F30071E0011209289AE00112092825E101127F
:1013030009288CE101120928D7E101120928FBE120
:10131300011209281FE2011209287AE201120928A1
:1013230095E2011209284EE30112092888E301120C
:1013330009289D7600120928D57600120928F67629
:10134300001209283877001209289E77001209280D
:10135300A87700120928B87700120928ED77001240
:101363000928367B00120928E07C00120928E07E58
:1013730000120928A2CA02120928E8CA021209287F
:10138300C8CB02120928CACC02120928CDCD0212F9
:10139300092859CF02120928B7CF0212092874D09D
:1013A3000212092892D10212092803D20212092833
:1013B3003FD2021209288DD20212092897D20212B3
:1013C3000928DBD20212092837D302120928D2D303
:1013D300021209284FD4021209281ED50212092825
:1013E300B7D502120928D7D5021209280DD6021241
:1013F30009283ED602120928FFD6021209280FD760
:101403000212092863D7021209287ED7021209287B
:1014130090D70212092899D702120928F3D702128A
:1014230009284FD8021209289BD802120928B6D8D6
:1014330002120928E7D80212092804D9021209283E
:1014430010D90212092884DA021209289DDA02123D
:10145300092804DB0212092817DB0212092825DBFD
:1014630002120928D9DB02120928BDDC021209285D
:10147300C3DD021209284DDE0212092857DE0212CB
:101483000928C4DE02120928DBDE021209280DDF57
:101493000212092846DF0212092870DF0212092806
:1014A300D1DF02120928F1DF021209280FE002122C
:1014B300092855E0021209287BE102120928C8E134
:1014C30002120928F7E1021209286DE20212092823
:1014D30095E202120928CEE202120928DCE2021286
:1014E300092834E30212092883E302120928C2E31C
:1014F30002120928F2E3021209281EE40212092843
:1015030029E40212092847E40212092809E5021214
:10151300092813E5021209284EE50212092864E599
:1015230002120928B9E502120928CDE50212092899
:10153300DBE602120928EEE60212092803E702128B
:101543000928A5E70212092828E802120928E6E873
:1015530002120928F1E8021209281DEA02120928D9
:1015630039EA021209288BEA02120928CAEA02128E
:101573000928DFEA0212092841EB02120928D0EBFD
:10158300021209281BEC021209286CEE0212092828
:10159300EAEE021209285FEF0212092881F1021212
:1015A300092899F1021209289CF102120928A8F1CD
:1015B30002120928BCF102120928C4F102120928F7
:1015C300F7F102120928A7F2021209281DF30212E9
:1015D300092890F30212092844F402120928F9F4A5
:1015E3000212092818F502120928B8F5021209286F
:1015F300C4F502120928EFF502120928F2F50212C6
:1016030009285CF60212092884F7021209285CF8FB
:1016130002120928E7F80212092800FA021209281F
:10162300BDFA02120928F6FA0212092827FB021250
:101633000928E5FB0212092815FC02120928F0FC0F
:101643000212092889FD0212092814FE0212092830
:10165300C5FE02120928874A001209287AFF0212DE
:101663000928BBFF0212092800800412092865809B
:1016730004120928A28004120928F18004120928FF
:10168300DB8204120928C28404120928FB8704128E
:101693000928218804120928398804120928A288F4
:1016A30004120928DE88041209280B890412092868
:1016B3001650001209289B890412092819F40312F1
:1016C300092897F403120928C9F40312092821F5FC
:1016D300031209289BF603120928B7F603120928F7
:1016E300F2F60312092879F703120928C9F703123E
:1016F300092896F8031209289AF903120928EEF922
:101703000312092869FA03120928CAFA03120928DD
:101713000BFB03120928B6FB03120928D4FC03129E
:1017230009280AFD0312092855FD031209289CFD07
:101733000312092826FE03120928CBFE03120928E7
:10174300FC9A04120928429B04120928AC9B041238
:101753000928CD9B041209286D9C04120928779C43
:1017630004120928C49C04120928E99C04120928BC
:10177300499D04120928DF9D04120928179E0412AB
:101783000928709E04120928CC9E04120928FA9E87
:1017930004120928829F04120928C79F04120928EA
:1017A30006A0041209284BA0041209285DA0041204
:1017B30009286FA0041209288EA00412092897A0F3
:1017C3000412092849A10412092889A1041209282D
:1017D300A4DF0412092845D5041209287BD5041275
:1017E3000928C4D50412092811D704120928E3A92A
:1017F300031209285CAB031209281DAD0312092843
:1018030059AD03120928E0B00312092826B10312C7
:1018130009283BB3031209280DB403120928B9B4EC
:101823000312092864B603120928AEB80312092863
:10183300CABB03120928D8BB03120928B3BC03127D
:101843000928C6C00312092898E10412092849E3AC
:10185300041209285FE3041209287AC40412092830
:101863008DC4041209282BC5041209286DC504125E
:10187300092892C504120928D7C50412092810C6DD
:101883000412092841C604120928B4C704120928FE
:1018930047FF031209287DFF0312092899FF03124A
:1018A3000928DBFF03120928EBFF0312092859C19A
:1018B300031209289BC1031209280AC2031209282B
:1018C30001C30312092885C3031209280DC4031297
:1018D300092822C4031209286CC403120928BBC4B3
:1018E300031209280DC50312092820C5031209286C
:1018F3006CC50312092867C703120928E9C7031235
:10190300092813C8031209285CC80312092824CA2A
:101913000312092894CA0312092821CB03120928A8
:101923003CCB031209285CCB031209287DCB03129D
:10193300092856CC03120928B9CC0312092805CD6E
:101943000312092808CE0312092876D003120928A6
:1019530090D00312092815D10312092885D1031247
:101963000928A8D103120928E2D10312092850D269
:101973000312092811D30312092836D303120928A5
:1019830040D30312092850D303120928D3D30312D7
:101993000928EED30312092810D4031209283CD4D2
:1019A3000312092877D40312092886D403120928BD
:1019B300C7D403120928E8E10412092800E204123B
:1019C3000928779304120928C693041209287895E5
:1019D300041209282D97041209287597041209285F
:1019E300719804120928C89904120928EA99041263
:1019F3000928469A04120928C89A04120928ECD423
:101A03000312092817D503120928FAD50312092846
:101A13007CD603120928E6D60312092832D703120B
:101A23000928A0D7031209282BD803120928B9D8EB
:101A330003120928ECD803120928E0DD0312092850
:101A430085DF0312092841E0031209287EE003120F
:101A53000928CAE2031209283EE3031209283DE4D8
:101A63000312092816E50312092890E50312092831
:101A73004AE60312092809E70312092875E7031246
:101A830009281CE80312092879E80312092836EB10
:101A930003120928F6EB031209285BEC0312092849
:101AA30005EE03120928C2EE0312092821F00312DE
:101AB300092848F103120928E3F103120928DEF289
:101AC30003120928D2E3011209285AE40112092852
:101AD300CDE40112092821E5011209285CE5011270
:101AE3000928E9E50112092805E70112092857E742
:101AF30001120928B5E701120928F8E7011209289C
:101B03006DE801120928B7E80112092836EA011223
:101B1300092809EB011209285FEB0112092855EC8A
:101B23000112092802ED011209282DED01120928DD
:101B33004CED011209285CED0112092862EE011235
:101B4300092826EF0112092807F1011209286DF16E
:101B53000112092884F101120928DAF20112092875
:101B630057F301120928C6F3011209284FF4011291
:101B7300092893F4011209285AF60112092832F7A9
:101B8300011209286EF80112092827F90112092800
:101B930058FA0112092887FA0112092861FB011278
:101BA300092830FC0112092889FC01120928A1FC2B
:101BB30001120928A1FD011209282FFE011209288B
:101BC300F6D204120928B5D3041209286ED40412DC
:101BD3000928D4D404120928FCB90412092865BBC6
:101BE3000412092883E304120928B3DE0412092826
:101BF300C1DE041209289DE304120928927F001212
:101C03000928A27F00120928AE7F00120928FB7F52
:101C130000120928B5DD0412092836DE041209284A
:101C23009ADE04120928F5FF01120928F8FF0112B0
:101C3300092827E304120928F2B00412092847B13E
:101C4300041209281BB3041209284DB304120928EE
:101C530074B30412092888B304120928A1B3041227
:101C63000928D0B40412092821DB0412092845DB12
:101C7300041209285EDB0412092891DB04120928E7
:101C8300C2DB04120928F0DB0412092852DC041217
:101C9300092861DC041209286BDC0412092878DCAA
:101CA30004120928C4CD0412092801CE04120928FC
:101CB30010CE041209282FCE0412092897CE04123D
:101CC3000928A0CE04120928FFCE0412092823CF25
:101CD3000412092816D00412092823D00412092853
:101CE30034D004120928BEE204120928DBE20412EC
:101CF300092835AC041209287BAC04120928D2AD9B
:101D030004120928DFAD04120928F2AD04120928D0
:101D130011AE0412092827AE041209283BAE04129F
:101D23000928B0AE0412092815AF04120928C5AF5B
:101D3300041209289AB004120928AAB00412092827
:101D4300B9B0041209287EE004120928A3E00412A2
:101D53000928CCE004120928F4E00412092878D7F2
:101D6300041209289FD7041209281BD80412092832
:101D730062D0041209287BD00412092887D00412E8
:101D830009289BD004120928B9D004120928C3D00A
:101D930004120928CDD004120928E0D0041209281E
:101DA3003FD10412092876D104120928A4D10412C0
:101DB3000928F2D1041209283FD2041209285AD261
:101DC3000412092864D204120928ACD20412092887
:101DD30019E10412092835E10412092869E3041200
:101DE3000928EB8904120928158A04120928318A63
:101DF30004120928448A04120928838A0412092830
:101E0300048B04120928418F041209286B900412D1
:101E130009289E9004120928EB900412092849927C
:101E230004120928719204120928949204120928B1
:101E3300D8920412092839930412092849930412E9
:101E4300092882DC041209289DDC04120928C6DC57
:101E530004120928E0DC0412092805DD041209280C
:101E630024DD041209283CDD041209286ADD04126A
:101E7300092884DD041209287AE204120928DCC047
:101E830004120928E3C00412092818C204120928FD
:101E930047C204120928B5C20412092848C3041210
:101EA300092881C304120928CAC304120928FAC3E2
:101EB300041209281AC40412092889D9041209280A
:101EC300A1D904120928BEDA04120928C1DA0412BE
:101ED3000928E0FE011209283FFF0112092895FF96
:101EE30001120928D6FF01120928008003120928CC
:101EF3001B800312092890800312092816810312FC
:101F03000928A98103120928C581031209286F84AE
:101F1300031209281E8703120928BC880312092803
:101F2300078A03120928BC8E03120928B88F0312EB
:101F330009282E9003120928FA90031209289E916A
:101F430003120928019303120928A19303120928F4
:101F5300EB93031209285D940312092802950312D7
:101F63000928CF95031209283596031209283A97B1
:101F730003120928F79703120928949803120928D2
:101F8300EB9A031209287F9B03120928FB9B031278
:101F93000928879E03120928829F03120928B19FEB
:101FA3000312092870A10312092844A30312092864
:101FB3003AA40312092823A903120928D0CA041238
:101FC3000928F5CA041209289DCB0412092865CCF7
:101FD3000412092823CD0412092898CD04120928D4
:101FE3003DBD04120928FEBD041209286DBE04126A
:101FF300092892BE041209284DBF0412092836E2AB
:1020030004120928C1C7041209281BC8041209288D
:1020130072C80412092823C9041209280FCA04121A
:1020230009282BCA04120928B2A10412092872A292
:1020330004120928A2A404120928A5A40412092839
:10204300E1A404120928E4A404120928EFA4041249
:102053000928FAA40412092805A50412092816A5BB
:1020630004120928CAA504120928EDA60412092896
:10207300ACB504120928D2B5041209281DB60412FE
:10208300092839B6041209286AB6041209287AB64F
:102093000412092887B60412092894B604120928E1
:1020A30077B704120928B5B704120928BFB7041279
:1020B3000928DEB804120928E9B804120928FBB874
:1020C3000412092804B9041209280EB904120928B4
:1020D30077A70412092827AC04120928FAE204128C
:1020E3000928D24800120928524800120928184822
:1020F30000120928584700120928CE460012092861
:10210300A046001209284C4500120928B5440012C4
:102113000928184400120928A3430012092871430F
:1021230000120928AE4200120928D94000120928DA
:102133006A40001209283C40001209283940001265
:102143000928C03E00120928C13D001209288B3C12
:1021530000120928CF3B00120928453B0012092829
:102163004B3A001209283B4F00120928794D0012FF
:102173000928454D00120928124D00120928E54C83
:1021830000120928A73900120928EE38001209287D
:10219300B138001209280B4C00120928F737001236
:1021A3000928C137001209286837001209281E3789
:1021B30000120928684B001209283D8904120928D6
:1021C300BF36001209288E36001209285633001232
:1021D30009281633001209280A33001209286A3223
:1021E30000120928AA3100120928232F00120928F6
:1021F300B42C00120928722C00120928462B001255
:102203000928FB2A00120928372A001209287A29EB
:10221300001209284A2900120928CF4A0012092866
:1022230010290012092848FF0200000080FBE47314
:102233008F000100C90F87000100C70F24000200AF
:102243001606250002001806260002001A062700BB
:102253000200A70F28000100A90F29000100AA0FFF
:1022630084000400AB0F86000100AF0F2A000100B9
:10227300B00F2B000100B10F2C000100B50F2D0092
:1022830008001E062E000100B60F2F000100B70F35
:1022930030000100B80F31000100B90F3200010016
:1022A300260633000100270634000100BA0F36006A
:1022B3000100280638000100BB0F39000100B40FEC
:1022C30083000200C50F63000100320664000100B1
:1022D300B20F65000100B30F6D000100C40F6E0063
:1022E30002001C0643000100BC0F44000200BD0FA6
:1022F30045000100BF0F46000200C00F4700080061
:102303002A0648000100C20F4B000100C30F04005E
:102313000100C80FA1000100CC0F37000100CB0F53
:1023230088000100CA0F3C000100290600000000DC
:102333000000000136360101000102010001030122
:10234300000104010606050200000701003408012C
:10235300000F090401010D0100FF0E080000170220
:102363000000190100FF1A0100011B0100FE1C01FE
:1023730000081D0200001F010001200100012102CD
:1023830000002301000F24020000260100012701A1
:102393000008280200FF2A0100072B0102402C013C
:1023A30000002D0100012E0100012F0100FF30016B
:1023B3000B1C310800003A0100083B01000F2F01FC
:1023C300000001017101010101011101010131014C
:1023D300010101018001100161013B00140063014F
:1023E30073017201620143010001130106013D0102
:1023F3003500040112010001000100010001040184
:102403000401330133013C01440132013600000170
:102413000001650100013500810100010501820110
:10242300830100010300710030016000110070009E
:1024330031022003500480001000610000001400EA
:102443006300730072006200430000001300060083
:102453000000000004001200000000000000000063
:1024630004000400370037003C0244000000000071
:102473000000000065000000350081000000050039
:1024830000008300000003047104020460041104CB
:102493007004020402040104020410046104000431
:1024A30014046304730472046204430400041304F5
:1024B30006040004000404041204000400040004DD
:1024C30000045104640000040004000444040004F4
:1024D300000400040004650400043504810464005E
:1024E3000504000483040004030271023001600246
:1024F3001102700201020202020280021002610252
:102503003A00410063027302720262024302000254
:102513001302380000020002040212020002000249
:102523000002000204020402370037003C024402A6
:102533000002390000020002650200023502810236
:1025430000020502820283020002010371030103F8
:102553000103010301030103220302030103100327
:10256300000300030003000300030003000342030E
:1025730000032403060300030003040312032503DB
:1025830023032503230304030403000300030003BD
:102593004403000300032303000365032100350301
:1025A300810300030503000300030003000003008D
:1025B3002001E080000000002001E1800000040011
:1025C30042016480000005004201538000000600C0
:1025D30042014280000007002001DE80000010005D
:1025E300420358100000110020035D0F0000120089
:1025F300100369100300000021035E0F06000000B2
:102603002001630F00000000000000000000030031
:102613002001E080000000002001E18000000400B0
:10262300420164800000050042015380000006005F
:1026330042014280000007002001DE8000001000FC
:10264300420358100000110020035D0F0000120028
:10265300100369100300000021035E0F0600000051
:102663002001610F000000000000000000000300D3
:102673002001E080000000002001E1800000040050
:1026830042016480000005004201538000000600FF
:1026930042014280000007002001DE80000010009C
:1026A300420358100000110020035D0F00001200C8
:1026B300100369100300000021035E0F06000000F1
:1026C3002001600F00000000000000000000030074
:1026D3002001E080000000002001E18000000400F0
:1026E300420164800000050042015380000006009F
:1026F30042014280000007002001DE80000010003C
:10270300420358100000110020035D0F0000120067
:10271300100369100300000021035E0F0600000090
:102723002001620F000000000000000036000100DD
:10273300060000000F000000000000000000000081
:10274300000003FFFF00000403FFFF0000FFFF0F73
:10275300F4010005C4040320000100140B00000071
:10276300000000000003010F621F9E1F681FB61FB9
:102773006E1FA41F6E1FB01F741FB61F6E1FA41FF2
:102783007A1FB61F801FB61F861FB61F8C1FB61F6A
:10279300921FB61F981FB61F000000000000000024
:1027A3000000881A13004C1A0100881A0200161A36
:1027B30003001C1A0400221A0500281A0600341A02
:1027C300FFFF0000013E100668100862100B801026
:1027D30010BA0F024410055610074A100C20100DB2
:1027E3003210FF0000B214E214B814BE14DC14D08B
:1027F30014CA14E814EE14F4140015C414AC14A68B
:102803001400160F00000B150B020002220F3200FA
:1028130000067A623230313630393239313032366D
:10282300333758696E6748756F5975616E536D61BB
:10283300727400000000000000008967452301EF67
:10284300CDABA215B415BA157C14C0157614821439
:10285300140AE5D5C5B5A5A5958585756502162028
:10286300162616081614160E16B613B013EC13F22A
:1028730013E6139E13303017181921301B1D1F3018
:102883000C0E020B040B0A0708000F000349484211
:102893004D181725050200011916181616152303DE
:1028A3000000383C3E363B3B352B432C303016186A
:1028B3001920231A1C1E30D614FA141A1606150CE6
:1028C30015F615C615CC15D815D21502040201014B
:1028D30001010902C213C813BC13F81300BE040A92
:1028E300CE13E013FA060000000028000C001500C8
:1028F3000E0004007F0053280900040303FF1E1E7B
:102903000A0C04301005080F010900080C74F712B3
:1029130004E6E9FE1216BCEE900F6EF090030E74FF
:1029230002F0A37422F090031074FCF0A37421F05E
:1029330090031274F6F0A37421F090031474F0F072
:10294300A37421F00243F174F71204E6E9FE900345
:1029530002E4F0EE900301F0900FC01237611247CA
:10296300437C2A7D067A057B03121EE4900FC2E0A6
:1029730090030DF00243F174F41204E68A088B0904
:10298300EB5480605B900301125E45604A8E828F38
:1029930083E064017032124ED41207CCEE2412127B
:1029A3007224F50A780A120964122A2A120960EEBF
:1029B300240B122A231207D0EE2417125E55121687
:1029C3007A74091209738008E0640270031220E824
:1029D300EEFAEFFB121764AA08E5096480FB803A5C
:1029E300EAA2E05017900316124D0D600612375DF0
:1029F300122231E5086401FAAB09801E5402600C0F
:102A0300900F6D7401F0EA6402FA800EEA540460D8
:102A130005EA640480F37A007B00022AF6EE240CB4
:102A2300F582EF124EDE22EE240FF50AEF3400F5A5
:102A33000B780A2274F41204E68A088B098A828BC3
:102A430083A3A3A3E024101243FDFA1250417003A1
:102A5300022AE68E828F837402F0A3E4125004A349
:102A6300A3A3A3E8F0A3E9124B52A3A3A3A3A3A395
:102A7300A3F0E5082403F8E509123FAA2410124243
:102A8300698E828F83A3A3A3A3F0EE2409FA122AEB
:102A9300E812468AF5838882E0A2E58E828F83A3BB
:102AA300A3A3A3A3500474018001E4F0E508240365
:102AB300F888828983125D9EEA12685CEB122A26EB
:102AC30012506912095C1263CAEB1248108E828F8E
:102AD30083A3A3124EED120973EEFAEFFB900301E9
:102AE3001250AE800EEF3400FB8E828F83A3A3229D
:102AF3001209737F0402070174F21204E68A088B39
:102B030009ECFAEDFB740E120BC9E0FC1216EC8A09
:102B13000C8B0DAE0CAF0DEE4F6023AC08AD09125C
:102B230016DAE96019AC08AD09EEFAEFFB1216E00C
:102B3300E97007EEFAEFFB1216D47900800279B43C
:102B43000237BC74EE1204E674F7120A078A0A8B82
:102B53000BECFEEDFF750FB3750E00750C00750DD4
:102B630000800CE50C2401F50CE50D3400F50D9007
:102B730028F5E493F8740193F9C3E50C98E50D99EE
:102B83004003022C66AA0CAB0D12173A8A088B0974
:102B9300EA450960CE8A828B83A3A3A3A3A3E0257E
:102BA3000EF50EF510C3E50A9510E50B940050B32E
:102BB3007C157D007900EEFAEFFB124CBBA3A3A3B7
:102BC300A3E50AC3950EF8E028C333F8E433F9E527
:102BD3000828F582E50939F583A3A3A3A3A3A312C8
:102BE300547BA3124539EAFCEBFDEEFAEFFB123FEF
:102BF300C7A3E06401700A124ED4740112389D8099
:102C030043851882851983AC82AD83850882850943
:102C130083125D9C121722E9602D7408120BC9E020
:102C2300C0E0124ED4D0E0F07408120BC9E0640384
:102C3300851882851983700CAC82AD83EE240B1248
:102C4300388A8003124737850882850983123EAF8D
:102C5300A3A3124FC7C0E0EE2414122A23D0E0F03E
:102C6300750F00A90F74091209737F0A0207017413
:102C7300F71204E6E9FE8A828B83A3A3A3A3A3A38B
:102C8300E0540860298A828B83A3A3A3A3A3A3E0B0
:102C9300540260178A828B83A3A3A3A3A3A3A3A332
:102CA300A3E06406600574E96E70031221E4024335
:102CB300F174E81204E674F7120A077407120BC9D9
:102CC300124CD4E9851882851983F0ECFEEDFF746C
:102CD30024120BC9780C120B6C7513008E828F8330
:102CE300125D988E828F83A3A3A3E0F91216F88A4C
:102CF300148B15EA45157003022EBDEE24101256EF
:102D03001BA914120EBE8A168B17EA45177003020D
:102D13002EBDEE2406F510EF3400F5117C0085106E
:102D230082F583122F0F8E828F83A3A3A3122F0406
:102D3300125A9EF8A3E0F9851682851783A3A3A3ED
:102D4300A312399F122F04A3A3A3A3125818851605
:102D530082851783A3A3A3A3A3A3F0EE12685CEF5A
:102D630012317E12095CEE1263CBEF124810851606
:102D730082851783A3A3A3A3A3A3A3A3A3124EEDA7
:102D8300120973751000022E3D850A82850B83128A
:102D93005D9C121728850882850983A3EAF0A3EBBB
:102DA300124F00A3A3124BF51250C5E0A2E6500F39
:102DB300850882850983A3A3A3A3A3E0D2E1F0E559
:102DC300137063850882850983A3125FB990036C2E
:102DD300E0687003A3E069704D850882850983A3C9
:102DE300A3A3125628780C1209587427120BC9E0B2
:102DF300F50A780A1209647426120BC91207D090D7
:102E030003791207D079007410120BC9124B4212C6
:102E1300216C7409120973850882850983A3A3A30E
:102E2300A3A3E04405F074012510FC8E828F83A3D5
:102E3300A3A3A3A3A3122F0F0510E50A450B60520A
:102E4300851008C3E5089514E495155045E51075FC
:102E5300F006A4F8A9F0E51628F8E51739F9E824EF
:102E63000CF508E9123D6EE4124EF66401600302AC
:102E73002D8C7513018508828509837401124EFB1D
:102E8300F8A3E0F9850882850983A3E8F0A3E902A2
:102E93002DA3AA16AB17120EC47816120960742557
:102EA300120BC9E0FC7402120BC9E0F9EEFAEFFB56
:102EB3001221EA740212097380428E828F83A3A3C4
:102EC300A3E0C0E07404120BC9D0E0123BB8E0C029
:102ED300E07405120BC9D0E0F0E5144515700974D0
:102EE30006120BC974B980077406120BC97410F06B
:102EF3007401120BC9AA82AB831221727409026A8C
:102F030075E0851682851783A3A3A3221254648ECA
:102F1300828F83A3A3A3E0F91216FE8A0A8B0B22E6
:102F230074E81204E674F3120A078A0A8B0B8917F2
:102F33008C167425120BC912723FAA0CFB120EB227
:102F4300E9F514AA0CAB0D120EB8E9F515E51470EA
:102F530003023170751300800F8E828F83A3A3A3A6
:102F6300A3A3E0D2E3F00513E50C240BF582E50DF2
:102F7300123305E513C3984003023167E514700368
:102F8300023167E51375F006A4F8A9F0E50C28F8FB
:102F9300E50D39F9E8240CFEE9127013A3A3A3A3EA
:102FA300E0A2E040C1750E008E828F83E070431271
:102FB3005D9D120DAA8A088B09A808A909E8496032
:102FC3003188828983A3A3A3A3E06401600D88826F
:102FD3008983A3A3A3A3E0640370178E828F83A3C3
:102FE300A3A3A3A3E0D2E7F0750E01E515700302D6
:102FF3002F69750F00750808750900E516600375DC
:103003000F20124C5BE060339003BCE06401701747
:10301300E50FD2E3F50F7509108E828F83124722D5
:1030230012452874FF8024430F0C75080C8E828F81
:1030330083A312318A126A0CA38010E5176009E595
:103043000FD2E6F50F75080A1231A1F07402120BC4
:10305300C9E50F125ABDC0E07404120BC9D0E0F0E9
:103063007405120BC912440F120BC9E0600302313D
:10307300427408120BC9123DAF8E828F83A3A3A3A0
:10308300A3F07408120BC912366AF583E508F0A39E
:10309300E509124A6DE060119003BCE0C0E07408DA
:1030A300120BC9123663D0E0F0850C82850D83A321
:1030B300A3A3E0C0E07408120BC9126550D0E0125C
:1030C300658CC0E07408120BC9123675D0E0F07439
:1030D30008120BC912318AA3A3126557125AA712F9
:1030E3005D9CE82428F582E912560E125AB3C0E01B
:1030F300E8242EF582E9122A26D0E0F07408120B98
:10310300C9125D9E850A82850B831231752424F5CD
:1031130082EB12474012685AE50B12317E12095CAA
:10312300124808EA242BF582EB122A26124EED12DE
:103133000973851882851983AA82AB831216568E6A
:10314300828F83A3A3A3A3A3E0D2E0F0740C120B9A
:10315300C9E06003022F5CE50EA2E05002151515CD
:1031630014022F697900AA0CAB0D1221DE740D0233
:103173006A75A3A3A3A3125FBDEA22124EDE125AFD
:1031830073751200781022125FBD850A82850B8346
:10319300A3A3A3A3228E828F83A3A3A3A3A3A31278
:1031A3004727E8F0A3E92274F21204E674EB120A4B
:1031B30007EAFEEBFF89088E828F83A3A3A3A3A351
:1031C300A3A3A3E0F9120EDC8A0A8B0BEA450B607A
:1031D3007FE50870047C0480027C088E828F83A3C1
:1031E300A3A3A3A3A3A3A3E0F9120EE2122A20121E
:1031F3004D0D605C88828983125D9A7406120BC937
:10320300123258125D9E7408120BC9123258A3A3CE
:10321300E0C0E07410120BC9D0E0125ACA125D9ECE
:10322300740E120BC9124CD47411120BC9E4125848
:1032330003F9780A120960742059FC744059F9742F
:1032430002120BC9AA82AB831221EA740212097318
:1032530074150237B9EAF0A3EB1232602212469AD0
:10326300A3A3A3A3A3A32274F71204E674FA120A76
:1032730007E9FE7F018F087D0080047508000D12A9
:1032830043F6123305EDC3985025ED75F006A4F807
:10329300A9F0EA28F8EB39F9E8126855E91254560F
:1032A30050D9540C60D5E0A2E250D37F0080CF8A7E
:1032B300828B83A3A3A3A3A3A3E0703EE508A2E0AC
:1032C300400574016E70338A828B83A3A3A3A3A3E7
:1032D300A37401126409E0C0E07403120BC9D0E0C7
:1032E300126401E0C0E07404120BC9D0E0F074056D
:1032F300120BC9EF1246F112217274060243EEF566
:1033030082EF125813F822C082C08379011221DEA2
:10331300023883C082C083EA4B60189003B8E0642C
:10332300027010900F6DE4F0EAFCEBFD7A021233A9
:103333004B8012900F6D7401F07A027B00900301B1
:10334300E0F91218780238837B00900301E0F91248
:10335300186C2274F21204E674F3120A07EAFEEB05
:10336300FF8E828F83A3A3A3A3A3A3A3A3A3A3E0FB
:10337300F50A900F6DE0700579BA02365E750801A3
:10338300750900750C00750D007C087D00790085BA
:103393001882851983AA82AB8312174C7405120B0A
:1033A300C97401123686540460127402120BC9E008
:1033B300D2E612368654087003750803E054106091
:1033C3000674404508F508E0540860227402120BA5
:1033D300C9E044C01236865420600A7403120BC934
:1033E300E0D2E080087403120BC9E0D2E1F08E82D0
:1033F3008F83A3A3A3A3A3A3A3A3E0701812114CC9
:10340300851882851983124CD47402120BC9E0D239
:10341300E2F00234BD640F70157402120BC9E0D2DE
:10342300E31250C6124CB54508F5080234BD8E822E
:103433008F83A3A3A3A3A3A3A3A3E064028E828F7A
:103443008370051231A280C9A3A3A3A3A3A3A3A33B
:10345300E064037013851882851983AC82AD83EE13
:10346300FAEFFB1221A280528E828F83A3A3A3A320
:10347300A3A3A3A3E0640170419003BCE0601C74A8
:1034830002120BC9E0D2E31250B485188285198366
:10349300124743750910750AFF80187402120BC98D
:1034A300E0440C12657974FDF0A374FFF0740445D5
:1034B30008F5088E828F8312723F125450503A746B
:1034C30002120BC9E0540C701B8E828F83125D9E17
:1034D300121B5AE9700579BB02365E7402120BC9DE
:1034E300E0D2E5F012545050107402120BC9E054AC
:1034F3000C64047004E0D2E5F0EE2411127224C0CF
:10350300E07404120BC9D0E0124411120BC9E0603D
:10351300030236577408120BC912366A12367CEE50
:103523002418127224C0E0E8126846E9122A26D051
:10353300E0F0EE2419127224C0E07408120BC9E003
:103543002413123D77D0E0124546640170119003B5
:10355300BCE0C0E07408120BC9123663D0E0F0740B
:1035630008120BC91242412417FAEF124270FCE809
:10357300241CF582E9122A26ECF0A3E412515FE041
:10358300C0E0E82422F582E9122A26D0E0F074088C
:10359300120BC9123675E50AF07408120BC91242F0
:1035A300562424F582E9125D63A3E50D125DC1FC87
:1035B300A3E0FDE82426F582E9122A26ECF0A3ED28
:1035C300123A43124C8BE82428F582E9122A261278
:1035D3005FC1C0E0E8242FF582E9122A26D0E0F08B
:1035E300EE241B127224C0E07408120BC912654941
:1035F300D0E0F0EE241A127224C0E07408120BC952
:10360300E0242E123D77D0E0126571125051120959
:103613005CEE2411124C84740B120BC9124EE71288
:103623000973EE24151272245440601B9003281270
:103633004D0D6013851882851983AA82AB8390038D
:103643002912375D122231851882851983AA82AB2C
:1036530083121656740C120BC9E0F9740D0237B9B4
:10366300E02415123D9D2212425A240FF582E934BB
:103673000022E02423123D9D22F583E508F0A3E513
:1036830009F022F0EE24151258102274F71204E602
:103693007E638A828B83E0600C7905120CCCE9F897
:1036A3007456C398FE900364E0600CF9120CCCE9E5
:1036B300F8EEC39824F2FEEEF90243F174F6120415
:1036C300E674FE120A07851882851983124CD4E921
:1036D300FEECFAEDFB740C120BC9E0FC9004AE1285
:1036E3004D0D60328518828519838582088583098B
:1036F30078081209607D01EEF99004AE12375A1270
:10370300223174021209738B09EA450960047900B6
:10371300800679B2800279B60238E474F71204E6BF
:10372300E9FE7409120BC9E0FF90030E124D0D6000
:103733001AEFF5087808120964EEF990030E1237B0
:103743005A1222317401120973800279B60243F1CD
:10375300EEFAEFFB900320E0F8A3123FFB22125F87
:10376300BD9003032274F21204E68A088B09ECFE6F
:10377300EDFF750A0190036CE065087004A3E06532
:10378300097005124B3B802A1211528A0C8B0DE5EE
:1037930008650C7004E509650D7009EEFAEFFB127C
:1037A3001158800EEEFCEFFDAA08AB09120D44E997
:1037B300F50AA90A80031209737F0602070174F54B
:1037C3001204E6EAFEEBFF8C088D09750A01126C00
:1037D300A9123893700B90036C124029124743804F
:1037E3000EAC08AD09EEFAEFFB120D4AE9F50AA992
:1037F3000A02613574F61204E6EAFEEBFF7A0C7BEB
:10380300001217E2EA4B606BEE24201272248A82C4
:103813008B83F0EE2421123879F0EE2422123879CA
:10382300A3F0EE2423123879A3A3124F20125A9047
:10383300E8F0A3E9125808125A91A3A3E8F0A3E908
:1038430012562E8A828B83A3A3A3A3A3A3A3A3F0BD
:10385300EE242F127224C0E01243F6122A26D0E07F
:10386300124CDA8A828B83A3A3A3A3A3A3A3A3A348
:103873001247430238E91258108A828B83A322F03D
:10388300D083D082020925FAEF3400FB121EE42212
:1038930012452D2212389DA3E0221238A12212389C
:1038A300A522124FFCA3A322124B60A3E02274F6BD
:1038B3001204E6ECFEEDFF79B3900363E070209011
:1038C3000395E064017018EE126855EF127027EE4D
:1038D300240F12473DE84960047900800279A180F2
:1038E3000574021209737F0202070174F41204E6DD
:1038F30074FE120A07ECFEEDFFEE24161272246426
:10390300057011EE2406FCEF3400FD1221A8E970C6
:1039130003023998851882851983AC82AD831267B7
:103923009B123B2A124D0D6068E875F009A4F8AAB2
:10393300F075F009E9A42AF974ED28F874F339F95C
:10394300E8FAE9FBEE2412122A23C082C0838A829A
:103953008B837808120B6CD083D0827808120B4CBF
:10396300402B851882851983124241240F122A2382
:1039730012399F7808120B6C9080AC7808120A7089
:103983008A828B837808120B8A7900800A79A28055
:103993000679A1800279C87402022AF3E8F0A3E948
:1039A300123BBC2274F41204E674FF120A07EAFE07
:1039B300EBFF900363E07075900395E06401706D15
:1039C30075083A75090078081209607402120BC968
:1039D3008582088583097808120960123A3512092D
:1039E30073E9703EEE12685CEF124033124B03C072
:1039F300E0EE2411122A23D0E0123A43743A12580B
:103A030018900330120BA6EE2412122A23120BB2C3
:103A13009080AC7808120B6C9003307808120B0876
:103A2300800BEE240FF582EF1243DFA3F074010243
:103A33002AF37C017D007A007B0012132C7404228C
:103A4300F0EE240F124EDB2274F01204E674F61229
:103A53000A07ECFEEDFF7402120BC9AC82AD8312B0
:103A630021A8E97003023B25851882851983AC825E
:103A7300AD837402120BC9AA82AB83123B2A124D87
:103A83000D7003023B25E875F009A4F8AAF075F060
:103A930009E9A42AF974E928F874F339F98808893B
:103AA30009EE240E123B34124B03F8A3E0F9EE2483
:103AB3000F124FED120BA6EE2412122A23120BB291
:103AC3009080AC780C120B6C850882850983780C86
:103AD300120B088508828509837808120B6C908085
:103AE300A8780C120B6C7808790C120476E50C4557
:103AF3000D450E450F702B8518828519831242568A
:103B030075F009A4F8AAF075F009E9A42AF974F18B
:103B130028F58274F339F5837401F07A007B10126F
:103B23003B3C740A023BC7121B60851882851983CC
:103B330022F582EF124EDEE422900527E0F91217F8
:103B43009A2274F01204E68A088B09ECFEEDFFEE6C
:103B5300240FF582EF1243DFA3123BB8C082C08368
:103B63009080C0780C120B6CD083D082780C120A30
:103B7300476032123BAC7005122190802AE0700539
:103B830012218A80226402701312218AE96018EEDE
:103B9300FCEFFDAA08AB09121B84800BE0640360F1
:103BA300DF79A1800279A3801EEE240EF582EF1245
:103BB3005813640122123BBC22F0EE2412F582EF6B
:103BC300124EE2221209737F0802070174F61204EF
:103BD300E6EAFEEBFFEE240AF508EF126A07850812
:103BE30082124C89EC240F1243DC124CA512216083
:103BF300850882850983124D0A706B123D7B700321
:103C0300A3E069600A123D5D7003A3E06970578EFB
:103C1300828F83A3A3A3A3A3A3A3A3A3A3124C8BC6
:103C23008E828F83125D9E121B8AE960188E828FAB
:103C330083A3A3A3A3A3A3A3A3A3A3E0240F123D3E
:103C430077E4F0A3F08E828F831265418E828F8397
:103C5300A3A3A3A3A3A3A3A3A3A370051240238099
:103C630004124001E4F0124CFC701A123FAE125DD4
:103C73009E122184850882850983124D0A700612DB
:103C83002A2074A1F00238E974F61204E6EAFEEB86
:103C9300FFEE240A123FBD7A187B001217E2850853
:103CA30082850983123DB4F8A3E0F9E84970030261
:103CB3003D54EEFAEFFB122154124CFC607F123D8F
:103CC300A164017007123D88740E8034E0640270B1
:103CD30007123D88740D80288E828F83A3A3A3A32C
:103CE300A3A3124D0D70EA123D7B7003A3E069603C
:103CF300E0123D5D7003A3E06960D6123D88740550
:103D0300124CAE540364017007123FE17405800B3B
:103D1300900364E0C0E0123FE1D0E0F0EE240AF546
:103D230008EF123D6E123FEF123EB4C0E0850882E9
:103D3300850983E02417123D77D0E0801985088236
:103D430085098312439C850882850983E4F0A38057
:103D530005122A207410F00238E912114C8A088BDC
:103D630009A808A90990061CE06822126A078508B9
:103D730082F58322123D9D228E828F83125FBD9036
:103D8300061CE068228E828F83A3A3A3A3A3A3A30D
:103D9300A3A3A3E02416123D9D2212400C228E827F
:103DA3008F83A3A3A3A3A3A3A3A3A3A3124005E069
:103DB30022EAF0A3EB123DBC22124FFCE02274F185
:103DC3001204E68A0A8B0B8C088D097A18125F1489
:103DD3007003023EA78E828F837401F0E508240DE1
:103DE300F8E5091267A4C3E49AFA95E0FB12686147
:103DF300125612FB8E828F83A3A3A3A31257FF8EA7
:103E0300828F83A3A3F0EEFAEFFB120C788508826E
:103E130085098312654370098E828F83A37405809D
:103E230006900364123EAFF0EE2417F8EF3400F966
:103E3300880C890D8E828F83123EB3850C82850D8B
:103E430083F0EE2416F8EF3400F9E508240EFAE5C2
:103E5300093400FB88828983124A4FE50824100A3B
:103E63000AE5093400FB850C82850D83E0FC88821A
:103E73008983E0F88A828B83E0C398C39C125156EE
:103E8300F0EEFCEFFDAA0AAB0B12215AE9F508701C
:103E93000AEEFAEFFB120C84E9F508EEFAEFFB12D7
:103EA30017E88003750810A908026CCC124B59223D
:103EB300A3E0F9120CCCE922790102092574F4126A
:103EC30004E6EAFEEBFF8E828F83A3A3A3A3A3A33F
:103ED300A3A3125DA2126543706B123DA170668E9F
:103EE300828F83A3A3A3A3A3A3A3A3E0242B123DA5
:103EF3007712401B704F8E828F83A3A3A3A3A3A328
:103F0300A3A3E0242BF888828983123FEFE0F8749F
:103F13000168600A740668600574056870138E8210
:103F23008F83A3A3A3A3A3A3A3A3A3A31240238029
:103F3300138E828F83A3A3A3A3A3A3A3A3A3A312D9
:103F430040017403F0123FAE12375AE4F0EE240836
:103F5300F8EF123FAA242D124269C0E0123FD5D0D8
:103F6300E0125803242A124269C0E0123FD5A3D0BD
:103F7300E0125803240B123D771240291240C2125B
:103F830045398A0A8B0BAC0AAD0B850882850983F8
:103F9300E0240612546A123FC7125D9E120C84126B
:103FA3002A20E9F0022AF612467D22EE240A123F65
:103FB300B522123FBD8882F58322F8EF3400F988D9
:103FC30008890922123FCB22121EE4850882850943
:103FD30083228508828509831240C6A3A3228E8289
:103FE3008F83A3A3A3A3A3A3A3A3A3A3123FF322F8
:103FF300E0F8123FFAA322A3E0F58388822212405D
:104003000522E0240E12400C2212401022F8A3E0F5
:104013003400F98882898322E0F81248CD640522AE
:10402300124005740222125FBD850882850983222E
:10403300124EDE740122023EBBC082C08390031E77
:10404300744EF0A37421F09003207442F0A3742102
:10405300F0900322743CF0A37421F090032474487D
:10406300F0A3742102388274F41204E6EAFEEBFF33
:104073001240CFF50812114C8A0A8B0BA80AA90B20
:104083008E828F831240C2E0687003A3E069602CC4
:10409300E508A2E550268E828F83A3E0FB90031EE2
:1040A30012375A1222318E828F83E0F8A3125228DC
:1040B300A3124D0D70061240CFC2E5F0022AF6128C
:1040C30040C622E0FAA3E0F5838A82228E828F83A0
:1040D300123FF3A3E02274F51204E612422F1242B8
:1040E300562420F582E9127227FE74035EF50A1244
:1040F3004A39122A2612424188828983F0A3A88270
:10410300A983E50A60097402650A60030241A07489
:104113000C5EFF601574086F601074046F701D747B
:1041230002650A7005EEA2E4402D8A828B83A3A365
:10413300A3A3A3A3A3A3E02423124291740C6F703F
:104143001012422A2424124279242412423C12429D
:10415300947402650A7005EEA2E4404112422A24D7
:10416300261242792426124246A31242A312424641
:104173001242A312423C124294EF600F74086F6024
:104183000A740C6F600574046F70128A828B83A3A8
:10419300A3A3A3A3A3A3A3E024221242918A828B05
:1041A30083A3A3A3A3A3A3A3A312425F7005EEA2B9
:1041B300E150178A828B83A3A3A3A3A3A3A3A3E0A2
:1041C300242E124A4012428A800E90030212428A1F
:1041D300900302E00412469AA3A882A983EEA2E701
:1041E300504212422A24211242461242948C828D5A
:1041F3008312425F602E8A828B83A3A3A3A3A3A30C
:10420300A3A3E02430124291EEA2E150178A828BDD
:1042130083A3A3A3A3A3A3A3A3E024311242698886
:10422300828983F002613512422FE022EA2408FCDE
:10423300EB3400FD8C828D8322124A44A322125F49
:10424300BDEE2212424A22F508A3E034008508821B
:10425300F5832212425A221250BFE822E02421128F
:104263004A44E0540322FAA3E0124270223400FBD2
:104273008A828B83E02212424A12428AA3A882A92D
:10428300838C828D83E022E088828983F022124A24
:104293004412429822E088828983F0A308A98322EA
:1042A3001242988C828D83E0242822C082C0838AA4
:1042B300828B831240D3F8740358F98A828B83A3C9
:1042C300A37401F0E960057402697061740C58FC11
:1042D300601474086C600F74046C7013740269705A
:1042E30005E8A2E4401D8A828B83A3A37402F074C1
:1042F3000C6C700A8A828B83A3A3E02402F07402FD
:10430300697005E8A2E440258A828B83A3A3E02495
:1043130004F0EC600F74086C600A740C6C60057434
:10432300046C70098A828B83A3A3E004F0E8A2E7FC
:1043330050318A828B83A3A3E004125FC5F9A3E003
:10434300F5838982A3A3A3E0540360178A828B8336
:10435300A3A3E004F0E8A2E150098A828B83A3A31C
:10436300E004F08A828B83A3A3E004023882C08234
:10437300C0838A828B83A3A3A3A3A3A3A3A3A3A37F
:10438300124D0D60098A828B83A3A31243940238D2
:1043930083A3A3A3A3A3A3A3A31254641217E82282
:1043A30074F71204E6EAFEEBFF125FB58882898395
:1043B300A3A3A3A3A3A3A3A3E4F0A3123260A3A381
:1043C300A3A3F0A3F0E8125D45E91243DF12212411
:1043D300EEFAEFFB1221308015F582ED124EDEE48A
:1043E300F022740C120BC9E0F9740D1209737F01EA
:1043F300020701EA240BF582EB221266BD2409228F
:10440300124EDE127243750E00780C2274011246AE
:10441300F51244AF2274F51204E674F3120A07EAA4
:10442300FEEBFF7C087D007900851882851983AA3D
:1044330082AB8312174C123198124A7CC0E0740489
:10444300120BC9D0E0F07402120BC9740112454675
:10445300C0E07405120BC9D0E0124A8264017009EE
:104463007402120BC9E0D2E5F01244A5120BC9E0A5
:10447300702D8E828F8312506712095C8E828F8318
:10448300A3A3A3A3124813740B120BC9124EE71272
:104493000973851882851983AA82AB831216560283
:1044A3006129851882851983AA82AB831220E2745D
:1044B3000C2274F71204E674FE120A07ECFEEDFFF9
:1044C3007508C8851882851983AC82AD831221A231
:1044D300E9640170498518828519831252351245A2
:1044E30028A3A3E4F0900632E0601B8E828F83A39F
:1044F300A312401B70108E828F83A3A3A3A3A3A335
:10450300A3A37401800D8E828F83A3A3A3A3A3A36C
:10451300A3A3E4F0EEFAEFFB122112E9F508A908D0
:1045230074020243EE124B2DA322121EDEE9640134
:1045330022124FF4E022A3A3A3A3E8F0A3E9F0120D
:1045430011462212563BA3E02274F61204E674F4D9
:10455300120A07EAFEEBFF123198124673FAA3E040
:10456300F5838A82A3E0FA7402120BC9EA12580394
:104573002402124B0A7404120BC9124743EA600A5D
:104583007402120BC9E06404701C12466712546A69
:104593007406120BC912466D124B0A7408120BC92A
:1045A300E8F0A3E98056E06401600AE06406600570
:1045B300E064057023124667124269C0E074031277
:1045C3000BC9D0E0125803241312546A7406120B59
:1045D300C91257FF241B80C07406120BC9E4F0A351
:1045E300124673241212546A7408120BC912466DD0
:1045F3001266B9C0E0740A120BC9D0E0F074061257
:104603000BC9124D0D60287406120BC9125D9E1260
:104613000D38E9640170181211468A088B09AC0839
:10462300AD097406120BC9125D9E123893700F8583
:104633001882851983AA82AB83122166802185188B
:1046430082851983AA82AB83121B66E96401700F0A
:10465300EEFCEFFD7406120BC9125D9E12210C7461
:104663000C0238E6124678241222124691241A22AA
:10467300F012467822EE2402F8EF124682E022344A
:1046830000F98882898322124691F8A3E022EAF096
:10469300A3EB12469AE022F08882898322C082C06B
:1046A3008374FC120A071247191247438A828B83C9
:1046B300A3A3E0124B087402120BC91246ED1216A3
:1046C300B074048000120973023883C082C08374FB
:1046D300FD120A07124701C0E07402120BC9D0E0B1
:1046E3001246F1120BDC740380DBE8F0A3E91246F7
:1046F300F522F0851882851983AA82AB83228A82E8
:104703008B83A3A3A3A3A3A3124AFA8A828B83A3B3
:10471300A3123FF3E0228A828B83A3A3A3A3A3A3C1
:104723001247272212472B22E0F8A3E0F9851882CB
:1047330085198322125FBDEE240BF582EF124EDE44
:10474300124AFD22AA82AB83121740740322124A33
:10475300FD9003302274F41204E674FB120A07EA94
:10476300FEEBFF8E828F83A3A31242562409F50822
:10477300E9126A077403120BC9AC82AD838882897C
:1047830083A3AA82AB831221A2E96401706A85180C
:10479300828519837432124A7C24F7C0E0740112B3
:1047A3000BC9D0E0F07402120BC9E41246F1120EE9
:1047B3000A8A0A8B0BAE0AAF0BEE4F603B740312EF
:1047C3000BC9124800A3A3124534C0E0EE24201203
:1047D3002A23D0E0F0750A00780812095CEE127003
:1047E3000EEF124810EE240B122A23124EED12097B
:1047F30073EEFAEFFB120E047405022AF3125FBD87
:104803008E828F8322E50A2410F582E50B124EDE99
:10481300E0FC7D0022C082C083124844600E24FE67
:10482300600F24FE601024FB6011801212210680A9
:104833000D12210080081220FA80031220F402389E
:10484300838A828B83A3A3E0F81248CD24FB22C082
:1048530082C0838A828B83A3A3A3A3A3A3A3A3E07E
:1048630070528A828B83A3A3E0F81248C964016063
:10487300431248C36402603C1248C36403603512A8
:1048830048C36404602E8A828B83A3A312401D60F5
:10489300231248C3640A601C1248C3640B601512D8
:1048A30048C3640C600E1248C3640D600779041298
:1048B3001ECC800990032612375A12223102388304
:1048C3008A828B83A3A31248CD22123FFAE022747B
:1048D300F61204E674FA120A07EAFEEBFF740312F7
:1048E3000BC9EEF0A3EFF07403120BC9AA82AB83DA
:1048F3001221181272216003024A34851882851925
:10490300837432F07405120BC9C082C0838E828F08
:1049130083A3A3A3A3E0D083D082F8E028C0E074EC
:1049230001120BC9D0E0124A82C0E07402120BC913
:10493300D0E0124A67F8A3E0F9E8496026E82417B3
:10494300F582E9122A26C082C083E82416F582E99B
:10495300127227D083D082F8E028F87401120BC9B1
:10496300E028F0851882851983AA82AB83120E0A88
:104973008A088B09A808A909E8497003024A278E07
:10498300828F83125D9E88828983A3A3EAF0A3EBBF
:10499300124A6DA3A3E0C0E0E82420F582E9122ABD
:1049A30026D0E012658CC0E0E82421F582E9122AC2
:1049B30026D0E0124A7CC0E0E8242AF582E9122AD4
:1049C30026D0E0F07405120BC9E0FA124A391272CC
:1049D300272A12546AE8242B124CCE7405120BC9F1
:1049E300E0C0E0E8242DF582E9122A26D0E0124A3D
:1049F30067FAA3E0FBEA4B6019E8242BFAE9122AD1
:104A0300E9A3A3A3A3A3A3A3A3E02416124A4012DA
:104A13004A4F8E828F83A3A3A3A3A3A3A3A3E8F0E8
:104A2300A3E9800CEEFAEFFB12211E122A20741068
:104A3300F074060238E6E8240BF582E922124A44B0
:104A430022FCA3E03400FD8C828D8322E0FC8A8269
:104A53008B83E02CFCA3E03400FD8A828B83ECF093
:104A6300A3EDF022125163A3E022F0E8126846E9B5
:104A7300124EDE74011250C62212515AA3E02212C2
:104A83004B17E02274F71204E6EAFEEBFF127221E1
:104A9300701E124ABD124D0D600612375312223199
:104AA300127221700B125D92120E04122A20E9F089
:104AB300EEFAEFFB12211E0243F112212A8E828F9E
:104AC30083A3A3A3A3A3A3A3A3A3A32274F6120460
:104AD300E6EAFEEBFF8C088D09121B5AE970047994
:104AE300018011AC08AD09EEFAEFFB9003241237F5
:104AF3005A1222310238E912472BE8F0A3E9F022D7
:104B030012657DE0222401F8A3E03400F922124B60
:104B130017A3E022124B1B22124B1F221250CAA3CF
:104B2300A3A3A3A322124B2DE022E8F0A3E9124B87
:104B330035221250CAA3A322126CAD121EE4221214
:104B43004C8FEEFAEFFB22E0242B124010E02212EE
:104B5300389D124B5922E08E828F83A322124F3449
:104B6300A3A3A3A32274F61204E674F3120A071292
:104B73004C57124CB5120BC9740CF07405120BC9C7
:104B8300740112563660097402120BC9742180072E
:104B93007402120BC97401124411120BC9E0703272
:104BA3007408120BC9124BFF7406124A7C124C7321
:104BB300EE2402F8EF124682124BEA12641A124BE9
:104BC300EAA3124B11C0E0124BE1122A26D0E012E5
:104BD3006585740C120BC9E0F9740D0238E6E5081B
:104BE300240BF582E50922124BF5A3A3A3A3A3A3E8
:104BF300A322E0850882850983A3A322124C9D8802
:104C03000889098882F5832274F71204E674F31283
:104C13000A07124C57124CB5120BC97409F07402EF
:104C2300120BC97421F07405120BC912440F120B35
:104C3300C9E0701D7408120BC9124C957407124C0D
:104C4300AE124C73851882851983AA82AB83121620
:104C5300560243E5EAFEEBFF7C087D0079008518E8
:104C630082851983AA82AB8312174C8E828F83228B
:104C7300FCA3E0FD88828983A3AA82AB83121EE48E
:104C830022F582EF3400F583124C8F22E0FCA3E07F
:104C9300FD22124C9D8882898322124B4AF8A3E09D
:104CA300F9221250C51254642274011250C6A3A3F0
:104CB300E022124AFA74042212174C8508828509ED
:104CC30083A322E0F508A3E0F50922F582E9124E59
:104CD300DEEAF0A3EBF022124CDE22124B35125027
:104CE300BF22C082C083124CF574EEF0A37420027D
:104CF3003882122136900326228E828F83A3A3A3A8
:104D0300A3A3A3A3A3A3A312581D12425A49227417
:104D1300F71204E6E9FE124D3F122A26124D0D60EA
:104D23001888828983A3E05403700EEEFB124A397C
:104D3300122A26124D70124D6A0243F1EA125D45A2
:104D4300EB22C082C083EAF8EBF988828983A3A3AC
:104D5300A3A3A3E0FB88828983A3A3A3A3124D701B
:104D6300A3124D6A023883E0F912167422E0FA881E
:104D7300828983A3A32274E81204E68A088B098C30
:104D8300168D178914741A120BC9E0F50AA3E0F5FE
:104D93000B741C120BC9E0F513741D120BC9780CAC
:104DA300120B6C1263CAEB127227242DFA7B0012CA
:104DB300175E8A108B11AE10AF11EE4F7003024EC7
:104DC300BB8E828F837401F08508108509117512DB
:104DD30000781012095C7C157D00EE2418124EC574
:104DE300120973851610851711781012095C7C0956
:104DF3007D00EE2402124EC51209737418120BC9FA
:104E0300124737850A82850B83E0C0E0EE240F1238
:104E13002A23D0E0124EFBC0E0EE2411122A23D045
:104E2300E0124EF6C0E0EE2410122A23D0E0123B2B
:104E3300B8E513124F20E4F0A3F0124ED4780C120D
:104E43000B8AEE2417122A23E5141238ABF8A3E0D9
:104E5300F9EE240D122A23124F1A126A291272270D
:104E63006025EE2426125448242DF8124F1212689E
:104E73006312440312095C126A271248108A828B58
:104E830083124EED120973EE241912722454036037
:104E93001D90031C124D0D600CEEFAEFFB12375DF3
:104EA3001222318013EEFAEFFB121764800AEEFA36
:104EB300EFFB9003011250AE026A787C087D00EE8E
:104EC3002404FAEF124ECB223400FB121740740372
:104ED30022EE2413124EDB22F582EF124EE222342D
:104EE30000F58322E0242B123D9D125464121740D7
:104EF300740322124F09E022124F00E022124F04E2
:104F030022124F09A322F0850A82850B83A322EF85
:104F13003400F98A828B83124AFDE50822F0EE24DD
:104F230026124EDB22F50CA3E0F50D750E00780C6E
:104F3300221238A5A3A3A32274F11204E68A088BD4
:104F4300097A20125041606F8E828F83740612504B
:104F53005D8E828F83A3A3A3A31238978E828F8340
:104F6300124FC7124F2812095C7C107D00EE2406F5
:104F7300124EC5120973850882850983A3A3A31260
:104F83004FBD2416FAEF3400FB120D3285088285DB
:104F93000983A3A3A3A3A3A3A3A3A3A3E0C0E0EEB6
:104FA300241E122A23D0E0124FD7C0E0EE241F1292
:104FB3002A23D0E0124FDF026CCCA3A3A3A3A31236
:104FC3004C8FEE22A3A3A3A3A3124FD0221238A186
:104FD300A3A3E022F0124BE112581322F0EEFAEFF2
:104FE300FB900527E0F912176A22124EDB124FF4E9
:104FF30022E8F0A3E9124FFC22F085088285098399
:105003002212500822123DBCF8A3E0F98E828F834E
:10501300A3A32274F41204E68A088B097A0C1250B3
:105023004160188E828F83740812505D12505112A2
:10503300095C124EBE1209731250A7022AF67B00B6
:1050430012175E8A0A8B0BAE0AAF0BEE4F22F508DE
:10505300A3E0F509750A00780822125008124FF4EC
:10506300A3A3E022A3A3124CC6750A0078082274F6
:10507300F61204E6EAFEEBFF7A057B0012175EEAFE
:105083004B601E8A828B83740A1250B48A828B838C
:10509300A3A3124B288A828B83A3A3A3A3F012504A
:1050A300AB0238E9EEFAEFFB900527E0F912176A35
:1050B300221250B8221250CA1250BF22E0F8A3E0C5
:1050C300F922A31250CA22F08E828F8322C082C09B
:1050D30083E9900F6FF090031874FAF0A3740BF048
:1050E30090031A740CF0A3740CF090031C741EF05C
:1050F300A3740C02388274F71204E6EAFEEBFF890C
:1051030008EE4F7003121BEA90032A124D0D70082C
:1051130090032A8022125FB988828983A3A3A3A361
:10512300A3A3A3A3A312515088828983A3A3A3A3F8
:10513300A3A3A3A3A370DEEEF0A3EF12515FE4F0E9
:10514300A3125156A3A3A3E508F00243F11254643A
:10515300EA4B2212515A22124B35A32212516322D7
:1051630012563FA3A32274F71204E690032A800D7C
:105173008E828F83A3A3A3A3A3A3A3A3A31266F1E6
:10518300EE4F60348E828F83A3A3A3A3A3A3A3E0D4
:105193006970DD8E828F83A3A3A3A3E06A7003A348
:1051A300E06B70CC8E828F83A3A3A3A3A3A3E06C35
:1051B30070BEEEFAEFFB80047A007B000243F174C9
:1051C300F71204E690032A1266F190032A1231794A
:1051D300687002EB697017125228125FB990032AA4
:1051E30012474390032A1266F180301266E4EE4FB1
:1051F30060298E828F83A3A3A3A3A3123175687042
:1052030002EB6970E68A828B83A3A3A3A3A3A3A360
:10521300A3A3125235A3A3A31247431217E8EEFA2E
:10522300EFFB0243F1123FFBA3A3A3A3A3A3A3A3F7
:10523300A32212547FA3A32274F01204E674FA1279
:105243000A078A088B098A828B83A3A3A3A3A3A338
:10525300A3A3E0600D640160098A828B8312545C0E
:1052630060057902025443850882850983A3A3A3B9
:10527300A3A3A3A3A3E0640370157404120BC9AC26
:1052830082AD83AA08AB091221A2E9701380D385EA
:105293000882850983125FB97404120BC91247434C
:1052A30012684B127227243212546A1217E28A0AC6
:1052B3008B0BAE0AAF0BEE4F70030254417C327D71
:1052C30000790012174C7402120BC9AA82AB8385B2
:1052D3000882850983A3A3A3A3A3A3A3A3A3E0F99C
:1052E3001216B67402120BC9E0C0E0EE242D122A86
:1052F30023D0E0F0EE242CF50AEF3400F50B740311
:10530300120BC9E0850A82850B83F07901EEFAEF6F
:10531300FB120BE885080C85090D750E00780C123D
:10532300095C7C1C7D00EE240B124EC5120973EE42
:10533300243012544824320808124F122411F8E57D
:105343000912721CFCE9FD8C828D83124241242ECA
:10535300122A23124F1A1257E1126A3012095C8C77
:10536300828D83124C8B8A828B83124EED120973CA
:105373007404120BC912547B124743900302125454
:1053830071F0900302E004125824242A125D52752E
:105393000D00850A82850B83E0780C120AA98A82A4
:1053A3008B83E50CF0EE2429122A23E50C12657990
:1053B300E4F0E5082415F582E5091254567401500A
:1053C30007120BC974018004120BC9E4F0EE242701
:1053D300123FBD851882851983AA82AB8312169E5C
:1053E300E924FE850882850983F0F508750900EE36
:1053F300242E124C84ECF8EDF9AA08AB0912039D94
:10540300E88E828F83A3A3A3A3A3A3A3A3F0ECF8A3
:10541300EDF9AA08AB0912039D8B09EA4509600F50
:105423008E828F83A3A3A3A3A3A3A3A3E004F0EE7D
:1054330024201272244408125DC979008002791075
:105443007406023BC712721AFAE9FBEE22EE241528
:10545300F582EF125813A2E0221254641211E8E904
:1054630022E0FAA3E0FB22FAA3E03400FB22124B72
:1054730059A3A3A3A3A3A32212547F221250BF8E26
:10548300828F83A3A3A3A32274F41204E6EAFEEBA0
:10549300FF125D4A124CD4900FBCE0F8EE242B129D
:1054A3007224C3984003025600125D6A7015EE24FD
:1054B3002B1272240412562EC0E0EE2429122A2342
:1054C300D0E0F0EE2428127224FC7900800109EE6A
:1054D300242C123302E9C39850267508017509007C
:1054E300E97808120AA9125D6A550860E1E92CFC03
:1054F300750801750900E97808120AA9E04508F062
:10550300EE242712561BEE242E122A23EC8A088A35
:10551300F0A4F8ABF0E42BF9E098F8A3E099F9C311
:10552300E89508E99400EE40392427123302125D0E
:105533006A6037EE242D122A23125628A3E4F0ECD6
:105543007054EE24201272244420124546C0E0EE2B
:105553002426122A23D0E0F0EE243012561BA3E0B7
:1055630080592429122A2374FFF090035CE0FA90F7
:105573000FBFE0F508EA8508F0A4ABF075F064A46A
:10558300FAADF075F064EBA42DFB8E828F83A3A399
:10559300EAF0A3EB80A8EE242012722454DF124F0A
:1055A30020ECF08C08EE24271272248508F0A4FA6C
:1055B300ABF0EE2430F582EF125612FBEE241EF50B
:1055C30082EF12560E125636C0E0EE2425122A231D
:1055D300D0E0F0EE241C122A23E812581890032C72
:1055E300124D0D600BECF912375D122231E9701880
:1055F300EE240BFAEF3400FB1221CC800B7BE9EE97
:105603002422F582EF1257EB022AF6126564221266
:1056130058132AFAA3E03B2212561F22F582EF12F7
:105623004EE2E0FA22124B59A3F022F0EE242A12A2
:1056330058102212563BE02212563F22124B1FA350
:10564300A32274F41204E690032A1266F112188A54
:105653008A0A8B0B7CFF7DFF8020E0C398FAA3E0CE
:1056630099FBC3EA9CEB9D500E8E828F83A3A3E02C
:10567300C398FCA3E099FD1266E4EE4F6059125FF4
:10568300B5E50AC398F8E50B99F98E828F83125D0D
:105693009CC3E89AE99B8E828F83A3A340BCA3A3F8
:1056A300A3A3E06402701DEE240B125D6D600CEE8B
:1056B3002410122A23125D9E121764EEFAEFFB12D6
:1056C3000BF48007EEFAEFFB120C007A017B0090DB
:1056D3000F6F123B3F801474FF6C700374FF6D6097
:1056E3000A7A017B00900F6F123350022AF674F08E
:1056F3001204E68A088B09ECFAEDFB890A7C011295
:10570300684B125D5C8A0C8B0DAE0CAF0DEE4F70C7
:10571300030257DEE50A60030257DEE5081257E18C
:10572300E0F8EE24281272246860030257DEEE24A8
:105733002C12561BE82AF8E43400F98E828F83A3D7
:10574300A3A3A3A3A3A3A3E0FAE89AE99400C365E0
:10575300D0334014125A7B125D70700C7B001268B8
:1057630044E5091257EB8073125A7B125D70703156
:10577300EE242C127224F9EE2429122A237508FF31
:10578300750900E97808120AA9E508F0EE242A123F
:105793002A23E50812580829F0EE242B123B348003
:1057A30022E5082414F8E5093400F9E0C0E0EE240A
:1057B3002A122A23D0E0125803C0E0EE2429122A29
:1057C30023D0E0125824242D122A23123EAFA31211
:1057D30058187A01FB900F6F123B3F023BCA241308
:1057E300F582E509124EDE22125622EE2414124EE1
:1057F300DB124D6AEEFAEFFB120BF422EAF0A3EB95
:1058030012469AE022F0EE242812581022F582EF75
:10581300124EE2E022F0A3E4F022E0240F12400C47
:1058230022F012188A8E828F83EAF0A3EBF0EE2225
:1058330074E81204E674FD120A07E98518828519D3
:1058430083F08A0A8B0B8C168D17741B120BC912EB
:105853005A73741D120BC9780C120B6C8A828B83DA
:10586300A3A3E0F91216928A128B13EA4513700769
:105873007A007B00025A6E7A127B001217E28A08C2
:105883008B09AE08AF09EE4F7003025A6A7C127D92
:1058930000790012174C7401120BC9AA82AB8385DD
:1058A3000A82850B83A3A3E0F91216B6EE240FF543
:1058B30008EF126A077402120BC9E0850882850992
:1058C30083F07902EEFAEFFB120BE8851682851757
:1058D3008312547BE8F0A3E9125AB38E828F83A319
:1058E300A3A3A3A3A3A3F07514FF751500850882D2
:1058F300850983E07814120AA9122A20E514F08599
:105903001282851383A3E0F81248C9C0E0EE240B8A
:10591300122A23D0E0125ABDF508EE240D122A23D1
:10592300E508F0125D75E08508F0A42424FAE5F09B
:105933003400FB12175E8A088B09EE1263CBEF1259
:105943004CD1EA45097003025A5F8A828B83741A29
:105953001258188A828B83A3A3F0A3125AA7125A50
:1059630090124743AC16AD17EA2406FAEB3400FB5A
:105973001221BA850A82850B83A3A3A3E0C0E0E5C5
:1059830008240FF582E509122A26D0E0F090037966
:10599300125FB9E5082410125A84125ACAA3125F7F
:1059A300B9E5082412125A84124EFBC0E0125A7B46
:1059B300122A26D0E0F0E50A125D45E50B127227A4
:1059C300C0E0E5082415F582E509122A26D0E01285
:1059D3005A9EC0E0E5082416F582E509122A26D06E
:1059E300E0127633E0C0E0E5082417F582E50912FA
:1059F3002A26D0E0127633A3E0C0E0E5082418F5A8
:105A030082E509122A26D0E0124B03C0E0E5082400
:105A130019F582E509122A26D0E0F0E508241AF5E3
:105A230082E509122A26780C120B8AE5082424F849
:105A3300E5093400F9E5082422F582E50912474017
:105A4300E50A126846E50B127227C0E0E508241F39
:105A5300F582E509122A26D0E0F0800BEEFAEFFB7F
:105A6300120BF47E007F00EEFAEFFB7403026A75FB
:105A7300E0F510A3E0F51122E5082414F582E50909
:105A830022F582E509124EDEE8F0A3E922E0F8A34D
:105A9300E0F98A828B83A3A3A3A322F085108285D6
:105AA3001183E022125AAB22124F04A3A3A3A32211
:105AB300F0126853E50B12581322F0E50A2410F58F
:105AC30082E50B12581322125AABA3A3A32274E844
:105AD3001204E68A0A8B0B8C108D11891474181228
:105AE3000BC9E0F516A3E0F517741A120BC9780C6D
:105AF300120B6C750900EA2413F582EB127227F579
:105B03000890032C124D0D6011A90890032C123735
:105B13005A122231E96003025D427C0285108285BC
:105B23001183125D9E126853E50B125D5C8A128B22
:105B330013AE12AF13EE4F704B850A82850B83A30E
