:020000040000FA
:06000000020B2002026366
:03002B0002096B5C
:030053000201891E
:03006B0002028509
:03007B000202E39B
:100083000201F00101FF01010503010F10FEFF66EC
:10009300156615661566151C1416146615232500BA
:1000A300000000FD23000000000C0000000C000114
:1000B300FFFF0101010027050000009E05B80102B2
:1000C30002008810060502070401051E02051E0230
:1000D3000A0A03B80B02803E010201FFFF010A0175
:1000E3001401E096511800020206FF010100EF50CF
:1000F3000F4C100006FF102016201C2022200000A9
:1001030000000000000000000000000000000000EC
:1001130000000000102016201C20282000000000F2
:1001230000000000000000000000000000000000CC
:100133000000102016201C202E20000000000000CC
:1001430000000000000000000000000000000000AC
:1001530010202020202020202020202020202020AC
:10016300200110040100010005758001DC801104E9
:100173000100010005758001DC801204010001000B
:1001830005758001DC80C0E074F1120518A2AFE4AC
:1001930033FED2AFE5A7FFE5A1F5085FF5097410BB
:1001A30055096006121C6E75A1EF740855096008A5
:1001B300121C7475A1F7802BEFA2E0C0D0E508A252
:1001C300E092F0120A5A158182F05017906198E07C
:1001D300F8900668E0C398A2D265D0335002E8F0E5
:1001E30075A1FEEEA2E092AF7F02020577C0E07434
:1001F300F2120518A2AFE433FED2AF9061A4E0F887
:10020300759B00E59158540860087591F7121CB668
:10021300802AE59158541060087591EF121CBC8038
:100223001BE8A2E0C0D0E591A2E092F0120A5A15B1
:100233008182F05007E0C2E0F0121E009061A3E05B
:10024300F8E5E9585404600E121DD675E9FB906178
:1002530093E0A2E640F2EEA2E092AF7F01020577BF
:10026300C0E074F2120518A2AFE433FED2AF90617E
:10027300A5E0F8E5BF585404600675BFFB121E12D3
:1002830080D4C0E074F2120518A2AFE433FED2AFFB
:10029300900F4EE4F0E589A2E0500653ABFE7401E3
:1002A300F0E589A2E1500753ABFDE0D2E1F0E58927
:1002B300A2E75014E0701153AB7F900F4FE4F07C32
:1002C30064FDFA7B08120319900F4EE060031203DA
:1002D30011758900C2C5EEA2E092AF7F01020577D6
:1002E300C0E074F2120518A2AFE433FED2AFE58A80
:1002F300A2E0500A538DFE900F4EE0D2E2F0900F31
:100303004EE06003120311758A00C2EB80C87C645F
:100313007D007A107B00900F50E0F912183022C351
:10032300E498F8E499F91203638026C3E49AFAE4A3
:100333009BFBE920E7E9120363E498F8E499F922C7
:10034300C3E498F8E499F9120363E498F8E499F99B
:10035300C3E49AFAE49BFB22EB20E7CFE920E7E032
:10036300B90010BB0008E88AF084F8AAF022E4FB85
:10037300C8FA22EB70227B10C833C8C933C9335083
:1003830007C39AC3DBF280069A50012ADBEAC8331B
:10039300F4C8C933F4C9FA2275F008E4C833C8C9EC
:1003A30033C933C99AC99B5004C92AC93BD5F0EC58
:1003B300FBC833F4C8E4C9FA22080808EAC0E0EB32
:1003C300C0E086F0E7A4FA180986F0E7A42AFA1831
:1003D3000986F0E7A42AFA180986F0E7A42AFA198D
:1003E30086F0E7A4FBE5F02AFA190886F0E7A42BC8
:1003F300FBE5F03AFA190886F0E7A42BFBE5F03A9F
:10040300FA18180986F0E7A4C5F02BFBE43AFA19A9
:1004130008E7C5F0C6A426F6E5F03BFBE43AFA1874
:1004230086F0E7A4F6E5F00826F6E43B08F6E43A9E
:1004330008F6D0E0FBD0E0FA22E4CFC0E0E4CEC07F
:10044300E0E4CDC0E0E4CCC0E075F020C3E633F6D1
:1004530008E633F608E633F608E633F6181818EC20
:1004630033FCED33FDEE33FEEF33FFC3EC9709EDC1
:100473009709EE9709EF97191919400FFFEC97FCAD
:1004830009ED97FD09EE97FE191906D5F0BEECF7B5
:1004930009EDF709EEF709EFF7191919D0E0FCD0C8
:1004A300E0FDD0E0FED0E0FF222518C582C0E0E5E4
:1004B3001934FFC583C0E0E518C3958224F810AF53
:1004C300088583198582188008858319858218D247
:1004D300AFCEF0A3E520F0A37808E608F0A3DEFA98
:1004E300EFF0A3E58124FAF8E608F0A3E608F0A309
:1004F300E608F0A30808E608F0A3E608F0A31581D0
:100503001581D0E0FED0E0F8158115811581E8C092
:10051300E0EEC0E022C0D02518C582C0E0E5193462
:10052300FFC583C0E0E518C3958224F310AF0885A7
:1005330083198582188008858319858218D2AFC8EC
:10054300F0A3E9F0A3EAF0A3EBF0A37908E709F03D
:10055300A3D8FAECF0A3EDF0A3EEF0A3EFF0A3D051
:10056300E0F0A3D0E0F0A3D0E0F0A3E520F0A3E512
:10057300F0F0A322851983851882E0C0E0A3E0F997
:10058300A3E0FAA3E0FBA37808E0F608A3DFFAE010
:10059300FCA3E0FDA3E0FEA3E0FFA3E0C0E0A3E033
:1005A300C0E0A3E0F5D0A3E0F520A3E0A3F5F010AD
:1005B300AF08858319858218800885831985821879
:1005C300D2AFD082D083D0E0F8D0E032120B82B920
:1005D3000003020611E4900301786D790D8002F0A7
:1005E300A3D8FCD9FA900F6DAA82AB8390008678CA
:1005F3000479028015E493A3AC82AD838A828B8352
:10060300F0A3AA82AB838C828D83D8E9D9E7758264
:10061300AB7583B974041208E3758202758322747F
:10062300001208E30375F0108E1A8F1B85821F8555
:10063300831E851882851983E0CEA3E0CF851F82B0
:10064300851E83EBC9EAC8EDCBECCAC3E833C8E91E
:1006530033C9EA33CAEB33CBC3EA9EF51DEB9FF5EF
:100663001CB35004AB1CAA1DEC33CCED33CDD5F039
:10067300DAAE1AAF1B22D083D082ECC0E0EDC0E02B
:10068300E493A3FCE493A3FDED4C600D120751EC3E
:1006930024FFFCED34FFFD80EFE493A3FCE493A37C
:1006A300FDED4C600D1207EEEC24FFFCED34FFFD75
:1006B30080EFD0E0FDD0E0FCE493A3C0E0E493C07E
:1006C300E022851983851882E0A3FEE0A3F5207854
:1006D30008E0A3F608DFFAE0A3FFE0A3C0E0E0A38D
:1006E300C0E0E0A3C0E0E0A3C0E0E0A3C0E010AF3F
:1006F300088582188583198008858218858319D215
:10070300AFD083D0820208E9D083D082E9C0E0E48D
:1007130093A3C386F0C5F095F0F908E493A386F09C
:10072300C5F095F0700BE493A3C3994005E90480E9
:1007330002A3E475F002A42582F582E5F03583F582
:1007430083D0E0F9E493A3C0E0E493C0E022C0E0E7
:10075300C3E49396087401939618400FE49366706C
:100763000808740193661870007019A3A3C3E49377
:1007730096087401939618A3A3400DD0E0D0E0D05F
:10078300E00206B5A3A3A3A3A3A3D0E0227404802D
:100793000474028000CCC0E0EDC0E0E518C39CCC3B
:1007A300AD1950011D10AF068C188D1980068C18D9
:1007B3008D19D2AF120865D0E0FDD0E0FC2274029F
:1007C3008000CCC0E0EDC0E0E518C39CCCAD19506F
:1007D300011D10AF068C188D1980068C188D19D247
:1007E300AF120843D0E0FDD0E0FC22C0E0C0F088A7
:1007F300F0E4936670080874019366187000A8F01B
:10080300A3A3700BD0F0D0E0D0E0D0E00206B5A3F4
:10081300A3D0F0D0E022D083D082CCC0E0E493A375
:1008230060061208C41470FAE493A360061209B5B3
:100833001470FAD0E0FCE493A3C0E0E493C0E02298
:10084300CAC0E0E493A3C582CCC582C583CDC5836A
:10085300F0A3C582CCC582C583CDC583DAE5D0E0DC
:10086300CA22CAC0E0E0A3C582CCC582C583CDC578
:1008730083F0A3C582CCC582C583CDC583DAE6D018
:10088300E0CA22C008C3E096F50808A3E096420830
:1008930008A3E096420808A3E09645087001D3D068
:1008A30008227009080808226016181818C6C333EE
:1008B300C608C633C608C633C608C633C6D5E0EA7B
:1008C30022C0E0E493A3D39C5010E493A3C39C40C1
:1008D3000AD0E0D0E0D0E0020836A3A3A3D0E02200
:1008E300C09FF59FE473D09F22D083D082C09FE442
:1008F30093C0E0740193C0E0740293F59F2225181E
:10090300F58210AF08F518400215198008F5184054
:10091300021519D2AF851983227404800A740380E7
:1009230006740280027401C0E0F404120901D0E0ED
:10093300120B5D22C0D0251810AF08F51850020520
:10094300198008F51850020519D2AFD0D022BB0187
:1009530002E722C082C08389828A83BB0003E080CE
:1009630002E493D083D08222C0E0C0D0E8C0E0E5A7
:10097300A8D2AFC2C7A2E792AFD0E0F8D0D0D0E000
:10098300326016080808C6C313C618C613C618C6AD
:1009930013C618C613C6D5E0EA22C3E0C696F60806
:1009A300A3E0C696F608A3E0C696F608A3E0C696AB
:1009B300F622C0E0E493A36C7009D0E0D0E0D0E06D
:1009C300020836A3A3D0E022251810AF08F518407B
:1009D3000215198008F51840021519D2AF22E766EF
:1009E30070100809E766700A0809E76670040809C9
:1009F300E76622C3E09608A3E09608A3E09608A35F
:100A0300E096A2D265D03322E066701008A3E066B8
:100A1300700A08A3E066700408A3E06622C3E096A8
:100A2300F008A3E096F008A3E096F008A3E096F0A0
:100A330022E026F608A3E036F608A3E036F608A37C
:100A4300E036F622E627F60809E637F60809E63720
:100A5300F60809E637F622C0E0E8C0E0E58124FCA9
:100A6300F8E6A2E7D0E0F8D0E022700422600D1887
:100A7300C6C333C608C633C6D5E0F41822E657F614
:100A83000809E657F60809E657F60809E657F62275
:100A9300E056F608A3E056F608A3E056F608A3E0EE
:100AA30056F622E056F008A3E056F008A3E056F00D
:100AB30008A3E056F022E647F60809E647F60809D8
:100AC300E647F60809E647F622E026F008A3E036F3
:100AD300F008A3E036F008A3E036F022E4C396F66C
:100AE30008E496F608E496F608E496F622C6F4C6F9
:100AF30008C6F4C608C6F4C608C6F4C622C3E796F9
:100B03000809E7960809E7960809E79622C3E096DD
:100B130008A3E09608A3E09608A3E0962275D00008
:100B2300758140751801751903000205CFE0F608B9
:100B3300A3E0F608A3E0F608A3E0F622600C08C6DB
:100B4300C313C618C613C6D5E0F422E6F008A3E61D
:100B5300F008A3E6F008A3E6F022CAC0E0E6F0A39B
:100B630008DAFAD0E0FA22E0FAA3E0FBA3E0FCA360
:100B7300E0FD22EAF0A3EBF0A3ECF0A3EDF022E515
:100B8300C754F84401F5C77901222518F582E435E5
:100B930019F58322C2AF75D69F020000221208EC1A
:100BA300EA4F001208EC4850001208EC7150001292
:100BB30008ECE150001208EC3A51001208ECB35172
:100BC300001208EC0354001208ECBD55001208ECA7
:100BD3006956001208ECAB57001208EC495A001290
:100BE30008EC4F5D001208EC5C5D001208ECEA5D56
:100BF300001208EC9C5E001208ECE45E001208ECA4
:100C0300445F001208EC605F001208EC945F00126E
:100C130008ECC95F001208ECB260001208EC6761CF
:100C2300001208ECBC63001208EC0965001208EC22
:100C3300AC65001208EC3966001208EC6F6600120E
:100C430008EC2167001208ECF367001208ECAE69A8
:100C5300001208EC026A001208EC366A001208EC73
:100C6300B16A001208EC8B6B001208EC496C00129D
:100C730008EC8E6C001208ECA66C001208EC3D6DBB
:100C8300001208ECAE6F001208ECC371001208ECFE
:100C9300E171001208ECFF71001208ECD972001226
:100CA30008ECF775001208EC0080021208EC35809E
:100CB300021208EC5B80021208EC9580021208EC29
:100CC300A780021208ECF980021208EC5A81021282
:100CD30008ECE481021208EC8882021208ECD0824C
:100CE300021208EC0A83021208EC2783021208ECB2
:100CF3004C83021208EC9E83021208ECB7830212A3
:100D030008ECDD83021208ECFC83021208EC378442
:100D1300021208EC7B84021208ECA284021208EC93
:100D2300F384021208ECA385021208EC5B8602121C
:100D330008EC2387021208ECE387021208EC2788E9
:100D4300021208EC4C88021208EC8F88021208EC9D
:100D5300DC88021208EC348A021208ECBA8A021206
:100D630008ECD88A021208EC028B021208EC1C8BE6
:100D7300021208EC2B8B021208EC368B021208ECE1
:100D8300F68B021208EC4F8C021208EC118D021242
:100D930008EC198D021208EC918D021208ECE08D1B
:100DA300021208EC268E021208EC678E021208EC7F
:100DB300F78F021208ECAF90021208EC1B9102129B
:100DC30008EC4692021208EC5792021208ECCD92FC
:100DD300021208EC5F93021208ECB793021208ECBC
:100DE3007794021208EC9E94021208ECBC9402124F
:100DF30008ECCE94021208EC2195021208EC5E95E1
:100E0300021208EC6B95021208ECEE96021208EC43
:100E13004398021208EC5C98021208EC98990212AB
:100E230008EC339A021208EC6C9A021208ECB89A96
:100E3300021208ECD49B021208EC1D9E021208EC6D
:100E4300289E021208EC339E021208EC3D9E021209
:100E530008EC489E021208EC629E021208EC6C9E9B
:100E6300021208EC769E021208EC819E021208EC34
:100E7300A99E021208EC049F021208EC289F02129A
:100E830008EC4C9F021208ECAA9F021208ECEE9F9A
:100E9300021208EC0AA0021208EC81A0021208EC6C
:100EA300B9A0021208EC05A1021208EC62A1021219
:100EB30008EC1CA2021208EC00A4021208EC59A4CC
:100EC300021208EC89A5021208ECAFA5021208EC85
:100ED30038A7021208ECB4AA021208EC86AC02127C
:100EE30008EC4FAE021208ECFCAE021208EC67B03D
:100EF300021208EC06B1021208EC53B1021208EC1C
:100F0300BDB1021208ECCCB1021208EC53B40212C8
:100F130008EC05B6021208EC72B6021208EC51B7DF
:100F2300021208EC6AB8021208ECE7B9021208ECE4
:100F330006BA021208EC5BBA021208EC60BB02129A
:100F430008EC88BB021208ECE0BB021208ECBFBC41
:100F5300021208EC03BD021208EC4EBD021208ECAB
:100F6300B9BD021208ECFABE021208EC5EBF02120F
:100F730008ECACC0021208EC0CC3021208EC3DC32F
:100F8300021208ECF5C4021208EC4AC5021208EC7E
:100F93004EC6021208ECEBC6021208EC44C702125A
:100FA30008ECF7C7021208EC99C8021208EC39C919
:100FB300021208ECDEC9021208ECE280011208EC0E
:100FC3002181011208EC6883011208ECB28301123B
:100FD30008ECCD84011208EC3D85011208EC728502
:100FE300011208ECE686011208EC6989011208EC8B
:100FF300928A011208EC288B011208EC309401123A
:1010030008ECC594011208ECAC97011208EC9F9808
:10101300011208EC0099011208EC1C9A011208EC69
:10102300019C011208EC129E011208EC7C9E011235
:1010330008EC4E9F011208EC05A0011208EC0FA06A
:10104300011208EC3DA0011208ECFAA0011208EC11
:10105300D1A1011208EC98A2011208EC4AA30112D3
:1010630008EC73A3011208EC95A3011208ECEBA59D
:10107300011208ECC3A6011208EC07A7011208EC41
:101083006FA7011208EC27A8011208EC59A8011256
:1010930008EC9DA8011208ECD3A8011208EC1FA9C3
:1010A300011208EC74A9011208EC79A9011208ECE9
:1010B300CCA9011208ECF1A9011208EC00AB011252
:1010C30008EC64AB011208ECD4AB011208EC60AC81
:1010D300011208EC2DAF011208EC11B0011208EC5B
:1010E30094B1011208ECCAB3011208EC78B40112EE
:1010F30008EC28B5011208EC69B7011208EC0CB82A
:10110300011208EC53B8011208ECFFB9011208EC04
:1011130013BA011208EC1DBA011208EC45BA011208
:1011230008EC51BA011208EC70BA011208EC55BC74
:10113300011208EC8CBC011208EC96BC011208ECFD
:10114300A0BC011208ECFBBC011208EC45BD011266
:1011530008EC4DBE011208ECA4BE011208ECF3BF6B
:10116300011208EC37C0011208ECDFC0011208ECD1
:10117300C2C1011208EC6DC2011208ECB9C301121D
:1011830008ECB7C4011208EC5DC5011208ECEDC50B
:10119300011208EC04C6011208EC3BC6011208EC6C
:1011A30045C6011208EC50C6011208EC6EC60112C6
:1011B30008ECB2C6011208EC0FC7011208EC34C7E1
:1011C300011208EC4EC7011208ECDAC7011208EC51
:1011D300F7C8011208EC64C9011208EC4BCA0112EA
:1011E30008EC72CA011208ECE6CA011208EC61CBE2
:1011F300011208EC65CC011208EC5BCD011208EC7E
:101203000ACE011208EC1DCF011208ECB9CF01126E
:1012130008EC46D0011208EC24D1011208EC5CD191
:10122300011208ECB4D1011208EC7DD2011208ECD2
:101233009ED2011208EC25D3011208EC49D3011206
:1012430008EC6BD3011208ECB4D3011208ECCAD535
:10125300011208ECB1D6011208EC62D7011208ECB6
:1012630098D9011208ECE8D9011208EC28DA011226
:1012730008EC6ADA011208ECC6DA011208ECF4DAB7
:10128300011208EC18DB011208EC6BDB011208EC0D
:1012930099DB011208ECD2DB011208EC27DC011206
:1012A30008EC8DDC011208ECE1DD011208EC04E02E
:1012B300011208EC71E0011208EC9AE0011208EC4B
:1012C30025E1011208EC8CE1011208ECD7E10112CF
:1012D30008ECFBE1011208EC1FE2011208EC7AE2D0
:1012E300011208EC95E2011208EC4EE3011208EC3E
:1012F30088E3011208EC2E8B041208EC668B0412AF
:1013030008EC878B041208ECC98B041208EC2F8CB1
:10131300041208EC398C041208EC498C041208EC12
:101323007E8C041208ECC78F041208EC719104122E
:1013330008EC7193041208ECA2CA021208ECE8CA82
:10134300021208ECC8CB021208ECCACC021208EC59
:10135300CDCD021208EC59CF021208ECB7CF02121E
:1013630008EC74D0021208EC92D1021208EC03D2FA
:10137300021208EC3FD2021208EC8DD2021208ECE2
:1013830097D2021208ECDBD2021208EC37D3021216
:1013930008ECD2D3021208EC4FD4021208EC1ED58B
:1013A300021208ECB7D5021208ECD7D5021208ECEA
:1013B3000DD6021208EC3ED6021208ECFFD602123A
:1013C30008EC0FD7021208EC63D7021208EC7ED7A1
:1013D300021208EC90D7021208EC99D7021208EC1B
:1013E300F3D7021208EC4FD8021208EC9BD8021272
:1013F30008ECB6D8021208ECE7D8021208EC04D9BC
:10140300021208EC10D9021208EC84DA021208EC7A
:101413009DDA021208EC04DB021208EC17DB02125D
:1014230008EC25DB021208ECD9DB021208ECBDDC68
:10143300021208ECC3DD021208EC4DDE021208ECC6
:1014430057DE021208ECC4DE021208ECDBDE0212E5
:1014530008EC0DDF021208EC46DF021208EC70DF25
:10146300021208ECD1DF021208ECF1DF021208ECE1
:101473000FE0021208EC55E0021208EC7BE10212C5
:1014830008ECC8E1021208ECF7E1021208EC6DE285
:10149300021208EC95E2021208ECCEE2021208EC0A
:1014A300DCE2021208EC34E3021208EC83E30212DA
:1014B30008ECC2E3021208ECF2E3021208EC1EE4A9
:1014C300021208EC29E4021208EC47E4021208ECC9
:1014D30009E5021208EC13E5021208EC4EE50212CC
:1014E30008EC64E5021208ECB9E5021208ECCDE55C
:1014F300021208ECDBE6021208ECEEE6021208EC3C
:1015030003E7021208ECA5E7021208EC28E802122E
:1015130008ECE6E8021208ECF1E8021208EC1DEA16
:10152300021208EC39EA021208EC8BEA021208EC08
:10153300CAEA021208ECDFEA021208EC41EB0212DB
:1015430008ECD0EB021208EC1BEC021208EC6CEE78
:10155300021208ECEAEE021208EC5FEF021208EC4A
:1015630081F1021208EC99F1021208EC9CF10212CB
:1015730008ECA8F1021208ECBCF1021208ECC4F169
:10158300021208ECF7F1021208ECA7F2021208ECBF
:101593001DF3021208EC90F3021208EC44F4021259
:1015A30008ECF9F4021208EC18F5021208ECB8F58D
:1015B300021208ECC4F5021208ECEFF5021208EC73
:1015C300F2F5021208EC5CF6021208EC84F7021240
:1015D30008EC5CF8021208ECE7F8021208EC00FAD7
:1015E300021208ECBDFA021208ECF6FA021208EC39
:1015F30027FB021208ECE5FB021208EC15FC0212B1
:1016030008ECF0FC021208EC89FD021208EC14FE4F
:10161300021208ECC5FE021208EC48FF021208ECA5
:101623007AFF021208ECFF49001208EC157600124B
:1016330008EC7A76001208ECB776001208EC06770D
:10164300001208ECF078001208ECD77A001208ECCC
:10165300107E001208EC367E001208EC4E7E00125B
:1016630008ECB77E001208ECF37E001208EC207F32
:10167300001208EC527F001208ECB07F001208EC55
:101683008E4F001208EC7E80041208ECB080041226
:1016930008EC0881041208EC8282041208EC9E8292
:1016A300041208ECD982041208EC6083041208ECDB
:1016B300B083041208EC7D84041208EC81850412C3
:1016C30008ECD585041208EC5086041208ECB186A8
:1016D300041208ECF286041208EC9D87041208EC4D
:1016E300BB88041208ECF188041208EC3C8904124C
:1016F30008EC8389041208EC0D8A041208ECB28A00
:10170300041208ECA89B041208ECEE9B041208ECEC
:10171300589C041208EC799C041208EC199D0412DD
:1017230008EC239D041208EC709D041208EC959DAF
:10173300041208ECF59D041208EC8B9E041208ECCD
:10174300C39E041208EC1C9F041208EC789F041239
:1017530008ECA69F041208EC2EA0041208EC73A058
:10176300041208ECB2A0041208ECF7A0041208EC6F
:1017730009A1041208EC1BA1041208EC3AA10412FB
:1017830008EC43A1041208ECF5A1041208EC35A2FD
:10179300041208EC28DE041208EC2AD5041208EC23
:1017A30060D5041208ECA9D5041208ECF6D604128D
:1017B30008ECE3A9031208EC5CAB031208EC1DADC3
:1017C300031208EC59AD031208ECE0B0031208EC65
:1017D30026B1031208EC3BB3031208EC0DB4031259
:1017E30008ECB9B4031208EC64B6031208ECAEB803
:1017F300031208ECCABB031208ECD8BB031208ECB3
:10180300B3BC031208ECC6C0031208EC36E10412A1
:1018130008ECC5E2041208ECDBE2041208ECA5C4F0
:10182300041208ECB8C4041208EC56C5041208EC00
:1018330098C5041208ECBDC5041208EC02C60412D4
:1018430008EC3BC6041208EC6CC6041208ECDFC7B4
:10185300041208ECFBDE041208EC31DF041208EC7E
:101863004DDF041208EC8FDF041208EC9FDF041233
:1018730008EC59C1031208ECABC1031208EC1AC2FD
:10188300031208EC11C3031208EC95C3031208EC0E
:101893005CC4031208EC71C4031208ECBBC403124A
:1018A30008EC0AC5031208EC5CC5031208EC6FC50B
:1018B300031208ECBBC5031208ECB6C7031208EC0D
:1018C30038C8031208EC62C8031208ECABC8031251
:1018D30008EC73CA031208ECEECA031208EC7BCBC4
:1018E300031208EC8ECB031208ECDDCB031208ECD9
:1018F300F3CB031208EC0ACC031208EC39CC031225
:1019030008EC5ACC031208EC33CD031208EC96CD45
:10191300031208ECE2CD031208ECE5CE031208EC47
:1019230053D1031208EC6DD1031208ECF2D1031268
:1019330008EC62D2031208EC85D2031208ECBFD282
:10194300031208EC2DD3031208ECE3D3031208ECC3
:1019530008D4031208EC12D4031208EC22D40312A5
:1019630008ECA5D4031208ECC0D4031208ECE2D4AB
:10197300031208EC0ED5031208EC49D5031208EC48
:1019830058D5031208EC99D5031208EC86E104122A
:1019930008EC9EE1041208EC2394041208EC729400
:1019A300041208EC2496041208ECD997041208ECEC
:1019B3002198041208EC1D99041208EC749A04127D
:1019C30008EC969A041208ECF29A041208EC749B41
:1019D300041208ECBED5031208ECE9D5031208EC97
:1019E300CCD6031208EC4ED7031208ECB8D7031277
:1019F30008EC04D8031208EC72D8031208ECFDD8E3
:101A0300031208EC8BD9031208ECBED9031208ECBD
:101A1300B2DE031208EC57E0031208EC13E10312E1
:101A230008EC50E1031208EC9CE3031208EC10E409
:101A3300031208EC0FE5031208ECE8E5031208ECC7
:101A430062E6031208EC1CE7031208ECDBE703125F
:101A530008EC47E8031208ECEEE8031208EC4BE944
:101A6300031208EC08EC031208ECC8EC031208ECB0
:101A73002DED031208ECD7EE031208EC94EF0312DA
:101A830008ECF3F0031208EC1AF2031208ECB5F2B7
:101A9300031208ECB0F3031208ECD2E3011208ECD2
:101AA3005AE4011208ECCDE4011208EC21E501121D
:101AB30008EC5CE5011208ECE9E5011208EC05E726
:101AC300011208EC57E7011208ECB5E7011208EC24
:101AD300F8E7011208EC6DE8011208ECB7E801120F
:101AE30008EC36EA011208EC09EB011208EC5FEB93
:101AF300011208EC55EC011208EC02ED011208EC9E
:101B03002DED011208EC4CED011208EC5CED011215
:101B130008EC62EE011208EC26EF011208EC07F163
:101B2300011208EC6DF1011208EC84F1011208ECCA
:101B3300DAF2011208EC57F3011208ECC6F30112B2
:101B430008EC4FF4011208EC93F4011208EC5AF676
:101B5300011208EC32F7011208EC6EF8011208ECDE
:101B630027F9011208EC58FA011208EC87FA01125E
:101B730008EC61FB011208EC30FC011208EC89FC53
:101B8300011208ECA1FC011208ECA1FD011208EC02
:101B93002FFE011208ECDBD2041208EC9AD30412D4
:101BA30008EC53D4041208ECB9D4041208EC27BA95
:101BB300041208EC90BB041208ECE5E2041208ECF2
:101BC30037DD041208EC45DD041208EC19E30412B6
:101BD30008ECCAE0041208ECDAE0041208ECE6E0D0
:101BE300041208EC33E1041208EC39DC041208ECAB
:101BF300BADC041208EC1EDD041208ECF5FF011236
:101C030008ECF8FF011208ECFDFF011208ECD8FF05
:101C1300031208EC1DB1041208EC72B1041208ECB3
:101C230046B3041208EC78B3041208EC9FB3041211
:101C330008ECB3B3041208ECCCB3041208ECFBB405
:101C4300041208EC77FE031208EC9BFE031208EC67
:101C5300B4FE031208ECE7FE031208EC18FF0312AC
:101C630008EC46FF031208ECA8FF031208ECB7FFC9
:101C7300031208ECC1FF031208ECCEFF031208ECB9
:101C8300A9CD041208ECE6CD041208ECF5CD04123C
:101C930008EC14CE041208EC7CCE041208EC85CEBA
:101CA300041208ECE4CE041208EC08CF041208EC8A
:101CB300FBCF041208EC08D0041208EC19D004126C
:101CC30008EC5CE2041208EC79E2041208EC60AC64
:101CD300041208ECA6AC041208ECFDAD041208ECE7
:101CE3000AAE041208EC1DAE041208EC3CAE04125A
:101CF30008EC52AE041208EC66AE041208ECDBAE3C
:101D0300041208EC40AF041208ECF0AF041208EC24
:101D1300C5B0041208ECD5B0041208ECE4B0041208
:101D230008ECB0DF041208ECD5DF041208ECFEDF88
:101D3300041208EC26E0041208EC5DD7041208EC48
:101D430084D7041208EC00D8041208EC47D004121C
:101D530008EC60D0041208EC6CD0041208EC80D0BC
:101D6300041208EC9ED0041208ECA8D0041208EC6C
:101D7300B2D0041208ECC5D0041208EC24D104122A
:101D830008EC5BD1041208EC89D1041208ECD7D11A
:101D9300041208EC24D2041208EC3FD2041208EC1B
:101DA30049D2041208EC91D2041208EC4BE004125D
:101DB30008EC67E0041208ECFFE2041208ECEBF411
:101DC300031208EC15F5031208EC31F5031208ECC5
:101DD30044F5031208EC83F5031208EC04F603122E
:101DE30008EC41FA031208EC6BFB031208EC9EFBB0
:101DF300031208ECEBFB031208EC49FD031208EC99
:101E030071FD031208EC94FD031208ECD8FD0312D4
:101E130008EC39FE031208EC49FE031208EC06DB5A
:101E2300041208EC21DB041208EC4ADB041208EC70
:101E330064DB041208EC89DB041208ECA8DB04124F
:101E430008ECC0DB041208ECEEDB041208EC08DC3F
:101E5300041208ECD4E1041208EC07C1041208ECE4
:101E63000EC1041208EC43C2041208EC72C204123D
:101E730008ECE0C2041208EC73C3041208ECACC310
:101E8300041208ECF5C3041208EC25C4041208EC90
:101E930045C4041208EC6ED9041208EC86D9041266
:101EA30008ECA3DA041208ECA6DA041208ECE0FE4C
:101EB300011208EC3FFF011208EC95FF011208EC38
:101EC300D6FF011208EC0080031208EC1B800312FA
:101ED30008EC9080031208EC1681031208ECA98128
:101EE300031208ECC581031208EC6F84031208EC9B
:101EF3001E87031208ECBC88031208EC078A03123E
:101F030008ECBC8E031208ECB88F031208EC2E9079
:101F1300031208ECFA90031208EC9E91031208ECEA
:101F23000193031208ECA193031208ECEB93031241
:101F330008EC5D94031208EC0295031208ECCF95AC
:101F4300031208EC3596031208EC3A97031208ECD7
:101F5300F797031208EC9498031208ECEB9A031218
:101F630008EC7F9B031208ECFB9B031208EC879E93
:101F7300031208EC829F031208ECB19F031208ECD2
:101F830070A1031208EC44A3031208EC3AA4031251
:101F930008EC23A9031208ECECC7041208EC11C8DF
:101FA300041208ECB9C8041208EC81C9041208EC45
:101FB30053CA041208ECC7CA041208EC68BD041221
:101FC30008EC29BE041208EC98BE041208ECBDBE4E
:101FD300041208EC78BF041208EC18E2041208ECAF
:101FE300E9CA041208EC2ECB041208EC6DCB0412E0
:101FF30008EC1ECC041208ECD6CC041208ECEFCC8F
:10200300041208EC5EA2041208EC07A3041208EC05
:102013000AA5041208EC0DA5041208EC49A5041244
:1020230008EC4CA5041208EC57A5041208EC62A5B1
:10203300041208EC73A5041208EC02A6041208ECBF
:1020430018A7041208ECD7B5041208ECFDB5041266
:1020530008EC48B6041208EC64B6041208EC95B612
:10206300041208ECA5B6041208ECB2B6041208EC8C
:10207300BFB6041208ECA2B7041208ECE0B70412CE
:1020830008ECEAB7041208EC09B9041208EC14B915
:10209300041208EC26B9041208EC2FB9041208EC58
:1020A30039B9041208ECA2A7041208EC52AC0412CA
:1020B30008EC98E2041208EC4A48001208ECCA47FC
:1020C300001208EC9047001208ECD046001208EC0E
:1020D3004646001208EC1846001208ECC4440012ED
:1020E30008EC2D44001208EC9043001208EC1B434B
:1020F300001208ECE942001208EC2642001208EC38
:102103005140001208ECE23F001208ECB43F001209
:1021130008ECB13F001208EC383E001208EC393DE0
:10212300001208EC033C001208EC473B001208ECD9
:10213300BD3A001208ECC339001208ECB34E00128A
:1021430008ECF14C001208ECBD4C001208EC8A4C70
:10215300001208EC5D4C001208EC1F39001208EC69
:102163006638001208EC2938001208EC834B001281
:1021730008EC6F37001208EC3937001208ECE03630
:10218300001208EC9636001208ECE04A001208EC44
:102193000080041208EC3736001208EC06360012F1
:1021A30008ECCE32001208EC8E32001208EC8232B8
:1021B300001208ECE231001208EC2231001208ECA4
:1021C3009B2E001208EC2C2C001208ECEA2B0012B8
:1021D30008ECBE2A001208EC732A001208ECAF299F
:1021E300001208ECF228001208ECC228001208ECD6
:1021F300474A001208EC8828001208ECBBFF0200D3
:10220300000080FBE4738F000100C90F8700010009
:10221300C70F240002001606250002001806260038
:1022230002001A0627000200A70F28000100A90FC9
:1022330029000100AA0F84000400AB0F86000100EF
:10224300AF0F2A000100B00F2B000100B10F2C00CB
:102253000100B50F2D0008001E062E000100B60F69
:102263002F000100B70F30000100B80F310001004B
:10227300B90F32000100260633000100270634009F
:102283000100BA0F36000100280638000100BB0F19
:1022930039000100B40F83000200C50F6300010081
:1022A300320664000100B20F65000100B30F6D0038
:1022B3000100C40F6E0002001C0643000100BC0FA6
:1022C30044000200BD0F45000100BF0F460002009D
:1022D300C00F470008002A0648000100C20F4B0048
:1022E3000100C30F04000100C80FA1000100CC0FBF
:1022F30037000100CB0F88000100CA0F3C0001002A
:10230300290600000000000000013636010100012B
:102313000201000103010001040106060502000099
:10232300070100340801000F090401010D0100FF3A
:102333000E08000017020000190100FF1A01000136
:102343001B0100FE1C0100081D0200001F0100010B
:1023530020010001210200002301000F24020000DC
:102363002601000127010008280200FF2A010007B7
:102373002B0102402C0100002D0100012E01000160
:102383002F0100FF30010B1C310800003A01000847
:102393003B01000F2F010000010171010101010147
:1023A30011010101310101010101800110016101EC
:1023B3003B001400630173017201620143010001D8
:1023C300130106013D013500040112010001000162
:1023D3000001000104010401330133013C01440104
:1023E3003201360000010001650100013500810161
:1023F300000105018201830100010103710301034F
:102403000103010301030103220302030103100378
:10241300000300030003000300030003000342035F
:10242300000324030603000300030403120325032C
:10243300230325032303040304030003000300030E
:102443004403000300032303000365032100350352
:102453008103000305030003000300030302710269
:1024630030016002110270020102020202028002C4
:10247300100261023A0041006302730272026202B7
:102483004302000213023800000200020402120297
:1024930000020002000200020402040237003700B7
:1024A3003C024402000239000002000265020002FD
:1024B3003502810200020502820283020002030444
:1024C3007104020460041104700402040204010490
:1024D300020410046104000414046304730472040A
:1024E3006204430400041304060400040004040407
:1024F30012040004000400040004510464000004F6
:1025030000040004440400040004000400046504FF
:1025130000043504810464000504000483040004FA
:1025230003007100300160001100700031022003CC
:102533005004800010006100000014006300730069
:102543007200620043000000130006000000000058
:10255300040012000000000000000000040004005A
:10256300370037003C024400000000000000000078
:1025730065000000350081000000050000008300B5
:102583000000000003002001E080000000002001A3
:10259300E180000004004201648000000500420164
:1025A3005380000006004201428000000700200122
:1025B300DE800000100042033A10000011002003E7
:1025C3005E0F0000120010034B10030000002103F4
:1025D3005F0F060000002001620F000000000000F2
:1025E3000000000003002001E08000000000200143
:1025F300E180000004004201648000000500420104
:1026030053800000060042014280000007002001C1
:10261300DE800000100042033A1000001100200386
:102623005E0F0000120010034B1003000000210393
:102633005F0F060000002001630F00000000000090
:102643000000000003002001E080000000002001E2
:10265300E1800000040042016480000005004201A3
:102663005380000006004201428000000700200161
:10267300DE800000100042033A1000001100200326
:102683005E0F0000120010034B1003000000210333
:102693005F0F060000002001610F00000000000032
:1026A300000036000100060000000F0000000000DB
:1026B300000000000000000003FFFF00000403FF10
:1026C300FF0000FFFF0FF4010005C4040320000115
:1026D30000140B000000000000000003010F3E1F68
:1026E3007A1F441F921F4A1F801F4A1F8C1F501FAF
:1026F300921F4A1F801F561F921F5C1F921F621F4B
:10270300921F681F921F6E1F921F741F921F00005B
:1027130000000000000000005E1A1300221A0100EE
:102723005E1A0200EC190300F2190400F8190500FF
:10273300FE1906000A1AFFFF0000010210062C1002
:102743000826100B4410107E0F020810051A1007FC
:102753000E100CE40F0DF60FFF00007614A6147C88
:10276300148214A01494148E14AC14B214B814C4A8
:1027730014881470146A1400160F00000B150B0252
:102783000002220F320000067A62323031363039CD
:1027930032393130323633377969206875692079B7
:1027A300756E20736D6172740000000000000000FC
:1027B3008967452301EFCDAB661578157E15401467
:1027C30084153A144614140AE5D5C5B5A5A595850F
:1027D300857565C615E415EA15CC15D815D2157A95
:1027E300137413B013B613AA1362133030171819E6
:1027F30021301B1D1F30303016181920231A1C1EC0
:10280300300C0E020B040B0A0708000F0001191607
:102813001816161523030000034948424D181725BF
:10282300050200383C3E363B3B352B432CBA158A18
:102833001590159C1596159A14BE14DE15CA14D05E
:102843001402040201010101090286138C1380138F
:10285300BC139213A41300BE040A0C00FA0615005D
:102863000000000028000E000400FFEFE803C92762
:102873000809000A000CFF1E1E3008040510080F8B
:10288300090304010C74F71204ACE9FE122190EE63
:10289300900F6EF090030E74D8F0A37421F09003A0
:1028A3001074D2F0A37421F090031274CCF0A374CB
:1028B30021F090031474C6F0A37421F002436974E9
:1028C300F71204ACE9FE900302E4F0EE900301F08A
:1028D300900FC01236D91246BB7C2A7D067A057B3F
:1028E30003121EC0900FC2E090030DF002436974FF
:1028F300F41204AC8A088B09EB5480605B900301EB
:10290300125DBD604A8E828F83E064017032124E85
:102913004C120790EE241212719CF50A780A1209E0
:10292300281229A2120924EE240B12299B120794C0
:10293300EE2417125DCD12163E7409120937800872
:10294300E0640270031220BEEEFAEFFB121728AA0E
:1029530008E5096480FB803AEAA2E0501790031669
:10296300124C8560061236D5122207E5086401FA77
:10297300AB09801E5402600C900F6D7401F0EA6481
:1029830002FA800EEA54046005EA640480F37A00D4
:102993007B00022A6EEE240CF582EF124E5622EED5
:1029A300240FF50AEF3400F50B780A2274F41204AD
:1029B300AC8A088B098A828B83A3A3A3E024101219
:1029C3004375FA124FB97003022A5E8E828F8374A5
:1029D30002F0A3E4124F7CA3A3A3A3E8F0A3E9129C
:1029E3004ACAA3A3A3A3A3A3A3F0E5082403F8E57A
:1029F30009123F2224101241E18E828F83A3A3A3E5
:102A0300A3F0EE2409FA122A60124602F5838882A3
:102A1300E0A2E58E828F83A3A3A3A3A35004740132
:102A23008001E4F0E5082403F888828983125D16A7
:102A3300EA1267D4EB12299E124FE11209201263A6
:102A430042EB1247888E828F83A3A3124E6512092D
:102A530037EEFAEFFB900301125026800EEF34009D
:102A6300FB8E828F83A3A3221209377F040206C53C
:102A730074F21204AC8A088B09ECFAEDFB740E12A3
:102A83000B8DE0FC1216B08A0C8B0DAE0CAF0DEE65
:102A93004F6023AC08AD0912169EE96019AC08AD6E
:102AA30009EEFAEFFB1216A4E97007EEFAEFFB1238
:102AB30016987900800279B402373474EE1204ACAC
:102AC30074F71209CB8A0A8B0BECFEEDFF750FB37B
:102AD300750E00750C00750D00800CE50C2401F5D6
:102AE3000CE50D3400F50D90286BE493F874019315
:102AF300F9C3E50C98E50D994003022BDEAA0CAB54
:102B03000D1216FE8A088B09EA450960CE8A828B6C
:102B130083A3A3A3A3A3E0250EF50EF510C3E50A33
:102B23009510E50B940050B37C157D007900EEFA07
:102B3300EFFB124C33A3A3A3A3E50AC3950EF8E05E
:102B430028C333F8E433F9E50828F582E50939F5B4
:102B530083A3A3A3A3A3A31253F3A31244B1EAFC35
:102B6300EBFDEEFAEFFB123F3FA3E06401700A12A4
:102B73004E4C74011238158043851882851983AC35
:102B830082AD83850882850983125D141216E6E9F6
:102B9300602D7408120B8DE0C0E0124E4CD0E0F0B3
:102BA3007408120B8DE06403851882851983700CF9
:102BB300AC82AD83EE240B12380280031246AF853C
:102BC3000882850983123E27A3A3124F3FC0E0EE7C
:102BD300241412299BD0E0F0750F00A90F74091279
:102BE30009377F0A0206C574F71204ACE9FE8A822C
:102BF3008B83A3A3A3A3A3A3E0540860298A828B96
:102C030083A3A3A3A3A3A3E0540260178A828B83A5
:102C1300A3A3A3A3A3A3A3A3A3E06406600574E9EA
:102C23006E70031221BA02436974E81204AC74F79C
:102C33001209CB7407120B8D124C4CE9851882854F
:102C43001983F0ECFEEDFF7424120B8D780C120B3C
:102C5300307513008E828F83125D108E828F83A353
:102C6300A3A3E0F91216BC8A148B15EA4515700369
:102C7300022E35EE2410125593A914120E828A16D1
:102C83008B17EA45177003022E35EE2406F510EF75
:102C93003400F5117C00851082F583122E878E8215
:102CA3008F83A3A3A3122E7C125A16F8A3E0F985EF
:102CB3001682851783A3A3A3A3123917122E7CA30D
:102CC300A3A3A3125790851682851783A3A3A3A357
:102CD300A3A3F0EE1267D4EF1230F6120920EE121E
:102CE3006343EF124788851682851783A3A3A3A3A3
:102CF300A3A3A3A3A3124E65120937751000022DD7
:102D0300B5850A82850B83125D141216EC85088241
:102D1300850983A3EAF0A3EB124E78A3A3124B6DAC
:102D230012503DE0A2E6500F850882850983A3A3D4
:102D3300A3A3A3E0D2E1F0E51370638508828509BC
:102D430083A3125F3190036CE0687003A3E06970A2
:102D53004D850882850983A3A3A31255A0780C127D
:102D6300091C7427120B8DE0F50A780A12092874DE
:102D730026120B8D1207949003791207947900742D
:102D830010120B8D124ABA122142740912093785A7
:102D93000882850983A3A3A3A3A3E04405F07401D8
:102DA3002510FC8E828F83A3A3A3A3A3A3122E8734
:102DB3000510E50A450B6052851008C3E508951414
:102DC300E495155045E51075F006A4F8A9F0E5164D
:102DD30028F8E51739F9E8240CF508E9123CE6E48C
:102DE300124E6E64016003022D047513018508827F
:102DF3008509837401124E73F8A3E0F9850882856F
:102E03000983A3E8F0A3E9022D1BAA16AB17120E40
:102E13008878161209247425120B8DE0FC740212B3
:102E23000B8DE0F9EEFAEFFB1221C07402120937A1
:102E330080428E828F83A3A3A3E0C0E07404120BAD
:102E43008DD0E0123B30E0C0E07405120B8DD0E072
:102E5300F0E514451570097406120B8D74B98007DB
:102E63007406120B8D7410F07401120B8DAA82ABD1
:102E73008312214874090269EDE085168285178360
:102E8300A3A3A3221253DC8E828F83A3A3A3E0F90F
:102E93001216C28A0A8B0B2274E81204AC74F31262
:102EA30009CB8A0A8B0B89178C167425120B8D128A
:102EB30071B7AA0CFB120E76E9F514AA0CAB0D122E
:102EC3000E7CE9F515E51470030230E875130080F4
:102ED3000F8E828F83A3A3A3A3A3E0D2E3F00513F2
:102EE300E50C240BF582E50D12327DE513C3984002
:102EF300030230DFE51470030230DFE51375F006DB
:102F0300A4F8A9F0E50C28F8E50D39F9E8240CFE3E
:102F1300E9126F8BA3A3A3A3E0A2E040C1750E0047
:102F23008E828F83E07043125D15120D6E8A088BBB
:102F330009A808A909E849603188828983A3A3A362
:102F4300A3E06401600D88828983A3A3A3A3E06443
:102F53000370178E828F83A3A3A3A3A3E0D2E7F00A
:102F6300750E01E5157003022EE1750F0075080853
:102F7300750900E5166003750F20124BD3E060332B
:102F83009003BCE064017017E50FD2E3F50F7509F8
:102F9300108E828F8312469A1244A074FF802443BA
:102FA3000F0C75080C8E828F83A312310212698471
:102FB300A38010E5176009E50FD2E6F50F75080A3F
:102FC300123119F07402120B8DE50F125A35C0E05D
:102FD3007404120B8DD0E0F07405120B8D1243872D
:102FE300120B8DE060030230BA7408120B8D123D90
:102FF300278E828F83A3A3A3A3F07408120B8D12D1
:1030030035E2F583E508F0A3E5091249E5E060112F
:103013009003BCE0C0E07408120B8D1235DBD0E0E6
:10302300F0850C82850D83A3A3A3E0C0E07408128E
:103033000B8D1264C8D0E0126504C0E07408120B53
:103043008D1235EDD0E0F07408120B8D123102A30E
:10305300A31264CF125A1F125D14E82428F582E9E3
:10306300125586125A2BC0E0E8242EF582E9122964
:103073009ED0E0F07408120B8D125D16850A8285CE
:103083000B831230ED2424F582EB1246B81267D27B
:10309300E50B1230F6120920124780EA242BF58241
:1030A300EB12299E124E6512093785188285198302
:1030B300AA82AB831216268E828F83A3A3A3A3A314
:1030C300E0D2E0F0740C120B8DE06003022ED4E525
:1030D3000EA2E0500215151514022EE17900AA0C78
:1030E300AB0D1221B4740D0269EDA3A3A3A3125F68
:1030F30035EA22124E561259EB751200781022123D
:103103005F35850A82850B83A3A3A3A3228E828FB7
:1031130083A3A3A3A3A3A312469FE8F0A3E9227466
:10312300F21204AC74EB1209CBEAFEEBFF89088EB2
:10313300828F83A3A3A3A3A3A3A3A3E0F9120EA047
:103143008A0A8B0BEA450B607FE50870047C0480D8
:10315300027C088E828F83A3A3A3A3A3A3A3A3E0CC
:10316300F9120EA6122998124C85605C8882898315
:10317300125D127406120B8D1231D0125D16740893
:10318300120B8D1231D0A3A3E0C0E07410120B8D8B
:10319300D0E0125A42125D16740E120B8D124C4C73
:1031A3007411120B8DE412577BF9780A12092474F7
:1031B3002059FC744059F97402120B8DAA82AB8317
:1031C3001221C074021209377415023731EAF0A3D1
:1031D300EB1231D822124612A3A3A3A3A3A32274F2
:1031E300F71204AC74FA1209CBE9FE7F018F087D54
:1031F3000080047508000D12436E12327DEDC398F2
:103203005025ED75F006A4F8A9F0EA28F8EB39F992
:10321300E81267CDE91253CE50D9540C60D5E0A221
:10322300E250D37F0080CF8A828B83A3A3A3A3A37F
:10323300A3E0703EE508A2E0400574016E70338A96
:10324300828B83A3A3A3A3A3A37401126381E0C00E
:10325300E07403120B8DD0E0126379E0C0E07404D4
:10326300120B8DD0E0F07405120B8DEF124669122C
:1032730021487406024366F582EF12578BF822C089
:1032830082C08379011221B40237FBC082C083EA72
:103293004B60189003B8E064027010900F6DE4F077
:1032A300EAFCEBFD7A021232C38012900F6D7401B7
:1032B300F07A027B00900301E0F912183C0237FB1D
:1032C3007B00900301E0F91218302274F21204AC6F
:1032D30074F31209CBEAFEEBFF8E828F83A3A3A3C1
:1032E300A3A3A3A3A3A3A3E0F50A900F6DE0700526
:1032F30079BA0235D6750801750900750C00750D8C
:10330300007C087D007900851882851983AA82AB29
:10331300831217107405120B8D74011235FE5404B9
:1033230060127402120B8DE0D2E61235FE5408705F
:1033330003750803E05410600674404508F508E07F
:10334300540860227402120B8DE044C01235FE54FF
:1033530020600A7403120B8DE0D2E080087403121C
:103363000B8DE0D2E1F08E828F83A3A3A3A3A3A34B
:10337300A3A3E07018121110851882851983124CCB
:103383004C7402120B8DE0D2E2F0023435640F70FC
:10339300157402120B8DE0D2E312503E124C2D45F0
:1033A30008F5080234358E828F83A3A3A3A3A3A3B6
:1033B300A3A3E064028E828F83700512311A80C941
:1033C300A3A3A3A3A3A3A3A3E064037013851882F9
:1033D300851983AC82AD83EEFAEFFB12217880521C
:1033E3008E828F83A3A3A3A3A3A3A3A3E0640170EB
:1033F300419003BCE0601C7402120B8DE0D2E31217
:10340300502C8518828519831246BB750910750ADD
:10341300FF80187402120B8DE0440C1264F174FDEA
:10342300F0A374FFF074044508F5088E828F8312AD
:1034330071B71253C8503A7402120B8DE0540C70DA
:103443001B8E828F83125D16121B30E9700579BBC8
:103453000235D67402120B8DE0D2E5F01253C85038
:10346300107402120B8DE0540C64047004E0D2E576
:10347300F0EE241112719CC0E07404120B8DD0E0A5
:10348300124389120B8DE060030235CF7408120BCF
:103493008D1235E21235F4EE241812719CC0E0E867
:1034A3001267BEE912299ED0E0F0EE241912719C36
:1034B300C0E07408120B8DE02413123CEFD0E0122D
:1034C30044BE640170119003BCE0C0E07408120BA9
:1034D3008D1235DBD0E0F07408120B8D1241B92444
:1034E30017FAEF1241E8FCE8241CF582E912299E41
:1034F300ECF0A3E41250D7E0C0E0E82422F582E91F
:1035030012299ED0E0F07408120B8D1235EDE50AF6
:10351300F07408120B8D1241CE2424F582E9125C5B
:10352300DBA3E50D125D39FCA3E0FDE82426F5825B
:10353300E912299EECF0A3ED1239BB124C03E824E7
:1035430028F582E912299E125F39C0E0E8242FF59D
:1035530082E912299ED0E0F0EE241B12719CC0E098
:103563007408120B8D1264C1D0E0F0EE241A1271AC
:103573009CC0E07408120B8DE0242E123CEFD0E0C7
:103583001264E9124FC9120920EE2411124BFC7484
:103593000B120B8D124E5F120937EE241512719C1C
:1035A3005440601B900328124C8560138518828554
:1035B3001983AA82AB839003291236D51222078579
:1035C3001882851983AA82AB83121626740C120BF8
:1035D3008DE0F9740D023731E02415123D152212E6
:1035E30041D2240FF582E9340022E02423123D1551
:1035F30022F583E508F0A3E509F022F0EE24151285
:1036030057882274F71204AC7E638A828B83E0604E
:103613000C7905120C90E9F87456C398FE90036474
:10362300E0600CF9120C90E9F8EEC39824F2FEEE78
:10363300F902436974F61204AC74FE1209CB8518BF
:1036430082851983124C4CE9FEECFAEDFB740C12E3
:103653000B8DE0FC9004AE124C8560328518828598
:10366300198385820885830978081209247D01EE70
:10367300F99004AE1236D212220774021209378B64
:1036830009EA450960047900800679B2800279B6B7
:1036930002385C74F71204ACE9FE7409120B8DE076
:1036A300FF90030E124C85601AEFF5087808120993
:1036B30028EEF990030E1236D21222077401120972
:1036C30037800279B6024369EEFAEFFB900320E0FC
:1036D300F8A3123F7322125F359003032274F21290
:1036E30004AC8A088B09ECFEEDFF750A0190036CAC
:1036F300E065087004A3E065097005124AB3802AE7
:103703001211168A0C8B0DE508650C7004E509652A
:103713000D7009EEFAEFFB12111C800EEEFCEFFDAB
:10372300AA08AB09120D08E9F50AA90A80031209D0
:10373300377F060206C574F51204ACEAFEEBFF8C74
:10374300088D09750A01126C2112380B700B900356
:103753006C123FA11246BB800EAC08AD09EEFAEF26
:10376300FB120D0EE9F50AA90A0260AD74F6120404
:10377300ACEAFEEBFF7A0C7B001217A6EA4B606BF8
:10378300EE242012719C8A828B83F0EE242112375F
:10379300F1F0EE24221237F1A3F0EE24231237F1D5
:1037A300A3A3124E98125A08E8F0A3E91257801205
:1037B3005A09A3A3E8F0A3E91255A68A828B83A32F
:1037C300A3A3A3A3A3A3A3F0EE242F12719CC0E091
:1037D30012436E12299ED0E0124C528A828B83A32D
:1037E300A3A3A3A3A3A3A3A31246BB0238611257A7
:1037F300888A828B83A322F0D083D0820208E9FADD
:10380300EF3400FB121EC0221244A522123815A366
:10381300E0221238192212381D22124F74A3A32258
:10382300124AD8A3E02274F61204ACECFEEDFF7941
:10383300B3900363E07020900395E064017018EE89
:103843001267CDEF126F9FEE240F1246B5E8496061
:10385300047900800279A1800574021209377F027E
:103863000206C574F41204AC74FE1209CBECFEED2F
:10387300FFEE241612719C64057011EE2406FCEF12
:103883003400FD12217EE970030239108518828508
:103893001983AC82AD83126713123AA2124C85606E
:1038A30068E875F009A4F8AAF075F009E9A42AF903
:1038B30074ED28F874F339F9E8FAE9FBEE241212EF
:1038C300299BC082C0838A828B837808120B30D0F5
:1038D30083D0827808120B10402B851882851983B8
:1038E3001241B9240F12299B1239177808120B3091
:1038F3009080AC7808120A348A828B837808120B82
:103903004E7900800A79A2800679A1800279C87471
:1039130002022A6BE8F0A3E9123B342274F4120486
:10392300AC74FF1209CBEAFEEBFF900363E0707502
:10393300900395E06401706D75083A750900780885
:103943001209247402120B8D858208858309780875
:103953001209241239AD120937E9703EEE1267D409
:10396300EF123FAB124A7BC0E0EE241112299BD029
:10397300E01239BB743A125790900330120B6AEE7F
:10398300241212299B120B769080AC7808120B300C
:103993009003307808120ACC800BEE240FF582EFE7
:1039A300124357A3F07401022A6B7C017D007A0055
:1039B3007B001212F0740422F0EE240F124E5322F5
:1039C30074F01204AC74F61209CBECFEEDFF740232
:1039D300120B8DAC82AD8312217EE97003023A9DF6
:1039E300851882851983AC82AD837402120B8DAA6C
:1039F30082AB83123AA2124C857003023A9DE8759A
:103A0300F009A4F8AAF075F009E9A42AF974E928E1
:103A1300F874F339F988088909EE240E123AAC12C6
:103A23004A7BF8A3E0F9EE240F124F65120B6AEEFE
:103A3300241212299B120B769080AC780C120B3057
:103A4300850882850983780C120ACC85088285094A
:103A5300837808120B309080A8780C120B3078080A
:103A6300790C12043CE50C450D450E450F702B8572
:103A730018828519831241CE75F009A4F8AAF0754E
:103A8300F009E9A42AF974F128F58274F339F5836E
:103A93007401F07A007B10123AB4740A023B3F12AD
:103AA3001B3685188285198322F582EF124E56E460
:103AB30022900527E0F912175E2274F01204AC8AF3
:103AC300088B09ECFEEDFFEE240FF582EF1243574E
:103AD300A3123B30C082C0839080C0780C120B309D
:103AE300D083D082780C120A0B6032123B2470050B
:103AF300122166802AE07005122160802264027020
:103B030013122160E96018EEFCEFFDAA08AB09125D
:103B13001B5A800BE0640360DF79A1800279A380E4
:103B23001EEE240EF582EF12578B640122123B34F2
:103B330022F0EE2412F582EF124E5A221209377F39
:103B4300080206C574F61204ACEAFEEBFFEE240A83
:103B5300F508EF12697F850882124C01EC240F12DD
:103B63004354124C1D122136850882850983124C59
:103B730082706B123CF37003A3E069600A123CD5B8
:103B83007003A3E06970578E828F83A3A3A3A3A3BB
:103B9300A3A3A3A3A3124C038E828F83125D1612D9
:103BA3001B60E960188E828F83A3A3A3A3A3A3A39F
:103BB300A3A3A3E0240F123CEFE4F0A3F08E828FC3
:103BC300831264B98E828F83A3A3A3A3A3A3A3A306
:103BD300A3A37005123F9B8004123F79E4F0124CBB
:103BE30074701A123F26125D1612215A85088285B7
:103BF3000983124C82700612299874A1F00238616D
:103C030074F61204ACEAFEEBFFEE240A123F357A97
:103C1300187B001217A6850882850983123D2CF8AC
:103C2300A3E0F9E8497003023CCCEEFAEFFB122162
:103C33002A124C74607F123D1964017007123D0013
:103C4300740E8034E064027007123D00740D802806
:103C53008E828F83A3A3A3A3A3A3124C8570EA121E
:103C63003CF37003A3E06960E0123CD57003A3E06A
:103C73006960D6123D007405124C2654036401702A
:103C830007123F597405800B900364E0C0E0123FB4
:103C930059D0E0F0EE240AF508EF123CE6123F6734
:103CA300123E2CC0E0850882850983E02417123C6C
:103CB300EFD0E080198508828509831243148508B3
:103CC30082850983E4F0A380051229987410F00219
:103CD30038611211108A088B09A808A90990061CDB
:103CE300E0682212697F850882F58322123D15223E
:103CF3008E828F83125F3590061CE068228E828F3E
:103D030083A3A3A3A3A3A3A3A3A3A3E02416123D66
:103D13001522123F84228E828F83A3A3A3A3A3A37E
:103D2300A3A3A3A3123F7DE022EAF0A3EB123D3449
:103D330022124F74E02274F11204AC8A0A8B0B8CAA
:103D4300088D097A18125E8C7003023E1F8E828FD3
:103D5300837401F0E508240DF8E50912671CC3E438
:103D63009AFA95E0FB1267D912558AFB8E828F83EC
:103D7300A3A3A3A31257778E828F83A3A3F0EEFA94
:103D8300EFFB120C3C8508828509831264BB700922
:103D93008E828F83A374058006900364123E27F0FE
:103DA300EE2417F8EF3400F9880C890D8E828F8387
:103DB300123E2B850C82850D83F0EE2416F8EF342A
:103DC30000F9E508240EFAE5093400FB88828983AB
:103DD3001249C7E50824100A0AE5093400FB850CDB
:103DE30082850D83E0FC88828983E0F88A828B8355
:103DF300E0C398C39C1250CEF0EEFCEFFDAA0AABD1
:103E03000B122130E9F508700AEEFAEFFB120C48A9
:103E1300E9F508EEFAEFFB1217AC8003750810A959
:103E230008026C44124AD122A3E0F9120C90E92251
:103E330079010208E974F41204ACEAFEEBFF8E8206
:103E43008F83A3A3A3A3A3A3A3A3125D1A1264BB8B
:103E5300706B123D1970668E828F83A3A3A3A3A3F5
:103E6300A3A3A3E0242B123CEF123F93704F8E8247
:103E73008F83A3A3A3A3A3A3A3A3E0242BF88882E4
:103E83008983123F67E0F8740168600A740668600A
:103E93000574056870138E828F83A3A3A3A3A3A3C2
:103EA300A3A3A3A3123F9B80138E828F83A3A3A3F9
:103EB300A3A3A3A3A3A3A3123F797403F0123F26E2
:103EC3001236D2E4F0EE2408F8EF123F22242D122A
:103ED30041E1C0E0123F4DD0E012577B242A12414A
:103EE300E1C0E0123F4DA3D0E012577B240B123CFC
:103EF300EF123FA112403A1244B18A0A8B0BAC0A6B
:103F0300AD0B850882850983E024061253E2123F34
:103F13003F125D16120C48122998E9F0022A6E121C
:103F230045F522EE240A123F2D22123F358882F5F1
:103F33008322F8EF3400F98808890922123F4322CB
:103F4300121EC0850882850983228508828509831C
:103F530012403EA3A3228E828F83A3A3A3A3A3A372
:103F6300A3A3A3A3123F6B22E0F8123F72A322A3E1
:103F7300E0F583888222123F7D22E0240E123F84E3
:103F830022123F8822F8A3E03400F9888289832231
:103F9300E0F8124845640522123F7D740222125F45
:103FA3003585088285098322124E56740122023E0A
:103FB30033C082C08390031E7424F0A37421F09055
:103FC30003207418F0A37421F09003227412F0A359
:103FD3007421F0900324741EF0A374210237FA7441
:103FE300F41204ACEAFEEBFF124047F5081211107D
:103FF3008A0A8B0BA80AA90B8E828F8312403AE0A0
:10400300687003A3E069602CE508A2E550268E8260
:104013008F83A3E0FB90031E1236D21222078E82F7
:104023008F83E0F8A31251A0A3124C8570061240AF
:1040330047C2E5F0022A6E12403E22E0FAA3E0F501
:10404300838A82228E828F83123F6BA3E02274F5D0
:104053001204AC1241A71241CE2420F582E9127159
:104063009FFE74035EF50A1249B112299E1241B9EB
:1040730088828983F0A3A882A983E50A6009740270
:10408300650A6003024118740C5EFF601574086FC3
:10409300601074046F701D7402650A7005EEA2E46B
:1040A300402D8A828B83A3A3A3A3A3A3A3A3E0246A
:1040B30023124209740C6F70101241A2242412417E
:1040C300F124241241B412420C7402650A7005EE05
:1040D300A2E440411241A224261241F124261241B6
:1040E300BEA312421B1241BE12421B1241B4124222
:1040F3000CEF600F74086F600A740C6F6005740432
:104103006F70128A828B83A3A3A3A3A3A3A3A3E0A9
:1041130024221242098A828B83A3A3A3A3A3A3A36A
:10412300A31241D77005EEA2E150178A828B83A3B5
:10413300A3A3A3A3A3A3A3E0242E1249B81242026C
:10414300800E900302124202900302E00412461210
:10415300A3A882A983EEA2E750421241A22421120E
:1041630041BE12420C8C828D831241D7602E8A820B
:104173008B83A3A3A3A3A3A3A3A3E0243012420985
:10418300EEA2E150178A828B83A3A3A3A3A3A3A3C5
:10419300A3E024311241E188828983F00260AD12E9
:1041A30041A7E022EA2408FCEB3400FD8C828D83D6
:1041B300221249BCA322125F35EE221241C222F51C
:1041C30008A3E03400850882F583221241D222122B
:1041D3005037E822E024211249BCE0540322FAA319
:1041E300E01241E8223400FB8A828B83E0221241F1
:1041F300C2124202A3A882A9838C828D83E022E0AB
:1042030088828983F0221249BC12421022E08882FC
:104213008983F0A308A983221242108C828D83E044
:10422300242822C082C0838A828B8312404BF87475
:104233000358F98A828B83A3A37401F0E9600574A0
:1042430002697061740C58FC601474086C600F741C
:10425300046C70137402697005E8A2E4401D8A823D
:104263008B83A3A37402F0740C6C700A8A828B8311
:10427300A3A3E02402F07402697005E8A2E44025D8
:104283008A828B83A3A3E02404F0EC600F74086C90
:10429300600A740C6C600574046C70098A828B83E9
:1042A300A3A3E004F0E8A2E750318A828B83A3A39F
:1042B300E004125F3DF9A3E0F5838982A3A3A3E0A1
:1042C300540360178A828B83A3A3E004F0E8A2E17E
:1042D30050098A828B83A3A3E004F08A828B83A391
:1042E300A3E0040237FAC082C0838A828B83A3A32C
:1042F300A3A3A3A3A3A3A3A3124C8560098A828BC0
:1043030083A3A312430C0237FBA3A3A3A3A3A3A3D7
:10431300A31253DC1217AC2274F71204ACEAFEEBBF
:10432300FF125F2D88828983A3A3A3A3A3A3A3A3BF
:10433300E4F0A31231D8A3A3A3A3F0A3F0E8125C83
:10434300BDE91243571220FAEEFAEFFB1221068061
:1043530015F582ED124E56E4F022740C120B8DE02B
:10436300F9740D1209377F010206C5EA240BF582A1
:10437300EB22126635240922124E561271BB750EBA
:1043830000780C22740112466D1244272274F51230
:1043930004AC74F31209CBEAFEEBFF7C087D0079D1
:1043A30000851882851983AA82AB831217101231F4
:1043B300101249F4C0E07404120B8DD0E0F07402C3
:1043C300120B8D74011244BEC0E07405120B8DD024
:1043D300E01249FA640170097402120B8DE0D2E510
:1043E300F012441D120B8DE0702D8E828F83124FBD
:1043F300DF1209208E828F83A3A3A3A312478B749A
:104403000B120B8D124E5F120937851882851983A3
:10441300AA82AB831216260260A1851882851983AE
:10442300AA82AB831220B8740C2274F71204AC7402
:10443300FE1209CBECFEEDFF7508C88518828519BD
:1044430083AC82AD83122178E964017049851882B7
:104453008519831251AD1244A0A3A3E4F090063250
:10446300E0601B8E828F83A3A3123F9370108E8212
:104473008F83A3A3A3A3A3A3A3A37401800D8E82FD
:104483008F83A3A3A3A3A3A3A3A3E4F0EEFAEFFB59
:104493001220E8E9F508A9087402024366124AA546
:1044A300A322121EBAE9640122124F6CE022A3A3D5
:1044B300A3A3E8F0A3E9F012110A221255B3A3E073
:1044C3002274F61204AC74F41209CBEAFEEBFF1269
:1044D30031101245EBFAA3E0F5838A82A3E0FA7464
:1044E30002120B8DEA12577B2402124A82740412C1
:1044F3000B8D1246BBEA600A7402120B8DE0640452
:10450300701C1245DF1253E27406120B8D1245E53F
:10451300124A827408120B8DE8F0A3E98056E06416
:1045230001600AE064066005E0640570231245DF5C
:104533001241E1C0E07403120B8DD0E012577B24CB
:10454300131253E27406120B8D125777241B80C08B
:104553007406120B8DE4F0A31245EB24121253E2FE
:104563007408120B8D1245E5126631C0E0740A120D
:104573000B8DD0E0F07406120B8D124C85602874FD
:1045830006120B8D125D16120CFCE96401701812F1
:10459300110A8A088B09AC08AD097406120B8D1237
:1045A3005D1612380B700F851882851983AA82ABAA
:1045B3008312213C8021851882851983AA82AB83CB
:1045C300121B3CE96401700FEEFCEFFD7406120B45
:1045D3008D125D161220E2740C02385E1245F0242F
:1045E3001222124609241A22F01245F022EE240266
:1045F300F8EF1245FAE0223400F988828983221207
:104603004609F8A3E022EAF0A3EB124612E022F0F7
:104613008882898322C082C08374FC1209CB12462C
:10462300911246BB8A828B83A3A3E0124A80740251
:10463300120B8D124665121680740480001209371E
:104643000237FBC082C08374FD1209CB124679C0C6
:10465300E07402120B8DD0E0124669120BA07403B2
:1046630080DBE8F0A3E912466D22F08518828519F4
:1046730083AA82AB83228A828B83A3A3A3A3A3A34C
:10468300124A728A828B83A3A3123F6BE0228A822F
:104693008B83A3A3A3A3A3A312469F221246A32201
:1046A300E0F8A3E0F985188285198322125F35EEBD
:1046B300240BF582EF124E56124A7522AA82AB835F
:1046C300121704740322124A759003302274F412F1
:1046D30004AC74FB1209CBEAFEEBFF8E828F83A33B
:1046E300A31241CE2409F508E912697F7403120B62
:1046F3008DAC82AD8388828983A3AA82AB83122186
:1047030078E96401706A85188285198374321249C5
:10471300F424F7C0E07401120B8DD0E0F0740212A0
:104723000B8DE4124669120DCE8A0A8B0BAE0AAFCB
:104733000BEE4F603B7403120B8D124778A3A31249
:1047430044ACC0E0EE242012299BD0E0F0750A00AF
:104753007808120920EE126F86EF124788EE240BB9
:1047630012299B124E65120937EEFAEFFB120DC8A0
:104773007405022A6B125F358E828F8322E50A2429
:1047830010F582E50B124E56E0FC7D0022C082C07C
:10479300831247BC600E24FE600F24FE601024FBCE
:1047A300601180121220DC800D1220D680081220A6
:1047B300D080031220CA0237FB8A828B83A3A3E033
:1047C300F812484524FB22C082C0838A828B83A3CC
:1047D300A3A3A3A3A3A3A3E070528A828B83A3A35F
:1047E300E0F81248416401604312483B6402603CB4
:1047F30012483B6403603512483B6404602E8A828E
:104803008B83A3A3123F95602312483B640A601C69
:1048130012483B640B601512483B640C600E12484F
:104823003B640D60077904121EA8800990032612C9
:1048330036D21222070237FB8A828B83A3A3124844
:104843004522123F72E02274F61204AC74FA120984
:10485300CBEAFEEBFF7403120B8DEEF0A3EFF074C3
:1048630003120B8DAA82AB831220EE12719960039F
:104873000249AC8518828519837432F07405120BD2
:104883008DC082C0838E828F83A3A3A3A3E0D08332
:10489300D082F8E028C0E07401120B8DD0E01249F9
:1048A300FAC0E07402120B8DD0E01249DFF8A3E0E6
:1048B300F9E8496026E82417F582E912299EC082A7
:1048C300C083E82416F582E912719FD083D082F861
:1048D300E028F87401120B8DE028F0851882851901
:1048E30083AA82AB83120DCE8A088B09A808A90973
:1048F300E849700302499F8E828F83125D16888276
:104903008983A3A3EAF0A3EB1249E5A3A3E0C0E0E4
:10491300E82420F582E912299ED0E0126504C0E064
:10492300E82421F582E912299ED0E01249F4C0E07F
:10493300E8242AF582E912299ED0E0F07405120BCF
:104943008DE0FA1249B112719F2A1253E2E8242B27
:10495300124C467405120B8DE0C0E0E8242DF5825D
:10496300E912299ED0E01249DFFAA3E0FBEA4B608B
:1049730019E8242BFAE9122A61A3A3A3A3A3A3A3EF
:10498300A3E024161249B81249C78E828F83A3A3CA
:10499300A3A3A3A3A3A3E8F0A3E9800CEEFAEFFB80
:1049A3001220F41229987410F0740602385EE82479
:1049B3000BF582E9221249BC22FCA3E03400FD8CF2
:1049C300828D8322E0FC8A828B83E02CFCA3E0347B
:1049D30000FD8A828B83ECF0A3EDF0221250DBA35F
:1049E300E022F0E81267BEE9124E56740112503EFF
:1049F300221250D2A3E022124A8FE02274F712044B
:104A0300ACEAFEEBFF127199701E124A35124C8507
:104A130060061236CB122207127199700B125D0ACF
:104A2300120DC8122998E9F0EEFAEFFB1220F402F6
:104A330043691221008E828F83A3A3A3A3A3A3A3FD
:104A4300A3A3A32274F61204ACEAFEEBFF8C088D39
:104A530009121B30E9700479018011AC08AD09EE2D
:104A6300FAEFFB9003241236D212220702386112A6
:104A730046A3E8F0A3E9F0221264F5E0222401F84A
:104A8300A3E03400F922124A8FA3E022124A9322B0
:104A9300124A9722125042A3A3A3A3A322124AA508
:104AA300E022E8F0A3E9124AAD22125042A3A32266
:104AB300126C25121EC022124C07EEFAEFFB22E005
:104AC300242B123F88E022123815124AD122E08E9D
:104AD300828F83A322124EACA3A3A3A32274F61244
:104AE30004AC74F31209CB124BCF124C2D120B8D65
:104AF300740CF07405120B8D74011255AE600974B9
:104B030002120B8D742180077402120B8D74011233
:104B13004389120B8DE070327408120B8D124B77A0
:104B230074061249F4124BEBEE2402F8EF1245FA25
:104B3300124B62126392124B62A3124A89C0E012B3
:104B43004B5912299ED0E01264FD740C120B8DE0B8
:104B5300F9740D02385EE508240BF582E50922128B
:104B63004B6DA3A3A3A3A3A3A322E0850882850976
:104B730083A3A322124C15880889098882F583220E
:104B830074F71204AC74F31209CB124BCF124C2DF1
:104B9300120B8D7409F07402120B8D7421F07405DD
:104BA300120B8D124387120B8DE0701D7408120BCC
:104BB3008D124C0D7407124C26124BEB851882850F
:104BC3001983AA82AB8312162602435DEAFEEBFF2A
:104BD3007C087D007900851882851983AA82AB83BE
:104BE3001217108E828F8322FCA3E0FD88828983B3
:104BF300A3AA82AB83121EC022F582EF3400F58391
:104C0300124C0722E0FCA3E0FD22124C1588828996
:104C13008322124AC2F8A3E0F92212503D1253DC58
:104C230022740112503EA3A3E022124A727404229A
:104C3300121710850882850983A322E0F508A3E0F3
:104C4300F50922F582E9124E56EAF0A3EBF022129F
:104C53004C5622124AAD12503722C082C083124CE6
:104C63006D74C4F0A374200237FA12210C9003264A
:104C7300228E828F83A3A3A3A3A3A3A3A3A3A3127D
:104C830057951241D2492274F71204ACE9FE124C33
:104C9300B712299E124C85601888828983A3E05439
:104CA30003700EEEFB1249B112299E124CE8124C0E
:104CB300E2024369EA125CBDEB22C082C083EAF8D8
:104CC300EBF988828983A3A3A3A3A3E0FB8882894A
:104CD30083A3A3A3A3124CE8A3124CE20237FBE085
:104CE300F912163822E0FA88828983A3A32274E892
:104CF3001204AC8A088B098C168D178914741A1246
:104D03000B8DE0F50AA3E0F50B741C120B8DE0F597
:104D130013741D120B8D780C120B30126342EB12BD
:104D2300719F242DFA7B001217228A108B11AE106B
:104D3300AF11EE4F7003024E338E828F837401F0F6
:104D430085081085091175120078101209207C1549
:104D53007D00EE2418124E3D120937851610851773
:104D63001178101209207C097D00EE2402124E3DB9
:104D73001209377418120B8D1246AF850A82850B00
:104D830083E0C0E0EE240F12299BD0E0124E73C0E3
:104D9300E0EE241112299BD0E0124E6EC0E0EE2407
:104DA3001012299BD0E0123B30E513124E98E4F029
:104DB300A3F0124E4C780C120B4EEE241712299BC3
:104DC300E514123823F8A3E0F9EE240D12299B12FF
:104DD3004E921269A112719F6025EE24261253C0D0
:104DE300242DF8124E8A1267DB12437B120920121C
:104DF300699F1247888A828B83124E65120937EEA8
:104E0300241912719C5403601D90031C124C85607D
:104E13000CEEFAEFFB1236D51222078013EEFAEFEF
:104E2300FB121728800AEEFAEFFB900301125026BB
:104E33000269F07C087D00EE2404FAEF124E43224F
:104E43003400FB121704740322EE2413124E532270
:104E5300F582EF124E5A223400F58322E0242B12FE
:104E63003D151253DC121704740322124E81E02203
:104E7300124E78E022124E7C22124E81A322F0853C
:104E83000A82850B83A322EF3400F98A828B831273
:104E93004A75E50822F0EE2426124E5322F50CA3A0
:104EA300E0F50D750E00780C2212381DA3A3A32282
:104EB30074F11204AC8A088B097A20124FB9606F1F
:104EC3008E828F837406124FD58E828F83A3A3A302
:104ED300A312380F8E828F83124F3F124EA01209F6
:104EE300207C107D00EE2406124E3D120937850802
:104EF30082850983A3A3A3124F352416FAEF340046
:104F0300FB120CF6850882850983A3A3A3A3A3A39D
:104F1300A3A3A3A3E0C0E0EE241E12299BD0E012BA
:104F23004F4FC0E0EE241F12299BD0E0124F5702CF
:104F33006C44A3A3A3A3A3124C07EE22A3A3A3A38E
:104F4300A3124F4822123819A3A3E022F0124B599F
:104F530012578B22F0EEFAEFFB900527E0F91217B8
:104F63002E22124E53124F6C22E8F0A3E9124F7413
:104F730022F085088285098322124F8022123D3454
:104F8300F8A3E0F98E828F83A3A32274F41204ACF6
:104F93008A088B097A0C124FB960188E828F83743A
:104FA30008124FD5124FC9120920124E3612093773
:104FB30012501F022A6E7B001217228A0A8B0BAE35
:104FC3000AAF0BEE4F22F508A3E0F509750A007846
:104FD3000822124F80124F6CA3A3E022A3A3124C0A
:104FE3003E750A0078082274F61204ACEAFEEBFF61
:104FF3007A057B00121722EA4B601E8A828B837428
:105003000A12502C8A828B83A3A3124AA08A828B12
:1050130083A3A3A3A3F0125023023861EEFAEFFB9C
:10502300900527E0F912172E221250302212504217
:1050330012503722E0F8A3E0F922A312504222F0E3
:105043008E828F8322C082C083E9900F6FF090031A
:105053001874BEF0A3740BF090031A74D0F0A37409
:105063000BF090031C74E2F0A3740B0237FA74F78D
:105073001204ACEAFEEBFF8908EE4F7003121BC06B
:1050830090032A124C85700890032A8022125F3104
:1050930088828983A3A3A3A3A3A3A3A3A31250C812
:1050A30088828983A3A3A3A3A3A3A3A3A370DEEEF0
:1050B300F0A3EF1250D7E4F0A31250CEA3A3A3E5BD
:1050C30008F00243691253DCEA4B221250D2221237
:1050D3004AADA3221250DB221255B7A3A32274F7C1
:1050E3001204AC90032A800D8E828F83A3A3A3A303
:1050F300A3A3A3A3A3126669EE4F60348E828F83AA
:10510300A3A3A3A3A3A3A3E06970DD8E828F83A3CC
:10511300A3A3A3E06A7003A3E06B70CC8E828F839A
:10512300A3A3A3A3A3A3E06C70BEEEFAEFFB8004DA
:105133007A007B0002436974F71204AC90032A12CD
:10514300666990032A1230F1687002EB69701712D6
:1051530051A0125F3190032A1246BB90032A1266B4
:1051630069803012665CEE4F60298E828F83A3A321
:10517300A3A3A31230ED687002EB6970E68A828BF9
:1051830083A3A3A3A3A3A3A3A3A31251ADA3A3A3E5
:105193001246BB1217ACEEFAEFFB024369123F73E0
:1051A300A3A3A3A3A3A3A3A3A3221253F7A3A3225B
:1051B30074F01204AC74FA1209CB8A088B098A8240
:1051C3008B83A3A3A3A3A3A3A3A3E0600D640160A4
:1051D300098A828B831253D4600579020253BB85FB
:1051E3000882850983A3A3A3A3A3A3A3A3E06403C2
:1051F30070157404120B8DAC82AD83AA08AB09122F
:105203002178E9701380D3850882850983125F3181
:105213007404120B8D1246BB1267C312719F2432A2
:105223001253E21217A68A0A8B0BAE0AAF0BEE4F8C
:1052330070030253B97C327D007900121710740297
:10524300120B8DAA82AB83850882850983A3A3A34E
:10525300A3A3A3A3A3A3E0F912167A7402120B8DDE
:10526300E0C0E0EE242D12299BD0E0F0EE242CF5D3
:105273000AEF3400F50B7403120B8DE0850A828567
:105283000B83F07901EEFAEFFB120BAC85080C856A
:10529300090D750E00780C1209207C1C7D00EE248C
:1052A3000B124E3D120937EE24301253C02432083C
:1052B30008124E8A2411F8E509127194FCE9FD8C59
:1052C300828D831241B9242E12299B124E921257BA
:1052D300591269A81209208C828D83124C038A8289
:1052E3008B83124E651209377404120B8D1253F31C
:1052F3001246BB9003021253E9F0900302E004123A
:10530300579C242A125CCA750D00850A82850B837B
:10531300E0780C120A6D8A828B83E50CF0EE242967
:1053230012299BE50C1264F1E4F0E5082415F582DB
:10533300E5091253CE74015007120B8D74018004DA
:10534300120B8DE4F0EE2427123F35851882851960
:1053530083AA82AB83121662E924FE85088285093B
:1053630083F0F508750900EE242E124BFCECF8EDE2
:10537300F9AA08AB09120363E88E828F83A3A3A360
:10538300A3A3A3A3A3F0ECF8EDF9AA08AB091203B6
:10539300638B09EA4509600F8E828F83A3A3A3A3BE
:1053A300A3A3A3A3E004F0EE242012719C440812EB
:1053B3005D417900800279107406023B3F127192BD
:1053C300FAE9FBEE22EE2415F582EF12578BA2E0E9
:1053D300221253DC1211ACE922E0FAA3E0FB22FA19
:1053E300A3E03400FB22124AD1A3A3A3A3A3A322C5
:1053F3001253F7221250378E828F83A3A3A3A322C3
:1054030074F41204ACEAFEEBFF125CC2124C4C9033
:105413000FBCE0F8EE242B12719CC3984003025595
:1054230078125CE27015EE242B12719C041255A6BF
:10543300C0E0EE242912299BD0E0F0EE242812715B
:105443009CFC7900800109EE242C12327AE9C3987E
:105453005026750801750900E97808120A6D125C77
:10546300E2550860E1E92CFC750801750900E9784B
:1054730008120A6DE04508F0EE2427125593EE2436
:105483002E12299BEC8A088AF0A4F8ABF0E42BF9DE
:10549300E098F8A3E099F9C3E89508E99400EE4091
:1054A30039242712327A125CE26037EE242D122956
:1054B3009B1255A0A3E4F0EC7054EE242012719CCF
:1054C30044201244BEC0E0EE242612299BD0E0F013
:1054D300EE2430125593A3E08059242912299B749A
:1054E300FFF090035CE0FA900FBFE0F508EA85084F
:1054F300F0A4ABF075F064A4FAADF075F064EBA41E
:105503002DFB8E828F83A3A3EAF0A3EB80A8EE2466
:105513002012719C54DF124E98ECF08C08EE242775
:1055230012719C8508F0A4FAABF0EE2430F582EFFB
:1055330012558AFBEE241EF582EF1255861255AEE4
:10554300C0E0EE242512299BD0E0F0EE241C1229A2
:105553009BE812579090032C124C85600BECF912C8
:1055630036D5122207E97018EE240BFAEF3400FB4C
:105573001221A2800B7BE9EE2422F582EF125763FE
:10558300022A6E1264DC2212578B2AFAA3E03B2212
:1055930012559722F582EF124E5AE0FA22124AD19F
:1055A300A3F022F0EE242A125788221255B3E022E8
:1055B3001255B722124A97A3A32274F41204AC9093
:1055C300032A12666912184E8A0A8B0B7CFF7DFF31
:1055D3008020E0C398FAA3E099FBC3EA9CEB9D50BB
:1055E3000E8E828F83A3A3E0C398FCA3E099FD12E0
:1055F300665CEE4F6059125F2DE50AC398F8E50B20
:1056030099F98E828F83125D14C3E89AE99B8E8287
:105613008F83A3A340BCA3A3A3A3E06402701DEEE6
:10562300240B125CE5600CEE241012299B125D160C
:10563300121728EEFAEFFB120BB88007EEFAEFFB16
:10564300120BC47A017B00900F6F123AB780147467
:10565300FF6C700374FF6D600A7A017B00900F6F1B
:105663001232C8022A6E74F01204AC8A088B09EC59
:10567300FAEDFB890A7C011267C3125CD48A0C8B96
:105683000DAE0CAF0DEE4F7003025756E50A6003E3
:10569300025756E508125759E0F8EE242812719C78
:1056A300686003025756EE242C125593E82AF8E457
:1056B3003400F98E828F83A3A3A3A3A3A3A3A3E0A0
:1056C300FAE89AE99400C365D03340141259F312EF
:1056D3005CE8700C7B001267BCE5091257638073AA
:1056E3001259F3125CE87031EE242C12719CF9EE1E
:1056F300242912299B7508FF750900E97808120A05
:105703006DE508F0EE242A12299BE508125780293B
:10571300F0EE242B123AAC8022E5082414F8E509B4
:105723003400F9E0C0E0EE242A12299BD0E012579E
:105733007BC0E0EE242912299BD0E012579C242D34
:1057430012299B123E27A31257907A01FB900F6FE9
:10575300123AB7023B422413F582E509124E562250
:1057630012559AEE2414124E53124CE2EEFAEFFB4A
:10577300120BB822EAF0A3EB124612E022F0EE2459
:105783002812578822F582EF124E5AE022F0A3E442
:10579300F022E0240F123F8422F012184E8E828FE3
:1057A30083EAF0A3EBF0EE2274E81204AC74FD126A
:1057B30009CBE9851882851983F08A0A8B0B8C162D
:1057C3008D17741B120B8D1259EB741D120B8D78F0
:1057D3000C120B308A828B83A3A3E0F91216568A2C
:1057E300128B13EA451370077A007B000259E67A9D
:1057F300127B001217A68A088B09AE08AF09EE4F79
:1058030070030259E27C127D0079001217107401B3
:10581300120B8DAA82AB83850A82850B83A3A3E037
:10582300F912167AEE240FF508EF12697F7402124B
:105833000B8DE0850882850983F07902EEFAEFFB90
:10584300120BAC8516828517831253F3E8F0A3E994
:10585300125A2B8E828F83A3A3A3A3A3A3A3F075B2
:1058630014FF751500850882850983E07814120AF0
:105873006D122998E514F0851282851383A3E0F84D
:10588300124841C0E0EE240B12299BD0E0125A3596
:10589300F508EE240D12299BE508F0125CEDE08576
:1058A30008F0A42424FAE5F03400FB1217228A0836
:1058B3008B09EE126343EF124C49EA450970030268
:1058C30059D78A828B83741A1257908A828B83A347
:1058D300A3F0A3125A1F125A081246BBAC16AD17F7
:1058E300EA2406FAEB3400FB121674850A82850B50
:1058F30083A3A3A3E0C0E0E508240FF582E5091222
:10590300299ED0E0F0900379125F31E5082410124C
:1059130059FC125A42A3125F31E50824121259FCB2
:10592300124E73C0E01259F312299ED0E0F0E50A3B
:10593300125CBDE50B12719FC0E0E5082415F582EA
:10594300E50912299ED0E0125A16C0E0E508241694
:10595300F582E50912299ED0E01275ABE0C0E0E5BF
:10596300082417F582E50912299ED0E01275ABA32E
:10597300E0C0E0E5082418F582E50912299ED0E08D
:10598300124A7BC0E0E5082419F582E50912299E35
:10599300D0E0F0E508241AF582E50912299E780C77
:1059A300120B4EE5082424F8E5093400F9E5082430
:1059B30022F582E5091246B8E50A1267BEE50B1225
:1059C300719FC0E0E508241FF582E50912299ED0E6
:1059D300E0F0800BEEFAEFFB120BB87E007F00EED7
:1059E300FAEFFB74030269EDE0F510A3E0F5112271
:1059F300E5082414F582E50922F582E509124E56DD
:105A0300E8F0A3E922E0F8A3E0F98A828B83A3A359
:105A1300A3A322F0851082851183E022125A232248
:105A2300124E7CA3A3A3A322F01267CBE50B12575C
:105A33008B22F0E50A2410F582E50B12578B221214
:105A43005A23A3A3A32274E81204AC8A0A8B0B8CF7
:105A5300108D1189147418120B8DE0F516A3E0F55F
:105A630017741A120B8D780C120B30750900EA2487
:105A730013F582EB12719FF50890032C124C85608D
:105A830011A90890032C1236D2122207E9600302EF
:105A93005CBA7C02851082851183125D161267CB76
:105AA300E50B125CD48A128B13AE12AF13EE4F7058
:105AB3004B850A82850B83A3E0A2E04003025CBA14
:105AC300780C12091C7816120924A914AC10AD1114
:105AD300AA0AAB0B120BD674061209378A0C8B0D6C
:105AE300AE0CAF0DEE4F7003025CBA8E828F83A3B0
:105AF300A3A3A3A3A3A3A3E508125D4185080C8E6A
:105B0300828F83A3A3A3A3A3A3A3A3E024FFF8E407
:105B130034FFF9E8650C7001E97003750901EE249F
:105B23000B125CE57003025C6D850A82850B83A30F
:105B3300E0A2E05003750800125D21E50C98E4999A
