:020000040000FA
:06000000020A1D020222AB
:03002B0002088147
:030053000201485F
:03007B0002057902
:100083000201AF0101FF0503010F0710071007105D
:100093000710C30EBD0E0710F81B000000005A1C0A
:1000A300000000000C0000000C0001FFFF01010133
:1000B30000E104000000550564006400B801020279
:1000C30000000002050207051E02051E0A03B80B05
:1000D300020102FFFF029651180002020612FF43BB
:1000E3001949194F195519000000000000000000BC
:1000F3000000000000000000000000000043194958
:10010300194F195B190000000000000000000000F7
:10011300000000000000000000000010202020204C
:100123002020202020202020202020200110040136
:1001330000010005758001C2801104010001000562
:10014300758001C280C0E074F11203CAA2AFE43328
:10015300FED2AFE5A7FFE5A1F5085FF509741055D9
:100163000960061215D775A1EF74085509600812C6
:1001730015DD75A1F7802BEFA2E0C0D0E508A2E062
:1001830092F012096A158182F05017906198E0F895
:100193009005F5E0C398A2D265D0335002E8F0751C
:1001A300A1FEEEA2E092AF7F02020429C0E074F246
:1001B3001203CAA2AFE433FED2AF9061A4E0F87594
:1001C3009B00E59158540860087591F712161F803B
:1001D3002AE59158541060087591EF121625801B7B
:1001E300E8A2E0C0D0E591A2E092F012096A15817D
:1001F30082F05007E0C2E0F01217699061A3E0F8C3
:10020300E5E9585404600E12173F75E9FB906193BA
:10021300E0A2E640F2EEA2E092AF7F01020429C021
:10022300E074F21203CAA2AFE433FED2AF9061A529
:10023300E0F8E5BF585404600675BFFB12177B80D6
:10024300D4C3E498F8E499F91202858026C3E49AAA
:10025300FAE49BFBE920E7E9120285E498F8E499C4
:10026300F922C3E498F8E499F9120285E498F8E4D2
:1002730099F9C3E49AFAE49BFB22EB20E7CFE92048
:10028300E7E0B90010BB0008E88AF084F8AAF0227E
:10029300E4FBC8FA22EB70227B10C833C8C933C908
:1002A300335007C39AC3DBF280069A50012ADBEA74
:1002B300C833F4C8C933F4C9FA2275F008E4C83363
:1002C300C8C933C933C99AC99B5004C92AC93BD584
:1002D300F0ECFBC833F4C8E4C9FA22080808EAC002
:1002E300E0EBC0E086F0E7A4FA180986F0E7A42A59
:1002F300FA180986F0E7A42AFA180986F0E7A42A6F
:10030300FA1986F0E7A4FBE5F02AFA190886F0E764
:10031300A42BFBE5F03AFA190886F0E7A42BFBE5DA
:10032300F03AFA18180986F0E7A4C5F02BFBE43A73
:10033300FA1908E7C5F0C6A426F6E5F03BFBE43A54
:10034300FA1886F0E7A4F6E5F00826F6E43B08F68B
:10035300E43A08F6D0E0FBD0E0FA222518C582C0C3
:10036300E0E51934FFC583C0E0E518C3958224F89E
:1003730010AF0885831985821880088583198582C3
:1003830018D2AFCEF0A3E520F0A37808E608F0A3D7
:10039300DEFAEFF0A3E58124FAF8E608F0A3E60815
:1003A300F0A3E608F0A30808E608F0A3E608F0A324
:1003B30015811581D0E0FED0E0F8158115811581F6
:1003C300E8C0E0EEC0E022C0D02518C582C0E0E559
:1003D3001934FFC583C0E0E518C3958224F310AF39
:1003E300088583198582188008858319858218D228
:1003F300AFC8F0A3E9F0A3EAF0A3EBF0A37908E711
:1004030009F0A3D8FAECF0A3EDF0A3EEF0A3EFF01C
:10041300A3D0E0F0A3D0E0F0A3D0E0F0A3E520F078
:10042300A3E5F0F0A322851983851882E0C0E0A339
:10043300E0F9A3E0FAA3E0FBA37808E0F608A3DF62
:10044300FAE0FCA3E0FDA3E0FEA3E0FFA3E0C0E02D
:10045300A3E0C0E0A3E0F5D0A3E0F520A3E0A3F57B
:10046300F010AF0885831985821880088583198564
:100473008218D2AFD082D083D0E0F8D0E032120A13
:100483007FB900030204C3E4900301786F79088005
:1004930002F0A3D8FCD9FA900A6FAA82AB8390002A
:1004A3008678C379018015E493A3AC82AD838A82F5
:1004B3008B83F0A3AA82AB838C828D83D8E9D9E79F
:1004C30075820075838074031207E07582FF75835C
:1004D3001A74001207E0E8030A75F0108E1A8F1BD6
:1004E30085821F85831E851882851983E0CEA3E04C
:1004F300CF851F82851E83EBC9EAC8EDCBECCAC347
:10050300E833C8E933C9EA33CAEB33CBC3EA9EF510
:100513001DEB9FF51CB35004AB1CAA1DEC33CCEDB3
:1005230033CDD5F0DAAE1AAF1B22D083D082ECC024
:10053300E0EDC0E0E493A3FCE493A3FDED4C600D78
:1005430012064EEC24FFFCED34FFFD80EFE493A391
:10055300FCE493A3FDED4C600D1206EBEC24FFFCD1
:10056300ED34FFFD80EFD0E0FDD0E0FCE493A3C0C9
:10057300E0E493C0E022C0E074F21203CAA2AFE445
:1005830033FED2AFE58AA2E350107C647D007A107B
:100593007B00900A60E0F91212C5E58AA2E25010CE
:1005A3007C647D007A207B00900A60E0F91212C51A
:1005B300758A00C2EBEEA2E092AF7F0102042985A7
:1005C3001983851882E0A3FEE0A3F5207808E0A351
:1005D300F608DFFAE0A3FFE0A3C0E0E0A3C0E0E099
:1005E300A3C0E0E0A3C0E0E0A3C0E010AF088582B1
:1005F300188583198008858218858319D2AFD08323
:10060300D0820207E6D083D082E9C0E0E493A3C39B
:1006130086F0C5F095F0F908E493A386F0C5F0954C
:10062300F0700BE493A3C3994005E9048002A3E4AB
:1006330075F002A42582F582E5F03583F583D0E0D9
:10064300F9E493A3C0E0E493C0E022C0E0C3E493E1
:1006530096087401939618400FE493667008087423
:100663000193661870007019A3A3C3E493960874EA
:1006730001939618A3A3400DD0E0D0E0D0E002058B
:1006830069A3A3A3A3A3A3D0E022740480047402E8
:100693008000CCC0E0EDC0E0E518C39CCCAD1950A0
:1006A300011D10AF068C188D1980068C188D19D278
:1006B300AF120762D0E0FDD0E0FC2274028000CCD0
:1006C300C0E0EDC0E0E518C39CCCAD1950011D108E
:1006D300AF068C188D1980068C188D19D2AF1207AE
:1006E30040D0E0FDD0E0FC22C0E0C0F088F0E4930D
:1006F3006670080874019366187000A8F0A3A370CD
:100703000BD0F0D0E0D0E0D0E0020569A3A3D0F095
:10071300D0E022D083D082CCC0E0E493A360061261
:1007230007A21470FAE493A360061208C81470FABF
:10073300D0E0FCE493A3C0E0E493C0E022CAC0E0AD
:10074300E493A3C582CCC582C583CDC583F0A3C57D
:1007530082CCC582C583CDC583DAE5D0E0CA22CA7F
:10076300C0E0E0A3C582CCC582C583CDC583F0A319
:10077300C582CCC582C583CDC583DAE6D0E0CA2263
:10078300C008C3E096F50808A3E096420808A3E072
:1007930096420808A3E09645087001D3D00822C00A
:1007A300E0E493A3D39C5010E493A3C39C400AD0EA
:1007B300E0D0E0D0E0020733A3A3A3D0E022700986
:1007C300080808226016181818C6C333C608C633AB
:1007D300C608C633C608C633C6D5E0EA22C09FF5AD
:1007E3009FE473D09F22D083D082C09FE493C0E064
:1007F300740193C0E0740293F59F227404800A7419
:10080300038006740280027401C0E0F40412081924
:10081300D0E0120A5A222518F58210AF08F51840C5
:100823000215198008F51840021519D2AF851983EE
:1008330022BB0102E722C082C08389828A83BB0074
:1008430003E08002E493D083D08222C0D025181025
:10085300AF08F518500205198008F518500205195C
:10086300D2AFD0D0226016080808C6C313C618C674
:1008730013C618C613C618C613C6D5E0EA22C0E0CD
:10088300C0D0E8C0E0E5A8D2AFC2C7A2E792AFD01C
:10089300E0F8D0D0D0E032C3E0C696F608A3E0C6B5
:1008A30096F608A3E0C696F608A3E0C696F62225B8
:1008B3001810AF08F518400215198008F518400202
:1008C3001519D2AF22C0E0E493A36C7009D0E0D035
:1008D300E0D0E0020733A3A3D0E022E7667010085C
:1008E30009E766700A0809E76670040809E76622E3
:1008F300C3E09608A3E09608A3E09608A3E096A2B7
:10090300D265D03322E066701008A3E066700A084F
:10091300A3E066700408A3E06622C3E096F008A390
:10092300E096F008A3E096F008A3E096F022E02614
:10093300F008A3E036F008A3E036F008A3E036F0B1
:1009430022E627F60809E637F60809E637F6080926
:10095300E637F622E026F608A3E036F608A3E036EB
:10096300F608A3E036F622C0E0E8C0E0E58124FC07
:10097300F8E6A2E7D0E0F8D0E022E647F60809E679
:1009830047F60809E647F60809E647F622E657F66A
:100993000809E657F60809E657F60809E657F62266
:1009A300E056F608A3E056F608A3E056F608A3E0DF
:1009B30056F622E056F008A3E056F008A3E056F0FE
:1009C30008A3E056F022700422600D18C6C333C694
:1009D30008C633C6D5E0F41822E4C396F608E496B5
:1009E300F608E496F608E496F622C6F4C608C6F4BA
:1009F300C608C6F4C608C6F4C622C3E7960809E7C4
:100A0300960809E7960809E79622C3E09608A3E04B
:100A13009608A3E09608A3E0962275D0007581405E
:100A230075180175190300020481E0F608A3E0F6C6
:100A330008A3E0F608A3E0F622600C08C6C313C6B9
:100A430018C613C6D5E0F422E6F008A3E6F008A31F
:100A5300E6F008A3E6F022CAC0E0E6F0A308DAFA5B
:100A6300D0E0FA22E0FAA3E0FBA3E0FCA3E0FD223E
:100A7300EAF0A3EBF0A3ECF0A3EDF022E5C754F802
:100A83004401F5C77901222518F582E43519F58368
:100A930022C2AF75D69F020000221207E975AA0190
:100AA3001207E9E4AA011207E933AD011207E98647
:100AB300AE011207E929AF011207E91AB0011207C3
:100AC300E9A8B0011207E9C6B0011207E9565900B7
:100AD3001207E96859001207E9BA59001207E91B1E
:100AE3005A001207E9A55A001207E9495B001207E9
:100AF300E99D5B001207E9B65B001207E9DC5B00C6
:100B03001207E9175C001207E95B5C001207E98230
:100B13005C001207E9D35C001207E9835D0012074A
:100B2300E93B5E001207E9035F001207E9E05F009B
:100B33001207E96660001207E97560001207E98091
:100B430060001207E98961001207E99A6100120740
:100B5300E91062001207E9A262001207E9FA6200D3
:100B63001207E9C063001207E9F163001207E936CF
:100B730064001207E94364001207E9D7650012070E
:100B8300E93A67001207E97667001207E9926800FD
:100B93001207E9FC6A001207E9076B001207E91163
:100BA3006B001207E91C6B001207E9266B001207A2
:100BB300E9306B001207E93B6B001207E9466B0053
:100BC3001207E9776B001207E99B6B001207E9BF75
:100BD3006B001207E9246C001207E9686C00120726
:100BE300E9846C001207E9FB6C001207E9336D001E
:100BF3001207E97F6D001207E9DC6D001207E9BEF9
:100C03006F001207E94470001207E915710012071B
:100C1300E92574001207E97A74001207E9A6740043
:100C23001207E9F275001207E94276001207E99705
:100C330076001207E99877001207E9307800120767
:100C4300E9B278001207E95279001207E9611F003F
:100C53001207E99A1F001207E97421001207E9B38A
:100C630021001207E9FD21001207E9A22200120761
:100C7300E90123001207E93523001207E9A2230043
:100C83001207E9BF24001207E9C725001207E95D2F
:100C930026001207E9A429001207E94D2A001207CA
:100CA300E9292B001207E98A2B001207E9A72C0078
:100CB3001207E9D12E001207E9882F001207E992E3
:100CC3002F001207E9C02F001207E997300012071F
:100CD300E95E31001207E9F931001207E95E3200DB
:100CE3001207E98732001207E9A932001207E9D88F
:100CF30034001207E9AF35001207E9F33500120794
:100D0300E96036001207E91B37001207E94D370087
:100D13001207E99137001207E9C737001207E91CE8
:100D230038001207E97138001207E9053900120784
:100D3300E96739001207E9CF39001207E9783B0068
:100D43001207E9603C001207E9A23D001207E9D04F
:100D53003F001207E99040001207E9C5420012075D
:100D6300E96843001207E9A643001207E952450068
:100D73001207E96645001207E97045001207E99A70
:100D830045001207E9A645001207E9C54500120709
:100D9300E97C46001207E9BB46001207E9C5460095
:100DA3001207E91E47001207E9CE47001207E9CDF3
:100DB30048001207E9C649001207E9634A0012070F
:100DC300E9054B001207E91C4B001207E9534B00DE
:100DD3001207E9714B001207E9B54B001207E9DA74
:100DE3004B001207E9C04C001207E92C4D00120713
:100DF300E9A64D001207E9B54E001207E9F44F00CA
:100E03001207E9D250001207E93451001207E9EE44
:100E130051001207E91152001207E9E552001207C7
:100E2300E93053001207E97253001207E9C953006E
:100E33001207E90E54001207E93C54001207E97542
:100E430054001207E99A54001207E92255001207C9
:100E5300E94557001207E9A457001207E93858007B
:100E63001207E9A458001207E9EF58001207E91C1A
:100E730059001207E94FA7031207E98EA7031207C8
:100E8300E91481021207E96E81021207E9CA81029D
:100E93001207E91682021207E93182021207E96298
:100EA30082021207E97F82021207E98B820212078C
:100EB300E9FF83021207E91884021207E97F84021B
:100EC3001207E99284021207E9A084021207E95487
:100ED30085021207E93886021207E93E87021207E4
:100EE300E9C487021207E9CE87021207E93B8802A9
:100EF3001207E95288021207E98488021207E9BD42
:100F030088021207E9E788021207E94889021207F3
:100F1300E96889021207E98689021207E9CC890286
:100F23001207E9F28A021207E93F8B021207E96E00
:100F33008B021207E9E48B021207E90C8C021207F9
:100F4300E9458C021207E9538C021207E9AB8C02C4
:100F53001207E9FA8C021207E9398D021207E969CF
:100F63008D021207E9958D021207E9A08D0212077F
:100F7300E9BE8D021207E9808E021207E98A8E020A
:100F83001207E9C58E021207E9DB8E021207E9E4B4
:100F93008E021207E9398F021207E94D8F021207F9
:100FA300E95B90021207E96E90021207E98390024F
:100FB3001207E92591021207E9A891021207E966CF
:100FC30092021207E97192021207E997930212073C
:100FD300E9B393021207E90594021207E944940264
:100FE3001207E95994021207E99B94021207E9E8F0
:100FF30096021207E96697021207E9D997021207C8
:10100300E9FB99021207E9139A021207E9169A02F9
:101013001207E9229A021207E9369A021207E93EF9
:101023009A021207E9719A021207E9219B02120739
:10103300E9979B021207E90A9C021207E9BE9C0288
:101043001207E9739D021207E9929D021207E93222
:101053009E021207E93E9E021207E9699E021207E9
:10106300E96C9E021207E9D69E021207E9FE9F026F
:101073001207E9D6A0021207E961A1021207E97A71
:10108300A2021207E937A3021207E970A3021207AB
:10109300E9A1A3021207E941A4021207E971A4021C
:1010A3001207E94CA5021207E9E5A5021207E97048
:1010B300A6021207E921A7021207E9A3A702120752
:1010C300E9D5A7021207E916A8021207E99BD20283
:1010D3001207E900D3021207E93DD3021207E98C94
:1010E300D3021207E976D5021207E95DD702120788
:1010F300E996DA021207E9BCDA021207E9D4DA0246
:101103001207E93DDB021207E979DB021207E9A6C0
:10111300DB021207E9D8DB021207E936DC02120709
:10112300E96DC7021207E9EBC7021207E91DC802FE
:101133001207E975C8021207E9EFC9021207E90BA2
:10114300CA021207E946CA021207E9CDCA02120708
:10115300E91DCB021207E9EACB021207E9EECC0242
:101163001207E942CD021207E9BDCD021207E91EBB
:10117300CE021207E95FCE021207E90ACF02120775
:10118300E928D0021207E95ED0021207E9A9D002CA
:101193001207E9F0D0021207E97AD1021207E91F18
:1011A300D2021207E977ED021207E9BDED02120739
:1011B300E927EE021207E948EE021207E9E8EE0218
:1011C3001207E9F2EE021207E93FEF021207E964A0
:1011D300EF021207E9C4EF021207E95AF0021207FD
:1011E300E992F0021207E9EBF0021207E947F10274
:1011F3001207E9CFF1021207E914F2021207E953C9
:10120300F2021207E998F2021207E9AAF2021207A0
:10121300E9BCF2021207E9DBF2021207E9E4F20287
:101223001207E99E9D011207E9D0F3021207E97242
:10123300A3031207E98196031207E9B7960312077E
:10124300E90097031207E94D98031207E988DA01C9
:101253001207E901DC011207E9C2DD011207E9FE09
:10126300DD011207E975E1011207E9BBE10112078C
:10127300E9E0E3011207E9B2E4011207E92DAA014B
:101283001207E909E7011207E953E9011207E96FB8
:10129300EC011207E97DEC011207E958ED01120791
:1012A300E96FF1011207E9FFA6031207E9DFA803BB
:1012B3001207E9FC8A031207E90F8B031207E9AD52
:1012C3008B031207E9EF8B031207E9148C03120750
:1012D300E9598C031207E9928C031207E9C38C03C3
:1012E3001207E9368E031207E945A4031207E97BC7
:1012F300A4031207E997A4031207E9D9A403120769
:10130300E9E9A4031207E932B9021207E984B90231
:101313001207E92EBA021207E9D6BA021207E93315
:10132300BB021207E9F7BC021207E979BD021207F3
:10133300E9A3BD021207E94EBF021207E99DBF02EE
:101343001207E9B3BF021207E9C0BF021207E9F0AF
:10135300BF021207E906C0021207E99EC002120784
:10136300E901C1021207E951C1021207E94BC202A6
:101373001207E9D1C4021207E964C5021207E9AFF3
:10138300C5021207E924C6021207E941C602120781
:10139300E944C6021207E947C6021207E9B0C602CA
:1013A3001207E9CBC6021207E9DEC6021207E90AF1
:1013B300C7021207E945C7021207E948C702120725
:1013C300E914A6031207E920A6031207E95CA603A2
:1013D3001207E9F2E5021207E941E6021207E9F30F
:1013E300E7021207E9A8E9021207E9F0E902120786
:1013F300E9ECEA021207E943EC021207E965EC02A1
:101403001207E9C1EC021207E943ED021207E94BA7
:10141300A8021207E976A8021207E938A9021207FF
:10142300E9BAA9021207E924AA021207E970AA027B
:101433001207E9E3AA021207E96EAB021207E9FDFC
:10144300AB021207E930AC021207E924B10212071A
:10145300E9CCB2021207E9C7B3021207E9C8B50221
:101463001207E937B6021207E928B7021207E9059E
:10147300B8021207E978B8021207E902F20112076B
:10148300E9C1F2011207E931F3011207E9D8F301C7
:101493001207E935F4011207E95CF5011207E91CAB
:1014A300F6011207E981F6011207E92FF801120785
:1014B300E9ECF8011207E918FA011207E936FB0112
:1014C3001207E9CFFB011207E9BFFC011207E91E6E
:1014D30094031207E97294031207E9AD9403120708
:1014E300E91695031207E95695031207E9DE9503FA
:1014F3001207E94296031207E95E96031207E9C54C
:101503009A031207E9F69A031207E9AF9B0312073E
:10151300E9159C031207E97680031207E9DA8103D0
:101523001207E9C5A8031207E981A2031207E98F8D
:10153300A2031207E908A9031207E993A6031207F6
:10154300E9A3A6031207E9AFA6031207E9FCA60362
:101553001207E983A1031207E904A2031207E9684A
:10156300A2031207E9F57F001207E9F5A8031207A2
:10157300E905A9031207E989A8031207E9F9F302A8
:101583001207E94EF4021207E922F6021207E954A0
:10159300F6021207E97BF6021207E98FF602120739
:1015A300E9A8F6021207E9D7F7021207E90A9E0330
:1015B3001207E92E9E031207E9479E031207E97AF1
:1015C3009E031207E9AB9E031207E9D99E03120794
:1015D300E93B9F031207E94A9F031207E9549F035C
:1015E3001207E9619F031207E96591031207E9A254
:1015F30091031207E9B191031207E9D0910312078E
:10160300E93892031207E94192031207E9A0920312
:101613001207E9C492031207E9B793031207E9C457
:1016230093031207E9D593031207E920A8031207CE
:10163300E93DA8031207E9057A001207E94B7A008E
:101643001207E9A27B001207E9AF7B001207E9C288
:101653007B001207E9E17B001207E9F77B00120721
:10166300E90B7C001207E9807C001207E9E57C00A6
:101673001207E9957D001207E96A7E001207E97AED
:101683007E001207E9897E001207E9FAA403120714
:10169300E91FA5031207E948A5031207E970A5038B
:1016A3001207E9B498031207E9DB98031207E95715
:1016B30099031207E968FD021207E981FD02120787
:1016C300E98DFD021207E9A1FD021207E9BFFD0240
:1016D3001207E9C9FD021207E9D3FD021207E9E681
:1016E300FD021207E945FE021207E97EFE02120718
:1016F300E9ACFE021207E9FAFE021207E947FF020C
:101703001207E962FF021207E96CFF021207E9B44C
:10171300FF021207E995A5031207E9B1A503120712
:10172300E9ABA8031207E986DC021207E9B0DC0281
:101733001207E9CCDC021207E9DFDC021207E91E1B
:10174300DD021207E99FDD021207E9DCE10212075D
:10175300E906E3021207E939E3021207E986E30225
:101763001207E9C4E4021207E9ECE4021207E90FE5
:10177300E5021207E953E5021207E9B4E50212078D
:10178300E9C4E5021207E9C27E001207E9DD7E0023
:101793001207E9067F001207E9207F001207E945D7
:1017A3007F001207E9647F001207E97C7F001207BC
:1017B300E9AA7F001207E9C47F001207E9DCA70347
:1017C3001207E95E87031207E96587031207E99A9F
:1017D30088031207E9C988031207E9378903120747
:1017E300E9CA89031207E9038A031207E94C8A034A
:1017F3001207E97C8A031207E99C8A031207E9802E
:10180300A0031207E992A0031207E97DA1031207BF
:10181300E980A1031207E96B9F031207E9CA9F033B
:101823001207E920A0031207E961A0031207E9F7F1
:10183300B0011207E912B1011207E987B1011207DA
:10184300E910B2011207E99FB2011207E9BBB20125
:101853001207E967B5011207E91CB8011207E9B6D7
:10186300B9011207E901BB011207E9FFBF01120722
:10187300E9FBC0011207E971C1011207E93DC20189
:101883001207E9A0C3011207E940C4011207E98A5C
:10189300C4011207E9F8C4011207E9A8C501120738
:1018A300E976C6011207E9DCC6011207E9E1C701BF
:1018B3001207E99EC8011207E939C9011207E99025
:1018C300CB011207E924CC011207E9A0CC011207CE
:1018D300E935CF011207E930D0011207E95FD001E2
:1018E3001207E91ED2011207E9F9D3011207E9EF42
:1018F300D4011207E9DAD9011207E9B78303120702
:10190300E97884031207E9E784031207E90C8503E6
:101913001207E9D085031207E998A7031207E9869E
:101923009C031207E9E29C031207E9089D031207CF
:10193300E96C9D031207E91EFE011207E976FE0119
:101943001207E965FF011207E968FF011207E9A819
:10195300FF011207E9ABFF011207E9D4FF011207E8
:10196300E9438E031207E9668E031207E9B18E037A
:101973001207E9CD8E031207E9FE8E031207E90E63
:101983008F031207E9F18F031207E9FB8F03120795
:10199300E90890031207E92791031207E93B910332
:1019A3001207E94491031207E9B3F8021207E96346
:1019B300FD021207E95CA8031207E9459D0112071E
:1019C300E9D99C011207E9B09C011207E9A39A0126
:1019D3001207E96F9A011207E93C9A011207E920FD
:1019E3009A011207E94699011207E9FE98011207C5
:1019F300E93397011207E9B396011207E9B096019B
:101A03001207E9BB95011207E98995011207E9C697
:101A130094011207E9F192011207E9829201120778
:101A2300E95492011207E95192011207E93E92012A
:101A33001207E9D691011207E990A9011207E98378
:101A4300A9011207E991A6011207E9E3A30112070D
:101A5300E9B7A2011207E9C591011207E9A69001AE
:101A63001207E97090011207E90BA2011207E9338B
:101A730090011207E9D48F011207E9A38F0112071E
:101A8300E95E8C011207E95CA0011207E95EE5013A
:101A93001207E94F8B011207E9DE8A011207E9A356
:101AA3008A011207E96E8A011207E9628A011207A5
:101AB300E9C289011207E90989011207E9DC8601F4
:101AC3001207E96884011207E92684011207E9F184
:101AD30082011207E9A682011207E9D581011207E3
:101AE300E92C81011207E90281011207E9179E011E
:101AF3001207E9C880011207E990F3020000008091
:101B0300FBE4730001363601010001020100010309
:101B13000100010401060605020000070100340864
:101B230001000F090401010D0100FF0E0800001759
:101B3300020000190100FF1A0100011B0100FE1C35
:101B43000100081D0200001F010001200100012106
:101B53000200002301000F240200002601000127D8
:101B6300010008280200FF2A0100072B0102402C74
:101B73000100002D0100012E0100012F0100FF30A3
:101B8300010B1C310800003A0100083B01000F2F34
:101B93000100000101710101010101110101013184
:101BA30001010101018001100161013B0014006387
:101BB3000173017201620143010001130106013D3A
:101BC30001350004011201000100010001000104BC
:101BD300010401330133013C0144013201360000A9
:101BE3000100016501000135008101000105018249
:101BF30001830100010300710030016000110070D6
:101C03000031022003500480001000610000001422
:101C130000630073007200620043000000130006BB
:101C2300000000000004001200000000000000009B
:101C33000004000400370037003C024400000000A9
:101C43000000000000650000003500810000000571
:101C5300000000830000000103710301030103017D
:101C63000301030103220302030103100300030022
:101C730003000300030003000300034203000324E3
:101C830003060300030003040312032503230325B0
:101C930003230304030403000300030003440300BA
:101CA30003000323030003650321003503810300BD
:101CB3000305030003000300030302710230016004
:101CC300021102700201020202020280021002618A
:101CD300023A00410063027302720262024302008D
:101CE3000213023800000200020402120200020082
:101CF300020002000204020402370037003C0244DF
:101D0300020002390000020002650200023502816E
:101D13000200020502820283020002000003002087
:101D230001C680000000002001C7800000040042BB
:101D33000164800000050042015380000006004258
:101D4300014280000007002001C48000001000420F
:101D530003070B000011002003610A0000120010AA
:101D630003180B030000002103620A060000002091
:101D730001650A00000000000000000000030020CD
:101D830001C680000000002001C78000000400425B
:101D930001648000000500420153800000060042F8
:101DA300014280000007002001C4800000100042AF
:101DB30003070B000011002003610A00001200104A
:101DC30003180B030000002103620A060000002031
:101DD30001640A0000000000000000360001000654
:101DE3000000000F000000000000000000000000E1
:101DF3000003FFFF00000403FFFF0000FFFF0FF4D9
:101E0300010005C4040320000100140B00000000BE
:101E13000000000003010FA118DD18A718F518AD85
:101E230018E318AD18EF18B318F518AD18E318B97F
:101E330018F518BF18F518C518F518CB18F518D1EB
:101E430018F518D718F5180000000000000000006E
:101E53000093141300571401009314020027140372
:101E6300002D14040033140500391406004514FF33
:101E7300FF00001D0F4D0F230F290F470F3B0F3599
:101E83000F530F590F5F0F6B0F2F0F170F110F0A00
:101E9300D70C029B0C05AD0C07A10C0C7D0C0D8F10
:101EA3000CFF000000160F00000B150B02000222AE
:101EB3000F32000006071019101F10E70E2510E15E
:101EC3000EED0E140AE5D5C5B5A5A59585857565F1
:101ED300671085108B106D1079107310000119169F
:101EE3001816161523030000383C3E363B3B352BB2
:101EF300432C00034948424D18172505023030177B
:101F0300181921301B1D1F300C0E020B040B0A077E
:101F130008000F303016181920231A1C1E305B10CE
:101F23002B1031103D103710410F650F7F10710FCB
:101F3300770F020402010101010902000000000001
:101F43000000BE040AC61EFA0615000E000400288F
:101F53000003090CFF1E1E0404080F0C050874F788
:101F630012035EE99003B0F0900365E4F01217FFEB
:101F73009003C4E4F0A3F09003B1F0A3F0120E1B9E
:101F8300121805900334E4F0A3F0901F5D93FA79DF
:101F930002121997024D2774F212035EEAFEEBFF59
:101FA300548060699003B0E0F91211D58A088B0957
:101FB300EA4509604F7C0080010CEC75F003A4F83E
:101FC300A9F0749228F582741E39F583E493F460C2
:101FD3002CE493F88508828B83E06870DCAA08EC14
:101FE30075F003A4F8749328F582741E39F583E41D
:101FF30093C0E0740193F583D082121B04AA08AB4B
:10200300091211C9EEFAEF6480FB022167EF542035
:10201300601D120D318A088B09EA4509600A120C0A
:102023008FAA08AB091211C9EEFAEF642080DAEE29
:10203300A2E0501A90036AE0640F700B7900120C4F
:1020430059E9600312216AEE6401FAEF80BB542060
:102053007003022135750C0012370E8B09EA45090E
:1020630070107C027D007A207B009003B0E0F912AF
:1020730012CB7C0079047A007B00120D0D8A088B49
:10208300098018850882850983A3A3A3A3A3A3A317
:10209300A3A37401F0850A08850B09E508450960C7
:1020A3006D7C007904AA08AB09120D0D8A0A8B0B0B
:1020B300750C01E5082404F8E5091234B224FFF095
:1020C300A3E034FF12591370CC850882850983A3DA
:1020D300A3A3A3A3A3A3A3A3A3E0640170A585085B
:1020E30082850983A3A3A3A3A3A3E05404709485C7
:1020F3000882850983A3A3A3A3A3A3A3A3A374060D
:10210300F07AB78508828509831222968087120C9C
:10211300DD7C0079017A007B00120D0D8B09EA4505
:10212300097009E50C70057A20124671EE642002ED
:10213300204DEF5402600B120E15EEFAEF6402020B
:10214300200CEF5404601912485D12477D79019009
:102153000363124AE1120B9FEEFAEF640402200CB0
:102163007A007B0002239D9005A9122A34120C7178
:1021730022C082C08374EA1208B28518828519834B
:10218300AA82AB83794B12196D7408120A8A7402FE
:10219300F07409120A8AAA82AB83795012196D74FA
:1021A30013120A8AE4124CB012198B7416023C2FD4
:1021B30074F712035E74E11208B2EAFEEBFFEE4F0E
:1021C3006033851882851983AC82AD83120D5574F3
:1021D30006120A8AE0601E7417120A8AE0FD74016F
:1021E300120A8AE0FCEEFAEFFB7900120AC1E960F9
:1021F3000479A480027900024D2274F612035EEA88
:10220300FEEBFF8E828F83A3A3A3A3A3A3E054407B
:10221300601B12527D12236460067AFF7BFF801AD3
:102223008E828F831238BBFAA3E0FB8003120D79F1
:1022330074FE6A700374FF6B604112527D1246B5DF
:10224300120DD3E98E828F83600612228FE48005FC
:1022530012228F7401F07C5F7D0C8E828F83124A71
:10226300E1121991E9F5087015EE4F60097901EE55
:10227300FAEFFB120CE9A9080246E67508CDAA0895
:102283008E828F83122296E960DF80EAE0240D12AA
:102293003D8A22E0240C123D8AE0F9120C6B227471
:1022A300F612035EE9FEEAFF7A0F7B001211C3EA1E
:1022B3004B60198A828B83740CF0EEA3A3F0EF8A30
:1022C300828B83A3F01247667900802FEEF9120DFB
:1022D300138A088B09A808A909E849601C88828920
:1022E30083A3A3A3A3A3A3A3A3A37406125516E0D6
:1022F300F9120C23EEF9120CEF79100246E6C082B4
:10230300C08390036AE0640F7014EA4B601090037B
:1023130065E064086005E064047003122324023C52
:1023230059EAFCEBFD7A017B009003B0E0F912124D
:10233300C522C082C0837900EA241DF582EB1238DE
:10234300B824FD600B14600824FD600424FD7001B3
:1023530009023C598E828F83A3A3A3A3A3A3A3A3A0
:10236300A312236822123900FB120DD3E9228E82B5
:102373008F83A3A3A3A3A3A3A3A3A312236864028A
:10238300228E828F83A3A3A3A3A3A3A3A3A3123CFD
:1023930050900356E0682212084E7F060205C2746D
:1023A300F412035E74FD1208B28A088B098A828BC9
:1023B30083A3A3E0F9120D138A0A8B0BAE0AAF0BAA
:1023C300EE4F70030224A9850882850983A3E06484
:1023D300F16030850882850983A3E064CD6024859C
:1023E3000882850983A3E0641A6018850882850939
:1023F30083A3E064E9600C850882850983A3E06414
:10240300E170087900120CE9E9706C85088285098E
:1024130083A3E0C0E07402120A8AD0E0123C34EED7
:10242300F0A3EF122E8A851882851983AA82AB83C3
:102433007005120B878003120DBB7402120A8AE027
:1024430064E970338E828F831224B5750A01780A8A
:1024530012080A750AE9780A12080AE508240CF535
:1024630082E50912297C122E67FCA3E0FD8A828B88
:1024730083122E8112084E8E828F83A3A3A3A3A35C
:10248300A3A3A3A3E0640270108E828F83A3A3A3EC
:10249300A3A3A3A3A3A37406F0850882850983A33A
:1024A300A3E0F9120CEF120CDD900AA612216D02C3
:1024B3002A39E0F8A3E0F9E8FAE9FB2274F41203FD
:1024C3005EEAFEEBFF7508008E828F83A3A3A3A3AE
:1024D300A3E060427508088E828F83A3A3A3A3A3FE
:1024E300A3A3A3123B638B0BEA450B601075082C67
:1024F3008E828F83A3A3A3A3A3E0D2E0F08E828F67
:1025030083A3A3A3A3A3E05403640160030225A848
:102513004308110225A8EE2418122A466033EE243C
:102523001A122A46700F1223847003A3E069707590
:102533007508228070EE241BF582EF1225AD241A54
:10254300F582EF122E92EE24191252B1120C118061
:102553005412237170037508011223847003A3E0DE
:10256300697006E508D2E1F508E50860158E828FEB
:1025730083A3A3E07006E508D2E58004E508D2E66C
:10258300F50812235764017006E508D2E0F5088EBA
:10259300828F83A3A3E0600D1225BB64016006E56F
:1025A30008C2E0F508A908022A3E1238A61225B48B
:1025B30022E0FCA3E0FDEE221238A01238D8F91273
:1025C3000DC1E922C082C08379018A828B83A3A3D0
:1025D300E0C394024001198A828B83A3A3A3A3E0DF
:1025E300C39402400279008A828B83A3A3A3A3A38B
:1025F300A3A3A3A3E064F87003A3E0F460458A8275
:102603008B83A3A3A3A3A3A3A3A3A3E064F970034E
:10261300A3E0F4602E8A828B83A3A3A3A3A3A3A323
:10262300A3A3E064FA7003A3E0F460178A828B83A8
:10263300A3A3A3A3A3A3A3A3A3E064FB7003A3E0A7
:10264300F4700279008A828B83A3A3A3E0F890033A
:1026530053E06860027900023C5974F012035E741F
:10266300DE1208B2EAFEEBFF8E828F83A3A3A3A33D
:10267300E0600E900AA41246DD6006900AA41221BF
:102683006D7403120A8AAC82AD838E828F83A3A3F7
:10269300A31247B4124FEDE9600F7403120A8AAA1A
:1026A30082AB83120C89E97008790112181102298F
:1026B30071EE241B1238AB7410120A8A12477D7410
:1026C30009120A8AE06021741A120A8AE0FD74046E
:1026D300120A8AE0FC8E828F83124ADF7901120A82
:1026E300C1E96004790280C37403120A8AAA82AB27
:1026F30083120C83E9F50A7409120A8AE0702A909E
:10270300034DE060247422550A6422601C74425510
:102713000A644270CF7420120A8A12298F600A74E5
:1027230020120A8A12298870BBE9A2E65041740379
:10273300120A8AAA82AB83120C77E970030226ACD1
:102743007420120A8A1238BB6403700F7420120AB1
:102753008AA31246CFA3E0640D60147403120A8A9D
:10276300AA82AB83120DE5E964017003022971EEBD
:10277300242C122979122C9D7003A3E069701C7517
:102783000800780812080A780812080AEE242E12A4
:1027930052B1122995122E8112084E7409120A8A17
:1027A300E0700302284E122995124AE1120E3F8A65
:1027B300088B09EA450970030228EB7404120A8A9C
:1027C300E0F88E828F83A3A3E028F8A3E03400F916
:1027D300E8240D1229808A828B83A3A3A3E0686077
:1027E3001CE88A828B83A3A3A3F09080B6120A67A6
:1027F300850882850983A3A3A3A3120A737904E935
:10280300120A8A124FCA2AF8A3E034008882F58399
:10281300A3AA82AB831211B78A0C8B0D8C0E8D0F7A
:10282300850882850983A3A3A3A3780C1207834099
:10283300030229719080A2780C12095785088285BA
:102843000983A3A3A3A3780C120A4B900365E06446
:10285300046008E064096003022971E50AA2E54007
:1028630003022929EE242E122A468518828519830C
:10287300F0EE242F122A46C0E07401120A8AD0E037
:10288300F0EE2430122A46C0E07402120A8AD0E025
:10289300F07414120A8AE064017027740E120A8A13
:1028A3001238B1EE2412122A46687003A3E069704D
:1028B30011740C120A8A12237E70077414120A8A86
:1028C300E4F0EE242412297912068D7404120A8A84
:1028D300AC82AD837407120A8AAA82AB83120B8D72
:1028E300740412084E0229719003AAE06401600384
:1028F30002284E7420120A8A12298F7009E50AA24F
:10290300E6500302284E7410120A8AE0F47003A3FF
:10291300E0F4605AEEFCEFFD7403120A8AAA82AB5C
:1029230083120C958048A2E650447420120A8A123E
:102933004AF0701A741A120A8AE06402703074033F
:10294300120A8AAA82AB837900120DAF8020742009
:10295300120A8A1229887016741A120A8AE0640409
:10296300700C7403120A8AAA82AB83120DA9742213
:10297300024E9CEE240BF582EF1238A622F582E973
:10298300124796F82212528FE06407221238D86455
:102993000622EE242A1238A31225B424121238A3D5
:1029A3002274F412035EEAFEEBFF8C088D09900596
:1029B300B4E0600F1223847003A3E0697005120B67
:1029C300FF804F7900124AD4120C2F8A828B83E541
:1029D3008245836035A3A3A3A3A3A3E05418602A6D
:1029E300E508241BF582E50912297C1206911231B0
:1029F3004C12297C120691EE24181252B1122A1796
:102A0300120C41740412084E80087900122A17121E
:102A13000C0580278E828F83A3A3A3A3A3A3A3A3C1
:102A2300A31225B4240BF582EF122A30223400F5C9
:102A330083123900FB22740312084E7F040205C27D
:102A4300EE2417F582EF1247962274F712035E7491
:102A5300F71208B2EAFEEBFF900365E06403600D32
:102A6300E064016008E064096003022B178E828F23
:102A730083A3E0707E7C007D007A027B0012180B3A
:102A8300EE2402FAEF1234B91238B190035612470A
:102A93007D79531219737900122B1CE064096003CA
:102AA300122EAF85188285198374011246FE900396
:102AB300657404F07401120A8AAA82AB83794A12FC
:102AC300196D7401120A8AAC82AD837A5B7B03129F
:102AD3001829900356124FE37A03122EB99003502C
:102AE300E0A2E35004D2F08002C2F01246EB1221BE
:102AF3006A801E8E828F83A3AE82AF83FC7D007AB1
:102B0300037B1012180B8E828F83E0F9122B1CE4C7
:102B1300F0120CBF7409024D24900363122A34127D
:102B23000B9F90036522C082C0839003341246DD5D
:102B3300701F900365E014600924FC600A14600CA4
:102B4300800F90033C8032900338802D90033A80AD
:102B530028E8496008900335122E61700C8A828B35
:102B630083A3E0F9120B93801B9003351231E870B5
:102B730005120E09800E9003E11246DD600612462F
:102B8300CF121B04023C5974F412035E74FB120847
:102B9300B28A088B097A0F7B001211C38A0A8B0B46
:102BA300AE0AAF0BEE4F7003022C918E828F83120D
:102BB3004CAE795012196D850882850983A3E060B4
:102BC30003022C79900363E0F47003A3E0F4603410
:102BD300900363E064FE7003A3E0F460278518822A
:102BE300851983122C9D7003A3E069601785088201
:102BF300850983A374EA122E977A637B03795012B3
:102C03001973807285188285198312527012477D59
:102C13007A567B03795312196D9003561247AE12FD
:102C2300477D7A597B03794B12196D7A587B037967
:102C3300E112196D90036AE0C3940F502190035879
:102C4300E0C0E07402120A8AD0E0F07404120A8A27
:102C53007401F004120A8AAA82AB83121985750AD9
:102C630000780A12080A780A12080A900AC8E0F9DA
:102C7300122E7812084E850882850983122C96A39A
:102C8300F09003657403F0EEFAEFFB1247667405E8
:102C9300022A3BA3E08E828F8322125274E06822C1
:102CA300123D912274F512035E74D81208B28A0899
:102CB3008B098A828B83A3A3A31238DD7415120AAE
:102CC3008AAC82AD838A828B83A3A3A3A3A3A3A38A
:102CD300A3122E67FAA3E0FB120CCB7415120A8A17
:102CE300E0706B850882850983A3A3A3A3A3A3A391
:102CF300A3E0C3940B40578E828F83A3A3A3A3A304
:102D0300A3A3A3E064027046EE240B122A46F470D8
:102D13003D900365E06402603AE064066035900329
:102D2300341246DD6005122E61604F900365E06446
:102D3300086005E0640470167417120A8AE0F974D7
:102D43001C120A8AAC82AD83124AD4120CD17428A5
:102D530002579C9003341246DD701F7508007808F3
:102D630012080A780812080AEE241012297912525E
:102D7300C91235A1122E8112084E8E828F83124AF8
:102D8300501234CB1238B17402120A8A12477DEE04
:102D9300240D122A46C0E07404120A8AD0E0122ECF
:102DA3008AF508A3E0F509740F7808120A3C740544
:102DB300120A8AE508F07419120A8AE0C0E0740660
:102DC300120A8AD0E0F0741B120A8AE0C0E074078A
:102DD300120A8AD0E0F07416120A8AE0C0E074097D
:102DE300120A8AD0E0F07417120A8AE0C0E074086D
:102DF300120A8AD0E0F0EE2410122A46C0E0740AC8
:102E0300120A8AD0E0F0741A120A8AE0C0E0740B46
:102E1300120A8AD0E0F07427120A8AE0C0E0740C28
:102E2300120A8AD0E0F0741C120A8AA982AA838942
:102E3300088A09750A0078081208027C087D007464
:102E430010120A8AAA82AB8312428C12084E85188A
:102E530082851983AA82AB83120B99022D511231F9
:102E6300EE640122E0F98A828B83A3A3A3A3A3A325
:102E7300A3A3A3E022900363124FE7900359122AFE
:102E830034120D8B740222F0EE240B12479322129C
:102E93004796FA22F07A567B037953122EA2221216
:102EA30019737A597B03794B1219732290036312B6
:102EB3002A34120E39227B0012180B900359124F39
:102EC300E77A047B0012180B22F01252D42274F218
:102ED30012035E74F81208B2EAFEEBFF8C0A8D0B44
:102EE300890C851882851983AC82AD8375838075BF
:102EF300828F7408120762F50DEEFCEFFD851882D0
:102F0300851983AA82AB831249B17003750D0190B1
:102F130003B1803BEEFCEFFDE508240BFAE5093431
:102F2300001249B0601E850882850983A3A3E0656A
:102F33000C7011850882850983E0650A7004A3E09B
:102F4300650B6038E5082414F582E50912297C1223
:102F530034C3E50845096024E50DA2E040B68508C1
:102F630082850983E0650A7004A3E0650B70D5854B
:102F73000882850983A3A3E0650C70C8AA08AB097E
:102F8300740802239AC082C0839003B1023C567432
:102F9300F712035E9003B11239008012EA2414F58C
:102FA30082EB12297C1238DD121247EEFAEFFBEAAC
:102FB3004B70E99003B1E4F0A3F0024D2774F112D2
:102FC300035E8A088B09ECFEEDFF890A8A828B83F4
:102FD300124E908A828B83122C9612307E8A828BB9
:102FE30083A3A3E0C454F0FA88828983E04A1230B1
:102FF3008E122C96123088E0333354FCF88E828F75
:1030030083E048123088A3E033333354F8F88E82D8
:103013008F83E04812307E8508828B83A3A3A3A30A
:10302300A3A3E0A2E0E4331313FA88828983E04A7E
:10303300F0E5082407F50CEB1242921208027C0813
:1030430012428612084E124FC1E508240FF50CE513
:10305300093400F50D780C1208027C031242861223
:10306300084EE50AC3940F400D12314C12297C120D
:103073002C97A3A3A3F07F070205C2F0EEF8EFF9A4
:10308300A30EAF832212308EA3A322F08508828B76
:1030930083A3A32274F112035EEAFEEBFF890A8C79
:1030A300088D098E828F83E08C828D83123B6DAEF7
:1030B30082AF83E012434C1242BDC412434C12311F
:1030C30055E054038C828D831242BBA2E2E4338C1D
:1030D300828D831242BA131313541F12434C1242AC
:1030E300B9A2E7E4338C828D83A3A3A3A312315542
:1030F3008E0C8F0D750E00780C1208027C087D0073
:10310300E5082407124F5612084E124FC18E0C8F3A
:103113000D780C1208027C037D00E508240F124F82
:103123005612084EE50AC3940F40148E828F83A370
:10313300A3A3E0C0E012314C12297CD0E080061238
:10314300314C12550AF0023079E5082412F582E574
:103153000922A3A3123B710EAF832274F412035E00
:1031630074F91208B2EAFEEBFF89089003341246A1
:10317300DD600E1231E87009EEFAEFFB120E0380E8
:103183005F900363E06E7003A3E06F705374016597
:103193000860097A777B031249B170447A007B0295
:1031A3001237128B0BEA450B7036900366120A67CF
:1031B300851882851983120A7390036CE0C0E0744A
:1031C30004120A8AD0E0F07405120A8A7401F074BA
:1031D30006120A8A124CAE120B5DE9609B120B6356
:1031E3007407022A3B1231EE640222125290A3A307
:1031F300A3A3A3A3E02274F512035E8A088B098AB2
:10320300828B83A3AE82AF83E0F9120BB78E828FDA
:1032130083E064EB600C850882850983A3E064E1A5
:103223007009850882850983A3E4F012216A750A6F
:1032330001780A12080A850882850983A3E0F50844
:10324300780812080A7900122E7812084E120CDD43
:1032530002579FEAF0A3EBF0023C5974F612035EA7
:103263009003C3E0701B7C0079017A007B00120D90
:103273000DEA4B600C8A828B831246DD6003120CCD
:10328300650246E6C082C0831236FA401079FF1207
:103293000D07E9F8901F5EE493C398500479018009
:1032A300027900023C5974F012035E8A088B098983
:1032B3000B750C008A828B83A3A3A3A3A3A3A3A34D
:1032C300E0F9120D138A0E8B0FAE0EAF0F750A01C4
:1032D300EE4F6003023387850882850983A3A3A386
:1032E300A3A3A3124FE3850882850983A3A3A3A302
:1032F300A3A3A3124086124AE1120CFB8A0C8B0D86
:10330300AE0CAF0DEE4F70030234AA8E828F83A3EF
:10331300A3A3A3E4F0A3F0E508240B1234B6E0C0A2
:10332300E0122976D0E0F0120DD9EE240CF582EFED
:103333001246B1E508240EF582E5091238AEEE24F3
:103343000EF582EF12477A750C01EE2406F8EF12A0
:1033530034B2547FF0A3E054FC125326E0540460CB
:103363000302340D900AAA124077740778081209F1
:10337300C98E828F83A3A3A3A3A3A3E04508F0A3CD
:10338300E04509F08E828F83A3A3A3A31234C174F3
:10339300077808120A3CE5085407F508E50B607A3C
:1033A3008E828F83A3A3A3A3A3A3A3A3A3740212B5
:1033B30042BE240D123D86E0A2E2500B900351124F
:1033C30047AEA3A312477DE508700302347FEE24C2
:1033D30006F8EF3400F9E8FAE9FB8A828B83E054BC
:1033E3007FFCA3E054FCFDE50824FFF508E434FF6B
:1033F300F509740778081209C9EC4508F8ED450981
:10340300F98A828B8312477D80728E828F83A3A376
:10341300A3A3A3A3E04480023386E5087005750ADD
:103423000080598E828F83A3A3A3A3A3A3E0542078
:1034330060121211BDEA547F245F8E828F83A3A38F
:10344300A3A380238E828F83A3A3A3A3A3A3E05468
:1034530010600A1211BDEA540F240A80DD8E828F98
:1034630083A3A3A3A37401F0A3E41234CB740412C3
:1034730037098B09EA450970031246A4E50CA2E05B
:1034830050288E828F83A3A3A3A3124D14F9EEFABF
:10349300EFFB120D01E960121246D3600312389656
:1034A300EEFAEFFB121247750A00A90A024E9F12A9
:1034B300487122FAE5093400FB8A828B8322A3A395
:1034C300E0F508A3E0F509221234CF22124F72A3CC
:1034D300A3A3A3A32274F412035E74F71208B27EAB
:1034E30000120D13EA4B700302359A8A828B83A371
:1034F300A3A3A3A3A3A3A3A3E06406600302359A33
:103503008A828B83A3A3A3A3A3A3A3E0FF8A828BB3
:1035130083123D99E0C0E07408120A8AD0E01238A1
:10352300D11249B712477D120D25EF540860668505
:103533001882851983124FE37A007B00120CF58BF6
:103543000BEA450B704F9003631239C112199D7C2E
:10355300007D007A007B0080288E828F831238BB27
:10356300F47003A3E0F4602D9003631235A1124AB3
:10357300E1121583E9641A601C7C007D00EEFAEF0A
:10358300FB120CF58A0A8B0BAE0AAF0BEE4F70C918
:1035930079001219A37E01EEF97409022A3B123550
:1035A300A522E0FCA3E0FD8E828F8322C082C0832C
:1035B300EA4B70059003C480068A828B83A3A3120F
:1035C30037C160258A828B83A3A3A3A3A3A3A3E00C
:1035D300540860E5EC4D60158A828B831238BB6C0E
:1035E3007003A3E06D70D280047A007B00023C5923
:1035F30074F212035EEAFEEBFF890A8C088D097AE6
:10360300107B00121241EA4B603F8A828B83A3A393
:10361300A3A3A3A3A3A3A3E41238BFA3E50A12524F
:1036230096A31236568A828B83A3A3A3A3E4F0A3A3
:103633001238CBA3F012512AEA240CF582EB123B89
:103643005D12364FA3A3F0A3F002239DA3F08A8259
:103653008B8322A3A3E508F0A3E509F02274F412F7
:10366300035EEAFEEBFF89088C0A8D0BEE4F605573
:103673007401650870147901120D07E9F8901F6051
:10368300E493C398500F7911806A74046508702F0E
:103693001236FA40F18E828F83A3A3A3A3A3A3A31D
:1036A300A3A3E508123B6DA31258298E828F83A32F
:1036B300A3E4F0A3F09003C41246DD6021800D74EF
:1036C30002650860D079C1802BE0F8A31247A7A355
:1036D300A31237C188828983A3A370ED800390036B
:1036E300C4EEF0A3EF1237098B0BEA450B700312FC
:1036F30046A47900022A3E7904120D07E9F8901FC7
:103703005FE493C39822F012370E227A207B009055
:1037130003B0E0F91212D722C082C083E9F879001E
:103723009003C4801D8A828B83A3A3A3A3A3A3A313
:10373300A3A3E068600574FF687001098A828B8324
:10374300A3A31237C170DE023C5974F712035EEA79
:103753004B70059003C480068A828B83A3A3123720
:10376300C160248A828B83A3A3A3A3A3A3A3A3A33C
:10377300E06970E4EC60148A828B83E0240D124FBD
:10378300D4A2E240D380047A007B00024D27C0829A
:10379300C0839003C480068A828B83A3A31237C19C
:1037A30060128A828B83A3A3A3A3A3A3A3A3E06929
:1037B30070E580047A007B00023C593BF583122AB2
:1037C30034EA4B2274F212035E8A0A8B0B8C0C8D43
:1037D3000D750800750900EA450B602E9003C4803F
:1037E300068E828F83A3A3123814601EAC0CAD0D1A
:1037F300EEFAEFFB850A82850B83121B04E9640151
:1038030070DFEEF8EFF988088909AA08AB090223EB
:103813009DE0FEA3E0FFEE4F2274F712035E9003D8
:10382300C41238B17C007D00800DE8FCE9FD88827C
:103833008983A3A31238B1E8496030EA687002EBC8
:103843006970E79003C4124AE1E86A7002E96B8881
:10385300828983A3A370081238B19003C48009122C
:1038630038B18C828D83A3A312477D024D2774F751
:1038730012035EEAFEEBFFEE4F6015120D1F1238C6
:10388300E31246D36003123896EEFAEFFB121247A7
:10389300024D27EE240C1238A31238F822EE241D11
:1038A300F582EF3400F58322F582EF1238A6123C3D
:1038B3005022F582EF1238A61238D8221238C322CA
:1038C30012529EA3A3A3A3221238C3A3A322123688
:1038D300501238D822125289E022E0FEA3E0FF22E0
:1038E3008E828F83E0241C123D8A1238F88E828FD9
:1038F300831238F822123900FB12124722E0FAA38E
:10390300E022C082C083EAFCEBFDEC4D7004790534
:103913008044EC24FBF582ED34FF1246DB70071282
:10392300395CE0F460051211C980E39003B0E0C094
:10393300E012395CD0E0F09004DBE493F97AC67BC3
:10394300031211F3E96401700B7A007B201246A87D
:10395300790080027904023C59EC24FFF582ED34AE
:10396300FFF5832274F412035EA2AFE433F508C2B9
:10397300AF9003C61238146038EE24FBF582EF349F
:10398300FF1246DB7A007B209003B060051246AB42
:103993008005E0F91211FFE4F50AF50B780A120825
:1039A30006EEFCEFFD7AC67B031211ED74021208DA
:1039B3004EE508A2E092AFEEFAEFFB022A3E124F69
:1039C300E7851882851983AA82AB832274F21203D6
:1039D3005E74FC1208B2EAFEEBFF750AFE750BFF7C
:1039E300120CE3E960057911023B52EE2415122A09
:1039F300466037900ABEE0C43354E0F8E0333354F2
:103A0300FC48C0E0EE2415122979D0E0123B6D1278
:103A13003B638B09EA45096011750AFFEE240F1217
:103A23002A46440412478BD2E0F08E828F831223FE
:103A3300626006EE2412123B5AEE2413122A4670D9
:103A430010901F59E493C0E0EE2413122979D0E0BB
:103A5300F08E828F83E0A2E750045403801CEE248F
:103A630014122A467015900342E0C0E0EE241412AB
:103A73002979D0E0F0900342E004F0EE2411122AF9
:103A830046640170169005ABE0600D90034DE07045
:103A93000A8E828F83E07003123B578E828F83E0FE
:103AA30064017013EE240B1238B564027009EE241E
:103AB3000F122A464440F0851882851983AC82ADE3
:103AC30083EEFAEFFB120D498A088B0974FE650A2F
:103AD300700374FFF470098E828F83A3A3124F6265
:103AE300EA450960668E828F83E0C0E07401120AA2
:103AF3008AD0E0F07402120A8A12512E7401120A5B
:103B03008A85820C85830D780C120806EE240F1229
:103B13002979120691EE240E122A46F50C780C121E
:103B2300080A9003561206917407120A8AE0F9AC48
:103B33000AAD0B120D43740712084EE9FE74106EA2
:103B4300700BAA08AB0912124780027E10EEF974BB
:103B53000402239AEE2411F582EF1238A6E4F02230
:103B6300A3122A3479FF12127D22123B7122F08EA6
:103B7300828F83A322C082C08374DE1208B28A823A
:103B83008B83A3A3A3A31238B1740E120A8AE8F09D
:103B9300A3E9123C47740C120A8A123C40240DF527
:103BA30082EB122A49C0E0741A120A8AD0E0F0129A
:103BB3004EAFEB1238AE7420120A8A123C40241521
:103BC300F582EB122A49C0E07408120A8AD0E0F0A9
:103BD300EA241CF582EB1238AE7412120A8A123CE4
:103BE300402411F582EB122A49C0E07409120A8AB3
:103BF300D0E0123C3474FFF07401120A8A74FFF0AF
:103C03007402120A8A74FFF09080B612068D74044F
:103C1300120A8AAC82AD837407120A8AAA82AB8322
:103C2300120B8D740412084E7900742212084E8010
:103C330025123C3822F085188285198322E8F0A3E7
:103C4300E9F0EA22123650A3123C4F22A3E0F8A374
:103C5300E0F922124AE1D083D0820207E674EC1223
:103C6300035E74EE1208B28A128B13ECFEEDFF8929
:103C7300097426120A8A124F627428120A8AE0F51E
:103C8300107429120A8A123D7B742B120A8AE0F5FA
:103C93000EA3E0F50F7508107A1E7B001212417413
:103CA30002120A8A1246B57402120A8A1246DD709B
:103CB30003023D74851882851983AA82AB837950E8
:103CC300124590124AE17402120A8A123D99A31214
:103CD30046B57410120A8A12582B7402120A8AE02B
:103CE300240B123D867402F0120A8A123D99740263
:103CF300F0120A8A12528112512E7402120A8A1287
:103D03004AF6E509F07402120A8AE0240C123D8691
:103D1300E510F07402120A8A123D83E512F0A3E55E
:103D230013F07408120A8AE50CF0A3E50DF0740A87
:103D3300120A8AE510F0850E82850F83C082C08344
:103D4300740D120A8AAC82AD83D083D082740312BD
:103D53000762F97402120A8AAA82AB83120CE9E998
:103D63006401700575080080087402120A8A12380B
:103D73009CA9087412024F79E0F50CA3E0F50D221B
:103D8300E0241C123D8A22F8A3E0123D9122340064
:103D9300F98882898322124AE9A3A3A3A3A32274E5
:103DA300EE12035EEAFEEBFF8C088D098E828F8391
:103DB300A374081247C6E060088E828F83A3741031
:103DC300F0122A4360098E828F83A3E02408F0EE69
:103DD3002415122A4660088E828F83A3E004F08E96
:103DE300828F83A3A3A3A3A3A3E060198E828F83EF
:103DF300A3A3A3A3A3A3A3E0C3332402F88E828FB8
:103E030083A3E028F0EE2411122A466005750B0EF9
:103E13008003750B008E828F83A3C082C083EE2440
:103E23000D122A46D083D082F8E028250B8C828D90
:103E330083F0EE2411122A46600512429C28F08575
:103E43000882850983E0C3947540097508007509E4
:103E530000023F84E0FA7B001251DC7003023F84CE
:103E6300EEFAEFFB120D4FEA8508828509831246AD
:103E7300B6EE2402F8EF122CA312407E123FC0F0DC
:103E8300EE24040808EF122CA31244C6A3123FC069
:103E9300A3A3F0EE2413123FA6F0EE2414123FA6C0
:103EA300A3F0750A08EE2416122A466010EE2418B1
:103EB300124FE0E50824081252BF750A10122A4374
:103EC3006016EE241A124FE0850A0CE508250C1241
:103ED30052BF7408250AF50A8E828F83A3A3A3A376
:103EE300A3A3E06059EE2407F510EF3400F5118524
:103EF3001082F583E0C0E0123F8D12297CD0E012DE
:103F03003FB0E0C0E0123F8D12297CD0E0123FB0F9
:103F1300A3123F99120802851082851183E0C333EF
:103F2300FCE433FD850A0CE508250C124F561208F4
:103F33004E851082851183E0C333250AF50AEE24EA
:103F430015122A46600BC0E0123F8D12297CD0E087
:103F5300F0122976123F99120802EE240D122A4616
:103F6300FC7D00850B0A8E828F83A3E0F8E5082889
:103F7300F8E5093400F9E8250AFAE9124F5912085D
:103F83004EAA08AB097F0A0205C2850A0CE508257B
:103F93000CF582E50922E0F50CA3E0F50D750E00A2
:103FA300780C221238A3123FCAA3A3A322F0050A56
:103FB3008E828F83A3A3A3A3A3A3A3A322A3A3124A
:103FC300532AA3123FCA221244CAA3A32274F6128D
:103FD300035E8A828B83E0FC900353124077740262
:103FE30078081209C9EC4508FCAD09EA241212400D
:103FF30071740678081209C9EC4508FCED4509FD02
:10400300EA2415F582EB122A4960047801800278CC
:1040130000E4C8F9ED49FDEA2411F582EB122A49BF
:10402300F5088809740978081209C9ED4509FDEAFC
:104033002416124071740B78081209C9ED4509FD65
:10404300EA2417124071740C78081209C9ED450966
:10405300FD8A828B83A3A3A3A3A3A3124077740A2D
:1040630078081209C9ECFAED4509FB0246E6F58228
:10407300EB1238A6E0F50875090022E08508828571
:10408300098322A3E0F98508828509832274EE124D
:10409300035E8A0A8B0BECFEEDFF750F01E9C394F7
:1040A30008500579000242838E828F83E9F012441F
:1040B300EFE96003750F001244D38E828F8312459C
:1040C3001DEE124EB0EF124512C0E0EE241112297C
:1040D30079D0E012450AC0E0EE2412122979D0E02B
:1040E300123B6D7408124F6AA3A3A3E06015124438
:1040F300BBEE2413F582EF12477A8E828F83A3E0FF
:104103002408F08E828F83A3A3A3A3A3A3A3A3E076
:1041130060218E828F83A38582088583091244FEE2
:10412300EE2415F582EF12477A850882850983E02C
:104133002408F08E828F83A3A3A3A3A3E0601A8E27
:10414300828F83A38582088583091244E28E828F3E
:1041530083A3A3A3A3A31242AEEE2419123B5AEEE8
:10416300241B123B5AA31247BEE07003024217EE10
:104173002419F8EF3400F98E828F83A38582088592
:104183008309E0FAE50A2AF582E50B122A498882B7
:1041930089831242AEFAE50A2AF582E50B122A490F
:1041A300C0E0EE241A122979D0E01242AE88828947
:1041B30083E06059F8901F56E493C3985005751136
:1041C3000C8008EE2419122A46F5118E828F83A3E0
:1041D300E0F8E50A28F50CE50B124292120802E515
:1041E30011C333FCE433FD7A517B0912428C12086C
:1041F3004EEE241B1229797451F0A37409F0E511D2
:10420300C333F8850882850983E0288006EE2418E5
:10421300125507F08E828F83A3E0F88E828F83E09E
:10422300C39850030240A6A3E0FA8A08E50A2508CA
:10423300F8E50B3400F9EE241DF582EF12488612DF
:1042430042BEC39AC0E0EE2417122979D0E0124788
:1042530083602BEE2417F8EF3400F9880889098866
:1042630082F583E024F2124867240EFAA3E03400B7
:10427300FB888289831246B512429CC398F0A90F2A
:10428300023F887D00EEFAEFFB1211A5740322347E
:1042930000F50D750E00780C2290034EE0F9120A1A
:1042A300C7E9F8850882850983E022F085088285BD
:1042B3000983E004F022A3A3A3A3A3F08E828F8338
:1042C300E02274F412035E8A088B09EA124353F066
:1042D300EA1313543F12434CA3A3A3F0EAC41313EA
:1042E300124353A3A3F0EB12434512435D740978C1
:1042F3000A120A3C12434312435C740A780A120AF4
:104303003CE50A5401C0E0EC2418F582ED12297C47
:10431300D0E0124362740B780A120A3C124343A39F
:1043230012435C740C780A120A3C124343A3A3A3FE
:10433300A3A3A3A3A3F0740D7808120A3C0225A833
:10434300E50A54018C828D8322540F8C828D832243
:1043530054038C828D83A3A322A3A3A3A3A3A3F0BB
:104363008A0A8B0B22C082C08379008A828B83A343
:10437300A3A3A3A3A3E090034D600FE070228A825E
:104383008B83A3A3E07019098016E060138A828BE4
:1043930083124AD8900356E06A7003A3E06B70E778
:1043A300023C5974F012035E8A0A8B0B890C8C0849
:1043B3008D091244EF1244D385088285098312457F
:1043C3001DE508124EB0E509124512C0E0E50824C8
:1043D30011F582E50912297CD0E012450AC0E012EA
:1043E300314C12297CD0E012488E74081248A76021
:1043F300111244BBE508241312488212488EE024AC
:1044030008F0850882850983A3A3A3A3A3A3A3A379
:10441300E06017850882850983A31244FAE508241E
:10442300151248821242BE2408F08508828509834A
:10443300A3A3A3A3A3E06019850882850983A3AE80
:1044430082AF831244E28508828509831242B9044C
:10445300F0AA08AB09120D61E9F50D7056850882C3
:10446300850983A3A3A3A3A3A31244C67014E0FAEC
:104473008A0EE50A250EF8E50B12476FE50CC39A81
:1044830080211244FAE8240EF8E912476F90034E94
:10449300E0F9120AC78E828F83E0F8E50CC39824F3
:1044A300F2C399C0E0E5082417F582E50912297CD7
:1044B300D0E0F0A90D024E9FE50A2408F8E50B347D
:1044C30000F9221244CA22E0850882850983A322C7
:1044D300850A82850B83A3A3124533E0F9EA22E020
:1044E300F8E50A28F582E50B124796228A828B8328
:1044F300124EA4120D5B22AE82AF83E0F8E50A28C8
:10450300F8E50B3400F922124546A3A3A3E02212D7
:1045130038A6E812453FA3A3E022A3A3A3A3A3A322
:10452300A3A3A312453F124533A3A3E0F9EAF8225C
:10453300E0FA850A82850B83A3A3A322F0A3E912E1
:10454300454622F0850A82850B83A3A3A3A322C039
:1045530082C0837AD47B0379E212196D7AD47B0308
:10456300023C59C082C083900356023C56C082C0AD
:104573008374FE1208B2851882851983AA82AB83DD
:10458300794B124590124AE17402023C2F12196DC5
:1045930085188285198322C082C083794A12196DD6
:1045A300023C5974F612035E9003DCE0FE04F0EE65
:1045B300F9120D138B09EA450970EDEE60EAF90271
:1045C30046E674F012035EEAFEEBFF8C088D098960
:1045D3000A7410120A8AE0F50B7411120A8AE0F5C4
:1045E3000C120E3FEA4B7013E50C7042A90AAC089B
:1045F300AD09EEFAEFFB120E57806EE50A6021EA71
:104603002402F582EB122A49850A082508F8E434C6
:104613000013E813F070098A828B83A3A37401F05B
:10462300E50C6045E50B70068A828B83E4F0740128
:10463300650C7035E50B9003E37004E4F0802AE029
:1046430004F0900AABE0F89003E3E0C398401AE467
:10465300F0900359E06E7003A3E06F700CEEFAEF75
:10466300FB7901120BB112466F024E9F7A017B0058
:104673009003B0E0F91212D122C082C08374016AA0
:104683007001EB70077A011246A680129005A912F9
:1046930046B5EA4B6005122324800312466F023CA1
:1046A300597A207B009003B0E0F91211F92234000B
:1046B300F583EAF0A3EBF022C082C083900AA40240
:1046C3003256C082C083900AA602325612529022FA
:1046D300EE240CF582EF3400F583123C50E84922B6
:1046E30012084E7F020205C2A2F0E43385188285C8
:1046F3001983124707795212197322124707794215
:1047030012197322F0AA82AB8322AA82AB83120C02
:10471300C57AB37B0379451219732274F712035ECA
:1047230074ED1208B2E9FE9003AF124AFD12474A34
:104733007412120A8AEE124757851882851983125A
:10474300470D7413024D24900A75E0F97AB37B0385
:10475300120CCB22F0900A75E0F97CB37D0322AAF8
:1047630008AB099003B0E0F91211CF223400F9E548
:1047730008241DF582E5091238A6E8F0A3E9F02222
:10478300124F6EA3A3E022A3F0EE24151247932247
:10479300F582EF3400F583E0221247A0223400F5BE
:1047A30083E0F8A3E0F98882898322E0F81247B412
:1047B30022A3E0F98E828F83A3A322F0EE241812A2
:1047C30038A322F0EE24161238A32274F412035EE7
:1047D300EAFEEBFF7A007B0412467312485D124730
:1047E3007D9003657409F0120D6D8A088B09AC087E
:1047F300AD09EE2413122979124AE11249B1640179
:1048030070487A0F12485060418A828B8374021277
:104813004867FAA3E0FB8A828B83A3E0FC8A828B3E
:1048230083A3A3E0FBEC850882850983A3A3124637
:10483300B688828983124AE512407E12478AFAA318
:10484300E0FB794A121973124762022A3E7B001277
:1048530011C38A088B09EA450922900336123C509A
:10486300900AA622F0EE241DF8EF12487122123DA1
:1048730091E02212487A223400F5837401F022F584
:1048830082E5091238A6E8F0A3E92212489222121F
:10489300489622F0850882850983A322124896A3AD
:1048A300A3A3A32212489FA3A3E022124CB8120D84
:1048B300C722EE2417F582EF12487A120D6DEE240B
:1048C3001A1238A3EAF0A3EBF02274F412035E7415
:1048D300F31208B28908EAFEEBFF7C0D7D00790034
:1048E300851882851983AA82AB831211B1EE241D28
:1048F300122979125281A3E0F8741F58600A7901D2
:1049030012181179000249A8E8A2E55008740C12A4
:104913000A8A7401F0E8A2E75008740B120A8A7439
:1049230001F0E8A2E6740A5008120A8A7401F080C2
:1049330008120A8AE064017005EE24138003EE2452
:1049430015124FE07402120A8AAA82AB8312182945
:104953001229761249B612477D740A120A8AE06454
:10496300017033122357703B120D798A0A8B0BA8FF
:104973000AA90BEE240B122A46687003A3E06970A0
:1049830022120D6DEAFCEBFD7402120A8AAA82ABB5
:10499300831249B1600D851882851983AA82AB837E
:1049A300120BABA908740D022A3BEEFAEFFB1218A7
:1049B30023E922E01249BB22F8A3E0F98518828596
:1049C30019832274F612035E74F31208B28A088BF9
:1049D30009ECFEEDFF7C0D7D0079008518828519B9
:1049E30083AA82AB83125434A3A3A3A3A3A3A3A335
:1049F300A3124A50124A59F8A2E55008740B120A3E
:104A03008A7401F0E8A2E75008740A120A8A740152
:104A1300F0E8A2E6EE5004241380022415124FE0BE
:104A23007402120A8A124A42A3A3E0C0E0740C1271
:104A33000A8AD0E0124CB0120BA5740D0246E3AA09
:104A430082AB8312182985088285098322E01249E3
:104A5300BBE8F0A3E922F01238A0125285A3E022AA
:104A630074F712035E74E11208B2EAFEEBFF8E8262
:104A73008F83124AE5A3A3A3E0A2E050518E828F55
:104A8300831224B78A828B83A3A3A3A3A3A3E05493
:104A9300FE124AFD8A828B83124AF6E0F98A828BE0
:104AA30083E0241CFAA3E01234B9124AE1120D6721
:104AB300E9701B741D120A8A124AF070118518825C
:104AC300851983AC82AD83EEFAEFFB120DB5024D6F
:104AD300228E828F83A3A3A3A3A3A3A3A3A3122A98
:104AE3003422124AE922125289A3A3A3221238D8EC
:104AF300640422E0241B123D8A22123C38AC82ADAE
:104B03008322E9F87900740468600A740A6860050E
:104B13007403687001090207E674F612035E8A8261
:104B23008B837420F0A3A37401F0120B518A088BBA
:104B330009AE08AF09EE4F60108E828F837401F0C7
:104B43009003A3E070031248B5EEFAEFFB0246E6CA
:104B5300C082C0839003C87401F0E9A2E3500374D8
:104B630003F0E9A2E15004E0D2E2F0023C5974F60A
:104B730012035E79007C008A088B09780812060804
:104B8300F8FF07A44BA24BA24BA24BA24B9B4B9FFC
:104B93004BA44B984B0C80097C0480050C80F67C5D
:104BA300089003C8E05C6003098003EC600109021C
:104BB30046E674F612035E8A828B83E07012A312B8
:104BC30046DD600C8A828B83124AE0121A5D8004F0
:104BD3007A007B000246E674F512035E74F3120852
:104BE300B28A088B09ECFEEDFF750A12EA450970DB
:104BF300057900024CA9900356E065087004A3E010
:104C030065097014120D6DEAFCEBFD1249AD7005D8
:104C1300750A018003750A00851882851983E4F0FB
:104C230004120A8AE508F0A3E509124CB0120B1529
:104C3300E960277403120A8AAA82AB83120AF7E98E
:104C430064017016750A017403120A8AAC82AD837B
:104C53001249AD6021750A00801C7412650A701632
:104C63009003A2E06402700EEEFCEFFDAA08AB090C
:104C7300120B2DE970DFEEFCEFFDAA08AB09120E53
:104C830045E9F8740A687005750A01801774A0680D
:104C93007012EEFCEFFDAA08AB09120E51AA08AB85
:104CA30009120E63A90A740D02579C7402124CB4C4
:104CB30022124CB822123C38AA82AB832274F71218
:104CC300035EEAFEEBFF8E828F83A3A3A3A3A3A3BA
:104CD300A3A3E06015EE2415122979122A24120DDC
:104CE300DFE964017004790180258E828F83A3A399
:104CF300A3A3A3A3A3E06015EE2413122979124DF5
:104D030014FAA3E0FB120DDFE9640160D979008096
:104D1300131235A5A3A3A3A3A3A3A3A3A3E0227460
:104D23001F12084E7F010205C274F012035E74FD68
:104D33001208B28A088B09ECFEEDFF890B7413127B
:104D43000A8AE0F50C750A017401120A8A740412C6
:104D530052B96048E50C601DEA2417F582EB125541
:104D63000A1252A78A828B83E0D2E7F0EA2414F571
:104D730082EB123B5D124EAFEB12479C7403125849
:104D83002DEE88828983A3A3F0EF88828983A3A36E
:104D930012364F123656120B4BE9F50AA90A740361
:104DA300024E9C74EC12035E74F51208B28A0A8BED
:104DB3000B890C8C0E8D0F741F120A8AE0F50D748B
:104DC30020120A8AE0F510A3E0F5117E01EE120A23
:104DD3008A740AF0E97007E50DC333240AF0124F11
:104DE300817003024E83124F967409F0A3E50CC43D
:104DF3003354E0450D124FA8E50C702D7C00802341
:104E0300ECC333F8E433F9E51028F8E51139F988F0
:104E1300828983124E9088828983122C96F0A30E86
:104E2300AF830CECC3950D40D7E5082417F582E555
:104E330009124876120D6DE508241AF582E5091268
:104E430046B17403120A8AAC82AD83AA0AAB0B1271
:104E53000AFDE96019E5082416F582E509124E8A70
:104E6300120A8AA882A983E50824181247768508BE
:104E730082850983125829AA08AB09120B4BE9FE54
:104E8300EEF9740B024F7912487A740322E08E8292
:104E93008F83F0A3AE82AF832212084E7F080205F0
:104EA300C2123900F9EA2400E439FB22EA240BF5A3
:104EB300822274EE12035E8A0C8B0D890E8C088D90
:104EC300097412120A8AE0F50F7413120A8A124F38
:104ED300629005181246DD6077E50FC333F8E433BB
:104EE300F9E8240EFAE93400FB1211C38A108B117E
:104EF300AE10AF11EE4F60588E828F8374D4F0A33F
:104F0300A3E50CF0A3E50D124F6AE50EF0AC08AD76
:104F130009EE2405FAEF1252C2EE240D122979E5A7
:104F23000FF0850A08850B09750A00780812080234
:104F3300E50FC333FCE433FDEE240EFAEF124F59B1
:104F430012084EEEFAEFFB900518125281121B0461
:104F5300023F88FAE5093400FB1211A5740322E02D
:104F6300F50AA3E0F50B22124F6E22124F722212A2
:104F73003B71A3A3A32212084E7F0C0205C285181E
:104F830082851983AA82AB83120DC78A088B09EA2B
:104F9300450922EA240BF582EB124796FEA3E0FFB4
:104FA3008E828F8322F0A3AE82AF83AC0EAD0FEE61
:104FB300FAEFFB124FBA22121829124FC122EE2424
:104FC30008FEEF3400FF22E0FA8E828F83A3A3E072
:104FD30022FEA3E03400FF8E828F83E0221238A3E7
:104FE300124FE722E0FCA3E0FD22122A34120D55F2
:104FF3002274F712035EE9FE7C007D0078007900DD
:10500300800D1250B2E02CFCA3E03DFD1256CC12F1
:105013005735502CE8FAE9FBEA75F012A4FAAFF021
:1050230075F012EBA42F1256D5F460E01250B912AA
:1050330037BE60D8EE60CB1250B2E4F0A3F080CC60
:1050430078007900800D125092E02CFCA3E03DFD26
:105053001256CC1257285030E8FAE9FBEA75F017DC
:10506300A4FAAFF075F017EBA42F1257047003A343
:10507300E0F460DC1250991237BE60D4EE60C712C0
:105083005092E4F0A3F080C8ECFAEDFB024D271236
:1050930050993BF58322E8FAE9FBEA75F017A4FA85
:1050A30075F017EBA42FFB74F22AF5827407221212
:1050B30050B93BF58322E8FAE9FBEA75F012A4FA4A
:1050C30075F012EBA42FFB74732AF5827406227415
:1050D300F612035EEAFEEBFF9003C9801388828910
:1050E30083E06E7003A3E06F603A88828983A3A391
:1050F3001246DD70E87A047B001212418A088B099C
:10510300A808A909E849601C8882898312512E9056
:1051130003C9124AE188828983A3A31246B5900387
:10512300C912477D0246E68A828B83EEF0A3EFF035
:105133002274F412035E7E009003C980070E8882F6
:105143008983A3A31246DD70F4EEC333FAE433FB81
:105153001251DC607E7F009003C98024888289839A
:10516300124FE3EFC333FAE433FBE5082AF582E594
:10517300093BF583ECF0A3EDF00F88828983A3A3A9
:105183001246DD70D79003AB1223917003A3E0693D
:1051930078087019120806EEF50A780A12080A7CD4
:1051A300777D0379009003AB1251E7801A1208064A
:1051B300EEF50A780A12080A7C777D0379009003DA
:1051C300AB124AE1120DF1740312084EAA08AB099F
:1051D300121247120B63022A3E1212418A088B09EC
:1051E300EA450922122A34120DF722C082C08380B5
:1051F300128A828B83A3A31238B19003C912477D0D
:105203001212479003C91237C170E6023C5974F673
:1052130012035E9003631238DD9003DD12527012A5
:10522300477D7ADD7B0379501219739003DD1225D4
:10523300B0FAEFFB120E5D9003DD1238DD90051A14
:105243001246DD60257A067B001211C3EA4B601A11
:105253008A828B8374D5F0A3A3E41252960412526C
:10526300A790051A125281121B040246E6125274C9
:1052730022E0F8A3E0F9900363228E828F83125217
:10528300852212528922E0F812528F22A3E0F5837D
:1052930088822212529A2212529E22F08A828B8391
:1052A300A3A3A32212529AA3EEF0A3EFF022F58256
:1052B300EF124796F9221248AEEA4B22FAE5093477
:1052C30000FB121829221247B5A3A3A3A3A3A3A3E8
:1052D30022901F54E4932401F8E43400F97A027B0A
:1052E300002274F712035E7E0080041258E00E124F
:1052F300540440F77E00EE12531174FEF0A304121F
:105303005326E4F00EEEC3940340EB024D2775F0F1
:1053130003A4F8A9F074CB28F8740339F9888289B7
:1053230083A32212532A22F0888289832274F712DC
:10533300035E7F0080010F901F5AE493F8EFC39838
:105343005026EF1254F06A7003A3E06B70E8125812
:105353008D6C7003A3E06D600A74FF6C700374FFBF
:105363006D70D31253ED80047A007B00024D2774D5
:10537300F612035E7CFF7DFF7AFE7BFF120E21EAAD
:105383004B70407508008036E50875F017A4F8A93E
:10539300F074EC28F5827407125502600C74EB2844
:1053A300F5827407125502701374DD28FE740739F1
:1053B300FF8E828F8312550FEEFAEFFB050812540E
:1053C3006A40C50246E674F412035E8A088B09EC50
:1053D300FEEDFF800B120E33EEFCEFFDAA08AB09C6
:1053E300120E21EA4B70EE022A3E74DD28FA74078E
:1053F30039FB22EE75F017A4F8A9F01254FB64FEF2
:1054030022901F5AE493F8EEC3982274F712035EB6
:10541300EAFEEBFFEE4F601012542E74FEF0A3046D
:1054230012583314F0A304F0024D277C177D007942
:10543300001211B18E828F832274F712035EEAFE8B
:10544300EBFF7508008018E50875F017A4F8A9F0BC
:105453001258987003A3E06F60031258E80508120E
:10546300546A40E3024D27901F5AE493F8E508C3BA
:10547300982274F612035E120E218A088B09A8087B
:10548300A909E849600AE8240DFAE93400FB80041D
:105493007A007B000246E674F412035E8A0A8B0BE1
:1054A300ECFEEDFF750800750900802EE50975F027
:1054B30017A4F8A9F01258D3601EE5091254F06539
:1054C3000A7004A3E0650B700375080AEEFCEFFD98
:1054D30012578F60034308A00509901F5AE493F8FD
:1054E300E509C3985004E50860C20225A875F017C2
:1054F300A4F8A9F01254FB2274DD28F5827407394D
:10550300F583E022F582EF1238A6E422122A341240
:105513000C472212532AA3A3A3A3A3A3A3A32274D6
:10552300F212035E8A088B09ECFEEDFF740E120A79
:105533008A124F62750C007C007D0180101211BD30
:10554300E50CF5F0EA84ACF0750C007D0078007989
:105553000080031256CC12572840030255EEE8FA96
:10556300E9FBEA75F017A4FA85F00D75F017EBA4C3
:10557300250D1257047003A3E0F460D71256E265B9
:10558300087004A3E0650960CA1256E26E7003A3B3
:10559300E06F60BF1256E2650A7004A3E0650B601A
:1055A300B2E8FAE9FBEA75F017A4FA75F017EBA471
:1055B300250DFB74EB2AF58274071256C3509474BD
:1055C300016D050C608DE50CC39C4087E875F017F1
:1055D300A4F8AAF075F017E9A42AF974DD28F58276
:1055E300740739F583124AE10256C07800790080C6
:1055F300031256CC12573540030256A7E8FAE9FBCB
:10560300EA75F012A4FA85F00D12571464FE7003C4
:10561300A3E0F460DC12570A65087004A3E065098F
:1056230060CF12570A6E7003A3E06F60C412570A6B
:10563300650A7004A3E0650B60B7E8FAE9FBEA7555
:10564300F012A4FA75F012EBA4250DFB746C2AF585
:105653008274061256C35099E8FAE9FBEA75F01210
:10566300A4FA75F012EBA4250D1256D564016081DE
:10567300E0640270030255F474016D050C700302BB
:1056830055F4E50CC39C50030255F4E875F012A4DD
:10569300F8AAF075F012E9A42AF9746328F5827464
:1056A300060255E5E50C6011EC700E7401650C60A3
:1056B300030255407C0102554B7AFE7BFF02239D7A
:1056C3003BF583E014C3940622E8240108E934007F
:1056D300F922FB74672AF58274063BF583E022E81E
:1056E300FAE9FBEA75F017A4FA75F017EBA4250D98
:1056F3001256F722FB74DD2AF58274073BF583E02B
:10570300221256F764FE22E8FAE9FBEA75F012A4C6
:10571300FA75F012EBA4250DFB74632AF582740667
:105723003BF583E022901F5AE493FAC3E89AE99485
:105733000022901F4CE493FA740193FBC3E89AE9A7
:105743009B2274F512035E8A088B09ECFEEDFF754C
:105753000A008002050A901F5AE493F8E50AC398E9
:105763005028EEFCEFFDE50A75F017A4F8A9F01236
:10577300578F60E0E50A75F017A4F8A9F074DD28E7
:10578300F582740739F583123658801074DF28FACE
:10579300740739FB121823E92212084E7F0302050E
:1057A300C274F012035E8A088B098C0A8D0B890C74
:1057B300120E278A0E8B0FAE0EAF0FEE4F605512EF
:1057C300542EE508F0A3E50912583312582BE50CC3
:1057D300600AEE240F122979E50C8006EE240F12DD
:1057E3005823F09003DF1246DD601A9003AAE064A9
:1057F300017008EE240E1255078010EE240E1229B4
:105803007974078006EE240E125823122ECC12024E
:105813007D12581A024E9FEE240D1238A3E8F0228F
:105823001238A3740122A3A3E50AF0A3E50BF02227
:105833001234CFA32274F512035E8A088B09ECFE9F
:10584300EDFF750A00800F1258987003A3E06F6094
:10585300031258E8050A901F5AE493F8E50AC3981F
:105863005025E50A75F017A4F8A9F012588D6508BC
:105873007004A3E0650970CF74E728F582740739D3
:10588300F58312512E80CD02579F74E728F5827459
:10589300071255022274E728F58274071255026E27
:1058A3002274F712035EEAFEEBFF7508008019E528
:1058B300081254F06E7003A3E06F700A1258D3708D
:1058C30005E5081258E1050812546A40E2024D2723
:1058D30074DF28FA740739FB120AF7E922EE75F030
:1058E30017A4F8A9F01253ED120E332274F7120322
:1058F3005E7E0080131253F67003A3E0F460081277
:1059030058D370031258E00E12540440E8024D2796
:1059130012532A123C50E84922C082C08374F81201
:1059230008B2851882851983AC82AD83758380752F
:10593300827F7408120762851882851983AC82AD51
:10594300831249B1640170047900800279017408FB
:10595300023C2FC082C0838A828B83E0D2E7F0129D
:1059630013910263EAC082C0837900125E2212732C
:10597300FFC082C083900330127021D083D082C3D2
:10598300E09CA3E09D500C1275CEFAA3E012599946
:105993006001090263EAFBEA75F00BA4FAA8F0754B
:1059A300F00BEBA428FB900332E02AF8A3E03B883A
:1059B30082F583E0540F2274F712035E8908125EA6
:1059C30022125EC8ACF075F00BE9A42CF9900332F7
:1059D300E028FEA3E039FF740165086006740265E0
:1059E3000870208A828B83125EB4126AD4740265B3
:1059F30008701B125D73125EFB70138E828F83E43B
:105A0300F0800BEA2403FCEB125E96125EA2EEFA20
:105A1300EFFB120ACD02671D74F412035E1279C202
:105A230079008E828F83E06076890A890B8065E531
:105A33000A75F00BA4FAA8F075F00BE50B1259A642
:105A43007046E50A75F00BA4F8AAF075F00BE50BA8
:105A5300125EDA8E828F83E0850882850983125F66
:105A6300BC850882850983A3126AD4EE2403FCEF64
:105A7300125E9F1265C1127379AA08AB09120ACD8F
:105A8300790190033012703CE50A2401F50AE50B15
:105A93003400F50B125D7BE50A9AE50B9B409002FF
:105AA300688D74F512035EEAFEEBFF740B120A8A2B
:105AB3001265C6750A01EC4D602BEC1279DEED120E
:105AC30073FF126ACC7901120AD9E5084509606FA0
:105AD300850882850983A31279CC7902AA08AB09C8
:105AE300120AD9805AE5084509602B127403126C17
:105AF300F61265C2125EE5700CEEFAEFFB120ADFD6
:105B0300E9F50A80CBEE2403FA125E1D70317903A6
:105B1300EEFAEFFB80CA8E828F83A3E064FE7003EC
:105B2300A3E0F4700BEE24030A0A0A125E1D700C44
:105B3300EEFAEFFB120ADFE9F50A8003750A00A902
