:020000040000FA
:06000000020A2F0202308B
:03002B0002089335
:0300530002015651
:03007B0002053942
:100083000201BD0101FF0503010F7F107F107F10E7
:100093007F103B0F350F7F102E1E00000000901EB7
:1000A300000000000C0000000C0001FFFF01010133
:1000B30000E1040000005505B8010202000000023F
:1000C30005020701051E02051E020A0A03B80B02F8
:1000D300803E010201FFFF020A011401E09651185C
:1000E3000002020612FFEF790A420B00080F1A15ED
:1000F3001A1B1A211A000000000000000000000073
:1001030000000000000000000000000F1A151A1B79
:100113001A271A0000000000000000000000000081
:1001230000000000000000000010202020202020FC
:100133002020202020202020202001100401000165
:100143000005758001C2801104010001000575805E
:1001530001C280C0E074F11203D8A2AFE433FED22F
:10016300AFE5A7FFE5A1F5085FF509741055096030
:100173000612167F75A1EF740855096008121685DB
:1001830075A1F7802BEFA2E0C0D0E508A2E092F0C2
:1001930012097C158182F05017906198E0F8900560
:1001A300FDE0C398A2D265D0335002E8F075A1FEFA
:1001B300EEA2E092AF7F0202048FC0E074F212035A
:1001C300D8A2AFE433FED2AF9061A4E0F8759B00F0
:1001D300E59158540860087591F71216C7802AE50F
:1001E3009158541060087591EF1216CD801BE8A248
:1001F300E0C0D0E591A2E092F012097C158182F073
:100203005007E0C2E0F01218119061A3E0F8E5E9AD
:10021300585404600E1217E775E9FB906193E0A24E
:10022300E640F2EEA2E092AF7F0102048FC0E074D9
:10023300F21203D8A2AFE433FED2AF9061A5E0F887
:10024300E5BF585404600675BFFB12182380D4C35E
:10025300E498F8E499F91202938026C3E49AFAE445
:100263009BFBE920E7E9120293E498F8E499F92269
:10027300C3E498F8E499F9120293E498F8E499F93D
:10028300C3E49AFAE49BFB22EB20E7CFE920E7E003
:10029300B90010BB0008E88AF084F8AAF022E4FB56
:1002A300C8FA22EB70227B10C833C8C933C9335054
:1002B30007C39AC3DBF280069A50012ADBEAC833EC
:1002C300F4C8C933F4C9FA2275F008E4C833C8C9BD
:1002D30033C933C99AC99B5004C92AC93BD5F0EC29
:1002E300FBC833F4C8E4C9FA22080808EAC0E0EB03
:1002F300C0E086F0E7A4FA180986F0E7A42AFA1802
:100303000986F0E7A42AFA180986F0E7A42AFA195D
:1003130086F0E7A4FBE5F02AFA190886F0E7A42B98
:10032300FBE5F03AFA190886F0E7A42BFBE5F03A6F
:10033300FA18180986F0E7A4C5F02BFBE43AFA197A
:1003430008E7C5F0C6A426F6E5F03BFBE43AFA1845
:1003530086F0E7A4F6E5F00826F6E43B08F6E43A6F
:1003630008F6D0E0FBD0E0FA222518C582C0E0E50C
:100373001934FFC583C0E0E518C3958224F810AF94
:10038300088583198582188008858319858218D288
:10039300AFCEF0A3E520F0A37808E608F0A3DEFAD9
:1003A300EFF0A3E58124FAF8E608F0A3E608F0A34A
:1003B300E608F0A30808E608F0A3E608F0A3158111
:1003C3001581D0E0FED0E0F8158115811581E8C0D4
:1003D300E0EEC0E022C0D02518C582C0E0E51934A4
:1003E300FFC583C0E0E518C3958224F310AF0885E9
:1003F30083198582188008858319858218D2AFC82E
:10040300F0A3E9F0A3EAF0A3EBF0A37908E709F07E
:10041300A3D8FAECF0A3EDF0A3EEF0A3EFF0A3D092
:10042300E0F0A3D0E0F0A3D0E0F0A3E520F0A3E553
:10043300F0F0A322120A91B90003020479E49003B5
:1004430001788A79088002F0A3D8FCD9FA900A8A45
:10045300AA82AB8390008678D179018015E493A3B7
:10046300AC82AD838A828B83F0A3AA82AB838C8216
:100473008D83D8E9D9E775822C75838E74031207AF
:10048300F27582D175831B74001207F28519838577
:100493001882E0C0E0A3E0F9A3E0FAA3E0FBA378AD
:1004A30008E0F608A3DFFAE0FCA3E0FDA3E0FEA367
:1004B300E0FFA3E0C0E0A3E0C0E0A3E0F5D0A3E049
:1004C300F520A3E0A3F5F010AF0885831985821802
:1004D3008008858319858218D2AFD082D083D0E07B
:1004E300F8D0E0320A75F0108E1A8F1B85821F85B3
:1004F300831E851882851983E0CEA3E0CF851F82F2
:10050300851E83EBC9EAC8EDCBECCAC3E833C8E95F
:1005130033C9EA33CAEB33CBC3EA9EF51DEB9FF530
:100523001CB35004AB1CAA1DEC33CCED33CDD5F07A
:10053300DAAE1AAF1B22C0E074F21203D8A2AFE402
:1005430033FED2AFE58AA2E350137CF47D017A1027
:100553007B00900A79E0F912133D538DF7E58AA2E7
:10056300E250137CF47D017A207B00900A79E0F954
:1005730012133D538DFB758A00C2EBEEA2E092AFDE
:100583007F0102048FD083D082ECC0E0EDC0E0E4B1
:1005930093A3FCE493A3FDED4C600D120660EC24E1
:1005A300FFFCED34FFFD80EFE493A3FCE493A3FD94
:1005B300ED4C600D1206FDEC24FFFCED34FFFD80D5
:1005C300EFD0E0FDD0E0FCE493A3C0E0E493C0E00F
:1005D30022D083D082E9C0E0E493A3C386F0C5F0C0
:1005E30095F0F908E493A386F0C5F095F0700BE459
:1005F30093A3C3994005E9048002A3E475F002A420
:100603002582F582E5F03583F583D0E0F9E493A301
:10061300C0E0E493C0E022851983851882E0A3FE3D
:10062300E0A3F5207808E0A3F608DFFAE0A3FFE0F3
:10063300A3C0E0E0A3C0E0E0A3C0E0E0A3C0E0E02B
:10064300A3C0E010AF0885821885831980088582CE
:1006530018858319D2AFD083D0820207F8C0E0C3D4
:10066300E49396087401939618400FE49366700818
:1006730008740193661870007019A3A3C3E49396DA
:10068300087401939618A3A3400DD0E0D0E0D0E006
:100693000205C4A3A3A3A3A3A3D0E02274048004EC
:1006A30074028000CCC0E0EDC0E0E518C39CCCAD83
:1006B3001950011D10AF068C188D1980068C188DEA
:1006C30019D2AF120774D0E0FDD0E0FC227402808F
:1006D30000CCC0E0EDC0E0E518C39CCCAD195001DF
:1006E3001D10AF068C188D1980068C188D19D2AF8A
:1006F300120752D0E0FDD0E0FC22C0E0C0F088F049
:10070300E4936670080874019366187000A8F0A358
:10071300A3700BD0F0D0E0D0E0D0E00205C4A3A3D7
:10072300D0F0D0E022D083D082CCC0E0E493A360A9
:10073300061207B41470FAE493A360061208DA14DD
:1007430070FAD0E0FCE493A3C0E0E493C0E022CAD3
:10075300C0E0E493A3C582CCC582C583CDC583F035
:10076300A3C582CCC582C583CDC583DAE5D0E0CAF3
:1007730022CAC0E0E0A3C582CCC582C583CDC583B0
:10078300F0A3C582CCC582C583CDC583DAE6D0E0AC
:10079300CA22C008C3E096F50808A3E096420808F9
:1007A300A3E096420808A3E09645087001D3D00859
:1007B30022C0E0E493A3D39C5010E493A3C39C40D2
:1007C3000AD0E0D0E0D0E0020745A3A3A3D0E02203
:1007D3007009080808226016181818C6C333C6081B
:1007E300C633C608C633C608C633C6D5E0EA22C038
:1007F3009FF59FE473D09F22D083D082C09FE49360
:10080300C0E0740193C0E0740293F59F22740480E6
:100813000A74038006740280027401C0E0F40412B7
:10082300082BD0E0120A6C222518F58210AF08F5C8
:1008330018400215198008F51840021519D2AF8522
:10084300198322C0D0251810AF08F51850020519D6
:100853008008F51850020519D2AFD0D022BB01028F
:10086300E722C082C08389828A83BB0003E08002BF
:10087300E493D083D082226016080808C6C313C647
:1008830018C613C618C613C618C613C6D5E0EA227F
:10089300C0E0C0D0E8C0E0E5A8D2AFC2C7A2E792EB
:1008A300AFD0E0F8D0D0D0E032C3E0C696F608A3CC
:1008B300E0C696F608A3E0C696F608A3E0C696F649
:1008C30022251810AF08F518400215198008F518ED
:1008D30040021519D2AF22C0E0E493A36C7009D093
:1008E300E0D0E0D0E0020745A3A3D0E022E06670A9
:1008F3001008A3E066700A08A3E066700408A3E08A
:100903006622C3E09608A3E09608A3E09608A3E056
:1009130096A2D265D03322E76670100809E76670A5
:100923000A0809E76670040809E76622C3E096F03F
:1009330008A3E096F008A3E096F008A3E096F0225F
:10094300E026F008A3E036F008A3E036F008A3E0C1
:1009530036F022E627F60809E637F60809E637F601
:100963000809E637F622E026F608A3E036F608A3E0
:10097300E036F608A3E036F622C0E0E8C0E0E58101
:1009830024FCF8E6A2E7D0E0F8D0E022E647F60838
:1009930009E647F60809E647F60809E647F622E6B8
:1009A30057F60809E657F60809E657F60809E65721
:1009B300F622E056F608A3E056F608A3E056F6083A
:1009C300A3E056F622E056F008A3E056F008A3E0B1
:1009D30056F008A3E056F022700422600D18C6C337
:1009E30033C608C633C6D5E0F41822E4C396F60826
:1009F300E496F608E496F608E496F622C6F4C608EA
:100A0300C6F4C608C6F4C608C6F4C622C3E79608E9
:100A130009E7960809E7960809E79622C3E09608CE
:100A2300A3E09608A3E09608A3E0962275D000758C
:100A3300814075180175190300020437E0F608A315
:100A4300E0F608A3E0F608A3E0F622600C08C6C3AC
:100A530013C618C613C6D5E0F422E6F008A3E6F0E1
:100A630008A3E6F008A3E6F022CAC0E0E6F0A30874
:100A7300DAFAD0E0FA22E0FAA3E0FBA3E0FCA3E079
:100A8300FD22EAF0A3EBF0A3ECF0A3EDF022E5C71F
:100A930054F84401F5C77901222518F582E4351984
:100AA300F58322C2AF75D69F020000221207FBE333
:100AB300AA011207FB2BAB011207FB7FAB01120745
:100AC300FB9BAB011207FBCFAB011207FB04AC018D
:100AD3001207FBFBAC011207FBB0AD011207FBFFD2
:100AE300AF011207FB52B1011207FBF5B101120767
:100AF300FBE6B2011207FB87B3011207FBA5B301A3
:100B03001207FBED5C001207FB225D001207FB4896
:100B13005D001207FB825D001207FB945D00120764
:100B2300FBE65D001207FB475E001207FBD15E0088
:100B33001207FB755F001207FBBD5F001207FBF78F
:100B43005F001207FB1460001207FB3960001207F5
:100B5300FB8B60001207FBA460001207FBCA600056
:100B63001207FB0561001207FB4961001207FB70C6
:100B730061001207FBC161001207FB7162001207DB
:100B8300FB2963001207FBF163001207FBCE64002D
:100B93001207FB5465001207FB6365001207FB6E27
:100BA30065001207FB7766001207FB8866001207D1
:100BB300FBFE66001207FB9067001207FBE8670065
:100BC3001207FBAE68001207FBDF68001207FB2465
:100BD30069001207FB3169001207FBC56A0012079F
:100BE300FB2A6C001207FB666C001207FB826D0088
:100BF3001207FBEC6F001207FBF76F001207FB01F4
:100C030070001207FB0C70001207FB16700012072E
:100C1300FB2070001207FB2B70001207FB367000DD
:100C23001207FB6770001207FB8B70001207FBAF04
:100C330070001207FB1471001207FB5871001207B2
:100C4300FB7471001207FBEB71001207FB237200A8
:100C53001207FB6F72001207FBCC72001207FBAE88
:100C630074001207FB3475001207FB0D76001207A0
:100C7300FB1D79001207FB7279001207FB9F7900B5
:100C83001207FBEB7A001207FB3B7B001207FB907A
:100C93007B001207FB917C001207FB297D001207E2
:100CA300FBAB7D001207FB4B7E001207FB322100DA
:100CB3001207FB6B21001207FB4523001207FB847D
:100CC30023001207FBCE23001207FB732400120735
:100CD300FBD224001207FB0625001207FB73250035
:100CE3001207FB9026001207FB9827001207FB2E22
:100CF30028001207FB752B001207FB1E2C0012079E
:100D0300FBFA2C001207FB5B2D001207FB782E0069
:100D13001207FBA230001207FB5931001207FB63D5
:100D230031001207FB9131001207FB6832001207F2
:100D3300FB2F33001207FBCA33001207FB2F3400CB
:100D43001207FB5834001207FB7A34001207FBA981
:100D530036001207FB8037001207FBC43700120767
:100D6300FB3138001207FBEC38001207FB1E390079
:100D73001207FB6239001207FB9839001207FBEDDB
:100D830039001207FB423A001207FBD63A0012075A
:100D9300FB383B001207FBA03B001207FB493D0059
:100DA3001207FB313E001207FB733F001207FBA142
:100DB30041001207FB6142001207FB964400120731
:100DC300FB3945001207FB7745001207FB23470059
:100DD3001207FB3747001207FB4147001207FB6B63
:100DE30047001207FB7747001207FB9647001207DD
:100DF300FB4D48001207FB8C48001207FB96480086
:100E03001207FBA048001207FBEB48001207FB4E3A
:100E130049001207FB554A001207FBB54A001207A7
:100E2300FB654B001207FB644C001207FB5D4D0092
:100E33001207FBFA4D001207FB9C4E001207FBB38F
:100E43004E001207FBEA4E001207FB084F00120781
:100E5300FB4C4F001207FB714F001207FB5750006A
:100E63001207FBC350001207FB3D51001207FB4C56
:100E730052001207FB8B53001207FB695400120741
:100E8300FBCB54001207FB8555001207FBA8550046
:100E93001207FB7C56001207FBC756001207FB091B
:100EA30057001207FB6057001207FBA557001207F4
:100EB300FBD357001207FB0C58001207FB315800F5
:100EC3001207FBB958001207FBDC5A001207FB3B61
:100ED3005B001207FBCF5B001207FB3B5C001207B2
:100EE300FB865C001207FBB35C001207FB6AB603C8
:100EF3001207FBA9B6031207FB1481021207FB6E4C
:100F030081021207FBCA81021207FB168202120733
:100F1300FB3182021207FB6282021207FB7F82020D
:100F23001207FB8B82021207FBFF83021207FB18D7
:100F330084021207FB7F84021207FB9284021207CA
:100F4300FBA084021207FB5485021207FB388602BA
:100F53001207FB3E87021207FBC487021207FBCE70
:100F630087021207FB3B88021207FB528802120713
:100F7300FB8488021207FBBD88021207FBE7880285
:100F83001207FB4889021207FB6889021207FB86D6
:100F930089021207FBCC89021207FBF28A021207AD
:100FA300FB3F8B021207FB6E8B021207FBE48B02E3
:100FB3001207FB0C8C021207FB458C021207FB5332
:100FC3008C021207FBAB8C021207FBFA8C0212078E
:100FD300FB398D021207FB698D021207FB958D0207
:100FE3001207FBA08D021207FBBE8D021207FB80C6
:100FF3008E021207FB8A8E021207FBC58E021207AE
:10100300FBDB8E021207FBE48E021207FB398F0211
:101013001207FB4D8F021207FB5B90021207FB6E58
:1010230090021207FB8390021207FB25910212071D
:10103300FBA891021207FB6692021207FB71920250
:101043001207FB9793021207FBB393021207FB05E8
:1010530094021207FB4494021207FB5994021207ED
:10106300FB9B94021207FBE896021207FB669702AA
:101073001207FBD997021207FBFB99021207FB1316
:101083009A021207FB169A021207FB229A02120710
:10109300FB369A021207FB3E9A021207FB719A0271
:1010A3001207FB219B021207FB979B021207FB0A05
:1010B3009C021207FBBE9C021207FB739D021207E0
:1010C300FB929D021207FB329E021207FB3E9E0219
:1010D3001207FB699E021207FB6C9E021207FBD6E6
:1010E3009E021207FBFE9F021207FBD6A002120705
:1010F300FB61A1021207FB7AA2021207FB37A302CC
:101103001207FB70A3021207FBA1A3021207FB4104
:10111300A4021207FB71A4021207FB4CA5021207DB
:10112300FBE5A5021207FB70A6021207FB21A7022B
:101133001207FBA3A7021207FBD5A7021207FB1690
:10114300A8021207FBDDF4011207FB42F5011207A7
:10115300FB7FF5011207FBCEF5011207FBB8F70180
:101163001207FB9FF9011207FBD8FC011207FBFED4
:10117300FC011207FB16FD011207FB7FFD0112079D
:10118300FBBBFD011207FBE8FD011207FB1AFE0181
:101193001207FB78FE011207FB60D4021207FBDE85
:1011A300D4021207FB10D5021207FB68D5021207FF
:1011B300FBE2D6021207FBFED6021207FB39D70267
:1011C3001207FBC0D7021207FB10D8021207FBDD80
:1011D300D8021207FBE1D9021207FB35DA02120724
:1011E300FBB0DA021207FB11DB021207FB52DB0230
:1011F3001207FBFDDB021207FB1BDD021207FB518B
:10120300DD021207FB9CDD021207FBE3DD0212077E
:10121300FB6DDE021207FB12DF021207FB7FF002F7
:101223001207FBC5F0021207FB2FF1021207FB5056
:10123300F1021207FBF0F1021207FBFAF1021207A7
:10124300FB47F2021207FB6CF2021207FBCCF2021D
:101253001207FB62F3021207FB9AF3021207FBF376
:10126300F3021207FB4FF4021207FBD7F402120733
:10127300FB1CF5021207FB5BF5021207FBA0F5024C
:101283001207FBB2F5021207FBC4F5021207FBE3D8
:10129300F5021207FBA29D011207FB98F602120743
:1012A300FBD8F6021207FBDDB2031207FB72A4039D
:1012B3001207FBA8A4031207FBF1A4031207FB3ECA
:1012C300A6031207FB67DD011207FBE0DE0112072D
:1012D300FBA1E0011207FBDDE0011207FB64E4015F
:1012E3001207FBAAE4011207FBBFE6011207FB2169
:1012F300AA011207FB3DE8011207FBE8E901120707
:10130300FB32EC011207FB4EEF011207FB5CEF010E
:101313001207FB37F0011207FB4AF4011207FBA87F
:10132300FF021207FBFAB7031207FB289903120700
:10133300FB3B99031207FBD999031207FB1B9A0383
:101343001207FB409A031207FB859A031207FBBEA1
:101353009A031207FBEF9A031207FB629C0312071F
:10136300FBB0B3031207FBE6B3031207FB02B4039C
:101373001207FB44B4031207FB54B4031207FB32F6
:10138300B9021207FB84B9021207FB5DBA02120706
:10139300FB3ABB021207FB4FBB021207FBACBB02BB
:1013A3001207FBBFBB021207FB00BC021207FBC400
:1013B300BD021207FB46BE021207FB70BE021207F4
:1013C300FBE5BF021207FB34C0021207FB4AC0024F
:1013D3001207FB57C0021207FB90C0021207FBB3B0
:1013E300C0021207FB4EC1021207FBB1C102120772
:1013F300FBFDC1021207FBF7C2021207FB7DC50208
:101403001207FB13C6021207FB5EC6021207FBD3C9
:10141300C6021207FBF0C6021207FBF3C60212074D
:10142300FB03C7021207FB6CC7021207FB87C70245
:101433001207FBA9C7021207FBD5C7021207FB104D
:10144300C8021207FB1FC8021207FB00B5031207ED
:10145300FB0CB5031207FB48B5031207FBFAE802BE
:101463001207FB49E9021207FBFBEA021207FBB072
:10147300EC021207FBF8EC021207FBF4ED02120771
:10148300FB4BEF021207FB6DEF021207FBC9EF02E2
:101493001207FB4BF0021207FB4BA8021207FB7665
:1014A300A8021207FB38A9021207FBBAA902120706
:1014B300FB24AA021207FB70AA021207FBE3AA028B
:1014C3001207FB6EAB021207FBFDAB021207FB30E8
:1014D300AC021207FB24B1021207FBCCB2021207C3
:1014E300FBC7B3021207FBC8B5021207FB37B602EC
:1014F3001207FB28B7021207FB05B8021207FB7895
:10150300B8021207FB44C8021207FB03C902120701
:10151300FB73C9021207FB1ACA021207FB77CA023E
:101523001207FB9ECB021207FB5ECC021207FBC322
:10153300CC021207FB71CE021207FB2ECF02120759
:10154300FB5AD0021207FB78D1021207FB11D20219
:101553001207FB01D3021207FB1DF7021207FB71EF
:10156300F7021207FBACF7021207FB15F80212078A
:10157300FB55F8021207FB9FF8021207FB44FA021D
:101583001207FBB6FA021207FBD9FA021207FBFA9B
:10159300FA021207FB3EFB021207FB4FFC02120783
:1015A300FBC5AA031207FBF6AA031207FBAFAB03A3
:1015B3001207FB15AC031207FBA28E031207FB0BEA
:1015C30090031207FBC6B7031207FBECB103120724
:1015D300FBFAB1031207FB23B8031207FBFEB503A3
:1015E3001207FB0EB6031207FB1AB6031207FB67BB
:1015F300B6031207FBFE7E001207FB7F7F00120774
:10160300FBE37F001207FBF8FF021207FBFBFF025D
:101613001207FB10B8031207FB20B8031207FBA441
:10162300B7031207FBBD84031207FB1285031207DE
:10163300FBE686031207FB1887031207FB3F8703AA
:101643001207FB5387031207FB6C87031207FB9BED
:1016530088031207FB46AE031207FB6AAE031207A9
:10166300FB83AE031207FBB6AE031207FBE7AE0321
:101673001207FB15AF031207FB77AF031207FB86B5
:10168300AF031207FB90AF031207FB9DAF031207D3
:10169300FB0AFD021207FB47FD021207FB56FD0280
:1016A3001207FB75FD021207FBDDFD021207FBE6C5
:1016B300FD021207FB45FE021207FB69FE02120739
:1016C300FB5CFF021207FB69FF021207FB7AFF02B2
:1016D3001207FB3BB7031207FB58B7031207FB00C4
:1016E30080031207FB4680031207FB9D8103120749
:1016F300FBAA81031207FBBD81031207FBDC8103F5
:101703001207FBF281031207FB0682031207FB7B1E
:1017130082031207FBE082031207FB908303120785
:10172300FB6584031207FB7584031207FB848403A0
:101733001207FB65B4031207FB8AB4031207FBB35A
:10174300B4031207FBDBB4031207FBA5A6031207BE
:10175300FBCCA6031207FB48A7031207FB879F03D3
:101763001207FBA09F031207FBAC9F031207FBC0EA
:101773009F031207FBDE9F031207FBE89F03120779
:10178300FBF29F031207FB05A0031207FB64A003F0
:101793001207FB9DA0031207FBCBA0031207FB1943
:1017A300A1031207FB66A1031207FB81A103120722
:1017B300FB8BA1031207FBD3A1031207FB7FB50326
:1017C3001207FB9BB5031207FBE0B7031207FB8E5F
:1017D300DF021207FBB8DF021207FBD4DF02120796
:1017E300FBE7DF021207FB26E0021207FBA7E0027A
:1017F3001207FBE4E4021207FB0EE6021207FB41A9
:10180300E6021207FB8EE6021207FBCCE702120781
:10181300FBF4E7021207FB17E8021207FB5BE8027F
:101823001207FBBCE8021207FBCCE8021207FBC855
:10183300FE011207FBE3FE011207FB0CFF01120777
:10184300FB26FF011207FB4BFF011207FB6AFF0197
:101853001207FB82FF011207FBB0FF011207FBCA4D
:10186300FF011207FBF7B6031207FB8A9503120762
:10187300FB9195031207FBC696031207FBF596032C
:101883001207FB6397031207FBF697031207FB2F5D
:1018930098031207FB7898031207FBA89803120713
:1018A300FBC898031207FBA7AF031207FBB9AF03EB
:1018B3001207FBD1B0031207FBD4B0031207FBD707
:1018C300B0031207FB36B1031207FB8CB1031207F7
:1018D300FBCDB1031207FBD6B3011207FBF1B30132
:1018E3001207FB66B4011207FBEFB4011207FB7E7C
:1018F300B5011207FB9AB5011207FB46B80112079F
:10190300FBFBBA011207FB95BC011207FBE0BD010B
:101913001207FBDEC2011207FBDAC3011207FB50F9
:10192300C4011207FB1CC5011207FB7FC601120786
:10193300FB1FC7011207FB69C7011207FBD7C701CA
:101943001207FB87C8011207FB55C9011207FBBB2E
:10195300C9011207FBC0CA011207FB7DCB011207A5
:10196300FB18CC011207FB6FCE011207FB03CF015B
:101973001207FB7FCF011207FB14D2011207FB0FE3
:10198300D3011207FB3ED3011207FBFDD40112075B
:10199300FBD8D6011207FBCED7011207FBB9DC0136
:1019A3001207FBB6A8031207FBDBA8031207FB67AA
:1019B300A9031207FBC2A9031207FBABAA03120771
:1019C300FBE391031207FBA492031207FB13930398
:1019D3001207FB3893031207FBFC93031207FBB3B5
:1019E300B6031207FB86AC031207FBE6AC03120730
:1019F300FB0CAD031207FB8AAD031207FBD4AD0347
:101A03001207FB1DA2031207FB8EA2031207FBB4EE
:101A1300A3031207FBB7A3031207FBFBA3031207DE
:101A2300FBFEA3031207FB0AA4031207FB16A4037E
:101A33001207FB6F9C031207FB929C031207FBDD4B
:101A43009C031207FBF99C031207FB2A9D03120751
:101A5300FB3A9D031207FB1D9E031207FB279E0300
:101A63001207FB349E031207FB539F031207FB6706
:101A73009F031207FB709F031207FB77890312076B
:101A8300FB278E031207FB77B7031207FB499D0160
:101A93001207FBDD9C011207FBB49C011207FBA795
:101AA3009A011207FB739A011207FB409A0112076E
:101AB300FB249A011207FB4A99011207FB029901C1
:101AC3001207FB3797011207FBB796011207FBB406
:101AD30096011207FBBB95011207FB8995011207BB
:101AE300FBC694011207FBF192011207FB829201DC
:101AF3001207FB5492011207FB5192011207FB3E9E
:101B030092011207FBD691011207FB94A901120758
:101B1300FB87A9011207FB95A6011207FBE7A301A7
:101B23001207FBBBA2011207FBC591011207FBA61B
:101B330090011207FB7090011207FB0FA20112071D
:101B4300FB3390011207FBD48F011207FBA38F0114
:101B53001207FB5E8C011207FB60A0011207FB91C9
:101B6300E7011207FB4F8B011207FBDE8A01120705
:101B7300FBA38A011207FB6E8A011207FB628A012B
:101B83001207FBC289011207FB0989011207FBDC5B
:101B930086011207FB6884011207FB2684011207E2
:101BA300FBF182011207FBA682011207FBD581011B
:101BB3001207FB2C81011207FB0281011207FB1B99
:101BC3009E011207FBC880011207FBECF50200001F
:101BD3000080FBE4738F000100E00A87000100DE50
:101BE3000A24000200A90525000200AB0526000215
:101BF30000AD0527000200BF0A28000100C10A2921
:101C0300000100C20A84000400C30A86000100C761
:101C13000A2A000100C80A2B000100C90A2C00018E
:101C230000CC0A2D000800B2052E000100CD0A2FBA
:101C3300000100CE0A30000100CF0A31000100D0BC
:101C43000A32000100BA0533000100BB053400016C
:101C530000D10A36000100BC0538000100D20A3960
:101C6300000100CB0A83000200DC0A63000100C606
:101C73000564000100AF0565000100CA0A6D00019B
:101C830000DB0A6E000200B00543000100D30A44E2
:101C9300000200D40A45000100D60A46000200D71C
:101CA3000A47000800BE0548000100D90A4B00019D
:101CB30000DA0A04000100DF0AA1000100E30A3789
:101CC300000100E20A88000100E10A3C000100BDB6
:101CD300050000000000000001363601010001028A
:101CE30001000103010001040106060502000007CB
:101CF3000100340801000F090401010D0100FF0E6A
:101D030008000017020000190100FF1A0100011B5F
:101D13000100FE1C0100081D0200001F010001203C
:101D2300010001210200002301000F24020000260C
:101D330001000127010008280200FF2A0100072BE8
:101D43000102402C0100002D0100012E0100012F92
:101D53000100FF30010B1C310800003A0100083B71
:101D630001000F2F010000010171010101010111A7
:101D73000101013101010101018001100161013BF8
:101D83000014006301730172016201430100011336
:101D93000106013D013500040112010001000100AB
:101DA30001000104010401330133013C0144013208
:101DB30001360000010001650100013500810100C9
:101DC30001050182018301000103027102300160F8
:101DD3000211027002010202020202800210026179
:101DE300023A00410063027302720262024302007C
:101DF3000213023800000200020402120200020071
:101E0300020002000204020402370037003C0244CD
:101E1300020002390000020002650200023502815D
:101E230002000205028202830200020300710030F5
:101E33000160001100700031022003500480001083
:101E4300006100000014006300730072006200432D
:101E53000000001300060000000000040012000050
:101E63000000000000000004000400370037003CBD
:101E7300024400000000000000000065000000357F
:101E830000810000000500000083000000010371D1
:101E930003010301030103010301032203020301FD
:101EA3000310030003000300030003000300030007
:101EB3000342030003240306030003000304031285
:101EC300032503230325032303040304030003005F
:101ED30003000344030003000323030003650321FA
:101EE300003503810300030503000300030003001F
:101EF3000003002001C680000000002001C780000D
:101F03000004004201648000000500420153800088
:101F130000060042014280000007002001C4800047
:101F23000010004203300B0000110020037C0A0064
:101F33000012001003410B0300000021037D0A0679
:101F430000000020017F0A000000000000000000E4
:101F53000003002001C680000000002001C78000AC
:101F63000004004201648000000500420153800028
:101F730000060042014280000007002001C48000E7
:101F83000010004203300B0000110020037C0A0004
:101F93000012001003410B0300000021037D0A0619
:101FA3000000002001800A0000000000000000364D
:101FB300000100060000000F000000000000000008
:101FC300000000000003FFFF00000403FFFF000008
:101FD300FFFF0FF4010005C4040320000100140BEC
:101FE300000000000000000003010F491985194F8C
:101FF300199D1955198B19551997195B199D195560
:10200300198B1961199D1967199D196D199D1973FB
:10201300199D1979199D197F199D19000000000058
:1020230000000000001D151300E11401001D15023E
:1020330000B1140300B7140400BD140500C3140653
:1020430000CF14FFFF0000950FC50F9B0FA10FBF1B
:102053000FB30FAD0FCB0FD10FD70FE30FA70F8F19
:102063000F890F0A370D02FB0C050D0D07010D0C2F
:10207300DD0C0DEF0CFF000000160F00000B150B1D
:10208300020002220F320000067F10911097105FAA
:102093000F9D10590F650F140AE5D5C5B5A5A59574
:1020A30085857565DF10FD100311E510F110EB1048
:1020B3000001191618161615230300000349484298
:1020C3004D1817250502303016181920231A1C1E27
:1020D300300C0E020B040B0A0708000F30301718E0
:1020E3001921301B1D1F3000383C3E363B3B352B3E
:1020F300432CD310A310A910B510AF10B90FDD0FE7
:10210300F710E90FEF0F02040201010101090200B8
:10211300BE040AE803FA06150028000E0004009A1C
:102123002003090CFF1E1E04040F100C050808747D
:10213300F712036CE99003B0F0900365E4F0121812
:10214300A79003C4E4F0A3F09003B1F0A3F0120E40
:10215300931218AD900334E4F0A3F090212C93FA7A
:102163007902121A690250BE74F212036CEAFEEB92
:10217300FF548060699003B0E0F912124D8A088B16
:1021830009EA4509604F7C0080010CEC75F003A45B
:10219300F8A9F0746628F582742039F583E493F482
:1021A300602CE493F88508828B83E06870DCAA08CE
:1021B300EC75F003A4F8746728F582742039F5836D
:1021C300E493C0E0740193F583D082121BD6AA086E
:1021D300AB09121241EEFAEF6480FB022338EF548D
:1021E30020601D120D918A088B09EA4509600A12C5
:1021F3000CEFAA08AB09121241EEFAEF642080DA61
:10220300EEA2E0501A90036AE0640F700B7900129B
:102213000CB9E9600312233BEE6401FAEF80BB546F
:10222300207003022306750C001238DF8B09EA4580
:102233000970107C027D007A207B009003B0E0F9E6
:102243001213437C0079047A007B00120D6D8A0817
:102253008B098018850882850983A3A3A3A3A3A35D
:10226300A3A3A37401F0850A08850B09E5084509B2
:10227300606D7C007904AA08AB09120D6D8A0A8B84
:102283000B750C01E5082404F8E50912368324FFD5
:10229300F0A3E034FF125CAA70CC85088285098321
:1022A300A3A3A3A3A3A3A3A3A3A3E0640170A585EE
:1022B3000882850983A3A3A3A3A3A3E05404709472
:1022C300850882850983A3A3A3A3A3A3A3A3A374BC
:1022D30006F07AB7850882850983122467808712FE
:1022E3000D3D7C0079017A007B00120D6D8B09EAAC
:1022F30045097009E50C70057A20124842EE642006
:1023030002221EEF5402600B120E8DEEFAEF6402EE
:102313000221DDEF54046019124BF4124B147901BE
:10232300900363124E78120BFFEEFAEF640402215E
:10233300DD7A007B0002256E9005A9122C05120C94
:10234300D122C082C08374EA1208C4851882851919
:1023530083AA82AB83794B121A3F7408120A9C74C6
:1023630002F07409120A9CAA82AB837950121A3FB5
:102373007413120A9CE4125047121A5D7416023E3B
:102383000074F712036C74E11208C4EAFEEBFFEE6B
:102393004F6033851882851983AC82AD83120DB5E6
:1023A3007406120A9CE0601E7417120A9CE0FD7406
:1023B30001120A9CE0FCEEFAEFFB7900120AF7E93E
:1023C300600479A4800279000250B974F612036C98
:1023D300EAFEEBFF8E828F83A3A3A3A3A3A3E05400
:1023E30040601B12561412253560067AFF7BFF806E
:1023F3001A8E828F83123A8CFAA3E0FB8003120DAC
:10240300D974FE6A700374FF6B604112561412484C
:1024130086120E4BE98E828F836006122460E4805D
:10242300051224607401F07CBF7D0C8E828F8312B1
:102433004E78121A63E9F5087015EE4F60097901B9
:10244300EEFAEFFB120D49A9080249497508CDAA16
:10245300088E828F83122467E960DF80EAE0240D0F
:10246300123F5B22E0240C123F5BE0F9120CCB22FB
:1024730074F612036CE9FEEAFF7A0F7B0012123B3B
:10248300EA4B60198A828B83740CF0EEA3A3F0EFFE
:102493008A828B83A3F0124AFD7900802FEEF91212
:1024A3000D738A088B09A808A909E849601C88826A
:1024B3008983A3A3A3A3A3A3A3A3A374061258ADC1
:1024C300E0F9120C83EEF9120D4F7910024949C05D
:1024D30082C08390036AE0640F7014EA4B6010902B
:1024E3000365E064086005E0640470031224F502E8
:1024F3003E2AEAFCEBFD7A017B009003B0E0F9127F
:10250300133D22C082C0837900EA241DF582EB12B9
:102513003A8924FD600B14600824FD600424FD70D7
:102523000109023E2A8E828F83A3A3A3A3A3A3A39D
:10253300A3A312253922123AD1FB120E4BE9228EA4
:10254300828F83A3A3A3A3A3A3A3A3A31225396465
:1025530002228E828F83A3A3A3A3A3A3A3A3A31265
:102563003E21900356E068221208467F0602061AAF
:1025730074F412036C74FD1208C48A088B098A82EE
:102583008B83A3A3E0F9120D738A0A8B0BAE0AAFF8
:102593000BEE4F700302267A850882850983A3E038
:1025A30064F16030850882850983A3E064CD6024EB
:1025B300850882850983A3E0641A601885088285EB
:1025C3000983A3E064E9600C850882850983A3E09D
:1025D30064E170087900120D49E9706C8508828501
:1025E3000983A3E0C0E07402120A9CD0E0123E0506
:1025F300EEF0A3EF12305B851882851983AA82ABB4
:10260300837005120BE78003120E337402120A9CC7
:10261300E064E970338E828F83122686750A01780F
:102623000A12081C750AE9780A12081CE508240C2A
:10263300F582E509122B4D123038FCA3E0FD8A82A6
:102643008B831230521208468E828F83A3A3A3A3D7
:10265300A3A3A3A3A3E0640270108E828F83A3A31A
:10266300A3A3A3A3A3A3A37406F085088285098368
:10267300A3A3E0F9120D4F120D3D9005AD12233EB9
:10268300022C0AE0F8A3E0F9E8FAE9FB2274F41259
:10269300036CEAFEEBFF7508008E828F83A3A3A36E
:1026A300A3A3E060427508088E828F83A3A3A3A32C
:1026B300A3A3A3A3123D348B0BEA450B601075084B
:1026C3002C8E828F83A3A3A3A3A3E0D2E0F08E82F8
:1026D3008F83A3A3A3A3A3E054036401600302278E
:1026E30079430811022779EE2418122C176033EE70
:1026F300241A122C17700F1225557003A3E069706A
:10270300757508228070EE241BF582EF12277E2454
:102713001AF582EF123063EE2419125648120C7127
:10272300805412254270037508011225557003A3C6
:10273300E0697006E508D2E1F508E50860158E82C8
:102743008F83A3A3E07006E508D2E58004E508D2F1
:10275300E6F50812252864017006E508D2E0F508BD
:102763008E828F83A3A3E0600D12278C6401600621
:10277300E508C2E0F508A908022C0F123A771227E0
:102783008522E0FCA3E0FDEE22123A71123AA9F988
:10279300120E39E922C082C08379018A828B83A316
:1027A300A3E0C394024001198A828B83A3A3A3A34A
:1027B300E0C39402400279008A828B83A3A3A3A37C
:1027C300A3A3A3A3A3E064F87003A3E0F460458A82
:1027D300828B83A3A3A3A3A3A3A3A3A3E064F970FE
:1027E30003A3E0F4602E8A828B83A3A3A3A3A3A3F2
:1027F300A3A3A3E064FA7003A3E0F460178A828BB7
:1028030083A3A3A3A3A3A3A3A3A3E064FB7003A332
:10281300E0F4700279008A828B83A3A3A3E0F8908B
:102823000353E06860027900023E2A74F012036CDD
:1028330074DE1208C4EAFEEBFF8E828F83A3A3A388
:10284300A3E0600E9005AB12494060069005AB1201
:10285300233E7403120A9CAC82AD838E828F83A3C2
:10286300A3A3124B4B125384E9600F7403120A9C07
:10287300AA82AB83120CE9E9700879011218B90234
:102883002B42EE241B123A7C7410120A9C124B1436
:102893007409120A9CE06021741A120A9CE0FD7408
:1028A30004120A9CE0FC8E828F83124E7679011209
:1028B3000AF7E96004790280C37403120A9CAA82AE
:1028C300AB83120CE3E9F50A7409120A9CE0702A3F
:1028D30090034DE060247422550A6422601C744204
:1028E300550A644270CF7420120A9C122B60600A4E
:1028F3007420120A9C122B5970BBE9A2E650417452
:1029030003120A9CAA82AB83120CD7E97003022834
:102913007D7420120A9C123A8C6403700F74201287
:102923000A9CA3124932A3E0640D60147403120AD3
:102933009CAA82AB83120E5DE964017003022B42F1
:10294300EE242C122B4A122E6E7003A3E069701C26
:10295300750800780812081C780812081CEE242E4B
:10296300125648122B661230521208467409120A84
:102973009CE07003022A1F122B66124E78120EB7C8
:102983008A088B09EA45097003022ABC7404120AF7
:102993009CE0F88E828F83A3A3E028F8A3E03400A1
:1029A300F9E8240D122B518A828B83A3A3A3E06839
:1029B300601CE88A828B83A3A3A3F09080B6120ADB
:1029C30079850882850983A3A3A3A3120A857904C1
:1029D300E9120A9C1253612AF8A3E034008882F5B5
:1029E30083A3AA82AB8312122F8A0C8B0D8C0E8DBC
:1029F3000F850882850983A3A3A3A3780C120795E7
:102A03004003022B429080A2780C12096985088248
:102A1300850983A3A3A3A3780C120A5D900365E041
:102A230064046008E064096003022B42E50AA2E53E
:102A33004003022AFAEE242E122C178518828519D8
:102A430083F0EE242F122C17C0E07401120A9CD0DD
:102A5300E0F0EE2430122C17C0E07402120A9CD06E
:102A6300E0F07414120A9CE064017027740E120AD9
:102A73009C123A82EE2412122C17687003A3E069A9
:102A83007011740C120A9C12254F70077414120AE9
:102A93009CE4F0EE2424122B4A12069F7404120ABB
:102AA3009CAC82AD837407120A9CAA82AB83120B7F
:102AB300ED7404120846022B429003AAE0640160FD
:102AC30003022A1F7420120A9C122B607009E50A64
:102AD300A2E65003022A1F7410120A9CE0F470034A
:102AE300A3E0F4605AEEFCEFFD7403120A9CAA8281
:102AF300AB83120CF58048A2E650447420120A9C62
:102B0300124E87701A741A120A9CE06402703074B1
:102B130003120A9CAA82AB837900120E27802074C9
:102B230020120A9C122B597016741A120A9CE06424
:102B330004700C7403120A9CAA82AB83120E2174D4
:102B430022025233EE240BF582EF123A7722F582FA
:102B5300E9124B2DF822125626E0640722123AA9F5
:102B6300640622EE242A123A741227852412123A9A
:102B7300742274F412036CEAFEEBFF8C088D099047
:102B830005BAE0600F1225557003A3E069700512C2
:102B93000C5F804F7900124E6B120C8F8A828B83ED
:102BA300E58245836035A3A3A3A3A3A3E0541860E0
:102BB3002AE508241BF582E509122B4D1206A31200
:102BC300331D122B4D1206A3EE2418125648122B56
:102BD300E8120CA1740412084680087900122BE84D
:102BE300120C6580278E828F83A3A3A3A3A3A3A321
:102BF300A3A3122785240BF582EF122C01223400A4
:102C0300F583123AD1FB2274031208467F040206AD
:102C13001AEE2417F582EF124B2D2274F712036C70
:102C230074F71208C4EAFEEBFF900365E0640360E7
:102C33000DE064016008E064096003022CE88E8201
:102C43008F83A3E0707E7C007D007A027B001218E4
:102C5300B3EE2402FAEF12368A123A829003561226
:102C63004B147953121A457900122CEDE064096074
:102C7300031230808518828519837401124A4690A5
:102C830003657404F07401120A9CAA82AB83794A27
:102C9300121A3F7401120A9CAC82AD837A5B7B03E8
:102CA3001218D190035612537A7A0312308A900382
:102CB30050E0A2E35004D2F08002C2F0124A331271
:102CC300233B801E8E828F83A3AE82AF83FC7D0065
:102CD3007A037B101218B38E828F83E0F9122CEDE6
:102CE300E4F0120D1F74090250BB900363122C050C
:102CF300120BFF90036522C082C0839003341249F4
:102D030040701F900365E014600924FC600A14609E
:102D13000C800F90033C8032900338802D90033A4F
:102D23008028E8496008900335123032700C8A829B
:102D33008B83A3E0F9120BF3801B9003351233B995
:102D43007005120E81800E9003E112494060061255
:102D53004932121BD6023E2A74F412036C74FB121E
:102D630008C48A088B097A0F7B0012123B8A0A8BEC
:102D73000BAE0AAF0BEE4F7003022E628E828F836F
:102D83001250457950121A3F850882850983A3E0C2
:102D93006003022E4A900363E0F47003A3E0F4603F
:102DA30034900363E064FE7003A3E0F460278518A6
:102DB30082851983122E6E7003A3E069601785085C
:102DC30082850983A374EA1230687A637B0379509E
:102DD300121A458072851882851983125607124B81
:102DE300147A567B037953121A3F900356124B45BC
:102DF300124B147A597B03794B121A3F7A587B038F
:102E030079E1121A3F90036AE0C3940F50219003B3
:102E130058E0C0E07402120A9CD0E0F07404120A75
:102E23009C7401F004120A9CAA82AB83121A577590
:102E33000A00780A12081C780A12081C900AEAE0B1
:102E4300F9123049120846850882850983122E67D4
:102E5300A3F09003657403F0EEFAEFFB124AFD74DE
:102E630005022C0CA3E08E828F832212560BE0689E
:102E730022123F622274F512036C74D81208C48ABA
:102E8300088B098A828B83A3A3A3123AAE7415120B
:102E93000A9CAC82AD838A828B83A3A3A3A3A3A33F
:102EA300A3A3123038FAA3E0FB120D2B7415120AF8
:102EB3009CE0706B850882850983A3A3A3A3A3A3C6
:102EC300A3A3E0C3940B40578E828F83A3A3A3A332
:102ED300A3A3A3A3E064027046EE240B122C17F401
:102EE300703D900365E06402603AE06406603590EB
:102EF30003341249406005123032604F900365E09D
:102F030064086005E0640470167417120A9CE0F903
:102F1300741C120A9CAC82AD83124E6B120D317479
:102F230028025B33900334124940701F7508007800
:102F33000812081C780812081CEE2410122B4A12DF
:102F430056601237721230521208468E828F8312E5
:102F53004DE712369C123A827402120A9C124B14E9
:102F6300EE240D122C17C0E07404120A9CD0E01258
:102F7300305BF508A3E0F509740F7808120A4E7464
:102F830005120A9CE508F07419120A9CE0C0E0746B
:102F930006120A9CD0E0F0741B120A9CE0C0E07495
:102FA30007120A9CD0E0F07416120A9CE0C0E07489
:102FB30009120A9CD0E0F07417120A9CE0C0E07476
:102FC30008120A9CD0E0F0EE2410122C17C0E07413
:102FD3000A120A9CD0E0F0741A120A9CE0C0E07452
:102FE3000B120A9CD0E0F07427120A9CE0C0E07434
:102FF3000C120A9CD0E0F0741C120A9CA982AA83CA
:1030030089088A09750A0078081208147C087D006B
:103013007410120A9CAA82AB8312445D120846857F
:103023001882851983AA82AB83120BF9022F22120D
:1030330033BF640122E0F98A828B83A3A3A3A3A3F2
:10304300A3A3A3A3E02290036312537E9003591218
:103053002C05120DEB740222F0EE240B124B2A22E4
:10306300124B2DFA22F07A567B03795312307322D6
:10307300121A457A597B03794B121A45229003633E
:10308300122C05120EB1227B001218B390035912B1
:10309300537E7A047B001218B322F012566B22740B
:1030A300F212036C74F81208C4EAFEEBFF8C0A8D6B
:1030B3000B890C851882851983AC82AD8375838057
:1030C30075828F7408120774F50DEEFCEFFD8518F9
:1030D30082851983AA82AB83124D487003750D0153
:1030E3009003B1803BEEFCEFFDE508240BFAE50904
:1030F3003400124D47601E850882850983A3A3E02F
:10310300650C7011850882850983E0650A7004A344
:10311300E0650B6038E5082414F582E509122B4DB0
:10312300123694E50845096024E50DA2E040B68512
:103133000882850983E0650A7004A3E0650B70D5F6
:10314300850882850983A3A3E0650C70C8AA08AB30
:1031530009740802256BC082C0839003B1023E2725
:1031630074F712036C9003B1123AD18012EA24145B
:10317300F582EB122B4D123AAE1212BFEEFAEFFBB1
:10318300EA4B70E99003B1E4F0A3F00250BE74F18E
:1031930012036C8A088B09ECFEEDFF890A8A828B85
:1031A300831252278A828B83122E6712324F8A82AE
:1031B3008B83A3A3E0C454F0FA88828983E04A1284
:1031C300325F122E67123259E0333354FCF88E8289
:1031D3008F83E048123259A3E033333354F8F88E27
:1031E300828F83E04812324F8508828B83A3A3A387
:1031F300A3A3A3E0A2E0E4331313FA88828983E054
:103203004AF0E5082407F50CEB1244631208147C1A
:1032130008124457120846125358E508240FF50CB8
:10322300E5093400F50D780C1208147C0312445799
:10323300120846E50AC3940F400D12331D122B4D9D
:10324300122E68A3A3A3F07F0702061AF0EEF8EF8D
:10325300F9A30EAF832212325FA3A322F085088263
:103263008B83A3A32274F112036CEAFEEBFF890A9A
:103273008C088D098E828F83E08C828D83123D3E74
:10328300AE82AF83E012451D12448EC412451D1257
:103293003326E054038C828D8312448CA2E2E43300
:1032A3008C828D8312448B131313541F12451D12EA
:1032B300448AA2E7E4338C828D83A3A3A3A31233AE
:1032C300268E0C8F0D750E00780C1208147C087D69
:1032D30000E50824071252ED1208461253588E0CCB
:1032E3008F0D780C1208147C037D00E508240F125F
:1032F30052ED120846E50AC3940F40148E828F8361
:10330300A3A3A3E0C0E012331D122B4DD0E080062F
:1033130012331D1258A1F002324AE5082412F58235
:10332300E50922A3A3123D420EAF832274F41203D4
:103333006C74F91208C4EAFEEBFF89089003341297
:103343004940600E1233B97009EEFAEFFB120E7B9F
:10335300805F900363E06E7003A3E06F70537401AA
:10336300650860097A777B03124D4870447A007BC5
:10337300021238E38B0BEA450B7036900366120A90
:1033830079851882851983120A8590036CE0C0E061
:103393007404120A9CD0E0F07405120A9C7401F0C4
:1033A3007406120A9C125045120BBDE9609B120B66
:1033B300C37407022C0C1233BF640222125627A3D4
:1033C300A3A3A3A3A3E02274F512036C8A088B09B9
:1033D3008A828B83A3AE82AF83E0F9120C178E82AD
:1033E3008F83E064EB600C850882850983A3E06426
:1033F300E17009850882850983A3E4F012233B75F4
:103403000A01780A12081C850882850983A3E0F55E
:1034130008780812081C7900123049120846120D68
:103423003D025B36EAF0A3EBF0023E2A74F6120388
:103433006C9003C3E0701B7C0079017A007B00125F
:103443000D6DEA4B600C8A828B8312494060031234
:103453000CC5024949C082C0831238CB401079FFA2
:10346300120D67E9F890212EE493C3985004790173
:1034730080027900023E2A74F012036C8A088B09D9
:10348300890B750C008A828B83A3A3A3A3A3A3A395
:10349300A3E0F9120D738A0E8B0FAE0EAF0F750AF0
:1034A30001EE4F6003023558850882850983A3A383
:1034B300A3A3A3A312537A850882850983A3A3A395
:1034C300A3A3A3A3124257124E78120D5B8A0C8B4F
:1034D3000DAE0CAF0DEE4F700302367B8E828F83E1
:1034E300A3A3A3A3E4F0A3F0E508240B123687E01B
:1034F300C0E0122B47D0E0F0120E51EE240CF582FF
:10350300EF124882E508240EF582E509123A7FEEB0
:10351300240EF582EF124B11750C01EE2406F8EF21
:10352300123683547FF0A3E054FC1256BDE05404DA
:1035330060030235DE900AC112424874077808120C
:1035430009DB8E828F83A3A3A3A3A3A3E04508F083
:10355300A3E04509F08E828F83A3A3A3A31236921F
:1035630074077808120A4EE5085407F508E50B605E
:103573007A8E828F83A3A3A3A3A3A3A3A3A374027B
:1035830012448F240D123F57E0A2E2500B900351D7
:10359300124B45A3A3124B14E5087003023650EEF9
:1035A3002406F8EF3400F9E8FAE9FB8A828B83E01A
:1035B300547FFCA3E054FCFDE50824FFF508E43444
:1035C300FFF509740778081209DBEC4508F8ED45A7
:1035D30009F98A828B83124B1480728E828F83A3A4
:1035E300A3A3A3A3A3E04480023557E508700575A0
:1035F3000A0080598E828F83A3A3A3A3A3A3E054BD
:10360300206012121235EA547F245F8E828F83A3C7
:10361300A3A3A380238E828F83A3A3A3A3A3A3E047
:103623005410600A121235EA540F240A80DD8E8288
:103633008F83A3A3A3A37401F0A3E412369C7404A1
:103643001238DA8B09EA45097003124875E50CA2B2
:10365300E050288E828F83A3A3A3A31250ABF9EE6D
:10366300FAEFFB120D61E960121249366003123A58
:1036730067EEFAEFFB1212BF750A00A90A0252366F
:10368300124C0822FAE5093400FB8A828B8322A3B9
:10369300A3E0F508A3E0F509221236A0221253098C
:1036A300A3A3A3A3A32274F412036C74F71208C494
:1036B3007E00120D73EA4B700302376B8A828B8391
:1036C300A3A3A3A3A3A3A3A3A3E064066003023756
:1036D3006B8A828B83A3A3A3A3A3A3A3E0FF8A8202
:1036E3008B83123F6AE0C0E07408120A9CD0E01298
:1036F3003AA2124D4E124B14120D85EF5408606618
:1037030085188285198312537A7A007B00120D552E
:103713008B0BEA450B704F900363123B92121A6FA7
:103723007C007D007A007B0080288E828F83123A92
:103733008CF47003A3E0F4602D90036312377212CC
:103743004E7812162BE9641A601C7C007D00EEFA99
:10375300EFFB120D558A0A8B0BAE0AAF0BEE4F70BF
:10376300C97900121A757E01EEF97409022C0C1244
:10377300377622E0FCA3E0FD8E828F8322C082C0D5
:1037830083EA4B70059003C480068A828B83A3A3CC
:1037930012399260258A828B83A3A3A3A3A3A3A335
:1037A300E0540860E5EC4D60158A828B83123A8CF5
:1037B3006C7003A3E06D70D280047A007B00023E3C
:1037C3002A74F212036CEAFEEBFF890A8C088D0956
:1037D3007A107B001212B9EA4B603F8A828B83A373
:1037E300A3A3A3A3A3A3A3A3E4123A90A3E50A125A
:1037F300562DA31238278A828B83A3A3A3A3E4F0B5
:10380300A3123A9CA3F01254C1EA240CF582EB12E2
:103813003D2E123820A3A3F0A3F002256EA3F08A55
:10382300828B8322A3A3E508F0A3E509F02274F4B5
:1038330012036CEAFEEBFF89088C0A8D0BEE4F60D6
:10384300557401650870147901120D67E9F8902128
:1038530030E493C398500F7911806A74046508703B
:103863002F1238CB40F18E828F83A3A3A3A3A3A3EC
:10387300A3A3A3E508123D3EA3125BC08E828F83F0
:10388300A3A3E4F0A3F09003C41249406021800D88
:103893007402650860D079C1802BE0F8A3124B3E17
:1038A300A3A312399288828983A3A370ED80039026
:1038B30003C4EEF0A3EF1238DA8B0BEA450B700367
:1038C3001248757900022C0F7904120D67E9F890FC
:1038D300212FE493C39822F01238DF227A207B0051
:1038E3009003B0E0F912134F22C082C083E9F87944
:1038F300009003C4801D8A828B83A3A3A3A3A3A3E5
:10390300A3A3A3E068600574FF687001098A828B32
:1039130083A3A312399270DE023E2A74F712036C5A
:10392300EA4B70059003C480068A828B83A3A3129B
:10393300399260248A828B83A3A3A3A3A3A3A3A303
:10394300A3E06970E4EC60148A828B83E0240D1297
:10395300536BA2E240D380047A007B000250BEC0C6
:1039630082C0839003C480068A828B83A3A3123907
:103973009260128A828B83A3A3A3A3A3A3A3A3E02E
:103983006970E580047A007B00023E2A3BF58312CE
:103993002C05EA4B2274F212036C8A0A8B0B8C0CF3
:1039A3008D0D750800750900EA450B602E9003C460
:1039B30080068E828F83A3A31239E5601EAC0CAD03
:1039C3000DEEFAEFFB850A82850B83121BD6E964A1
:1039D3000170DFEEF8EFF988088909AA08AB09023C
:1039E300256EE0FEA3E0FFEE4F2274F712036C9006
:1039F30003C4123A827C007D00800DE8FCE9FD8857
:103A0300828983A3A3123A82E8496030EA6870028C
:103A1300EB6970E79003C4124E78E86A7002E96BB1
:103A230088828983A3A37008123A829003C4800911
:103A3300123A828C828D83A3A3124B140250BE745C
:103A4300F712036CEAFEEBFFEE4F6015120D7F12C7
:103A53003AB41249366003123A67EEFAEFFB1212D8
:103A6300BF0250BEEE240C123A74123AC922EE245D
:103A73001DF582EF3400F58322F582EF123A7712B7
:103A83003E2122F582EF123A77123AA922123A9492
:103A930022125635A3A3A3A322123A94A3A322125C
:103AA3003821123AA922125620E022E0FEA3E0FFB9
:103AB300228E828F83E0241C123F5B123AC98E82CE
:103AC3008F83123AC922123AD1FB1212BF22E0FAB3
:103AD300A3E022C082C083EAFCEBFDEC4D700479C5
:103AE300058044EC24FBF582ED34FF12493E700758
:103AF300123B2DE0F4600512124180E39003B0E025
:103B0300C0E0123B2DD0E0F09004E7E493F97AC6CD
:103B13007B0312126BE96401700B7A007B2012485D
:103B230079790080027904023E2AEC24FFF582EDC4
:103B330034FFF5832274F412036CA2AFE433F50867
:103B4300C2AF9003C61239E56038EE24FBF582EF6D
:103B530034FF12493E7A007B209003B0600512487F
:103B63007C8005E0F9121277E4F50AF50B780A1266
:103B73000818EEFCEFFD7AC67B031212657402127D
:103B83000846E508A2E092AFEEFAEFFB022C0F1213
:103B9300537E851882851983AA82AB832274F2121D
:103BA300036C74FC1208C4EAFEEBFF750AFE750B86
:103BB300FF120D43E960057911023D23EE2415122E
:103BC3002C176037900ADAE0C43354E0F8E033335B
:103BD30054FC48C0E0EE2415122B4AD0E0123D3EBF
:103BE300123D348B09EA45096011750AFFEE240F73
:103BF300122C174404124B22D2E0F08E828F8312D0
:103C030025336006EE2412123D2BEE2413122C17DB
:103C13007010902129E493C0E0EE2413122B4AD0B4
:103C2300E0F08E828F83E0A2E750045403801CEE01
:103C33002414122C177015900342E0C0E0EE2414F4
:103C4300122B4AD0E0F0900342E004F0EE2411126C
:103C53002C17640170169005AFE0600D90034DE0E2
:103C6300700A8E828F83E07003123D288E828F83C9
:103C7300E064017013EE240B123A8664027009EEBD
:103C8300240F122C174440F0851882851983AC82C7
:103C9300AD83EEFAEFFB120DA98A088B0974FE655A
:103CA3000A700374FFF470098E828F83A3A31252E8
:103CB300F9EA450960668E828F83E0C0E0740112E1
:103CC3000A9CD0E0F07402120A9C1254C5740112CB
:103CD3000A9C85820C85830D780C120818EE240F3C
:103CE300122B4A1206A3EE240E122C17F50C780C95
:103CF30012081C9003561206A37407120A9CE0F9DB
:103D0300AC0AAD0B120DA37407120846E9FE74103A
:103D13006E700BAA08AB091212BF80027E10EEF977
:103D2300740402256BEE2411F582EF123A77E4F066
:103D330022A3122C0579FF120AAF22123D4222F070
:103D43008E828F83A322C082C08374DE1208C48A4A
:103D5300828B83A3A3A3A3123A82740E120A9CE854
:103D6300F0A3E9123E18740C120A9C123E11240DA2
:103D7300F582EB122C1AC0E0741A120A9CD0E0F000
:103D8300125246EB123A7F7420120A9C123E1124FF
:103D930015F582EB122C1AC0E07408120A9CD0E0CD
:103DA300F0EA241CF582EB123A7F7412120A9C1279
:103DB3003E112411F582EB122C1AC0E07409120A89
:103DC3009CD0E0123E0574FFF07401120A9C74FF4C
:103DD300F07402120A9C74FFF09080B612069F746E
:103DE30004120A9CAC82AD837407120A9CAA82ABAC
:103DF30083120BED740412084679007422120846EC
:103E03008025123E0922F085188285198322E8F065
:103E1300A3E9F0EA22123821A3123E2022A3E0F8FC
:103E2300A3E0F922124E78D083D0820207F874EC13
:103E330012036C74EE1208C48A128B13ECFEEDFFAE
:103E430089097426120A9C1252F97428120A9CE0FA
:103E5300F5107429120A9C123F4C742B120A9CE031
:103E6300F50EA3E0F50F7508107A1E7B001212B948
:103E73007402120A9C1248867402120A9C12494068
:103E83007003023F45851882851983AA82AB837923
:103E930050124761124E787402120A9C123F6AA3B1
:103EA3001248867410120A9C125BC27402120A9C96
:103EB300E0240B123F577402F0120A9C123F6A74FB
:103EC30002F0120A9C1256181254C57402120A9C6C
:103ED300124E8DE509F07402120A9CE0240C123F85
:103EE30057E510F07402120A9C123F54E512F0A336
:103EF300E513F07408120A9CE50CF0A3E50DF074C9
:103F03000A120A9CE510F0850E82850F83C082C0D9
:103F130083740D120A9CAC82AD83D083D082740368
:103F2300120774F97402120A9CAA82AB83120D4918
:103F3300E96401700575080080087402120A9C1276
:103F43003A6DA9087412025310E0F50CA3E0F50DC5
:103F530022E0241C123F5B22F8A3E0123F622234CA
:103F630000F98882898322124E80A3A3A3A3A322EC
:103F730074EE12036CEAFEEBFF8C088D098E828FC0
:103F830083A37408124B5DE060088E828F83A37451
:103F930010F0122C1460098E828F83A3E02408F0A2
:103FA300EE2415122C1760088E828F83A3E004F091
:103FB3008E828F83A3A3A3A3A3A3E060198E828F12
:103FC30083A3A3A3A3A3A3A3E0C3332402F88E82F2
:103FD3008F83A3E028F0EE2411122C176005750BD4
:103FE3000E8003750B008E828F83A3C082C083EE85
:103FF300240D122C17D083D082F8E028250B8C8255
:104003008D83F0EE2411122C17600512446D28F0F5
:10401300850882850983E0C3947540097508007596
:104023000900024155E0FA7B001255737003024107
:1040330055EEFAEFFB120DAFEA850882850983126C
:104043004887EE2402F8EF122E7412424F12419168
:10405300F0EE24040808EF122E74124697A31241BF
:1040630091A3A3F0EE2413124177F0EE241412412E
:1040730077A3F0750A08EE2416122C176010EE24AD
:1040830018125377E5082408125656750A10122C95
:10409300146016EE241A125377850A0CE508250CD2
:1040A3001256567408250AF50A8E828F83A3A3A39A
:1040B300A3A3A3E06059EE2407F510EF3400F51134
:1040C300851082F583E0C0E012415E122B4DD0E0F3
:1040D300124181E0C0E012415E122B4DD0E012414B
:1040E30081A312416A120814851082851183E0C3EB
:1040F30033FCE433FD850A0CE508250C1252ED125E
:104103000846851082851183E0C333250AF50AEE3C
:104113002415122C17600BC0E012415E122B4DD0F8
:10412300E0F0122B4712416A120814EE240D122CF0
:1041330017FC7D00850B0A8E828F83A3E0F8E508C8
:1041430028F8E5093400F9E8250AFAE91252F012D1
:104153000846AA08AB097F0A02061A850A0CE50875
:10416300250CF582E50922E0F50CA3E0F50D750EAB
:1041730000780C22123A7412419BA3A3A322F005E8
:104183000A8E828F83A3A3A3A3A3A3A3A322A3A380
:104193001256C1A312419B2212469BA3A32274F67B
:1041A30012036C8A828B83E0FC900353124248749F
:1041B3000278081209DBEC4508FCAD09EA24121267
:1041C3004242740678081209DBEC4508FCED450908
:1041D300FDEA2415F582EB122C1A600478018002A3
:1041E3007800E4C8F9ED49FDEA2411F582EB122CBD
:1041F3001AF5088809740978081209DBED4509FDE9
:10420300EA2416124242740B78081209DBED4509C1
:10421300FDEA2417124242740C78081209DBED45BB
:1042230009FD8A828B83A3A3A3A3A3A31242487489
:104233000A78081209DBECFAED4509FB024949F556
:1042430082EB123A77E0F50875090022E0850882CF
:1042530085098322A3E0F98508828509832274EE08
:1042630012036C8A0A8B0BECFEEDFF750F01E9C399
:104273009408500579000244548E828F83E9F0122A
:1042830046C0E96003750F001246A48E828F831225
:1042930046EEEE125247EF1246E3C0E0EE2411124F
:1042A3002B4AD0E01246DBC0E0EE2412122B4AD098
:1042B300E0123D3E7408125301A3A3A3E06015125C
:1042C300468CEE2413F582EF124B118E828F83A35B
:1042D300E02408F08E828F83A3A3A3A3A3A3A3A3A5
:1042E300E060218E828F83A385820885830912462D
:1042F300CFEE2415F582EF124B11850882850983D1
:10430300E02408F08E828F83A3A3A3A3A3E0601A03
:104313008E828F83A38582088583091246B38E829A
:104323008F83A3A3A3A3A312447FEE2419123D2BCF
:10433300EE241B123D2BA3124B55E070030243E8FE
:10434300EE2419F8EF3400F98E828F83A385820857
:10435300858309E0FAE50A2AF582E50B122C1A880F
:1043630082898312447FFAE50A2AF582E50B122C2F
:104373001AC0E0EE241A122B4AD0E012447F88823E
:104383008983E06059F8902126E493C3985005751A
:10439300110C8008EE2419122C17F5118E828F83CD
:1043A300A3E0F8E50A28F50CE50B124463120814A0
:1043B300E511C333FCE433FD7A597B0912445D12E2
:1043C3000846EE241B122B4A7459F0A37409F0E536
:1043D30011C333F8850882850983E0288006EE241B
:1043E3001812589EF08E828F83A3E0F88E828F83FB
:1043F300E0C3985003024277A3E0FA8A08E50A254E
:1044030008F8E50B3400F9EE241DF582EF124C1D7C
:1044130012448FC39AC0E0EE2417122B4AD0E01245
:104423004B1A602BEE2417F8EF3400F9880889093A
:104433008882F583E024F2124BFE240EFAA3E034C3
:1044430000FB8882898312488612446DC398F0A9C1
:104453000F0241597D00EEFAEFFB12121D74032285
:104463003400F50D750E00780C2290034EE0F9121E
:104473000AFDE9F8850882850983E022F085088230
:10448300850983E004F022A3A3A3A3A3F08E828F64
:1044930083E02274F412036C8A088B09EA12452420
:1044A300F0EA1313543F12451DA3A3A3F0EAC41368
:1044B30013124524A3A3F0EB12451612452E7409DB
:1044C300780A120A4E12451412452D740A780A12FC
:1044D3000A4EE50A5401C0E0EC2418F582ED122BD4
:1044E3004DD0E0124533740B780A120A4E1245146C
:1044F300A312452D740C780A120A4E124514A3A375
:10450300A3A3A3A3A3A3F0740D7808120A4E022752
:1045130079E50A54018C828D8322540F8C828D831A
:104523002254038C828D83A3A322A3A3A3A3A3A3B7
:10453300F08A0A8B0B22C082C08379008A828B8324
:10454300A3A3A3A3A3A3E090034D600FE070228A6B
:10455300828B83A3A3E07019098016E060138A821B
:104563008B83124E6F900356E06A7003A3E06B7067
:10457300E7023E2A74F012036C8A0A8B0B890C8CB7
:10458300088D091246C01246A48508828509831244
:1045930046EEE508125247E5091246E3C0E0E50896
:1045A3002411F582E509122B4DD0E01246DBC0E061
:1045B30012331D122B4DD0E0124C257408124C3EC1
:1045C300601112468CE5082413124C19124C25E095
:1045D3002408F0850882850983A3A3A3A3A3A3A327
:1045E300A3E06017850882850983A31246CBE508FB
:1045F3002415124C1912448F2408F085088285096A
:1046030083A3A3A3A3A3E06019850882850983A3D9
:10461300AE82AF831246B385088285098312448A2A
:1046230004F0AA08AB09120DC1E9F50D705685080F
:1046330082850983A3A3A3A3A3A31246977014E0BF
:10464300FA8A0EE50A250EF8E50B124B06E50CC3B4
:104653009A80211246CBE8240EF8E9124B06900308
:104663004EE0F9120AFD8E828F83E0F8E50CC398C1
:1046730024F2C399C0E0E5082417F582E509122B5B
:104683004DD0E0F0A90D025236E50A2408F8E50BF7
:104693003400F92212469B22E0850882850983A310
:1046A30022850A82850B83A3A3124704E0F9EA2239
:1046B300E0F8E50A28F582E50B124B2D228A828B5E
:1046C3008312523B120DBB22AE82AF83E0F8E50AA0
:1046D30028F8E50B3400F922124717A3A3A3E0221D
:1046E300123A77E8124710A3A3E022A3A3A3A3A33C
:1046F300A3A3A3A3124710124704A3A3E0F9EAF864
:1047030022E0FA850A82850B83A3A3A322F0A3E9FF
:1047130012471722F0850A82850B83A3A3A3A32242
:10472300C082C0837AD47B0379E2121A3F7AD47BA6
:1047330003023E2AC082C083900356023E27C082F2
:10474300C08374FE1208C4851882851983AA82ABBC
:1047530083794B124761124E787402023E00121A9B
:104763003F85188285198322C082C083794A121A31
:104773003F023E2A74F612036C9003DCE0FE04F061
:10478300EEF9120D738B09EA450970EDEE60EAF953
:1047930002494974F012036CEAFEEBFF8C088D09A1
:1047A300890A7410120A9CE0F50B7411120A9CE03A
:1047B300F50C120EB7EA4B7013E50C7042A90AAC64
:1047C30008AD09EEFAEFFB120ECF806EE50A602109
:1047D300EA2402F582EB122C1A850A082508F8E46C
:1047E300340013E813F070098A828B83A3A3740146
:1047F300F0E50C6045E50B70068A828B83E4F07468
:1048030001650C7035E50B9003E37004E4F0802A36
:10481300E004F0900AC2E0F89003E3E0C398401A82
:10482300E4F0900359E06E7003A3E06F700CEEFAAE
:10483300EFFB7901120C111248400252367A017BC8
:10484300009003B0E0F912134922C082C0837401BF
:104853006A7001EB70077A0112487780129005A9FC
:10486300124886EA4B60051224F580031248400281
:104873003E2A7A207B009003B0E0F91212712234B1
:1048830000F583EAF0A3EBF022C082C0839005AB6E
:10489300023427C082C0839005AD02342774F61218
:1048A300036C75084275090378081208187C6E7D3D
:1048B300007A217B0012130D7402120846E9F508F1
:1048C300120B39E9420890047012494060091249F9
:1048D30032121BD6E94208120AC1E9FE12158FE90A
:1048E300F8E5084E48F9805E74F612036C1218ADB1
:1048F300750842750903780812081875086E75095A
:104903000078081208187C007D007A217B001213BE
:10491300137404120846120B3F900472124940604C
:1049230006124932121BD6120AC7121595801712A6
:10493300562722EE240CF582EF3400F583123E2134
:10494300E849221208467F0202061A74F612036C23
:1049530074FF1208C47E00750842750903780812B3
:1049630008187C6E7D007A217B0012130D740212ED
:104973000846E96003024A18780812081875086E99
:104983008E0978081208187C007D007A217B0012BA
:1049930013197404120846E9707B900356E064FE11
:1049A3007003A3E0F4606E0E900365E06408600595
:1049B300E06404705C851882851983EE124A467A96
:1049C3006D7B037943121A457A6A7B037947121A7E
:1049D300457A5B7B03794A1230737A637B037950A0
:1049E300121A457A567B037953121A457A6B7B0365
:1049F3007954121A457A587B0379E1121A459003C8
:104A030050E0A2E35004D2F08002C2F0124A338095
:104A1300041218AD1E120B4590047412494060062F
:104A2300124932121BD6120AD3EEF9740102494617
:104A3300A2F0E433851882851983124A4F79521202
:104A43001A4522124A4F7942121A4522F0AA82AB22
:104A5300832274F612036CE9FEA2E0502675084225
:104A6300750903780812081875086E750900780827
:104A73001208187C007D007A217B00121313740442
:104A8300120846EEA2E35003120B4BEEA2E2500EC5
:104A93009004761249406006124932121BD602492D
:104AA30049AA82AB83120D257AB37B037945121A87
:104AB300452274F712036C74ED1208C4E9FE9003E7
:104AC300AF124E94124AE17412120A9CEE124AEE8D
:104AD300851882851983124AA474130250BB900A65
:104AE30090E0F97AB37B03120D2B22F0900A90E049
:104AF300F97CB37D0322AA08AB099003B0E0F91255
:104B03001247223400F9E508241DF582E509123A1B
:104B130077E8F0A3E9F022125305A3A3E022A3F060
:104B2300EE2415124B2A22F582EF3400F583E0229E
:104B3300124B37223400F583E0F8A3E0F988828929
:104B43008322E0F8124B4B22A3E0F98E828F83A3DA
:104B5300A322F0EE2418123A7422F0EE2416123A2D
:104B6300742274F412036CEAFEEBFF7A007B0412E6
:104B73004844124BF4124B149003657409F0120D60
:104B8300CD8A088B09AC08AD09EE2413122B4A1207
:104B93004E78124D48640170487A0F124BE760411A
:104BA3008A828B837402124BFEFAA3E0FB8A828B08
:104BB30083A3E0FC8A828B83A3A3E0FBEC850882BA
:104BC300850983A3A312488788828983124E7C12A6
:104BD300424F124B21FAA3E0FB794A121A45124ABB
:104BE300F9022C0F7B0012123B8A088B09EA450954
:104BF30022900336123E219005AD22F0EE241DF8DB
:104C0300EF124C0822123F62E022124C11223400B0
:104C1300F5837401F022F582E509123A77E8F0A3EF
:104C2300E922124C2922124C2D22F0850882850993
:104C330083A322124C2DA3A3A3A322124C36A3A316
:104C4300E02212504F120E3F22EE2417F582EF128C
:104C53004C11120DCDEE241A123A74EAF0A3EBF0C4
:104C63002274F412036C74F31208C48908EAFEEB8D
:104C7300FF7C0D7D007900851882851983AA82AB9C
:104C830083121229EE241D122B4A125618A3E0F8A0
:104C9300741F58600A79011218B97900024D3FE870
:104CA300A2E55008740C120A9C7401F0E8A2E750C4
:104CB30008740B120A9C7401F0E8A2E6740A500807
:104CC300120A9C7401F08008120A9CE064017005CA
:104CD300EE24138003EE24151253777402120A9CF8
:104CE300AA82AB831218D1122B47124D4D124B14CB
:104CF300740A120A9CE064017033122528703B1277
:104D03000DD98A0A8B0BA80AA90BEE240B122C17B8
:104D1300687003A3E0697022120DCDEAFCEBFD7409
:104D230002120A9CAA82AB83124D48600D85188239
:104D3300851983AA82AB83120C0BA908740D022C6C
:104D43000CEEFAEFFB1218CBE922E0124D5222F8D7
:104D5300A3E0F98518828519832274F612036C7413
:104D6300F31208C48A088B09ECFEEDFF7C0D7D006D
:104D73007900851882851983AA82AB831257CBA346
:104D8300A3A3A3A3A3A3A3A3124DE7124DF0F8A2D9
:104D9300E55008740B120A9C7401F0E8A2E750086E
:104DA300740A120A9C7401F0E8A2E6EE500424137C
:104DB300800224151253777402120A9C124DD9A350
:104DC300A3E0C0E0740C120A9CD0E0125047120C0E
:104DD30005740D024946AA82AB831218D185088255
:104DE30085098322E0124D52E8F0A3E922F0123A3A
:104DF3007112561CA3E02274F712036C74E11208BB
:104E0300C4EAFEEBFF8E828F83124E7CA3A3A3E042
:104E1300A2E050518E828F831226888A828B83A3CD
:104E2300A3A3A3A3A3E054FE124E948A828B8312FE
:104E33004E8DE0F98A828B83E0241CFAA3E01236BC
:104E43008A124E78120DC7E9701B741D120A9C1248
:104E53004E877011851882851983AC82AD83EEFA73
:104E6300EFFB120E2D0250B98E828F83A3A3A3A34F
:104E7300A3A3A3A3A3122C0522124E802212562011
:104E8300A3A3A322123AA9640422E0241B123F5BCA
:104E930022123E09AC82AD8322E9F87900740468DA
:104EA300600A740A6860057403687001090207F8F0
:104EB30074F612036C8A828B837420F0A3A37401AB
:104EC300F0120BB18A088B09AE08AF09EE4F6010E0
:104ED3008E828F837401F09003A3E07003124C4C15
:104EE300EEFAEFFB024949C082C0839003C8740104
:104EF300F0E9A2E350037403F0E9A2E15004E0D225
:104F0300E2F0023E2A74F612036C79007C008A08F0
:104F13008B0978081205D4F8FF073B4F394F394FF7
:104F2300394F394F324F364F3B4F2F4F0C80097C4F
:104F33000480050C80F67C089003C8E05C600309DC
:104F43008003EC60010902494974F612036C8A82FA
:104F53008B83E07012A3124940600C8A828B831208
:104F63004E77121B2F80047A007B0002494974F5A7
:104F730012036C74F31208C48A088B09ECFEEDFF6C
:104F8300750A12EA450970057900025040900356EC
:104F9300E065087004A3E065097014120DCDEAFC06
:104FA300EBFD124D447005750A018003750A0085F7
:104FB3001882851983E4F004120A9CE508F0A3E53E
:104FC30009125047120B75E960277403120A9CAA51
:104FD30082AB83120B57E964017016750A017403DF
:104FE300120A9CAC82AD83124D446021750A008085
:104FF3001C7412650A70169003A2E06402700EEE30
:10500300FCEFFDAA08AB09120B8DE970DFEEFCEF94
:10501300FDAA08AB09120EBDE9F8740A687005759C
:105023000A01801774A0687012EEFCEFFDAA08ABAA
:1050330009120EC9AA08AB09120EDBA90A740D02E4
:105043005B33740212504B2212504F22123E09AAB4
:1050530082AB832274F712036CEAFEEBFF8E828F1E
:1050630083A3A3A3A3A3A3A3A3E06015EE24151214
:105073002B4A122BF5120E57E96401700479018053
:10508300258E828F83A3A3A3A3A3A3A3E06015EE1E
:105093002413122B4A1250ABFAA3E0FB120E57E96A
:1050A300640160D979008013123776A3A3A3A3A365
:1050B300A3A3A3A3E022741F1208467F0102061ACA
:1050C30074F012036C74FD1208C48A088B09ECFE99
:1050D300EDFF890B7413120A9CE0F50C750A017439
:1050E30001120A9C74041256506048E50C601DEAD4
:1050F3002417F582EB1258A112563E8A828B83E065
:10510300D2E7F0EA2414F582EB123D2E125246EB5D
:10511300124B337403125BC4EE88828983A3A3F01A
:10512300EF88828983A3A3123820123827120BAB8E
:10513300E9F50AA90A740302523374EC12036C747E
:10514300F51208C48A0A8B0B890C8C0E8D0F741F01
:10515300120A9CE0F50D7420120A9CE0F510A3E0FE
:10516300F5117E01EE120A9C740AF0E97007E50D51
:10517300C333240AF0125318700302521A12532D28
:105183007409F0A3E50CC43354E0450D12533FE515
:105193000C702D7C008023ECC333F8E433F9E51065
:1051A30028F8E51139F98882898312522788828980
:1051B30083122E67F0A30EAF830CECC3950D40D77B
:1051C300E5082417F582E509124C0D120DCDE5080B
:1051D300241AF582E5091248827403120A9CAC82F0
:1051E300AD83AA0AAB0B120B5DE96019E50824161F
:1051F300F582E509125221120A9CA882A983E508C7
:105203002418124B0D850882850983125BC0AA08F6
:10521300AB09120BABE9FEEEF9740B025310124CFF
:1052230011740322E08E828F83F0A3AE82AF8322B8
:105233001208467F0802061A123AD1F9EA2400E45A
:1052430039FB22EA240BF5822274EE12036C8A0CDA
:105253008B0D890E8C088D097412120A9CE0F50FD0
:105263007413120A9C1252F9900518124940607780
:10527300E50FC333F8E433F9E8240EFAE93400FB0D
:1052830012123B8A108B11AE10AF11EE4F60588E85
:10529300828F8374D4F0A3A3E50CF0A3E50D12531E
:1052A30001E50EF0AC08AD09EE2405FAEF125659EC
:1052B300EE240D122B4AE50FF0850A08850B0975BC
:1052C3000A007808120814E50FC333FCE433FDEE3B
:1052D300240EFAEF1252F0120846EEFAEFFB900595
:1052E30018125618121BD6024159FAE5093400FB6D
:1052F30012121D740322E0F50AA3E0F50B221253E8
:10530300052212530922123D42A3A3A322120846E7
:105313007F0C02061A851882851983AA82AB831231
:105323000E3F8A088B09EA450922EA240BF582EB32
:10533300124B2DFEA3E0FF8E828F8322F0A3AE8259
:10534300AF83AC0EAD0FEEFAEFFB125351221218DE
:10535300D112535822EE2408FEEF3400FF22E0FA64
:105363008E828F83A3A3E022FEA3E03400FF8E820C
:105373008F83E022123A7412537E22E0FCA3E0FDF5
:1053830022122C05120DB52274F712036CE9FE7C70
:10539300007D0078007900800D125449E02CFCA3B5
:1053A300E03DFD125A63125ACC502CE8FAE9FBEAAD
:1053B30075F012A4FAAFF075F012EBA42F125A6C29
:1053C300F460E012545012398F60D8EE60CB12545F
:1053D30049E4F0A3F080CC78007900800D125429C1
:1053E300E02CFCA3E03DFD125A63125ABF5030E893
:1053F300FAE9FBEA75F017A4FAAFF075F017EBA41E
:105403002F125A9B7003A3E0F460DC12543012395C
:105413008F60D4EE60C7125429E4F0A3F080C8EC87
:10542300FAEDFB0250BE1254303BF58322E8FAE951
:10543300FBEA75F017A4FA75F017EBA42FFB74FAC7
:105443002AF5827407221254503BF58322E8FAE9C5
:10545300FBEA75F012A4FA75F012EBA42FFB747B30
:105463002AF58274062274F612036CEAFEEBFF90AF
:1054730003C9801388828983E06E7003A3E06F60A1
:105483003A88828983A3A312494070E87A047B0097
:105493001212B98A088B09A808A909E849601C886F
:1054A3008289831254C59003C9124E7888828983F6
:1054B300A3A31248869003C9124B140249498A8256
:1054C3008B83EEF0A3EFF02274F412036C7E009052
:1054D30003C980070E88828983A3A312494070F40D
:1054E300EEC333FAE433FB125573607E7F009003FF
:1054F300C980248882898312537AEFC333FAE43351
:10550300FBE5082AF582E5093BF583ECF0A3EDF012
:105513000F88828983A3A312494070D79003AB12EB
:1055230025627003A3E06978087019120818EEF574
:105533000A780A12081C7C777D0379009003AB126A
:10554300557E801A120818EEF50A780A12081C7C98
:10555300777D0379009003AB124E78120E697403C2
:10556300120846AA08AB091212BF120BC3022C0F72
:105573001212B98A088B09EA450922122C05120E68
:105583006F22C082C08380128A828B83A3A3123AC4
:10559300829003C9124B141212BF9003C91239929D
:1055A30070E6023E2A74F612036C900363123AAE5D
:1055B3009003DD125607124B147ADD7B03795012E8
:1055C3001A459003DD122781FAEFFB120ED59003E3
:1055D300DD123AAE90051A12494060257A067B0027
:1055E30012123BEA4B601A8A828B8374D5F0A3A311
:1055F300E412562D0412563E90051A125618121B29
:10560300D602494912560B22E0F8A3E0F99003634E
:10561300228E828F8312561C2212562022E0F81209
:10562300562622A3E0F5838882221256312212568F
:105633003522F08A828B83A3A3A322125631A3EED1
:10564300F0A3EFF022F582EF124B2DF922124C4515
:10565300EA4B22FAE5093400FB1218D122124B4C13
:10566300A3A3A3A3A3A3A322902124E4932401F837
:10567300E43400F97A027B002274F712036C7E0093
:105683008004125C770E12579B40F77E00EE125691
:10569300A874FEF0A3041256BDE4F00EEEC3940307
:1056A30040EB0250BE75F003A4F8A9F074CB28F8C0
:1056B300740339F988828983A3221256C122F088A0
:1056C3008289832274F712036C7F0080010F90217B
:1056D3002AE493F8EFC3985026EF1258876A7003B1
:1056E300A3E06B70E8125C246C7003A3E06D600AA6
:1056F30074FF6C700374FF6D70D312578480047A47
:10570300007B000250BE74F612036C7CFF7DFF7AAF
:10571300FE7BFF120E99EA4B70407508008036E558
:105723000875F017A4F8A9F074F428F58274071229
:105733005899600C74F328F5827407125899701302
:1057430074E528FE740739FF8E828F831258A6EE04
:10575300FAEFFB050812580140C502494974F412D7
:10576300036C8A088B09ECFEEDFF800B120EABEE87
:10577300FCEFFDAA08AB09120E99EA4B70EE022C5E
:105783000F74E528FA740739FB22EE75F017A4F8B5
:10579300A9F012589264FE2290212AE493F8EEC3F2
:1057A300982274F712036CEAFEEBFFEE4F601012BF
:1057B30057C574FEF0A304125BCA14F0A304F002ED
:1057C30050BE7C177D0079001212298E828F8322AE
:1057D30074F712036CEAFEEBFF7508008018E50806
:1057E30075F017A4F8A9F0125C2F7003A3E06F60A3
:1057F30003125C7F050812580140E30250BE90215A
:105803002AE493F8E508C3982274F612036C120E87
:10581300998A088B09A808A909E849600AE8240DB0
:10582300FAE93400FB80047A007B0002494974F4EE
:1058330012036C8A0A8B0BECFEEDFF7508007509E9
:1058430000802EE50975F017A4F8A9F0125C6A60D0
:105853001EE509125887650A7004A3E0650B7003FF
:1058630075080AEEFCEFFD125B2660034308A005F2
:105873000990212AE493F8E509C3985004E50860E8
:10588300C202277975F017A4F8A9F012589222746E
:10589300E528F582740739F583E022F582EF123AA1
:1058A30077E422122C05120CA7221256C1A3A3A33C
:1058B300A3A3A3A3A32274F212036C8A088B09EC9B
:1058C300FEEDFF740E120A9C1252F9750C007C0057
:1058D3007D018010121235E50CF5F0EA84ACF07509
:1058E3000C007D00780079008003125A63125ABFBE
:1058F3004003025985E8FAE9FBEA75F017A4FA8533
:10590300F00D75F017EBA4250D125A9B7003A3E05D
:10591300F460D7125A7965087004A3E0650960CA78
:10592300125A796E7003A3E06F60BF125A79650A49
:105933007004A3E0650B60B2E8FAE9FBEA75F017BF
:10594300A4FA75F017EBA4250DFB74F32AF5827402
:1059530007125A5A509474016D050C608DE50CC3FF
:105963009C4087E875F017A4F8AAF075F017E9A42E
:105973002AF974E528F582740739F583124E780203
:105983005A57780079008003125A63125ACC4003A5
:10599300025A3EE8FAE9FBEA75F012A4FA85F00D23
:1059A300125AAB64FE7003A3E0F460DC125AA165E3
:1059B300087004A3E0650960CF125AA16E7003A3B7
:1059C300E06F60C4125AA1650A7004A3E0650B601E
:1059D300B7E8FAE9FBEA75F012A4FA75F012EBA442
:1059E300250DFB74742AF5827406125A5A5099E8ED
:1059F300FAE9FBEA75F012A4FA75F012EBA4250D8F
:105A0300125A6C64016081E06402700302598B7462
:105A1300016D050C700302598BE50CC39C50030206
:105A2300598BE875F012A4F8AAF075F012E9A42ACC
:105A3300F9746B28F582740602597CE50C6011EC4D
:105A4300700E7401650C60030258D77C010258E2A2
:105A53007AFE7BFF02256E3BF583E014C394062296
:105A6300E8240108E93400F922FB746F2AF58274F3
:105A7300063BF583E022E8FAE9FBEA75F017A4FA9E
:105A830075F017EBA4250D125A8E22FB74E52AF547
:105A93008274073BF583E022125A8E64FE22E8FAF1
:105AA300E9FBEA75F012A4FA75F012EBA4250DFBDD
:105AB300746B2AF58274063BF583E02290212AE475
:105AC30093FAC3E89AE994002290211AE493FA74B2
:105AD3000193FBC3E89AE99B2274F512036C8A08CD
:105AE3008B09ECFEEDFF750A008002050A90212A5E
:105AF300E493F8E50AC3985028EEFCEFFDE50A7538
:105B0300F017A4F8A9F0125B2660E0E50A75F01718
:105B1300A4F8A9F074E528F582740739F5831238DF
:105B230029801074E728FA740739FB1218CBE9228D
:105B33001208467F0302061A74F012036C8A088B5C
